{
  "abi": [
    {
      "inputs": [
        {
          "internalType": "contract IStakingEscrow",
          "name": "_escrow",
          "type": "address"
        },
        {
          "internalType": "enum SignatureVerifier.HashAlgorithm",
          "name": "_hashAlgorithm",
          "type": "uint8"
        },
        {
          "internalType": "uint256",
          "name": "_basePenalty",
          "type": "uint256"
        },
        {
          "internalType": "uint256",
          "name": "_penaltyHistoryCoefficient",
          "type": "uint256"
        },
        {
          "internalType": "uint256",
          "name": "_percentagePenaltyCoefficient",
          "type": "uint256"
        },
        {
          "internalType": "uint256",
          "name": "_rewardCoefficient",
          "type": "uint256"
        }
      ],
      "stateMutability": "nonpayable",
      "type": "constructor"
    },
    {
      "anonymous": false,
      "inputs": [
        {
          "indexed": true,
          "internalType": "bytes32",
          "name": "evaluationHash",
          "type": "bytes32"
        },
        {
          "indexed": true,
          "internalType": "address",
          "name": "investigator",
          "type": "address"
        },
        {
          "indexed": false,
          "internalType": "bool",
          "name": "correctness",
          "type": "bool"
        }
      ],
      "name": "CFragEvaluated",
      "type": "event"
    },
    {
      "anonymous": false,
      "inputs": [
        {
          "indexed": true,
          "internalType": "bytes32",
          "name": "evaluationHash",
          "type": "bytes32"
        },
        {
          "indexed": true,
          "internalType": "address",
          "name": "worker",
          "type": "address"
        },
        {
          "indexed": true,
          "internalType": "address",
          "name": "staker",
          "type": "address"
        }
      ],
      "name": "IncorrectCFragVerdict",
      "type": "event"
    },
    {
      "anonymous": false,
      "inputs": [
        {
          "indexed": true,
          "internalType": "address",
          "name": "previousOwner",
          "type": "address"
        },
        {
          "indexed": true,
          "internalType": "address",
          "name": "newOwner",
          "type": "address"
        }
      ],
      "name": "OwnershipTransferred",
      "type": "event"
    },
    {
      "anonymous": false,
      "inputs": [
        {
          "indexed": true,
          "internalType": "address",
          "name": "testTarget",
          "type": "address"
        },
        {
          "indexed": false,
          "internalType": "address",
          "name": "sender",
          "type": "address"
        }
      ],
      "name": "StateVerified",
      "type": "event"
    },
    {
      "anonymous": false,
      "inputs": [
        {
          "indexed": true,
          "internalType": "address",
          "name": "target",
          "type": "address"
        },
        {
          "indexed": false,
          "internalType": "address",
          "name": "sender",
          "type": "address"
        }
      ],
      "name": "UpgradeFinished",
      "type": "event"
    },
    {
      "inputs": [],
      "name": "basePenalty",
      "outputs": [
        {
          "internalType": "uint256",
          "name": "",
          "type": "uint256"
        }
      ],
      "stateMutability": "view",
      "type": "function"
    },
    {
      "inputs": [],
      "name": "escrow",
      "outputs": [
        {
          "internalType": "contract IStakingEscrow",
          "name": "",
          "type": "address"
        }
      ],
      "stateMutability": "view",
      "type": "function"
    },
    {
      "inputs": [
        {
          "internalType": "bytes",
          "name": "_capsuleBytes",
          "type": "bytes"
        },
        {
          "internalType": "bytes",
          "name": "_cFragBytes",
          "type": "bytes"
        },
        {
          "internalType": "bytes",
          "name": "_cFragSignature",
          "type": "bytes"
        },
        {
          "internalType": "bytes",
          "name": "_taskSignature",
          "type": "bytes"
        },
        {
          "internalType": "bytes",
          "name": "_requesterPublicKey",
          "type": "bytes"
        },
        {
          "internalType": "bytes",
          "name": "_workerPublicKey",
          "type": "bytes"
        },
        {
          "internalType": "bytes",
          "name": "_workerIdentityEvidence",
          "type": "bytes"
        },
        {
          "internalType": "bytes",
          "name": "_preComputedData",
          "type": "bytes"
        }
      ],
      "name": "evaluateCFrag",
      "outputs": [],
      "stateMutability": "nonpayable",
      "type": "function"
    },
    {
      "inputs": [
        {
          "internalType": "bytes32",
          "name": "",
          "type": "bytes32"
        }
      ],
      "name": "evaluatedCFrags",
      "outputs": [
        {
          "internalType": "bool",
          "name": "",
          "type": "bool"
        }
      ],
      "stateMutability": "view",
      "type": "function"
    },
    {
      "inputs": [
        {
          "internalType": "address",
          "name": "_target",
          "type": "address"
        }
      ],
      "name": "finishUpgrade",
      "outputs": [],
      "stateMutability": "nonpayable",
      "type": "function"
    },
    {
      "inputs": [],
      "name": "hashAlgorithm",
      "outputs": [
        {
          "internalType": "enum SignatureVerifier.HashAlgorithm",
          "name": "",
          "type": "uint8"
        }
      ],
      "stateMutability": "view",
      "type": "function"
    },
    {
      "inputs": [],
      "name": "isOwner",
      "outputs": [
        {
          "internalType": "bool",
          "name": "",
          "type": "bool"
        }
      ],
      "stateMutability": "view",
      "type": "function"
    },
    {
      "inputs": [],
      "name": "isUpgrade",
      "outputs": [
        {
          "internalType": "uint8",
          "name": "",
          "type": "uint8"
        }
      ],
      "stateMutability": "view",
      "type": "function"
    },
    {
      "inputs": [],
      "name": "owner",
      "outputs": [
        {
          "internalType": "address",
          "name": "",
          "type": "address"
        }
      ],
      "stateMutability": "view",
      "type": "function"
    },
    {
      "inputs": [
        {
          "internalType": "address",
          "name": "",
          "type": "address"
        }
      ],
      "name": "penaltyHistory",
      "outputs": [
        {
          "internalType": "uint256",
          "name": "",
          "type": "uint256"
        }
      ],
      "stateMutability": "view",
      "type": "function"
    },
    {
      "inputs": [],
      "name": "penaltyHistoryCoefficient",
      "outputs": [
        {
          "internalType": "uint256",
          "name": "",
          "type": "uint256"
        }
      ],
      "stateMutability": "view",
      "type": "function"
    },
    {
      "inputs": [],
      "name": "percentagePenaltyCoefficient",
      "outputs": [
        {
          "internalType": "uint256",
          "name": "",
          "type": "uint256"
        }
      ],
      "stateMutability": "view",
      "type": "function"
    },
    {
      "inputs": [],
      "name": "previousTarget",
      "outputs": [
        {
          "internalType": "address",
          "name": "",
          "type": "address"
        }
      ],
      "stateMutability": "view",
      "type": "function"
    },
    {
      "inputs": [],
      "name": "renounceOwnership",
      "outputs": [],
      "stateMutability": "nonpayable",
      "type": "function"
    },
    {
      "inputs": [],
      "name": "rewardCoefficient",
      "outputs": [
        {
          "internalType": "uint256",
          "name": "",
          "type": "uint256"
        }
      ],
      "stateMutability": "view",
      "type": "function"
    },
    {
      "inputs": [],
      "name": "target",
      "outputs": [
        {
          "internalType": "address",
          "name": "",
          "type": "address"
        }
      ],
      "stateMutability": "view",
      "type": "function"
    },
    {
      "inputs": [
        {
          "internalType": "address",
          "name": "newOwner",
          "type": "address"
        }
      ],
      "name": "transferOwnership",
      "outputs": [],
      "stateMutability": "nonpayable",
      "type": "function"
    },
    {
      "inputs": [
        {
          "internalType": "address",
          "name": "_testTarget",
          "type": "address"
        }
      ],
      "name": "verifyState",
      "outputs": [],
      "stateMutability": "nonpayable",
      "type": "function"
    }
  ],
  "bytecode": "6101406040523480156200001257600080fd5b506040516200388b3803806200388b83398101604081905262000035916200015a565b600080546001600160a01b0319163390811782556040519091907f8be0079c531659141344cd1fd0a4f28419497f9722a3daafe3b4186f6b6457e0908290a36000866001600160a01b031663407f80016040518163ffffffff1660e01b8152600401602060405180830381865afa158015620000b5573d6000803e3d6000fd5b505050506040513d601f19601f82011682018060405250810190620000db9190620001cb565b63ffffffff16118015620000ee57508115155b8015620000fa57508015155b6200010457600080fd5b6001600160a01b038616608052846002811115620001265762000126620001fa565b60a08160028111156200013d576200013d620001fa565b90525060c0939093526101005260e0526101205250620002109050565b60008060008060008060c087890312156200017457600080fd5b86516001600160a01b03811681146200018c57600080fd5b602088015190965060038110620001a257600080fd5b6040880151606089015160808a015160a0909a0151989b929a5090989097909650945092505050565b600060208284031215620001de57600080fd5b815163ffffffff81168114620001f357600080fd5b9392505050565b634e487b7160e01b600052602160045260246000fd5b60805160a05160c05160e05161010051610120516135de620002ad6000396000818161033401526122a70152600081816102870152612276015260008181610135015261221e01526000818161019a01526122450152600081816101c10152818161037f0152818161058a0152818161065301526107740152600081816102c10152818161082d0152818161091d0152610a1e01526135de6000f3fe608060405234801561001057600080fd5b50600436106101165760003560e01c80638f32d59b116100a2578063e2fdcc1711610071578063e2fdcc17146102bc578063e38a303b146102e3578063e8dccd0614610309578063f2fde38b1461031c578063fc9daa071461032f57600080fd5b80638f32d59b1461025c578063b9626d211461026f578063bd02b14014610282578063d4b83992146102a957600080fd5b806359a15fa5116100e957806359a15fa5146101bc5780635d5b6836146101f05780637053544314610210578063715018a6146102435780638da5cb5b1461024b57600080fd5b80630bea809b1461011b5780631f96670b146101305780634b2cd1181461016a5780635712e98c14610195575b600080fd5b61012e610129366004612ff9565b610356565b005b6101577f000000000000000000000000000000000000000000000000000000000000000081565b6040519081526020015b60405180910390f35b60025461017d906001600160a01b031681565b6040516001600160a01b039091168152602001610161565b6101577f000000000000000000000000000000000000000000000000000000000000000081565b6101e37f000000000000000000000000000000000000000000000000000000000000000081565b604051610161919061314f565b6101576101fe36600461318c565b60046020526000908152604090205481565b61023361021e3660046131a9565b60056020526000908152604090205460ff1681565b6040519015158152602001610161565b61012e610ad3565b6000546001600160a01b031661017d565b6000546001600160a01b03163314610233565b61012e61027d36600461318c565b610b34565b6101577f000000000000000000000000000000000000000000000000000000000000000081565b60015461017d906001600160a01b031681565b61017d7f000000000000000000000000000000000000000000000000000000000000000081565b6002546102f790600160a01b900460ff1681565b60405160ff9091168152602001610161565b61012e61031736600461318c565b610bf8565b61012e61032a36600461318c565b610c63565b6101577f000000000000000000000000000000000000000000000000000000000000000081565b60006103a3898960405160200161036e9291906131fd565b6040516020818303038152906040527f0000000000000000000000000000000000000000000000000000000000000000610c86565b60008181526005602052604090205490915060ff16156104195760405162461bcd60e51b815260206004820152602660248201527f546869732043467261672068617320616c7265616479206265656e206576616c6044820152653ab0ba32b21760d11b60648201526084015b60405180910390fd5b6000818152600560205260408120805460ff1916600117905561043d8a8a85610d6e565b9050336001600160a01b0316827f14c7c3aeaed5d9de50669529f936d80ff48af1f52beb8447437689cb298131a88360405161047d911515815260200190565b60405180910390a361048e85611990565b6104da5760405162461bcd60e51b815260206004820152601e60248201527f5374616b65722773207075626c6963206b657920697320696e76616c696400006044820152606401610410565b6104e386611990565b6105395760405162461bcd60e51b815260206004820152602160248201527f5265717565737465722773207075626c6963206b657920697320696e76616c696044820152601960fa1b6064820152608401610410565b600061054484611a0d565b90506105ae8a8a836102c0015160016005811061056357610563613212565b1a60f81b604051602001610578929190613228565b604051602081830303815290604052887f0000000000000000000000000000000000000000000000000000000000000000611dc8565b6105fa5760405162461bcd60e51b815260206004820152601a60248201527f4346726167207369676e617475726520697320696e76616c69640000000000006044820152606401610410565b60006106058b611e16565b905061067789826080015160c00151846102c0015160026005811061062c5761062c613212565b1a60f81b604051602001610641929190613228565b604051602081830303815290604052897f0000000000000000000000000000000000000000000000000000000000000000611dc8565b6106c35760405162461bcd60e51b815260206004820152601960248201527f5461736b207369676e617475726520697320696e76616c6964000000000000006044820152606401610410565b60208701516102c083015160009060041a60f81b826040516020016106fe9291906001600160f81b0319929092168252600182015260210190565b60405160208183030381529060405290506107988e828a876102a001516000801b60405160200161073395949392919061324d565b60408051601f198184030181529190526102c08601518d9060031a60f81b604051602001610762929190613228565b6040516020818303038152906040528c7f0000000000000000000000000000000000000000000000000000000000000000611dc8565b6107ef5760405162461bcd60e51b815260206004820152602260248201527f53706563696669636174696f6e207369676e617475726520697320696e76616c6044820152611a5960f21b6064820152608401610410565b600061080861080283604560f81b611ef8565b8a61213a565b60405163597759b760e11b81526001600160a01b0380831660048301529192506000917f0000000000000000000000000000000000000000000000000000000000000000169063b2eeb36e90602401602060405180830381865afa158015610874573d6000803e3d6000fd5b505050506040513d601f19601f820116820180604052508101906108989190613293565b90506001600160a01b0381166108fb5760405162461bcd60e51b815260206004820152602260248201527f576f726b6572206d7573742062652072656c6174656420746f2061207374616b60448201526132b960f11b6064820152608401610410565b604051630bc5b6f360e11b81526001600160a01b0382811660048301526000917f00000000000000000000000000000000000000000000000000000000000000009091169063178b6de690602401602060405180830381865afa158015610966573d6000803e3d6000fd5b505050506040513d601f19601f8201168201806040525081019061098a91906132b0565b9050600081116109d35760405162461bcd60e51b81526020600482015260146024820152735374616b657220686173206e6f20746f6b656e7360601b6044820152606401610410565b87610ac0576000806109e584846121f9565b604051632673086360e21b81526001600160a01b03878116600483015260248201849052336044830152606482018390529294509092507f0000000000000000000000000000000000000000000000000000000000000000909116906399cc218c90608401600060405180830381600087803b158015610a6457600080fd5b505af1158015610a78573d6000803e3d6000fd5b50505050836001600160a01b0316856001600160a01b03168c7f860028d7f53afb628cae3582337c99be24159f7ee9d68a96babbc7f054a36caf60405160405180910390a450505b5050505050505050505050505050505050565b6000546001600160a01b03163314610aea57600080fd5b600080546040516001600160a01b03909116907f8be0079c531659141344cd1fd0a4f28419497f9722a3daafe3b4186f6b6457e0908390a3600080546001600160a01b0319169055565b610b3d81612314565b6040805160006020820181905291610b6791015b6040516020818303038152906040526001610c86565b60008181526005602052604090205490915060ff16610b87576000610b8a565b60015b60ff16610b9f83637053544360e01b8461236e565b14610ba957600080fd5b600080805260046020527f17ef568e3e12ab5b9c7254a8d58478811de00f9e6eb34345acd53bf8fd09d3ec5490610bea908490632eadb41b60e11b9061236e565b14610bf457600080fd5b5050565b610c0181612389565b6040805160006020820181905291610c199101610b51565b60009081526005602090815260408220805460ff19166001179055908052600490525050607b7f17ef568e3e12ab5b9c7254a8d58478811de00f9e6eb34345acd53bf8fd09d3ec55565b6000546001600160a01b03163314610c7a57600080fd5b610c83816123dc565b50565b600080826002811115610c9b57610c9b613139565b1415610cae575081516020830120610d68565b6001826002811115610cc257610cc2613139565b1415610d1f57600283604051610cd891906132c9565b602060405180830381855afa158015610cf5573d6000803e3d6000fd5b5050506040513d601f19601f82011682018060405250810190610d1891906132b0565b9050610d68565b600383604051610d2f91906132c9565b602060405180830381855afa158015610d4c573d6000803e3d6000fd5b5050506040515160601b6bffffffffffffffffffffffff191690505b92915050565b600080610d7a8561244a565b90506000610d8785611e16565b90506000610d9485611a0d565b90506000610deb826102800151846080015160a00151846102c00151600060058110610dc257610dc2613212565b1a60f81b604051602001610dd7929190613228565b60405160208183030381529060405261213a565b9050816102a001516001600160a01b0316816001600160a01b031614610e495760405162461bcd60e51b8152602060048201526013602482015272426164204b46726167207369676e617475726560681b6044820152606401610410565b6000610e5585856124dd565b855180516020909101518551929350610e6d92612615565b610eee5760405162461bcd60e51b815260206004820152604660248201527f507265636f6d7075746564205920636f6f7264696e617465206f66204520646f60448201527f65736e277420636f72726573706f6e6420746f20636f6d707265737365642045606482015265081c1bda5b9d60d21b608482015260a401610410565b610f0083602001518460400151612642565b610f4c5760405162461bcd60e51b815260206004820181905260248201527f506f696e74207a45206973206e6f7420612076616c696420454320706f696e746044820152606401610410565b610f758560000151602001518460000151866080015160800151866020015187604001516126bf565b610fcc5760405162461bcd60e51b815260206004820152602260248201527f507265636f6d7075746564207a2a452076616c756520697320696e636f72726560448201526118dd60f21b6064820152608401610410565b835180516020909101516060850151610fe6929190612615565b6110575760405162461bcd60e51b815260206004820152604860248201527f507265636f6d7075746564205920636f6f7264696e617465206f6620453120646044820152600080516020613589833981519152606482015267114c481c1bda5b9d60c21b608482015260a401610410565b61106983608001518460a00151612642565b6110c05760405162461bcd60e51b815260206004820152602260248201527f506f696e7420682a4531206973206e6f7420612076616c696420454320706f696044820152611b9d60f21b6064820152608401610410565b6110e184600001516020015184606001518386608001518760a001516126bf565b6111395760405162461bcd60e51b815260206004820152602360248201527f507265636f6d707574656420682a45312076616c756520697320696e636f72726044820152621958dd60ea1b6064820152608401610410565b608084015151805160209091015160c0850151611157929190612615565b6111c85760405162461bcd60e51b815260206004820152604860248201527f507265636f6d7075746564205920636f6f7264696e617465206f6620453220646044820152600080516020613589833981519152606482015267114c881c1bda5b9d60c21b608482015260a401610410565b6000611239604051806040016040528086602001518152602001866040015181525061123460405180604001604052808960800151600001516020015181526020018860c001518152506040518060400160405280896080015181526020018960a0015181525061279f565b61293b565b90508061124f5760009650505050505050611989565b602080870151805191015160e086015161126a929190612615565b6112eb5760405162461bcd60e51b815260206004820152604660248201527f507265636f6d7075746564205920636f6f7264696e617465206f66205620646f60448201527f65736e277420636f72726573706f6e6420746f20636f6d707265737365642056606482015265081c1bda5b9d60d21b608482015260a401610410565b6112ff846101000151856101200151612642565b61134b5760405162461bcd60e51b815260206004820181905260248201527f506f696e74207a56206973206e6f7420612076616c696420454320706f696e746044820152606401610410565b6113768660200151602001518560e001518760800151608001518761010001518861012001516126bf565b6113cd5760405162461bcd60e51b815260206004820152602260248201527f507265636f6d7075746564207a2a562076616c756520697320696e636f72726560448201526118dd60f21b6064820152608401610410565b60208086015180519101516101408601516113e9929190612615565b61145a5760405162461bcd60e51b815260206004820152604860248201527f507265636f6d7075746564205920636f6f7264696e617465206f6620563120646044820152600080516020613589833981519152606482015267158c481c1bda5b9d60c21b608482015260a401610410565b61146e846101600151856101800151612642565b6114c55760405162461bcd60e51b815260206004820152602260248201527f506f696e7420682a5631206973206e6f7420612076616c696420454320706f696044820152611b9d60f21b6064820152608401610410565b6114e9856020015160200151856101400151848761016001518861018001516126bf565b6115055760405162461bcd60e51b8152600401610410906132d5565b608085015160209081015180519101516101a0860151611526929190612615565b6115975760405162461bcd60e51b815260206004820152604860248201527f507265636f6d7075746564205920636f6f7264696e617465206f6620563220646044820152600080516020613589833981519152606482015267158c881c1bda5b9d60c21b608482015260a401610410565b611606604051806040016040528086610100015181526020018661012001518152506112346040518060400160405280896080015160200151602001518152602001886101a001518152506040518060400160405280896101600151815260200189610180015181525061279f565b90508061161c5760009650505050505050611989565b611630846101c00151856101e00151612642565b6116865760405162461bcd60e51b815260206004820152602160248201527f506f696e74207a2a55206973206e6f7420612076616c696420454320706f696e6044820152601d60fa1b6064820152608401610410565b6116e57f03c98795773ff1c241fc0b1cced85e80f8366581dda5c9452175ebd41385fa1f7f7880ed56962d7c0ae44d6f14bb53b5fe64b31ea44a41d0316f3a598778f0f936876080015160800151876101c00151886101e001516126bf565b61173c5760405162461bcd60e51b815260206004820152602260248201527f507265636f6d7075746564207a2a552076616c756520697320696e636f72726560448201526118dd60f21b6064820152608401610410565b608085015160400151805160209091015161020086015161175e929190612615565b6117cf5760405162461bcd60e51b815260206004820152604860248201527f507265636f6d7075746564205920636f6f7264696e617465206f6620553120646044820152600080516020613589833981519152606482015267154c481c1bda5b9d60c21b608482015260a401610410565b6117e3846102200151856102400151612642565b61183a5760405162461bcd60e51b815260206004820152602260248201527f506f696e7420682a5531206973206e6f7420612076616c696420454320706f696044820152611b9d60f21b6064820152608401610410565b61186285608001516040015160200151856102000151848761022001518861024001516126bf565b61187e5760405162461bcd60e51b8152600401610410906132d5565b60808501516060015180516020909101516102608601516118a0929190612615565b6119115760405162461bcd60e51b815260206004820152604860248201527f507265636f6d7075746564205920636f6f7264696e617465206f6620553220646044820152600080516020613589833981519152606482015267154c881c1bda5b9d60c21b608482015260a401610410565b6119806040518060400160405280866101c001518152602001866101e0015181525061123460405180604001604052808960800151606001516020015181526020018861026001518152506040518060400160405280896102200151815260200189610240015181525061279f565b96505050505050505b9392505050565b600081516040146119f15760405162461bcd60e51b815260206004820152602560248201527f53657269616c697a656420636f6f7264696e617465732073686f756c64206265604482015264101b1a102160d91b6064820152608401610410565b60208201516040830151611a058282612642565b949350505050565b611ad4604051806102e0016040528060008152602001600081526020016000815260200160008152602001600081526020016000815260200160008152602001600081526020016000815260200160008152602001600081526020016000815260200160008152602001600081526020016000815260200160008152602001600081526020016000815260200160008152602001600081526020016000801916815260200160006001600160a01b0316815260200160006001600160d81b03191681525090565b611ae06020601461332e565b611aeb90602061334d565b611af690601461334d565b611b0190600561334d565b825114611b0d57600080fd5b60208201805181908352611b2260208261334d565b9050611b2c815190565b602080850191909152611b3f908261334d565b9050611b49815190565b6040840152611b5960208261334d565b9050611b63815190565b6060840152611b7360208261334d565b9050611b7d815190565b6080840152611b8d60208261334d565b9050611b97815190565b60a0840152611ba760208261334d565b9050611bb1815190565b60c0840152611bc160208261334d565b9050611bcb815190565b60e0840152611bdb60208261334d565b9050611be5815190565b610100840152611bf660208261334d565b9050611c00815190565b610120840152611c1160208261334d565b9050611c1b815190565b610140840152611c2c60208261334d565b9050611c36815190565b610160840152611c4760208261334d565b9050611c51815190565b610180840152611c6260208261334d565b9050611c6c815190565b6101a0840152611c7d60208261334d565b9050611c87815190565b6101c0840152611c9860208261334d565b9050611ca2815190565b6101e0840152611cb360208261334d565b9050611cbd815190565b610200840152611cce60208261334d565b9050611cd8815190565b610220840152611ce960208261334d565b9050611cf3815190565b610240840152611d0460208261334d565b9050611d0e815190565b610260840152611d1f60208261334d565b9050611d29815190565b610280840152611d3a60208261334d565b9050611d44815190565b60601c6102a0840152611d5860148261334d565b9050611d62815190565b6001600160d81b0319166102c0840152611d7d60058261334d565b9050611d8b6020601461332e565b611d9690602061334d565b611da190601461334d565b611dac90600561334d565b611db6908361334d565b8114611dc157600080fd5b5050919050565b60008251604014611dd857600080fd5b611deb611de58684610c86565b8561213a565b6001600160a01b0316611e0384805160209091012090565b6001600160a01b03161495945050505050565b611e1e612e5c565b815160406020611e306021600461332e565b611e3a919061334d565b611e44919061334d565b6020611e526021600361332e565b611e5c919061334d565b611e66919061334d565b811015611e7257600080fd5b81516020840190611e849082906129b5565b9050611e948184602001516129b5565b9050611e9e815190565b6040840152611eae60208261334d565b9050611ebe8184606001516129b5565b9050611eeb816020611ed26021600361332e565b611edc919061334d565b611ee69085613365565b6129d7565b6080840152509092915050565b60006001600160f81b03198216611f45576040513090611f2790601960f81b906000908490889060200161337c565b60405160208183030381529060405280519060200120915050610d68565b6001600160f81b03198216604560f81b14156120f257825180611fba5760405162461bcd60e51b815260206004820152602760248201527f456d707479206d657373616765206e6f7420616c6c6f77656420666f722076656044820152667273696f6e204560c81b6064820152608401610410565b60005b8115611fe35780611fcd816133b9565b9150611fdc9050600a836133ea565b9150611fbd565b60008167ffffffffffffffff811115611ffe57611ffe612f56565b6040519080825280601f01601f191660200182016040528015612028576020820181803683370190505b50865193509050815b831561209657612042600a856133fe565b61204d90603061334d565b60f81b8261205a83613412565b9250828151811061206d5761206d613212565b60200101906001600160f81b031916908160001a90535061208f600a856133ea565b9350612031565b6040516120d190601960f81b907f457468657265756d205369676e6564204d6573736167653a0a000000000000009085908b90602001613429565b60405160208183030381529060405280519060200120945050505050610d68565b60405162461bcd60e51b815260206004820152601a60248201527f556e737570706f72746564204549503139312076657273696f6e0000000000006044820152606401610410565b6000815160411461214a57600080fd5b60208201516040830151606084015160001a601b81101561217357612170601b82613458565b90505b8060ff16601b148061218857508060ff16601c145b61219157600080fd5b60408051600081526020810180835288905260ff831691810191909152606081018490526080810183905260019060a0016020604051602081039080840390855afa1580156121e4573d6000803e3d6000fd5b5050604051601f190151979650505050505050565b6001600160a01b038216600090815260046020526040812054819061226a90612243907f000000000000000000000000000000000000000000000000000000000000000090612b50565b7f000000000000000000000000000000000000000000000000000000000000000090612b5c565b915061229f8261229a857f0000000000000000000000000000000000000000000000000000000000000000612b68565b612b74565b91506122cb827f0000000000000000000000000000000000000000000000000000000000000000612b68565b6001600160a01b0385166000908152600460205260409020549091506122f2906001612b5c565b6001600160a01b03909416600090815260046020526040902093909355929050565b60028054600160a01b900460ff161461232c57600080fd5b6040513381526001600160a01b038216907f1e8d98c1b4a0d9bd2e2371026b632eb2773fcce41742e41f02f574ab69868d4c906020015b60405180910390a250565b60008061237f858560018685612b8a565b5195945050505050565b60028054600160a01b900460ff16146123a157600080fd5b6040513381526001600160a01b038216907fd55ec27c5c6316913ed8803c18cfd1bfefea953db909dcba6140744a9d8b0d1f90602001612363565b6001600160a01b0381166123ef57600080fd5b600080546040516001600160a01b03808516939216917f8be0079c531659141344cd1fd0a4f28419497f9722a3daafe3b4186f6b6457e091a3600080546001600160a01b0319166001600160a01b0392909216919091179055565b6040805160a0810182526000606082018181526080830182905282528251808401845281815260208082018390528301529181019190915260206124906021600261332e565b61249a919061334d565b8251146124a657600080fd5b805160208301906124b89082906129b5565b90506124c88183602001516129b5565b90506124d2815190565b604083015250919050565b81518051602091820151835180519084015160808601805151805190870151604080516001600160f81b031960f8998a1b8116828c0152602182019890985295881b871660418701526042860194909452951b90931660628301526063808301949094528051808303909401845260838201905283860151805190850151868601518051908701519451870151805197015160009761258396889690929060a30161347d565b60408051601f198184030181528282526080860151918201518051602091820151606085015180519084015160c0909601519497506125f0968896600160f91b967f03c98795773ff1c241fc0b1cced85e80f8366581dda5c9452175ebd41385fa1f9691929091016134d2565b6040516020818303038152906040529050600061260c82612bda565b95945050505050565b60008061262360028661352d565b60ff166126316002856133fe565b14905080801561260c575061260c84845b60006401000003d019808410158061265a5750808310155b15612669576000915050610d68565b60008180612679576126796133d4565b84850990506000828061268e5761268e6133d4565b6007848061269e5761269e6133d4565b8886806126ad576126ad6133d4565b8a8b0909089190911495945050505050565b600070014551231950b75fc4402da1732fc9bebe19816001816126e360028a6133fe565b6126ee90601b61334d565b8a85806126fd576126fd6133d4565b8c8b096040805160008152602081018083529590955260ff909316928401929092526060830152608082015260a0016020604051602081039080840390855afa15801561274e573d6000803e3d6000fd5b505060408051601f1981015160208083019990995281830197909752815180820383018152606090910190915280519601959095206001600160a01b03948516941693909314979650505050505050565b6127a7612ebe565b82516020808501518451918501516401000003d01993929081841480156127cd57508083145b15612802576127f660405180606001604052808681526020018581526020016001815250612ccb565b95505050505050610d68565b60008580612812576128126133d4565b61281c8588613365565b8308905060008680612830576128306133d4565b61283a8789613365565b850890506000878061284e5761284e6133d4565b828309905060008880612863576128636133d4565b838309905060008980612878576128786133d4565b838a099050898061288b5761288b6133d4565b8a80612899576128996133d4565b838c806128a8576128a86133d4565b84600209086128b7908c613365565b8b806128c5576128c56133d4565b878809088b5289806128d9576128d96133d4565b8a806128e7576128e76133d4565b838a096128f4908c613365565b8b80612902576129026133d4565b8c80612910576129106133d4565b8e5161291c908f613365565b850888090860208c015250505060408801525094979650505050505050565b604081015160009080612952576000915050610d68565b6401000003d01960008183840985519091508280612972576129726133d4565b87518390091480156129ab575060208501518280612992576129926133d4565b83806129a0576129a06133d4565b858409602089015109145b9695505050505050565b81516001830151600091821a808452602084018290529061260c60218661334d565b6129df612edc565b604060206129ef6021600461332e565b6129f9919061334d565b612a03919061334d565b821015612a0f57600080fd5b612a1d8382600001516129b5565b9250612a2d8382602001516129b5565b9250612a3d8382604001516129b5565b9250612a4d8382606001516129b5565b9250612a57835190565b6080820152612a6760208461334d565b6040805181815260608101825291945060208201818036833750505060a08201819052612a979084906040612e15565b925060406020612aa96021600461332e565b612ab3919061334d565b612abd919061334d565b821115610d685760406020612ad46021600461332e565b612ade919061334d565b612ae8919061334d565b612af29083613365565b67ffffffffffffffff811115612b0a57612b0a612f56565b6040519080825280601f01601f191660200182016040528015612b34576020820181803683370190505b5060c082018190528051612b49918591612e15565b5092915050565b6000611989828461332e565b6000611989828461334d565b600061198982846133ea565b6000818310612b835781611989565b5090919050565b6040518481528315612b9d578260048201525b6001841115612bad578160248201525b6000808560200260040183895af48015612bcb573d6000833e612bd0565b600082fd5b5095945050505050565b6000806000806e3430b9b42fba37afb1bab93b32b13760891b6000801b86604051602001612c0a93929190613550565b6040516020818303038152906040529050600081604051602001612c2f929190613568565b60405160208183030381529060405280519060200120600182604051602001612c59929190613568565b60408051601f198184030181529190528051602090910120909350915070014551231950b75fc4402da1732fc9bec070014551231950b75fc4402da1732fc9bebf1960008183870990508180612cb157612cb16133d4565b858208612cbf90600161334d565b98975050505050505050565b612cd3612ebe565b604082015180612ce35750919050565b82516401000003d019906000826020870151600209905060008380612d0a57612d0a6133d4565b828309905060008480612d1f57612d1f6133d4565b848309905060008580612d3457612d346133d4565b8680612d4257612d426133d4565b868709600309905060008680612d5a57612d5a6133d4565b8780612d6857612d686133d4565b846401000003d219098880612d7f57612d7f6133d4565b84850908808a5290508680612d9657612d966133d4565b8780612da457612da46133d4565b8880612db257612db26133d4565b86870963800001e9600160ff1b03098880612dcf57612dcf6133d4565b8980612ddd57612ddd6133d4565b612de7858c613365565b870885090860208a01528680612dff57612dff6133d4565b88860960408a0152509698975050505050505050565b60006020601f830104846020850160005b83811015612e4257602081028381015190830152600101612e26565b50505050600083516020018401528184611a05919061334d565b6040805160e081018252600060a0820181815260c083018290528252825180840184528181526020808201839052808401919091528284018290528351808501909452818452830152606081019190915260808101612eb9612edc565b905290565b60405180606001604052806003906020820280368337509192915050565b6040805161012081018252600060e0820181815261010083018290528252825180840184528181526020808201839052808401919091528351808501855282815280820183905283850152835180850190945281845283015290606082019081526020016000815260200160608152602001606081525090565b634e487b7160e01b600052604160045260246000fd5b600082601f830112612f7d57600080fd5b813567ffffffffffffffff80821115612f9857612f98612f56565b604051601f8301601f19908116603f01168101908282118183101715612fc057612fc0612f56565b81604052838152866020858801011115612fd957600080fd5b836020870160208301376000602085830101528094505050505092915050565b600080600080600080600080610100898b03121561301657600080fd5b883567ffffffffffffffff8082111561302e57600080fd5b61303a8c838d01612f6c565b995060208b013591508082111561305057600080fd5b61305c8c838d01612f6c565b985060408b013591508082111561307257600080fd5b61307e8c838d01612f6c565b975060608b013591508082111561309457600080fd5b6130a08c838d01612f6c565b965060808b01359150808211156130b657600080fd5b6130c28c838d01612f6c565b955060a08b01359150808211156130d857600080fd5b6130e48c838d01612f6c565b945060c08b01359150808211156130fa57600080fd5b6131068c838d01612f6c565b935060e08b013591508082111561311c57600080fd5b506131298b828c01612f6c565b9150509295985092959890939650565b634e487b7160e01b600052602160045260246000fd5b602081016003831061317157634e487b7160e01b600052602160045260246000fd5b91905290565b6001600160a01b0381168114610c8357600080fd5b60006020828403121561319e57600080fd5b813561198981613177565b6000602082840312156131bb57600080fd5b5035919050565b6000815160005b818110156131e357602081850181015186830152016131c9565b818111156131f2576000828601525b509290920192915050565b6000611a0561320c83866131c2565b846131c2565b634e487b7160e01b600052603260045260246000fd5b600061323482856131c2565b6001600160f81b03199390931683525050600101919050565b600061326b61326561325f848a6131c2565b886131c2565b866131c2565b60609490941b6bffffffffffffffffffffffff19168452505060148201526034019392505050565b6000602082840312156132a557600080fd5b815161198981613177565b6000602082840312156132c257600080fd5b5051919050565b600061198982846131c2565b60208082526023908201527f507265636f6d707574656420682a56312076616c756520697320696e636f72726040820152621958dd60ea1b606082015260800190565b634e487b7160e01b600052601160045260246000fd5b600081600019048311821515161561334857613348613318565b500290565b6000821982111561336057613360613318565b500190565b60008282101561337757613377613318565b500390565b6001600160f81b0319858116825284166001820152606083901b6bffffffffffffffffffffffff1916600282015260006129ab60168301846131c2565b60006000198214156133cd576133cd613318565b5060010190565b634e487b7160e01b600052601260045260246000fd5b6000826133f9576133f96133d4565b500490565b60008261340d5761340d6133d4565b500690565b60008161342157613421613318565b506000190190565b6001600160f81b03198516815266ffffffffffffff198416600182015260006129ab61320c601a8401866131c2565b600060ff821660ff84168060ff0382111561347557613475613318565b019392505050565b6000613489828a6131c2565b6001600160f81b031960f8998a1b81168252600182019890985295881b871660218701525050602284019290925290931b90911660428201526043810191909152606301919050565b60006134de828b6131c2565b60ff60f81b808b168252896001830152808960f81b166021830152876022830152808760f81b1660428301525084604382015261351e60638201856131c2565b9b9a5050505050505050505050565b600060ff821660ff84168082101561354757613547613318565b90039392505050565b838152826020820152600061260c60408301846131c2565b60f883901b6001600160f81b03191681526000611a0560018301846131c256fe6f65736e277420636f72726573706f6e6420746f20636f6d7072657373656420a26469706673582212203ffc8ae77ac8e0470f9ed679d85a8e1ef169356d7cfaabe8f11ed663f81cdd0664736f6c634300080a0033",
  "bytecodeSha1": "0a6b8c4f404fd476cd6ac9a3ed2da1ca92865e0b",
  "compiler": {
    "evm_version": "istanbul",
    "optimizer": {
      "enabled": true,
      "runs": 200
    },
    "version": "0.8.10+commit.fc410830"
  },
  "contractName": "Adjudicator",
  "language": "Solidity",
  "natspec": {
    "details": "|v2.1.2|",
    "kind": "dev",
    "methods": {
      "constructor": {
        "params": {
          "_basePenalty": "Base for the penalty calculation",
          "_escrow": "Escrow contract",
          "_hashAlgorithm": "Hashing algorithm",
          "_penaltyHistoryCoefficient": "Coefficient for calculating the penalty depending on the history",
          "_percentagePenaltyCoefficient": "Coefficient for calculating the percentage penalty",
          "_rewardCoefficient": "Coefficient for calculating the reward"
        }
      },
      "evaluateCFrag(bytes,bytes,bytes,bytes,bytes,bytes,bytes,bytes)": {
        "notice": "Submit proof that a worker created wrong CFrag",
        "params": {
          "_cFragBytes": "Serialized CFrag",
          "_cFragSignature": "Signature of CFrag by worker",
          "_capsuleBytes": "Serialized capsule",
          "_preComputedData": "Additional pre-computed data for CFrag correctness verification",
          "_requesterPublicKey": "Bob's signing public key, also known as \"stamp\"",
          "_taskSignature": "Signature of task specification by Bob",
          "_workerIdentityEvidence": "Signature of worker's public key by worker's eth-key",
          "_workerPublicKey": "Worker's signing public key, also known as \"stamp\""
        }
      },
      "finishUpgrade(address)": {
        "details": "the `onlyWhileUpgrading` modifier works through a call to the parent `finishUpgrade`"
      },
      "isOwner()": {
        "returns": {
          "_0": "true if `msg.sender` is the owner of the contract."
        }
      },
      "owner()": {
        "returns": {
          "_0": "the address of the owner."
        }
      },
      "renounceOwnership()": {
        "details": "Allows the current owner to relinquish control of the contract.",
        "notice": "Renouncing to ownership will leave the contract without an owner. It will not be possible to call the functions with the `onlyOwner` modifier anymore."
      },
      "transferOwnership(address)": {
        "details": "Allows the current owner to transfer control of the contract to a newOwner.",
        "params": {
          "newOwner": "The address to transfer ownership to."
        }
      },
      "verifyState(address)": {
        "details": "the `onlyWhileUpgrading` modifier works through a call to the parent `verifyState`"
      }
    },
    "notice": "Supervises stakers' behavior and punishes when something's wrong.",
    "title": "Adjudicator",
    "version": 1
  },
  "opcodes": "PUSH1 0x80 PUSH1 0x40 MSTORE CALLVALUE DUP1 ISZERO PUSH2 0x10 JUMPI PUSH1 0x0 DUP1 REVERT JUMPDEST POP PUSH1 0x4 CALLDATASIZE LT PUSH2 0x116 JUMPI PUSH1 0x0 CALLDATALOAD PUSH1 0xE0 SHR DUP1 PUSH4 0x8F32D59B GT PUSH2 0xA2 JUMPI DUP1 PUSH4 0xE2FDCC17 GT PUSH2 0x71 JUMPI DUP1 PUSH4 0xE2FDCC17 EQ PUSH2 0x2BC JUMPI DUP1 PUSH4 0xE38A303B EQ PUSH2 0x2E3 JUMPI DUP1 PUSH4 0xE8DCCD06 EQ PUSH2 0x309 JUMPI DUP1 PUSH4 0xF2FDE38B EQ PUSH2 0x31C JUMPI DUP1 PUSH4 0xFC9DAA07 EQ PUSH2 0x32F JUMPI PUSH1 0x0 DUP1 REVERT JUMPDEST DUP1 PUSH4 0x8F32D59B EQ PUSH2 0x25C JUMPI DUP1 PUSH4 0xB9626D21 EQ PUSH2 0x26F JUMPI DUP1 PUSH4 0xBD02B140 EQ PUSH2 0x282 JUMPI DUP1 PUSH4 0xD4B83992 EQ PUSH2 0x2A9 JUMPI PUSH1 0x0 DUP1 REVERT JUMPDEST DUP1 PUSH4 0x59A15FA5 GT PUSH2 0xE9 JUMPI DUP1 PUSH4 0x59A15FA5 EQ PUSH2 0x1BC JUMPI DUP1 PUSH4 0x5D5B6836 EQ PUSH2 0x1F0 JUMPI DUP1 PUSH4 0x70535443 EQ PUSH2 0x210 JUMPI DUP1 PUSH4 0x715018A6 EQ PUSH2 0x243 JUMPI DUP1 PUSH4 0x8DA5CB5B EQ PUSH2 0x24B JUMPI PUSH1 0x0 DUP1 REVERT JUMPDEST DUP1 PUSH4 0xBEA809B EQ PUSH2 0x11B JUMPI DUP1 PUSH4 0x1F96670B EQ PUSH2 0x130 JUMPI DUP1 PUSH4 0x4B2CD118 EQ PUSH2 0x16A JUMPI DUP1 PUSH4 0x5712E98C EQ PUSH2 0x195 JUMPI JUMPDEST PUSH1 0x0 DUP1 REVERT JUMPDEST PUSH2 0x12E PUSH2 0x129 CALLDATASIZE PUSH1 0x4 PUSH2 0x2FF9 JUMP JUMPDEST PUSH2 0x356 JUMP JUMPDEST STOP JUMPDEST PUSH2 0x157 PUSH32 0x0 DUP2 JUMP JUMPDEST PUSH1 0x40 MLOAD SWAP1 DUP2 MSTORE PUSH1 0x20 ADD JUMPDEST PUSH1 0x40 MLOAD DUP1 SWAP2 SUB SWAP1 RETURN JUMPDEST PUSH1 0x2 SLOAD PUSH2 0x17D SWAP1 PUSH1 0x1 PUSH1 0x1 PUSH1 0xA0 SHL SUB AND DUP2 JUMP JUMPDEST PUSH1 0x40 MLOAD PUSH1 0x1 PUSH1 0x1 PUSH1 0xA0 SHL SUB SWAP1 SWAP2 AND DUP2 MSTORE PUSH1 0x20 ADD PUSH2 0x161 JUMP JUMPDEST PUSH2 0x157 PUSH32 0x0 DUP2 JUMP JUMPDEST PUSH2 0x1E3 PUSH32 0x0 DUP2 JUMP JUMPDEST PUSH1 0x40 MLOAD PUSH2 0x161 SWAP2 SWAP1 PUSH2 0x314F JUMP JUMPDEST PUSH2 0x157 PUSH2 0x1FE CALLDATASIZE PUSH1 0x4 PUSH2 0x318C JUMP JUMPDEST PUSH1 0x4 PUSH1 0x20 MSTORE PUSH1 0x0 SWAP1 DUP2 MSTORE PUSH1 0x40 SWAP1 KECCAK256 SLOAD DUP2 JUMP JUMPDEST PUSH2 0x233 PUSH2 0x21E CALLDATASIZE PUSH1 0x4 PUSH2 0x31A9 JUMP JUMPDEST PUSH1 0x5 PUSH1 0x20 MSTORE PUSH1 0x0 SWAP1 DUP2 MSTORE PUSH1 0x40 SWAP1 KECCAK256 SLOAD PUSH1 0xFF AND DUP2 JUMP JUMPDEST PUSH1 0x40 MLOAD SWAP1 ISZERO ISZERO DUP2 MSTORE PUSH1 0x20 ADD PUSH2 0x161 JUMP JUMPDEST PUSH2 0x12E PUSH2 0xAD3 JUMP JUMPDEST PUSH1 0x0 SLOAD PUSH1 0x1 PUSH1 0x1 PUSH1 0xA0 SHL SUB AND PUSH2 0x17D JUMP JUMPDEST PUSH1 0x0 SLOAD PUSH1 0x1 PUSH1 0x1 PUSH1 0xA0 SHL SUB AND CALLER EQ PUSH2 0x233 JUMP JUMPDEST PUSH2 0x12E PUSH2 0x27D CALLDATASIZE PUSH1 0x4 PUSH2 0x318C JUMP JUMPDEST PUSH2 0xB34 JUMP JUMPDEST PUSH2 0x157 PUSH32 0x0 DUP2 JUMP JUMPDEST PUSH1 0x1 SLOAD PUSH2 0x17D SWAP1 PUSH1 0x1 PUSH1 0x1 PUSH1 0xA0 SHL SUB AND DUP2 JUMP JUMPDEST PUSH2 0x17D PUSH32 0x0 DUP2 JUMP JUMPDEST PUSH1 0x2 SLOAD PUSH2 0x2F7 SWAP1 PUSH1 0x1 PUSH1 0xA0 SHL SWAP1 DIV PUSH1 0xFF AND DUP2 JUMP JUMPDEST PUSH1 0x40 MLOAD PUSH1 0xFF SWAP1 SWAP2 AND DUP2 MSTORE PUSH1 0x20 ADD PUSH2 0x161 JUMP JUMPDEST PUSH2 0x12E PUSH2 0x317 CALLDATASIZE PUSH1 0x4 PUSH2 0x318C JUMP JUMPDEST PUSH2 0xBF8 JUMP JUMPDEST PUSH2 0x12E PUSH2 0x32A CALLDATASIZE PUSH1 0x4 PUSH2 0x318C JUMP JUMPDEST PUSH2 0xC63 JUMP JUMPDEST PUSH2 0x157 PUSH32 0x0 DUP2 JUMP JUMPDEST PUSH1 0x0 PUSH2 0x3A3 DUP10 DUP10 PUSH1 0x40 MLOAD PUSH1 0x20 ADD PUSH2 0x36E SWAP3 SWAP2 SWAP1 PUSH2 0x31FD JUMP JUMPDEST PUSH1 0x40 MLOAD PUSH1 0x20 DUP2 DUP4 SUB SUB DUP2 MSTORE SWAP1 PUSH1 0x40 MSTORE PUSH32 0x0 PUSH2 0xC86 JUMP JUMPDEST PUSH1 0x0 DUP2 DUP2 MSTORE PUSH1 0x5 PUSH1 0x20 MSTORE PUSH1 0x40 SWAP1 KECCAK256 SLOAD SWAP1 SWAP2 POP PUSH1 0xFF AND ISZERO PUSH2 0x419 JUMPI PUSH1 0x40 MLOAD PUSH3 0x461BCD PUSH1 0xE5 SHL DUP2 MSTORE PUSH1 0x20 PUSH1 0x4 DUP3 ADD MSTORE PUSH1 0x26 PUSH1 0x24 DUP3 ADD MSTORE PUSH32 0x546869732043467261672068617320616C7265616479206265656E206576616C PUSH1 0x44 DUP3 ADD MSTORE PUSH6 0x3AB0BA32B217 PUSH1 0xD1 SHL PUSH1 0x64 DUP3 ADD MSTORE PUSH1 0x84 ADD JUMPDEST PUSH1 0x40 MLOAD DUP1 SWAP2 SUB SWAP1 REVERT JUMPDEST PUSH1 0x0 DUP2 DUP2 MSTORE PUSH1 0x5 PUSH1 0x20 MSTORE PUSH1 0x40 DUP2 KECCAK256 DUP1 SLOAD PUSH1 0xFF NOT AND PUSH1 0x1 OR SWAP1 SSTORE PUSH2 0x43D DUP11 DUP11 DUP6 PUSH2 0xD6E JUMP JUMPDEST SWAP1 POP CALLER PUSH1 0x1 PUSH1 0x1 PUSH1 0xA0 SHL SUB AND DUP3 PUSH32 0x14C7C3AEAED5D9DE50669529F936D80FF48AF1F52BEB8447437689CB298131A8 DUP4 PUSH1 0x40 MLOAD PUSH2 0x47D SWAP2 ISZERO ISZERO DUP2 MSTORE PUSH1 0x20 ADD SWAP1 JUMP JUMPDEST PUSH1 0x40 MLOAD DUP1 SWAP2 SUB SWAP1 LOG3 PUSH2 0x48E DUP6 PUSH2 0x1990 JUMP JUMPDEST PUSH2 0x4DA JUMPI PUSH1 0x40 MLOAD PUSH3 0x461BCD PUSH1 0xE5 SHL DUP2 MSTORE PUSH1 0x20 PUSH1 0x4 DUP3 ADD MSTORE PUSH1 0x1E PUSH1 0x24 DUP3 ADD MSTORE PUSH32 0x5374616B65722773207075626C6963206B657920697320696E76616C69640000 PUSH1 0x44 DUP3 ADD MSTORE PUSH1 0x64 ADD PUSH2 0x410 JUMP JUMPDEST PUSH2 0x4E3 DUP7 PUSH2 0x1990 JUMP JUMPDEST PUSH2 0x539 JUMPI PUSH1 0x40 MLOAD PUSH3 0x461BCD PUSH1 0xE5 SHL DUP2 MSTORE PUSH1 0x20 PUSH1 0x4 DUP3 ADD MSTORE PUSH1 0x21 PUSH1 0x24 DUP3 ADD MSTORE PUSH32 0x5265717565737465722773207075626C6963206B657920697320696E76616C69 PUSH1 0x44 DUP3 ADD MSTORE PUSH1 0x19 PUSH1 0xFA SHL PUSH1 0x64 DUP3 ADD MSTORE PUSH1 0x84 ADD PUSH2 0x410 JUMP JUMPDEST PUSH1 0x0 PUSH2 0x544 DUP5 PUSH2 0x1A0D JUMP JUMPDEST SWAP1 POP PUSH2 0x5AE DUP11 DUP11 DUP4 PUSH2 0x2C0 ADD MLOAD PUSH1 0x1 PUSH1 0x5 DUP2 LT PUSH2 0x563 JUMPI PUSH2 0x563 PUSH2 0x3212 JUMP JUMPDEST BYTE PUSH1 0xF8 SHL PUSH1 0x40 MLOAD PUSH1 0x20 ADD PUSH2 0x578 SWAP3 SWAP2 SWAP1 PUSH2 0x3228 JUMP JUMPDEST PUSH1 0x40 MLOAD PUSH1 0x20 DUP2 DUP4 SUB SUB DUP2 MSTORE SWAP1 PUSH1 0x40 MSTORE DUP9 PUSH32 0x0 PUSH2 0x1DC8 JUMP JUMPDEST PUSH2 0x5FA JUMPI PUSH1 0x40 MLOAD PUSH3 0x461BCD PUSH1 0xE5 SHL DUP2 MSTORE PUSH1 0x20 PUSH1 0x4 DUP3 ADD MSTORE PUSH1 0x1A PUSH1 0x24 DUP3 ADD MSTORE PUSH32 0x4346726167207369676E617475726520697320696E76616C6964000000000000 PUSH1 0x44 DUP3 ADD MSTORE PUSH1 0x64 ADD PUSH2 0x410 JUMP JUMPDEST PUSH1 0x0 PUSH2 0x605 DUP12 PUSH2 0x1E16 JUMP JUMPDEST SWAP1 POP PUSH2 0x677 DUP10 DUP3 PUSH1 0x80 ADD MLOAD PUSH1 0xC0 ADD MLOAD DUP5 PUSH2 0x2C0 ADD MLOAD PUSH1 0x2 PUSH1 0x5 DUP2 LT PUSH2 0x62C JUMPI PUSH2 0x62C PUSH2 0x3212 JUMP JUMPDEST BYTE PUSH1 0xF8 SHL PUSH1 0x40 MLOAD PUSH1 0x20 ADD PUSH2 0x641 SWAP3 SWAP2 SWAP1 PUSH2 0x3228 JUMP JUMPDEST PUSH1 0x40 MLOAD PUSH1 0x20 DUP2 DUP4 SUB SUB DUP2 MSTORE SWAP1 PUSH1 0x40 MSTORE DUP10 PUSH32 0x0 PUSH2 0x1DC8 JUMP JUMPDEST PUSH2 0x6C3 JUMPI PUSH1 0x40 MLOAD PUSH3 0x461BCD PUSH1 0xE5 SHL DUP2 MSTORE PUSH1 0x20 PUSH1 0x4 DUP3 ADD MSTORE PUSH1 0x19 PUSH1 0x24 DUP3 ADD MSTORE PUSH32 0x5461736B207369676E617475726520697320696E76616C696400000000000000 PUSH1 0x44 DUP3 ADD MSTORE PUSH1 0x64 ADD PUSH2 0x410 JUMP JUMPDEST PUSH1 0x20 DUP8 ADD MLOAD PUSH2 0x2C0 DUP4 ADD MLOAD PUSH1 0x0 SWAP1 PUSH1 0x4 BYTE PUSH1 0xF8 SHL DUP3 PUSH1 0x40 MLOAD PUSH1 0x20 ADD PUSH2 0x6FE SWAP3 SWAP2 SWAP1 PUSH1 0x1 PUSH1 0x1 PUSH1 0xF8 SHL SUB NOT SWAP3 SWAP1 SWAP3 AND DUP3 MSTORE PUSH1 0x1 DUP3 ADD MSTORE PUSH1 0x21 ADD SWAP1 JUMP JUMPDEST PUSH1 0x40 MLOAD PUSH1 0x20 DUP2 DUP4 SUB SUB DUP2 MSTORE SWAP1 PUSH1 0x40 MSTORE SWAP1 POP PUSH2 0x798 DUP15 DUP3 DUP11 DUP8 PUSH2 0x2A0 ADD MLOAD PUSH1 0x0 DUP1 SHL PUSH1 0x40 MLOAD PUSH1 0x20 ADD PUSH2 0x733 SWAP6 SWAP5 SWAP4 SWAP3 SWAP2 SWAP1 PUSH2 0x324D JUMP JUMPDEST PUSH1 0x40 DUP1 MLOAD PUSH1 0x1F NOT DUP2 DUP5 SUB ADD DUP2 MSTORE SWAP2 SWAP1 MSTORE PUSH2 0x2C0 DUP7 ADD MLOAD DUP14 SWAP1 PUSH1 0x3 BYTE PUSH1 0xF8 SHL PUSH1 0x40 MLOAD PUSH1 0x20 ADD PUSH2 0x762 SWAP3 SWAP2 SWAP1 PUSH2 0x3228 JUMP JUMPDEST PUSH1 0x40 MLOAD PUSH1 0x20 DUP2 DUP4 SUB SUB DUP2 MSTORE SWAP1 PUSH1 0x40 MSTORE DUP13 PUSH32 0x0 PUSH2 0x1DC8 JUMP JUMPDEST PUSH2 0x7EF JUMPI PUSH1 0x40 MLOAD PUSH3 0x461BCD PUSH1 0xE5 SHL DUP2 MSTORE PUSH1 0x20 PUSH1 0x4 DUP3 ADD MSTORE PUSH1 0x22 PUSH1 0x24 DUP3 ADD MSTORE PUSH32 0x53706563696669636174696F6E207369676E617475726520697320696E76616C PUSH1 0x44 DUP3 ADD MSTORE PUSH2 0x1A59 PUSH1 0xF2 SHL PUSH1 0x64 DUP3 ADD MSTORE PUSH1 0x84 ADD PUSH2 0x410 JUMP JUMPDEST PUSH1 0x0 PUSH2 0x808 PUSH2 0x802 DUP4 PUSH1 0x45 PUSH1 0xF8 SHL PUSH2 0x1EF8 JUMP JUMPDEST DUP11 PUSH2 0x213A JUMP JUMPDEST PUSH1 0x40 MLOAD PUSH4 0x597759B7 PUSH1 0xE1 SHL DUP2 MSTORE PUSH1 0x1 PUSH1 0x1 PUSH1 0xA0 SHL SUB DUP1 DUP4 AND PUSH1 0x4 DUP4 ADD MSTORE SWAP2 SWAP3 POP PUSH1 0x0 SWAP2 PUSH32 0x0 AND SWAP1 PUSH4 0xB2EEB36E SWAP1 PUSH1 0x24 ADD PUSH1 0x20 PUSH1 0x40 MLOAD DUP1 DUP4 SUB DUP2 DUP7 GAS STATICCALL ISZERO DUP1 ISZERO PUSH2 0x874 JUMPI RETURNDATASIZE PUSH1 0x0 DUP1 RETURNDATACOPY RETURNDATASIZE PUSH1 0x0 REVERT JUMPDEST POP POP POP POP PUSH1 0x40 MLOAD RETURNDATASIZE PUSH1 0x1F NOT PUSH1 0x1F DUP3 ADD AND DUP3 ADD DUP1 PUSH1 0x40 MSTORE POP DUP2 ADD SWAP1 PUSH2 0x898 SWAP2 SWAP1 PUSH2 0x3293 JUMP JUMPDEST SWAP1 POP PUSH1 0x1 PUSH1 0x1 PUSH1 0xA0 SHL SUB DUP2 AND PUSH2 0x8FB JUMPI PUSH1 0x40 MLOAD PUSH3 0x461BCD PUSH1 0xE5 SHL DUP2 MSTORE PUSH1 0x20 PUSH1 0x4 DUP3 ADD MSTORE PUSH1 0x22 PUSH1 0x24 DUP3 ADD MSTORE PUSH32 0x576F726B6572206D7573742062652072656C6174656420746F2061207374616B PUSH1 0x44 DUP3 ADD MSTORE PUSH2 0x32B9 PUSH1 0xF1 SHL PUSH1 0x64 DUP3 ADD MSTORE PUSH1 0x84 ADD PUSH2 0x410 JUMP JUMPDEST PUSH1 0x40 MLOAD PUSH4 0xBC5B6F3 PUSH1 0xE1 SHL DUP2 MSTORE PUSH1 0x1 PUSH1 0x1 PUSH1 0xA0 SHL SUB DUP3 DUP2 AND PUSH1 0x4 DUP4 ADD MSTORE PUSH1 0x0 SWAP2 PUSH32 0x0 SWAP1 SWAP2 AND SWAP1 PUSH4 0x178B6DE6 SWAP1 PUSH1 0x24 ADD PUSH1 0x20 PUSH1 0x40 MLOAD DUP1 DUP4 SUB DUP2 DUP7 GAS STATICCALL ISZERO DUP1 ISZERO PUSH2 0x966 JUMPI RETURNDATASIZE PUSH1 0x0 DUP1 RETURNDATACOPY RETURNDATASIZE PUSH1 0x0 REVERT JUMPDEST POP POP POP POP PUSH1 0x40 MLOAD RETURNDATASIZE PUSH1 0x1F NOT PUSH1 0x1F DUP3 ADD AND DUP3 ADD DUP1 PUSH1 0x40 MSTORE POP DUP2 ADD SWAP1 PUSH2 0x98A SWAP2 SWAP1 PUSH2 0x32B0 JUMP JUMPDEST SWAP1 POP PUSH1 0x0 DUP2 GT PUSH2 0x9D3 JUMPI PUSH1 0x40 MLOAD PUSH3 0x461BCD PUSH1 0xE5 SHL DUP2 MSTORE PUSH1 0x20 PUSH1 0x4 DUP3 ADD MSTORE PUSH1 0x14 PUSH1 0x24 DUP3 ADD MSTORE PUSH20 0x5374616B657220686173206E6F20746F6B656E73 PUSH1 0x60 SHL PUSH1 0x44 DUP3 ADD MSTORE PUSH1 0x64 ADD PUSH2 0x410 JUMP JUMPDEST DUP8 PUSH2 0xAC0 JUMPI PUSH1 0x0 DUP1 PUSH2 0x9E5 DUP5 DUP5 PUSH2 0x21F9 JUMP JUMPDEST PUSH1 0x40 MLOAD PUSH4 0x26730863 PUSH1 0xE2 SHL DUP2 MSTORE PUSH1 0x1 PUSH1 0x1 PUSH1 0xA0 SHL SUB DUP8 DUP2 AND PUSH1 0x4 DUP4 ADD MSTORE PUSH1 0x24 DUP3 ADD DUP5 SWAP1 MSTORE CALLER PUSH1 0x44 DUP4 ADD MSTORE PUSH1 0x64 DUP3 ADD DUP4 SWAP1 MSTORE SWAP3 SWAP5 POP SWAP1 SWAP3 POP PUSH32 0x0 SWAP1 SWAP2 AND SWAP1 PUSH4 0x99CC218C SWAP1 PUSH1 0x84 ADD PUSH1 0x0 PUSH1 0x40 MLOAD DUP1 DUP4 SUB DUP2 PUSH1 0x0 DUP8 DUP1 EXTCODESIZE ISZERO DUP1 ISZERO PUSH2 0xA64 JUMPI PUSH1 0x0 DUP1 REVERT JUMPDEST POP GAS CALL ISZERO DUP1 ISZERO PUSH2 0xA78 JUMPI RETURNDATASIZE PUSH1 0x0 DUP1 RETURNDATACOPY RETURNDATASIZE PUSH1 0x0 REVERT JUMPDEST POP POP POP POP DUP4 PUSH1 0x1 PUSH1 0x1 PUSH1 0xA0 SHL SUB AND DUP6 PUSH1 0x1 PUSH1 0x1 PUSH1 0xA0 SHL SUB AND DUP13 PUSH32 0x860028D7F53AFB628CAE3582337C99BE24159F7EE9D68A96BABBC7F054A36CAF PUSH1 0x40 MLOAD PUSH1 0x40 MLOAD DUP1 SWAP2 SUB SWAP1 LOG4 POP POP JUMPDEST POP POP POP POP POP POP POP POP POP POP POP POP POP POP POP POP POP JUMP JUMPDEST PUSH1 0x0 SLOAD PUSH1 0x1 PUSH1 0x1 PUSH1 0xA0 SHL SUB AND CALLER EQ PUSH2 0xAEA JUMPI PUSH1 0x0 DUP1 REVERT JUMPDEST PUSH1 0x0 DUP1 SLOAD PUSH1 0x40 MLOAD PUSH1 0x1 PUSH1 0x1 PUSH1 0xA0 SHL SUB SWAP1 SWAP2 AND SWAP1 PUSH32 0x8BE0079C531659141344CD1FD0A4F28419497F9722A3DAAFE3B4186F6B6457E0 SWAP1 DUP4 SWAP1 LOG3 PUSH1 0x0 DUP1 SLOAD PUSH1 0x1 PUSH1 0x1 PUSH1 0xA0 SHL SUB NOT AND SWAP1 SSTORE JUMP JUMPDEST PUSH2 0xB3D DUP2 PUSH2 0x2314 JUMP JUMPDEST PUSH1 0x40 DUP1 MLOAD PUSH1 0x0 PUSH1 0x20 DUP3 ADD DUP2 SWAP1 MSTORE SWAP2 PUSH2 0xB67 SWAP2 ADD JUMPDEST PUSH1 0x40 MLOAD PUSH1 0x20 DUP2 DUP4 SUB SUB DUP2 MSTORE SWAP1 PUSH1 0x40 MSTORE PUSH1 0x1 PUSH2 0xC86 JUMP JUMPDEST PUSH1 0x0 DUP2 DUP2 MSTORE PUSH1 0x5 PUSH1 0x20 MSTORE PUSH1 0x40 SWAP1 KECCAK256 SLOAD SWAP1 SWAP2 POP PUSH1 0xFF AND PUSH2 0xB87 JUMPI PUSH1 0x0 PUSH2 0xB8A JUMP JUMPDEST PUSH1 0x1 JUMPDEST PUSH1 0xFF AND PUSH2 0xB9F DUP4 PUSH4 0x70535443 PUSH1 0xE0 SHL DUP5 PUSH2 0x236E JUMP JUMPDEST EQ PUSH2 0xBA9 JUMPI PUSH1 0x0 DUP1 REVERT JUMPDEST PUSH1 0x0 DUP1 DUP1 MSTORE PUSH1 0x4 PUSH1 0x20 MSTORE PUSH32 0x17EF568E3E12AB5B9C7254A8D58478811DE00F9E6EB34345ACD53BF8FD09D3EC SLOAD SWAP1 PUSH2 0xBEA SWAP1 DUP5 SWAP1 PUSH4 0x2EADB41B PUSH1 0xE1 SHL SWAP1 PUSH2 0x236E JUMP JUMPDEST EQ PUSH2 0xBF4 JUMPI PUSH1 0x0 DUP1 REVERT JUMPDEST POP POP JUMP JUMPDEST PUSH2 0xC01 DUP2 PUSH2 0x2389 JUMP JUMPDEST PUSH1 0x40 DUP1 MLOAD PUSH1 0x0 PUSH1 0x20 DUP3 ADD DUP2 SWAP1 MSTORE SWAP2 PUSH2 0xC19 SWAP2 ADD PUSH2 0xB51 JUMP JUMPDEST PUSH1 0x0 SWAP1 DUP2 MSTORE PUSH1 0x5 PUSH1 0x20 SWAP1 DUP2 MSTORE PUSH1 0x40 DUP3 KECCAK256 DUP1 SLOAD PUSH1 0xFF NOT AND PUSH1 0x1 OR SWAP1 SSTORE SWAP1 DUP1 MSTORE PUSH1 0x4 SWAP1 MSTORE POP POP PUSH1 0x7B PUSH32 0x17EF568E3E12AB5B9C7254A8D58478811DE00F9E6EB34345ACD53BF8FD09D3EC SSTORE JUMP JUMPDEST PUSH1 0x0 SLOAD PUSH1 0x1 PUSH1 0x1 PUSH1 0xA0 SHL SUB AND CALLER EQ PUSH2 0xC7A JUMPI PUSH1 0x0 DUP1 REVERT JUMPDEST PUSH2 0xC83 DUP2 PUSH2 0x23DC JUMP JUMPDEST POP JUMP JUMPDEST PUSH1 0x0 DUP1 DUP3 PUSH1 0x2 DUP2 GT ISZERO PUSH2 0xC9B JUMPI PUSH2 0xC9B PUSH2 0x3139 JUMP JUMPDEST EQ ISZERO PUSH2 0xCAE JUMPI POP DUP2 MLOAD PUSH1 0x20 DUP4 ADD KECCAK256 PUSH2 0xD68 JUMP JUMPDEST PUSH1 0x1 DUP3 PUSH1 0x2 DUP2 GT ISZERO PUSH2 0xCC2 JUMPI PUSH2 0xCC2 PUSH2 0x3139 JUMP JUMPDEST EQ ISZERO PUSH2 0xD1F JUMPI PUSH1 0x2 DUP4 PUSH1 0x40 MLOAD PUSH2 0xCD8 SWAP2 SWAP1 PUSH2 0x32C9 JUMP JUMPDEST PUSH1 0x20 PUSH1 0x40 MLOAD DUP1 DUP4 SUB DUP2 DUP6 GAS STATICCALL ISZERO DUP1 ISZERO PUSH2 0xCF5 JUMPI RETURNDATASIZE PUSH1 0x0 DUP1 RETURNDATACOPY RETURNDATASIZE PUSH1 0x0 REVERT JUMPDEST POP POP POP PUSH1 0x40 MLOAD RETURNDATASIZE PUSH1 0x1F NOT PUSH1 0x1F DUP3 ADD AND DUP3 ADD DUP1 PUSH1 0x40 MSTORE POP DUP2 ADD SWAP1 PUSH2 0xD18 SWAP2 SWAP1 PUSH2 0x32B0 JUMP JUMPDEST SWAP1 POP PUSH2 0xD68 JUMP JUMPDEST PUSH1 0x3 DUP4 PUSH1 0x40 MLOAD PUSH2 0xD2F SWAP2 SWAP1 PUSH2 0x32C9 JUMP JUMPDEST PUSH1 0x20 PUSH1 0x40 MLOAD DUP1 DUP4 SUB DUP2 DUP6 GAS STATICCALL ISZERO DUP1 ISZERO PUSH2 0xD4C JUMPI RETURNDATASIZE PUSH1 0x0 DUP1 RETURNDATACOPY RETURNDATASIZE PUSH1 0x0 REVERT JUMPDEST POP POP POP PUSH1 0x40 MLOAD MLOAD PUSH1 0x60 SHL PUSH12 0xFFFFFFFFFFFFFFFFFFFFFFFF NOT AND SWAP1 POP JUMPDEST SWAP3 SWAP2 POP POP JUMP JUMPDEST PUSH1 0x0 DUP1 PUSH2 0xD7A DUP6 PUSH2 0x244A JUMP JUMPDEST SWAP1 POP PUSH1 0x0 PUSH2 0xD87 DUP6 PUSH2 0x1E16 JUMP JUMPDEST SWAP1 POP PUSH1 0x0 PUSH2 0xD94 DUP6 PUSH2 0x1A0D JUMP JUMPDEST SWAP1 POP PUSH1 0x0 PUSH2 0xDEB DUP3 PUSH2 0x280 ADD MLOAD DUP5 PUSH1 0x80 ADD MLOAD PUSH1 0xA0 ADD MLOAD DUP5 PUSH2 0x2C0 ADD MLOAD PUSH1 0x0 PUSH1 0x5 DUP2 LT PUSH2 0xDC2 JUMPI PUSH2 0xDC2 PUSH2 0x3212 JUMP JUMPDEST BYTE PUSH1 0xF8 SHL PUSH1 0x40 MLOAD PUSH1 0x20 ADD PUSH2 0xDD7 SWAP3 SWAP2 SWAP1 PUSH2 0x3228 JUMP JUMPDEST PUSH1 0x40 MLOAD PUSH1 0x20 DUP2 DUP4 SUB SUB DUP2 MSTORE SWAP1 PUSH1 0x40 MSTORE PUSH2 0x213A JUMP JUMPDEST SWAP1 POP DUP2 PUSH2 0x2A0 ADD MLOAD PUSH1 0x1 PUSH1 0x1 PUSH1 0xA0 SHL SUB AND DUP2 PUSH1 0x1 PUSH1 0x1 PUSH1 0xA0 SHL SUB AND EQ PUSH2 0xE49 JUMPI PUSH1 0x40 MLOAD PUSH3 0x461BCD PUSH1 0xE5 SHL DUP2 MSTORE PUSH1 0x20 PUSH1 0x4 DUP3 ADD MSTORE PUSH1 0x13 PUSH1 0x24 DUP3 ADD MSTORE PUSH19 0x426164204B46726167207369676E6174757265 PUSH1 0x68 SHL PUSH1 0x44 DUP3 ADD MSTORE PUSH1 0x64 ADD PUSH2 0x410 JUMP JUMPDEST PUSH1 0x0 PUSH2 0xE55 DUP6 DUP6 PUSH2 0x24DD JUMP JUMPDEST DUP6 MLOAD DUP1 MLOAD PUSH1 0x20 SWAP1 SWAP2 ADD MLOAD DUP6 MLOAD SWAP3 SWAP4 POP PUSH2 0xE6D SWAP3 PUSH2 0x2615 JUMP JUMPDEST PUSH2 0xEEE JUMPI PUSH1 0x40 MLOAD PUSH3 0x461BCD PUSH1 0xE5 SHL DUP2 MSTORE PUSH1 0x20 PUSH1 0x4 DUP3 ADD MSTORE PUSH1 0x46 PUSH1 0x24 DUP3 ADD MSTORE PUSH32 0x507265636F6D7075746564205920636F6F7264696E617465206F66204520646F PUSH1 0x44 DUP3 ADD MSTORE PUSH32 0x65736E277420636F72726573706F6E6420746F20636F6D707265737365642045 PUSH1 0x64 DUP3 ADD MSTORE PUSH6 0x81C1BDA5B9D PUSH1 0xD2 SHL PUSH1 0x84 DUP3 ADD MSTORE PUSH1 0xA4 ADD PUSH2 0x410 JUMP JUMPDEST PUSH2 0xF00 DUP4 PUSH1 0x20 ADD MLOAD DUP5 PUSH1 0x40 ADD MLOAD PUSH2 0x2642 JUMP JUMPDEST PUSH2 0xF4C JUMPI PUSH1 0x40 MLOAD PUSH3 0x461BCD PUSH1 0xE5 SHL DUP2 MSTORE PUSH1 0x20 PUSH1 0x4 DUP3 ADD DUP2 SWAP1 MSTORE PUSH1 0x24 DUP3 ADD MSTORE PUSH32 0x506F696E74207A45206973206E6F7420612076616C696420454320706F696E74 PUSH1 0x44 DUP3 ADD MSTORE PUSH1 0x64 ADD PUSH2 0x410 JUMP JUMPDEST PUSH2 0xF75 DUP6 PUSH1 0x0 ADD MLOAD PUSH1 0x20 ADD MLOAD DUP5 PUSH1 0x0 ADD MLOAD DUP7 PUSH1 0x80 ADD MLOAD PUSH1 0x80 ADD MLOAD DUP7 PUSH1 0x20 ADD MLOAD DUP8 PUSH1 0x40 ADD MLOAD PUSH2 0x26BF JUMP JUMPDEST PUSH2 0xFCC JUMPI PUSH1 0x40 MLOAD PUSH3 0x461BCD PUSH1 0xE5 SHL DUP2 MSTORE PUSH1 0x20 PUSH1 0x4 DUP3 ADD MSTORE PUSH1 0x22 PUSH1 0x24 DUP3 ADD MSTORE PUSH32 0x507265636F6D7075746564207A2A452076616C756520697320696E636F727265 PUSH1 0x44 DUP3 ADD MSTORE PUSH2 0x18DD PUSH1 0xF2 SHL PUSH1 0x64 DUP3 ADD MSTORE PUSH1 0x84 ADD PUSH2 0x410 JUMP JUMPDEST DUP4 MLOAD DUP1 MLOAD PUSH1 0x20 SWAP1 SWAP2 ADD MLOAD PUSH1 0x60 DUP6 ADD MLOAD PUSH2 0xFE6 SWAP3 SWAP2 SWAP1 PUSH2 0x2615 JUMP JUMPDEST PUSH2 0x1057 JUMPI PUSH1 0x40 MLOAD PUSH3 0x461BCD PUSH1 0xE5 SHL DUP2 MSTORE PUSH1 0x20 PUSH1 0x4 DUP3 ADD MSTORE PUSH1 0x48 PUSH1 0x24 DUP3 ADD MSTORE PUSH32 0x507265636F6D7075746564205920636F6F7264696E617465206F662045312064 PUSH1 0x44 DUP3 ADD MSTORE PUSH1 0x0 DUP1 MLOAD PUSH1 0x20 PUSH2 0x3589 DUP4 CODECOPY DUP2 MLOAD SWAP2 MSTORE PUSH1 0x64 DUP3 ADD MSTORE PUSH8 0x114C481C1BDA5B9D PUSH1 0xC2 SHL PUSH1 0x84 DUP3 ADD MSTORE PUSH1 0xA4 ADD PUSH2 0x410 JUMP JUMPDEST PUSH2 0x1069 DUP4 PUSH1 0x80 ADD MLOAD DUP5 PUSH1 0xA0 ADD MLOAD PUSH2 0x2642 JUMP JUMPDEST PUSH2 0x10C0 JUMPI PUSH1 0x40 MLOAD PUSH3 0x461BCD PUSH1 0xE5 SHL DUP2 MSTORE PUSH1 0x20 PUSH1 0x4 DUP3 ADD MSTORE PUSH1 0x22 PUSH1 0x24 DUP3 ADD MSTORE PUSH32 0x506F696E7420682A4531206973206E6F7420612076616C696420454320706F69 PUSH1 0x44 DUP3 ADD MSTORE PUSH2 0x1B9D PUSH1 0xF2 SHL PUSH1 0x64 DUP3 ADD MSTORE PUSH1 0x84 ADD PUSH2 0x410 JUMP JUMPDEST PUSH2 0x10E1 DUP5 PUSH1 0x0 ADD MLOAD PUSH1 0x20 ADD MLOAD DUP5 PUSH1 0x60 ADD MLOAD DUP4 DUP7 PUSH1 0x80 ADD MLOAD DUP8 PUSH1 0xA0 ADD MLOAD PUSH2 0x26BF JUMP JUMPDEST PUSH2 0x1139 JUMPI PUSH1 0x40 MLOAD PUSH3 0x461BCD PUSH1 0xE5 SHL DUP2 MSTORE PUSH1 0x20 PUSH1 0x4 DUP3 ADD MSTORE PUSH1 0x23 PUSH1 0x24 DUP3 ADD MSTORE PUSH32 0x507265636F6D707574656420682A45312076616C756520697320696E636F7272 PUSH1 0x44 DUP3 ADD MSTORE PUSH3 0x1958DD PUSH1 0xEA SHL PUSH1 0x64 DUP3 ADD MSTORE PUSH1 0x84 ADD PUSH2 0x410 JUMP JUMPDEST PUSH1 0x80 DUP5 ADD MLOAD MLOAD DUP1 MLOAD PUSH1 0x20 SWAP1 SWAP2 ADD MLOAD PUSH1 0xC0 DUP6 ADD MLOAD PUSH2 0x1157 SWAP3 SWAP2 SWAP1 PUSH2 0x2615 JUMP JUMPDEST PUSH2 0x11C8 JUMPI PUSH1 0x40 MLOAD PUSH3 0x461BCD PUSH1 0xE5 SHL DUP2 MSTORE PUSH1 0x20 PUSH1 0x4 DUP3 ADD MSTORE PUSH1 0x48 PUSH1 0x24 DUP3 ADD MSTORE PUSH32 0x507265636F6D7075746564205920636F6F7264696E617465206F662045322064 PUSH1 0x44 DUP3 ADD MSTORE PUSH1 0x0 DUP1 MLOAD PUSH1 0x20 PUSH2 0x3589 DUP4 CODECOPY DUP2 MLOAD SWAP2 MSTORE PUSH1 0x64 DUP3 ADD MSTORE PUSH8 0x114C881C1BDA5B9D PUSH1 0xC2 SHL PUSH1 0x84 DUP3 ADD MSTORE PUSH1 0xA4 ADD PUSH2 0x410 JUMP JUMPDEST PUSH1 0x0 PUSH2 0x1239 PUSH1 0x40 MLOAD DUP1 PUSH1 0x40 ADD PUSH1 0x40 MSTORE DUP1 DUP7 PUSH1 0x20 ADD MLOAD DUP2 MSTORE PUSH1 0x20 ADD DUP7 PUSH1 0x40 ADD MLOAD DUP2 MSTORE POP PUSH2 0x1234 PUSH1 0x40 MLOAD DUP1 PUSH1 0x40 ADD PUSH1 0x40 MSTORE DUP1 DUP10 PUSH1 0x80 ADD MLOAD PUSH1 0x0 ADD MLOAD PUSH1 0x20 ADD MLOAD DUP2 MSTORE PUSH1 0x20 ADD DUP9 PUSH1 0xC0 ADD MLOAD DUP2 MSTORE POP PUSH1 0x40 MLOAD DUP1 PUSH1 0x40 ADD PUSH1 0x40 MSTORE DUP1 DUP10 PUSH1 0x80 ADD MLOAD DUP2 MSTORE PUSH1 0x20 ADD DUP10 PUSH1 0xA0 ADD MLOAD DUP2 MSTORE POP PUSH2 0x279F JUMP JUMPDEST PUSH2 0x293B JUMP JUMPDEST SWAP1 POP DUP1 PUSH2 0x124F JUMPI PUSH1 0x0 SWAP7 POP POP POP POP POP POP POP PUSH2 0x1989 JUMP JUMPDEST PUSH1 0x20 DUP1 DUP8 ADD MLOAD DUP1 MLOAD SWAP2 ADD MLOAD PUSH1 0xE0 DUP7 ADD MLOAD PUSH2 0x126A SWAP3 SWAP2 SWAP1 PUSH2 0x2615 JUMP JUMPDEST PUSH2 0x12EB JUMPI PUSH1 0x40 MLOAD PUSH3 0x461BCD PUSH1 0xE5 SHL DUP2 MSTORE PUSH1 0x20 PUSH1 0x4 DUP3 ADD MSTORE PUSH1 0x46 PUSH1 0x24 DUP3 ADD MSTORE PUSH32 0x507265636F6D7075746564205920636F6F7264696E617465206F66205620646F PUSH1 0x44 DUP3 ADD MSTORE PUSH32 0x65736E277420636F72726573706F6E6420746F20636F6D707265737365642056 PUSH1 0x64 DUP3 ADD MSTORE PUSH6 0x81C1BDA5B9D PUSH1 0xD2 SHL PUSH1 0x84 DUP3 ADD MSTORE PUSH1 0xA4 ADD PUSH2 0x410 JUMP JUMPDEST PUSH2 0x12FF DUP5 PUSH2 0x100 ADD MLOAD DUP6 PUSH2 0x120 ADD MLOAD PUSH2 0x2642 JUMP JUMPDEST PUSH2 0x134B JUMPI PUSH1 0x40 MLOAD PUSH3 0x461BCD PUSH1 0xE5 SHL DUP2 MSTORE PUSH1 0x20 PUSH1 0x4 DUP3 ADD DUP2 SWAP1 MSTORE PUSH1 0x24 DUP3 ADD MSTORE PUSH32 0x506F696E74207A56206973206E6F7420612076616C696420454320706F696E74 PUSH1 0x44 DUP3 ADD MSTORE PUSH1 0x64 ADD PUSH2 0x410 JUMP JUMPDEST PUSH2 0x1376 DUP7 PUSH1 0x20 ADD MLOAD PUSH1 0x20 ADD MLOAD DUP6 PUSH1 0xE0 ADD MLOAD DUP8 PUSH1 0x80 ADD MLOAD PUSH1 0x80 ADD MLOAD DUP8 PUSH2 0x100 ADD MLOAD DUP9 PUSH2 0x120 ADD MLOAD PUSH2 0x26BF JUMP JUMPDEST PUSH2 0x13CD JUMPI PUSH1 0x40 MLOAD PUSH3 0x461BCD PUSH1 0xE5 SHL DUP2 MSTORE PUSH1 0x20 PUSH1 0x4 DUP3 ADD MSTORE PUSH1 0x22 PUSH1 0x24 DUP3 ADD MSTORE PUSH32 0x507265636F6D7075746564207A2A562076616C756520697320696E636F727265 PUSH1 0x44 DUP3 ADD MSTORE PUSH2 0x18DD PUSH1 0xF2 SHL PUSH1 0x64 DUP3 ADD MSTORE PUSH1 0x84 ADD PUSH2 0x410 JUMP JUMPDEST PUSH1 0x20 DUP1 DUP7 ADD MLOAD DUP1 MLOAD SWAP2 ADD MLOAD PUSH2 0x140 DUP7 ADD MLOAD PUSH2 0x13E9 SWAP3 SWAP2 SWAP1 PUSH2 0x2615 JUMP JUMPDEST PUSH2 0x145A JUMPI PUSH1 0x40 MLOAD PUSH3 0x461BCD PUSH1 0xE5 SHL DUP2 MSTORE PUSH1 0x20 PUSH1 0x4 DUP3 ADD MSTORE PUSH1 0x48 PUSH1 0x24 DUP3 ADD MSTORE PUSH32 0x507265636F6D7075746564205920636F6F7264696E617465206F662056312064 PUSH1 0x44 DUP3 ADD MSTORE PUSH1 0x0 DUP1 MLOAD PUSH1 0x20 PUSH2 0x3589 DUP4 CODECOPY DUP2 MLOAD SWAP2 MSTORE PUSH1 0x64 DUP3 ADD MSTORE PUSH8 0x158C481C1BDA5B9D PUSH1 0xC2 SHL PUSH1 0x84 DUP3 ADD MSTORE PUSH1 0xA4 ADD PUSH2 0x410 JUMP JUMPDEST PUSH2 0x146E DUP5 PUSH2 0x160 ADD MLOAD DUP6 PUSH2 0x180 ADD MLOAD PUSH2 0x2642 JUMP JUMPDEST PUSH2 0x14C5 JUMPI PUSH1 0x40 MLOAD PUSH3 0x461BCD PUSH1 0xE5 SHL DUP2 MSTORE PUSH1 0x20 PUSH1 0x4 DUP3 ADD MSTORE PUSH1 0x22 PUSH1 0x24 DUP3 ADD MSTORE PUSH32 0x506F696E7420682A5631206973206E6F7420612076616C696420454320706F69 PUSH1 0x44 DUP3 ADD MSTORE PUSH2 0x1B9D PUSH1 0xF2 SHL PUSH1 0x64 DUP3 ADD MSTORE PUSH1 0x84 ADD PUSH2 0x410 JUMP JUMPDEST PUSH2 0x14E9 DUP6 PUSH1 0x20 ADD MLOAD PUSH1 0x20 ADD MLOAD DUP6 PUSH2 0x140 ADD MLOAD DUP5 DUP8 PUSH2 0x160 ADD MLOAD DUP9 PUSH2 0x180 ADD MLOAD PUSH2 0x26BF JUMP JUMPDEST PUSH2 0x1505 JUMPI PUSH1 0x40 MLOAD PUSH3 0x461BCD PUSH1 0xE5 SHL DUP2 MSTORE PUSH1 0x4 ADD PUSH2 0x410 SWAP1 PUSH2 0x32D5 JUMP JUMPDEST PUSH1 0x80 DUP6 ADD MLOAD PUSH1 0x20 SWAP1 DUP2 ADD MLOAD DUP1 MLOAD SWAP2 ADD MLOAD PUSH2 0x1A0 DUP7 ADD MLOAD PUSH2 0x1526 SWAP3 SWAP2 SWAP1 PUSH2 0x2615 JUMP JUMPDEST PUSH2 0x1597 JUMPI PUSH1 0x40 MLOAD PUSH3 0x461BCD PUSH1 0xE5 SHL DUP2 MSTORE PUSH1 0x20 PUSH1 0x4 DUP3 ADD MSTORE PUSH1 0x48 PUSH1 0x24 DUP3 ADD MSTORE PUSH32 0x507265636F6D7075746564205920636F6F7264696E617465206F662056322064 PUSH1 0x44 DUP3 ADD MSTORE PUSH1 0x0 DUP1 MLOAD PUSH1 0x20 PUSH2 0x3589 DUP4 CODECOPY DUP2 MLOAD SWAP2 MSTORE PUSH1 0x64 DUP3 ADD MSTORE PUSH8 0x158C881C1BDA5B9D PUSH1 0xC2 SHL PUSH1 0x84 DUP3 ADD MSTORE PUSH1 0xA4 ADD PUSH2 0x410 JUMP JUMPDEST PUSH2 0x1606 PUSH1 0x40 MLOAD DUP1 PUSH1 0x40 ADD PUSH1 0x40 MSTORE DUP1 DUP7 PUSH2 0x100 ADD MLOAD DUP2 MSTORE PUSH1 0x20 ADD DUP7 PUSH2 0x120 ADD MLOAD DUP2 MSTORE POP PUSH2 0x1234 PUSH1 0x40 MLOAD DUP1 PUSH1 0x40 ADD PUSH1 0x40 MSTORE DUP1 DUP10 PUSH1 0x80 ADD MLOAD PUSH1 0x20 ADD MLOAD PUSH1 0x20 ADD MLOAD DUP2 MSTORE PUSH1 0x20 ADD DUP9 PUSH2 0x1A0 ADD MLOAD DUP2 MSTORE POP PUSH1 0x40 MLOAD DUP1 PUSH1 0x40 ADD PUSH1 0x40 MSTORE DUP1 DUP10 PUSH2 0x160 ADD MLOAD DUP2 MSTORE PUSH1 0x20 ADD DUP10 PUSH2 0x180 ADD MLOAD DUP2 MSTORE POP PUSH2 0x279F JUMP JUMPDEST SWAP1 POP DUP1 PUSH2 0x161C JUMPI PUSH1 0x0 SWAP7 POP POP POP POP POP POP POP PUSH2 0x1989 JUMP JUMPDEST PUSH2 0x1630 DUP5 PUSH2 0x1C0 ADD MLOAD DUP6 PUSH2 0x1E0 ADD MLOAD PUSH2 0x2642 JUMP JUMPDEST PUSH2 0x1686 JUMPI PUSH1 0x40 MLOAD PUSH3 0x461BCD PUSH1 0xE5 SHL DUP2 MSTORE PUSH1 0x20 PUSH1 0x4 DUP3 ADD MSTORE PUSH1 0x21 PUSH1 0x24 DUP3 ADD MSTORE PUSH32 0x506F696E74207A2A55206973206E6F7420612076616C696420454320706F696E PUSH1 0x44 DUP3 ADD MSTORE PUSH1 0x1D PUSH1 0xFA SHL PUSH1 0x64 DUP3 ADD MSTORE PUSH1 0x84 ADD PUSH2 0x410 JUMP JUMPDEST PUSH2 0x16E5 PUSH32 0x3C98795773FF1C241FC0B1CCED85E80F8366581DDA5C9452175EBD41385FA1F PUSH32 0x7880ED56962D7C0AE44D6F14BB53B5FE64B31EA44A41D0316F3A598778F0F936 DUP8 PUSH1 0x80 ADD MLOAD PUSH1 0x80 ADD MLOAD DUP8 PUSH2 0x1C0 ADD MLOAD DUP9 PUSH2 0x1E0 ADD MLOAD PUSH2 0x26BF JUMP JUMPDEST PUSH2 0x173C JUMPI PUSH1 0x40 MLOAD PUSH3 0x461BCD PUSH1 0xE5 SHL DUP2 MSTORE PUSH1 0x20 PUSH1 0x4 DUP3 ADD MSTORE PUSH1 0x22 PUSH1 0x24 DUP3 ADD MSTORE PUSH32 0x507265636F6D7075746564207A2A552076616C756520697320696E636F727265 PUSH1 0x44 DUP3 ADD MSTORE PUSH2 0x18DD PUSH1 0xF2 SHL PUSH1 0x64 DUP3 ADD MSTORE PUSH1 0x84 ADD PUSH2 0x410 JUMP JUMPDEST PUSH1 0x80 DUP6 ADD MLOAD PUSH1 0x40 ADD MLOAD DUP1 MLOAD PUSH1 0x20 SWAP1 SWAP2 ADD MLOAD PUSH2 0x200 DUP7 ADD MLOAD PUSH2 0x175E SWAP3 SWAP2 SWAP1 PUSH2 0x2615 JUMP JUMPDEST PUSH2 0x17CF JUMPI PUSH1 0x40 MLOAD PUSH3 0x461BCD PUSH1 0xE5 SHL DUP2 MSTORE PUSH1 0x20 PUSH1 0x4 DUP3 ADD MSTORE PUSH1 0x48 PUSH1 0x24 DUP3 ADD MSTORE PUSH32 0x507265636F6D7075746564205920636F6F7264696E617465206F662055312064 PUSH1 0x44 DUP3 ADD MSTORE PUSH1 0x0 DUP1 MLOAD PUSH1 0x20 PUSH2 0x3589 DUP4 CODECOPY DUP2 MLOAD SWAP2 MSTORE PUSH1 0x64 DUP3 ADD MSTORE PUSH8 0x154C481C1BDA5B9D PUSH1 0xC2 SHL PUSH1 0x84 DUP3 ADD MSTORE PUSH1 0xA4 ADD PUSH2 0x410 JUMP JUMPDEST PUSH2 0x17E3 DUP5 PUSH2 0x220 ADD MLOAD DUP6 PUSH2 0x240 ADD MLOAD PUSH2 0x2642 JUMP JUMPDEST PUSH2 0x183A JUMPI PUSH1 0x40 MLOAD PUSH3 0x461BCD PUSH1 0xE5 SHL DUP2 MSTORE PUSH1 0x20 PUSH1 0x4 DUP3 ADD MSTORE PUSH1 0x22 PUSH1 0x24 DUP3 ADD MSTORE PUSH32 0x506F696E7420682A5531206973206E6F7420612076616C696420454320706F69 PUSH1 0x44 DUP3 ADD MSTORE PUSH2 0x1B9D PUSH1 0xF2 SHL PUSH1 0x64 DUP3 ADD MSTORE PUSH1 0x84 ADD PUSH2 0x410 JUMP JUMPDEST PUSH2 0x1862 DUP6 PUSH1 0x80 ADD MLOAD PUSH1 0x40 ADD MLOAD PUSH1 0x20 ADD MLOAD DUP6 PUSH2 0x200 ADD MLOAD DUP5 DUP8 PUSH2 0x220 ADD MLOAD DUP9 PUSH2 0x240 ADD MLOAD PUSH2 0x26BF JUMP JUMPDEST PUSH2 0x187E JUMPI PUSH1 0x40 MLOAD PUSH3 0x461BCD PUSH1 0xE5 SHL DUP2 MSTORE PUSH1 0x4 ADD PUSH2 0x410 SWAP1 PUSH2 0x32D5 JUMP JUMPDEST PUSH1 0x80 DUP6 ADD MLOAD PUSH1 0x60 ADD MLOAD DUP1 MLOAD PUSH1 0x20 SWAP1 SWAP2 ADD MLOAD PUSH2 0x260 DUP7 ADD MLOAD PUSH2 0x18A0 SWAP3 SWAP2 SWAP1 PUSH2 0x2615 JUMP JUMPDEST PUSH2 0x1911 JUMPI PUSH1 0x40 MLOAD PUSH3 0x461BCD PUSH1 0xE5 SHL DUP2 MSTORE PUSH1 0x20 PUSH1 0x4 DUP3 ADD MSTORE PUSH1 0x48 PUSH1 0x24 DUP3 ADD MSTORE PUSH32 0x507265636F6D7075746564205920636F6F7264696E617465206F662055322064 PUSH1 0x44 DUP3 ADD MSTORE PUSH1 0x0 DUP1 MLOAD PUSH1 0x20 PUSH2 0x3589 DUP4 CODECOPY DUP2 MLOAD SWAP2 MSTORE PUSH1 0x64 DUP3 ADD MSTORE PUSH8 0x154C881C1BDA5B9D PUSH1 0xC2 SHL PUSH1 0x84 DUP3 ADD MSTORE PUSH1 0xA4 ADD PUSH2 0x410 JUMP JUMPDEST PUSH2 0x1980 PUSH1 0x40 MLOAD DUP1 PUSH1 0x40 ADD PUSH1 0x40 MSTORE DUP1 DUP7 PUSH2 0x1C0 ADD MLOAD DUP2 MSTORE PUSH1 0x20 ADD DUP7 PUSH2 0x1E0 ADD MLOAD DUP2 MSTORE POP PUSH2 0x1234 PUSH1 0x40 MLOAD DUP1 PUSH1 0x40 ADD PUSH1 0x40 MSTORE DUP1 DUP10 PUSH1 0x80 ADD MLOAD PUSH1 0x60 ADD MLOAD PUSH1 0x20 ADD MLOAD DUP2 MSTORE PUSH1 0x20 ADD DUP9 PUSH2 0x260 ADD MLOAD DUP2 MSTORE POP PUSH1 0x40 MLOAD DUP1 PUSH1 0x40 ADD PUSH1 0x40 MSTORE DUP1 DUP10 PUSH2 0x220 ADD MLOAD DUP2 MSTORE PUSH1 0x20 ADD DUP10 PUSH2 0x240 ADD MLOAD DUP2 MSTORE POP PUSH2 0x279F JUMP JUMPDEST SWAP7 POP POP POP POP POP POP POP JUMPDEST SWAP4 SWAP3 POP POP POP JUMP JUMPDEST PUSH1 0x0 DUP2 MLOAD PUSH1 0x40 EQ PUSH2 0x19F1 JUMPI PUSH1 0x40 MLOAD PUSH3 0x461BCD PUSH1 0xE5 SHL DUP2 MSTORE PUSH1 0x20 PUSH1 0x4 DUP3 ADD MSTORE PUSH1 0x25 PUSH1 0x24 DUP3 ADD MSTORE PUSH32 0x53657269616C697A656420636F6F7264696E617465732073686F756C64206265 PUSH1 0x44 DUP3 ADD MSTORE PUSH5 0x101B1A1021 PUSH1 0xD9 SHL PUSH1 0x64 DUP3 ADD MSTORE PUSH1 0x84 ADD PUSH2 0x410 JUMP JUMPDEST PUSH1 0x20 DUP3 ADD MLOAD PUSH1 0x40 DUP4 ADD MLOAD PUSH2 0x1A05 DUP3 DUP3 PUSH2 0x2642 JUMP JUMPDEST SWAP5 SWAP4 POP POP POP POP JUMP JUMPDEST PUSH2 0x1AD4 PUSH1 0x40 MLOAD DUP1 PUSH2 0x2E0 ADD PUSH1 0x40 MSTORE DUP1 PUSH1 0x0 DUP2 MSTORE PUSH1 0x20 ADD PUSH1 0x0 DUP2 MSTORE PUSH1 0x20 ADD PUSH1 0x0 DUP2 MSTORE PUSH1 0x20 ADD PUSH1 0x0 DUP2 MSTORE PUSH1 0x20 ADD PUSH1 0x0 DUP2 MSTORE PUSH1 0x20 ADD PUSH1 0x0 DUP2 MSTORE PUSH1 0x20 ADD PUSH1 0x0 DUP2 MSTORE PUSH1 0x20 ADD PUSH1 0x0 DUP2 MSTORE PUSH1 0x20 ADD PUSH1 0x0 DUP2 MSTORE PUSH1 0x20 ADD PUSH1 0x0 DUP2 MSTORE PUSH1 0x20 ADD PUSH1 0x0 DUP2 MSTORE PUSH1 0x20 ADD PUSH1 0x0 DUP2 MSTORE PUSH1 0x20 ADD PUSH1 0x0 DUP2 MSTORE PUSH1 0x20 ADD PUSH1 0x0 DUP2 MSTORE PUSH1 0x20 ADD PUSH1 0x0 DUP2 MSTORE PUSH1 0x20 ADD PUSH1 0x0 DUP2 MSTORE PUSH1 0x20 ADD PUSH1 0x0 DUP2 MSTORE PUSH1 0x20 ADD PUSH1 0x0 DUP2 MSTORE PUSH1 0x20 ADD PUSH1 0x0 DUP2 MSTORE PUSH1 0x20 ADD PUSH1 0x0 DUP2 MSTORE PUSH1 0x20 ADD PUSH1 0x0 DUP1 NOT AND DUP2 MSTORE PUSH1 0x20 ADD PUSH1 0x0 PUSH1 0x1 PUSH1 0x1 PUSH1 0xA0 SHL SUB AND DUP2 MSTORE PUSH1 0x20 ADD PUSH1 0x0 PUSH1 0x1 PUSH1 0x1 PUSH1 0xD8 SHL SUB NOT AND DUP2 MSTORE POP SWAP1 JUMP JUMPDEST PUSH2 0x1AE0 PUSH1 0x20 PUSH1 0x14 PUSH2 0x332E JUMP JUMPDEST PUSH2 0x1AEB SWAP1 PUSH1 0x20 PUSH2 0x334D JUMP JUMPDEST PUSH2 0x1AF6 SWAP1 PUSH1 0x14 PUSH2 0x334D JUMP JUMPDEST PUSH2 0x1B01 SWAP1 PUSH1 0x5 PUSH2 0x334D JUMP JUMPDEST DUP3 MLOAD EQ PUSH2 0x1B0D JUMPI PUSH1 0x0 DUP1 REVERT JUMPDEST PUSH1 0x20 DUP3 ADD DUP1 MLOAD DUP2 SWAP1 DUP4 MSTORE PUSH2 0x1B22 PUSH1 0x20 DUP3 PUSH2 0x334D JUMP JUMPDEST SWAP1 POP PUSH2 0x1B2C DUP2 MLOAD SWAP1 JUMP JUMPDEST PUSH1 0x20 DUP1 DUP6 ADD SWAP2 SWAP1 SWAP2 MSTORE PUSH2 0x1B3F SWAP1 DUP3 PUSH2 0x334D JUMP JUMPDEST SWAP1 POP PUSH2 0x1B49 DUP2 MLOAD SWAP1 JUMP JUMPDEST PUSH1 0x40 DUP5 ADD MSTORE PUSH2 0x1B59 PUSH1 0x20 DUP3 PUSH2 0x334D JUMP JUMPDEST SWAP1 POP PUSH2 0x1B63 DUP2 MLOAD SWAP1 JUMP JUMPDEST PUSH1 0x60 DUP5 ADD MSTORE PUSH2 0x1B73 PUSH1 0x20 DUP3 PUSH2 0x334D JUMP JUMPDEST SWAP1 POP PUSH2 0x1B7D DUP2 MLOAD SWAP1 JUMP JUMPDEST PUSH1 0x80 DUP5 ADD MSTORE PUSH2 0x1B8D PUSH1 0x20 DUP3 PUSH2 0x334D JUMP JUMPDEST SWAP1 POP PUSH2 0x1B97 DUP2 MLOAD SWAP1 JUMP JUMPDEST PUSH1 0xA0 DUP5 ADD MSTORE PUSH2 0x1BA7 PUSH1 0x20 DUP3 PUSH2 0x334D JUMP JUMPDEST SWAP1 POP PUSH2 0x1BB1 DUP2 MLOAD SWAP1 JUMP JUMPDEST PUSH1 0xC0 DUP5 ADD MSTORE PUSH2 0x1BC1 PUSH1 0x20 DUP3 PUSH2 0x334D JUMP JUMPDEST SWAP1 POP PUSH2 0x1BCB DUP2 MLOAD SWAP1 JUMP JUMPDEST PUSH1 0xE0 DUP5 ADD MSTORE PUSH2 0x1BDB PUSH1 0x20 DUP3 PUSH2 0x334D JUMP JUMPDEST SWAP1 POP PUSH2 0x1BE5 DUP2 MLOAD SWAP1 JUMP JUMPDEST PUSH2 0x100 DUP5 ADD MSTORE PUSH2 0x1BF6 PUSH1 0x20 DUP3 PUSH2 0x334D JUMP JUMPDEST SWAP1 POP PUSH2 0x1C00 DUP2 MLOAD SWAP1 JUMP JUMPDEST PUSH2 0x120 DUP5 ADD MSTORE PUSH2 0x1C11 PUSH1 0x20 DUP3 PUSH2 0x334D JUMP JUMPDEST SWAP1 POP PUSH2 0x1C1B DUP2 MLOAD SWAP1 JUMP JUMPDEST PUSH2 0x140 DUP5 ADD MSTORE PUSH2 0x1C2C PUSH1 0x20 DUP3 PUSH2 0x334D JUMP JUMPDEST SWAP1 POP PUSH2 0x1C36 DUP2 MLOAD SWAP1 JUMP JUMPDEST PUSH2 0x160 DUP5 ADD MSTORE PUSH2 0x1C47 PUSH1 0x20 DUP3 PUSH2 0x334D JUMP JUMPDEST SWAP1 POP PUSH2 0x1C51 DUP2 MLOAD SWAP1 JUMP JUMPDEST PUSH2 0x180 DUP5 ADD MSTORE PUSH2 0x1C62 PUSH1 0x20 DUP3 PUSH2 0x334D JUMP JUMPDEST SWAP1 POP PUSH2 0x1C6C DUP2 MLOAD SWAP1 JUMP JUMPDEST PUSH2 0x1A0 DUP5 ADD MSTORE PUSH2 0x1C7D PUSH1 0x20 DUP3 PUSH2 0x334D JUMP JUMPDEST SWAP1 POP PUSH2 0x1C87 DUP2 MLOAD SWAP1 JUMP JUMPDEST PUSH2 0x1C0 DUP5 ADD MSTORE PUSH2 0x1C98 PUSH1 0x20 DUP3 PUSH2 0x334D JUMP JUMPDEST SWAP1 POP PUSH2 0x1CA2 DUP2 MLOAD SWAP1 JUMP JUMPDEST PUSH2 0x1E0 DUP5 ADD MSTORE PUSH2 0x1CB3 PUSH1 0x20 DUP3 PUSH2 0x334D JUMP JUMPDEST SWAP1 POP PUSH2 0x1CBD DUP2 MLOAD SWAP1 JUMP JUMPDEST PUSH2 0x200 DUP5 ADD MSTORE PUSH2 0x1CCE PUSH1 0x20 DUP3 PUSH2 0x334D JUMP JUMPDEST SWAP1 POP PUSH2 0x1CD8 DUP2 MLOAD SWAP1 JUMP JUMPDEST PUSH2 0x220 DUP5 ADD MSTORE PUSH2 0x1CE9 PUSH1 0x20 DUP3 PUSH2 0x334D JUMP JUMPDEST SWAP1 POP PUSH2 0x1CF3 DUP2 MLOAD SWAP1 JUMP JUMPDEST PUSH2 0x240 DUP5 ADD MSTORE PUSH2 0x1D04 PUSH1 0x20 DUP3 PUSH2 0x334D JUMP JUMPDEST SWAP1 POP PUSH2 0x1D0E DUP2 MLOAD SWAP1 JUMP JUMPDEST PUSH2 0x260 DUP5 ADD MSTORE PUSH2 0x1D1F PUSH1 0x20 DUP3 PUSH2 0x334D JUMP JUMPDEST SWAP1 POP PUSH2 0x1D29 DUP2 MLOAD SWAP1 JUMP JUMPDEST PUSH2 0x280 DUP5 ADD MSTORE PUSH2 0x1D3A PUSH1 0x20 DUP3 PUSH2 0x334D JUMP JUMPDEST SWAP1 POP PUSH2 0x1D44 DUP2 MLOAD SWAP1 JUMP JUMPDEST PUSH1 0x60 SHR PUSH2 0x2A0 DUP5 ADD MSTORE PUSH2 0x1D58 PUSH1 0x14 DUP3 PUSH2 0x334D JUMP JUMPDEST SWAP1 POP PUSH2 0x1D62 DUP2 MLOAD SWAP1 JUMP JUMPDEST PUSH1 0x1 PUSH1 0x1 PUSH1 0xD8 SHL SUB NOT AND PUSH2 0x2C0 DUP5 ADD MSTORE PUSH2 0x1D7D PUSH1 0x5 DUP3 PUSH2 0x334D JUMP JUMPDEST SWAP1 POP PUSH2 0x1D8B PUSH1 0x20 PUSH1 0x14 PUSH2 0x332E JUMP JUMPDEST PUSH2 0x1D96 SWAP1 PUSH1 0x20 PUSH2 0x334D JUMP JUMPDEST PUSH2 0x1DA1 SWAP1 PUSH1 0x14 PUSH2 0x334D JUMP JUMPDEST PUSH2 0x1DAC SWAP1 PUSH1 0x5 PUSH2 0x334D JUMP JUMPDEST PUSH2 0x1DB6 SWAP1 DUP4 PUSH2 0x334D JUMP JUMPDEST DUP2 EQ PUSH2 0x1DC1 JUMPI PUSH1 0x0 DUP1 REVERT JUMPDEST POP POP SWAP2 SWAP1 POP JUMP JUMPDEST PUSH1 0x0 DUP3 MLOAD PUSH1 0x40 EQ PUSH2 0x1DD8 JUMPI PUSH1 0x0 DUP1 REVERT JUMPDEST PUSH2 0x1DEB PUSH2 0x1DE5 DUP7 DUP5 PUSH2 0xC86 JUMP JUMPDEST DUP6 PUSH2 0x213A JUMP JUMPDEST PUSH1 0x1 PUSH1 0x1 PUSH1 0xA0 SHL SUB AND PUSH2 0x1E03 DUP5 DUP1 MLOAD PUSH1 0x20 SWAP1 SWAP2 ADD KECCAK256 SWAP1 JUMP JUMPDEST PUSH1 0x1 PUSH1 0x1 PUSH1 0xA0 SHL SUB AND EQ SWAP6 SWAP5 POP POP POP POP POP JUMP JUMPDEST PUSH2 0x1E1E PUSH2 0x2E5C JUMP JUMPDEST DUP2 MLOAD PUSH1 0x40 PUSH1 0x20 PUSH2 0x1E30 PUSH1 0x21 PUSH1 0x4 PUSH2 0x332E JUMP JUMPDEST PUSH2 0x1E3A SWAP2 SWAP1 PUSH2 0x334D JUMP JUMPDEST PUSH2 0x1E44 SWAP2 SWAP1 PUSH2 0x334D JUMP JUMPDEST PUSH1 0x20 PUSH2 0x1E52 PUSH1 0x21 PUSH1 0x3 PUSH2 0x332E JUMP JUMPDEST PUSH2 0x1E5C SWAP2 SWAP1 PUSH2 0x334D JUMP JUMPDEST PUSH2 0x1E66 SWAP2 SWAP1 PUSH2 0x334D JUMP JUMPDEST DUP2 LT ISZERO PUSH2 0x1E72 JUMPI PUSH1 0x0 DUP1 REVERT JUMPDEST DUP2 MLOAD PUSH1 0x20 DUP5 ADD SWAP1 PUSH2 0x1E84 SWAP1 DUP3 SWAP1 PUSH2 0x29B5 JUMP JUMPDEST SWAP1 POP PUSH2 0x1E94 DUP2 DUP5 PUSH1 0x20 ADD MLOAD PUSH2 0x29B5 JUMP JUMPDEST SWAP1 POP PUSH2 0x1E9E DUP2 MLOAD SWAP1 JUMP JUMPDEST PUSH1 0x40 DUP5 ADD MSTORE PUSH2 0x1EAE PUSH1 0x20 DUP3 PUSH2 0x334D JUMP JUMPDEST SWAP1 POP PUSH2 0x1EBE DUP2 DUP5 PUSH1 0x60 ADD MLOAD PUSH2 0x29B5 JUMP JUMPDEST SWAP1 POP PUSH2 0x1EEB DUP2 PUSH1 0x20 PUSH2 0x1ED2 PUSH1 0x21 PUSH1 0x3 PUSH2 0x332E JUMP JUMPDEST PUSH2 0x1EDC SWAP2 SWAP1 PUSH2 0x334D JUMP JUMPDEST PUSH2 0x1EE6 SWAP1 DUP6 PUSH2 0x3365 JUMP JUMPDEST PUSH2 0x29D7 JUMP JUMPDEST PUSH1 0x80 DUP5 ADD MSTORE POP SWAP1 SWAP3 SWAP2 POP POP JUMP JUMPDEST PUSH1 0x0 PUSH1 0x1 PUSH1 0x1 PUSH1 0xF8 SHL SUB NOT DUP3 AND PUSH2 0x1F45 JUMPI PUSH1 0x40 MLOAD ADDRESS SWAP1 PUSH2 0x1F27 SWAP1 PUSH1 0x19 PUSH1 0xF8 SHL SWAP1 PUSH1 0x0 SWAP1 DUP5 SWAP1 DUP9 SWAP1 PUSH1 0x20 ADD PUSH2 0x337C JUMP JUMPDEST PUSH1 0x40 MLOAD PUSH1 0x20 DUP2 DUP4 SUB SUB DUP2 MSTORE SWAP1 PUSH1 0x40 MSTORE DUP1 MLOAD SWAP1 PUSH1 0x20 ADD KECCAK256 SWAP2 POP POP PUSH2 0xD68 JUMP JUMPDEST PUSH1 0x1 PUSH1 0x1 PUSH1 0xF8 SHL SUB NOT DUP3 AND PUSH1 0x45 PUSH1 0xF8 SHL EQ ISZERO PUSH2 0x20F2 JUMPI DUP3 MLOAD DUP1 PUSH2 0x1FBA JUMPI PUSH1 0x40 MLOAD PUSH3 0x461BCD PUSH1 0xE5 SHL DUP2 MSTORE PUSH1 0x20 PUSH1 0x4 DUP3 ADD MSTORE PUSH1 0x27 PUSH1 0x24 DUP3 ADD MSTORE PUSH32 0x456D707479206D657373616765206E6F7420616C6C6F77656420666F72207665 PUSH1 0x44 DUP3 ADD MSTORE PUSH7 0x7273696F6E2045 PUSH1 0xC8 SHL PUSH1 0x64 DUP3 ADD MSTORE PUSH1 0x84 ADD PUSH2 0x410 JUMP JUMPDEST PUSH1 0x0 JUMPDEST DUP2 ISZERO PUSH2 0x1FE3 JUMPI DUP1 PUSH2 0x1FCD DUP2 PUSH2 0x33B9 JUMP JUMPDEST SWAP2 POP PUSH2 0x1FDC SWAP1 POP PUSH1 0xA DUP4 PUSH2 0x33EA JUMP JUMPDEST SWAP2 POP PUSH2 0x1FBD JUMP JUMPDEST PUSH1 0x0 DUP2 PUSH8 0xFFFFFFFFFFFFFFFF DUP2 GT ISZERO PUSH2 0x1FFE JUMPI PUSH2 0x1FFE PUSH2 0x2F56 JUMP JUMPDEST PUSH1 0x40 MLOAD SWAP1 DUP1 DUP3 MSTORE DUP1 PUSH1 0x1F ADD PUSH1 0x1F NOT AND PUSH1 0x20 ADD DUP3 ADD PUSH1 0x40 MSTORE DUP1 ISZERO PUSH2 0x2028 JUMPI PUSH1 0x20 DUP3 ADD DUP2 DUP1 CALLDATASIZE DUP4 CALLDATACOPY ADD SWAP1 POP JUMPDEST POP DUP7 MLOAD SWAP4 POP SWAP1 POP DUP2 JUMPDEST DUP4 ISZERO PUSH2 0x2096 JUMPI PUSH2 0x2042 PUSH1 0xA DUP6 PUSH2 0x33FE JUMP JUMPDEST PUSH2 0x204D SWAP1 PUSH1 0x30 PUSH2 0x334D JUMP JUMPDEST PUSH1 0xF8 SHL DUP3 PUSH2 0x205A DUP4 PUSH2 0x3412 JUMP JUMPDEST SWAP3 POP DUP3 DUP2 MLOAD DUP2 LT PUSH2 0x206D JUMPI PUSH2 0x206D PUSH2 0x3212 JUMP JUMPDEST PUSH1 0x20 ADD ADD SWAP1 PUSH1 0x1 PUSH1 0x1 PUSH1 0xF8 SHL SUB NOT AND SWAP1 DUP2 PUSH1 0x0 BYTE SWAP1 MSTORE8 POP PUSH2 0x208F PUSH1 0xA DUP6 PUSH2 0x33EA JUMP JUMPDEST SWAP4 POP PUSH2 0x2031 JUMP JUMPDEST PUSH1 0x40 MLOAD PUSH2 0x20D1 SWAP1 PUSH1 0x19 PUSH1 0xF8 SHL SWAP1 PUSH32 0x457468657265756D205369676E6564204D6573736167653A0A00000000000000 SWAP1 DUP6 SWAP1 DUP12 SWAP1 PUSH1 0x20 ADD PUSH2 0x3429 JUMP JUMPDEST PUSH1 0x40 MLOAD PUSH1 0x20 DUP2 DUP4 SUB SUB DUP2 MSTORE SWAP1 PUSH1 0x40 MSTORE DUP1 MLOAD SWAP1 PUSH1 0x20 ADD KECCAK256 SWAP5 POP POP POP POP POP PUSH2 0xD68 JUMP JUMPDEST PUSH1 0x40 MLOAD PUSH3 0x461BCD PUSH1 0xE5 SHL DUP2 MSTORE PUSH1 0x20 PUSH1 0x4 DUP3 ADD MSTORE PUSH1 0x1A PUSH1 0x24 DUP3 ADD MSTORE PUSH32 0x556E737570706F72746564204549503139312076657273696F6E000000000000 PUSH1 0x44 DUP3 ADD MSTORE PUSH1 0x64 ADD PUSH2 0x410 JUMP JUMPDEST PUSH1 0x0 DUP2 MLOAD PUSH1 0x41 EQ PUSH2 0x214A JUMPI PUSH1 0x0 DUP1 REVERT JUMPDEST PUSH1 0x20 DUP3 ADD MLOAD PUSH1 0x40 DUP4 ADD MLOAD PUSH1 0x60 DUP5 ADD MLOAD PUSH1 0x0 BYTE PUSH1 0x1B DUP2 LT ISZERO PUSH2 0x2173 JUMPI PUSH2 0x2170 PUSH1 0x1B DUP3 PUSH2 0x3458 JUMP JUMPDEST SWAP1 POP JUMPDEST DUP1 PUSH1 0xFF AND PUSH1 0x1B EQ DUP1 PUSH2 0x2188 JUMPI POP DUP1 PUSH1 0xFF AND PUSH1 0x1C EQ JUMPDEST PUSH2 0x2191 JUMPI PUSH1 0x0 DUP1 REVERT JUMPDEST PUSH1 0x40 DUP1 MLOAD PUSH1 0x0 DUP2 MSTORE PUSH1 0x20 DUP2 ADD DUP1 DUP4 MSTORE DUP9 SWAP1 MSTORE PUSH1 0xFF DUP4 AND SWAP2 DUP2 ADD SWAP2 SWAP1 SWAP2 MSTORE PUSH1 0x60 DUP2 ADD DUP5 SWAP1 MSTORE PUSH1 0x80 DUP2 ADD DUP4 SWAP1 MSTORE PUSH1 0x1 SWAP1 PUSH1 0xA0 ADD PUSH1 0x20 PUSH1 0x40 MLOAD PUSH1 0x20 DUP2 SUB SWAP1 DUP1 DUP5 SUB SWAP1 DUP6 GAS STATICCALL ISZERO DUP1 ISZERO PUSH2 0x21E4 JUMPI RETURNDATASIZE PUSH1 0x0 DUP1 RETURNDATACOPY RETURNDATASIZE PUSH1 0x0 REVERT JUMPDEST POP POP PUSH1 0x40 MLOAD PUSH1 0x1F NOT ADD MLOAD SWAP8 SWAP7 POP POP POP POP POP POP POP JUMP JUMPDEST PUSH1 0x1 PUSH1 0x1 PUSH1 0xA0 SHL SUB DUP3 AND PUSH1 0x0 SWAP1 DUP2 MSTORE PUSH1 0x4 PUSH1 0x20 MSTORE PUSH1 0x40 DUP2 KECCAK256 SLOAD DUP2 SWAP1 PUSH2 0x226A SWAP1 PUSH2 0x2243 SWAP1 PUSH32 0x0 SWAP1 PUSH2 0x2B50 JUMP JUMPDEST PUSH32 0x0 SWAP1 PUSH2 0x2B5C JUMP JUMPDEST SWAP2 POP PUSH2 0x229F DUP3 PUSH2 0x229A DUP6 PUSH32 0x0 PUSH2 0x2B68 JUMP JUMPDEST PUSH2 0x2B74 JUMP JUMPDEST SWAP2 POP PUSH2 0x22CB DUP3 PUSH32 0x0 PUSH2 0x2B68 JUMP JUMPDEST PUSH1 0x1 PUSH1 0x1 PUSH1 0xA0 SHL SUB DUP6 AND PUSH1 0x0 SWAP1 DUP2 MSTORE PUSH1 0x4 PUSH1 0x20 MSTORE PUSH1 0x40 SWAP1 KECCAK256 SLOAD SWAP1 SWAP2 POP PUSH2 0x22F2 SWAP1 PUSH1 0x1 PUSH2 0x2B5C JUMP JUMPDEST PUSH1 0x1 PUSH1 0x1 PUSH1 0xA0 SHL SUB SWAP1 SWAP5 AND PUSH1 0x0 SWAP1 DUP2 MSTORE PUSH1 0x4 PUSH1 0x20 MSTORE PUSH1 0x40 SWAP1 KECCAK256 SWAP4 SWAP1 SWAP4 SSTORE SWAP3 SWAP1 POP JUMP JUMPDEST PUSH1 0x2 DUP1 SLOAD PUSH1 0x1 PUSH1 0xA0 SHL SWAP1 DIV PUSH1 0xFF AND EQ PUSH2 0x232C JUMPI PUSH1 0x0 DUP1 REVERT JUMPDEST PUSH1 0x40 MLOAD CALLER DUP2 MSTORE PUSH1 0x1 PUSH1 0x1 PUSH1 0xA0 SHL SUB DUP3 AND SWAP1 PUSH32 0x1E8D98C1B4A0D9BD2E2371026B632EB2773FCCE41742E41F02F574AB69868D4C SWAP1 PUSH1 0x20 ADD JUMPDEST PUSH1 0x40 MLOAD DUP1 SWAP2 SUB SWAP1 LOG2 POP JUMP JUMPDEST PUSH1 0x0 DUP1 PUSH2 0x237F DUP6 DUP6 PUSH1 0x1 DUP7 DUP6 PUSH2 0x2B8A JUMP JUMPDEST MLOAD SWAP6 SWAP5 POP POP POP POP POP JUMP JUMPDEST PUSH1 0x2 DUP1 SLOAD PUSH1 0x1 PUSH1 0xA0 SHL SWAP1 DIV PUSH1 0xFF AND EQ PUSH2 0x23A1 JUMPI PUSH1 0x0 DUP1 REVERT JUMPDEST PUSH1 0x40 MLOAD CALLER DUP2 MSTORE PUSH1 0x1 PUSH1 0x1 PUSH1 0xA0 SHL SUB DUP3 AND SWAP1 PUSH32 0xD55EC27C5C6316913ED8803C18CFD1BFEFEA953DB909DCBA6140744A9D8B0D1F SWAP1 PUSH1 0x20 ADD PUSH2 0x2363 JUMP JUMPDEST PUSH1 0x1 PUSH1 0x1 PUSH1 0xA0 SHL SUB DUP2 AND PUSH2 0x23EF JUMPI PUSH1 0x0 DUP1 REVERT JUMPDEST PUSH1 0x0 DUP1 SLOAD PUSH1 0x40 MLOAD PUSH1 0x1 PUSH1 0x1 PUSH1 0xA0 SHL SUB DUP1 DUP6 AND SWAP4 SWAP3 AND SWAP2 PUSH32 0x8BE0079C531659141344CD1FD0A4F28419497F9722A3DAAFE3B4186F6B6457E0 SWAP2 LOG3 PUSH1 0x0 DUP1 SLOAD PUSH1 0x1 PUSH1 0x1 PUSH1 0xA0 SHL SUB NOT AND PUSH1 0x1 PUSH1 0x1 PUSH1 0xA0 SHL SUB SWAP3 SWAP1 SWAP3 AND SWAP2 SWAP1 SWAP2 OR SWAP1 SSTORE JUMP JUMPDEST PUSH1 0x40 DUP1 MLOAD PUSH1 0xA0 DUP2 ADD DUP3 MSTORE PUSH1 0x0 PUSH1 0x60 DUP3 ADD DUP2 DUP2 MSTORE PUSH1 0x80 DUP4 ADD DUP3 SWAP1 MSTORE DUP3 MSTORE DUP3 MLOAD DUP1 DUP5 ADD DUP5 MSTORE DUP2 DUP2 MSTORE PUSH1 0x20 DUP1 DUP3 ADD DUP4 SWAP1 MSTORE DUP4 ADD MSTORE SWAP2 DUP2 ADD SWAP2 SWAP1 SWAP2 MSTORE PUSH1 0x20 PUSH2 0x2490 PUSH1 0x21 PUSH1 0x2 PUSH2 0x332E JUMP JUMPDEST PUSH2 0x249A SWAP2 SWAP1 PUSH2 0x334D JUMP JUMPDEST DUP3 MLOAD EQ PUSH2 0x24A6 JUMPI PUSH1 0x0 DUP1 REVERT JUMPDEST DUP1 MLOAD PUSH1 0x20 DUP4 ADD SWAP1 PUSH2 0x24B8 SWAP1 DUP3 SWAP1 PUSH2 0x29B5 JUMP JUMPDEST SWAP1 POP PUSH2 0x24C8 DUP2 DUP4 PUSH1 0x20 ADD MLOAD PUSH2 0x29B5 JUMP JUMPDEST SWAP1 POP PUSH2 0x24D2 DUP2 MLOAD SWAP1 JUMP JUMPDEST PUSH1 0x40 DUP4 ADD MSTORE POP SWAP2 SWAP1 POP JUMP JUMPDEST DUP2 MLOAD DUP1 MLOAD PUSH1 0x20 SWAP2 DUP3 ADD MLOAD DUP4 MLOAD DUP1 MLOAD SWAP1 DUP5 ADD MLOAD PUSH1 0x80 DUP7 ADD DUP1 MLOAD MLOAD DUP1 MLOAD SWAP1 DUP8 ADD MLOAD PUSH1 0x40 DUP1 MLOAD PUSH1 0x1 PUSH1 0x1 PUSH1 0xF8 SHL SUB NOT PUSH1 0xF8 SWAP10 DUP11 SHL DUP2 AND DUP3 DUP13 ADD MSTORE PUSH1 0x21 DUP3 ADD SWAP9 SWAP1 SWAP9 MSTORE SWAP6 DUP9 SHL DUP8 AND PUSH1 0x41 DUP8 ADD MSTORE PUSH1 0x42 DUP7 ADD SWAP5 SWAP1 SWAP5 MSTORE SWAP6 SHL SWAP1 SWAP4 AND PUSH1 0x62 DUP4 ADD MSTORE PUSH1 0x63 DUP1 DUP4 ADD SWAP5 SWAP1 SWAP5 MSTORE DUP1 MLOAD DUP1 DUP4 SUB SWAP1 SWAP5 ADD DUP5 MSTORE PUSH1 0x83 DUP3 ADD SWAP1 MSTORE DUP4 DUP7 ADD MLOAD DUP1 MLOAD SWAP1 DUP6 ADD MLOAD DUP7 DUP7 ADD MLOAD DUP1 MLOAD SWAP1 DUP8 ADD MLOAD SWAP5 MLOAD DUP8 ADD MLOAD DUP1 MLOAD SWAP8 ADD MLOAD PUSH1 0x0 SWAP8 PUSH2 0x2583 SWAP7 DUP9 SWAP7 SWAP1 SWAP3 SWAP1 PUSH1 0xA3 ADD PUSH2 0x347D JUMP JUMPDEST PUSH1 0x40 DUP1 MLOAD PUSH1 0x1F NOT DUP2 DUP5 SUB ADD DUP2 MSTORE DUP3 DUP3 MSTORE PUSH1 0x80 DUP7 ADD MLOAD SWAP2 DUP3 ADD MLOAD DUP1 MLOAD PUSH1 0x20 SWAP2 DUP3 ADD MLOAD PUSH1 0x60 DUP6 ADD MLOAD DUP1 MLOAD SWAP1 DUP5 ADD MLOAD PUSH1 0xC0 SWAP1 SWAP7 ADD MLOAD SWAP5 SWAP8 POP PUSH2 0x25F0 SWAP7 DUP9 SWAP7 PUSH1 0x1 PUSH1 0xF9 SHL SWAP7 PUSH32 0x3C98795773FF1C241FC0B1CCED85E80F8366581DDA5C9452175EBD41385FA1F SWAP7 SWAP2 SWAP3 SWAP1 SWAP2 ADD PUSH2 0x34D2 JUMP JUMPDEST PUSH1 0x40 MLOAD PUSH1 0x20 DUP2 DUP4 SUB SUB DUP2 MSTORE SWAP1 PUSH1 0x40 MSTORE SWAP1 POP PUSH1 0x0 PUSH2 0x260C DUP3 PUSH2 0x2BDA JUMP JUMPDEST SWAP6 SWAP5 POP POP POP POP POP JUMP JUMPDEST PUSH1 0x0 DUP1 PUSH2 0x2623 PUSH1 0x2 DUP7 PUSH2 0x352D JUMP JUMPDEST PUSH1 0xFF AND PUSH2 0x2631 PUSH1 0x2 DUP6 PUSH2 0x33FE JUMP JUMPDEST EQ SWAP1 POP DUP1 DUP1 ISZERO PUSH2 0x260C JUMPI POP PUSH2 0x260C DUP5 DUP5 JUMPDEST PUSH1 0x0 PUSH5 0x1000003D0 NOT DUP1 DUP5 LT ISZERO DUP1 PUSH2 0x265A JUMPI POP DUP1 DUP4 LT ISZERO JUMPDEST ISZERO PUSH2 0x2669 JUMPI PUSH1 0x0 SWAP2 POP POP PUSH2 0xD68 JUMP JUMPDEST PUSH1 0x0 DUP2 DUP1 PUSH2 0x2679 JUMPI PUSH2 0x2679 PUSH2 0x33D4 JUMP JUMPDEST DUP5 DUP6 MULMOD SWAP1 POP PUSH1 0x0 DUP3 DUP1 PUSH2 0x268E JUMPI PUSH2 0x268E PUSH2 0x33D4 JUMP JUMPDEST PUSH1 0x7 DUP5 DUP1 PUSH2 0x269E JUMPI PUSH2 0x269E PUSH2 0x33D4 JUMP JUMPDEST DUP9 DUP7 DUP1 PUSH2 0x26AD JUMPI PUSH2 0x26AD PUSH2 0x33D4 JUMP JUMPDEST DUP11 DUP12 MULMOD MULMOD ADDMOD SWAP2 SWAP1 SWAP2 EQ SWAP6 SWAP5 POP POP POP POP POP JUMP JUMPDEST PUSH1 0x0 PUSH17 0x14551231950B75FC4402DA1732FC9BEBE NOT DUP2 PUSH1 0x1 DUP2 PUSH2 0x26E3 PUSH1 0x2 DUP11 PUSH2 0x33FE JUMP JUMPDEST PUSH2 0x26EE SWAP1 PUSH1 0x1B PUSH2 0x334D JUMP JUMPDEST DUP11 DUP6 DUP1 PUSH2 0x26FD JUMPI PUSH2 0x26FD PUSH2 0x33D4 JUMP JUMPDEST DUP13 DUP12 MULMOD PUSH1 0x40 DUP1 MLOAD PUSH1 0x0 DUP2 MSTORE PUSH1 0x20 DUP2 ADD DUP1 DUP4 MSTORE SWAP6 SWAP1 SWAP6 MSTORE PUSH1 0xFF SWAP1 SWAP4 AND SWAP3 DUP5 ADD SWAP3 SWAP1 SWAP3 MSTORE PUSH1 0x60 DUP4 ADD MSTORE PUSH1 0x80 DUP3 ADD MSTORE PUSH1 0xA0 ADD PUSH1 0x20 PUSH1 0x40 MLOAD PUSH1 0x20 DUP2 SUB SWAP1 DUP1 DUP5 SUB SWAP1 DUP6 GAS STATICCALL ISZERO DUP1 ISZERO PUSH2 0x274E JUMPI RETURNDATASIZE PUSH1 0x0 DUP1 RETURNDATACOPY RETURNDATASIZE PUSH1 0x0 REVERT JUMPDEST POP POP PUSH1 0x40 DUP1 MLOAD PUSH1 0x1F NOT DUP2 ADD MLOAD PUSH1 0x20 DUP1 DUP4 ADD SWAP10 SWAP1 SWAP10 MSTORE DUP2 DUP4 ADD SWAP8 SWAP1 SWAP8 MSTORE DUP2 MLOAD DUP1 DUP3 SUB DUP4 ADD DUP2 MSTORE PUSH1 0x60 SWAP1 SWAP2 ADD SWAP1 SWAP2 MSTORE DUP1 MLOAD SWAP7 ADD SWAP6 SWAP1 SWAP6 KECCAK256 PUSH1 0x1 PUSH1 0x1 PUSH1 0xA0 SHL SUB SWAP5 DUP6 AND SWAP5 AND SWAP4 SWAP1 SWAP4 EQ SWAP8 SWAP7 POP POP POP POP POP POP POP JUMP JUMPDEST PUSH2 0x27A7 PUSH2 0x2EBE JUMP JUMPDEST DUP3 MLOAD PUSH1 0x20 DUP1 DUP6 ADD MLOAD DUP5 MLOAD SWAP2 DUP6 ADD MLOAD PUSH5 0x1000003D0 NOT SWAP4 SWAP3 SWAP1 DUP2 DUP5 EQ DUP1 ISZERO PUSH2 0x27CD JUMPI POP DUP1 DUP4 EQ JUMPDEST ISZERO PUSH2 0x2802 JUMPI PUSH2 0x27F6 PUSH1 0x40 MLOAD DUP1 PUSH1 0x60 ADD PUSH1 0x40 MSTORE DUP1 DUP7 DUP2 MSTORE PUSH1 0x20 ADD DUP6 DUP2 MSTORE PUSH1 0x20 ADD PUSH1 0x1 DUP2 MSTORE POP PUSH2 0x2CCB JUMP JUMPDEST SWAP6 POP POP POP POP POP POP PUSH2 0xD68 JUMP JUMPDEST PUSH1 0x0 DUP6 DUP1 PUSH2 0x2812 JUMPI PUSH2 0x2812 PUSH2 0x33D4 JUMP JUMPDEST PUSH2 0x281C DUP6 DUP9 PUSH2 0x3365 JUMP JUMPDEST DUP4 ADDMOD SWAP1 POP PUSH1 0x0 DUP7 DUP1 PUSH2 0x2830 JUMPI PUSH2 0x2830 PUSH2 0x33D4 JUMP JUMPDEST PUSH2 0x283A DUP8 DUP10 PUSH2 0x3365 JUMP JUMPDEST DUP6 ADDMOD SWAP1 POP PUSH1 0x0 DUP8 DUP1 PUSH2 0x284E JUMPI PUSH2 0x284E PUSH2 0x33D4 JUMP JUMPDEST DUP3 DUP4 MULMOD SWAP1 POP PUSH1 0x0 DUP9 DUP1 PUSH2 0x2863 JUMPI PUSH2 0x2863 PUSH2 0x33D4 JUMP JUMPDEST DUP4 DUP4 MULMOD SWAP1 POP PUSH1 0x0 DUP10 DUP1 PUSH2 0x2878 JUMPI PUSH2 0x2878 PUSH2 0x33D4 JUMP JUMPDEST DUP4 DUP11 MULMOD SWAP1 POP DUP10 DUP1 PUSH2 0x288B JUMPI PUSH2 0x288B PUSH2 0x33D4 JUMP JUMPDEST DUP11 DUP1 PUSH2 0x2899 JUMPI PUSH2 0x2899 PUSH2 0x33D4 JUMP JUMPDEST DUP4 DUP13 DUP1 PUSH2 0x28A8 JUMPI PUSH2 0x28A8 PUSH2 0x33D4 JUMP JUMPDEST DUP5 PUSH1 0x2 MULMOD ADDMOD PUSH2 0x28B7 SWAP1 DUP13 PUSH2 0x3365 JUMP JUMPDEST DUP12 DUP1 PUSH2 0x28C5 JUMPI PUSH2 0x28C5 PUSH2 0x33D4 JUMP JUMPDEST DUP8 DUP9 MULMOD ADDMOD DUP12 MSTORE DUP10 DUP1 PUSH2 0x28D9 JUMPI PUSH2 0x28D9 PUSH2 0x33D4 JUMP JUMPDEST DUP11 DUP1 PUSH2 0x28E7 JUMPI PUSH2 0x28E7 PUSH2 0x33D4 JUMP JUMPDEST DUP4 DUP11 MULMOD PUSH2 0x28F4 SWAP1 DUP13 PUSH2 0x3365 JUMP JUMPDEST DUP12 DUP1 PUSH2 0x2902 JUMPI PUSH2 0x2902 PUSH2 0x33D4 JUMP JUMPDEST DUP13 DUP1 PUSH2 0x2910 JUMPI PUSH2 0x2910 PUSH2 0x33D4 JUMP JUMPDEST DUP15 MLOAD PUSH2 0x291C SWAP1 DUP16 PUSH2 0x3365 JUMP JUMPDEST DUP6 ADDMOD DUP9 MULMOD ADDMOD PUSH1 0x20 DUP13 ADD MSTORE POP POP POP PUSH1 0x40 DUP9 ADD MSTORE POP SWAP5 SWAP8 SWAP7 POP POP POP POP POP POP POP JUMP JUMPDEST PUSH1 0x40 DUP2 ADD MLOAD PUSH1 0x0 SWAP1 DUP1 PUSH2 0x2952 JUMPI PUSH1 0x0 SWAP2 POP POP PUSH2 0xD68 JUMP JUMPDEST PUSH5 0x1000003D0 NOT PUSH1 0x0 DUP2 DUP4 DUP5 MULMOD DUP6 MLOAD SWAP1 SWAP2 POP DUP3 DUP1 PUSH2 0x2972 JUMPI PUSH2 0x2972 PUSH2 0x33D4 JUMP JUMPDEST DUP8 MLOAD DUP4 SWAP1 MULMOD EQ DUP1 ISZERO PUSH2 0x29AB JUMPI POP PUSH1 0x20 DUP6 ADD MLOAD DUP3 DUP1 PUSH2 0x2992 JUMPI PUSH2 0x2992 PUSH2 0x33D4 JUMP JUMPDEST DUP4 DUP1 PUSH2 0x29A0 JUMPI PUSH2 0x29A0 PUSH2 0x33D4 JUMP JUMPDEST DUP6 DUP5 MULMOD PUSH1 0x20 DUP10 ADD MLOAD MULMOD EQ JUMPDEST SWAP7 SWAP6 POP POP POP POP POP POP JUMP JUMPDEST DUP2 MLOAD PUSH1 0x1 DUP4 ADD MLOAD PUSH1 0x0 SWAP2 DUP3 BYTE DUP1 DUP5 MSTORE PUSH1 0x20 DUP5 ADD DUP3 SWAP1 MSTORE SWAP1 PUSH2 0x260C PUSH1 0x21 DUP7 PUSH2 0x334D JUMP JUMPDEST PUSH2 0x29DF PUSH2 0x2EDC JUMP JUMPDEST PUSH1 0x40 PUSH1 0x20 PUSH2 0x29EF PUSH1 0x21 PUSH1 0x4 PUSH2 0x332E JUMP JUMPDEST PUSH2 0x29F9 SWAP2 SWAP1 PUSH2 0x334D JUMP JUMPDEST PUSH2 0x2A03 SWAP2 SWAP1 PUSH2 0x334D JUMP JUMPDEST DUP3 LT ISZERO PUSH2 0x2A0F JUMPI PUSH1 0x0 DUP1 REVERT JUMPDEST PUSH2 0x2A1D DUP4 DUP3 PUSH1 0x0 ADD MLOAD PUSH2 0x29B5 JUMP JUMPDEST SWAP3 POP PUSH2 0x2A2D DUP4 DUP3 PUSH1 0x20 ADD MLOAD PUSH2 0x29B5 JUMP JUMPDEST SWAP3 POP PUSH2 0x2A3D DUP4 DUP3 PUSH1 0x40 ADD MLOAD PUSH2 0x29B5 JUMP JUMPDEST SWAP3 POP PUSH2 0x2A4D DUP4 DUP3 PUSH1 0x60 ADD MLOAD PUSH2 0x29B5 JUMP JUMPDEST SWAP3 POP PUSH2 0x2A57 DUP4 MLOAD SWAP1 JUMP JUMPDEST PUSH1 0x80 DUP3 ADD MSTORE PUSH2 0x2A67 PUSH1 0x20 DUP5 PUSH2 0x334D JUMP JUMPDEST PUSH1 0x40 DUP1 MLOAD DUP2 DUP2 MSTORE PUSH1 0x60 DUP2 ADD DUP3 MSTORE SWAP2 SWAP5 POP PUSH1 0x20 DUP3 ADD DUP2 DUP1 CALLDATASIZE DUP4 CALLDATACOPY POP POP POP PUSH1 0xA0 DUP3 ADD DUP2 SWAP1 MSTORE PUSH2 0x2A97 SWAP1 DUP5 SWAP1 PUSH1 0x40 PUSH2 0x2E15 JUMP JUMPDEST SWAP3 POP PUSH1 0x40 PUSH1 0x20 PUSH2 0x2AA9 PUSH1 0x21 PUSH1 0x4 PUSH2 0x332E JUMP JUMPDEST PUSH2 0x2AB3 SWAP2 SWAP1 PUSH2 0x334D JUMP JUMPDEST PUSH2 0x2ABD SWAP2 SWAP1 PUSH2 0x334D JUMP JUMPDEST DUP3 GT ISZERO PUSH2 0xD68 JUMPI PUSH1 0x40 PUSH1 0x20 PUSH2 0x2AD4 PUSH1 0x21 PUSH1 0x4 PUSH2 0x332E JUMP JUMPDEST PUSH2 0x2ADE SWAP2 SWAP1 PUSH2 0x334D JUMP JUMPDEST PUSH2 0x2AE8 SWAP2 SWAP1 PUSH2 0x334D JUMP JUMPDEST PUSH2 0x2AF2 SWAP1 DUP4 PUSH2 0x3365 JUMP JUMPDEST PUSH8 0xFFFFFFFFFFFFFFFF DUP2 GT ISZERO PUSH2 0x2B0A JUMPI PUSH2 0x2B0A PUSH2 0x2F56 JUMP JUMPDEST PUSH1 0x40 MLOAD SWAP1 DUP1 DUP3 MSTORE DUP1 PUSH1 0x1F ADD PUSH1 0x1F NOT AND PUSH1 0x20 ADD DUP3 ADD PUSH1 0x40 MSTORE DUP1 ISZERO PUSH2 0x2B34 JUMPI PUSH1 0x20 DUP3 ADD DUP2 DUP1 CALLDATASIZE DUP4 CALLDATACOPY ADD SWAP1 POP JUMPDEST POP PUSH1 0xC0 DUP3 ADD DUP2 SWAP1 MSTORE DUP1 MLOAD PUSH2 0x2B49 SWAP2 DUP6 SWAP2 PUSH2 0x2E15 JUMP JUMPDEST POP SWAP3 SWAP2 POP POP JUMP JUMPDEST PUSH1 0x0 PUSH2 0x1989 DUP3 DUP5 PUSH2 0x332E JUMP JUMPDEST PUSH1 0x0 PUSH2 0x1989 DUP3 DUP5 PUSH2 0x334D JUMP JUMPDEST PUSH1 0x0 PUSH2 0x1989 DUP3 DUP5 PUSH2 0x33EA JUMP JUMPDEST PUSH1 0x0 DUP2 DUP4 LT PUSH2 0x2B83 JUMPI DUP2 PUSH2 0x1989 JUMP JUMPDEST POP SWAP1 SWAP2 SWAP1 POP JUMP JUMPDEST PUSH1 0x40 MLOAD DUP5 DUP2 MSTORE DUP4 ISZERO PUSH2 0x2B9D JUMPI DUP3 PUSH1 0x4 DUP3 ADD MSTORE JUMPDEST PUSH1 0x1 DUP5 GT ISZERO PUSH2 0x2BAD JUMPI DUP2 PUSH1 0x24 DUP3 ADD MSTORE JUMPDEST PUSH1 0x0 DUP1 DUP6 PUSH1 0x20 MUL PUSH1 0x4 ADD DUP4 DUP10 GAS DELEGATECALL DUP1 ISZERO PUSH2 0x2BCB JUMPI RETURNDATASIZE PUSH1 0x0 DUP4 RETURNDATACOPY PUSH2 0x2BD0 JUMP JUMPDEST PUSH1 0x0 DUP3 REVERT JUMPDEST POP SWAP6 SWAP5 POP POP POP POP POP JUMP JUMPDEST PUSH1 0x0 DUP1 PUSH1 0x0 DUP1 PUSH15 0x3430B9B42FBA37AFB1BAB93B32B137 PUSH1 0x89 SHL PUSH1 0x0 DUP1 SHL DUP7 PUSH1 0x40 MLOAD PUSH1 0x20 ADD PUSH2 0x2C0A SWAP4 SWAP3 SWAP2 SWAP1 PUSH2 0x3550 JUMP JUMPDEST PUSH1 0x40 MLOAD PUSH1 0x20 DUP2 DUP4 SUB SUB DUP2 MSTORE SWAP1 PUSH1 0x40 MSTORE SWAP1 POP PUSH1 0x0 DUP2 PUSH1 0x40 MLOAD PUSH1 0x20 ADD PUSH2 0x2C2F SWAP3 SWAP2 SWAP1 PUSH2 0x3568 JUMP JUMPDEST PUSH1 0x40 MLOAD PUSH1 0x20 DUP2 DUP4 SUB SUB DUP2 MSTORE SWAP1 PUSH1 0x40 MSTORE DUP1 MLOAD SWAP1 PUSH1 0x20 ADD KECCAK256 PUSH1 0x1 DUP3 PUSH1 0x40 MLOAD PUSH1 0x20 ADD PUSH2 0x2C59 SWAP3 SWAP2 SWAP1 PUSH2 0x3568 JUMP JUMPDEST PUSH1 0x40 DUP1 MLOAD PUSH1 0x1F NOT DUP2 DUP5 SUB ADD DUP2 MSTORE SWAP2 SWAP1 MSTORE DUP1 MLOAD PUSH1 0x20 SWAP1 SWAP2 ADD KECCAK256 SWAP1 SWAP4 POP SWAP2 POP PUSH17 0x14551231950B75FC4402DA1732FC9BEC0 PUSH17 0x14551231950B75FC4402DA1732FC9BEBF NOT PUSH1 0x0 DUP2 DUP4 DUP8 MULMOD SWAP1 POP DUP2 DUP1 PUSH2 0x2CB1 JUMPI PUSH2 0x2CB1 PUSH2 0x33D4 JUMP JUMPDEST DUP6 DUP3 ADDMOD PUSH2 0x2CBF SWAP1 PUSH1 0x1 PUSH2 0x334D JUMP JUMPDEST SWAP9 SWAP8 POP POP POP POP POP POP POP POP JUMP JUMPDEST PUSH2 0x2CD3 PUSH2 0x2EBE JUMP JUMPDEST PUSH1 0x40 DUP3 ADD MLOAD DUP1 PUSH2 0x2CE3 JUMPI POP SWAP2 SWAP1 POP JUMP JUMPDEST DUP3 MLOAD PUSH5 0x1000003D0 NOT SWAP1 PUSH1 0x0 DUP3 PUSH1 0x20 DUP8 ADD MLOAD PUSH1 0x2 MULMOD SWAP1 POP PUSH1 0x0 DUP4 DUP1 PUSH2 0x2D0A JUMPI PUSH2 0x2D0A PUSH2 0x33D4 JUMP JUMPDEST DUP3 DUP4 MULMOD SWAP1 POP PUSH1 0x0 DUP5 DUP1 PUSH2 0x2D1F JUMPI PUSH2 0x2D1F PUSH2 0x33D4 JUMP JUMPDEST DUP5 DUP4 MULMOD SWAP1 POP PUSH1 0x0 DUP6 DUP1 PUSH2 0x2D34 JUMPI PUSH2 0x2D34 PUSH2 0x33D4 JUMP JUMPDEST DUP7 DUP1 PUSH2 0x2D42 JUMPI PUSH2 0x2D42 PUSH2 0x33D4 JUMP JUMPDEST DUP7 DUP8 MULMOD PUSH1 0x3 MULMOD SWAP1 POP PUSH1 0x0 DUP7 DUP1 PUSH2 0x2D5A JUMPI PUSH2 0x2D5A PUSH2 0x33D4 JUMP JUMPDEST DUP8 DUP1 PUSH2 0x2D68 JUMPI PUSH2 0x2D68 PUSH2 0x33D4 JUMP JUMPDEST DUP5 PUSH5 0x1000003D2 NOT MULMOD DUP9 DUP1 PUSH2 0x2D7F JUMPI PUSH2 0x2D7F PUSH2 0x33D4 JUMP JUMPDEST DUP5 DUP6 MULMOD ADDMOD DUP1 DUP11 MSTORE SWAP1 POP DUP7 DUP1 PUSH2 0x2D96 JUMPI PUSH2 0x2D96 PUSH2 0x33D4 JUMP JUMPDEST DUP8 DUP1 PUSH2 0x2DA4 JUMPI PUSH2 0x2DA4 PUSH2 0x33D4 JUMP JUMPDEST DUP9 DUP1 PUSH2 0x2DB2 JUMPI PUSH2 0x2DB2 PUSH2 0x33D4 JUMP JUMPDEST DUP7 DUP8 MULMOD PUSH4 0x800001E9 PUSH1 0x1 PUSH1 0xFF SHL SUB MULMOD DUP9 DUP1 PUSH2 0x2DCF JUMPI PUSH2 0x2DCF PUSH2 0x33D4 JUMP JUMPDEST DUP10 DUP1 PUSH2 0x2DDD JUMPI PUSH2 0x2DDD PUSH2 0x33D4 JUMP JUMPDEST PUSH2 0x2DE7 DUP6 DUP13 PUSH2 0x3365 JUMP JUMPDEST DUP8 ADDMOD DUP6 MULMOD ADDMOD PUSH1 0x20 DUP11 ADD MSTORE DUP7 DUP1 PUSH2 0x2DFF JUMPI PUSH2 0x2DFF PUSH2 0x33D4 JUMP JUMPDEST DUP9 DUP7 MULMOD PUSH1 0x40 DUP11 ADD MSTORE POP SWAP7 SWAP9 SWAP8 POP POP POP POP POP POP POP POP JUMP JUMPDEST PUSH1 0x0 PUSH1 0x20 PUSH1 0x1F DUP4 ADD DIV DUP5 PUSH1 0x20 DUP6 ADD PUSH1 0x0 JUMPDEST DUP4 DUP2 LT ISZERO PUSH2 0x2E42 JUMPI PUSH1 0x20 DUP2 MUL DUP4 DUP2 ADD MLOAD SWAP1 DUP4 ADD MSTORE PUSH1 0x1 ADD PUSH2 0x2E26 JUMP JUMPDEST POP POP POP POP PUSH1 0x0 DUP4 MLOAD PUSH1 0x20 ADD DUP5 ADD MSTORE DUP2 DUP5 PUSH2 0x1A05 SWAP2 SWAP1 PUSH2 0x334D JUMP JUMPDEST PUSH1 0x40 DUP1 MLOAD PUSH1 0xE0 DUP2 ADD DUP3 MSTORE PUSH1 0x0 PUSH1 0xA0 DUP3 ADD DUP2 DUP2 MSTORE PUSH1 0xC0 DUP4 ADD DUP3 SWAP1 MSTORE DUP3 MSTORE DUP3 MLOAD DUP1 DUP5 ADD DUP5 MSTORE DUP2 DUP2 MSTORE PUSH1 0x20 DUP1 DUP3 ADD DUP4 SWAP1 MSTORE DUP1 DUP5 ADD SWAP2 SWAP1 SWAP2 MSTORE DUP3 DUP5 ADD DUP3 SWAP1 MSTORE DUP4 MLOAD DUP1 DUP6 ADD SWAP1 SWAP5 MSTORE DUP2 DUP5 MSTORE DUP4 ADD MSTORE PUSH1 0x60 DUP2 ADD SWAP2 SWAP1 SWAP2 MSTORE PUSH1 0x80 DUP2 ADD PUSH2 0x2EB9 PUSH2 0x2EDC JUMP JUMPDEST SWAP1 MSTORE SWAP1 JUMP JUMPDEST PUSH1 0x40 MLOAD DUP1 PUSH1 0x60 ADD PUSH1 0x40 MSTORE DUP1 PUSH1 0x3 SWAP1 PUSH1 0x20 DUP3 MUL DUP1 CALLDATASIZE DUP4 CALLDATACOPY POP SWAP2 SWAP3 SWAP2 POP POP JUMP JUMPDEST PUSH1 0x40 DUP1 MLOAD PUSH2 0x120 DUP2 ADD DUP3 MSTORE PUSH1 0x0 PUSH1 0xE0 DUP3 ADD DUP2 DUP2 MSTORE PUSH2 0x100 DUP4 ADD DUP3 SWAP1 MSTORE DUP3 MSTORE DUP3 MLOAD DUP1 DUP5 ADD DUP5 MSTORE DUP2 DUP2 MSTORE PUSH1 0x20 DUP1 DUP3 ADD DUP4 SWAP1 MSTORE DUP1 DUP5 ADD SWAP2 SWAP1 SWAP2 MSTORE DUP4 MLOAD DUP1 DUP6 ADD DUP6 MSTORE DUP3 DUP2 MSTORE DUP1 DUP3 ADD DUP4 SWAP1 MSTORE DUP4 DUP6 ADD MSTORE DUP4 MLOAD DUP1 DUP6 ADD SWAP1 SWAP5 MSTORE DUP2 DUP5 MSTORE DUP4 ADD MSTORE SWAP1 PUSH1 0x60 DUP3 ADD SWAP1 DUP2 MSTORE PUSH1 0x20 ADD PUSH1 0x0 DUP2 MSTORE PUSH1 0x20 ADD PUSH1 0x60 DUP2 MSTORE PUSH1 0x20 ADD PUSH1 0x60 DUP2 MSTORE POP SWAP1 JUMP JUMPDEST PUSH4 0x4E487B71 PUSH1 0xE0 SHL PUSH1 0x0 MSTORE PUSH1 0x41 PUSH1 0x4 MSTORE PUSH1 0x24 PUSH1 0x0 REVERT JUMPDEST PUSH1 0x0 DUP3 PUSH1 0x1F DUP4 ADD SLT PUSH2 0x2F7D JUMPI PUSH1 0x0 DUP1 REVERT JUMPDEST DUP2 CALLDATALOAD PUSH8 0xFFFFFFFFFFFFFFFF DUP1 DUP3 GT ISZERO PUSH2 0x2F98 JUMPI PUSH2 0x2F98 PUSH2 0x2F56 JUMP JUMPDEST PUSH1 0x40 MLOAD PUSH1 0x1F DUP4 ADD PUSH1 0x1F NOT SWAP1 DUP2 AND PUSH1 0x3F ADD AND DUP2 ADD SWAP1 DUP3 DUP3 GT DUP2 DUP4 LT OR ISZERO PUSH2 0x2FC0 JUMPI PUSH2 0x2FC0 PUSH2 0x2F56 JUMP JUMPDEST DUP2 PUSH1 0x40 MSTORE DUP4 DUP2 MSTORE DUP7 PUSH1 0x20 DUP6 DUP9 ADD ADD GT ISZERO PUSH2 0x2FD9 JUMPI PUSH1 0x0 DUP1 REVERT JUMPDEST DUP4 PUSH1 0x20 DUP8 ADD PUSH1 0x20 DUP4 ADD CALLDATACOPY PUSH1 0x0 PUSH1 0x20 DUP6 DUP4 ADD ADD MSTORE DUP1 SWAP5 POP POP POP POP POP SWAP3 SWAP2 POP POP JUMP JUMPDEST PUSH1 0x0 DUP1 PUSH1 0x0 DUP1 PUSH1 0x0 DUP1 PUSH1 0x0 DUP1 PUSH2 0x100 DUP10 DUP12 SUB SLT ISZERO PUSH2 0x3016 JUMPI PUSH1 0x0 DUP1 REVERT JUMPDEST DUP9 CALLDATALOAD PUSH8 0xFFFFFFFFFFFFFFFF DUP1 DUP3 GT ISZERO PUSH2 0x302E JUMPI PUSH1 0x0 DUP1 REVERT JUMPDEST PUSH2 0x303A DUP13 DUP4 DUP14 ADD PUSH2 0x2F6C JUMP JUMPDEST SWAP10 POP PUSH1 0x20 DUP12 ADD CALLDATALOAD SWAP2 POP DUP1 DUP3 GT ISZERO PUSH2 0x3050 JUMPI PUSH1 0x0 DUP1 REVERT JUMPDEST PUSH2 0x305C DUP13 DUP4 DUP14 ADD PUSH2 0x2F6C JUMP JUMPDEST SWAP9 POP PUSH1 0x40 DUP12 ADD CALLDATALOAD SWAP2 POP DUP1 DUP3 GT ISZERO PUSH2 0x3072 JUMPI PUSH1 0x0 DUP1 REVERT JUMPDEST PUSH2 0x307E DUP13 DUP4 DUP14 ADD PUSH2 0x2F6C JUMP JUMPDEST SWAP8 POP PUSH1 0x60 DUP12 ADD CALLDATALOAD SWAP2 POP DUP1 DUP3 GT ISZERO PUSH2 0x3094 JUMPI PUSH1 0x0 DUP1 REVERT JUMPDEST PUSH2 0x30A0 DUP13 DUP4 DUP14 ADD PUSH2 0x2F6C JUMP JUMPDEST SWAP7 POP PUSH1 0x80 DUP12 ADD CALLDATALOAD SWAP2 POP DUP1 DUP3 GT ISZERO PUSH2 0x30B6 JUMPI PUSH1 0x0 DUP1 REVERT JUMPDEST PUSH2 0x30C2 DUP13 DUP4 DUP14 ADD PUSH2 0x2F6C JUMP JUMPDEST SWAP6 POP PUSH1 0xA0 DUP12 ADD CALLDATALOAD SWAP2 POP DUP1 DUP3 GT ISZERO PUSH2 0x30D8 JUMPI PUSH1 0x0 DUP1 REVERT JUMPDEST PUSH2 0x30E4 DUP13 DUP4 DUP14 ADD PUSH2 0x2F6C JUMP JUMPDEST SWAP5 POP PUSH1 0xC0 DUP12 ADD CALLDATALOAD SWAP2 POP DUP1 DUP3 GT ISZERO PUSH2 0x30FA JUMPI PUSH1 0x0 DUP1 REVERT JUMPDEST PUSH2 0x3106 DUP13 DUP4 DUP14 ADD PUSH2 0x2F6C JUMP JUMPDEST SWAP4 POP PUSH1 0xE0 DUP12 ADD CALLDATALOAD SWAP2 POP DUP1 DUP3 GT ISZERO PUSH2 0x311C JUMPI PUSH1 0x0 DUP1 REVERT JUMPDEST POP PUSH2 0x3129 DUP12 DUP3 DUP13 ADD PUSH2 0x2F6C JUMP JUMPDEST SWAP2 POP POP SWAP3 SWAP6 SWAP9 POP SWAP3 SWAP6 SWAP9 SWAP1 SWAP4 SWAP7 POP JUMP JUMPDEST PUSH4 0x4E487B71 PUSH1 0xE0 SHL PUSH1 0x0 MSTORE PUSH1 0x21 PUSH1 0x4 MSTORE PUSH1 0x24 PUSH1 0x0 REVERT JUMPDEST PUSH1 0x20 DUP2 ADD PUSH1 0x3 DUP4 LT PUSH2 0x3171 JUMPI PUSH4 0x4E487B71 PUSH1 0xE0 SHL PUSH1 0x0 MSTORE PUSH1 0x21 PUSH1 0x4 MSTORE PUSH1 0x24 PUSH1 0x0 REVERT JUMPDEST SWAP2 SWAP1 MSTORE SWAP1 JUMP JUMPDEST PUSH1 0x1 PUSH1 0x1 PUSH1 0xA0 SHL SUB DUP2 AND DUP2 EQ PUSH2 0xC83 JUMPI PUSH1 0x0 DUP1 REVERT JUMPDEST PUSH1 0x0 PUSH1 0x20 DUP3 DUP5 SUB SLT ISZERO PUSH2 0x319E JUMPI PUSH1 0x0 DUP1 REVERT JUMPDEST DUP2 CALLDATALOAD PUSH2 0x1989 DUP2 PUSH2 0x3177 JUMP JUMPDEST PUSH1 0x0 PUSH1 0x20 DUP3 DUP5 SUB SLT ISZERO PUSH2 0x31BB JUMPI PUSH1 0x0 DUP1 REVERT JUMPDEST POP CALLDATALOAD SWAP2 SWAP1 POP JUMP JUMPDEST PUSH1 0x0 DUP2 MLOAD PUSH1 0x0 JUMPDEST DUP2 DUP2 LT ISZERO PUSH2 0x31E3 JUMPI PUSH1 0x20 DUP2 DUP6 ADD DUP2 ADD MLOAD DUP7 DUP4 ADD MSTORE ADD PUSH2 0x31C9 JUMP JUMPDEST DUP2 DUP2 GT ISZERO PUSH2 0x31F2 JUMPI PUSH1 0x0 DUP3 DUP7 ADD MSTORE JUMPDEST POP SWAP3 SWAP1 SWAP3 ADD SWAP3 SWAP2 POP POP JUMP JUMPDEST PUSH1 0x0 PUSH2 0x1A05 PUSH2 0x320C DUP4 DUP7 PUSH2 0x31C2 JUMP JUMPDEST DUP5 PUSH2 0x31C2 JUMP JUMPDEST PUSH4 0x4E487B71 PUSH1 0xE0 SHL PUSH1 0x0 MSTORE PUSH1 0x32 PUSH1 0x4 MSTORE PUSH1 0x24 PUSH1 0x0 REVERT JUMPDEST PUSH1 0x0 PUSH2 0x3234 DUP3 DUP6 PUSH2 0x31C2 JUMP JUMPDEST PUSH1 0x1 PUSH1 0x1 PUSH1 0xF8 SHL SUB NOT SWAP4 SWAP1 SWAP4 AND DUP4 MSTORE POP POP PUSH1 0x1 ADD SWAP2 SWAP1 POP JUMP JUMPDEST PUSH1 0x0 PUSH2 0x326B PUSH2 0x3265 PUSH2 0x325F DUP5 DUP11 PUSH2 0x31C2 JUMP JUMPDEST DUP9 PUSH2 0x31C2 JUMP JUMPDEST DUP7 PUSH2 0x31C2 JUMP JUMPDEST PUSH1 0x60 SWAP5 SWAP1 SWAP5 SHL PUSH12 0xFFFFFFFFFFFFFFFFFFFFFFFF NOT AND DUP5 MSTORE POP POP PUSH1 0x14 DUP3 ADD MSTORE PUSH1 0x34 ADD SWAP4 SWAP3 POP POP POP JUMP JUMPDEST PUSH1 0x0 PUSH1 0x20 DUP3 DUP5 SUB SLT ISZERO PUSH2 0x32A5 JUMPI PUSH1 0x0 DUP1 REVERT JUMPDEST DUP2 MLOAD PUSH2 0x1989 DUP2 PUSH2 0x3177 JUMP JUMPDEST PUSH1 0x0 PUSH1 0x20 DUP3 DUP5 SUB SLT ISZERO PUSH2 0x32C2 JUMPI PUSH1 0x0 DUP1 REVERT JUMPDEST POP MLOAD SWAP2 SWAP1 POP JUMP JUMPDEST PUSH1 0x0 PUSH2 0x1989 DUP3 DUP5 PUSH2 0x31C2 JUMP JUMPDEST PUSH1 0x20 DUP1 DUP3 MSTORE PUSH1 0x23 SWAP1 DUP3 ADD MSTORE PUSH32 0x507265636F6D707574656420682A56312076616C756520697320696E636F7272 PUSH1 0x40 DUP3 ADD MSTORE PUSH3 0x1958DD PUSH1 0xEA SHL PUSH1 0x60 DUP3 ADD MSTORE PUSH1 0x80 ADD SWAP1 JUMP JUMPDEST PUSH4 0x4E487B71 PUSH1 0xE0 SHL PUSH1 0x0 MSTORE PUSH1 0x11 PUSH1 0x4 MSTORE PUSH1 0x24 PUSH1 0x0 REVERT JUMPDEST PUSH1 0x0 DUP2 PUSH1 0x0 NOT DIV DUP4 GT DUP3 ISZERO ISZERO AND ISZERO PUSH2 0x3348 JUMPI PUSH2 0x3348 PUSH2 0x3318 JUMP JUMPDEST POP MUL SWAP1 JUMP JUMPDEST PUSH1 0x0 DUP3 NOT DUP3 GT ISZERO PUSH2 0x3360 JUMPI PUSH2 0x3360 PUSH2 0x3318 JUMP JUMPDEST POP ADD SWAP1 JUMP JUMPDEST PUSH1 0x0 DUP3 DUP3 LT ISZERO PUSH2 0x3377 JUMPI PUSH2 0x3377 PUSH2 0x3318 JUMP JUMPDEST POP SUB SWAP1 JUMP JUMPDEST PUSH1 0x1 PUSH1 0x1 PUSH1 0xF8 SHL SUB NOT DUP6 DUP2 AND DUP3 MSTORE DUP5 AND PUSH1 0x1 DUP3 ADD MSTORE PUSH1 0x60 DUP4 SWAP1 SHL PUSH12 0xFFFFFFFFFFFFFFFFFFFFFFFF NOT AND PUSH1 0x2 DUP3 ADD MSTORE PUSH1 0x0 PUSH2 0x29AB PUSH1 0x16 DUP4 ADD DUP5 PUSH2 0x31C2 JUMP JUMPDEST PUSH1 0x0 PUSH1 0x0 NOT DUP3 EQ ISZERO PUSH2 0x33CD JUMPI PUSH2 0x33CD PUSH2 0x3318 JUMP JUMPDEST POP PUSH1 0x1 ADD SWAP1 JUMP JUMPDEST PUSH4 0x4E487B71 PUSH1 0xE0 SHL PUSH1 0x0 MSTORE PUSH1 0x12 PUSH1 0x4 MSTORE PUSH1 0x24 PUSH1 0x0 REVERT JUMPDEST PUSH1 0x0 DUP3 PUSH2 0x33F9 JUMPI PUSH2 0x33F9 PUSH2 0x33D4 JUMP JUMPDEST POP DIV SWAP1 JUMP JUMPDEST PUSH1 0x0 DUP3 PUSH2 0x340D JUMPI PUSH2 0x340D PUSH2 0x33D4 JUMP JUMPDEST POP MOD SWAP1 JUMP JUMPDEST PUSH1 0x0 DUP2 PUSH2 0x3421 JUMPI PUSH2 0x3421 PUSH2 0x3318 JUMP JUMPDEST POP PUSH1 0x0 NOT ADD SWAP1 JUMP JUMPDEST PUSH1 0x1 PUSH1 0x1 PUSH1 0xF8 SHL SUB NOT DUP6 AND DUP2 MSTORE PUSH7 0xFFFFFFFFFFFFFF NOT DUP5 AND PUSH1 0x1 DUP3 ADD MSTORE PUSH1 0x0 PUSH2 0x29AB PUSH2 0x320C PUSH1 0x1A DUP5 ADD DUP7 PUSH2 0x31C2 JUMP JUMPDEST PUSH1 0x0 PUSH1 0xFF DUP3 AND PUSH1 0xFF DUP5 AND DUP1 PUSH1 0xFF SUB DUP3 GT ISZERO PUSH2 0x3475 JUMPI PUSH2 0x3475 PUSH2 0x3318 JUMP JUMPDEST ADD SWAP4 SWAP3 POP POP POP JUMP JUMPDEST PUSH1 0x0 PUSH2 0x3489 DUP3 DUP11 PUSH2 0x31C2 JUMP JUMPDEST PUSH1 0x1 PUSH1 0x1 PUSH1 0xF8 SHL SUB NOT PUSH1 0xF8 SWAP10 DUP11 SHL DUP2 AND DUP3 MSTORE PUSH1 0x1 DUP3 ADD SWAP9 SWAP1 SWAP9 MSTORE SWAP6 DUP9 SHL DUP8 AND PUSH1 0x21 DUP8 ADD MSTORE POP POP PUSH1 0x22 DUP5 ADD SWAP3 SWAP1 SWAP3 MSTORE SWAP1 SWAP4 SHL SWAP1 SWAP2 AND PUSH1 0x42 DUP3 ADD MSTORE PUSH1 0x43 DUP2 ADD SWAP2 SWAP1 SWAP2 MSTORE PUSH1 0x63 ADD SWAP2 SWAP1 POP JUMP JUMPDEST PUSH1 0x0 PUSH2 0x34DE DUP3 DUP12 PUSH2 0x31C2 JUMP JUMPDEST PUSH1 0xFF PUSH1 0xF8 SHL DUP1 DUP12 AND DUP3 MSTORE DUP10 PUSH1 0x1 DUP4 ADD MSTORE DUP1 DUP10 PUSH1 0xF8 SHL AND PUSH1 0x21 DUP4 ADD MSTORE DUP8 PUSH1 0x22 DUP4 ADD MSTORE DUP1 DUP8 PUSH1 0xF8 SHL AND PUSH1 0x42 DUP4 ADD MSTORE POP DUP5 PUSH1 0x43 DUP3 ADD MSTORE PUSH2 0x351E PUSH1 0x63 DUP3 ADD DUP6 PUSH2 0x31C2 JUMP JUMPDEST SWAP12 SWAP11 POP POP POP POP POP POP POP POP POP POP POP JUMP JUMPDEST PUSH1 0x0 PUSH1 0xFF DUP3 AND PUSH1 0xFF DUP5 AND DUP1 DUP3 LT ISZERO PUSH2 0x3547 JUMPI PUSH2 0x3547 PUSH2 0x3318 JUMP JUMPDEST SWAP1 SUB SWAP4 SWAP3 POP POP POP JUMP JUMPDEST DUP4 DUP2 MSTORE DUP3 PUSH1 0x20 DUP3 ADD MSTORE PUSH1 0x0 PUSH2 0x260C PUSH1 0x40 DUP4 ADD DUP5 PUSH2 0x31C2 JUMP JUMPDEST PUSH1 0xF8 DUP4 SWAP1 SHL PUSH1 0x1 PUSH1 0x1 PUSH1 0xF8 SHL SUB NOT AND DUP2 MSTORE PUSH1 0x0 PUSH2 0x1A05 PUSH1 0x1 DUP4 ADD DUP5 PUSH2 0x31C2 JUMP INVALID PUSH16 0x65736E277420636F72726573706F6E64 KECCAK256 PUSH21 0x6F20636F6D7072657373656420A264697066735822 SLT KECCAK256 EXTCODEHASH 0xFC DUP11 0xE7 PUSH27 0xC8E0470F9ED679D85A8E1EF169356D7CFAABE8F11ED663F81CDD06 PUSH5 0x736F6C6343 STOP ADDMOD EXP STOP CALLER ",
  "sha1": "4e26f769ebb79e8f5cd214626b305c19d8f8539e",
  "source": "// SPDX-License-Identifier: AGPL-3.0-or-later\n\npragma solidity ^0.8.0;\n\nimport \"./lib/ReEncryptionValidator.sol\";\nimport \"./lib/SignatureVerifier.sol\";\nimport \"./IStakingEscrow.sol\";\nimport \"./proxy/Upgradeable.sol\";\nimport \"../zeppelin/math/SafeMath.sol\";\nimport \"../zeppelin/math/Math.sol\";\n\n\n/**\n* @title Adjudicator\n* @notice Supervises stakers' behavior and punishes when something's wrong.\n* @dev |v2.1.2|\n*/\ncontract Adjudicator is Upgradeable {\n\n    using SafeMath for uint256;\n    using UmbralDeserializer for bytes;\n\n    event CFragEvaluated(\n        bytes32 indexed evaluationHash,\n        address indexed investigator,\n        bool correctness\n    );\n    event IncorrectCFragVerdict(\n        bytes32 indexed evaluationHash,\n        address indexed worker,\n        address indexed staker\n    );\n\n    // used only for upgrading\n    bytes32 constant RESERVED_CAPSULE_AND_CFRAG_BYTES = bytes32(0);\n    address constant RESERVED_ADDRESS = address(0);\n\n    IStakingEscrow public immutable escrow;\n    SignatureVerifier.HashAlgorithm public immutable hashAlgorithm;\n    uint256 public immutable basePenalty;\n    uint256 public immutable penaltyHistoryCoefficient;\n    uint256 public immutable percentagePenaltyCoefficient;\n    uint256 public immutable rewardCoefficient;\n\n    mapping (address => uint256) public penaltyHistory;\n    mapping (bytes32 => bool) public evaluatedCFrags;\n\n    /**\n    * @param _escrow Escrow contract\n    * @param _hashAlgorithm Hashing algorithm\n    * @param _basePenalty Base for the penalty calculation\n    * @param _penaltyHistoryCoefficient Coefficient for calculating the penalty depending on the history\n    * @param _percentagePenaltyCoefficient Coefficient for calculating the percentage penalty\n    * @param _rewardCoefficient Coefficient for calculating the reward\n    */\n    constructor(\n        IStakingEscrow _escrow,\n        SignatureVerifier.HashAlgorithm _hashAlgorithm,\n        uint256 _basePenalty,\n        uint256 _penaltyHistoryCoefficient,\n        uint256 _percentagePenaltyCoefficient,\n        uint256 _rewardCoefficient\n    ) {\n        // Sanity checks.\n        require(_escrow.secondsPerPeriod() > 0 &&  // This contract has an escrow, and it's not the null address.\n            // The reward and penalty coefficients are set.\n            _percentagePenaltyCoefficient != 0 &&\n            _rewardCoefficient != 0);\n        escrow = _escrow;\n        hashAlgorithm = _hashAlgorithm;\n        basePenalty = _basePenalty;\n        percentagePenaltyCoefficient = _percentagePenaltyCoefficient;\n        penaltyHistoryCoefficient = _penaltyHistoryCoefficient;\n        rewardCoefficient = _rewardCoefficient;\n    }\n\n    /**\n    * @notice Submit proof that a worker created wrong CFrag\n    * @param _capsuleBytes Serialized capsule\n    * @param _cFragBytes Serialized CFrag\n    * @param _cFragSignature Signature of CFrag by worker\n    * @param _taskSignature Signature of task specification by Bob\n    * @param _requesterPublicKey Bob's signing public key, also known as \"stamp\"\n    * @param _workerPublicKey Worker's signing public key, also known as \"stamp\"\n    * @param _workerIdentityEvidence Signature of worker's public key by worker's eth-key\n    * @param _preComputedData Additional pre-computed data for CFrag correctness verification\n    */\n    function evaluateCFrag(\n        bytes memory _capsuleBytes,\n        bytes memory _cFragBytes,\n        bytes memory _cFragSignature,\n        bytes memory _taskSignature,\n        bytes memory _requesterPublicKey,\n        bytes memory _workerPublicKey,\n        bytes memory _workerIdentityEvidence,\n        bytes memory _preComputedData\n    )\n        public\n    {\n        // 1. Check that CFrag is not evaluated yet\n        bytes32 evaluationHash = SignatureVerifier.hash(\n            abi.encodePacked(_capsuleBytes, _cFragBytes), hashAlgorithm);\n        require(!evaluatedCFrags[evaluationHash], \"This CFrag has already been evaluated.\");\n        evaluatedCFrags[evaluationHash] = true;\n\n        // 2. Verify correctness of re-encryption\n        bool cFragIsCorrect = ReEncryptionValidator.validateCFrag(_capsuleBytes, _cFragBytes, _preComputedData);\n        emit CFragEvaluated(evaluationHash, msg.sender, cFragIsCorrect);\n\n        // 3. Verify associated public keys and signatures\n        require(ReEncryptionValidator.checkSerializedCoordinates(_workerPublicKey),\n                \"Staker's public key is invalid\");\n        require(ReEncryptionValidator.checkSerializedCoordinates(_requesterPublicKey),\n                \"Requester's public key is invalid\");\n\n        UmbralDeserializer.PreComputedData memory precomp = _preComputedData.toPreComputedData();\n\n        // Verify worker's signature of CFrag\n        require(SignatureVerifier.verify(\n                _cFragBytes,\n                abi.encodePacked(_cFragSignature, precomp.lostBytes[1]),\n                _workerPublicKey,\n                hashAlgorithm),\n                \"CFrag signature is invalid\"\n        );\n\n        // Verify worker's signature of taskSignature and that it corresponds to cfrag.proof.metadata\n        UmbralDeserializer.CapsuleFrag memory cFrag = _cFragBytes.toCapsuleFrag();\n        require(SignatureVerifier.verify(\n                _taskSignature,\n                abi.encodePacked(cFrag.proof.metadata, precomp.lostBytes[2]),\n                _workerPublicKey,\n                hashAlgorithm),\n                \"Task signature is invalid\"\n        );\n\n        // Verify that _taskSignature is bob's signature of the task specification.\n        // A task specification is: capsule + ursula pubkey + alice address + blockhash\n        bytes32 stampXCoord;\n        assembly {\n            stampXCoord := mload(add(_workerPublicKey, 32))\n        }\n        bytes memory stamp = abi.encodePacked(precomp.lostBytes[4], stampXCoord);\n\n        require(SignatureVerifier.verify(\n                abi.encodePacked(_capsuleBytes,\n                                 stamp,\n                                 _workerIdentityEvidence,\n                                 precomp.alicesKeyAsAddress,\n                                 bytes32(0)),\n                abi.encodePacked(_taskSignature, precomp.lostBytes[3]),\n                _requesterPublicKey,\n                hashAlgorithm),\n                \"Specification signature is invalid\"\n        );\n\n        // 4. Extract worker address from stamp signature.\n        address worker = SignatureVerifier.recover(\n            SignatureVerifier.hashEIP191(stamp, bytes1(0x45)), // Currently, we use version E (0x45) of EIP191 signatures\n            _workerIdentityEvidence);\n        address staker = escrow.stakerFromWorker(worker);\n        require(staker != address(0), \"Worker must be related to a staker\");\n\n        // 5. Check that staker can be slashed\n        uint256 stakerValue = escrow.getAllTokens(staker);\n        require(stakerValue > 0, \"Staker has no tokens\");\n\n        // 6. If CFrag was incorrect, slash staker\n        if (!cFragIsCorrect) {\n            (uint256 penalty, uint256 reward) = calculatePenaltyAndReward(staker, stakerValue);\n            escrow.slashStaker(staker, penalty, msg.sender, reward);\n            emit IncorrectCFragVerdict(evaluationHash, worker, staker);\n        }\n    }\n\n    /**\n    * @notice Calculate penalty to the staker and reward to the investigator\n    * @param _staker Staker's address\n    * @param _stakerValue Amount of tokens that belong to the staker\n    */\n    function calculatePenaltyAndReward(address _staker, uint256 _stakerValue)\n        internal returns (uint256 penalty, uint256 reward)\n    {\n        penalty = basePenalty.add(penaltyHistoryCoefficient.mul(penaltyHistory[_staker]));\n        penalty = Math.min(penalty, _stakerValue.div(percentagePenaltyCoefficient));\n        reward = penalty.div(rewardCoefficient);\n        // TODO add maximum condition or other overflow protection or other penalty condition (#305?)\n        penaltyHistory[_staker] = penaltyHistory[_staker].add(1);\n    }\n\n    /// @dev the `onlyWhileUpgrading` modifier works through a call to the parent `verifyState`\n    function verifyState(address _testTarget) public override virtual {\n        super.verifyState(_testTarget);\n        bytes32 evaluationCFragHash = SignatureVerifier.hash(\n            abi.encodePacked(RESERVED_CAPSULE_AND_CFRAG_BYTES), SignatureVerifier.HashAlgorithm.SHA256);\n        require(delegateGet(_testTarget, this.evaluatedCFrags.selector, evaluationCFragHash) ==\n            (evaluatedCFrags[evaluationCFragHash] ? 1 : 0));\n        require(delegateGet(_testTarget, this.penaltyHistory.selector, bytes32(bytes20(RESERVED_ADDRESS))) ==\n            penaltyHistory[RESERVED_ADDRESS]);\n    }\n\n    /// @dev the `onlyWhileUpgrading` modifier works through a call to the parent `finishUpgrade`\n    function finishUpgrade(address _target) public override virtual {\n        super.finishUpgrade(_target);\n        // preparation for the verifyState method\n        bytes32 evaluationCFragHash = SignatureVerifier.hash(\n            abi.encodePacked(RESERVED_CAPSULE_AND_CFRAG_BYTES), SignatureVerifier.HashAlgorithm.SHA256);\n        evaluatedCFrags[evaluationCFragHash] = true;\n        penaltyHistory[RESERVED_ADDRESS] = 123;\n    }\n}\n",
  "sourcePath": "contracts/contracts/Adjudicator.sol",
  "type": "contract"
}