{
  "abi": [
    {
      "inputs": [
        {
          "internalType": "contract NuCypherToken",
          "name": "_token",
          "type": "address"
        },
        {
          "internalType": "contract IStakingEscrow",
          "name": "_escrow",
          "type": "address"
        },
        {
          "internalType": "contract PolicyManager",
          "name": "_policyManager",
          "type": "address"
        },
        {
          "internalType": "contract WorkLock",
          "name": "_workLock",
          "type": "address"
        },
        {
          "internalType": "contract IStaking",
          "name": "_tStaking",
          "type": "address"
        }
      ],
      "stateMutability": "nonpayable",
      "type": "constructor"
    },
    {
      "inputs": [],
      "name": "escrow",
      "outputs": [
        {
          "internalType": "contract IStakingEscrow",
          "name": "",
          "type": "address"
        }
      ],
      "stateMutability": "view",
      "type": "function"
    },
    {
      "inputs": [],
      "name": "policyManager",
      "outputs": [
        {
          "internalType": "contract PolicyManager",
          "name": "",
          "type": "address"
        }
      ],
      "stateMutability": "view",
      "type": "function"
    },
    {
      "inputs": [],
      "name": "stakingInterfaceAddress",
      "outputs": [
        {
          "internalType": "address",
          "name": "",
          "type": "address"
        }
      ],
      "stateMutability": "view",
      "type": "function"
    },
    {
      "inputs": [],
      "name": "tStaking",
      "outputs": [
        {
          "internalType": "contract IStaking",
          "name": "",
          "type": "address"
        }
      ],
      "stateMutability": "view",
      "type": "function"
    },
    {
      "inputs": [],
      "name": "token",
      "outputs": [
        {
          "internalType": "contract NuCypherToken",
          "name": "",
          "type": "address"
        }
      ],
      "stateMutability": "view",
      "type": "function"
    },
    {
      "inputs": [],
      "name": "workLock",
      "outputs": [
        {
          "internalType": "contract WorkLock",
          "name": "",
          "type": "address"
        }
      ],
      "stateMutability": "view",
      "type": "function"
    }
  ],
  "bytecode": "61014060405234801561001157600080fd5b5060405161058b38038061058b833981016040819052610030916102c5565b6000856001600160a01b03166318160ddd6040518163ffffffff1660e01b8152600401602060405180830381865afa158015610070573d6000803e3d6000fd5b505050506040513d601f19601f82011682018060405250810190610094919061033a565b1180156101135750846001600160a01b0316846001600160a01b031663fc0c546a6040518163ffffffff1660e01b8152600401602060405180830381865afa1580156100e4573d6000803e3d6000fd5b505050506040513d601f19601f820116820180604052508101906101089190610353565b6001600160a01b0316145b801561018657506000836001600160a01b031663407f80016040518163ffffffff1660e01b8152600401602060405180830381865afa15801561015a573d6000803e3d6000fd5b505050506040513d601f19601f8201168201806040525081019061017e9190610377565b63ffffffff16115b80156101f85750604051634a11fae360e01b8152600060048201526001600160a01b03821690634a11fae390602401602060405180830381865afa1580156101d2573d6000803e3d6000fd5b505050506040513d601f19601f820116820180604052508101906101f6919061033a565b155b801561027657506001600160a01b038216158061027657506000826001600160a01b0316635bf997f56040518163ffffffff1660e01b8152600401602060405180830381865afa158015610250573d6000803e3d6000fd5b505050506040513d601f19601f82011682018060405250810190610274919061033a565b115b61027f57600080fd5b6001600160a01b0394851660a05292841660c05290831660e05282166101005216610120523060805261039d565b6001600160a01b03811681146102c257600080fd5b50565b600080600080600060a086880312156102dd57600080fd5b85516102e8816102ad565b60208701519095506102f9816102ad565b604087015190945061030a816102ad565b606087015190935061031b816102ad565b608087015190925061032c816102ad565b809150509295509295909350565b60006020828403121561034c57600080fd5b5051919050565b60006020828403121561036557600080fd5b8151610370816102ad565b9392505050565b60006020828403121561038957600080fd5b815163ffffffff8116811461037057600080fd5b60805160a05160c05160e05161010051610120516101a36103e8600039600060fd01526000606c0152600060d6015260006101240152600061014b0152600060af01526101a36000f3fe608060405234801561001057600080fd5b50600436106100625760003560e01c80631c7fd532146100675780639d83a8dc146100aa578063ab3dbf3b146100d1578063dbaa0fc6146100f8578063e2fdcc171461011f578063fc0c546a14610146575b600080fd5b61008e7f000000000000000000000000000000000000000000000000000000000000000081565b6040516001600160a01b03909116815260200160405180910390f35b61008e7f000000000000000000000000000000000000000000000000000000000000000081565b61008e7f000000000000000000000000000000000000000000000000000000000000000081565b61008e7f000000000000000000000000000000000000000000000000000000000000000081565b61008e7f000000000000000000000000000000000000000000000000000000000000000081565b61008e7f00000000000000000000000000000000000000000000000000000000000000008156fea26469706673582212204ad3495a492ef864d9fae90fa7bf1e395f636745612984e8566ea53563f5ed9664736f6c634300080a0033",
  "bytecodeSha1": "3b2616d4d6c9eeb2ce0516ea65cf777a646c7472",
  "compiler": {
    "evm_version": "istanbul",
    "optimizer": {
      "enabled": true,
      "runs": 200
    },
    "version": "0.8.10+commit.fc410830"
  },
  "contractName": "BaseStakingInterface",
  "language": "Solidity",
  "natspec": {
    "kind": "dev",
    "methods": {
      "constructor": {
        "notice": "Constructor sets addresses of the contracts",
        "params": {
          "_escrow": "Escrow contract",
          "_policyManager": "PolicyManager contract",
          "_tStaking": "Threshold TokenStaking contract",
          "_token": "Token contract",
          "_workLock": "WorkLock contract"
        }
      }
    },
    "notice": "Base StakingInterface",
    "version": 1
  },
  "opcodes": "PUSH1 0x80 PUSH1 0x40 MSTORE CALLVALUE DUP1 ISZERO PUSH2 0x10 JUMPI PUSH1 0x0 DUP1 REVERT JUMPDEST POP PUSH1 0x4 CALLDATASIZE LT PUSH2 0x62 JUMPI PUSH1 0x0 CALLDATALOAD PUSH1 0xE0 SHR DUP1 PUSH4 0x1C7FD532 EQ PUSH2 0x67 JUMPI DUP1 PUSH4 0x9D83A8DC EQ PUSH2 0xAA JUMPI DUP1 PUSH4 0xAB3DBF3B EQ PUSH2 0xD1 JUMPI DUP1 PUSH4 0xDBAA0FC6 EQ PUSH2 0xF8 JUMPI DUP1 PUSH4 0xE2FDCC17 EQ PUSH2 0x11F JUMPI DUP1 PUSH4 0xFC0C546A EQ PUSH2 0x146 JUMPI JUMPDEST PUSH1 0x0 DUP1 REVERT JUMPDEST PUSH2 0x8E PUSH32 0x0 DUP2 JUMP JUMPDEST PUSH1 0x40 MLOAD PUSH1 0x1 PUSH1 0x1 PUSH1 0xA0 SHL SUB SWAP1 SWAP2 AND DUP2 MSTORE PUSH1 0x20 ADD PUSH1 0x40 MLOAD DUP1 SWAP2 SUB SWAP1 RETURN JUMPDEST PUSH2 0x8E PUSH32 0x0 DUP2 JUMP JUMPDEST PUSH2 0x8E PUSH32 0x0 DUP2 JUMP JUMPDEST PUSH2 0x8E PUSH32 0x0 DUP2 JUMP JUMPDEST PUSH2 0x8E PUSH32 0x0 DUP2 JUMP JUMPDEST PUSH2 0x8E PUSH32 0x0 DUP2 JUMP INVALID LOG2 PUSH5 0x6970667358 0x22 SLT KECCAK256 0x4A 0xD3 0x49 GAS 0x49 0x2E 0xF8 PUSH5 0xD9FAE90FA7 0xBF 0x1E CODECOPY 0x5F PUSH4 0x67456129 DUP5 0xE8 JUMP PUSH15 0xA53563F5ED9664736F6C634300080A STOP CALLER ",
  "sha1": "02b736107fe0f20b4d5d46281940a8f84626c94a",
  "source": "// SPDX-License-Identifier: AGPL-3.0-or-later\n\npragma solidity ^0.8.0;\n\n\nimport \"./AbstractStakingContract.sol\";\nimport \"../NuCypherToken.sol\";\nimport \"../IStakingEscrow.sol\";\nimport \"../PolicyManager.sol\";\nimport \"../WorkLock.sol\";\nimport \"../../threshold/IStaking.sol\";\n\n\n/**\n* @notice Base StakingInterface\n*/\ncontract BaseStakingInterface {\n\n    address public immutable stakingInterfaceAddress;\n    NuCypherToken public immutable token;\n    IStakingEscrow public immutable escrow;\n    PolicyManager public immutable policyManager;\n    WorkLock public immutable workLock;\n    IStaking public immutable tStaking;\n\n    /**\n    * @notice Constructor sets addresses of the contracts\n    * @param _token Token contract\n    * @param _escrow Escrow contract\n    * @param _policyManager PolicyManager contract\n    * @param _workLock WorkLock contract\n    * @param _tStaking Threshold TokenStaking contract\n    */\n    constructor(\n        NuCypherToken _token,\n        IStakingEscrow _escrow,\n        PolicyManager _policyManager,\n        WorkLock _workLock,\n        IStaking _tStaking\n    ) {\n        require(_token.totalSupply() > 0 &&\n            _escrow.token() == _token &&\n            _policyManager.secondsPerPeriod() > 0 &&\n            _tStaking.stakedNu(address(0)) == 0 &&\n            // in case there is no worklock contract\n            (address(_workLock) == address(0) || _workLock.boostingRefund() > 0));\n        token = _token;\n        escrow = _escrow;\n        policyManager = _policyManager;\n        workLock = _workLock;\n        tStaking = _tStaking;\n        stakingInterfaceAddress = address(this);\n    }\n\n    /**\n    * @dev Checks executing through delegate call\n    */\n    modifier onlyDelegateCall()\n    {\n        require(stakingInterfaceAddress != address(this));\n        _;\n    }\n\n    /**\n    * @dev Checks the existence of the worklock contract\n    */\n    modifier workLockSet()\n    {\n        require(address(workLock) != address(0));\n        _;\n    }\n\n}\n\n\n/**\n* @notice Interface for accessing main contracts from a staking contract\n* @dev All methods must be stateless because this code will be executed by delegatecall call, use immutable fields.\n* @dev |v1.9.1|\n*/\ncontract StakingInterface is BaseStakingInterface {\n\n    event WithdrawnAsStaker(address indexed sender, uint256 value);\n    event PolicyFeeWithdrawn(address indexed sender, uint256 value);\n    event MinFeeRateSet(address indexed sender, uint256 value);\n    event Bid(address indexed sender, uint256 depositedETH);\n    event Claimed(address indexed sender, uint256 claimedTokens);\n    event Refund(address indexed sender, uint256 refundETH);\n    event BidCanceled(address indexed sender);\n    event CompensationWithdrawn(address indexed sender);\n    event ThresholdNUStaked(\n        address indexed sender,\n        address indexed operator,\n        address beneficiary,\n        address authorizer\n    );\n    event ThresholdNUUnstaked(address indexed sender, address indexed operator, uint96 amount);\n\n    /**\n    * @notice Constructor sets addresses of the contracts\n    * @param _token Token contract\n    * @param _escrow Escrow contract\n    * @param _policyManager PolicyManager contract\n    * @param _workLock WorkLock contract\n    * @param _tStaking Threshold TokenStaking contract\n    */\n    constructor(\n        NuCypherToken _token,\n        IStakingEscrow _escrow,\n        PolicyManager _policyManager,\n        WorkLock _workLock,\n        IStaking _tStaking\n    )\n        BaseStakingInterface(_token, _escrow, _policyManager, _workLock, _tStaking)\n    {\n    }\n\n    /**\n    * @notice Withdraw available amount of tokens from the staking escrow to the staking contract\n    * @param _value Amount of token to withdraw\n    */\n    function withdrawAsStaker(uint256 _value) public onlyDelegateCall {\n        escrow.withdraw(_value);\n        emit WithdrawnAsStaker(msg.sender, _value);\n    }\n\n    /**\n    * @notice Withdraw available policy fees from the policy manager to the staking contract\n    */\n    function withdrawPolicyFee() public onlyDelegateCall {\n        uint256 value = policyManager.withdraw();\n        emit PolicyFeeWithdrawn(msg.sender, value);\n    }\n\n    /**\n    * @notice Set the minimum fee that the staker will accept in the policy manager contract\n    */\n    function setMinFeeRate(uint256 _minFeeRate) public onlyDelegateCall {\n        policyManager.setMinFeeRate(_minFeeRate);\n        emit MinFeeRateSet(msg.sender, _minFeeRate);\n    }\n\n    /**\n    * @notice Bid for tokens by transferring ETH\n    */\n    function bid(uint256 _value) public payable onlyDelegateCall workLockSet {\n        workLock.bid{value: _value}();\n        emit Bid(msg.sender, _value);\n    }\n\n    /**\n    * @notice Cancel bid and refund deposited ETH\n    */\n    function cancelBid() public onlyDelegateCall workLockSet {\n        workLock.cancelBid();\n        emit BidCanceled(msg.sender);\n    }\n\n    /**\n    * @notice Withdraw compensation after force refund\n    */\n    function withdrawCompensation() public onlyDelegateCall workLockSet {\n        workLock.withdrawCompensation();\n        emit CompensationWithdrawn(msg.sender);\n    }\n\n    /**\n    * @notice Claimed tokens will be deposited and locked as stake in the StakingEscrow contract\n    */\n    function claim() public onlyDelegateCall workLockSet {\n        uint256 claimedTokens = workLock.claim();\n        emit Claimed(msg.sender, claimedTokens);\n    }\n\n    /**\n    * @notice Refund ETH for the completed work\n    */\n    function refund() public onlyDelegateCall workLockSet {\n        uint256 refundETH = workLock.refund();\n        emit Refund(msg.sender, refundETH);\n    }\n\n    /**\n    * @notice Copies delegation from the legacy NU staking contract to T staking contract,\n    * additionally appointing beneficiary and authorizer roles.\n    */\n    function stakeNu(\n        address operator,\n        address payable beneficiary,\n        address authorizer\n    ) external onlyDelegateCall {\n        tStaking.stakeNu(operator, beneficiary, authorizer);\n        emit ThresholdNUStaked(msg.sender, operator, beneficiary, authorizer);\n    }\n\n    /**\n    * @notice Reduces cached legacy NU stake amount by the provided amount.\n    */\n    function unstakeNu(address operator, uint96 amount) external onlyDelegateCall {\n        tStaking.unstakeNu(operator, amount);\n        emit ThresholdNUUnstaked(msg.sender, operator, amount);\n    }\n}\n",
  "sourcePath": "contracts/contracts/staking_contracts/StakingInterface.sol",
  "type": "contract"
}