{
  "abi": [
    {
      "inputs": [
        {
          "internalType": "address",
          "name": "_target",
          "type": "address"
        }
      ],
      "stateMutability": "nonpayable",
      "type": "constructor"
    },
    {
      "anonymous": false,
      "inputs": [
        {
          "indexed": true,
          "internalType": "address",
          "name": "previousOwner",
          "type": "address"
        },
        {
          "indexed": true,
          "internalType": "address",
          "name": "newOwner",
          "type": "address"
        }
      ],
      "name": "OwnershipTransferred",
      "type": "event"
    },
    {
      "anonymous": false,
      "inputs": [
        {
          "indexed": true,
          "internalType": "address",
          "name": "from",
          "type": "address"
        },
        {
          "indexed": true,
          "internalType": "address",
          "name": "to",
          "type": "address"
        },
        {
          "indexed": false,
          "internalType": "address",
          "name": "owner",
          "type": "address"
        }
      ],
      "name": "RolledBack",
      "type": "event"
    },
    {
      "anonymous": false,
      "inputs": [
        {
          "indexed": true,
          "internalType": "address",
          "name": "testTarget",
          "type": "address"
        },
        {
          "indexed": false,
          "internalType": "address",
          "name": "sender",
          "type": "address"
        }
      ],
      "name": "StateVerified",
      "type": "event"
    },
    {
      "anonymous": false,
      "inputs": [
        {
          "indexed": true,
          "internalType": "address",
          "name": "target",
          "type": "address"
        },
        {
          "indexed": false,
          "internalType": "address",
          "name": "sender",
          "type": "address"
        }
      ],
      "name": "UpgradeFinished",
      "type": "event"
    },
    {
      "anonymous": false,
      "inputs": [
        {
          "indexed": true,
          "internalType": "address",
          "name": "from",
          "type": "address"
        },
        {
          "indexed": true,
          "internalType": "address",
          "name": "to",
          "type": "address"
        },
        {
          "indexed": false,
          "internalType": "address",
          "name": "owner",
          "type": "address"
        }
      ],
      "name": "Upgraded",
      "type": "event"
    },
    {
      "stateMutability": "payable",
      "type": "fallback"
    },
    {
      "inputs": [
        {
          "internalType": "address",
          "name": "",
          "type": "address"
        }
      ],
      "name": "finishUpgrade",
      "outputs": [],
      "stateMutability": "nonpayable",
      "type": "function"
    },
    {
      "inputs": [],
      "name": "implementation",
      "outputs": [
        {
          "internalType": "address",
          "name": "",
          "type": "address"
        }
      ],
      "stateMutability": "view",
      "type": "function"
    },
    {
      "inputs": [],
      "name": "isOwner",
      "outputs": [
        {
          "internalType": "bool",
          "name": "",
          "type": "bool"
        }
      ],
      "stateMutability": "view",
      "type": "function"
    },
    {
      "inputs": [],
      "name": "isUpgrade",
      "outputs": [
        {
          "internalType": "uint8",
          "name": "",
          "type": "uint8"
        }
      ],
      "stateMutability": "view",
      "type": "function"
    },
    {
      "inputs": [],
      "name": "owner",
      "outputs": [
        {
          "internalType": "address",
          "name": "",
          "type": "address"
        }
      ],
      "stateMutability": "view",
      "type": "function"
    },
    {
      "inputs": [],
      "name": "previousTarget",
      "outputs": [
        {
          "internalType": "address",
          "name": "",
          "type": "address"
        }
      ],
      "stateMutability": "view",
      "type": "function"
    },
    {
      "inputs": [],
      "name": "proxyType",
      "outputs": [
        {
          "internalType": "uint256",
          "name": "",
          "type": "uint256"
        }
      ],
      "stateMutability": "pure",
      "type": "function"
    },
    {
      "inputs": [],
      "name": "renounceOwnership",
      "outputs": [],
      "stateMutability": "nonpayable",
      "type": "function"
    },
    {
      "inputs": [],
      "name": "rollback",
      "outputs": [],
      "stateMutability": "nonpayable",
      "type": "function"
    },
    {
      "inputs": [],
      "name": "target",
      "outputs": [
        {
          "internalType": "address",
          "name": "",
          "type": "address"
        }
      ],
      "stateMutability": "view",
      "type": "function"
    },
    {
      "inputs": [
        {
          "internalType": "address",
          "name": "newOwner",
          "type": "address"
        }
      ],
      "name": "transferOwnership",
      "outputs": [],
      "stateMutability": "nonpayable",
      "type": "function"
    },
    {
      "inputs": [
        {
          "internalType": "address",
          "name": "_target",
          "type": "address"
        }
      ],
      "name": "upgrade",
      "outputs": [],
      "stateMutability": "nonpayable",
      "type": "function"
    },
    {
      "inputs": [
        {
          "internalType": "address",
          "name": "_testTarget",
          "type": "address"
        }
      ],
      "name": "verifyState",
      "outputs": [],
      "stateMutability": "nonpayable",
      "type": "function"
    },
    {
      "stateMutability": "payable",
      "type": "receive"
    }
  ],
  "bytecode": "60806040523480156200001157600080fd5b5060405162000e5738038062000e578339810160408190526200003491620003f1565b600080546001600160a01b0319163390811782556040519091907f8be0079c531659141344cd1fd0a4f28419497f9722a3daafe3b4186f6b6457e0908290a36002805460ff60a01b1916600160a11b179055620000a66001600160a01b03821662000147602090811b6200039217901c565b620000b057600080fd5b620000bb816200014d565b620000c7818062000230565b600180546001600160a01b0319166001600160a01b038316179055620000ec620002dc565b6040513381526001600160a01b038216906000907f354bd4b6eb65d64e6c79c53fa4f983a5e6bec4824ce4627c71be0b2722f4917e9060200160405180910390a3506002805460ff60a01b1916600160a01b17905562000461565b3b151590565b60028054600160a01b900460ff16146200016657600080fd5b6000546001600160a01b03166200018582638da5cb5b60e01b62000382565b6001600160a01b0316146200019957600080fd5b6001546001600160a01b0316620001b882636a5c1cc960e11b62000382565b6001600160a01b031614620001cc57600080fd5b6002546001600160a01b0316620001eb826309659a2360e31b62000382565b6001600160a01b031614620001ff57600080fd5b600254600160a01b900460ff166200021f8263e38a303b60e01b62000382565b60ff16146200022d57600080fd5b50565b604080516001600160a01b0383811660248084019190915283518084039091018152604490920183526020820180516001600160e01b031663b9626d2160e01b1790529151600092851691620002869162000423565b600060405180830381855af49150503d8060008114620002c3576040519150601f19603f3d011682016040523d82523d6000602084013e620002c8565b606091505b5050905080620002d757600080fd5b505050565b600154604080516001600160a01b03909216602480840182905282518085039091018152604490930182526020830180516001600160e01b031663746e668360e11b1790529051600092620003319162000423565b600060405180830381855af49150503d80600081146200036e576040519150601f19603f3d011682016040523d82523d6000602084013e62000373565b606091505b50509050806200022d57600080fd5b6000806200039484848380806200039d565b51949350505050565b6040518481528315620003b1578260048201525b6001841115620003c2578160248201525b6000808560200260040183895af48015620003e2573d6000833e620003e7565b600082fd5b5095945050505050565b6000602082840312156200040457600080fd5b81516001600160a01b03811681146200041c57600080fd5b9392505050565b6000825160005b818110156200044657602081860181015185830152016200042a565b8181111562000456576000828501525b509190910192915050565b6109e680620004716000396000f3fe6080604052600436106100c65760003560e01c80638f32d59b1161007f578063d4b8399211610059578063d4b8399214610301578063e38a303b14610321578063e8dccd0614610354578063f2fde38b1461037257610143565b80638f32d59b146102a15780639afd9d78146102cc578063b9626d21146102e157610143565b80630900f010146101d55780634555d5c9146101f75780634b2cd118146102185780635c60da1b14610250578063715018a61461026e5780638da5cb5b1461028357610143565b36610143576001546001600160a01b03163b6100e4576100e461091f565b6001546040516000916001600160a01b03169082818181855af49150503d806000811461012d576040519150601f19603f3d011682016040523d82523d6000602084013e610132565b606091505b505090508061014057600080fd5b50005b6001546001600160a01b03163b61015c5761015c61091f565b6001546040516000916001600160a01b03169061017c9083903690610935565b600060405180830381855af49150503d80600081146101b7576040519150601f19603f3d011682016040523d82523d6000602084013e6101bc565b606091505b5050905080156101d0573d6000803e3d6000f35b600080fd5b3480156101e157600080fd5b506101f56101f0366004610945565b610398565b005b34801561020357600080fd5b50604051600281526020015b60405180910390f35b34801561022457600080fd5b50600254610238906001600160a01b031681565b6040516001600160a01b03909116815260200161020f565b34801561025c57600080fd5b506001546001600160a01b0316610238565b34801561027a57600080fd5b506101f561049f565b34801561028f57600080fd5b506000546001600160a01b0316610238565b3480156102ad57600080fd5b506000546001600160a01b03163314604051901515815260200161020f565b3480156102d857600080fd5b506101f5610500565b3480156102ed57600080fd5b506101f56102fc366004610945565b61060d565b34801561030d57600080fd5b50600154610238906001600160a01b031681565b34801561032d57600080fd5b5060025461034290600160a01b900460ff1681565b60405160ff909116815260200161020f565b34801561036057600080fd5b506101f561036f366004610945565b50565b34801561037e57600080fd5b506101f561038d366004610945565b6106e0565b3b151590565b6000546001600160a01b031633146103af57600080fd5b6002805460ff60a01b1916600160a11b1790556001600160a01b0381163b6103d657600080fd5b6103df8161060d565b6103e98182610700565b6001546001600160a01b03163b1561041157600154610411906001600160a01b031682610700565b60018054600280546001600160a01b038084166001600160a01b0319928316179092559091169083161790556104456107a7565b6002546040513381526001600160a01b038381169216907f354bd4b6eb65d64e6c79c53fa4f983a5e6bec4824ce4627c71be0b2722f4917e9060200160405180910390a3506002805460ff60a01b1916600160a01b179055565b6000546001600160a01b031633146104b657600080fd5b600080546040516001600160a01b03909116907f8be0079c531659141344cd1fd0a4f28419497f9722a3daafe3b4186f6b6457e0908390a3600080546001600160a01b0319169055565b6000546001600160a01b0316331461051757600080fd5b6002805460ff60a01b198116600160a11b179091556001600160a01b03163b61053f57600080fd5b6002546001546040513381526001600160a01b0392831692909116907f86e04d1de380d22833cb4409f3ee7c6ad818a8d8387a83b6371f5ce018ddc1549060200160405180910390a360025461059d906001600160a01b031661060d565b6001546001600160a01b03163b156105cb576002546001546105cb916001600160a01b039081169116610700565b60028054600180546001600160a01b03199081166001600160a01b038416179091551690556105f86107a7565b6002805460ff60a01b1916600160a01b179055565b60028054600160a01b900460ff161461062557600080fd5b6000546001600160a01b031661064282638da5cb5b60e01b610848565b6001600160a01b03161461065557600080fd5b6001546001600160a01b031661067282636a5c1cc960e11b610848565b6001600160a01b03161461068557600080fd5b6002546001600160a01b03166106a2826309659a2360e31b610848565b6001600160a01b0316146106b557600080fd5b600254600160a01b900460ff166106d38263e38a303b60e01b610848565b60ff161461036f57600080fd5b6000546001600160a01b031633146106f757600080fd5b61036f81610861565b604080516001600160a01b0383811660248084019190915283518084039091018152604490920183526020820180516001600160e01b031663b9626d2160e01b179052915160009285169161075491610975565b600060405180830381855af49150503d806000811461078f576040519150601f19603f3d011682016040523d82523d6000602084013e610794565b606091505b50509050806107a257600080fd5b505050565b600154604080516001600160a01b03909216602480840182905282518085039091018152604490930182526020830180516001600160e01b031663746e668360e11b17905290516000926107fa91610975565b600060405180830381855af49150503d8060008114610835576040519150601f19603f3d011682016040523d82523d6000602084013e61083a565b606091505b505090508061036f57600080fd5b60008061085884848380806108cf565b51949350505050565b6001600160a01b03811661087457600080fd5b600080546040516001600160a01b03808516939216917f8be0079c531659141344cd1fd0a4f28419497f9722a3daafe3b4186f6b6457e091a3600080546001600160a01b0319166001600160a01b0392909216919091179055565b60405184815283156108e2578260048201525b60018411156108f2578160248201525b6000808560200260040183895af48015610910573d6000833e610915565b600082fd5b5095945050505050565b634e487b7160e01b600052600160045260246000fd5b8183823760009101908152919050565b60006020828403121561095757600080fd5b81356001600160a01b038116811461096e57600080fd5b9392505050565b6000825160005b81811015610996576020818601810151858301520161097c565b818111156109a5576000828501525b50919091019291505056fea2646970667358221220df3486bf54a7b4114fda7f22c565ad3f801abf7e8321113f07bb1775896ffb4064736f6c634300080a0033",
  "bytecodeSha1": "5dc25b0125345b4505409398f83eafd8bfbf837a",
  "compiler": {
    "evm_version": "istanbul",
    "optimizer": {
      "enabled": true,
      "runs": 200
    },
    "version": "0.8.10+commit.fc410830"
  },
  "contractName": "Dispatcher",
  "language": "Solidity",
  "natspec": {
    "kind": "dev",
    "methods": {
      "constructor": {
        "params": {
          "_target": "Target contract address"
        }
      },
      "finishUpgrade(address)": {
        "details": "Override function using empty code because no reason to call this function in Dispatcher"
      },
      "implementation()": {
        "notice": "ERC897, gets the address of the implementation where every call will be delegated"
      },
      "isOwner()": {
        "returns": {
          "_0": "true if `msg.sender` is the owner of the contract."
        }
      },
      "owner()": {
        "returns": {
          "_0": "the address of the owner."
        }
      },
      "proxyType()": {
        "notice": "ERC897, whether it is a forwarding (1) or an upgradeable (2) proxy"
      },
      "renounceOwnership()": {
        "details": "Allows the current owner to relinquish control of the contract.",
        "notice": "Renouncing to ownership will leave the contract without an owner. It will not be possible to call the functions with the `onlyOwner` modifier anymore."
      },
      "rollback()": {
        "details": "Test storage carefully before upgrade again after rollback",
        "notice": "Rollback to previous target"
      },
      "transferOwnership(address)": {
        "details": "Allows the current owner to transfer control of the contract to a newOwner.",
        "params": {
          "newOwner": "The address to transfer ownership to."
        }
      },
      "upgrade(address)": {
        "notice": "Verify new contract storage and upgrade target",
        "params": {
          "_target": "New target contract address"
        }
      },
      "verifyState(address)": {
        "details": "Method for verifying storage state. Should check that new target contract returns right storage value"
      }
    },
    "notice": "Proxying requests to other contracts. Client should use ABI of real contract and address of this contract",
    "version": 1
  },
  "opcodes": "PUSH1 0x80 PUSH1 0x40 MSTORE PUSH1 0x4 CALLDATASIZE LT PUSH2 0xC6 JUMPI PUSH1 0x0 CALLDATALOAD PUSH1 0xE0 SHR DUP1 PUSH4 0x8F32D59B GT PUSH2 0x7F JUMPI DUP1 PUSH4 0xD4B83992 GT PUSH2 0x59 JUMPI DUP1 PUSH4 0xD4B83992 EQ PUSH2 0x301 JUMPI DUP1 PUSH4 0xE38A303B EQ PUSH2 0x321 JUMPI DUP1 PUSH4 0xE8DCCD06 EQ PUSH2 0x354 JUMPI DUP1 PUSH4 0xF2FDE38B EQ PUSH2 0x372 JUMPI PUSH2 0x143 JUMP JUMPDEST DUP1 PUSH4 0x8F32D59B EQ PUSH2 0x2A1 JUMPI DUP1 PUSH4 0x9AFD9D78 EQ PUSH2 0x2CC JUMPI DUP1 PUSH4 0xB9626D21 EQ PUSH2 0x2E1 JUMPI PUSH2 0x143 JUMP JUMPDEST DUP1 PUSH4 0x900F010 EQ PUSH2 0x1D5 JUMPI DUP1 PUSH4 0x4555D5C9 EQ PUSH2 0x1F7 JUMPI DUP1 PUSH4 0x4B2CD118 EQ PUSH2 0x218 JUMPI DUP1 PUSH4 0x5C60DA1B EQ PUSH2 0x250 JUMPI DUP1 PUSH4 0x715018A6 EQ PUSH2 0x26E JUMPI DUP1 PUSH4 0x8DA5CB5B EQ PUSH2 0x283 JUMPI PUSH2 0x143 JUMP JUMPDEST CALLDATASIZE PUSH2 0x143 JUMPI PUSH1 0x1 SLOAD PUSH1 0x1 PUSH1 0x1 PUSH1 0xA0 SHL SUB AND EXTCODESIZE PUSH2 0xE4 JUMPI PUSH2 0xE4 PUSH2 0x91F JUMP JUMPDEST PUSH1 0x1 SLOAD PUSH1 0x40 MLOAD PUSH1 0x0 SWAP2 PUSH1 0x1 PUSH1 0x1 PUSH1 0xA0 SHL SUB AND SWAP1 DUP3 DUP2 DUP2 DUP2 DUP6 GAS DELEGATECALL SWAP2 POP POP RETURNDATASIZE DUP1 PUSH1 0x0 DUP2 EQ PUSH2 0x12D JUMPI PUSH1 0x40 MLOAD SWAP2 POP PUSH1 0x1F NOT PUSH1 0x3F RETURNDATASIZE ADD AND DUP3 ADD PUSH1 0x40 MSTORE RETURNDATASIZE DUP3 MSTORE RETURNDATASIZE PUSH1 0x0 PUSH1 0x20 DUP5 ADD RETURNDATACOPY PUSH2 0x132 JUMP JUMPDEST PUSH1 0x60 SWAP2 POP JUMPDEST POP POP SWAP1 POP DUP1 PUSH2 0x140 JUMPI PUSH1 0x0 DUP1 REVERT JUMPDEST POP STOP JUMPDEST PUSH1 0x1 SLOAD PUSH1 0x1 PUSH1 0x1 PUSH1 0xA0 SHL SUB AND EXTCODESIZE PUSH2 0x15C JUMPI PUSH2 0x15C PUSH2 0x91F JUMP JUMPDEST PUSH1 0x1 SLOAD PUSH1 0x40 MLOAD PUSH1 0x0 SWAP2 PUSH1 0x1 PUSH1 0x1 PUSH1 0xA0 SHL SUB AND SWAP1 PUSH2 0x17C SWAP1 DUP4 SWAP1 CALLDATASIZE SWAP1 PUSH2 0x935 JUMP JUMPDEST PUSH1 0x0 PUSH1 0x40 MLOAD DUP1 DUP4 SUB DUP2 DUP6 GAS DELEGATECALL SWAP2 POP POP RETURNDATASIZE DUP1 PUSH1 0x0 DUP2 EQ PUSH2 0x1B7 JUMPI PUSH1 0x40 MLOAD SWAP2 POP PUSH1 0x1F NOT PUSH1 0x3F RETURNDATASIZE ADD AND DUP3 ADD PUSH1 0x40 MSTORE RETURNDATASIZE DUP3 MSTORE RETURNDATASIZE PUSH1 0x0 PUSH1 0x20 DUP5 ADD RETURNDATACOPY PUSH2 0x1BC JUMP JUMPDEST PUSH1 0x60 SWAP2 POP JUMPDEST POP POP SWAP1 POP DUP1 ISZERO PUSH2 0x1D0 JUMPI RETURNDATASIZE PUSH1 0x0 DUP1 RETURNDATACOPY RETURNDATASIZE PUSH1 0x0 RETURN JUMPDEST PUSH1 0x0 DUP1 REVERT JUMPDEST CALLVALUE DUP1 ISZERO PUSH2 0x1E1 JUMPI PUSH1 0x0 DUP1 REVERT JUMPDEST POP PUSH2 0x1F5 PUSH2 0x1F0 CALLDATASIZE PUSH1 0x4 PUSH2 0x945 JUMP JUMPDEST PUSH2 0x398 JUMP JUMPDEST STOP JUMPDEST CALLVALUE DUP1 ISZERO PUSH2 0x203 JUMPI PUSH1 0x0 DUP1 REVERT JUMPDEST POP PUSH1 0x40 MLOAD PUSH1 0x2 DUP2 MSTORE PUSH1 0x20 ADD JUMPDEST PUSH1 0x40 MLOAD DUP1 SWAP2 SUB SWAP1 RETURN JUMPDEST CALLVALUE DUP1 ISZERO PUSH2 0x224 JUMPI PUSH1 0x0 DUP1 REVERT JUMPDEST POP PUSH1 0x2 SLOAD PUSH2 0x238 SWAP1 PUSH1 0x1 PUSH1 0x1 PUSH1 0xA0 SHL SUB AND DUP2 JUMP JUMPDEST PUSH1 0x40 MLOAD PUSH1 0x1 PUSH1 0x1 PUSH1 0xA0 SHL SUB SWAP1 SWAP2 AND DUP2 MSTORE PUSH1 0x20 ADD PUSH2 0x20F JUMP JUMPDEST CALLVALUE DUP1 ISZERO PUSH2 0x25C JUMPI PUSH1 0x0 DUP1 REVERT JUMPDEST POP PUSH1 0x1 SLOAD PUSH1 0x1 PUSH1 0x1 PUSH1 0xA0 SHL SUB AND PUSH2 0x238 JUMP JUMPDEST CALLVALUE DUP1 ISZERO PUSH2 0x27A JUMPI PUSH1 0x0 DUP1 REVERT JUMPDEST POP PUSH2 0x1F5 PUSH2 0x49F JUMP JUMPDEST CALLVALUE DUP1 ISZERO PUSH2 0x28F JUMPI PUSH1 0x0 DUP1 REVERT JUMPDEST POP PUSH1 0x0 SLOAD PUSH1 0x1 PUSH1 0x1 PUSH1 0xA0 SHL SUB AND PUSH2 0x238 JUMP JUMPDEST CALLVALUE DUP1 ISZERO PUSH2 0x2AD JUMPI PUSH1 0x0 DUP1 REVERT JUMPDEST POP PUSH1 0x0 SLOAD PUSH1 0x1 PUSH1 0x1 PUSH1 0xA0 SHL SUB AND CALLER EQ PUSH1 0x40 MLOAD SWAP1 ISZERO ISZERO DUP2 MSTORE PUSH1 0x20 ADD PUSH2 0x20F JUMP JUMPDEST CALLVALUE DUP1 ISZERO PUSH2 0x2D8 JUMPI PUSH1 0x0 DUP1 REVERT JUMPDEST POP PUSH2 0x1F5 PUSH2 0x500 JUMP JUMPDEST CALLVALUE DUP1 ISZERO PUSH2 0x2ED JUMPI PUSH1 0x0 DUP1 REVERT JUMPDEST POP PUSH2 0x1F5 PUSH2 0x2FC CALLDATASIZE PUSH1 0x4 PUSH2 0x945 JUMP JUMPDEST PUSH2 0x60D JUMP JUMPDEST CALLVALUE DUP1 ISZERO PUSH2 0x30D JUMPI PUSH1 0x0 DUP1 REVERT JUMPDEST POP PUSH1 0x1 SLOAD PUSH2 0x238 SWAP1 PUSH1 0x1 PUSH1 0x1 PUSH1 0xA0 SHL SUB AND DUP2 JUMP JUMPDEST CALLVALUE DUP1 ISZERO PUSH2 0x32D JUMPI PUSH1 0x0 DUP1 REVERT JUMPDEST POP PUSH1 0x2 SLOAD PUSH2 0x342 SWAP1 PUSH1 0x1 PUSH1 0xA0 SHL SWAP1 DIV PUSH1 0xFF AND DUP2 JUMP JUMPDEST PUSH1 0x40 MLOAD PUSH1 0xFF SWAP1 SWAP2 AND DUP2 MSTORE PUSH1 0x20 ADD PUSH2 0x20F JUMP JUMPDEST CALLVALUE DUP1 ISZERO PUSH2 0x360 JUMPI PUSH1 0x0 DUP1 REVERT JUMPDEST POP PUSH2 0x1F5 PUSH2 0x36F CALLDATASIZE PUSH1 0x4 PUSH2 0x945 JUMP JUMPDEST POP JUMP JUMPDEST CALLVALUE DUP1 ISZERO PUSH2 0x37E JUMPI PUSH1 0x0 DUP1 REVERT JUMPDEST POP PUSH2 0x1F5 PUSH2 0x38D CALLDATASIZE PUSH1 0x4 PUSH2 0x945 JUMP JUMPDEST PUSH2 0x6E0 JUMP JUMPDEST EXTCODESIZE ISZERO ISZERO SWAP1 JUMP JUMPDEST PUSH1 0x0 SLOAD PUSH1 0x1 PUSH1 0x1 PUSH1 0xA0 SHL SUB AND CALLER EQ PUSH2 0x3AF JUMPI PUSH1 0x0 DUP1 REVERT JUMPDEST PUSH1 0x2 DUP1 SLOAD PUSH1 0xFF PUSH1 0xA0 SHL NOT AND PUSH1 0x1 PUSH1 0xA1 SHL OR SWAP1 SSTORE PUSH1 0x1 PUSH1 0x1 PUSH1 0xA0 SHL SUB DUP2 AND EXTCODESIZE PUSH2 0x3D6 JUMPI PUSH1 0x0 DUP1 REVERT JUMPDEST PUSH2 0x3DF DUP2 PUSH2 0x60D JUMP JUMPDEST PUSH2 0x3E9 DUP2 DUP3 PUSH2 0x700 JUMP JUMPDEST PUSH1 0x1 SLOAD PUSH1 0x1 PUSH1 0x1 PUSH1 0xA0 SHL SUB AND EXTCODESIZE ISZERO PUSH2 0x411 JUMPI PUSH1 0x1 SLOAD PUSH2 0x411 SWAP1 PUSH1 0x1 PUSH1 0x1 PUSH1 0xA0 SHL SUB AND DUP3 PUSH2 0x700 JUMP JUMPDEST PUSH1 0x1 DUP1 SLOAD PUSH1 0x2 DUP1 SLOAD PUSH1 0x1 PUSH1 0x1 PUSH1 0xA0 SHL SUB DUP1 DUP5 AND PUSH1 0x1 PUSH1 0x1 PUSH1 0xA0 SHL SUB NOT SWAP3 DUP4 AND OR SWAP1 SWAP3 SSTORE SWAP1 SWAP2 AND SWAP1 DUP4 AND OR SWAP1 SSTORE PUSH2 0x445 PUSH2 0x7A7 JUMP JUMPDEST PUSH1 0x2 SLOAD PUSH1 0x40 MLOAD CALLER DUP2 MSTORE PUSH1 0x1 PUSH1 0x1 PUSH1 0xA0 SHL SUB DUP4 DUP2 AND SWAP3 AND SWAP1 PUSH32 0x354BD4B6EB65D64E6C79C53FA4F983A5E6BEC4824CE4627C71BE0B2722F4917E SWAP1 PUSH1 0x20 ADD PUSH1 0x40 MLOAD DUP1 SWAP2 SUB SWAP1 LOG3 POP PUSH1 0x2 DUP1 SLOAD PUSH1 0xFF PUSH1 0xA0 SHL NOT AND PUSH1 0x1 PUSH1 0xA0 SHL OR SWAP1 SSTORE JUMP JUMPDEST PUSH1 0x0 SLOAD PUSH1 0x1 PUSH1 0x1 PUSH1 0xA0 SHL SUB AND CALLER EQ PUSH2 0x4B6 JUMPI PUSH1 0x0 DUP1 REVERT JUMPDEST PUSH1 0x0 DUP1 SLOAD PUSH1 0x40 MLOAD PUSH1 0x1 PUSH1 0x1 PUSH1 0xA0 SHL SUB SWAP1 SWAP2 AND SWAP1 PUSH32 0x8BE0079C531659141344CD1FD0A4F28419497F9722A3DAAFE3B4186F6B6457E0 SWAP1 DUP4 SWAP1 LOG3 PUSH1 0x0 DUP1 SLOAD PUSH1 0x1 PUSH1 0x1 PUSH1 0xA0 SHL SUB NOT AND SWAP1 SSTORE JUMP JUMPDEST PUSH1 0x0 SLOAD PUSH1 0x1 PUSH1 0x1 PUSH1 0xA0 SHL SUB AND CALLER EQ PUSH2 0x517 JUMPI PUSH1 0x0 DUP1 REVERT JUMPDEST PUSH1 0x2 DUP1 SLOAD PUSH1 0xFF PUSH1 0xA0 SHL NOT DUP2 AND PUSH1 0x1 PUSH1 0xA1 SHL OR SWAP1 SWAP2 SSTORE PUSH1 0x1 PUSH1 0x1 PUSH1 0xA0 SHL SUB AND EXTCODESIZE PUSH2 0x53F JUMPI PUSH1 0x0 DUP1 REVERT JUMPDEST PUSH1 0x2 SLOAD PUSH1 0x1 SLOAD PUSH1 0x40 MLOAD CALLER DUP2 MSTORE PUSH1 0x1 PUSH1 0x1 PUSH1 0xA0 SHL SUB SWAP3 DUP4 AND SWAP3 SWAP1 SWAP2 AND SWAP1 PUSH32 0x86E04D1DE380D22833CB4409F3EE7C6AD818A8D8387A83B6371F5CE018DDC154 SWAP1 PUSH1 0x20 ADD PUSH1 0x40 MLOAD DUP1 SWAP2 SUB SWAP1 LOG3 PUSH1 0x2 SLOAD PUSH2 0x59D SWAP1 PUSH1 0x1 PUSH1 0x1 PUSH1 0xA0 SHL SUB AND PUSH2 0x60D JUMP JUMPDEST PUSH1 0x1 SLOAD PUSH1 0x1 PUSH1 0x1 PUSH1 0xA0 SHL SUB AND EXTCODESIZE ISZERO PUSH2 0x5CB JUMPI PUSH1 0x2 SLOAD PUSH1 0x1 SLOAD PUSH2 0x5CB SWAP2 PUSH1 0x1 PUSH1 0x1 PUSH1 0xA0 SHL SUB SWAP1 DUP2 AND SWAP2 AND PUSH2 0x700 JUMP JUMPDEST PUSH1 0x2 DUP1 SLOAD PUSH1 0x1 DUP1 SLOAD PUSH1 0x1 PUSH1 0x1 PUSH1 0xA0 SHL SUB NOT SWAP1 DUP2 AND PUSH1 0x1 PUSH1 0x1 PUSH1 0xA0 SHL SUB DUP5 AND OR SWAP1 SWAP2 SSTORE AND SWAP1 SSTORE PUSH2 0x5F8 PUSH2 0x7A7 JUMP JUMPDEST PUSH1 0x2 DUP1 SLOAD PUSH1 0xFF PUSH1 0xA0 SHL NOT AND PUSH1 0x1 PUSH1 0xA0 SHL OR SWAP1 SSTORE JUMP JUMPDEST PUSH1 0x2 DUP1 SLOAD PUSH1 0x1 PUSH1 0xA0 SHL SWAP1 DIV PUSH1 0xFF AND EQ PUSH2 0x625 JUMPI PUSH1 0x0 DUP1 REVERT JUMPDEST PUSH1 0x0 SLOAD PUSH1 0x1 PUSH1 0x1 PUSH1 0xA0 SHL SUB AND PUSH2 0x642 DUP3 PUSH4 0x8DA5CB5B PUSH1 0xE0 SHL PUSH2 0x848 JUMP JUMPDEST PUSH1 0x1 PUSH1 0x1 PUSH1 0xA0 SHL SUB AND EQ PUSH2 0x655 JUMPI PUSH1 0x0 DUP1 REVERT JUMPDEST PUSH1 0x1 SLOAD PUSH1 0x1 PUSH1 0x1 PUSH1 0xA0 SHL SUB AND PUSH2 0x672 DUP3 PUSH4 0x6A5C1CC9 PUSH1 0xE1 SHL PUSH2 0x848 JUMP JUMPDEST PUSH1 0x1 PUSH1 0x1 PUSH1 0xA0 SHL SUB AND EQ PUSH2 0x685 JUMPI PUSH1 0x0 DUP1 REVERT JUMPDEST PUSH1 0x2 SLOAD PUSH1 0x1 PUSH1 0x1 PUSH1 0xA0 SHL SUB AND PUSH2 0x6A2 DUP3 PUSH4 0x9659A23 PUSH1 0xE3 SHL PUSH2 0x848 JUMP JUMPDEST PUSH1 0x1 PUSH1 0x1 PUSH1 0xA0 SHL SUB AND EQ PUSH2 0x6B5 JUMPI PUSH1 0x0 DUP1 REVERT JUMPDEST PUSH1 0x2 SLOAD PUSH1 0x1 PUSH1 0xA0 SHL SWAP1 DIV PUSH1 0xFF AND PUSH2 0x6D3 DUP3 PUSH4 0xE38A303B PUSH1 0xE0 SHL PUSH2 0x848 JUMP JUMPDEST PUSH1 0xFF AND EQ PUSH2 0x36F JUMPI PUSH1 0x0 DUP1 REVERT JUMPDEST PUSH1 0x0 SLOAD PUSH1 0x1 PUSH1 0x1 PUSH1 0xA0 SHL SUB AND CALLER EQ PUSH2 0x6F7 JUMPI PUSH1 0x0 DUP1 REVERT JUMPDEST PUSH2 0x36F DUP2 PUSH2 0x861 JUMP JUMPDEST PUSH1 0x40 DUP1 MLOAD PUSH1 0x1 PUSH1 0x1 PUSH1 0xA0 SHL SUB DUP4 DUP2 AND PUSH1 0x24 DUP1 DUP5 ADD SWAP2 SWAP1 SWAP2 MSTORE DUP4 MLOAD DUP1 DUP5 SUB SWAP1 SWAP2 ADD DUP2 MSTORE PUSH1 0x44 SWAP1 SWAP3 ADD DUP4 MSTORE PUSH1 0x20 DUP3 ADD DUP1 MLOAD PUSH1 0x1 PUSH1 0x1 PUSH1 0xE0 SHL SUB AND PUSH4 0xB9626D21 PUSH1 0xE0 SHL OR SWAP1 MSTORE SWAP2 MLOAD PUSH1 0x0 SWAP3 DUP6 AND SWAP2 PUSH2 0x754 SWAP2 PUSH2 0x975 JUMP JUMPDEST PUSH1 0x0 PUSH1 0x40 MLOAD DUP1 DUP4 SUB DUP2 DUP6 GAS DELEGATECALL SWAP2 POP POP RETURNDATASIZE DUP1 PUSH1 0x0 DUP2 EQ PUSH2 0x78F JUMPI PUSH1 0x40 MLOAD SWAP2 POP PUSH1 0x1F NOT PUSH1 0x3F RETURNDATASIZE ADD AND DUP3 ADD PUSH1 0x40 MSTORE RETURNDATASIZE DUP3 MSTORE RETURNDATASIZE PUSH1 0x0 PUSH1 0x20 DUP5 ADD RETURNDATACOPY PUSH2 0x794 JUMP JUMPDEST PUSH1 0x60 SWAP2 POP JUMPDEST POP POP SWAP1 POP DUP1 PUSH2 0x7A2 JUMPI PUSH1 0x0 DUP1 REVERT JUMPDEST POP POP POP JUMP JUMPDEST PUSH1 0x1 SLOAD PUSH1 0x40 DUP1 MLOAD PUSH1 0x1 PUSH1 0x1 PUSH1 0xA0 SHL SUB SWAP1 SWAP3 AND PUSH1 0x24 DUP1 DUP5 ADD DUP3 SWAP1 MSTORE DUP3 MLOAD DUP1 DUP6 SUB SWAP1 SWAP2 ADD DUP2 MSTORE PUSH1 0x44 SWAP1 SWAP4 ADD DUP3 MSTORE PUSH1 0x20 DUP4 ADD DUP1 MLOAD PUSH1 0x1 PUSH1 0x1 PUSH1 0xE0 SHL SUB AND PUSH4 0x746E6683 PUSH1 0xE1 SHL OR SWAP1 MSTORE SWAP1 MLOAD PUSH1 0x0 SWAP3 PUSH2 0x7FA SWAP2 PUSH2 0x975 JUMP JUMPDEST PUSH1 0x0 PUSH1 0x40 MLOAD DUP1 DUP4 SUB DUP2 DUP6 GAS DELEGATECALL SWAP2 POP POP RETURNDATASIZE DUP1 PUSH1 0x0 DUP2 EQ PUSH2 0x835 JUMPI PUSH1 0x40 MLOAD SWAP2 POP PUSH1 0x1F NOT PUSH1 0x3F RETURNDATASIZE ADD AND DUP3 ADD PUSH1 0x40 MSTORE RETURNDATASIZE DUP3 MSTORE RETURNDATASIZE PUSH1 0x0 PUSH1 0x20 DUP5 ADD RETURNDATACOPY PUSH2 0x83A JUMP JUMPDEST PUSH1 0x60 SWAP2 POP JUMPDEST POP POP SWAP1 POP DUP1 PUSH2 0x36F JUMPI PUSH1 0x0 DUP1 REVERT JUMPDEST PUSH1 0x0 DUP1 PUSH2 0x858 DUP5 DUP5 DUP4 DUP1 DUP1 PUSH2 0x8CF JUMP JUMPDEST MLOAD SWAP5 SWAP4 POP POP POP POP JUMP JUMPDEST PUSH1 0x1 PUSH1 0x1 PUSH1 0xA0 SHL SUB DUP2 AND PUSH2 0x874 JUMPI PUSH1 0x0 DUP1 REVERT JUMPDEST PUSH1 0x0 DUP1 SLOAD PUSH1 0x40 MLOAD PUSH1 0x1 PUSH1 0x1 PUSH1 0xA0 SHL SUB DUP1 DUP6 AND SWAP4 SWAP3 AND SWAP2 PUSH32 0x8BE0079C531659141344CD1FD0A4F28419497F9722A3DAAFE3B4186F6B6457E0 SWAP2 LOG3 PUSH1 0x0 DUP1 SLOAD PUSH1 0x1 PUSH1 0x1 PUSH1 0xA0 SHL SUB NOT AND PUSH1 0x1 PUSH1 0x1 PUSH1 0xA0 SHL SUB SWAP3 SWAP1 SWAP3 AND SWAP2 SWAP1 SWAP2 OR SWAP1 SSTORE JUMP JUMPDEST PUSH1 0x40 MLOAD DUP5 DUP2 MSTORE DUP4 ISZERO PUSH2 0x8E2 JUMPI DUP3 PUSH1 0x4 DUP3 ADD MSTORE JUMPDEST PUSH1 0x1 DUP5 GT ISZERO PUSH2 0x8F2 JUMPI DUP2 PUSH1 0x24 DUP3 ADD MSTORE JUMPDEST PUSH1 0x0 DUP1 DUP6 PUSH1 0x20 MUL PUSH1 0x4 ADD DUP4 DUP10 GAS DELEGATECALL DUP1 ISZERO PUSH2 0x910 JUMPI RETURNDATASIZE PUSH1 0x0 DUP4 RETURNDATACOPY PUSH2 0x915 JUMP JUMPDEST PUSH1 0x0 DUP3 REVERT JUMPDEST POP SWAP6 SWAP5 POP POP POP POP POP JUMP JUMPDEST PUSH4 0x4E487B71 PUSH1 0xE0 SHL PUSH1 0x0 MSTORE PUSH1 0x1 PUSH1 0x4 MSTORE PUSH1 0x24 PUSH1 0x0 REVERT JUMPDEST DUP2 DUP4 DUP3 CALLDATACOPY PUSH1 0x0 SWAP2 ADD SWAP1 DUP2 MSTORE SWAP2 SWAP1 POP JUMP JUMPDEST PUSH1 0x0 PUSH1 0x20 DUP3 DUP5 SUB SLT ISZERO PUSH2 0x957 JUMPI PUSH1 0x0 DUP1 REVERT JUMPDEST DUP2 CALLDATALOAD PUSH1 0x1 PUSH1 0x1 PUSH1 0xA0 SHL SUB DUP2 AND DUP2 EQ PUSH2 0x96E JUMPI PUSH1 0x0 DUP1 REVERT JUMPDEST SWAP4 SWAP3 POP POP POP JUMP JUMPDEST PUSH1 0x0 DUP3 MLOAD PUSH1 0x0 JUMPDEST DUP2 DUP2 LT ISZERO PUSH2 0x996 JUMPI PUSH1 0x20 DUP2 DUP7 ADD DUP2 ADD MLOAD DUP6 DUP4 ADD MSTORE ADD PUSH2 0x97C JUMP JUMPDEST DUP2 DUP2 GT ISZERO PUSH2 0x9A5 JUMPI PUSH1 0x0 DUP3 DUP6 ADD MSTORE JUMPDEST POP SWAP2 SWAP1 SWAP2 ADD SWAP3 SWAP2 POP POP JUMP INVALID LOG2 PUSH5 0x6970667358 0x22 SLT KECCAK256 0xDF CALLVALUE DUP7 0xBF SLOAD 0xA7 0xB4 GT 0x4F 0xDA PUSH32 0x22C565AD3F801ABF7E8321113F07BB1775896FFB4064736F6C634300080A0033 ",
  "sha1": "b9ba00d85c9895121cce92d683d8712003755a10",
  "source": "// SPDX-License-Identifier: AGPL-3.0-or-later\n\npragma solidity ^0.8.0;\n\n\nimport \"./Upgradeable.sol\";\nimport \"../../zeppelin/utils/Address.sol\";\n\n\n/**\n* @notice ERC897 - ERC DelegateProxy\n*/\ninterface ERCProxy {\n    function proxyType() external pure returns (uint256);\n    function implementation() external view returns (address);\n}\n\n\n/**\n* @notice Proxying requests to other contracts.\n* Client should use ABI of real contract and address of this contract\n*/\ncontract Dispatcher is Upgradeable, ERCProxy {\n    using Address for address;\n\n    event Upgraded(address indexed from, address indexed to, address owner);\n    event RolledBack(address indexed from, address indexed to, address owner);\n\n    /**\n    * @dev Set upgrading status before and after operations\n    */\n    modifier upgrading()\n    {\n        isUpgrade = UPGRADE_TRUE;\n        _;\n        isUpgrade = UPGRADE_FALSE;\n    }\n\n    /**\n    * @param _target Target contract address\n    */\n    constructor(address _target) upgrading {\n        require(_target.isContract());\n        // Checks that target contract inherits Dispatcher state\n        verifyState(_target);\n        // `verifyState` must work with its contract\n        verifyUpgradeableState(_target, _target);\n        target = _target;\n        finishUpgrade();\n        emit Upgraded(address(0), _target, msg.sender);\n    }\n\n    //------------------------ERC897------------------------\n    /**\n     * @notice ERC897, whether it is a forwarding (1) or an upgradeable (2) proxy\n     */\n    function proxyType() external pure override returns (uint256) {\n        return 2;\n    }\n\n    /**\n     * @notice ERC897, gets the address of the implementation where every call will be delegated\n     */\n    function implementation() external view override returns (address) {\n        return target;\n    }\n    //------------------------------------------------------------\n\n    /**\n    * @notice Verify new contract storage and upgrade target\n    * @param _target New target contract address\n    */\n    function upgrade(address _target) public onlyOwner upgrading {\n        require(_target.isContract());\n        // Checks that target contract has \"correct\" (as much as possible) state layout\n        verifyState(_target);\n        //`verifyState` must work with its contract\n        verifyUpgradeableState(_target, _target);\n        if (target.isContract()) {\n            verifyUpgradeableState(target, _target);\n        }\n        previousTarget = target;\n        target = _target;\n        finishUpgrade();\n        emit Upgraded(previousTarget, _target, msg.sender);\n    }\n\n    /**\n    * @notice Rollback to previous target\n    * @dev Test storage carefully before upgrade again after rollback\n    */\n    function rollback() public onlyOwner upgrading {\n        require(previousTarget.isContract());\n        emit RolledBack(target, previousTarget, msg.sender);\n        // should be always true because layout previousTarget -> target was already checked\n        // but `verifyState` is not 100% accurate so check again\n        verifyState(previousTarget);\n        if (target.isContract()) {\n            verifyUpgradeableState(previousTarget, target);\n        }\n        target = previousTarget;\n        previousTarget = address(0);\n        finishUpgrade();\n    }\n\n    /**\n    * @dev Call verifyState method for Upgradeable contract\n    */\n    function verifyUpgradeableState(address _from, address _to) private {\n        (bool callSuccess,) = _from.delegatecall(abi.encodeWithSelector(this.verifyState.selector, _to));\n        require(callSuccess);\n    }\n\n    /**\n    * @dev Call finishUpgrade method from the Upgradeable contract\n    */\n    function finishUpgrade() private {\n        (bool callSuccess,) = target.delegatecall(abi.encodeWithSelector(this.finishUpgrade.selector, target));\n        require(callSuccess);\n    }\n\n    function verifyState(address _testTarget) public override onlyWhileUpgrading {\n        //checks equivalence accessing state through new contract and current storage\n        require(address(uint160(delegateGet(_testTarget, this.owner.selector))) == owner());\n        require(address(uint160(delegateGet(_testTarget, this.target.selector))) == target);\n        require(address(uint160(delegateGet(_testTarget, this.previousTarget.selector))) == previousTarget);\n        require(uint8(delegateGet(_testTarget, this.isUpgrade.selector)) == isUpgrade);\n    }\n\n    /**\n    * @dev Override function using empty code because no reason to call this function in Dispatcher\n    */\n    function finishUpgrade(address) public override {}\n\n    /**\n    * @dev Receive function sends empty request to the target contract\n    */\n    receive() external payable {\n        assert(target.isContract());\n        // execute receive function from target contract using storage of the dispatcher\n        (bool callSuccess,) = target.delegatecall(\"\");\n        if (!callSuccess) {\n            revert();\n        }\n    }\n\n    /**\n    * @dev Fallback function sends all requests to the target contract\n    */\n    fallback() external payable {\n        assert(target.isContract());\n        // execute requested function from target contract using storage of the dispatcher\n        (bool callSuccess,) = target.delegatecall(msg.data);\n        if (callSuccess) {\n            // copy result of the request to the return data\n            // we can use the second return value from `delegatecall` (bytes memory)\n            // but it will consume a little more gas\n            assembly {\n                returndatacopy(0x0, 0x0, returndatasize())\n                return(0x0, returndatasize())\n            }\n        } else {\n            revert();\n        }\n    }\n\n}\n",
  "sourcePath": "contracts/contracts/proxy/Dispatcher.sol",
  "type": "contract"
}