{
  "abi": [
    {
      "inputs": [
        {
          "internalType": "contract IStakingEscrow",
          "name": "_escrowDispatcher",
          "type": "address"
        },
        {
          "internalType": "contract IStakingEscrow",
          "name": "_escrowImplementation",
          "type": "address"
        }
      ],
      "stateMutability": "nonpayable",
      "type": "constructor"
    },
    {
      "anonymous": false,
      "inputs": [
        {
          "indexed": true,
          "internalType": "bytes16",
          "name": "policyId",
          "type": "bytes16"
        },
        {
          "indexed": true,
          "internalType": "address",
          "name": "sender",
          "type": "address"
        },
        {
          "indexed": true,
          "internalType": "address",
          "name": "node",
          "type": "address"
        },
        {
          "indexed": false,
          "internalType": "uint256",
          "name": "value",
          "type": "uint256"
        }
      ],
      "name": "ArrangementRevoked",
      "type": "event"
    },
    {
      "anonymous": false,
      "inputs": [
        {
          "indexed": true,
          "internalType": "address",
          "name": "sender",
          "type": "address"
        },
        {
          "indexed": false,
          "internalType": "uint256",
          "name": "min",
          "type": "uint256"
        },
        {
          "indexed": false,
          "internalType": "uint256",
          "name": "defaultValue",
          "type": "uint256"
        },
        {
          "indexed": false,
          "internalType": "uint256",
          "name": "max",
          "type": "uint256"
        }
      ],
      "name": "FeeRateRangeSet",
      "type": "event"
    },
    {
      "anonymous": false,
      "inputs": [
        {
          "indexed": true,
          "internalType": "address",
          "name": "node",
          "type": "address"
        },
        {
          "indexed": false,
          "internalType": "uint256",
          "name": "value",
          "type": "uint256"
        }
      ],
      "name": "MinFeeRateSet",
      "type": "event"
    },
    {
      "anonymous": false,
      "inputs": [
        {
          "indexed": true,
          "internalType": "address",
          "name": "previousOwner",
          "type": "address"
        },
        {
          "indexed": true,
          "internalType": "address",
          "name": "newOwner",
          "type": "address"
        }
      ],
      "name": "OwnershipTransferred",
      "type": "event"
    },
    {
      "anonymous": false,
      "inputs": [
        {
          "indexed": true,
          "internalType": "bytes16",
          "name": "policyId",
          "type": "bytes16"
        },
        {
          "indexed": true,
          "internalType": "address",
          "name": "sponsor",
          "type": "address"
        },
        {
          "indexed": true,
          "internalType": "address",
          "name": "owner",
          "type": "address"
        },
        {
          "indexed": false,
          "internalType": "uint256",
          "name": "feeRate",
          "type": "uint256"
        },
        {
          "indexed": false,
          "internalType": "uint64",
          "name": "startTimestamp",
          "type": "uint64"
        },
        {
          "indexed": false,
          "internalType": "uint64",
          "name": "endTimestamp",
          "type": "uint64"
        },
        {
          "indexed": false,
          "internalType": "uint256",
          "name": "numberOfNodes",
          "type": "uint256"
        }
      ],
      "name": "PolicyCreated",
      "type": "event"
    },
    {
      "anonymous": false,
      "inputs": [
        {
          "indexed": true,
          "internalType": "bytes16",
          "name": "policyId",
          "type": "bytes16"
        },
        {
          "indexed": true,
          "internalType": "address",
          "name": "sender",
          "type": "address"
        },
        {
          "indexed": false,
          "internalType": "uint256",
          "name": "value",
          "type": "uint256"
        }
      ],
      "name": "PolicyRevoked",
      "type": "event"
    },
    {
      "anonymous": false,
      "inputs": [
        {
          "indexed": true,
          "internalType": "bytes16",
          "name": "policyId",
          "type": "bytes16"
        },
        {
          "indexed": true,
          "internalType": "address",
          "name": "sender",
          "type": "address"
        },
        {
          "indexed": true,
          "internalType": "address",
          "name": "node",
          "type": "address"
        },
        {
          "indexed": false,
          "internalType": "uint256",
          "name": "value",
          "type": "uint256"
        }
      ],
      "name": "RefundForArrangement",
      "type": "event"
    },
    {
      "anonymous": false,
      "inputs": [
        {
          "indexed": true,
          "internalType": "bytes16",
          "name": "policyId",
          "type": "bytes16"
        },
        {
          "indexed": true,
          "internalType": "address",
          "name": "sender",
          "type": "address"
        },
        {
          "indexed": false,
          "internalType": "uint256",
          "name": "value",
          "type": "uint256"
        }
      ],
      "name": "RefundForPolicy",
      "type": "event"
    },
    {
      "anonymous": false,
      "inputs": [
        {
          "indexed": true,
          "internalType": "address",
          "name": "testTarget",
          "type": "address"
        },
        {
          "indexed": false,
          "internalType": "address",
          "name": "sender",
          "type": "address"
        }
      ],
      "name": "StateVerified",
      "type": "event"
    },
    {
      "anonymous": false,
      "inputs": [
        {
          "indexed": true,
          "internalType": "address",
          "name": "target",
          "type": "address"
        },
        {
          "indexed": false,
          "internalType": "address",
          "name": "sender",
          "type": "address"
        }
      ],
      "name": "UpgradeFinished",
      "type": "event"
    },
    {
      "anonymous": false,
      "inputs": [
        {
          "indexed": true,
          "internalType": "address",
          "name": "node",
          "type": "address"
        },
        {
          "indexed": true,
          "internalType": "address",
          "name": "recipient",
          "type": "address"
        },
        {
          "indexed": false,
          "internalType": "uint256",
          "name": "value",
          "type": "uint256"
        }
      ],
      "name": "Withdrawn",
      "type": "event"
    },
    {
      "inputs": [],
      "name": "DEFAULT_FEE_DELTA",
      "outputs": [
        {
          "internalType": "int256",
          "name": "",
          "type": "int256"
        }
      ],
      "stateMutability": "view",
      "type": "function"
    },
    {
      "inputs": [
        {
          "internalType": "bytes16",
          "name": "_policyId",
          "type": "bytes16"
        },
        {
          "internalType": "address",
          "name": "_node",
          "type": "address"
        }
      ],
      "name": "calculateRefundValue",
      "outputs": [
        {
          "internalType": "uint256",
          "name": "refundValue",
          "type": "uint256"
        }
      ],
      "stateMutability": "view",
      "type": "function"
    },
    {
      "inputs": [
        {
          "internalType": "bytes16",
          "name": "_policyId",
          "type": "bytes16"
        }
      ],
      "name": "calculateRefundValue",
      "outputs": [
        {
          "internalType": "uint256",
          "name": "refundValue",
          "type": "uint256"
        }
      ],
      "stateMutability": "view",
      "type": "function"
    },
    {
      "inputs": [
        {
          "internalType": "bytes16[]",
          "name": "_policyIds",
          "type": "bytes16[]"
        },
        {
          "internalType": "address",
          "name": "_policyOwner",
          "type": "address"
        },
        {
          "internalType": "uint64",
          "name": "_endTimestamp",
          "type": "uint64"
        },
        {
          "internalType": "address[]",
          "name": "_nodes",
          "type": "address[]"
        }
      ],
      "name": "createPolicies",
      "outputs": [],
      "stateMutability": "payable",
      "type": "function"
    },
    {
      "inputs": [
        {
          "internalType": "bytes16",
          "name": "_policyId",
          "type": "bytes16"
        },
        {
          "internalType": "address",
          "name": "_policyOwner",
          "type": "address"
        },
        {
          "internalType": "uint64",
          "name": "_endTimestamp",
          "type": "uint64"
        },
        {
          "internalType": "address[]",
          "name": "_nodes",
          "type": "address[]"
        }
      ],
      "name": "createPolicy",
      "outputs": [],
      "stateMutability": "payable",
      "type": "function"
    },
    {
      "inputs": [],
      "name": "escrow",
      "outputs": [
        {
          "internalType": "contract IStakingEscrow",
          "name": "",
          "type": "address"
        }
      ],
      "stateMutability": "view",
      "type": "function"
    },
    {
      "inputs": [],
      "name": "feeRateRange",
      "outputs": [
        {
          "internalType": "uint128",
          "name": "min",
          "type": "uint128"
        },
        {
          "internalType": "uint128",
          "name": "defaultValue",
          "type": "uint128"
        },
        {
          "internalType": "uint128",
          "name": "max",
          "type": "uint128"
        }
      ],
      "stateMutability": "view",
      "type": "function"
    },
    {
      "inputs": [
        {
          "internalType": "address",
          "name": "_target",
          "type": "address"
        }
      ],
      "name": "finishUpgrade",
      "outputs": [],
      "stateMutability": "nonpayable",
      "type": "function"
    },
    {
      "inputs": [],
      "name": "genesisSecondsPerPeriod",
      "outputs": [
        {
          "internalType": "uint32",
          "name": "",
          "type": "uint32"
        }
      ],
      "stateMutability": "view",
      "type": "function"
    },
    {
      "inputs": [
        {
          "internalType": "bytes16",
          "name": "_policyId",
          "type": "bytes16"
        },
        {
          "internalType": "uint256",
          "name": "_index",
          "type": "uint256"
        }
      ],
      "name": "getArrangementInfo",
      "outputs": [
        {
          "internalType": "address",
          "name": "node",
          "type": "address"
        },
        {
          "internalType": "uint256",
          "name": "indexOfDowntimePeriods",
          "type": "uint256"
        },
        {
          "internalType": "uint16",
          "name": "lastRefundedPeriod",
          "type": "uint16"
        }
      ],
      "stateMutability": "view",
      "type": "function"
    },
    {
      "inputs": [
        {
          "internalType": "bytes16",
          "name": "_policyId",
          "type": "bytes16"
        }
      ],
      "name": "getArrangementsLength",
      "outputs": [
        {
          "internalType": "uint256",
          "name": "",
          "type": "uint256"
        }
      ],
      "stateMutability": "view",
      "type": "function"
    },
    {
      "inputs": [],
      "name": "getCurrentPeriod",
      "outputs": [
        {
          "internalType": "uint16",
          "name": "",
          "type": "uint16"
        }
      ],
      "stateMutability": "view",
      "type": "function"
    },
    {
      "inputs": [
        {
          "internalType": "address",
          "name": "_node",
          "type": "address"
        }
      ],
      "name": "getMinFeeRate",
      "outputs": [
        {
          "internalType": "uint256",
          "name": "",
          "type": "uint256"
        }
      ],
      "stateMutability": "view",
      "type": "function"
    },
    {
      "inputs": [
        {
          "internalType": "address",
          "name": "_node",
          "type": "address"
        },
        {
          "internalType": "uint16",
          "name": "_period",
          "type": "uint16"
        }
      ],
      "name": "getNodeFeeDelta",
      "outputs": [
        {
          "internalType": "int256",
          "name": "",
          "type": "int256"
        }
      ],
      "stateMutability": "view",
      "type": "function"
    },
    {
      "inputs": [
        {
          "internalType": "bytes16",
          "name": "_policyId",
          "type": "bytes16"
        }
      ],
      "name": "getPolicyOwner",
      "outputs": [
        {
          "internalType": "address",
          "name": "",
          "type": "address"
        }
      ],
      "stateMutability": "view",
      "type": "function"
    },
    {
      "inputs": [
        {
          "internalType": "bytes16",
          "name": "_policyId",
          "type": "bytes16"
        },
        {
          "internalType": "address",
          "name": "_node",
          "type": "address"
        }
      ],
      "name": "getRevocationHash",
      "outputs": [
        {
          "internalType": "bytes32",
          "name": "",
          "type": "bytes32"
        }
      ],
      "stateMutability": "view",
      "type": "function"
    },
    {
      "inputs": [],
      "name": "isOwner",
      "outputs": [
        {
          "internalType": "bool",
          "name": "",
          "type": "bool"
        }
      ],
      "stateMutability": "view",
      "type": "function"
    },
    {
      "inputs": [],
      "name": "isUpgrade",
      "outputs": [
        {
          "internalType": "uint8",
          "name": "",
          "type": "uint8"
        }
      ],
      "stateMutability": "view",
      "type": "function"
    },
    {
      "inputs": [
        {
          "internalType": "address",
          "name": "_node",
          "type": "address"
        }
      ],
      "name": "migrate",
      "outputs": [],
      "stateMutability": "nonpayable",
      "type": "function"
    },
    {
      "inputs": [
        {
          "internalType": "address",
          "name": "",
          "type": "address"
        }
      ],
      "name": "nodes",
      "outputs": [
        {
          "internalType": "uint128",
          "name": "fee",
          "type": "uint128"
        },
        {
          "internalType": "uint16",
          "name": "previousFeePeriod",
          "type": "uint16"
        },
        {
          "internalType": "uint256",
          "name": "feeRate",
          "type": "uint256"
        },
        {
          "internalType": "uint256",
          "name": "minFeeRate",
          "type": "uint256"
        }
      ],
      "stateMutability": "view",
      "type": "function"
    },
    {
      "inputs": [],
      "name": "owner",
      "outputs": [
        {
          "internalType": "address",
          "name": "",
          "type": "address"
        }
      ],
      "stateMutability": "view",
      "type": "function"
    },
    {
      "inputs": [
        {
          "internalType": "address",
          "name": "_node",
          "type": "address"
        },
        {
          "internalType": "uint16",
          "name": "_processedPeriod1",
          "type": "uint16"
        },
        {
          "internalType": "uint16",
          "name": "_processedPeriod2",
          "type": "uint16"
        },
        {
          "internalType": "uint16",
          "name": "_periodToSetDefault",
          "type": "uint16"
        }
      ],
      "name": "ping",
      "outputs": [],
      "stateMutability": "nonpayable",
      "type": "function"
    },
    {
      "inputs": [
        {
          "internalType": "bytes16",
          "name": "",
          "type": "bytes16"
        }
      ],
      "name": "policies",
      "outputs": [
        {
          "internalType": "bool",
          "name": "disabled",
          "type": "bool"
        },
        {
          "internalType": "address payable",
          "name": "sponsor",
          "type": "address"
        },
        {
          "internalType": "address",
          "name": "owner",
          "type": "address"
        },
        {
          "internalType": "uint128",
          "name": "feeRate",
          "type": "uint128"
        },
        {
          "internalType": "uint64",
          "name": "startTimestamp",
          "type": "uint64"
        },
        {
          "internalType": "uint64",
          "name": "endTimestamp",
          "type": "uint64"
        },
        {
          "internalType": "uint256",
          "name": "reservedSlot1",
          "type": "uint256"
        },
        {
          "internalType": "uint256",
          "name": "reservedSlot2",
          "type": "uint256"
        },
        {
          "internalType": "uint256",
          "name": "reservedSlot3",
          "type": "uint256"
        },
        {
          "internalType": "uint256",
          "name": "reservedSlot4",
          "type": "uint256"
        },
        {
          "internalType": "uint256",
          "name": "reservedSlot5",
          "type": "uint256"
        }
      ],
      "stateMutability": "view",
      "type": "function"
    },
    {
      "inputs": [],
      "name": "previousTarget",
      "outputs": [
        {
          "internalType": "address",
          "name": "",
          "type": "address"
        }
      ],
      "stateMutability": "view",
      "type": "function"
    },
    {
      "inputs": [
        {
          "internalType": "bytes16",
          "name": "_policyId",
          "type": "bytes16"
        },
        {
          "internalType": "address",
          "name": "_node",
          "type": "address"
        }
      ],
      "name": "refund",
      "outputs": [
        {
          "internalType": "uint256",
          "name": "refundValue",
          "type": "uint256"
        }
      ],
      "stateMutability": "nonpayable",
      "type": "function"
    },
    {
      "inputs": [
        {
          "internalType": "bytes16",
          "name": "_policyId",
          "type": "bytes16"
        }
      ],
      "name": "refund",
      "outputs": [],
      "stateMutability": "nonpayable",
      "type": "function"
    },
    {
      "inputs": [
        {
          "internalType": "address",
          "name": "_node",
          "type": "address"
        },
        {
          "internalType": "uint16",
          "name": "_period",
          "type": "uint16"
        }
      ],
      "name": "register",
      "outputs": [],
      "stateMutability": "nonpayable",
      "type": "function"
    },
    {
      "inputs": [],
      "name": "renounceOwnership",
      "outputs": [],
      "stateMutability": "nonpayable",
      "type": "function"
    },
    {
      "inputs": [],
      "name": "resetTimestamp",
      "outputs": [
        {
          "internalType": "uint64",
          "name": "",
          "type": "uint64"
        }
      ],
      "stateMutability": "view",
      "type": "function"
    },
    {
      "inputs": [
        {
          "internalType": "bytes16",
          "name": "_policyId",
          "type": "bytes16"
        },
        {
          "internalType": "address",
          "name": "_node",
          "type": "address"
        },
        {
          "internalType": "bytes",
          "name": "_signature",
          "type": "bytes"
        }
      ],
      "name": "revoke",
      "outputs": [
        {
          "internalType": "uint256",
          "name": "refundValue",
          "type": "uint256"
        }
      ],
      "stateMutability": "nonpayable",
      "type": "function"
    },
    {
      "inputs": [
        {
          "internalType": "bytes16",
          "name": "_policyId",
          "type": "bytes16"
        },
        {
          "internalType": "address",
          "name": "_node",
          "type": "address"
        }
      ],
      "name": "revokeArrangement",
      "outputs": [
        {
          "internalType": "uint256",
          "name": "refundValue",
          "type": "uint256"
        }
      ],
      "stateMutability": "nonpayable",
      "type": "function"
    },
    {
      "inputs": [
        {
          "internalType": "bytes16",
          "name": "_policyId",
          "type": "bytes16"
        }
      ],
      "name": "revokePolicy",
      "outputs": [
        {
          "internalType": "uint256",
          "name": "refundValue",
          "type": "uint256"
        }
      ],
      "stateMutability": "nonpayable",
      "type": "function"
    },
    {
      "inputs": [],
      "name": "secondsPerPeriod",
      "outputs": [
        {
          "internalType": "uint32",
          "name": "",
          "type": "uint32"
        }
      ],
      "stateMutability": "view",
      "type": "function"
    },
    {
      "inputs": [
        {
          "internalType": "uint128",
          "name": "_min",
          "type": "uint128"
        },
        {
          "internalType": "uint128",
          "name": "_default",
          "type": "uint128"
        },
        {
          "internalType": "uint128",
          "name": "_max",
          "type": "uint128"
        }
      ],
      "name": "setFeeRateRange",
      "outputs": [],
      "stateMutability": "nonpayable",
      "type": "function"
    },
    {
      "inputs": [
        {
          "internalType": "uint256",
          "name": "_minFeeRate",
          "type": "uint256"
        }
      ],
      "name": "setMinFeeRate",
      "outputs": [],
      "stateMutability": "nonpayable",
      "type": "function"
    },
    {
      "inputs": [],
      "name": "target",
      "outputs": [
        {
          "internalType": "address",
          "name": "",
          "type": "address"
        }
      ],
      "stateMutability": "view",
      "type": "function"
    },
    {
      "inputs": [
        {
          "internalType": "address",
          "name": "newOwner",
          "type": "address"
        }
      ],
      "name": "transferOwnership",
      "outputs": [],
      "stateMutability": "nonpayable",
      "type": "function"
    },
    {
      "inputs": [
        {
          "internalType": "address",
          "name": "_testTarget",
          "type": "address"
        }
      ],
      "name": "verifyState",
      "outputs": [],
      "stateMutability": "nonpayable",
      "type": "function"
    },
    {
      "inputs": [],
      "name": "withdraw",
      "outputs": [
        {
          "internalType": "uint256",
          "name": "",
          "type": "uint256"
        }
      ],
      "stateMutability": "nonpayable",
      "type": "function"
    },
    {
      "inputs": [
        {
          "internalType": "address payable",
          "name": "_recipient",
          "type": "address"
        }
      ],
      "name": "withdraw",
      "outputs": [
        {
          "internalType": "uint256",
          "name": "",
          "type": "uint256"
        }
      ],
      "stateMutability": "nonpayable",
      "type": "function"
    }
  ],
  "bytecode": "60e06040523480156200001157600080fd5b5060405162004138380380620041388339810160408190526200003491620002d8565b600080546001600160a01b0319163390811782556040519091907f8be0079c531659141344cd1fd0a4f28419497f9722a3daafe3b4186f6b6457e0908290a3816001600160a01b03166080816001600160a01b0316815250506000816001600160a01b031663407f80016040518163ffffffff1660e01b8152600401602060405180830381865afa158015620000ce573d6000803e3d6000fd5b505050506040513d601f19601f82011682018060405250810190620000f4919062000310565b905060008163ffffffff16116200010a57600080fd5b8063ffffffff1660c08163ffffffff16815250506000826001600160a01b031663d808a4ee6040518163ffffffff1660e01b8152600401602060405180830381865afa1580156200015f573d6000803e3d6000fd5b505050506040513d601f19601f8201168201806040525081019062000185919062000310565b905060008163ffffffff16116200019b57600080fd5b63ffffffff811660a0526001600160a01b0384811690841614620002b1578163ffffffff16846001600160a01b031663407f80016040518163ffffffff1660e01b8152600401602060405180830381865afa158015620001ff573d6000803e3d6000fd5b505050506040513d601f19601f8201168201806040525081019062000225919062000310565b63ffffffff161480620002a757508063ffffffff16846001600160a01b031663407f80016040518163ffffffff1660e01b8152600401602060405180830381865afa15801562000279573d6000803e3d6000fd5b505050506040513d601f19601f820116820180604052508101906200029f919062000310565b63ffffffff16145b620002b157600080fd5b505050506200033f565b80516001600160a01b0381168114620002d357600080fd5b919050565b60008060408385031215620002ec57600080fd5b620002f783620002bb565b91506200030760208401620002bb565b90509250929050565b6000602082840312156200032357600080fd5b815163ffffffff811681146200033857600080fd5b9392505050565b60805160a05160c051613d60620003d860003960008181610356015281816109f501528181610a790152818161105301528181611d4701528181612e4c01528181613039015261309a01526000818161083f0152612e730152600081816108dc01528181610f72015281816113f2015281816118500152818161311d015281816131c60152818161327a015261339f0152613d606000f3fe60806040526004361061023b5760003560e01c80638c316b901161012e578063ce5494bb116100ab578063e2fdcc171161006f578063e2fdcc17146108ca578063e38a303b146108fe578063e665830d14610931578063e8dccd0614610951578063f2fde38b1461097157600080fd5b8063ce5494bb146107ed578063d4b839921461080d578063d808a4ee1461082d578063d845f4fb14610861578063dfdecfaf146108aa57600080fd5b8063a2d1d5e2116100f2578063a2d1d5e21461074d578063a87d40d91461076d578063b46ffb451461078d578063b9626d21146107ad578063cbf12f2a146107cd57600080fd5b80638c316b90146106a45780638d7fd2fa146106c45780638da5cb5b146106e45780638e81ca5a146107025780638f32d59b1461072257600080fd5b8063631722f2116101bc578063713c0e5711610180578063713c0e571461052e578063715018a61461063c57806372be8d8d1461065157806381e742a114610671578063889ddd1a1461068457600080fd5b8063631722f21461042057806363c509d51461044057806365a9af871461046057806365af62c3146104985780636bd2af57146104f457600080fd5b8063407f800111610203578063407f8001146103445780634b2cd1181461038d5780634b8fed4f146103c557806351cff8d9146103e057806358cf15fb1461040057600080fd5b8063076421e814610240578063086146d214610273578063189a5a171461029b5780633735e1061461031a5780633ccfd60b1461032f575b600080fd5b34801561024c57600080fd5b5061026061025b3660046135b1565b610991565b6040519081526020015b60405180910390f35b34801561027f57600080fd5b506102886109e9565b60405161ffff909116815260200161026a565b3480156102a757600080fd5b506102ed6102b6366004613640565b6005602052600090815260409020805460018201546002909201546001600160801b03821692600160801b90920461ffff16919084565b604080516001600160801b03909516855261ffff909316602085015291830152606082015260800161026a565b61032d6103283660046136bf565b610a20565b005b34801561033b57600080fd5b50610260610cc2565b34801561035057600080fd5b506103787f000000000000000000000000000000000000000000000000000000000000000081565b60405163ffffffff909116815260200161026a565b34801561039957600080fd5b506002546103ad906001600160a01b031681565b6040516001600160a01b03909116815260200161026a565b3480156103d157600080fd5b506102606001600160ff1b0381565b3480156103ec57600080fd5b506102606103fb366004613640565b610cc9565b34801561040c57600080fd5b506103ad61041b366004613754565b610d55565b34801561042c57600080fd5b5061032d61043b366004613786565b610dac565b34801561044c57600080fd5b5061026061045b3660046137c9565b610e90565b34801561046c57600080fd5b50600854610480906001600160401b031681565b6040516001600160401b03909116815260200161026a565b3480156104a457600080fd5b506006546007546104ca916001600160801b0380821692600160801b9092048116911683565b604080516001600160801b039485168152928416602084015292169181019190915260600161026a565b34801561050057600080fd5b5061026061050f366004613754565b6001600160801b03191660009081526004602052604090206008015490565b34801561053a57600080fd5b506105c7610549366004613754565b60046020819052600091825260409091208054600182015460028301546003840154948401546005850154600686015460079096015460ff8616976001600160a01b0361010090970487169795909616956001600160801b038516956001600160401b03600160801b8704811696600160c01b90041694919391928b565b604080519b15158c526001600160a01b039a8b1660208d015299909816988a01989098526001600160801b0390951660608901526001600160401b0393841660808901529290911660a087015260c086015260e08501526101008401526101208301919091526101408201526101600161026a565b34801561064857600080fd5b5061032d610f06565b34801561065d57600080fd5b5061032d61066c366004613810565b610f67565b61032d61067f36600461383e565b611006565b34801561069057600080fd5b5061026061069f366004613640565b6111e5565b3480156106b057600080fd5b5061032d6106bf3660046138b5565b611206565b3480156106d057600080fd5b506102606106df3660046137c9565b611302565b3480156106f057600080fd5b506000546001600160a01b03166103ad565b34801561070e57600080fd5b5061026061071d366004613810565b611340565b34801561072e57600080fd5b506000546001600160a01b03163314604051901515815260200161026a565b34801561075957600080fd5b50610260610768366004613754565b61139c565b34801561077957600080fd5b506102606107883660046137c9565b6113c8565b34801561079957600080fd5b5061032d6107a83660046138ce565b6113e7565b3480156107b957600080fd5b5061032d6107c8366004613640565b6114d4565b3480156107d957600080fd5b506102606107e83660046137c9565b6117f5565b3480156107f957600080fd5b5061032d610808366004613640565b611845565b34801561081957600080fd5b506001546103ad906001600160a01b031681565b34801561083957600080fd5b506103787f000000000000000000000000000000000000000000000000000000000000000081565b34801561086d57600080fd5b5061088161087c36600461392a565b6118f5565b604080516001600160a01b039094168452602084019290925261ffff169082015260600161026a565b3480156108b657600080fd5b5061032d6108c5366004613754565b611963565b3480156108d657600080fd5b506103ad7f000000000000000000000000000000000000000000000000000000000000000081565b34801561090a57600080fd5b5060025461091f90600160a01b900460ff1681565b60405160ff909116815260200161026a565b34801561093d57600080fd5b5061026061094c366004613754565b6119bf565b34801561095d57600080fd5b5061032d61096c366004613640565b6119cc565b34801561097d57600080fd5b5061032d61098c366004613640565b611c84565b60006109d4858585858080601f016020809104026020016040519081016040528093929190818152602001838380828437600092019190915250611ca792505050565b6109e085856001611ce9565b95945050505050565b6000610a1b63ffffffff7f00000000000000000000000000000000000000000000000000000000000000001642613980565b905090565b42836001600160401b0316118015610a385750600034115b8015610a445750600185115b610a4d57600080fd5b6001600160801b03471115610a6157600080fd5b6000610a6b6109e9565b90506000610a9f63ffffffff7f00000000000000000000000000000000000000000000000000000000000000001686613994565b610aaa9060016139ba565b90506000610ab883836139e0565b61ffff16905060008882610acc3488612267565b610ad69190613980565b610ae09190613980565b90506000816001600160801b0316118015610b225750348986610b0c856001600160801b038616613a03565b610b169190613a03565b610b209190613a03565b145b610b2b57600080fd5b60005b89811015610c46576000610b6b8c8c84818110610b4d57610b4d613a22565b9050602002016020810190610b629190613754565b8b8b868b612273565b905060005b87811015610c31578160080160405180606001604052808b8b85818110610b9957610b99613a22565b9050602002016020810190610bae9190613640565b6001600160a01b03908116825260006020808401829052604093840182905285546001808201885596835291819020855160039093020180546001600160a01b031916929093169190911782558301519381019390935501516002909101805461ffff191661ffff90921691909117905580610c2981613a38565b915050610b70565b50508080610c3e90613a38565b915050610b2e565b506000610c5c6001600160801b0383168b613a03565b905060005b86811015610cb4576000888883818110610c7d57610c7d613a22565b9050602002016020810190610c929190613640565b9050610ca18787838787612412565b5080610cac81613a38565b915050610c61565b505050505050505050505050565b6000610a1b335b33600090815260056020526040812080546001600160801b031680610ced57600080fd5b81546001600160801b0319168255610d0e6001600160a01b038516826125e6565b6040518181526001600160a01b0385169033907fd1c19fbcd4551a5edfb66d43d2e337c04837afda3482b42bdf569a8fccdae5fb9060200160405180910390a39392505050565b6001600160801b03198116600090815260046020526040812060018101546001600160a01b031615610d945760018101546001600160a01b0316610da5565b805461010090046001600160a01b03165b9392505050565b6000546001600160a01b03163314610dc357600080fd5b816001600160801b0316836001600160801b031611158015610df75750806001600160801b0316826001600160801b031611155b610e0057600080fd5b60408051606080820183526001600160801b038681168084528682166020808601829052928716948601859052600160801b81028217600655600780546001600160801b031916861790558551918252918101919091529283019190915233917f3a93fb7c2385d29e9693a6edcd81c4cee090101cb783dc2f17a7814b79a2ecdc910160405180910390a2505050565b60006001600160a01b038216610ea557600080fd5b6001600160801b03198316600090815260046020526040902060018101546001600160a01b0316331480610ee75750805461010090046001600160a01b031633145b610ef057600080fd5b610efc84846000611ce9565b9150505b92915050565b6000546001600160a01b03163314610f1d57600080fd5b600080546040516001600160a01b03909116907f8be0079c531659141344cd1fd0a4f28419497f9722a3daafe3b4186f6b6457e0908390a3600080546001600160a01b0319169055565b336001600160a01b037f00000000000000000000000000000000000000000000000000000000000000001614610f9c57600080fd5b6001600160a01b03821660009081526005602052604090208054600160801b900461ffff16158015610fdc5750610fd16109e9565b61ffff168261ffff16105b610fe557600080fd5b805461ffff909216600160801b0261ffff60801b1990921691909117905550565b42836001600160401b031611801561101e5750600034115b61102757600080fd5b6001600160801b0347111561103b57600080fd5b60006110456109e9565b9050600061107963ffffffff7f00000000000000000000000000000000000000000000000000000000000000001686613994565b6110849060016139ba565b9050600061109283836139e0565b61ffff1690506000816110a53487612267565b6110af9190613980565b90506000816001600160801b03161180156110e6575034856110da846001600160801b038516613a03565b6110e49190613a03565b145b6110ef57600080fd5b60006110fe8a8a8a858a612273565b905060005b868110156111d857600088888381811061111f5761111f613a22565b90506020020160208101906111349190613640565b905061114c87878387886001600160801b0316612412565b604080516060810182526001600160a01b0392831681526000602080830182815293830182815260088801805460018082018355918552929093209351600390920290930180546001600160a01b03191691909516178455915191830191909155516002909101805461ffff191661ffff909216919091179055806111d081613a38565b915050611103565b5050505050505050505050565b6001600160a01b0381166000908152600560205260408120610da5816126ff565b6006546001600160801b0316811080159061122c57506007546001600160801b03168111155b6112a35760405162461bcd60e51b815260206004820152603f60248201527f546865207374616b65722773206d696e206665652072617465206d757374206660448201527f616c6c2077697468696e2074686520676c6f62616c206665652072616e67650060648201526084015b60405180910390fd5b33600090815260056020526040902060028101548214156112c2575050565b6002810182905560405182815233907f6b9024cc1bf5710f290be788dca9886db7a3d9be0df0855bfa991dbf26a256bc9060200160405180910390a25050565b60006001600160a01b03821661131757600080fd5b3361132184610d55565b6001600160a01b03161461133457600080fd5b610da583836001611ce9565b60006001600160a01b03831615801561135d57508161ffff16600b145b1561136a57506037610f00565b506001600160a01b038216600090815260056020908152604080832061ffff8516845260040190915290205492915050565b6000336113a883610d55565b6001600160a01b0316146113bb57600080fd5b610f008260006001611ce9565b60006001600160a01b0382166113dd57600080fd5b610da58383612769565b336001600160a01b037f0000000000000000000000000000000000000000000000000000000000000000161461141c57600080fd5b6001600160a01b038416600090815260056020526040902061143c6109e9565b815461ffff918216600160801b909104909116111561145a57600080fd5b61ffff84161561146e5761146e81856128ad565b61ffff8316156114825761148281846128ad565b61ffff8216158015906114a8575061ffff82166000908152600482016020526040902054155b156114cd5761ffff8216600090815260048201602052604090206001600160ff1b0390555b5050505050565b6114dd816129f2565b6008546001600160401b03166114fa826365a9af8760e01b612a4c565b6001600160401b03161461150d57600080fd5b600061151882612a65565b80516006549192506001600160801b03918216911614801561155357506020810151600654600160801b90046001600160801b039081169116145b8015611571575060408101516007546001600160801b039081169116145b61157a57600080fd5b600080805260046020527f17ef568e3e12ab5b9c7254a8d58478811de00f9e6eb34345acd53bf8fd09d3ec906115b08482612a96565b8254602082015191925061010090046001600160a01b0390811691161480156115ed5750600182015460408201516001600160a01b039081169116145b801561160d5750600282015460608201516001600160801b039081169116145b80156116345750600282015460808201516001600160401b03908116600160801b90920416145b801561165b5750600282015460a08201516001600160401b03908116600160c01b90920416145b8015611671575081548151151560ff9091161515145b61167a57600080fd5b600882015461169285636bd2af5760e01b6000612b52565b1461169c57600080fd5b600882015415611729576000826008016000815481106116be576116be613a22565b60009182526020822060039091020191506116da868280612b6d565b825481519192506001600160a01b039182169116148015611702575081600101548160200151145b801561171d57506002820154604082015161ffff9081169116145b61172657600080fd5b50505b600080805260056020527f05b8ccbb9d4d8fb16ea74ce3c29a41f1b461fbdaff4714a0d9a8eb05499746bc9061175f8682612ba9565b825481519192506001600160801b039182169116148015611787575081600101548160400151145b80156117a657508154602082015161ffff908116600160801b90920416145b80156117b9575081600201548160600151145b6117c257600080fd5b6117ce6000600b611340565b6117e387634740e52d60e11b6000600b612beb565b146117ed57600080fd5b505050505050565b6040516001600160801b0319831660208201526bffffffffffffffffffffffff19606083901b166030820152600090610da59060440160408051601f19818403018152919052604560f81b612c07565b336001600160a01b037f0000000000000000000000000000000000000000000000000000000000000000161461187a57600080fd5b6001600160a01b038116600090815260056020526040902061189a6109e9565b815461ffff918216600160801b90910490911610156118b857600080fd5b80546118ce90600160801b900461ffff16612e48565b815461ffff91909116600160801b0261ffff60801b19909116178155600060019091015550565b6001600160801b0319821660009081526004602052604081206008018054829182918291908690811061192a5761192a613a22565b60009182526020909120600390910201805460018201546002909201546001600160a01b039091169891975061ffff1695509350505050565b6001600160801b03198116600090815260046020526040902060018101546001600160a01b03163314806119a55750805461010090046001600160a01b031633145b6119ae57600080fd5b6119ba82600080611ce9565b505050565b6000610f00826000612769565b6119d581612eb1565b6008546001600160401b0316611a02576008805467ffffffffffffffff1916426001600160401b03161790555b50600460209081527f17ef568e3e12ab5b9c7254a8d58478811de00f9e6eb34345acd53bf8fd09d3ec80547f17ef568e3e12ab5b9c7254a8d58478811de00f9e6eb34345acd53bf8fd09d3ed8054306001600160a01b03199182161790915578020000000000000001000000000000000000000000000000037f17ef568e3e12ab5b9c7254a8d58478811de00f9e6eb34345acd53bf8fd09d3ee556001600160a81b0319909116336101000260ff1916176001908117909255604080516060810182526000808252600b82870181815260169484019485527f17ef568e3e12ab5b9c7254a8d58478811de00f9e6eb34345acd53bf8fd09d3f480549788018155835292517fdaf6a3df2e7fe032faba7f1c41811297bb73983780e1888a846f8aa1a8324d27600390970296870180549096166001600160a01b039091161790945590517fdaf6a3df2e7fe032faba7f1c41811297bb73983780e1888a846f8aa1a8324d2885015590517fdaf6a3df2e7fe032faba7f1c41811297bb73983780e1888a846f8aa1a8324d29909301805461ffff191661ffff909416939093179092557f05b8ccbb9d4d8fb16ea74ce3c29a41f1b461fbdaff4714a0d9a8eb05499746bc805460217f05b8ccbb9d4d8fb16ea74ce3c29a41f1b461fbdaff4714a0d9a8eb05499746bd5571ffffffffffffffffffffffffffffffffffff1916702c0000000000000000000000000000006417905590527f05b8ccbb9d4d8fb16ea74ce3c29a41f1b461fbdaff4714a0d9a8eb05499746c0905260377f952b799cf669bea82d5c90b8e8004c707505141b802e28ecfb2a120a84cc5185556103097f05b8ccbb9d4d8fb16ea74ce3c29a41f1b461fbdaff4714a0d9a8eb05499746be55565b6000546001600160a01b03163314611c9b57600080fd5b611ca481612f04565b50565b6000611cb384846117f5565b90506000611cc18284612f72565b9050806001600160a01b0316611cd686610d55565b6001600160a01b0316146114cd57600080fd5b6001600160801b031983166000908152600460205260408120805460ff16158015611d30575060085460028201546001600160401b03918216600160801b90910490911610155b611d3957600080fd5b6002810154600090611d82907f000000000000000000000000000000000000000000000000000000000000000063ffffffff1690600160c01b90046001600160401b0316613994565b611d8d9060016139ba565b600883015490915060005b6008840154811015612165576000846008018281548110611dbb57611dbb613a22565b6000918252602090912060039091020180549091506001600160a01b0316801580611e0b57506001600160a01b03891615801590611e0b5750806001600160a01b0316896001600160a01b031614155b15611e245783611e1a81613a53565b9450505050612153565b6000611e308784613031565b60028601805461ffff191661ffff92909216919091179055600185015590508815612037576001600160a01b0382166000908152600560209081526040808320600287015461ffff16808552600482019093529220546001600160ff1b031415611ec6576002890154611eab906001600160801b0316613a6a565b61ffff82166000908152600484016020526040902055611f02565b600289015461ffff82166000908152600484016020526040812080546001600160801b0390931692909190611efc908490613a87565b90915550505b61ffff881660009081526004830160205260409020546001600160ff1b031415611f5257600289015461ffff8916600090815260048401602052604090206001600160801b039091169055611f8e565b600289015461ffff89166000908152600484016020526040812080546001600160801b0390931692909190611f88908490613ac6565b90915550505b61ffff81166000908152600483016020526040902054611fc85761ffff8116600090815260048301602052604090206001600160ff1b0390555b61ffff881660009081526004830160205260409020546120025761ffff8816600090815260048301602052604090206001600160ff1b0390555b60028901546001600160801b031661201a828a6139e0565b61ffff166120289190613a03565b6120329084613b07565b925050505b888061204e5750600283015461ffff808816911610155b156120df5782546001600160a01b03191683556000600184015560028301805461ffff191690558461207f81613a53565b955050816001600160a01b0316336001600160a01b03168c6001600160801b0319167ff3b13df5bdd5efcb090f73617909a6295ee75815920224c512d784b2726812f1846040516120d291815260200190565b60405180910390a461212c565b6040518181526001600160a01b0383169033906001600160801b03198e16907fab654b569128c88ffcd210806a5e48ee14c541e2c76923f143281f20807090c19060200160405180910390a45b6121368189613b07565b97506001600160a01b038a161561214f57505050612165565b5050505b8061215d81613a38565b915050611d98565b83546001600160a01b03610100909104811690881661223257826121f45784546001600160a81b03191660019081178655850180546001600160a01b03191690556000600286015560405186815233906001600160801b03198b16907fd5ea25ba3600c386669c484639012a0ae266ed537f0c4ab71b651024736efff4906020015b60405180910390a3612242565b60405186815233906001600160801b03198b16907f51377f313f8c3404e86d38ae907b443ada38578fd6b9589d03f79d03ff9303c7906020016121e7565b6008850154821061224257600080fd5b851561225b5761225b6001600160a01b038216876125e6565b50505050509392505050565b6000610da58284613980565b6001600160801b03198516600081815260046020526040902090158015906122a6575060028101546001600160801b0316155b80156122b45750805460ff16155b6122bd57600080fd5b8054610100600160a81b0319163361010081029190911782556002820180546001600160801b03908116600160801b426001600160401b03908116919091026001600160c01b031691909117600160c01b91891691909102176001600160801b0319169086161790556001600160a01b0386161480159061234657506001600160a01b03851615155b15612369576001810180546001600160a01b0319166001600160a01b0387161790555b6001600160a01b0385161561237e5784612380565b335b6002820154604080516001600160801b03871681526001600160401b03600160801b840481166020830152600160c01b90930490921690820152606081018490526001600160a01b03919091169033906001600160801b03198916907f8e609dac02bd39ff24c8ad6bb9a735e739b56708b22159948ec9828ad765b4d19060800160405180910390a495945050505050565b6001600160a01b03831661242557600080fd5b6001600160a01b03831660009081526005602052604090208054600160801b900461ffff16158015906124665750805461ffff808816600160801b90920416105b80156124835750612476816126ff565b836001600160801b031610155b61248c57600080fd5b61ffff861660009081526004820160205260409020546001600160ff1b0314156124cd5761ffff8616600090815260048201602052604090208290556124f8565b61ffff86166000908152600482016020526040812080548492906124f2908490613ac6565b90915550505b61ffff851660009081526004820160205260409020546001600160ff1b0314156125405761252582613a6a565b61ffff8616600090815260048301602052604090205561256b565b61ffff8516600090815260048201602052604081208054849290612565908490613a87565b90915550505b61ffff861660009081526004820160205260409020546125a55761ffff8616600090815260048201602052604090206001600160ff1b0390555b61ffff851660009081526004820160205260409020546117ed5761ffff8516600090815260048201602052604090206001600160ff1b039055505050505050565b804710156126365760405162461bcd60e51b815260206004820152601d60248201527f416464726573733a20696e73756666696369656e742062616c616e6365000000604482015260640161129a565b6000826001600160a01b03168260405160006040518083038185875af1925050503d8060008114612683576040519150601f19603f3d011682016040523d82523d6000602084013e612688565b606091505b50509050806119ba5760405162461bcd60e51b815260206004820152603a60248201527f416464726573733a20756e61626c6520746f2073656e642076616c75652c207260448201527f6563697069656e74206d61792068617665207265766572746564000000000000606482015260840161129a565b6000816002015460001480612724575060065460028301546001600160801b03909116115b8061273f575060075460028301546001600160801b03909116105b1561275c575050600654600160801b90046001600160801b031690565b506002015490565b919050565b6001600160801b03198216600090815260046020526040812060018101546001600160a01b03163314806127ab5750805461010090046001600160a01b031633145b80156127b95750805460ff16155b6127c257600080fd5b60005b60088201548110156128865760008260080182815481106127e8576127e8613a22565b6000918252602090912060039091020180549091506001600160a01b0316158061283257506001600160a01b03851615801590612832575080546001600160a01b03868116911614155b1561283d5750612874565b60006128498483613031565b5050905080856128599190613b07565b94506001600160a01b03861615612871575050612886565b50505b8061287e81613a38565b9150506127c5565b6001600160a01b038416156128a557600882015481106128a557600080fd5b505092915050565b8154600160801b900461ffff1615806128d65750815461ffff600160801b909104811690821611155b156128df575050565b81546000906128fa90600160801b900461ffff1660016139ba565b90505b8161ffff168161ffff161161298b5761ffff811660009081526004840160205260409020546001600160ff1b0381141561294d575061ffff81166000908152600484016020526040812055612979565b600184015461295c9082613495565b60018501555061ffff811660009081526004840160205260408120555b8061298381613b1f565b9150506128fd565b50815461ffff8216600160801b0261ffff60801b1982168117845560018401549184916000916129ca9185916001600160801b03918216911617613b41565b92506101000a8154816001600160801b0302191690836001600160801b031602179055505050565b60028054600160a01b900460ff1614612a0a57600080fd5b6040513381526001600160a01b038216907f1e8d98c1b4a0d9bd2e2371026b632eb2773fcce41742e41f02f574ab69868d4c906020015b60405180910390a250565b600080612a5c84848380806134c2565b51949350505050565b6040805160608101825260008082526020820181905291810182905290610da5836365af62c360e01b8380806134c2565b612b2960405180610180016040528060001515815260200160006001600160a01b0316815260200160006001600160a01b0316815260200160006001600160801b0316815260200160006001600160401b0316815260200160006001600160401b031681526020016000815260200160008152602001600081526020016000815260200160008152602001606081525090565b6000612b4a8463713c0e5760e01b60016001600160801b03198716856134c2565b949350505050565b600080612b638585600186856134c2565b5195945050505050565b60408051606081018252600080825260208201819052918101829052906109e08563d845f4fb60e01b60026001600160801b03198816876134c2565b604080516080810182526000808252602082018190529181018290526060810182905290612b4a8463189a5a1760e01b60016001600160a01b038716856134c2565b600080612bfc8686600287876134c2565b519695505050505050565b60006001600160f81b03198216612c54576040513090612c3690601960f81b9060009084908890602001613b9e565b60405160208183030381529060405280519060200120915050610f00565b6001600160f81b03198216604560f81b1415612e0057825180612cc95760405162461bcd60e51b815260206004820152602760248201527f456d707479206d657373616765206e6f7420616c6c6f77656420666f722076656044820152667273696f6e204560c81b606482015260840161129a565b60005b8115612cf25780612cdc81613a38565b9150612ceb9050600a83613980565b9150612ccc565b6000816001600160401b03811115612d0c57612d0c613be5565b6040519080825280601f01601f191660200182016040528015612d36576020820181803683370190505b50865193509050815b8315612da457612d50600a85613bfb565b612d5b906030613b07565b60f81b82612d6883613a53565b92508281518110612d7b57612d7b613a22565b60200101906001600160f81b031916908160001a905350612d9d600a85613980565b9350612d3f565b604051612ddf90601960f81b907f457468657265756d205369676e6564204d6573736167653a0a000000000000009085908b90602001613c0f565b60405160208183030381529060405280519060200120945050505050610f00565b60405162461bcd60e51b815260206004820152601a60248201527f556e737570706f72746564204549503139312076657273696f6e000000000000604482015260640161129a565b60007f000000000000000000000000000000000000000000000000000000000000000063ffffffff167f000000000000000000000000000000000000000000000000000000000000000063ffffffff168361ffff16612ea79190613a03565b610f009190613980565b60028054600160a01b900460ff1614612ec957600080fd5b6040513381526001600160a01b038216907fd55ec27c5c6316913ed8803c18cfd1bfefea953db909dcba6140744a9d8b0d1f90602001612a41565b6001600160a01b038116612f1757600080fd5b600080546040516001600160a01b03808516939216917f8be0079c531659141344cd1fd0a4f28419497f9722a3daafe3b4186f6b6457e091a3600080546001600160a01b0319166001600160a01b0392909216919091179055565b60008151604114612f8257600080fd5b60208201516040830151606084015160001a601b811015612fab57612fa8601b82613c44565b90505b8060ff16601b1480612fc057508060ff16601c145b612fc957600080fd5b60408051600081526020810180835288905260ff831691810191909152606081018490526080810183905260019060a0016020604051602081039080840390855afa15801561301c573d6000803e3d6000fd5b5050604051601f190151979650505050505050565b6000806000807f000000000000000000000000000000000000000000000000000000000000000063ffffffff168660020160109054906101000a90046001600160401b03166130809190613994565b905060006130da61308f6109e9565b60028901546130d5907f000000000000000000000000000000000000000000000000000000000000000063ffffffff1690600160c01b90046001600160401b0316613994565b613512565b60028701549091506000906130f490849061ffff16613530565b87546040516390dcb51f60e01b81526001600160a01b03918216600482015291925060009182917f000000000000000000000000000000000000000000000000000000000000000016906390dcb51f90602401602060405180830381865afa158015613164573d6000803e3d6000fd5b505050506040513d601f19601f820116820180604052508101906131889190613c69565b60028a015490915060009061ffff1661323a578954604051634789d02d60e01b81526001600160a01b03918216600482015261ffff881660248201527f000000000000000000000000000000000000000000000000000000000000000090911690634789d02d90604401602060405180830381865afa15801561320f573d6000803e3d6000fd5b505050506040513d601f19601f820116820180604052508101906132339190613c69565b9050613241565b5060018901545b8097505b8188101561337b578954604051638fa95a1560e01b81526001600160a01b039182166004820152602481018a905260009182917f000000000000000000000000000000000000000000000000000000000000000090911690638fa95a15906044016040805180830381865afa1580156132c2573d6000803e3d6000fd5b505050506040513d601f19601f820116820180604052508101906132e69190613c82565b915091508661ffff168261ffff16111561330157505061337b565b8561ffff168161ffff161015613318575050613369565b6133396133258784613530565b61332f8984613512565b61ffff1690613548565b6133449060016139ba565b61334e90866139ba565b94508061ffff168761ffff161161336657505061337b565b50505b8761337381613a38565b985050613245565b89546040516351f5e0c160e11b81526001600160a01b0391821660048201526000917f0000000000000000000000000000000000000000000000000000000000000000169063a3ebc18290602401602060405180830381865afa1580156133e6573d6000803e3d6000fd5b505050506040513d601f19601f8201168201806040525081019061340a9190613cb1565b9050828914801561342257508561ffff168161ffff16105b156134525761343b6134356001876139e0565b82613530565b61344590876139e0565b61344f90856139ba565b93505b60028c015461346f9061ffff8616906001600160801b0316613cce565b6001600160801b031699506134858660016139ba565b9750505050505050509250925092565b60008082126134af576134a8838361356c565b9050610f00565b6134a86134bb83613a6a565b8490613578565b60405184815283156134d5578260048201525b60018411156134e5578160248201525b6000808560200260040183895af48015613503573d6000833e613508565b600082fd5b5095945050505050565b60008161ffff168361ffff16106135295781610da5565b5090919050565b60008161ffff168361ffff1610156135295781610da5565b60008261ffff168261ffff16111561356257613562613cfd565b610da582846139e0565b6000610da58284613b07565b6000610da58284613d13565b80356001600160801b03198116811461276457600080fd5b6001600160a01b0381168114611ca457600080fd5b600080600080606085870312156135c757600080fd5b6135d085613584565b935060208501356135e08161359c565b925060408501356001600160401b03808211156135fc57600080fd5b818701915087601f83011261361057600080fd5b81358181111561361f57600080fd5b88602082850101111561363157600080fd5b95989497505060200194505050565b60006020828403121561365257600080fd5b8135610da58161359c565b60008083601f84011261366f57600080fd5b5081356001600160401b0381111561368657600080fd5b6020830191508360208260051b85010111156136a157600080fd5b9250929050565b80356001600160401b038116811461276457600080fd5b600080600080600080608087890312156136d857600080fd5b86356001600160401b03808211156136ef57600080fd5b6136fb8a838b0161365d565b9098509650602089013591506137108261359c565b81955061371f60408a016136a8565b9450606089013591508082111561373557600080fd5b5061374289828a0161365d565b979a9699509497509295939492505050565b60006020828403121561376657600080fd5b610da582613584565b80356001600160801b038116811461276457600080fd5b60008060006060848603121561379b57600080fd5b6137a48461376f565b92506137b26020850161376f565b91506137c06040850161376f565b90509250925092565b600080604083850312156137dc57600080fd5b6137e583613584565b915060208301356137f58161359c565b809150509250929050565b61ffff81168114611ca457600080fd5b6000806040838503121561382357600080fd5b823561382e8161359c565b915060208301356137f581613800565b60008060008060006080868803121561385657600080fd5b61385f86613584565b9450602086013561386f8161359c565b935061387d604087016136a8565b925060608601356001600160401b0381111561389857600080fd5b6138a48882890161365d565b969995985093965092949392505050565b6000602082840312156138c757600080fd5b5035919050565b600080600080608085870312156138e457600080fd5b84356138ef8161359c565b935060208501356138ff81613800565b9250604085013561390f81613800565b9150606085013561391f81613800565b939692955090935050565b6000806040838503121561393d57600080fd5b61394683613584565b946020939093013593505050565b634e487b7160e01b600052601260045260246000fd5b634e487b7160e01b600052601160045260246000fd5b60008261398f5761398f613954565b500490565b60006001600160401b03808416806139ae576139ae613954565b92169190910492915050565b600061ffff8083168185168083038211156139d7576139d761396a565b01949350505050565b600061ffff838116908316818110156139fb576139fb61396a565b039392505050565b6000816000190483118215151615613a1d57613a1d61396a565b500290565b634e487b7160e01b600052603260045260246000fd5b6000600019821415613a4c57613a4c61396a565b5060010190565b600081613a6257613a6261396a565b506000190190565b6000600160ff1b821415613a8057613a8061396a565b5060000390565b60008083128015600160ff1b850184121615613aa557613aa561396a565b6001600160ff1b0384018313811615613ac057613ac061396a565b50500390565b600080821280156001600160ff1b0384900385131615613ae857613ae861396a565b600160ff1b8390038412811615613b0157613b0161396a565b50500190565b60008219821115613b1a57613b1a61396a565b500190565b600061ffff80831681811415613b3757613b3761396a565b6001019392505050565b60006001600160801b038083168185168083038211156139d7576139d761396a565b6000815160005b81811015613b845760208185018101518683015201613b6a565b81811115613b93576000828601525b509290920192915050565b6001600160f81b0319858116825284166001820152606083901b6bffffffffffffffffffffffff191660028201526000613bdb6016830184613b63565b9695505050505050565b634e487b7160e01b600052604160045260246000fd5b600082613c0a57613c0a613954565b500690565b6001600160f81b03198516815266ffffffffffffff19841660018201526000613bdb613c3e601a840186613b63565b84613b63565b600060ff821660ff84168060ff03821115613c6157613c6161396a565b019392505050565b600060208284031215613c7b57600080fd5b5051919050565b60008060408385031215613c9557600080fd5b8251613ca081613800565b60208401519092506137f581613800565b600060208284031215613cc357600080fd5b8151610da581613800565b60006001600160801b0380831681851681830481118215151615613cf457613cf461396a565b02949350505050565b634e487b7160e01b600052600160045260246000fd5b600082821015613d2557613d2561396a565b50039056fea264697066735822122054955a1253d1560a747b6409cc836f8aff98236db2c8975434d821ec25c0ce3a64736f6c634300080a0033",
  "bytecodeSha1": "fb8bf528bc9c59e154007e4046f8baa7b08e9ee0",
  "compiler": {
    "evm_version": "istanbul",
    "optimizer": {
      "enabled": true,
      "runs": 200
    },
    "version": "0.8.10+commit.fc410830"
  },
  "contractName": "PolicyManager",
  "language": "Solidity",
  "natspec": {
    "details": "|v6.3.1|",
    "kind": "dev",
    "methods": {
      "calculateRefundValue(bytes16)": {
        "notice": "Calculate amount of refund",
        "params": {
          "_policyId": "Policy id"
        }
      },
      "calculateRefundValue(bytes16,address)": {
        "notice": "Calculate amount of refund",
        "params": {
          "_node": "Node",
          "_policyId": "Policy id"
        }
      },
      "constructor": {
        "details": "Put same address in both inputs variables except when migration is happening",
        "notice": "Constructor sets address of the escrow contract",
        "params": {
          "_escrowDispatcher": "Address of escrow dispatcher",
          "_escrowImplementation": "Address of escrow implementation"
        }
      },
      "createPolicies(bytes16[],address,uint64,address[])": {
        "details": "Generate policy ids before creation",
        "notice": "Create multiple policies with the same owner, nodes and length",
        "params": {
          "_endTimestamp": "End timestamp of all policies in seconds",
          "_nodes": "Nodes that will handle all policies",
          "_policyIds": "Policy ids",
          "_policyOwner": "Policy owner. Zero address means sender is owner"
        }
      },
      "createPolicy(bytes16,address,uint64,address[])": {
        "details": "Generate policy id before creation",
        "notice": "Create policy",
        "params": {
          "_endTimestamp": "End timestamp of the policy in seconds",
          "_nodes": "Nodes that will handle policy",
          "_policyId": "Policy id",
          "_policyOwner": "Policy owner. Zero address means sender is owner"
        }
      },
      "finishUpgrade(address)": {
        "details": "the `onlyWhileUpgrading` modifier works through a call to the parent `finishUpgrade`"
      },
      "getArrangementInfo(bytes16,uint256)": {
        "notice": "Return the information about arrangement"
      },
      "getArrangementsLength(bytes16)": {
        "notice": "Get number of arrangements in the policy",
        "params": {
          "_policyId": "Policy id"
        }
      },
      "getCurrentPeriod()": {
        "returns": {
          "_0": "Number of current period"
        }
      },
      "getMinFeeRate(address)": {
        "notice": "Get the minimum acceptable fee rate (set by staker for their associated worker)"
      },
      "getNodeFeeDelta(address,uint16)": {
        "notice": "Get information about staker's fee rate",
        "params": {
          "_node": "Address of staker",
          "_period": "Period to get fee delta"
        }
      },
      "getPolicyOwner(bytes16)": {
        "notice": "Get policy owner"
      },
      "getRevocationHash(bytes16,address)": {
        "notice": "Get unsigned hash for revocation",
        "params": {
          "_node": "Node that will be excluded",
          "_policyId": "Policy id"
        },
        "returns": {
          "_0": "Revocation hash, EIP191 version 0x45 ('E')"
        }
      },
      "isOwner()": {
        "returns": {
          "_0": "true if `msg.sender` is the owner of the contract."
        }
      },
      "migrate(address)": {
        "notice": "Migrate from the old period length to the new one",
        "params": {
          "_node": "Node address"
        }
      },
      "owner()": {
        "returns": {
          "_0": "the address of the owner."
        }
      },
      "ping(address,uint16,uint16,uint16)": {
        "notice": "Call from StakingEscrow to update node info once per period. Set default `feeDelta` value for specified period and update node fee",
        "params": {
          "_node": "Node address",
          "_periodToSetDefault": "Period to set",
          "_processedPeriod1": "Processed period",
          "_processedPeriod2": "Processed period"
        }
      },
      "refund(bytes16)": {
        "notice": "Refund part of fee by the sponsor",
        "params": {
          "_policyId": "Policy id"
        }
      },
      "refund(bytes16,address)": {
        "notice": "Refund part of one node's fee by the sponsor",
        "params": {
          "_node": "Node address",
          "_policyId": "Policy id"
        }
      },
      "register(address,uint16)": {
        "notice": "Register a node",
        "params": {
          "_node": "Node address",
          "_period": "Initial period"
        }
      },
      "renounceOwnership()": {
        "details": "Allows the current owner to relinquish control of the contract.",
        "notice": "Renouncing to ownership will leave the contract without an owner. It will not be possible to call the functions with the `onlyOwner` modifier anymore."
      },
      "revoke(bytes16,address,bytes)": {
        "notice": "Revoke policy or arrangement using owner's signature",
        "params": {
          "_node": "Node that will be excluded, zero address if whole policy will be revoked",
          "_policyId": "Policy id",
          "_signature": "Signature of owner, EIP191 version 0x45 ('E')"
        }
      },
      "revokeArrangement(bytes16,address)": {
        "notice": "Revoke arrangement by the sponsor",
        "params": {
          "_node": "Node that will be excluded",
          "_policyId": "Policy id"
        }
      },
      "revokePolicy(bytes16)": {
        "notice": "Revoke policy by the sponsor",
        "params": {
          "_policyId": "Policy id"
        }
      },
      "setFeeRateRange(uint128,uint128,uint128)": {
        "notice": "Set minimum, default & maximum fee rate for all stakers and all policies ('global fee range')"
      },
      "setMinFeeRate(uint256)": {
        "details": "Input value must fall within `feeRateRange` (global fee range)",
        "notice": "Set the minimum acceptable fee rate (set by staker for their associated worker)"
      },
      "transferOwnership(address)": {
        "details": "Allows the current owner to transfer control of the contract to a newOwner.",
        "params": {
          "newOwner": "The address to transfer ownership to."
        }
      },
      "verifyState(address)": {
        "details": "the `onlyWhileUpgrading` modifier works through a call to the parent `verifyState`"
      },
      "withdraw()": {
        "notice": "Withdraw fee by node"
      },
      "withdraw(address)": {
        "notice": "Withdraw fee by node",
        "params": {
          "_recipient": "Recipient of the fee"
        }
      }
    },
    "notice": "Contract holds policy data and locks accrued policy fees",
    "title": "PolicyManager",
    "version": 1
  },
  "opcodes": "PUSH1 0x80 PUSH1 0x40 MSTORE PUSH1 0x4 CALLDATASIZE LT PUSH2 0x23B JUMPI PUSH1 0x0 CALLDATALOAD PUSH1 0xE0 SHR DUP1 PUSH4 0x8C316B90 GT PUSH2 0x12E JUMPI DUP1 PUSH4 0xCE5494BB GT PUSH2 0xAB JUMPI DUP1 PUSH4 0xE2FDCC17 GT PUSH2 0x6F JUMPI DUP1 PUSH4 0xE2FDCC17 EQ PUSH2 0x8CA JUMPI DUP1 PUSH4 0xE38A303B EQ PUSH2 0x8FE JUMPI DUP1 PUSH4 0xE665830D EQ PUSH2 0x931 JUMPI DUP1 PUSH4 0xE8DCCD06 EQ PUSH2 0x951 JUMPI DUP1 PUSH4 0xF2FDE38B EQ PUSH2 0x971 JUMPI PUSH1 0x0 DUP1 REVERT JUMPDEST DUP1 PUSH4 0xCE5494BB EQ PUSH2 0x7ED JUMPI DUP1 PUSH4 0xD4B83992 EQ PUSH2 0x80D JUMPI DUP1 PUSH4 0xD808A4EE EQ PUSH2 0x82D JUMPI DUP1 PUSH4 0xD845F4FB EQ PUSH2 0x861 JUMPI DUP1 PUSH4 0xDFDECFAF EQ PUSH2 0x8AA JUMPI PUSH1 0x0 DUP1 REVERT JUMPDEST DUP1 PUSH4 0xA2D1D5E2 GT PUSH2 0xF2 JUMPI DUP1 PUSH4 0xA2D1D5E2 EQ PUSH2 0x74D JUMPI DUP1 PUSH4 0xA87D40D9 EQ PUSH2 0x76D JUMPI DUP1 PUSH4 0xB46FFB45 EQ PUSH2 0x78D JUMPI DUP1 PUSH4 0xB9626D21 EQ PUSH2 0x7AD JUMPI DUP1 PUSH4 0xCBF12F2A EQ PUSH2 0x7CD JUMPI PUSH1 0x0 DUP1 REVERT JUMPDEST DUP1 PUSH4 0x8C316B90 EQ PUSH2 0x6A4 JUMPI DUP1 PUSH4 0x8D7FD2FA EQ PUSH2 0x6C4 JUMPI DUP1 PUSH4 0x8DA5CB5B EQ PUSH2 0x6E4 JUMPI DUP1 PUSH4 0x8E81CA5A EQ PUSH2 0x702 JUMPI DUP1 PUSH4 0x8F32D59B EQ PUSH2 0x722 JUMPI PUSH1 0x0 DUP1 REVERT JUMPDEST DUP1 PUSH4 0x631722F2 GT PUSH2 0x1BC JUMPI DUP1 PUSH4 0x713C0E57 GT PUSH2 0x180 JUMPI DUP1 PUSH4 0x713C0E57 EQ PUSH2 0x52E JUMPI DUP1 PUSH4 0x715018A6 EQ PUSH2 0x63C JUMPI DUP1 PUSH4 0x72BE8D8D EQ PUSH2 0x651 JUMPI DUP1 PUSH4 0x81E742A1 EQ PUSH2 0x671 JUMPI DUP1 PUSH4 0x889DDD1A EQ PUSH2 0x684 JUMPI PUSH1 0x0 DUP1 REVERT JUMPDEST DUP1 PUSH4 0x631722F2 EQ PUSH2 0x420 JUMPI DUP1 PUSH4 0x63C509D5 EQ PUSH2 0x440 JUMPI DUP1 PUSH4 0x65A9AF87 EQ PUSH2 0x460 JUMPI DUP1 PUSH4 0x65AF62C3 EQ PUSH2 0x498 JUMPI DUP1 PUSH4 0x6BD2AF57 EQ PUSH2 0x4F4 JUMPI PUSH1 0x0 DUP1 REVERT JUMPDEST DUP1 PUSH4 0x407F8001 GT PUSH2 0x203 JUMPI DUP1 PUSH4 0x407F8001 EQ PUSH2 0x344 JUMPI DUP1 PUSH4 0x4B2CD118 EQ PUSH2 0x38D JUMPI DUP1 PUSH4 0x4B8FED4F EQ PUSH2 0x3C5 JUMPI DUP1 PUSH4 0x51CFF8D9 EQ PUSH2 0x3E0 JUMPI DUP1 PUSH4 0x58CF15FB EQ PUSH2 0x400 JUMPI PUSH1 0x0 DUP1 REVERT JUMPDEST DUP1 PUSH4 0x76421E8 EQ PUSH2 0x240 JUMPI DUP1 PUSH4 0x86146D2 EQ PUSH2 0x273 JUMPI DUP1 PUSH4 0x189A5A17 EQ PUSH2 0x29B JUMPI DUP1 PUSH4 0x3735E106 EQ PUSH2 0x31A JUMPI DUP1 PUSH4 0x3CCFD60B EQ PUSH2 0x32F JUMPI JUMPDEST PUSH1 0x0 DUP1 REVERT JUMPDEST CALLVALUE DUP1 ISZERO PUSH2 0x24C JUMPI PUSH1 0x0 DUP1 REVERT JUMPDEST POP PUSH2 0x260 PUSH2 0x25B CALLDATASIZE PUSH1 0x4 PUSH2 0x35B1 JUMP JUMPDEST PUSH2 0x991 JUMP JUMPDEST PUSH1 0x40 MLOAD SWAP1 DUP2 MSTORE PUSH1 0x20 ADD JUMPDEST PUSH1 0x40 MLOAD DUP1 SWAP2 SUB SWAP1 RETURN JUMPDEST CALLVALUE DUP1 ISZERO PUSH2 0x27F JUMPI PUSH1 0x0 DUP1 REVERT JUMPDEST POP PUSH2 0x288 PUSH2 0x9E9 JUMP JUMPDEST PUSH1 0x40 MLOAD PUSH2 0xFFFF SWAP1 SWAP2 AND DUP2 MSTORE PUSH1 0x20 ADD PUSH2 0x26A JUMP JUMPDEST CALLVALUE DUP1 ISZERO PUSH2 0x2A7 JUMPI PUSH1 0x0 DUP1 REVERT JUMPDEST POP PUSH2 0x2ED PUSH2 0x2B6 CALLDATASIZE PUSH1 0x4 PUSH2 0x3640 JUMP JUMPDEST PUSH1 0x5 PUSH1 0x20 MSTORE PUSH1 0x0 SWAP1 DUP2 MSTORE PUSH1 0x40 SWAP1 KECCAK256 DUP1 SLOAD PUSH1 0x1 DUP3 ADD SLOAD PUSH1 0x2 SWAP1 SWAP3 ADD SLOAD PUSH1 0x1 PUSH1 0x1 PUSH1 0x80 SHL SUB DUP3 AND SWAP3 PUSH1 0x1 PUSH1 0x80 SHL SWAP1 SWAP3 DIV PUSH2 0xFFFF AND SWAP2 SWAP1 DUP5 JUMP JUMPDEST PUSH1 0x40 DUP1 MLOAD PUSH1 0x1 PUSH1 0x1 PUSH1 0x80 SHL SUB SWAP1 SWAP6 AND DUP6 MSTORE PUSH2 0xFFFF SWAP1 SWAP4 AND PUSH1 0x20 DUP6 ADD MSTORE SWAP2 DUP4 ADD MSTORE PUSH1 0x60 DUP3 ADD MSTORE PUSH1 0x80 ADD PUSH2 0x26A JUMP JUMPDEST PUSH2 0x32D PUSH2 0x328 CALLDATASIZE PUSH1 0x4 PUSH2 0x36BF JUMP JUMPDEST PUSH2 0xA20 JUMP JUMPDEST STOP JUMPDEST CALLVALUE DUP1 ISZERO PUSH2 0x33B JUMPI PUSH1 0x0 DUP1 REVERT JUMPDEST POP PUSH2 0x260 PUSH2 0xCC2 JUMP JUMPDEST CALLVALUE DUP1 ISZERO PUSH2 0x350 JUMPI PUSH1 0x0 DUP1 REVERT JUMPDEST POP PUSH2 0x378 PUSH32 0x0 DUP2 JUMP JUMPDEST PUSH1 0x40 MLOAD PUSH4 0xFFFFFFFF SWAP1 SWAP2 AND DUP2 MSTORE PUSH1 0x20 ADD PUSH2 0x26A JUMP JUMPDEST CALLVALUE DUP1 ISZERO PUSH2 0x399 JUMPI PUSH1 0x0 DUP1 REVERT JUMPDEST POP PUSH1 0x2 SLOAD PUSH2 0x3AD SWAP1 PUSH1 0x1 PUSH1 0x1 PUSH1 0xA0 SHL SUB AND DUP2 JUMP JUMPDEST PUSH1 0x40 MLOAD PUSH1 0x1 PUSH1 0x1 PUSH1 0xA0 SHL SUB SWAP1 SWAP2 AND DUP2 MSTORE PUSH1 0x20 ADD PUSH2 0x26A JUMP JUMPDEST CALLVALUE DUP1 ISZERO PUSH2 0x3D1 JUMPI PUSH1 0x0 DUP1 REVERT JUMPDEST POP PUSH2 0x260 PUSH1 0x1 PUSH1 0x1 PUSH1 0xFF SHL SUB DUP2 JUMP JUMPDEST CALLVALUE DUP1 ISZERO PUSH2 0x3EC JUMPI PUSH1 0x0 DUP1 REVERT JUMPDEST POP PUSH2 0x260 PUSH2 0x3FB CALLDATASIZE PUSH1 0x4 PUSH2 0x3640 JUMP JUMPDEST PUSH2 0xCC9 JUMP JUMPDEST CALLVALUE DUP1 ISZERO PUSH2 0x40C JUMPI PUSH1 0x0 DUP1 REVERT JUMPDEST POP PUSH2 0x3AD PUSH2 0x41B CALLDATASIZE PUSH1 0x4 PUSH2 0x3754 JUMP JUMPDEST PUSH2 0xD55 JUMP JUMPDEST CALLVALUE DUP1 ISZERO PUSH2 0x42C JUMPI PUSH1 0x0 DUP1 REVERT JUMPDEST POP PUSH2 0x32D PUSH2 0x43B CALLDATASIZE PUSH1 0x4 PUSH2 0x3786 JUMP JUMPDEST PUSH2 0xDAC JUMP JUMPDEST CALLVALUE DUP1 ISZERO PUSH2 0x44C JUMPI PUSH1 0x0 DUP1 REVERT JUMPDEST POP PUSH2 0x260 PUSH2 0x45B CALLDATASIZE PUSH1 0x4 PUSH2 0x37C9 JUMP JUMPDEST PUSH2 0xE90 JUMP JUMPDEST CALLVALUE DUP1 ISZERO PUSH2 0x46C JUMPI PUSH1 0x0 DUP1 REVERT JUMPDEST POP PUSH1 0x8 SLOAD PUSH2 0x480 SWAP1 PUSH1 0x1 PUSH1 0x1 PUSH1 0x40 SHL SUB AND DUP2 JUMP JUMPDEST PUSH1 0x40 MLOAD PUSH1 0x1 PUSH1 0x1 PUSH1 0x40 SHL SUB SWAP1 SWAP2 AND DUP2 MSTORE PUSH1 0x20 ADD PUSH2 0x26A JUMP JUMPDEST CALLVALUE DUP1 ISZERO PUSH2 0x4A4 JUMPI PUSH1 0x0 DUP1 REVERT JUMPDEST POP PUSH1 0x6 SLOAD PUSH1 0x7 SLOAD PUSH2 0x4CA SWAP2 PUSH1 0x1 PUSH1 0x1 PUSH1 0x80 SHL SUB DUP1 DUP3 AND SWAP3 PUSH1 0x1 PUSH1 0x80 SHL SWAP1 SWAP3 DIV DUP2 AND SWAP2 AND DUP4 JUMP JUMPDEST PUSH1 0x40 DUP1 MLOAD PUSH1 0x1 PUSH1 0x1 PUSH1 0x80 SHL SUB SWAP5 DUP6 AND DUP2 MSTORE SWAP3 DUP5 AND PUSH1 0x20 DUP5 ADD MSTORE SWAP3 AND SWAP2 DUP2 ADD SWAP2 SWAP1 SWAP2 MSTORE PUSH1 0x60 ADD PUSH2 0x26A JUMP JUMPDEST CALLVALUE DUP1 ISZERO PUSH2 0x500 JUMPI PUSH1 0x0 DUP1 REVERT JUMPDEST POP PUSH2 0x260 PUSH2 0x50F CALLDATASIZE PUSH1 0x4 PUSH2 0x3754 JUMP JUMPDEST PUSH1 0x1 PUSH1 0x1 PUSH1 0x80 SHL SUB NOT AND PUSH1 0x0 SWAP1 DUP2 MSTORE PUSH1 0x4 PUSH1 0x20 MSTORE PUSH1 0x40 SWAP1 KECCAK256 PUSH1 0x8 ADD SLOAD SWAP1 JUMP JUMPDEST CALLVALUE DUP1 ISZERO PUSH2 0x53A JUMPI PUSH1 0x0 DUP1 REVERT JUMPDEST POP PUSH2 0x5C7 PUSH2 0x549 CALLDATASIZE PUSH1 0x4 PUSH2 0x3754 JUMP JUMPDEST PUSH1 0x4 PUSH1 0x20 DUP2 SWAP1 MSTORE PUSH1 0x0 SWAP2 DUP3 MSTORE PUSH1 0x40 SWAP1 SWAP2 KECCAK256 DUP1 SLOAD PUSH1 0x1 DUP3 ADD SLOAD PUSH1 0x2 DUP4 ADD SLOAD PUSH1 0x3 DUP5 ADD SLOAD SWAP5 DUP5 ADD SLOAD PUSH1 0x5 DUP6 ADD SLOAD PUSH1 0x6 DUP7 ADD SLOAD PUSH1 0x7 SWAP1 SWAP7 ADD SLOAD PUSH1 0xFF DUP7 AND SWAP8 PUSH1 0x1 PUSH1 0x1 PUSH1 0xA0 SHL SUB PUSH2 0x100 SWAP1 SWAP8 DIV DUP8 AND SWAP8 SWAP6 SWAP1 SWAP7 AND SWAP6 PUSH1 0x1 PUSH1 0x1 PUSH1 0x80 SHL SUB DUP6 AND SWAP6 PUSH1 0x1 PUSH1 0x1 PUSH1 0x40 SHL SUB PUSH1 0x1 PUSH1 0x80 SHL DUP8 DIV DUP2 AND SWAP7 PUSH1 0x1 PUSH1 0xC0 SHL SWAP1 DIV AND SWAP5 SWAP2 SWAP4 SWAP2 SWAP3 DUP12 JUMP JUMPDEST PUSH1 0x40 DUP1 MLOAD SWAP12 ISZERO ISZERO DUP13 MSTORE PUSH1 0x1 PUSH1 0x1 PUSH1 0xA0 SHL SUB SWAP11 DUP12 AND PUSH1 0x20 DUP14 ADD MSTORE SWAP10 SWAP1 SWAP9 AND SWAP9 DUP11 ADD SWAP9 SWAP1 SWAP9 MSTORE PUSH1 0x1 PUSH1 0x1 PUSH1 0x80 SHL SUB SWAP1 SWAP6 AND PUSH1 0x60 DUP10 ADD MSTORE PUSH1 0x1 PUSH1 0x1 PUSH1 0x40 SHL SUB SWAP4 DUP5 AND PUSH1 0x80 DUP10 ADD MSTORE SWAP3 SWAP1 SWAP2 AND PUSH1 0xA0 DUP8 ADD MSTORE PUSH1 0xC0 DUP7 ADD MSTORE PUSH1 0xE0 DUP6 ADD MSTORE PUSH2 0x100 DUP5 ADD MSTORE PUSH2 0x120 DUP4 ADD SWAP2 SWAP1 SWAP2 MSTORE PUSH2 0x140 DUP3 ADD MSTORE PUSH2 0x160 ADD PUSH2 0x26A JUMP JUMPDEST CALLVALUE DUP1 ISZERO PUSH2 0x648 JUMPI PUSH1 0x0 DUP1 REVERT JUMPDEST POP PUSH2 0x32D PUSH2 0xF06 JUMP JUMPDEST CALLVALUE DUP1 ISZERO PUSH2 0x65D JUMPI PUSH1 0x0 DUP1 REVERT JUMPDEST POP PUSH2 0x32D PUSH2 0x66C CALLDATASIZE PUSH1 0x4 PUSH2 0x3810 JUMP JUMPDEST PUSH2 0xF67 JUMP JUMPDEST PUSH2 0x32D PUSH2 0x67F CALLDATASIZE PUSH1 0x4 PUSH2 0x383E JUMP JUMPDEST PUSH2 0x1006 JUMP JUMPDEST CALLVALUE DUP1 ISZERO PUSH2 0x690 JUMPI PUSH1 0x0 DUP1 REVERT JUMPDEST POP PUSH2 0x260 PUSH2 0x69F CALLDATASIZE PUSH1 0x4 PUSH2 0x3640 JUMP JUMPDEST PUSH2 0x11E5 JUMP JUMPDEST CALLVALUE DUP1 ISZERO PUSH2 0x6B0 JUMPI PUSH1 0x0 DUP1 REVERT JUMPDEST POP PUSH2 0x32D PUSH2 0x6BF CALLDATASIZE PUSH1 0x4 PUSH2 0x38B5 JUMP JUMPDEST PUSH2 0x1206 JUMP JUMPDEST CALLVALUE DUP1 ISZERO PUSH2 0x6D0 JUMPI PUSH1 0x0 DUP1 REVERT JUMPDEST POP PUSH2 0x260 PUSH2 0x6DF CALLDATASIZE PUSH1 0x4 PUSH2 0x37C9 JUMP JUMPDEST PUSH2 0x1302 JUMP JUMPDEST CALLVALUE DUP1 ISZERO PUSH2 0x6F0 JUMPI PUSH1 0x0 DUP1 REVERT JUMPDEST POP PUSH1 0x0 SLOAD PUSH1 0x1 PUSH1 0x1 PUSH1 0xA0 SHL SUB AND PUSH2 0x3AD JUMP JUMPDEST CALLVALUE DUP1 ISZERO PUSH2 0x70E JUMPI PUSH1 0x0 DUP1 REVERT JUMPDEST POP PUSH2 0x260 PUSH2 0x71D CALLDATASIZE PUSH1 0x4 PUSH2 0x3810 JUMP JUMPDEST PUSH2 0x1340 JUMP JUMPDEST CALLVALUE DUP1 ISZERO PUSH2 0x72E JUMPI PUSH1 0x0 DUP1 REVERT JUMPDEST POP PUSH1 0x0 SLOAD PUSH1 0x1 PUSH1 0x1 PUSH1 0xA0 SHL SUB AND CALLER EQ PUSH1 0x40 MLOAD SWAP1 ISZERO ISZERO DUP2 MSTORE PUSH1 0x20 ADD PUSH2 0x26A JUMP JUMPDEST CALLVALUE DUP1 ISZERO PUSH2 0x759 JUMPI PUSH1 0x0 DUP1 REVERT JUMPDEST POP PUSH2 0x260 PUSH2 0x768 CALLDATASIZE PUSH1 0x4 PUSH2 0x3754 JUMP JUMPDEST PUSH2 0x139C JUMP JUMPDEST CALLVALUE DUP1 ISZERO PUSH2 0x779 JUMPI PUSH1 0x0 DUP1 REVERT JUMPDEST POP PUSH2 0x260 PUSH2 0x788 CALLDATASIZE PUSH1 0x4 PUSH2 0x37C9 JUMP JUMPDEST PUSH2 0x13C8 JUMP JUMPDEST CALLVALUE DUP1 ISZERO PUSH2 0x799 JUMPI PUSH1 0x0 DUP1 REVERT JUMPDEST POP PUSH2 0x32D PUSH2 0x7A8 CALLDATASIZE PUSH1 0x4 PUSH2 0x38CE JUMP JUMPDEST PUSH2 0x13E7 JUMP JUMPDEST CALLVALUE DUP1 ISZERO PUSH2 0x7B9 JUMPI PUSH1 0x0 DUP1 REVERT JUMPDEST POP PUSH2 0x32D PUSH2 0x7C8 CALLDATASIZE PUSH1 0x4 PUSH2 0x3640 JUMP JUMPDEST PUSH2 0x14D4 JUMP JUMPDEST CALLVALUE DUP1 ISZERO PUSH2 0x7D9 JUMPI PUSH1 0x0 DUP1 REVERT JUMPDEST POP PUSH2 0x260 PUSH2 0x7E8 CALLDATASIZE PUSH1 0x4 PUSH2 0x37C9 JUMP JUMPDEST PUSH2 0x17F5 JUMP JUMPDEST CALLVALUE DUP1 ISZERO PUSH2 0x7F9 JUMPI PUSH1 0x0 DUP1 REVERT JUMPDEST POP PUSH2 0x32D PUSH2 0x808 CALLDATASIZE PUSH1 0x4 PUSH2 0x3640 JUMP JUMPDEST PUSH2 0x1845 JUMP JUMPDEST CALLVALUE DUP1 ISZERO PUSH2 0x819 JUMPI PUSH1 0x0 DUP1 REVERT JUMPDEST POP PUSH1 0x1 SLOAD PUSH2 0x3AD SWAP1 PUSH1 0x1 PUSH1 0x1 PUSH1 0xA0 SHL SUB AND DUP2 JUMP JUMPDEST CALLVALUE DUP1 ISZERO PUSH2 0x839 JUMPI PUSH1 0x0 DUP1 REVERT JUMPDEST POP PUSH2 0x378 PUSH32 0x0 DUP2 JUMP JUMPDEST CALLVALUE DUP1 ISZERO PUSH2 0x86D JUMPI PUSH1 0x0 DUP1 REVERT JUMPDEST POP PUSH2 0x881 PUSH2 0x87C CALLDATASIZE PUSH1 0x4 PUSH2 0x392A JUMP JUMPDEST PUSH2 0x18F5 JUMP JUMPDEST PUSH1 0x40 DUP1 MLOAD PUSH1 0x1 PUSH1 0x1 PUSH1 0xA0 SHL SUB SWAP1 SWAP5 AND DUP5 MSTORE PUSH1 0x20 DUP5 ADD SWAP3 SWAP1 SWAP3 MSTORE PUSH2 0xFFFF AND SWAP1 DUP3 ADD MSTORE PUSH1 0x60 ADD PUSH2 0x26A JUMP JUMPDEST CALLVALUE DUP1 ISZERO PUSH2 0x8B6 JUMPI PUSH1 0x0 DUP1 REVERT JUMPDEST POP PUSH2 0x32D PUSH2 0x8C5 CALLDATASIZE PUSH1 0x4 PUSH2 0x3754 JUMP JUMPDEST PUSH2 0x1963 JUMP JUMPDEST CALLVALUE DUP1 ISZERO PUSH2 0x8D6 JUMPI PUSH1 0x0 DUP1 REVERT JUMPDEST POP PUSH2 0x3AD PUSH32 0x0 DUP2 JUMP JUMPDEST CALLVALUE DUP1 ISZERO PUSH2 0x90A JUMPI PUSH1 0x0 DUP1 REVERT JUMPDEST POP PUSH1 0x2 SLOAD PUSH2 0x91F SWAP1 PUSH1 0x1 PUSH1 0xA0 SHL SWAP1 DIV PUSH1 0xFF AND DUP2 JUMP JUMPDEST PUSH1 0x40 MLOAD PUSH1 0xFF SWAP1 SWAP2 AND DUP2 MSTORE PUSH1 0x20 ADD PUSH2 0x26A JUMP JUMPDEST CALLVALUE DUP1 ISZERO PUSH2 0x93D JUMPI PUSH1 0x0 DUP1 REVERT JUMPDEST POP PUSH2 0x260 PUSH2 0x94C CALLDATASIZE PUSH1 0x4 PUSH2 0x3754 JUMP JUMPDEST PUSH2 0x19BF JUMP JUMPDEST CALLVALUE DUP1 ISZERO PUSH2 0x95D JUMPI PUSH1 0x0 DUP1 REVERT JUMPDEST POP PUSH2 0x32D PUSH2 0x96C CALLDATASIZE PUSH1 0x4 PUSH2 0x3640 JUMP JUMPDEST PUSH2 0x19CC JUMP JUMPDEST CALLVALUE DUP1 ISZERO PUSH2 0x97D JUMPI PUSH1 0x0 DUP1 REVERT JUMPDEST POP PUSH2 0x32D PUSH2 0x98C CALLDATASIZE PUSH1 0x4 PUSH2 0x3640 JUMP JUMPDEST PUSH2 0x1C84 JUMP JUMPDEST PUSH1 0x0 PUSH2 0x9D4 DUP6 DUP6 DUP6 DUP6 DUP1 DUP1 PUSH1 0x1F ADD PUSH1 0x20 DUP1 SWAP2 DIV MUL PUSH1 0x20 ADD PUSH1 0x40 MLOAD SWAP1 DUP2 ADD PUSH1 0x40 MSTORE DUP1 SWAP4 SWAP3 SWAP2 SWAP1 DUP2 DUP2 MSTORE PUSH1 0x20 ADD DUP4 DUP4 DUP1 DUP3 DUP5 CALLDATACOPY PUSH1 0x0 SWAP3 ADD SWAP2 SWAP1 SWAP2 MSTORE POP PUSH2 0x1CA7 SWAP3 POP POP POP JUMP JUMPDEST PUSH2 0x9E0 DUP6 DUP6 PUSH1 0x1 PUSH2 0x1CE9 JUMP JUMPDEST SWAP6 SWAP5 POP POP POP POP POP JUMP JUMPDEST PUSH1 0x0 PUSH2 0xA1B PUSH4 0xFFFFFFFF PUSH32 0x0 AND TIMESTAMP PUSH2 0x3980 JUMP JUMPDEST SWAP1 POP SWAP1 JUMP JUMPDEST TIMESTAMP DUP4 PUSH1 0x1 PUSH1 0x1 PUSH1 0x40 SHL SUB AND GT DUP1 ISZERO PUSH2 0xA38 JUMPI POP PUSH1 0x0 CALLVALUE GT JUMPDEST DUP1 ISZERO PUSH2 0xA44 JUMPI POP PUSH1 0x1 DUP6 GT JUMPDEST PUSH2 0xA4D JUMPI PUSH1 0x0 DUP1 REVERT JUMPDEST PUSH1 0x1 PUSH1 0x1 PUSH1 0x80 SHL SUB SELFBALANCE GT ISZERO PUSH2 0xA61 JUMPI PUSH1 0x0 DUP1 REVERT JUMPDEST PUSH1 0x0 PUSH2 0xA6B PUSH2 0x9E9 JUMP JUMPDEST SWAP1 POP PUSH1 0x0 PUSH2 0xA9F PUSH4 0xFFFFFFFF PUSH32 0x0 AND DUP7 PUSH2 0x3994 JUMP JUMPDEST PUSH2 0xAAA SWAP1 PUSH1 0x1 PUSH2 0x39BA JUMP JUMPDEST SWAP1 POP PUSH1 0x0 PUSH2 0xAB8 DUP4 DUP4 PUSH2 0x39E0 JUMP JUMPDEST PUSH2 0xFFFF AND SWAP1 POP PUSH1 0x0 DUP9 DUP3 PUSH2 0xACC CALLVALUE DUP9 PUSH2 0x2267 JUMP JUMPDEST PUSH2 0xAD6 SWAP2 SWAP1 PUSH2 0x3980 JUMP JUMPDEST PUSH2 0xAE0 SWAP2 SWAP1 PUSH2 0x3980 JUMP JUMPDEST SWAP1 POP PUSH1 0x0 DUP2 PUSH1 0x1 PUSH1 0x1 PUSH1 0x80 SHL SUB AND GT DUP1 ISZERO PUSH2 0xB22 JUMPI POP CALLVALUE DUP10 DUP7 PUSH2 0xB0C DUP6 PUSH1 0x1 PUSH1 0x1 PUSH1 0x80 SHL SUB DUP7 AND PUSH2 0x3A03 JUMP JUMPDEST PUSH2 0xB16 SWAP2 SWAP1 PUSH2 0x3A03 JUMP JUMPDEST PUSH2 0xB20 SWAP2 SWAP1 PUSH2 0x3A03 JUMP JUMPDEST EQ JUMPDEST PUSH2 0xB2B JUMPI PUSH1 0x0 DUP1 REVERT JUMPDEST PUSH1 0x0 JUMPDEST DUP10 DUP2 LT ISZERO PUSH2 0xC46 JUMPI PUSH1 0x0 PUSH2 0xB6B DUP13 DUP13 DUP5 DUP2 DUP2 LT PUSH2 0xB4D JUMPI PUSH2 0xB4D PUSH2 0x3A22 JUMP JUMPDEST SWAP1 POP PUSH1 0x20 MUL ADD PUSH1 0x20 DUP2 ADD SWAP1 PUSH2 0xB62 SWAP2 SWAP1 PUSH2 0x3754 JUMP JUMPDEST DUP12 DUP12 DUP7 DUP12 PUSH2 0x2273 JUMP JUMPDEST SWAP1 POP PUSH1 0x0 JUMPDEST DUP8 DUP2 LT ISZERO PUSH2 0xC31 JUMPI DUP2 PUSH1 0x8 ADD PUSH1 0x40 MLOAD DUP1 PUSH1 0x60 ADD PUSH1 0x40 MSTORE DUP1 DUP12 DUP12 DUP6 DUP2 DUP2 LT PUSH2 0xB99 JUMPI PUSH2 0xB99 PUSH2 0x3A22 JUMP JUMPDEST SWAP1 POP PUSH1 0x20 MUL ADD PUSH1 0x20 DUP2 ADD SWAP1 PUSH2 0xBAE SWAP2 SWAP1 PUSH2 0x3640 JUMP JUMPDEST PUSH1 0x1 PUSH1 0x1 PUSH1 0xA0 SHL SUB SWAP1 DUP2 AND DUP3 MSTORE PUSH1 0x0 PUSH1 0x20 DUP1 DUP5 ADD DUP3 SWAP1 MSTORE PUSH1 0x40 SWAP4 DUP5 ADD DUP3 SWAP1 MSTORE DUP6 SLOAD PUSH1 0x1 DUP1 DUP3 ADD DUP9 SSTORE SWAP7 DUP4 MSTORE SWAP2 DUP2 SWAP1 KECCAK256 DUP6 MLOAD PUSH1 0x3 SWAP1 SWAP4 MUL ADD DUP1 SLOAD PUSH1 0x1 PUSH1 0x1 PUSH1 0xA0 SHL SUB NOT AND SWAP3 SWAP1 SWAP4 AND SWAP2 SWAP1 SWAP2 OR DUP3 SSTORE DUP4 ADD MLOAD SWAP4 DUP2 ADD SWAP4 SWAP1 SWAP4 SSTORE ADD MLOAD PUSH1 0x2 SWAP1 SWAP2 ADD DUP1 SLOAD PUSH2 0xFFFF NOT AND PUSH2 0xFFFF SWAP1 SWAP3 AND SWAP2 SWAP1 SWAP2 OR SWAP1 SSTORE DUP1 PUSH2 0xC29 DUP2 PUSH2 0x3A38 JUMP JUMPDEST SWAP2 POP POP PUSH2 0xB70 JUMP JUMPDEST POP POP DUP1 DUP1 PUSH2 0xC3E SWAP1 PUSH2 0x3A38 JUMP JUMPDEST SWAP2 POP POP PUSH2 0xB2E JUMP JUMPDEST POP PUSH1 0x0 PUSH2 0xC5C PUSH1 0x1 PUSH1 0x1 PUSH1 0x80 SHL SUB DUP4 AND DUP12 PUSH2 0x3A03 JUMP JUMPDEST SWAP1 POP PUSH1 0x0 JUMPDEST DUP7 DUP2 LT ISZERO PUSH2 0xCB4 JUMPI PUSH1 0x0 DUP9 DUP9 DUP4 DUP2 DUP2 LT PUSH2 0xC7D JUMPI PUSH2 0xC7D PUSH2 0x3A22 JUMP JUMPDEST SWAP1 POP PUSH1 0x20 MUL ADD PUSH1 0x20 DUP2 ADD SWAP1 PUSH2 0xC92 SWAP2 SWAP1 PUSH2 0x3640 JUMP JUMPDEST SWAP1 POP PUSH2 0xCA1 DUP8 DUP8 DUP4 DUP8 DUP8 PUSH2 0x2412 JUMP JUMPDEST POP DUP1 PUSH2 0xCAC DUP2 PUSH2 0x3A38 JUMP JUMPDEST SWAP2 POP POP PUSH2 0xC61 JUMP JUMPDEST POP POP POP POP POP POP POP POP POP POP POP POP JUMP JUMPDEST PUSH1 0x0 PUSH2 0xA1B CALLER JUMPDEST CALLER PUSH1 0x0 SWAP1 DUP2 MSTORE PUSH1 0x5 PUSH1 0x20 MSTORE PUSH1 0x40 DUP2 KECCAK256 DUP1 SLOAD PUSH1 0x1 PUSH1 0x1 PUSH1 0x80 SHL SUB AND DUP1 PUSH2 0xCED JUMPI PUSH1 0x0 DUP1 REVERT JUMPDEST DUP2 SLOAD PUSH1 0x1 PUSH1 0x1 PUSH1 0x80 SHL SUB NOT AND DUP3 SSTORE PUSH2 0xD0E PUSH1 0x1 PUSH1 0x1 PUSH1 0xA0 SHL SUB DUP6 AND DUP3 PUSH2 0x25E6 JUMP JUMPDEST PUSH1 0x40 MLOAD DUP2 DUP2 MSTORE PUSH1 0x1 PUSH1 0x1 PUSH1 0xA0 SHL SUB DUP6 AND SWAP1 CALLER SWAP1 PUSH32 0xD1C19FBCD4551A5EDFB66D43D2E337C04837AFDA3482B42BDF569A8FCCDAE5FB SWAP1 PUSH1 0x20 ADD PUSH1 0x40 MLOAD DUP1 SWAP2 SUB SWAP1 LOG3 SWAP4 SWAP3 POP POP POP JUMP JUMPDEST PUSH1 0x1 PUSH1 0x1 PUSH1 0x80 SHL SUB NOT DUP2 AND PUSH1 0x0 SWAP1 DUP2 MSTORE PUSH1 0x4 PUSH1 0x20 MSTORE PUSH1 0x40 DUP2 KECCAK256 PUSH1 0x1 DUP2 ADD SLOAD PUSH1 0x1 PUSH1 0x1 PUSH1 0xA0 SHL SUB AND ISZERO PUSH2 0xD94 JUMPI PUSH1 0x1 DUP2 ADD SLOAD PUSH1 0x1 PUSH1 0x1 PUSH1 0xA0 SHL SUB AND PUSH2 0xDA5 JUMP JUMPDEST DUP1 SLOAD PUSH2 0x100 SWAP1 DIV PUSH1 0x1 PUSH1 0x1 PUSH1 0xA0 SHL SUB AND JUMPDEST SWAP4 SWAP3 POP POP POP JUMP JUMPDEST PUSH1 0x0 SLOAD PUSH1 0x1 PUSH1 0x1 PUSH1 0xA0 SHL SUB AND CALLER EQ PUSH2 0xDC3 JUMPI PUSH1 0x0 DUP1 REVERT JUMPDEST DUP2 PUSH1 0x1 PUSH1 0x1 PUSH1 0x80 SHL SUB AND DUP4 PUSH1 0x1 PUSH1 0x1 PUSH1 0x80 SHL SUB AND GT ISZERO DUP1 ISZERO PUSH2 0xDF7 JUMPI POP DUP1 PUSH1 0x1 PUSH1 0x1 PUSH1 0x80 SHL SUB AND DUP3 PUSH1 0x1 PUSH1 0x1 PUSH1 0x80 SHL SUB AND GT ISZERO JUMPDEST PUSH2 0xE00 JUMPI PUSH1 0x0 DUP1 REVERT JUMPDEST PUSH1 0x40 DUP1 MLOAD PUSH1 0x60 DUP1 DUP3 ADD DUP4 MSTORE PUSH1 0x1 PUSH1 0x1 PUSH1 0x80 SHL SUB DUP7 DUP2 AND DUP1 DUP5 MSTORE DUP7 DUP3 AND PUSH1 0x20 DUP1 DUP7 ADD DUP3 SWAP1 MSTORE SWAP3 DUP8 AND SWAP5 DUP7 ADD DUP6 SWAP1 MSTORE PUSH1 0x1 PUSH1 0x80 SHL DUP2 MUL DUP3 OR PUSH1 0x6 SSTORE PUSH1 0x7 DUP1 SLOAD PUSH1 0x1 PUSH1 0x1 PUSH1 0x80 SHL SUB NOT AND DUP7 OR SWAP1 SSTORE DUP6 MLOAD SWAP2 DUP3 MSTORE SWAP2 DUP2 ADD SWAP2 SWAP1 SWAP2 MSTORE SWAP3 DUP4 ADD SWAP2 SWAP1 SWAP2 MSTORE CALLER SWAP2 PUSH32 0x3A93FB7C2385D29E9693A6EDCD81C4CEE090101CB783DC2F17A7814B79A2ECDC SWAP2 ADD PUSH1 0x40 MLOAD DUP1 SWAP2 SUB SWAP1 LOG2 POP POP POP JUMP JUMPDEST PUSH1 0x0 PUSH1 0x1 PUSH1 0x1 PUSH1 0xA0 SHL SUB DUP3 AND PUSH2 0xEA5 JUMPI PUSH1 0x0 DUP1 REVERT JUMPDEST PUSH1 0x1 PUSH1 0x1 PUSH1 0x80 SHL SUB NOT DUP4 AND PUSH1 0x0 SWAP1 DUP2 MSTORE PUSH1 0x4 PUSH1 0x20 MSTORE PUSH1 0x40 SWAP1 KECCAK256 PUSH1 0x1 DUP2 ADD SLOAD PUSH1 0x1 PUSH1 0x1 PUSH1 0xA0 SHL SUB AND CALLER EQ DUP1 PUSH2 0xEE7 JUMPI POP DUP1 SLOAD PUSH2 0x100 SWAP1 DIV PUSH1 0x1 PUSH1 0x1 PUSH1 0xA0 SHL SUB AND CALLER EQ JUMPDEST PUSH2 0xEF0 JUMPI PUSH1 0x0 DUP1 REVERT JUMPDEST PUSH2 0xEFC DUP5 DUP5 PUSH1 0x0 PUSH2 0x1CE9 JUMP JUMPDEST SWAP2 POP POP JUMPDEST SWAP3 SWAP2 POP POP JUMP JUMPDEST PUSH1 0x0 SLOAD PUSH1 0x1 PUSH1 0x1 PUSH1 0xA0 SHL SUB AND CALLER EQ PUSH2 0xF1D JUMPI PUSH1 0x0 DUP1 REVERT JUMPDEST PUSH1 0x0 DUP1 SLOAD PUSH1 0x40 MLOAD PUSH1 0x1 PUSH1 0x1 PUSH1 0xA0 SHL SUB SWAP1 SWAP2 AND SWAP1 PUSH32 0x8BE0079C531659141344CD1FD0A4F28419497F9722A3DAAFE3B4186F6B6457E0 SWAP1 DUP4 SWAP1 LOG3 PUSH1 0x0 DUP1 SLOAD PUSH1 0x1 PUSH1 0x1 PUSH1 0xA0 SHL SUB NOT AND SWAP1 SSTORE JUMP JUMPDEST CALLER PUSH1 0x1 PUSH1 0x1 PUSH1 0xA0 SHL SUB PUSH32 0x0 AND EQ PUSH2 0xF9C JUMPI PUSH1 0x0 DUP1 REVERT JUMPDEST PUSH1 0x1 PUSH1 0x1 PUSH1 0xA0 SHL SUB DUP3 AND PUSH1 0x0 SWAP1 DUP2 MSTORE PUSH1 0x5 PUSH1 0x20 MSTORE PUSH1 0x40 SWAP1 KECCAK256 DUP1 SLOAD PUSH1 0x1 PUSH1 0x80 SHL SWAP1 DIV PUSH2 0xFFFF AND ISZERO DUP1 ISZERO PUSH2 0xFDC JUMPI POP PUSH2 0xFD1 PUSH2 0x9E9 JUMP JUMPDEST PUSH2 0xFFFF AND DUP3 PUSH2 0xFFFF AND LT JUMPDEST PUSH2 0xFE5 JUMPI PUSH1 0x0 DUP1 REVERT JUMPDEST DUP1 SLOAD PUSH2 0xFFFF SWAP1 SWAP3 AND PUSH1 0x1 PUSH1 0x80 SHL MUL PUSH2 0xFFFF PUSH1 0x80 SHL NOT SWAP1 SWAP3 AND SWAP2 SWAP1 SWAP2 OR SWAP1 SSTORE POP JUMP JUMPDEST TIMESTAMP DUP4 PUSH1 0x1 PUSH1 0x1 PUSH1 0x40 SHL SUB AND GT DUP1 ISZERO PUSH2 0x101E JUMPI POP PUSH1 0x0 CALLVALUE GT JUMPDEST PUSH2 0x1027 JUMPI PUSH1 0x0 DUP1 REVERT JUMPDEST PUSH1 0x1 PUSH1 0x1 PUSH1 0x80 SHL SUB SELFBALANCE GT ISZERO PUSH2 0x103B JUMPI PUSH1 0x0 DUP1 REVERT JUMPDEST PUSH1 0x0 PUSH2 0x1045 PUSH2 0x9E9 JUMP JUMPDEST SWAP1 POP PUSH1 0x0 PUSH2 0x1079 PUSH4 0xFFFFFFFF PUSH32 0x0 AND DUP7 PUSH2 0x3994 JUMP JUMPDEST PUSH2 0x1084 SWAP1 PUSH1 0x1 PUSH2 0x39BA JUMP JUMPDEST SWAP1 POP PUSH1 0x0 PUSH2 0x1092 DUP4 DUP4 PUSH2 0x39E0 JUMP JUMPDEST PUSH2 0xFFFF AND SWAP1 POP PUSH1 0x0 DUP2 PUSH2 0x10A5 CALLVALUE DUP8 PUSH2 0x2267 JUMP JUMPDEST PUSH2 0x10AF SWAP2 SWAP1 PUSH2 0x3980 JUMP JUMPDEST SWAP1 POP PUSH1 0x0 DUP2 PUSH1 0x1 PUSH1 0x1 PUSH1 0x80 SHL SUB AND GT DUP1 ISZERO PUSH2 0x10E6 JUMPI POP CALLVALUE DUP6 PUSH2 0x10DA DUP5 PUSH1 0x1 PUSH1 0x1 PUSH1 0x80 SHL SUB DUP6 AND PUSH2 0x3A03 JUMP JUMPDEST PUSH2 0x10E4 SWAP2 SWAP1 PUSH2 0x3A03 JUMP JUMPDEST EQ JUMPDEST PUSH2 0x10EF JUMPI PUSH1 0x0 DUP1 REVERT JUMPDEST PUSH1 0x0 PUSH2 0x10FE DUP11 DUP11 DUP11 DUP6 DUP11 PUSH2 0x2273 JUMP JUMPDEST SWAP1 POP PUSH1 0x0 JUMPDEST DUP7 DUP2 LT ISZERO PUSH2 0x11D8 JUMPI PUSH1 0x0 DUP9 DUP9 DUP4 DUP2 DUP2 LT PUSH2 0x111F JUMPI PUSH2 0x111F PUSH2 0x3A22 JUMP JUMPDEST SWAP1 POP PUSH1 0x20 MUL ADD PUSH1 0x20 DUP2 ADD SWAP1 PUSH2 0x1134 SWAP2 SWAP1 PUSH2 0x3640 JUMP JUMPDEST SWAP1 POP PUSH2 0x114C DUP8 DUP8 DUP4 DUP8 DUP9 PUSH1 0x1 PUSH1 0x1 PUSH1 0x80 SHL SUB AND PUSH2 0x2412 JUMP JUMPDEST PUSH1 0x40 DUP1 MLOAD PUSH1 0x60 DUP2 ADD DUP3 MSTORE PUSH1 0x1 PUSH1 0x1 PUSH1 0xA0 SHL SUB SWAP3 DUP4 AND DUP2 MSTORE PUSH1 0x0 PUSH1 0x20 DUP1 DUP4 ADD DUP3 DUP2 MSTORE SWAP4 DUP4 ADD DUP3 DUP2 MSTORE PUSH1 0x8 DUP9 ADD DUP1 SLOAD PUSH1 0x1 DUP1 DUP3 ADD DUP4 SSTORE SWAP2 DUP6 MSTORE SWAP3 SWAP1 SWAP4 KECCAK256 SWAP4 MLOAD PUSH1 0x3 SWAP1 SWAP3 MUL SWAP1 SWAP4 ADD DUP1 SLOAD PUSH1 0x1 PUSH1 0x1 PUSH1 0xA0 SHL SUB NOT AND SWAP2 SWAP1 SWAP6 AND OR DUP5 SSTORE SWAP2 MLOAD SWAP2 DUP4 ADD SWAP2 SWAP1 SWAP2 SSTORE MLOAD PUSH1 0x2 SWAP1 SWAP2 ADD DUP1 SLOAD PUSH2 0xFFFF NOT AND PUSH2 0xFFFF SWAP1 SWAP3 AND SWAP2 SWAP1 SWAP2 OR SWAP1 SSTORE DUP1 PUSH2 0x11D0 DUP2 PUSH2 0x3A38 JUMP JUMPDEST SWAP2 POP POP PUSH2 0x1103 JUMP JUMPDEST POP POP POP POP POP POP POP POP POP POP POP JUMP JUMPDEST PUSH1 0x1 PUSH1 0x1 PUSH1 0xA0 SHL SUB DUP2 AND PUSH1 0x0 SWAP1 DUP2 MSTORE PUSH1 0x5 PUSH1 0x20 MSTORE PUSH1 0x40 DUP2 KECCAK256 PUSH2 0xDA5 DUP2 PUSH2 0x26FF JUMP JUMPDEST PUSH1 0x6 SLOAD PUSH1 0x1 PUSH1 0x1 PUSH1 0x80 SHL SUB AND DUP2 LT DUP1 ISZERO SWAP1 PUSH2 0x122C JUMPI POP PUSH1 0x7 SLOAD PUSH1 0x1 PUSH1 0x1 PUSH1 0x80 SHL SUB AND DUP2 GT ISZERO JUMPDEST PUSH2 0x12A3 JUMPI PUSH1 0x40 MLOAD PUSH3 0x461BCD PUSH1 0xE5 SHL DUP2 MSTORE PUSH1 0x20 PUSH1 0x4 DUP3 ADD MSTORE PUSH1 0x3F PUSH1 0x24 DUP3 ADD MSTORE PUSH32 0x546865207374616B65722773206D696E206665652072617465206D7573742066 PUSH1 0x44 DUP3 ADD MSTORE PUSH32 0x616C6C2077697468696E2074686520676C6F62616C206665652072616E676500 PUSH1 0x64 DUP3 ADD MSTORE PUSH1 0x84 ADD JUMPDEST PUSH1 0x40 MLOAD DUP1 SWAP2 SUB SWAP1 REVERT JUMPDEST CALLER PUSH1 0x0 SWAP1 DUP2 MSTORE PUSH1 0x5 PUSH1 0x20 MSTORE PUSH1 0x40 SWAP1 KECCAK256 PUSH1 0x2 DUP2 ADD SLOAD DUP3 EQ ISZERO PUSH2 0x12C2 JUMPI POP POP JUMP JUMPDEST PUSH1 0x2 DUP2 ADD DUP3 SWAP1 SSTORE PUSH1 0x40 MLOAD DUP3 DUP2 MSTORE CALLER SWAP1 PUSH32 0x6B9024CC1BF5710F290BE788DCA9886DB7A3D9BE0DF0855BFA991DBF26A256BC SWAP1 PUSH1 0x20 ADD PUSH1 0x40 MLOAD DUP1 SWAP2 SUB SWAP1 LOG2 POP POP JUMP JUMPDEST PUSH1 0x0 PUSH1 0x1 PUSH1 0x1 PUSH1 0xA0 SHL SUB DUP3 AND PUSH2 0x1317 JUMPI PUSH1 0x0 DUP1 REVERT JUMPDEST CALLER PUSH2 0x1321 DUP5 PUSH2 0xD55 JUMP JUMPDEST PUSH1 0x1 PUSH1 0x1 PUSH1 0xA0 SHL SUB AND EQ PUSH2 0x1334 JUMPI PUSH1 0x0 DUP1 REVERT JUMPDEST PUSH2 0xDA5 DUP4 DUP4 PUSH1 0x1 PUSH2 0x1CE9 JUMP JUMPDEST PUSH1 0x0 PUSH1 0x1 PUSH1 0x1 PUSH1 0xA0 SHL SUB DUP4 AND ISZERO DUP1 ISZERO PUSH2 0x135D JUMPI POP DUP2 PUSH2 0xFFFF AND PUSH1 0xB EQ JUMPDEST ISZERO PUSH2 0x136A JUMPI POP PUSH1 0x37 PUSH2 0xF00 JUMP JUMPDEST POP PUSH1 0x1 PUSH1 0x1 PUSH1 0xA0 SHL SUB DUP3 AND PUSH1 0x0 SWAP1 DUP2 MSTORE PUSH1 0x5 PUSH1 0x20 SWAP1 DUP2 MSTORE PUSH1 0x40 DUP1 DUP4 KECCAK256 PUSH2 0xFFFF DUP6 AND DUP5 MSTORE PUSH1 0x4 ADD SWAP1 SWAP2 MSTORE SWAP1 KECCAK256 SLOAD SWAP3 SWAP2 POP POP JUMP JUMPDEST PUSH1 0x0 CALLER PUSH2 0x13A8 DUP4 PUSH2 0xD55 JUMP JUMPDEST PUSH1 0x1 PUSH1 0x1 PUSH1 0xA0 SHL SUB AND EQ PUSH2 0x13BB JUMPI PUSH1 0x0 DUP1 REVERT JUMPDEST PUSH2 0xF00 DUP3 PUSH1 0x0 PUSH1 0x1 PUSH2 0x1CE9 JUMP JUMPDEST PUSH1 0x0 PUSH1 0x1 PUSH1 0x1 PUSH1 0xA0 SHL SUB DUP3 AND PUSH2 0x13DD JUMPI PUSH1 0x0 DUP1 REVERT JUMPDEST PUSH2 0xDA5 DUP4 DUP4 PUSH2 0x2769 JUMP JUMPDEST CALLER PUSH1 0x1 PUSH1 0x1 PUSH1 0xA0 SHL SUB PUSH32 0x0 AND EQ PUSH2 0x141C JUMPI PUSH1 0x0 DUP1 REVERT JUMPDEST PUSH1 0x1 PUSH1 0x1 PUSH1 0xA0 SHL SUB DUP5 AND PUSH1 0x0 SWAP1 DUP2 MSTORE PUSH1 0x5 PUSH1 0x20 MSTORE PUSH1 0x40 SWAP1 KECCAK256 PUSH2 0x143C PUSH2 0x9E9 JUMP JUMPDEST DUP2 SLOAD PUSH2 0xFFFF SWAP2 DUP3 AND PUSH1 0x1 PUSH1 0x80 SHL SWAP1 SWAP2 DIV SWAP1 SWAP2 AND GT ISZERO PUSH2 0x145A JUMPI PUSH1 0x0 DUP1 REVERT JUMPDEST PUSH2 0xFFFF DUP5 AND ISZERO PUSH2 0x146E JUMPI PUSH2 0x146E DUP2 DUP6 PUSH2 0x28AD JUMP JUMPDEST PUSH2 0xFFFF DUP4 AND ISZERO PUSH2 0x1482 JUMPI PUSH2 0x1482 DUP2 DUP5 PUSH2 0x28AD JUMP JUMPDEST PUSH2 0xFFFF DUP3 AND ISZERO DUP1 ISZERO SWAP1 PUSH2 0x14A8 JUMPI POP PUSH2 0xFFFF DUP3 AND PUSH1 0x0 SWAP1 DUP2 MSTORE PUSH1 0x4 DUP3 ADD PUSH1 0x20 MSTORE PUSH1 0x40 SWAP1 KECCAK256 SLOAD ISZERO JUMPDEST ISZERO PUSH2 0x14CD JUMPI PUSH2 0xFFFF DUP3 AND PUSH1 0x0 SWAP1 DUP2 MSTORE PUSH1 0x4 DUP3 ADD PUSH1 0x20 MSTORE PUSH1 0x40 SWAP1 KECCAK256 PUSH1 0x1 PUSH1 0x1 PUSH1 0xFF SHL SUB SWAP1 SSTORE JUMPDEST POP POP POP POP POP JUMP JUMPDEST PUSH2 0x14DD DUP2 PUSH2 0x29F2 JUMP JUMPDEST PUSH1 0x8 SLOAD PUSH1 0x1 PUSH1 0x1 PUSH1 0x40 SHL SUB AND PUSH2 0x14FA DUP3 PUSH4 0x65A9AF87 PUSH1 0xE0 SHL PUSH2 0x2A4C JUMP JUMPDEST PUSH1 0x1 PUSH1 0x1 PUSH1 0x40 SHL SUB AND EQ PUSH2 0x150D JUMPI PUSH1 0x0 DUP1 REVERT JUMPDEST PUSH1 0x0 PUSH2 0x1518 DUP3 PUSH2 0x2A65 JUMP JUMPDEST DUP1 MLOAD PUSH1 0x6 SLOAD SWAP2 SWAP3 POP PUSH1 0x1 PUSH1 0x1 PUSH1 0x80 SHL SUB SWAP2 DUP3 AND SWAP2 AND EQ DUP1 ISZERO PUSH2 0x1553 JUMPI POP PUSH1 0x20 DUP2 ADD MLOAD PUSH1 0x6 SLOAD PUSH1 0x1 PUSH1 0x80 SHL SWAP1 DIV PUSH1 0x1 PUSH1 0x1 PUSH1 0x80 SHL SUB SWAP1 DUP2 AND SWAP2 AND EQ JUMPDEST DUP1 ISZERO PUSH2 0x1571 JUMPI POP PUSH1 0x40 DUP2 ADD MLOAD PUSH1 0x7 SLOAD PUSH1 0x1 PUSH1 0x1 PUSH1 0x80 SHL SUB SWAP1 DUP2 AND SWAP2 AND EQ JUMPDEST PUSH2 0x157A JUMPI PUSH1 0x0 DUP1 REVERT JUMPDEST PUSH1 0x0 DUP1 DUP1 MSTORE PUSH1 0x4 PUSH1 0x20 MSTORE PUSH32 0x17EF568E3E12AB5B9C7254A8D58478811DE00F9E6EB34345ACD53BF8FD09D3EC SWAP1 PUSH2 0x15B0 DUP5 DUP3 PUSH2 0x2A96 JUMP JUMPDEST DUP3 SLOAD PUSH1 0x20 DUP3 ADD MLOAD SWAP2 SWAP3 POP PUSH2 0x100 SWAP1 DIV PUSH1 0x1 PUSH1 0x1 PUSH1 0xA0 SHL SUB SWAP1 DUP2 AND SWAP2 AND EQ DUP1 ISZERO PUSH2 0x15ED JUMPI POP PUSH1 0x1 DUP3 ADD SLOAD PUSH1 0x40 DUP3 ADD MLOAD PUSH1 0x1 PUSH1 0x1 PUSH1 0xA0 SHL SUB SWAP1 DUP2 AND SWAP2 AND EQ JUMPDEST DUP1 ISZERO PUSH2 0x160D JUMPI POP PUSH1 0x2 DUP3 ADD SLOAD PUSH1 0x60 DUP3 ADD MLOAD PUSH1 0x1 PUSH1 0x1 PUSH1 0x80 SHL SUB SWAP1 DUP2 AND SWAP2 AND EQ JUMPDEST DUP1 ISZERO PUSH2 0x1634 JUMPI POP PUSH1 0x2 DUP3 ADD SLOAD PUSH1 0x80 DUP3 ADD MLOAD PUSH1 0x1 PUSH1 0x1 PUSH1 0x40 SHL SUB SWAP1 DUP2 AND PUSH1 0x1 PUSH1 0x80 SHL SWAP1 SWAP3 DIV AND EQ JUMPDEST DUP1 ISZERO PUSH2 0x165B JUMPI POP PUSH1 0x2 DUP3 ADD SLOAD PUSH1 0xA0 DUP3 ADD MLOAD PUSH1 0x1 PUSH1 0x1 PUSH1 0x40 SHL SUB SWAP1 DUP2 AND PUSH1 0x1 PUSH1 0xC0 SHL SWAP1 SWAP3 DIV AND EQ JUMPDEST DUP1 ISZERO PUSH2 0x1671 JUMPI POP DUP2 SLOAD DUP2 MLOAD ISZERO ISZERO PUSH1 0xFF SWAP1 SWAP2 AND ISZERO ISZERO EQ JUMPDEST PUSH2 0x167A JUMPI PUSH1 0x0 DUP1 REVERT JUMPDEST PUSH1 0x8 DUP3 ADD SLOAD PUSH2 0x1692 DUP6 PUSH4 0x6BD2AF57 PUSH1 0xE0 SHL PUSH1 0x0 PUSH2 0x2B52 JUMP JUMPDEST EQ PUSH2 0x169C JUMPI PUSH1 0x0 DUP1 REVERT JUMPDEST PUSH1 0x8 DUP3 ADD SLOAD ISZERO PUSH2 0x1729 JUMPI PUSH1 0x0 DUP3 PUSH1 0x8 ADD PUSH1 0x0 DUP2 SLOAD DUP2 LT PUSH2 0x16BE JUMPI PUSH2 0x16BE PUSH2 0x3A22 JUMP JUMPDEST PUSH1 0x0 SWAP2 DUP3 MSTORE PUSH1 0x20 DUP3 KECCAK256 PUSH1 0x3 SWAP1 SWAP2 MUL ADD SWAP2 POP PUSH2 0x16DA DUP7 DUP3 DUP1 PUSH2 0x2B6D JUMP JUMPDEST DUP3 SLOAD DUP2 MLOAD SWAP2 SWAP3 POP PUSH1 0x1 PUSH1 0x1 PUSH1 0xA0 SHL SUB SWAP2 DUP3 AND SWAP2 AND EQ DUP1 ISZERO PUSH2 0x1702 JUMPI POP DUP2 PUSH1 0x1 ADD SLOAD DUP2 PUSH1 0x20 ADD MLOAD EQ JUMPDEST DUP1 ISZERO PUSH2 0x171D JUMPI POP PUSH1 0x2 DUP3 ADD SLOAD PUSH1 0x40 DUP3 ADD MLOAD PUSH2 0xFFFF SWAP1 DUP2 AND SWAP2 AND EQ JUMPDEST PUSH2 0x1726 JUMPI PUSH1 0x0 DUP1 REVERT JUMPDEST POP POP JUMPDEST PUSH1 0x0 DUP1 DUP1 MSTORE PUSH1 0x5 PUSH1 0x20 MSTORE PUSH32 0x5B8CCBB9D4D8FB16EA74CE3C29A41F1B461FBDAFF4714A0D9A8EB05499746BC SWAP1 PUSH2 0x175F DUP7 DUP3 PUSH2 0x2BA9 JUMP JUMPDEST DUP3 SLOAD DUP2 MLOAD SWAP2 SWAP3 POP PUSH1 0x1 PUSH1 0x1 PUSH1 0x80 SHL SUB SWAP2 DUP3 AND SWAP2 AND EQ DUP1 ISZERO PUSH2 0x1787 JUMPI POP DUP2 PUSH1 0x1 ADD SLOAD DUP2 PUSH1 0x40 ADD MLOAD EQ JUMPDEST DUP1 ISZERO PUSH2 0x17A6 JUMPI POP DUP2 SLOAD PUSH1 0x20 DUP3 ADD MLOAD PUSH2 0xFFFF SWAP1 DUP2 AND PUSH1 0x1 PUSH1 0x80 SHL SWAP1 SWAP3 DIV AND EQ JUMPDEST DUP1 ISZERO PUSH2 0x17B9 JUMPI POP DUP2 PUSH1 0x2 ADD SLOAD DUP2 PUSH1 0x60 ADD MLOAD EQ JUMPDEST PUSH2 0x17C2 JUMPI PUSH1 0x0 DUP1 REVERT JUMPDEST PUSH2 0x17CE PUSH1 0x0 PUSH1 0xB PUSH2 0x1340 JUMP JUMPDEST PUSH2 0x17E3 DUP8 PUSH4 0x4740E52D PUSH1 0xE1 SHL PUSH1 0x0 PUSH1 0xB PUSH2 0x2BEB JUMP JUMPDEST EQ PUSH2 0x17ED JUMPI PUSH1 0x0 DUP1 REVERT JUMPDEST POP POP POP POP POP POP JUMP JUMPDEST PUSH1 0x40 MLOAD PUSH1 0x1 PUSH1 0x1 PUSH1 0x80 SHL SUB NOT DUP4 AND PUSH1 0x20 DUP3 ADD MSTORE PUSH12 0xFFFFFFFFFFFFFFFFFFFFFFFF NOT PUSH1 0x60 DUP4 SWAP1 SHL AND PUSH1 0x30 DUP3 ADD MSTORE PUSH1 0x0 SWAP1 PUSH2 0xDA5 SWAP1 PUSH1 0x44 ADD PUSH1 0x40 DUP1 MLOAD PUSH1 0x1F NOT DUP2 DUP5 SUB ADD DUP2 MSTORE SWAP2 SWAP1 MSTORE PUSH1 0x45 PUSH1 0xF8 SHL PUSH2 0x2C07 JUMP JUMPDEST CALLER PUSH1 0x1 PUSH1 0x1 PUSH1 0xA0 SHL SUB PUSH32 0x0 AND EQ PUSH2 0x187A JUMPI PUSH1 0x0 DUP1 REVERT JUMPDEST PUSH1 0x1 PUSH1 0x1 PUSH1 0xA0 SHL SUB DUP2 AND PUSH1 0x0 SWAP1 DUP2 MSTORE PUSH1 0x5 PUSH1 0x20 MSTORE PUSH1 0x40 SWAP1 KECCAK256 PUSH2 0x189A PUSH2 0x9E9 JUMP JUMPDEST DUP2 SLOAD PUSH2 0xFFFF SWAP2 DUP3 AND PUSH1 0x1 PUSH1 0x80 SHL SWAP1 SWAP2 DIV SWAP1 SWAP2 AND LT ISZERO PUSH2 0x18B8 JUMPI PUSH1 0x0 DUP1 REVERT JUMPDEST DUP1 SLOAD PUSH2 0x18CE SWAP1 PUSH1 0x1 PUSH1 0x80 SHL SWAP1 DIV PUSH2 0xFFFF AND PUSH2 0x2E48 JUMP JUMPDEST DUP2 SLOAD PUSH2 0xFFFF SWAP2 SWAP1 SWAP2 AND PUSH1 0x1 PUSH1 0x80 SHL MUL PUSH2 0xFFFF PUSH1 0x80 SHL NOT SWAP1 SWAP2 AND OR DUP2 SSTORE PUSH1 0x0 PUSH1 0x1 SWAP1 SWAP2 ADD SSTORE POP JUMP JUMPDEST PUSH1 0x1 PUSH1 0x1 PUSH1 0x80 SHL SUB NOT DUP3 AND PUSH1 0x0 SWAP1 DUP2 MSTORE PUSH1 0x4 PUSH1 0x20 MSTORE PUSH1 0x40 DUP2 KECCAK256 PUSH1 0x8 ADD DUP1 SLOAD DUP3 SWAP2 DUP3 SWAP2 DUP3 SWAP2 SWAP1 DUP7 SWAP1 DUP2 LT PUSH2 0x192A JUMPI PUSH2 0x192A PUSH2 0x3A22 JUMP JUMPDEST PUSH1 0x0 SWAP2 DUP3 MSTORE PUSH1 0x20 SWAP1 SWAP2 KECCAK256 PUSH1 0x3 SWAP1 SWAP2 MUL ADD DUP1 SLOAD PUSH1 0x1 DUP3 ADD SLOAD PUSH1 0x2 SWAP1 SWAP3 ADD SLOAD PUSH1 0x1 PUSH1 0x1 PUSH1 0xA0 SHL SUB SWAP1 SWAP2 AND SWAP9 SWAP2 SWAP8 POP PUSH2 0xFFFF AND SWAP6 POP SWAP4 POP POP POP POP JUMP JUMPDEST PUSH1 0x1 PUSH1 0x1 PUSH1 0x80 SHL SUB NOT DUP2 AND PUSH1 0x0 SWAP1 DUP2 MSTORE PUSH1 0x4 PUSH1 0x20 MSTORE PUSH1 0x40 SWAP1 KECCAK256 PUSH1 0x1 DUP2 ADD SLOAD PUSH1 0x1 PUSH1 0x1 PUSH1 0xA0 SHL SUB AND CALLER EQ DUP1 PUSH2 0x19A5 JUMPI POP DUP1 SLOAD PUSH2 0x100 SWAP1 DIV PUSH1 0x1 PUSH1 0x1 PUSH1 0xA0 SHL SUB AND CALLER EQ JUMPDEST PUSH2 0x19AE JUMPI PUSH1 0x0 DUP1 REVERT JUMPDEST PUSH2 0x19BA DUP3 PUSH1 0x0 DUP1 PUSH2 0x1CE9 JUMP JUMPDEST POP POP POP JUMP JUMPDEST PUSH1 0x0 PUSH2 0xF00 DUP3 PUSH1 0x0 PUSH2 0x2769 JUMP JUMPDEST PUSH2 0x19D5 DUP2 PUSH2 0x2EB1 JUMP JUMPDEST PUSH1 0x8 SLOAD PUSH1 0x1 PUSH1 0x1 PUSH1 0x40 SHL SUB AND PUSH2 0x1A02 JUMPI PUSH1 0x8 DUP1 SLOAD PUSH8 0xFFFFFFFFFFFFFFFF NOT AND TIMESTAMP PUSH1 0x1 PUSH1 0x1 PUSH1 0x40 SHL SUB AND OR SWAP1 SSTORE JUMPDEST POP PUSH1 0x4 PUSH1 0x20 SWAP1 DUP2 MSTORE PUSH32 0x17EF568E3E12AB5B9C7254A8D58478811DE00F9E6EB34345ACD53BF8FD09D3EC DUP1 SLOAD PUSH32 0x17EF568E3E12AB5B9C7254A8D58478811DE00F9E6EB34345ACD53BF8FD09D3ED DUP1 SLOAD ADDRESS PUSH1 0x1 PUSH1 0x1 PUSH1 0xA0 SHL SUB NOT SWAP2 DUP3 AND OR SWAP1 SWAP2 SSTORE PUSH25 0x2000000000000000100000000000000000000000000000003 PUSH32 0x17EF568E3E12AB5B9C7254A8D58478811DE00F9E6EB34345ACD53BF8FD09D3EE SSTORE PUSH1 0x1 PUSH1 0x1 PUSH1 0xA8 SHL SUB NOT SWAP1 SWAP2 AND CALLER PUSH2 0x100 MUL PUSH1 0xFF NOT AND OR PUSH1 0x1 SWAP1 DUP2 OR SWAP1 SWAP3 SSTORE PUSH1 0x40 DUP1 MLOAD PUSH1 0x60 DUP2 ADD DUP3 MSTORE PUSH1 0x0 DUP1 DUP3 MSTORE PUSH1 0xB DUP3 DUP8 ADD DUP2 DUP2 MSTORE PUSH1 0x16 SWAP5 DUP5 ADD SWAP5 DUP6 MSTORE PUSH32 0x17EF568E3E12AB5B9C7254A8D58478811DE00F9E6EB34345ACD53BF8FD09D3F4 DUP1 SLOAD SWAP8 DUP9 ADD DUP2 SSTORE DUP4 MSTORE SWAP3 MLOAD PUSH32 0xDAF6A3DF2E7FE032FABA7F1C41811297BB73983780E1888A846F8AA1A8324D27 PUSH1 0x3 SWAP1 SWAP8 MUL SWAP7 DUP8 ADD DUP1 SLOAD SWAP1 SWAP7 AND PUSH1 0x1 PUSH1 0x1 PUSH1 0xA0 SHL SUB SWAP1 SWAP2 AND OR SWAP1 SWAP5 SSTORE SWAP1 MLOAD PUSH32 0xDAF6A3DF2E7FE032FABA7F1C41811297BB73983780E1888A846F8AA1A8324D28 DUP6 ADD SSTORE SWAP1 MLOAD PUSH32 0xDAF6A3DF2E7FE032FABA7F1C41811297BB73983780E1888A846F8AA1A8324D29 SWAP1 SWAP4 ADD DUP1 SLOAD PUSH2 0xFFFF NOT AND PUSH2 0xFFFF SWAP1 SWAP5 AND SWAP4 SWAP1 SWAP4 OR SWAP1 SWAP3 SSTORE PUSH32 0x5B8CCBB9D4D8FB16EA74CE3C29A41F1B461FBDAFF4714A0D9A8EB05499746BC DUP1 SLOAD PUSH1 0x21 PUSH32 0x5B8CCBB9D4D8FB16EA74CE3C29A41F1B461FBDAFF4714A0D9A8EB05499746BD SSTORE PUSH18 0xFFFFFFFFFFFFFFFFFFFFFFFFFFFFFFFFFFFF NOT AND PUSH17 0x2C00000000000000000000000000000064 OR SWAP1 SSTORE SWAP1 MSTORE PUSH32 0x5B8CCBB9D4D8FB16EA74CE3C29A41F1B461FBDAFF4714A0D9A8EB05499746C0 SWAP1 MSTORE PUSH1 0x37 PUSH32 0x952B799CF669BEA82D5C90B8E8004C707505141B802E28ECFB2A120A84CC5185 SSTORE PUSH2 0x309 PUSH32 0x5B8CCBB9D4D8FB16EA74CE3C29A41F1B461FBDAFF4714A0D9A8EB05499746BE SSTORE JUMP JUMPDEST PUSH1 0x0 SLOAD PUSH1 0x1 PUSH1 0x1 PUSH1 0xA0 SHL SUB AND CALLER EQ PUSH2 0x1C9B JUMPI PUSH1 0x0 DUP1 REVERT JUMPDEST PUSH2 0x1CA4 DUP2 PUSH2 0x2F04 JUMP JUMPDEST POP JUMP JUMPDEST PUSH1 0x0 PUSH2 0x1CB3 DUP5 DUP5 PUSH2 0x17F5 JUMP JUMPDEST SWAP1 POP PUSH1 0x0 PUSH2 0x1CC1 DUP3 DUP5 PUSH2 0x2F72 JUMP JUMPDEST SWAP1 POP DUP1 PUSH1 0x1 PUSH1 0x1 PUSH1 0xA0 SHL SUB AND PUSH2 0x1CD6 DUP7 PUSH2 0xD55 JUMP JUMPDEST PUSH1 0x1 PUSH1 0x1 PUSH1 0xA0 SHL SUB AND EQ PUSH2 0x14CD JUMPI PUSH1 0x0 DUP1 REVERT JUMPDEST PUSH1 0x1 PUSH1 0x1 PUSH1 0x80 SHL SUB NOT DUP4 AND PUSH1 0x0 SWAP1 DUP2 MSTORE PUSH1 0x4 PUSH1 0x20 MSTORE PUSH1 0x40 DUP2 KECCAK256 DUP1 SLOAD PUSH1 0xFF AND ISZERO DUP1 ISZERO PUSH2 0x1D30 JUMPI POP PUSH1 0x8 SLOAD PUSH1 0x2 DUP3 ADD SLOAD PUSH1 0x1 PUSH1 0x1 PUSH1 0x40 SHL SUB SWAP2 DUP3 AND PUSH1 0x1 PUSH1 0x80 SHL SWAP1 SWAP2 DIV SWAP1 SWAP2 AND LT ISZERO JUMPDEST PUSH2 0x1D39 JUMPI PUSH1 0x0 DUP1 REVERT JUMPDEST PUSH1 0x2 DUP2 ADD SLOAD PUSH1 0x0 SWAP1 PUSH2 0x1D82 SWAP1 PUSH32 0x0 PUSH4 0xFFFFFFFF AND SWAP1 PUSH1 0x1 PUSH1 0xC0 SHL SWAP1 DIV PUSH1 0x1 PUSH1 0x1 PUSH1 0x40 SHL SUB AND PUSH2 0x3994 JUMP JUMPDEST PUSH2 0x1D8D SWAP1 PUSH1 0x1 PUSH2 0x39BA JUMP JUMPDEST PUSH1 0x8 DUP4 ADD SLOAD SWAP1 SWAP2 POP PUSH1 0x0 JUMPDEST PUSH1 0x8 DUP5 ADD SLOAD DUP2 LT ISZERO PUSH2 0x2165 JUMPI PUSH1 0x0 DUP5 PUSH1 0x8 ADD DUP3 DUP2 SLOAD DUP2 LT PUSH2 0x1DBB JUMPI PUSH2 0x1DBB PUSH2 0x3A22 JUMP JUMPDEST PUSH1 0x0 SWAP2 DUP3 MSTORE PUSH1 0x20 SWAP1 SWAP2 KECCAK256 PUSH1 0x3 SWAP1 SWAP2 MUL ADD DUP1 SLOAD SWAP1 SWAP2 POP PUSH1 0x1 PUSH1 0x1 PUSH1 0xA0 SHL SUB AND DUP1 ISZERO DUP1 PUSH2 0x1E0B JUMPI POP PUSH1 0x1 PUSH1 0x1 PUSH1 0xA0 SHL SUB DUP10 AND ISZERO DUP1 ISZERO SWAP1 PUSH2 0x1E0B JUMPI POP DUP1 PUSH1 0x1 PUSH1 0x1 PUSH1 0xA0 SHL SUB AND DUP10 PUSH1 0x1 PUSH1 0x1 PUSH1 0xA0 SHL SUB AND EQ ISZERO JUMPDEST ISZERO PUSH2 0x1E24 JUMPI DUP4 PUSH2 0x1E1A DUP2 PUSH2 0x3A53 JUMP JUMPDEST SWAP5 POP POP POP POP PUSH2 0x2153 JUMP JUMPDEST PUSH1 0x0 PUSH2 0x1E30 DUP8 DUP5 PUSH2 0x3031 JUMP JUMPDEST PUSH1 0x2 DUP7 ADD DUP1 SLOAD PUSH2 0xFFFF NOT AND PUSH2 0xFFFF SWAP3 SWAP1 SWAP3 AND SWAP2 SWAP1 SWAP2 OR SWAP1 SSTORE PUSH1 0x1 DUP6 ADD SSTORE SWAP1 POP DUP9 ISZERO PUSH2 0x2037 JUMPI PUSH1 0x1 PUSH1 0x1 PUSH1 0xA0 SHL SUB DUP3 AND PUSH1 0x0 SWAP1 DUP2 MSTORE PUSH1 0x5 PUSH1 0x20 SWAP1 DUP2 MSTORE PUSH1 0x40 DUP1 DUP4 KECCAK256 PUSH1 0x2 DUP8 ADD SLOAD PUSH2 0xFFFF AND DUP1 DUP6 MSTORE PUSH1 0x4 DUP3 ADD SWAP1 SWAP4 MSTORE SWAP3 KECCAK256 SLOAD PUSH1 0x1 PUSH1 0x1 PUSH1 0xFF SHL SUB EQ ISZERO PUSH2 0x1EC6 JUMPI PUSH1 0x2 DUP10 ADD SLOAD PUSH2 0x1EAB SWAP1 PUSH1 0x1 PUSH1 0x1 PUSH1 0x80 SHL SUB AND PUSH2 0x3A6A JUMP JUMPDEST PUSH2 0xFFFF DUP3 AND PUSH1 0x0 SWAP1 DUP2 MSTORE PUSH1 0x4 DUP5 ADD PUSH1 0x20 MSTORE PUSH1 0x40 SWAP1 KECCAK256 SSTORE PUSH2 0x1F02 JUMP JUMPDEST PUSH1 0x2 DUP10 ADD SLOAD PUSH2 0xFFFF DUP3 AND PUSH1 0x0 SWAP1 DUP2 MSTORE PUSH1 0x4 DUP5 ADD PUSH1 0x20 MSTORE PUSH1 0x40 DUP2 KECCAK256 DUP1 SLOAD PUSH1 0x1 PUSH1 0x1 PUSH1 0x80 SHL SUB SWAP1 SWAP4 AND SWAP3 SWAP1 SWAP2 SWAP1 PUSH2 0x1EFC SWAP1 DUP5 SWAP1 PUSH2 0x3A87 JUMP JUMPDEST SWAP1 SWAP2 SSTORE POP POP JUMPDEST PUSH2 0xFFFF DUP9 AND PUSH1 0x0 SWAP1 DUP2 MSTORE PUSH1 0x4 DUP4 ADD PUSH1 0x20 MSTORE PUSH1 0x40 SWAP1 KECCAK256 SLOAD PUSH1 0x1 PUSH1 0x1 PUSH1 0xFF SHL SUB EQ ISZERO PUSH2 0x1F52 JUMPI PUSH1 0x2 DUP10 ADD SLOAD PUSH2 0xFFFF DUP10 AND PUSH1 0x0 SWAP1 DUP2 MSTORE PUSH1 0x4 DUP5 ADD PUSH1 0x20 MSTORE PUSH1 0x40 SWAP1 KECCAK256 PUSH1 0x1 PUSH1 0x1 PUSH1 0x80 SHL SUB SWAP1 SWAP2 AND SWAP1 SSTORE PUSH2 0x1F8E JUMP JUMPDEST PUSH1 0x2 DUP10 ADD SLOAD PUSH2 0xFFFF DUP10 AND PUSH1 0x0 SWAP1 DUP2 MSTORE PUSH1 0x4 DUP5 ADD PUSH1 0x20 MSTORE PUSH1 0x40 DUP2 KECCAK256 DUP1 SLOAD PUSH1 0x1 PUSH1 0x1 PUSH1 0x80 SHL SUB SWAP1 SWAP4 AND SWAP3 SWAP1 SWAP2 SWAP1 PUSH2 0x1F88 SWAP1 DUP5 SWAP1 PUSH2 0x3AC6 JUMP JUMPDEST SWAP1 SWAP2 SSTORE POP POP JUMPDEST PUSH2 0xFFFF DUP2 AND PUSH1 0x0 SWAP1 DUP2 MSTORE PUSH1 0x4 DUP4 ADD PUSH1 0x20 MSTORE PUSH1 0x40 SWAP1 KECCAK256 SLOAD PUSH2 0x1FC8 JUMPI PUSH2 0xFFFF DUP2 AND PUSH1 0x0 SWAP1 DUP2 MSTORE PUSH1 0x4 DUP4 ADD PUSH1 0x20 MSTORE PUSH1 0x40 SWAP1 KECCAK256 PUSH1 0x1 PUSH1 0x1 PUSH1 0xFF SHL SUB SWAP1 SSTORE JUMPDEST PUSH2 0xFFFF DUP9 AND PUSH1 0x0 SWAP1 DUP2 MSTORE PUSH1 0x4 DUP4 ADD PUSH1 0x20 MSTORE PUSH1 0x40 SWAP1 KECCAK256 SLOAD PUSH2 0x2002 JUMPI PUSH2 0xFFFF DUP9 AND PUSH1 0x0 SWAP1 DUP2 MSTORE PUSH1 0x4 DUP4 ADD PUSH1 0x20 MSTORE PUSH1 0x40 SWAP1 KECCAK256 PUSH1 0x1 PUSH1 0x1 PUSH1 0xFF SHL SUB SWAP1 SSTORE JUMPDEST PUSH1 0x2 DUP10 ADD SLOAD PUSH1 0x1 PUSH1 0x1 PUSH1 0x80 SHL SUB AND PUSH2 0x201A DUP3 DUP11 PUSH2 0x39E0 JUMP JUMPDEST PUSH2 0xFFFF AND PUSH2 0x2028 SWAP2 SWAP1 PUSH2 0x3A03 JUMP JUMPDEST PUSH2 0x2032 SWAP1 DUP5 PUSH2 0x3B07 JUMP JUMPDEST SWAP3 POP POP POP JUMPDEST DUP9 DUP1 PUSH2 0x204E JUMPI POP PUSH1 0x2 DUP4 ADD SLOAD PUSH2 0xFFFF DUP1 DUP9 AND SWAP2 AND LT ISZERO JUMPDEST ISZERO PUSH2 0x20DF JUMPI DUP3 SLOAD PUSH1 0x1 PUSH1 0x1 PUSH1 0xA0 SHL SUB NOT AND DUP4 SSTORE PUSH1 0x0 PUSH1 0x1 DUP5 ADD SSTORE PUSH1 0x2 DUP4 ADD DUP1 SLOAD PUSH2 0xFFFF NOT AND SWAP1 SSTORE DUP5 PUSH2 0x207F DUP2 PUSH2 0x3A53 JUMP JUMPDEST SWAP6 POP POP DUP2 PUSH1 0x1 PUSH1 0x1 PUSH1 0xA0 SHL SUB AND CALLER PUSH1 0x1 PUSH1 0x1 PUSH1 0xA0 SHL SUB AND DUP13 PUSH1 0x1 PUSH1 0x1 PUSH1 0x80 SHL SUB NOT AND PUSH32 0xF3B13DF5BDD5EFCB090F73617909A6295EE75815920224C512D784B2726812F1 DUP5 PUSH1 0x40 MLOAD PUSH2 0x20D2 SWAP2 DUP2 MSTORE PUSH1 0x20 ADD SWAP1 JUMP JUMPDEST PUSH1 0x40 MLOAD DUP1 SWAP2 SUB SWAP1 LOG4 PUSH2 0x212C JUMP JUMPDEST PUSH1 0x40 MLOAD DUP2 DUP2 MSTORE PUSH1 0x1 PUSH1 0x1 PUSH1 0xA0 SHL SUB DUP4 AND SWAP1 CALLER SWAP1 PUSH1 0x1 PUSH1 0x1 PUSH1 0x80 SHL SUB NOT DUP15 AND SWAP1 PUSH32 0xAB654B569128C88FFCD210806A5E48EE14C541E2C76923F143281F20807090C1 SWAP1 PUSH1 0x20 ADD PUSH1 0x40 MLOAD DUP1 SWAP2 SUB SWAP1 LOG4 JUMPDEST PUSH2 0x2136 DUP2 DUP10 PUSH2 0x3B07 JUMP JUMPDEST SWAP8 POP PUSH1 0x1 PUSH1 0x1 PUSH1 0xA0 SHL SUB DUP11 AND ISZERO PUSH2 0x214F JUMPI POP POP POP PUSH2 0x2165 JUMP JUMPDEST POP POP POP JUMPDEST DUP1 PUSH2 0x215D DUP2 PUSH2 0x3A38 JUMP JUMPDEST SWAP2 POP POP PUSH2 0x1D98 JUMP JUMPDEST DUP4 SLOAD PUSH1 0x1 PUSH1 0x1 PUSH1 0xA0 SHL SUB PUSH2 0x100 SWAP1 SWAP2 DIV DUP2 AND SWAP1 DUP9 AND PUSH2 0x2232 JUMPI DUP3 PUSH2 0x21F4 JUMPI DUP5 SLOAD PUSH1 0x1 PUSH1 0x1 PUSH1 0xA8 SHL SUB NOT AND PUSH1 0x1 SWAP1 DUP2 OR DUP7 SSTORE DUP6 ADD DUP1 SLOAD PUSH1 0x1 PUSH1 0x1 PUSH1 0xA0 SHL SUB NOT AND SWAP1 SSTORE PUSH1 0x0 PUSH1 0x2 DUP7 ADD SSTORE PUSH1 0x40 MLOAD DUP7 DUP2 MSTORE CALLER SWAP1 PUSH1 0x1 PUSH1 0x1 PUSH1 0x80 SHL SUB NOT DUP12 AND SWAP1 PUSH32 0xD5EA25BA3600C386669C484639012A0AE266ED537F0C4AB71B651024736EFFF4 SWAP1 PUSH1 0x20 ADD JUMPDEST PUSH1 0x40 MLOAD DUP1 SWAP2 SUB SWAP1 LOG3 PUSH2 0x2242 JUMP JUMPDEST PUSH1 0x40 MLOAD DUP7 DUP2 MSTORE CALLER SWAP1 PUSH1 0x1 PUSH1 0x1 PUSH1 0x80 SHL SUB NOT DUP12 AND SWAP1 PUSH32 0x51377F313F8C3404E86D38AE907B443ADA38578FD6B9589D03F79D03FF9303C7 SWAP1 PUSH1 0x20 ADD PUSH2 0x21E7 JUMP JUMPDEST PUSH1 0x8 DUP6 ADD SLOAD DUP3 LT PUSH2 0x2242 JUMPI PUSH1 0x0 DUP1 REVERT JUMPDEST DUP6 ISZERO PUSH2 0x225B JUMPI PUSH2 0x225B PUSH1 0x1 PUSH1 0x1 PUSH1 0xA0 SHL SUB DUP3 AND DUP8 PUSH2 0x25E6 JUMP JUMPDEST POP POP POP POP POP SWAP4 SWAP3 POP POP POP JUMP JUMPDEST PUSH1 0x0 PUSH2 0xDA5 DUP3 DUP5 PUSH2 0x3980 JUMP JUMPDEST PUSH1 0x1 PUSH1 0x1 PUSH1 0x80 SHL SUB NOT DUP6 AND PUSH1 0x0 DUP2 DUP2 MSTORE PUSH1 0x4 PUSH1 0x20 MSTORE PUSH1 0x40 SWAP1 KECCAK256 SWAP1 ISZERO DUP1 ISZERO SWAP1 PUSH2 0x22A6 JUMPI POP PUSH1 0x2 DUP2 ADD SLOAD PUSH1 0x1 PUSH1 0x1 PUSH1 0x80 SHL SUB AND ISZERO JUMPDEST DUP1 ISZERO PUSH2 0x22B4 JUMPI POP DUP1 SLOAD PUSH1 0xFF AND ISZERO JUMPDEST PUSH2 0x22BD JUMPI PUSH1 0x0 DUP1 REVERT JUMPDEST DUP1 SLOAD PUSH2 0x100 PUSH1 0x1 PUSH1 0xA8 SHL SUB NOT AND CALLER PUSH2 0x100 DUP2 MUL SWAP2 SWAP1 SWAP2 OR DUP3 SSTORE PUSH1 0x2 DUP3 ADD DUP1 SLOAD PUSH1 0x1 PUSH1 0x1 PUSH1 0x80 SHL SUB SWAP1 DUP2 AND PUSH1 0x1 PUSH1 0x80 SHL TIMESTAMP PUSH1 0x1 PUSH1 0x1 PUSH1 0x40 SHL SUB SWAP1 DUP2 AND SWAP2 SWAP1 SWAP2 MUL PUSH1 0x1 PUSH1 0x1 PUSH1 0xC0 SHL SUB AND SWAP2 SWAP1 SWAP2 OR PUSH1 0x1 PUSH1 0xC0 SHL SWAP2 DUP10 AND SWAP2 SWAP1 SWAP2 MUL OR PUSH1 0x1 PUSH1 0x1 PUSH1 0x80 SHL SUB NOT AND SWAP1 DUP7 AND OR SWAP1 SSTORE PUSH1 0x1 PUSH1 0x1 PUSH1 0xA0 SHL SUB DUP7 AND EQ DUP1 ISZERO SWAP1 PUSH2 0x2346 JUMPI POP PUSH1 0x1 PUSH1 0x1 PUSH1 0xA0 SHL SUB DUP6 AND ISZERO ISZERO JUMPDEST ISZERO PUSH2 0x2369 JUMPI PUSH1 0x1 DUP2 ADD DUP1 SLOAD PUSH1 0x1 PUSH1 0x1 PUSH1 0xA0 SHL SUB NOT AND PUSH1 0x1 PUSH1 0x1 PUSH1 0xA0 SHL SUB DUP8 AND OR SWAP1 SSTORE JUMPDEST PUSH1 0x1 PUSH1 0x1 PUSH1 0xA0 SHL SUB DUP6 AND ISZERO PUSH2 0x237E JUMPI DUP5 PUSH2 0x2380 JUMP JUMPDEST CALLER JUMPDEST PUSH1 0x2 DUP3 ADD SLOAD PUSH1 0x40 DUP1 MLOAD PUSH1 0x1 PUSH1 0x1 PUSH1 0x80 SHL SUB DUP8 AND DUP2 MSTORE PUSH1 0x1 PUSH1 0x1 PUSH1 0x40 SHL SUB PUSH1 0x1 PUSH1 0x80 SHL DUP5 DIV DUP2 AND PUSH1 0x20 DUP4 ADD MSTORE PUSH1 0x1 PUSH1 0xC0 SHL SWAP1 SWAP4 DIV SWAP1 SWAP3 AND SWAP1 DUP3 ADD MSTORE PUSH1 0x60 DUP2 ADD DUP5 SWAP1 MSTORE PUSH1 0x1 PUSH1 0x1 PUSH1 0xA0 SHL SUB SWAP2 SWAP1 SWAP2 AND SWAP1 CALLER SWAP1 PUSH1 0x1 PUSH1 0x1 PUSH1 0x80 SHL SUB NOT DUP10 AND SWAP1 PUSH32 0x8E609DAC02BD39FF24C8AD6BB9A735E739B56708B22159948EC9828AD765B4D1 SWAP1 PUSH1 0x80 ADD PUSH1 0x40 MLOAD DUP1 SWAP2 SUB SWAP1 LOG4 SWAP6 SWAP5 POP POP POP POP POP JUMP JUMPDEST PUSH1 0x1 PUSH1 0x1 PUSH1 0xA0 SHL SUB DUP4 AND PUSH2 0x2425 JUMPI PUSH1 0x0 DUP1 REVERT JUMPDEST PUSH1 0x1 PUSH1 0x1 PUSH1 0xA0 SHL SUB DUP4 AND PUSH1 0x0 SWAP1 DUP2 MSTORE PUSH1 0x5 PUSH1 0x20 MSTORE PUSH1 0x40 SWAP1 KECCAK256 DUP1 SLOAD PUSH1 0x1 PUSH1 0x80 SHL SWAP1 DIV PUSH2 0xFFFF AND ISZERO DUP1 ISZERO SWAP1 PUSH2 0x2466 JUMPI POP DUP1 SLOAD PUSH2 0xFFFF DUP1 DUP9 AND PUSH1 0x1 PUSH1 0x80 SHL SWAP1 SWAP3 DIV AND LT JUMPDEST DUP1 ISZERO PUSH2 0x2483 JUMPI POP PUSH2 0x2476 DUP2 PUSH2 0x26FF JUMP JUMPDEST DUP4 PUSH1 0x1 PUSH1 0x1 PUSH1 0x80 SHL SUB AND LT ISZERO JUMPDEST PUSH2 0x248C JUMPI PUSH1 0x0 DUP1 REVERT JUMPDEST PUSH2 0xFFFF DUP7 AND PUSH1 0x0 SWAP1 DUP2 MSTORE PUSH1 0x4 DUP3 ADD PUSH1 0x20 MSTORE PUSH1 0x40 SWAP1 KECCAK256 SLOAD PUSH1 0x1 PUSH1 0x1 PUSH1 0xFF SHL SUB EQ ISZERO PUSH2 0x24CD JUMPI PUSH2 0xFFFF DUP7 AND PUSH1 0x0 SWAP1 DUP2 MSTORE PUSH1 0x4 DUP3 ADD PUSH1 0x20 MSTORE PUSH1 0x40 SWAP1 KECCAK256 DUP3 SWAP1 SSTORE PUSH2 0x24F8 JUMP JUMPDEST PUSH2 0xFFFF DUP7 AND PUSH1 0x0 SWAP1 DUP2 MSTORE PUSH1 0x4 DUP3 ADD PUSH1 0x20 MSTORE PUSH1 0x40 DUP2 KECCAK256 DUP1 SLOAD DUP5 SWAP3 SWAP1 PUSH2 0x24F2 SWAP1 DUP5 SWAP1 PUSH2 0x3AC6 JUMP JUMPDEST SWAP1 SWAP2 SSTORE POP POP JUMPDEST PUSH2 0xFFFF DUP6 AND PUSH1 0x0 SWAP1 DUP2 MSTORE PUSH1 0x4 DUP3 ADD PUSH1 0x20 MSTORE PUSH1 0x40 SWAP1 KECCAK256 SLOAD PUSH1 0x1 PUSH1 0x1 PUSH1 0xFF SHL SUB EQ ISZERO PUSH2 0x2540 JUMPI PUSH2 0x2525 DUP3 PUSH2 0x3A6A JUMP JUMPDEST PUSH2 0xFFFF DUP7 AND PUSH1 0x0 SWAP1 DUP2 MSTORE PUSH1 0x4 DUP4 ADD PUSH1 0x20 MSTORE PUSH1 0x40 SWAP1 KECCAK256 SSTORE PUSH2 0x256B JUMP JUMPDEST PUSH2 0xFFFF DUP6 AND PUSH1 0x0 SWAP1 DUP2 MSTORE PUSH1 0x4 DUP3 ADD PUSH1 0x20 MSTORE PUSH1 0x40 DUP2 KECCAK256 DUP1 SLOAD DUP5 SWAP3 SWAP1 PUSH2 0x2565 SWAP1 DUP5 SWAP1 PUSH2 0x3A87 JUMP JUMPDEST SWAP1 SWAP2 SSTORE POP POP JUMPDEST PUSH2 0xFFFF DUP7 AND PUSH1 0x0 SWAP1 DUP2 MSTORE PUSH1 0x4 DUP3 ADD PUSH1 0x20 MSTORE PUSH1 0x40 SWAP1 KECCAK256 SLOAD PUSH2 0x25A5 JUMPI PUSH2 0xFFFF DUP7 AND PUSH1 0x0 SWAP1 DUP2 MSTORE PUSH1 0x4 DUP3 ADD PUSH1 0x20 MSTORE PUSH1 0x40 SWAP1 KECCAK256 PUSH1 0x1 PUSH1 0x1 PUSH1 0xFF SHL SUB SWAP1 SSTORE JUMPDEST PUSH2 0xFFFF DUP6 AND PUSH1 0x0 SWAP1 DUP2 MSTORE PUSH1 0x4 DUP3 ADD PUSH1 0x20 MSTORE PUSH1 0x40 SWAP1 KECCAK256 SLOAD PUSH2 0x17ED JUMPI PUSH2 0xFFFF DUP6 AND PUSH1 0x0 SWAP1 DUP2 MSTORE PUSH1 0x4 DUP3 ADD PUSH1 0x20 MSTORE PUSH1 0x40 SWAP1 KECCAK256 PUSH1 0x1 PUSH1 0x1 PUSH1 0xFF SHL SUB SWAP1 SSTORE POP POP POP POP POP POP JUMP JUMPDEST DUP1 SELFBALANCE LT ISZERO PUSH2 0x2636 JUMPI PUSH1 0x40 MLOAD PUSH3 0x461BCD PUSH1 0xE5 SHL DUP2 MSTORE PUSH1 0x20 PUSH1 0x4 DUP3 ADD MSTORE PUSH1 0x1D PUSH1 0x24 DUP3 ADD MSTORE PUSH32 0x416464726573733A20696E73756666696369656E742062616C616E6365000000 PUSH1 0x44 DUP3 ADD MSTORE PUSH1 0x64 ADD PUSH2 0x129A JUMP JUMPDEST PUSH1 0x0 DUP3 PUSH1 0x1 PUSH1 0x1 PUSH1 0xA0 SHL SUB AND DUP3 PUSH1 0x40 MLOAD PUSH1 0x0 PUSH1 0x40 MLOAD DUP1 DUP4 SUB DUP2 DUP6 DUP8 GAS CALL SWAP3 POP POP POP RETURNDATASIZE DUP1 PUSH1 0x0 DUP2 EQ PUSH2 0x2683 JUMPI PUSH1 0x40 MLOAD SWAP2 POP PUSH1 0x1F NOT PUSH1 0x3F RETURNDATASIZE ADD AND DUP3 ADD PUSH1 0x40 MSTORE RETURNDATASIZE DUP3 MSTORE RETURNDATASIZE PUSH1 0x0 PUSH1 0x20 DUP5 ADD RETURNDATACOPY PUSH2 0x2688 JUMP JUMPDEST PUSH1 0x60 SWAP2 POP JUMPDEST POP POP SWAP1 POP DUP1 PUSH2 0x19BA JUMPI PUSH1 0x40 MLOAD PUSH3 0x461BCD PUSH1 0xE5 SHL DUP2 MSTORE PUSH1 0x20 PUSH1 0x4 DUP3 ADD MSTORE PUSH1 0x3A PUSH1 0x24 DUP3 ADD MSTORE PUSH32 0x416464726573733A20756E61626C6520746F2073656E642076616C75652C2072 PUSH1 0x44 DUP3 ADD MSTORE PUSH32 0x6563697069656E74206D61792068617665207265766572746564000000000000 PUSH1 0x64 DUP3 ADD MSTORE PUSH1 0x84 ADD PUSH2 0x129A JUMP JUMPDEST PUSH1 0x0 DUP2 PUSH1 0x2 ADD SLOAD PUSH1 0x0 EQ DUP1 PUSH2 0x2724 JUMPI POP PUSH1 0x6 SLOAD PUSH1 0x2 DUP4 ADD SLOAD PUSH1 0x1 PUSH1 0x1 PUSH1 0x80 SHL SUB SWAP1 SWAP2 AND GT JUMPDEST DUP1 PUSH2 0x273F JUMPI POP PUSH1 0x7 SLOAD PUSH1 0x2 DUP4 ADD SLOAD PUSH1 0x1 PUSH1 0x1 PUSH1 0x80 SHL SUB SWAP1 SWAP2 AND LT JUMPDEST ISZERO PUSH2 0x275C JUMPI POP POP PUSH1 0x6 SLOAD PUSH1 0x1 PUSH1 0x80 SHL SWAP1 DIV PUSH1 0x1 PUSH1 0x1 PUSH1 0x80 SHL SUB AND SWAP1 JUMP JUMPDEST POP PUSH1 0x2 ADD SLOAD SWAP1 JUMP JUMPDEST SWAP2 SWAP1 POP JUMP JUMPDEST PUSH1 0x1 PUSH1 0x1 PUSH1 0x80 SHL SUB NOT DUP3 AND PUSH1 0x0 SWAP1 DUP2 MSTORE PUSH1 0x4 PUSH1 0x20 MSTORE PUSH1 0x40 DUP2 KECCAK256 PUSH1 0x1 DUP2 ADD SLOAD PUSH1 0x1 PUSH1 0x1 PUSH1 0xA0 SHL SUB AND CALLER EQ DUP1 PUSH2 0x27AB JUMPI POP DUP1 SLOAD PUSH2 0x100 SWAP1 DIV PUSH1 0x1 PUSH1 0x1 PUSH1 0xA0 SHL SUB AND CALLER EQ JUMPDEST DUP1 ISZERO PUSH2 0x27B9 JUMPI POP DUP1 SLOAD PUSH1 0xFF AND ISZERO JUMPDEST PUSH2 0x27C2 JUMPI PUSH1 0x0 DUP1 REVERT JUMPDEST PUSH1 0x0 JUMPDEST PUSH1 0x8 DUP3 ADD SLOAD DUP2 LT ISZERO PUSH2 0x2886 JUMPI PUSH1 0x0 DUP3 PUSH1 0x8 ADD DUP3 DUP2 SLOAD DUP2 LT PUSH2 0x27E8 JUMPI PUSH2 0x27E8 PUSH2 0x3A22 JUMP JUMPDEST PUSH1 0x0 SWAP2 DUP3 MSTORE PUSH1 0x20 SWAP1 SWAP2 KECCAK256 PUSH1 0x3 SWAP1 SWAP2 MUL ADD DUP1 SLOAD SWAP1 SWAP2 POP PUSH1 0x1 PUSH1 0x1 PUSH1 0xA0 SHL SUB AND ISZERO DUP1 PUSH2 0x2832 JUMPI POP PUSH1 0x1 PUSH1 0x1 PUSH1 0xA0 SHL SUB DUP6 AND ISZERO DUP1 ISZERO SWAP1 PUSH2 0x2832 JUMPI POP DUP1 SLOAD PUSH1 0x1 PUSH1 0x1 PUSH1 0xA0 SHL SUB DUP7 DUP2 AND SWAP2 AND EQ ISZERO JUMPDEST ISZERO PUSH2 0x283D JUMPI POP PUSH2 0x2874 JUMP JUMPDEST PUSH1 0x0 PUSH2 0x2849 DUP5 DUP4 PUSH2 0x3031 JUMP JUMPDEST POP POP SWAP1 POP DUP1 DUP6 PUSH2 0x2859 SWAP2 SWAP1 PUSH2 0x3B07 JUMP JUMPDEST SWAP5 POP PUSH1 0x1 PUSH1 0x1 PUSH1 0xA0 SHL SUB DUP7 AND ISZERO PUSH2 0x2871 JUMPI POP POP PUSH2 0x2886 JUMP JUMPDEST POP POP JUMPDEST DUP1 PUSH2 0x287E DUP2 PUSH2 0x3A38 JUMP JUMPDEST SWAP2 POP POP PUSH2 0x27C5 JUMP JUMPDEST PUSH1 0x1 PUSH1 0x1 PUSH1 0xA0 SHL SUB DUP5 AND ISZERO PUSH2 0x28A5 JUMPI PUSH1 0x8 DUP3 ADD SLOAD DUP2 LT PUSH2 0x28A5 JUMPI PUSH1 0x0 DUP1 REVERT JUMPDEST POP POP SWAP3 SWAP2 POP POP JUMP JUMPDEST DUP2 SLOAD PUSH1 0x1 PUSH1 0x80 SHL SWAP1 DIV PUSH2 0xFFFF AND ISZERO DUP1 PUSH2 0x28D6 JUMPI POP DUP2 SLOAD PUSH2 0xFFFF PUSH1 0x1 PUSH1 0x80 SHL SWAP1 SWAP2 DIV DUP2 AND SWAP1 DUP3 AND GT ISZERO JUMPDEST ISZERO PUSH2 0x28DF JUMPI POP POP JUMP JUMPDEST DUP2 SLOAD PUSH1 0x0 SWAP1 PUSH2 0x28FA SWAP1 PUSH1 0x1 PUSH1 0x80 SHL SWAP1 DIV PUSH2 0xFFFF AND PUSH1 0x1 PUSH2 0x39BA JUMP JUMPDEST SWAP1 POP JUMPDEST DUP2 PUSH2 0xFFFF AND DUP2 PUSH2 0xFFFF AND GT PUSH2 0x298B JUMPI PUSH2 0xFFFF DUP2 AND PUSH1 0x0 SWAP1 DUP2 MSTORE PUSH1 0x4 DUP5 ADD PUSH1 0x20 MSTORE PUSH1 0x40 SWAP1 KECCAK256 SLOAD PUSH1 0x1 PUSH1 0x1 PUSH1 0xFF SHL SUB DUP2 EQ ISZERO PUSH2 0x294D JUMPI POP PUSH2 0xFFFF DUP2 AND PUSH1 0x0 SWAP1 DUP2 MSTORE PUSH1 0x4 DUP5 ADD PUSH1 0x20 MSTORE PUSH1 0x40 DUP2 KECCAK256 SSTORE PUSH2 0x2979 JUMP JUMPDEST PUSH1 0x1 DUP5 ADD SLOAD PUSH2 0x295C SWAP1 DUP3 PUSH2 0x3495 JUMP JUMPDEST PUSH1 0x1 DUP6 ADD SSTORE POP PUSH2 0xFFFF DUP2 AND PUSH1 0x0 SWAP1 DUP2 MSTORE PUSH1 0x4 DUP5 ADD PUSH1 0x20 MSTORE PUSH1 0x40 DUP2 KECCAK256 SSTORE JUMPDEST DUP1 PUSH2 0x2983 DUP2 PUSH2 0x3B1F JUMP JUMPDEST SWAP2 POP POP PUSH2 0x28FD JUMP JUMPDEST POP DUP2 SLOAD PUSH2 0xFFFF DUP3 AND PUSH1 0x1 PUSH1 0x80 SHL MUL PUSH2 0xFFFF PUSH1 0x80 SHL NOT DUP3 AND DUP2 OR DUP5 SSTORE PUSH1 0x1 DUP5 ADD SLOAD SWAP2 DUP5 SWAP2 PUSH1 0x0 SWAP2 PUSH2 0x29CA SWAP2 DUP6 SWAP2 PUSH1 0x1 PUSH1 0x1 PUSH1 0x80 SHL SUB SWAP2 DUP3 AND SWAP2 AND OR PUSH2 0x3B41 JUMP JUMPDEST SWAP3 POP PUSH2 0x100 EXP DUP2 SLOAD DUP2 PUSH1 0x1 PUSH1 0x1 PUSH1 0x80 SHL SUB MUL NOT AND SWAP1 DUP4 PUSH1 0x1 PUSH1 0x1 PUSH1 0x80 SHL SUB AND MUL OR SWAP1 SSTORE POP POP POP JUMP JUMPDEST PUSH1 0x2 DUP1 SLOAD PUSH1 0x1 PUSH1 0xA0 SHL SWAP1 DIV PUSH1 0xFF AND EQ PUSH2 0x2A0A JUMPI PUSH1 0x0 DUP1 REVERT JUMPDEST PUSH1 0x40 MLOAD CALLER DUP2 MSTORE PUSH1 0x1 PUSH1 0x1 PUSH1 0xA0 SHL SUB DUP3 AND SWAP1 PUSH32 0x1E8D98C1B4A0D9BD2E2371026B632EB2773FCCE41742E41F02F574AB69868D4C SWAP1 PUSH1 0x20 ADD JUMPDEST PUSH1 0x40 MLOAD DUP1 SWAP2 SUB SWAP1 LOG2 POP JUMP JUMPDEST PUSH1 0x0 DUP1 PUSH2 0x2A5C DUP5 DUP5 DUP4 DUP1 DUP1 PUSH2 0x34C2 JUMP JUMPDEST MLOAD SWAP5 SWAP4 POP POP POP POP JUMP JUMPDEST PUSH1 0x40 DUP1 MLOAD PUSH1 0x60 DUP2 ADD DUP3 MSTORE PUSH1 0x0 DUP1 DUP3 MSTORE PUSH1 0x20 DUP3 ADD DUP2 SWAP1 MSTORE SWAP2 DUP2 ADD DUP3 SWAP1 MSTORE SWAP1 PUSH2 0xDA5 DUP4 PUSH4 0x65AF62C3 PUSH1 0xE0 SHL DUP4 DUP1 DUP1 PUSH2 0x34C2 JUMP JUMPDEST PUSH2 0x2B29 PUSH1 0x40 MLOAD DUP1 PUSH2 0x180 ADD PUSH1 0x40 MSTORE DUP1 PUSH1 0x0 ISZERO ISZERO DUP2 MSTORE PUSH1 0x20 ADD PUSH1 0x0 PUSH1 0x1 PUSH1 0x1 PUSH1 0xA0 SHL SUB AND DUP2 MSTORE PUSH1 0x20 ADD PUSH1 0x0 PUSH1 0x1 PUSH1 0x1 PUSH1 0xA0 SHL SUB AND DUP2 MSTORE PUSH1 0x20 ADD PUSH1 0x0 PUSH1 0x1 PUSH1 0x1 PUSH1 0x80 SHL SUB AND DUP2 MSTORE PUSH1 0x20 ADD PUSH1 0x0 PUSH1 0x1 PUSH1 0x1 PUSH1 0x40 SHL SUB AND DUP2 MSTORE PUSH1 0x20 ADD PUSH1 0x0 PUSH1 0x1 PUSH1 0x1 PUSH1 0x40 SHL SUB AND DUP2 MSTORE PUSH1 0x20 ADD PUSH1 0x0 DUP2 MSTORE PUSH1 0x20 ADD PUSH1 0x0 DUP2 MSTORE PUSH1 0x20 ADD PUSH1 0x0 DUP2 MSTORE PUSH1 0x20 ADD PUSH1 0x0 DUP2 MSTORE PUSH1 0x20 ADD PUSH1 0x0 DUP2 MSTORE PUSH1 0x20 ADD PUSH1 0x60 DUP2 MSTORE POP SWAP1 JUMP JUMPDEST PUSH1 0x0 PUSH2 0x2B4A DUP5 PUSH4 0x713C0E57 PUSH1 0xE0 SHL PUSH1 0x1 PUSH1 0x1 PUSH1 0x1 PUSH1 0x80 SHL SUB NOT DUP8 AND DUP6 PUSH2 0x34C2 JUMP JUMPDEST SWAP5 SWAP4 POP POP POP POP JUMP JUMPDEST PUSH1 0x0 DUP1 PUSH2 0x2B63 DUP6 DUP6 PUSH1 0x1 DUP7 DUP6 PUSH2 0x34C2 JUMP JUMPDEST MLOAD SWAP6 SWAP5 POP POP POP POP POP JUMP JUMPDEST PUSH1 0x40 DUP1 MLOAD PUSH1 0x60 DUP2 ADD DUP3 MSTORE PUSH1 0x0 DUP1 DUP3 MSTORE PUSH1 0x20 DUP3 ADD DUP2 SWAP1 MSTORE SWAP2 DUP2 ADD DUP3 SWAP1 MSTORE SWAP1 PUSH2 0x9E0 DUP6 PUSH4 0xD845F4FB PUSH1 0xE0 SHL PUSH1 0x2 PUSH1 0x1 PUSH1 0x1 PUSH1 0x80 SHL SUB NOT DUP9 AND DUP8 PUSH2 0x34C2 JUMP JUMPDEST PUSH1 0x40 DUP1 MLOAD PUSH1 0x80 DUP2 ADD DUP3 MSTORE PUSH1 0x0 DUP1 DUP3 MSTORE PUSH1 0x20 DUP3 ADD DUP2 SWAP1 MSTORE SWAP2 DUP2 ADD DUP3 SWAP1 MSTORE PUSH1 0x60 DUP2 ADD DUP3 SWAP1 MSTORE SWAP1 PUSH2 0x2B4A DUP5 PUSH4 0x189A5A17 PUSH1 0xE0 SHL PUSH1 0x1 PUSH1 0x1 PUSH1 0x1 PUSH1 0xA0 SHL SUB DUP8 AND DUP6 PUSH2 0x34C2 JUMP JUMPDEST PUSH1 0x0 DUP1 PUSH2 0x2BFC DUP7 DUP7 PUSH1 0x2 DUP8 DUP8 PUSH2 0x34C2 JUMP JUMPDEST MLOAD SWAP7 SWAP6 POP POP POP POP POP POP JUMP JUMPDEST PUSH1 0x0 PUSH1 0x1 PUSH1 0x1 PUSH1 0xF8 SHL SUB NOT DUP3 AND PUSH2 0x2C54 JUMPI PUSH1 0x40 MLOAD ADDRESS SWAP1 PUSH2 0x2C36 SWAP1 PUSH1 0x19 PUSH1 0xF8 SHL SWAP1 PUSH1 0x0 SWAP1 DUP5 SWAP1 DUP9 SWAP1 PUSH1 0x20 ADD PUSH2 0x3B9E JUMP JUMPDEST PUSH1 0x40 MLOAD PUSH1 0x20 DUP2 DUP4 SUB SUB DUP2 MSTORE SWAP1 PUSH1 0x40 MSTORE DUP1 MLOAD SWAP1 PUSH1 0x20 ADD KECCAK256 SWAP2 POP POP PUSH2 0xF00 JUMP JUMPDEST PUSH1 0x1 PUSH1 0x1 PUSH1 0xF8 SHL SUB NOT DUP3 AND PUSH1 0x45 PUSH1 0xF8 SHL EQ ISZERO PUSH2 0x2E00 JUMPI DUP3 MLOAD DUP1 PUSH2 0x2CC9 JUMPI PUSH1 0x40 MLOAD PUSH3 0x461BCD PUSH1 0xE5 SHL DUP2 MSTORE PUSH1 0x20 PUSH1 0x4 DUP3 ADD MSTORE PUSH1 0x27 PUSH1 0x24 DUP3 ADD MSTORE PUSH32 0x456D707479206D657373616765206E6F7420616C6C6F77656420666F72207665 PUSH1 0x44 DUP3 ADD MSTORE PUSH7 0x7273696F6E2045 PUSH1 0xC8 SHL PUSH1 0x64 DUP3 ADD MSTORE PUSH1 0x84 ADD PUSH2 0x129A JUMP JUMPDEST PUSH1 0x0 JUMPDEST DUP2 ISZERO PUSH2 0x2CF2 JUMPI DUP1 PUSH2 0x2CDC DUP2 PUSH2 0x3A38 JUMP JUMPDEST SWAP2 POP PUSH2 0x2CEB SWAP1 POP PUSH1 0xA DUP4 PUSH2 0x3980 JUMP JUMPDEST SWAP2 POP PUSH2 0x2CCC JUMP JUMPDEST PUSH1 0x0 DUP2 PUSH1 0x1 PUSH1 0x1 PUSH1 0x40 SHL SUB DUP2 GT ISZERO PUSH2 0x2D0C JUMPI PUSH2 0x2D0C PUSH2 0x3BE5 JUMP JUMPDEST PUSH1 0x40 MLOAD SWAP1 DUP1 DUP3 MSTORE DUP1 PUSH1 0x1F ADD PUSH1 0x1F NOT AND PUSH1 0x20 ADD DUP3 ADD PUSH1 0x40 MSTORE DUP1 ISZERO PUSH2 0x2D36 JUMPI PUSH1 0x20 DUP3 ADD DUP2 DUP1 CALLDATASIZE DUP4 CALLDATACOPY ADD SWAP1 POP JUMPDEST POP DUP7 MLOAD SWAP4 POP SWAP1 POP DUP2 JUMPDEST DUP4 ISZERO PUSH2 0x2DA4 JUMPI PUSH2 0x2D50 PUSH1 0xA DUP6 PUSH2 0x3BFB JUMP JUMPDEST PUSH2 0x2D5B SWAP1 PUSH1 0x30 PUSH2 0x3B07 JUMP JUMPDEST PUSH1 0xF8 SHL DUP3 PUSH2 0x2D68 DUP4 PUSH2 0x3A53 JUMP JUMPDEST SWAP3 POP DUP3 DUP2 MLOAD DUP2 LT PUSH2 0x2D7B JUMPI PUSH2 0x2D7B PUSH2 0x3A22 JUMP JUMPDEST PUSH1 0x20 ADD ADD SWAP1 PUSH1 0x1 PUSH1 0x1 PUSH1 0xF8 SHL SUB NOT AND SWAP1 DUP2 PUSH1 0x0 BYTE SWAP1 MSTORE8 POP PUSH2 0x2D9D PUSH1 0xA DUP6 PUSH2 0x3980 JUMP JUMPDEST SWAP4 POP PUSH2 0x2D3F JUMP JUMPDEST PUSH1 0x40 MLOAD PUSH2 0x2DDF SWAP1 PUSH1 0x19 PUSH1 0xF8 SHL SWAP1 PUSH32 0x457468657265756D205369676E6564204D6573736167653A0A00000000000000 SWAP1 DUP6 SWAP1 DUP12 SWAP1 PUSH1 0x20 ADD PUSH2 0x3C0F JUMP JUMPDEST PUSH1 0x40 MLOAD PUSH1 0x20 DUP2 DUP4 SUB SUB DUP2 MSTORE SWAP1 PUSH1 0x40 MSTORE DUP1 MLOAD SWAP1 PUSH1 0x20 ADD KECCAK256 SWAP5 POP POP POP POP POP PUSH2 0xF00 JUMP JUMPDEST PUSH1 0x40 MLOAD PUSH3 0x461BCD PUSH1 0xE5 SHL DUP2 MSTORE PUSH1 0x20 PUSH1 0x4 DUP3 ADD MSTORE PUSH1 0x1A PUSH1 0x24 DUP3 ADD MSTORE PUSH32 0x556E737570706F72746564204549503139312076657273696F6E000000000000 PUSH1 0x44 DUP3 ADD MSTORE PUSH1 0x64 ADD PUSH2 0x129A JUMP JUMPDEST PUSH1 0x0 PUSH32 0x0 PUSH4 0xFFFFFFFF AND PUSH32 0x0 PUSH4 0xFFFFFFFF AND DUP4 PUSH2 0xFFFF AND PUSH2 0x2EA7 SWAP2 SWAP1 PUSH2 0x3A03 JUMP JUMPDEST PUSH2 0xF00 SWAP2 SWAP1 PUSH2 0x3980 JUMP JUMPDEST PUSH1 0x2 DUP1 SLOAD PUSH1 0x1 PUSH1 0xA0 SHL SWAP1 DIV PUSH1 0xFF AND EQ PUSH2 0x2EC9 JUMPI PUSH1 0x0 DUP1 REVERT JUMPDEST PUSH1 0x40 MLOAD CALLER DUP2 MSTORE PUSH1 0x1 PUSH1 0x1 PUSH1 0xA0 SHL SUB DUP3 AND SWAP1 PUSH32 0xD55EC27C5C6316913ED8803C18CFD1BFEFEA953DB909DCBA6140744A9D8B0D1F SWAP1 PUSH1 0x20 ADD PUSH2 0x2A41 JUMP JUMPDEST PUSH1 0x1 PUSH1 0x1 PUSH1 0xA0 SHL SUB DUP2 AND PUSH2 0x2F17 JUMPI PUSH1 0x0 DUP1 REVERT JUMPDEST PUSH1 0x0 DUP1 SLOAD PUSH1 0x40 MLOAD PUSH1 0x1 PUSH1 0x1 PUSH1 0xA0 SHL SUB DUP1 DUP6 AND SWAP4 SWAP3 AND SWAP2 PUSH32 0x8BE0079C531659141344CD1FD0A4F28419497F9722A3DAAFE3B4186F6B6457E0 SWAP2 LOG3 PUSH1 0x0 DUP1 SLOAD PUSH1 0x1 PUSH1 0x1 PUSH1 0xA0 SHL SUB NOT AND PUSH1 0x1 PUSH1 0x1 PUSH1 0xA0 SHL SUB SWAP3 SWAP1 SWAP3 AND SWAP2 SWAP1 SWAP2 OR SWAP1 SSTORE JUMP JUMPDEST PUSH1 0x0 DUP2 MLOAD PUSH1 0x41 EQ PUSH2 0x2F82 JUMPI PUSH1 0x0 DUP1 REVERT JUMPDEST PUSH1 0x20 DUP3 ADD MLOAD PUSH1 0x40 DUP4 ADD MLOAD PUSH1 0x60 DUP5 ADD MLOAD PUSH1 0x0 BYTE PUSH1 0x1B DUP2 LT ISZERO PUSH2 0x2FAB JUMPI PUSH2 0x2FA8 PUSH1 0x1B DUP3 PUSH2 0x3C44 JUMP JUMPDEST SWAP1 POP JUMPDEST DUP1 PUSH1 0xFF AND PUSH1 0x1B EQ DUP1 PUSH2 0x2FC0 JUMPI POP DUP1 PUSH1 0xFF AND PUSH1 0x1C EQ JUMPDEST PUSH2 0x2FC9 JUMPI PUSH1 0x0 DUP1 REVERT JUMPDEST PUSH1 0x40 DUP1 MLOAD PUSH1 0x0 DUP2 MSTORE PUSH1 0x20 DUP2 ADD DUP1 DUP4 MSTORE DUP9 SWAP1 MSTORE PUSH1 0xFF DUP4 AND SWAP2 DUP2 ADD SWAP2 SWAP1 SWAP2 MSTORE PUSH1 0x60 DUP2 ADD DUP5 SWAP1 MSTORE PUSH1 0x80 DUP2 ADD DUP4 SWAP1 MSTORE PUSH1 0x1 SWAP1 PUSH1 0xA0 ADD PUSH1 0x20 PUSH1 0x40 MLOAD PUSH1 0x20 DUP2 SUB SWAP1 DUP1 DUP5 SUB SWAP1 DUP6 GAS STATICCALL ISZERO DUP1 ISZERO PUSH2 0x301C JUMPI RETURNDATASIZE PUSH1 0x0 DUP1 RETURNDATACOPY RETURNDATASIZE PUSH1 0x0 REVERT JUMPDEST POP POP PUSH1 0x40 MLOAD PUSH1 0x1F NOT ADD MLOAD SWAP8 SWAP7 POP POP POP POP POP POP POP JUMP JUMPDEST PUSH1 0x0 DUP1 PUSH1 0x0 DUP1 PUSH32 0x0 PUSH4 0xFFFFFFFF AND DUP7 PUSH1 0x2 ADD PUSH1 0x10 SWAP1 SLOAD SWAP1 PUSH2 0x100 EXP SWAP1 DIV PUSH1 0x1 PUSH1 0x1 PUSH1 0x40 SHL SUB AND PUSH2 0x3080 SWAP2 SWAP1 PUSH2 0x3994 JUMP JUMPDEST SWAP1 POP PUSH1 0x0 PUSH2 0x30DA PUSH2 0x308F PUSH2 0x9E9 JUMP JUMPDEST PUSH1 0x2 DUP10 ADD SLOAD PUSH2 0x30D5 SWAP1 PUSH32 0x0 PUSH4 0xFFFFFFFF AND SWAP1 PUSH1 0x1 PUSH1 0xC0 SHL SWAP1 DIV PUSH1 0x1 PUSH1 0x1 PUSH1 0x40 SHL SUB AND PUSH2 0x3994 JUMP JUMPDEST PUSH2 0x3512 JUMP JUMPDEST PUSH1 0x2 DUP8 ADD SLOAD SWAP1 SWAP2 POP PUSH1 0x0 SWAP1 PUSH2 0x30F4 SWAP1 DUP5 SWAP1 PUSH2 0xFFFF AND PUSH2 0x3530 JUMP JUMPDEST DUP8 SLOAD PUSH1 0x40 MLOAD PUSH4 0x90DCB51F PUSH1 0xE0 SHL DUP2 MSTORE PUSH1 0x1 PUSH1 0x1 PUSH1 0xA0 SHL SUB SWAP2 DUP3 AND PUSH1 0x4 DUP3 ADD MSTORE SWAP2 SWAP3 POP PUSH1 0x0 SWAP2 DUP3 SWAP2 PUSH32 0x0 AND SWAP1 PUSH4 0x90DCB51F SWAP1 PUSH1 0x24 ADD PUSH1 0x20 PUSH1 0x40 MLOAD DUP1 DUP4 SUB DUP2 DUP7 GAS STATICCALL ISZERO DUP1 ISZERO PUSH2 0x3164 JUMPI RETURNDATASIZE PUSH1 0x0 DUP1 RETURNDATACOPY RETURNDATASIZE PUSH1 0x0 REVERT JUMPDEST POP POP POP POP PUSH1 0x40 MLOAD RETURNDATASIZE PUSH1 0x1F NOT PUSH1 0x1F DUP3 ADD AND DUP3 ADD DUP1 PUSH1 0x40 MSTORE POP DUP2 ADD SWAP1 PUSH2 0x3188 SWAP2 SWAP1 PUSH2 0x3C69 JUMP JUMPDEST PUSH1 0x2 DUP11 ADD SLOAD SWAP1 SWAP2 POP PUSH1 0x0 SWAP1 PUSH2 0xFFFF AND PUSH2 0x323A JUMPI DUP10 SLOAD PUSH1 0x40 MLOAD PUSH4 0x4789D02D PUSH1 0xE0 SHL DUP2 MSTORE PUSH1 0x1 PUSH1 0x1 PUSH1 0xA0 SHL SUB SWAP2 DUP3 AND PUSH1 0x4 DUP3 ADD MSTORE PUSH2 0xFFFF DUP9 AND PUSH1 0x24 DUP3 ADD MSTORE PUSH32 0x0 SWAP1 SWAP2 AND SWAP1 PUSH4 0x4789D02D SWAP1 PUSH1 0x44 ADD PUSH1 0x20 PUSH1 0x40 MLOAD DUP1 DUP4 SUB DUP2 DUP7 GAS STATICCALL ISZERO DUP1 ISZERO PUSH2 0x320F JUMPI RETURNDATASIZE PUSH1 0x0 DUP1 RETURNDATACOPY RETURNDATASIZE PUSH1 0x0 REVERT JUMPDEST POP POP POP POP PUSH1 0x40 MLOAD RETURNDATASIZE PUSH1 0x1F NOT PUSH1 0x1F DUP3 ADD AND DUP3 ADD DUP1 PUSH1 0x40 MSTORE POP DUP2 ADD SWAP1 PUSH2 0x3233 SWAP2 SWAP1 PUSH2 0x3C69 JUMP JUMPDEST SWAP1 POP PUSH2 0x3241 JUMP JUMPDEST POP PUSH1 0x1 DUP10 ADD SLOAD JUMPDEST DUP1 SWAP8 POP JUMPDEST DUP2 DUP9 LT ISZERO PUSH2 0x337B JUMPI DUP10 SLOAD PUSH1 0x40 MLOAD PUSH4 0x8FA95A15 PUSH1 0xE0 SHL DUP2 MSTORE PUSH1 0x1 PUSH1 0x1 PUSH1 0xA0 SHL SUB SWAP2 DUP3 AND PUSH1 0x4 DUP3 ADD MSTORE PUSH1 0x24 DUP2 ADD DUP11 SWAP1 MSTORE PUSH1 0x0 SWAP2 DUP3 SWAP2 PUSH32 0x0 SWAP1 SWAP2 AND SWAP1 PUSH4 0x8FA95A15 SWAP1 PUSH1 0x44 ADD PUSH1 0x40 DUP1 MLOAD DUP1 DUP4 SUB DUP2 DUP7 GAS STATICCALL ISZERO DUP1 ISZERO PUSH2 0x32C2 JUMPI RETURNDATASIZE PUSH1 0x0 DUP1 RETURNDATACOPY RETURNDATASIZE PUSH1 0x0 REVERT JUMPDEST POP POP POP POP PUSH1 0x40 MLOAD RETURNDATASIZE PUSH1 0x1F NOT PUSH1 0x1F DUP3 ADD AND DUP3 ADD DUP1 PUSH1 0x40 MSTORE POP DUP2 ADD SWAP1 PUSH2 0x32E6 SWAP2 SWAP1 PUSH2 0x3C82 JUMP JUMPDEST SWAP2 POP SWAP2 POP DUP7 PUSH2 0xFFFF AND DUP3 PUSH2 0xFFFF AND GT ISZERO PUSH2 0x3301 JUMPI POP POP PUSH2 0x337B JUMP JUMPDEST DUP6 PUSH2 0xFFFF AND DUP2 PUSH2 0xFFFF AND LT ISZERO PUSH2 0x3318 JUMPI POP POP PUSH2 0x3369 JUMP JUMPDEST PUSH2 0x3339 PUSH2 0x3325 DUP8 DUP5 PUSH2 0x3530 JUMP JUMPDEST PUSH2 0x332F DUP10 DUP5 PUSH2 0x3512 JUMP JUMPDEST PUSH2 0xFFFF AND SWAP1 PUSH2 0x3548 JUMP JUMPDEST PUSH2 0x3344 SWAP1 PUSH1 0x1 PUSH2 0x39BA JUMP JUMPDEST PUSH2 0x334E SWAP1 DUP7 PUSH2 0x39BA JUMP JUMPDEST SWAP5 POP DUP1 PUSH2 0xFFFF AND DUP8 PUSH2 0xFFFF AND GT PUSH2 0x3366 JUMPI POP POP PUSH2 0x337B JUMP JUMPDEST POP POP JUMPDEST DUP8 PUSH2 0x3373 DUP2 PUSH2 0x3A38 JUMP JUMPDEST SWAP9 POP POP PUSH2 0x3245 JUMP JUMPDEST DUP10 SLOAD PUSH1 0x40 MLOAD PUSH4 0x51F5E0C1 PUSH1 0xE1 SHL DUP2 MSTORE PUSH1 0x1 PUSH1 0x1 PUSH1 0xA0 SHL SUB SWAP2 DUP3 AND PUSH1 0x4 DUP3 ADD MSTORE PUSH1 0x0 SWAP2 PUSH32 0x0 AND SWAP1 PUSH4 0xA3EBC182 SWAP1 PUSH1 0x24 ADD PUSH1 0x20 PUSH1 0x40 MLOAD DUP1 DUP4 SUB DUP2 DUP7 GAS STATICCALL ISZERO DUP1 ISZERO PUSH2 0x33E6 JUMPI RETURNDATASIZE PUSH1 0x0 DUP1 RETURNDATACOPY RETURNDATASIZE PUSH1 0x0 REVERT JUMPDEST POP POP POP POP PUSH1 0x40 MLOAD RETURNDATASIZE PUSH1 0x1F NOT PUSH1 0x1F DUP3 ADD AND DUP3 ADD DUP1 PUSH1 0x40 MSTORE POP DUP2 ADD SWAP1 PUSH2 0x340A SWAP2 SWAP1 PUSH2 0x3CB1 JUMP JUMPDEST SWAP1 POP DUP3 DUP10 EQ DUP1 ISZERO PUSH2 0x3422 JUMPI POP DUP6 PUSH2 0xFFFF AND DUP2 PUSH2 0xFFFF AND LT JUMPDEST ISZERO PUSH2 0x3452 JUMPI PUSH2 0x343B PUSH2 0x3435 PUSH1 0x1 DUP8 PUSH2 0x39E0 JUMP JUMPDEST DUP3 PUSH2 0x3530 JUMP JUMPDEST PUSH2 0x3445 SWAP1 DUP8 PUSH2 0x39E0 JUMP JUMPDEST PUSH2 0x344F SWAP1 DUP6 PUSH2 0x39BA JUMP JUMPDEST SWAP4 POP JUMPDEST PUSH1 0x2 DUP13 ADD SLOAD PUSH2 0x346F SWAP1 PUSH2 0xFFFF DUP7 AND SWAP1 PUSH1 0x1 PUSH1 0x1 PUSH1 0x80 SHL SUB AND PUSH2 0x3CCE JUMP JUMPDEST PUSH1 0x1 PUSH1 0x1 PUSH1 0x80 SHL SUB AND SWAP10 POP PUSH2 0x3485 DUP7 PUSH1 0x1 PUSH2 0x39BA JUMP JUMPDEST SWAP8 POP POP POP POP POP POP POP POP SWAP3 POP SWAP3 POP SWAP3 JUMP JUMPDEST PUSH1 0x0 DUP1 DUP3 SLT PUSH2 0x34AF JUMPI PUSH2 0x34A8 DUP4 DUP4 PUSH2 0x356C JUMP JUMPDEST SWAP1 POP PUSH2 0xF00 JUMP JUMPDEST PUSH2 0x34A8 PUSH2 0x34BB DUP4 PUSH2 0x3A6A JUMP JUMPDEST DUP5 SWAP1 PUSH2 0x3578 JUMP JUMPDEST PUSH1 0x40 MLOAD DUP5 DUP2 MSTORE DUP4 ISZERO PUSH2 0x34D5 JUMPI DUP3 PUSH1 0x4 DUP3 ADD MSTORE JUMPDEST PUSH1 0x1 DUP5 GT ISZERO PUSH2 0x34E5 JUMPI DUP2 PUSH1 0x24 DUP3 ADD MSTORE JUMPDEST PUSH1 0x0 DUP1 DUP6 PUSH1 0x20 MUL PUSH1 0x4 ADD DUP4 DUP10 GAS DELEGATECALL DUP1 ISZERO PUSH2 0x3503 JUMPI RETURNDATASIZE PUSH1 0x0 DUP4 RETURNDATACOPY PUSH2 0x3508 JUMP JUMPDEST PUSH1 0x0 DUP3 REVERT JUMPDEST POP SWAP6 SWAP5 POP POP POP POP POP JUMP JUMPDEST PUSH1 0x0 DUP2 PUSH2 0xFFFF AND DUP4 PUSH2 0xFFFF AND LT PUSH2 0x3529 JUMPI DUP2 PUSH2 0xDA5 JUMP JUMPDEST POP SWAP1 SWAP2 SWAP1 POP JUMP JUMPDEST PUSH1 0x0 DUP2 PUSH2 0xFFFF AND DUP4 PUSH2 0xFFFF AND LT ISZERO PUSH2 0x3529 JUMPI DUP2 PUSH2 0xDA5 JUMP JUMPDEST PUSH1 0x0 DUP3 PUSH2 0xFFFF AND DUP3 PUSH2 0xFFFF AND GT ISZERO PUSH2 0x3562 JUMPI PUSH2 0x3562 PUSH2 0x3CFD JUMP JUMPDEST PUSH2 0xDA5 DUP3 DUP5 PUSH2 0x39E0 JUMP JUMPDEST PUSH1 0x0 PUSH2 0xDA5 DUP3 DUP5 PUSH2 0x3B07 JUMP JUMPDEST PUSH1 0x0 PUSH2 0xDA5 DUP3 DUP5 PUSH2 0x3D13 JUMP JUMPDEST DUP1 CALLDATALOAD PUSH1 0x1 PUSH1 0x1 PUSH1 0x80 SHL SUB NOT DUP2 AND DUP2 EQ PUSH2 0x2764 JUMPI PUSH1 0x0 DUP1 REVERT JUMPDEST PUSH1 0x1 PUSH1 0x1 PUSH1 0xA0 SHL SUB DUP2 AND DUP2 EQ PUSH2 0x1CA4 JUMPI PUSH1 0x0 DUP1 REVERT JUMPDEST PUSH1 0x0 DUP1 PUSH1 0x0 DUP1 PUSH1 0x60 DUP6 DUP8 SUB SLT ISZERO PUSH2 0x35C7 JUMPI PUSH1 0x0 DUP1 REVERT JUMPDEST PUSH2 0x35D0 DUP6 PUSH2 0x3584 JUMP JUMPDEST SWAP4 POP PUSH1 0x20 DUP6 ADD CALLDATALOAD PUSH2 0x35E0 DUP2 PUSH2 0x359C JUMP JUMPDEST SWAP3 POP PUSH1 0x40 DUP6 ADD CALLDATALOAD PUSH1 0x1 PUSH1 0x1 PUSH1 0x40 SHL SUB DUP1 DUP3 GT ISZERO PUSH2 0x35FC JUMPI PUSH1 0x0 DUP1 REVERT JUMPDEST DUP2 DUP8 ADD SWAP2 POP DUP8 PUSH1 0x1F DUP4 ADD SLT PUSH2 0x3610 JUMPI PUSH1 0x0 DUP1 REVERT JUMPDEST DUP2 CALLDATALOAD DUP2 DUP2 GT ISZERO PUSH2 0x361F JUMPI PUSH1 0x0 DUP1 REVERT JUMPDEST DUP9 PUSH1 0x20 DUP3 DUP6 ADD ADD GT ISZERO PUSH2 0x3631 JUMPI PUSH1 0x0 DUP1 REVERT JUMPDEST SWAP6 SWAP9 SWAP5 SWAP8 POP POP PUSH1 0x20 ADD SWAP5 POP POP POP JUMP JUMPDEST PUSH1 0x0 PUSH1 0x20 DUP3 DUP5 SUB SLT ISZERO PUSH2 0x3652 JUMPI PUSH1 0x0 DUP1 REVERT JUMPDEST DUP2 CALLDATALOAD PUSH2 0xDA5 DUP2 PUSH2 0x359C JUMP JUMPDEST PUSH1 0x0 DUP1 DUP4 PUSH1 0x1F DUP5 ADD SLT PUSH2 0x366F JUMPI PUSH1 0x0 DUP1 REVERT JUMPDEST POP DUP2 CALLDATALOAD PUSH1 0x1 PUSH1 0x1 PUSH1 0x40 SHL SUB DUP2 GT ISZERO PUSH2 0x3686 JUMPI PUSH1 0x0 DUP1 REVERT JUMPDEST PUSH1 0x20 DUP4 ADD SWAP2 POP DUP4 PUSH1 0x20 DUP3 PUSH1 0x5 SHL DUP6 ADD ADD GT ISZERO PUSH2 0x36A1 JUMPI PUSH1 0x0 DUP1 REVERT JUMPDEST SWAP3 POP SWAP3 SWAP1 POP JUMP JUMPDEST DUP1 CALLDATALOAD PUSH1 0x1 PUSH1 0x1 PUSH1 0x40 SHL SUB DUP2 AND DUP2 EQ PUSH2 0x2764 JUMPI PUSH1 0x0 DUP1 REVERT JUMPDEST PUSH1 0x0 DUP1 PUSH1 0x0 DUP1 PUSH1 0x0 DUP1 PUSH1 0x80 DUP8 DUP10 SUB SLT ISZERO PUSH2 0x36D8 JUMPI PUSH1 0x0 DUP1 REVERT JUMPDEST DUP7 CALLDATALOAD PUSH1 0x1 PUSH1 0x1 PUSH1 0x40 SHL SUB DUP1 DUP3 GT ISZERO PUSH2 0x36EF JUMPI PUSH1 0x0 DUP1 REVERT JUMPDEST PUSH2 0x36FB DUP11 DUP4 DUP12 ADD PUSH2 0x365D JUMP JUMPDEST SWAP1 SWAP9 POP SWAP7 POP PUSH1 0x20 DUP10 ADD CALLDATALOAD SWAP2 POP PUSH2 0x3710 DUP3 PUSH2 0x359C JUMP JUMPDEST DUP2 SWAP6 POP PUSH2 0x371F PUSH1 0x40 DUP11 ADD PUSH2 0x36A8 JUMP JUMPDEST SWAP5 POP PUSH1 0x60 DUP10 ADD CALLDATALOAD SWAP2 POP DUP1 DUP3 GT ISZERO PUSH2 0x3735 JUMPI PUSH1 0x0 DUP1 REVERT JUMPDEST POP PUSH2 0x3742 DUP10 DUP3 DUP11 ADD PUSH2 0x365D JUMP JUMPDEST SWAP8 SWAP11 SWAP7 SWAP10 POP SWAP5 SWAP8 POP SWAP3 SWAP6 SWAP4 SWAP5 SWAP3 POP POP POP JUMP JUMPDEST PUSH1 0x0 PUSH1 0x20 DUP3 DUP5 SUB SLT ISZERO PUSH2 0x3766 JUMPI PUSH1 0x0 DUP1 REVERT JUMPDEST PUSH2 0xDA5 DUP3 PUSH2 0x3584 JUMP JUMPDEST DUP1 CALLDATALOAD PUSH1 0x1 PUSH1 0x1 PUSH1 0x80 SHL SUB DUP2 AND DUP2 EQ PUSH2 0x2764 JUMPI PUSH1 0x0 DUP1 REVERT JUMPDEST PUSH1 0x0 DUP1 PUSH1 0x0 PUSH1 0x60 DUP5 DUP7 SUB SLT ISZERO PUSH2 0x379B JUMPI PUSH1 0x0 DUP1 REVERT JUMPDEST PUSH2 0x37A4 DUP5 PUSH2 0x376F JUMP JUMPDEST SWAP3 POP PUSH2 0x37B2 PUSH1 0x20 DUP6 ADD PUSH2 0x376F JUMP JUMPDEST SWAP2 POP PUSH2 0x37C0 PUSH1 0x40 DUP6 ADD PUSH2 0x376F JUMP JUMPDEST SWAP1 POP SWAP3 POP SWAP3 POP SWAP3 JUMP JUMPDEST PUSH1 0x0 DUP1 PUSH1 0x40 DUP4 DUP6 SUB SLT ISZERO PUSH2 0x37DC JUMPI PUSH1 0x0 DUP1 REVERT JUMPDEST PUSH2 0x37E5 DUP4 PUSH2 0x3584 JUMP JUMPDEST SWAP2 POP PUSH1 0x20 DUP4 ADD CALLDATALOAD PUSH2 0x37F5 DUP2 PUSH2 0x359C JUMP JUMPDEST DUP1 SWAP2 POP POP SWAP3 POP SWAP3 SWAP1 POP JUMP JUMPDEST PUSH2 0xFFFF DUP2 AND DUP2 EQ PUSH2 0x1CA4 JUMPI PUSH1 0x0 DUP1 REVERT JUMPDEST PUSH1 0x0 DUP1 PUSH1 0x40 DUP4 DUP6 SUB SLT ISZERO PUSH2 0x3823 JUMPI PUSH1 0x0 DUP1 REVERT JUMPDEST DUP3 CALLDATALOAD PUSH2 0x382E DUP2 PUSH2 0x359C JUMP JUMPDEST SWAP2 POP PUSH1 0x20 DUP4 ADD CALLDATALOAD PUSH2 0x37F5 DUP2 PUSH2 0x3800 JUMP JUMPDEST PUSH1 0x0 DUP1 PUSH1 0x0 DUP1 PUSH1 0x0 PUSH1 0x80 DUP7 DUP9 SUB SLT ISZERO PUSH2 0x3856 JUMPI PUSH1 0x0 DUP1 REVERT JUMPDEST PUSH2 0x385F DUP7 PUSH2 0x3584 JUMP JUMPDEST SWAP5 POP PUSH1 0x20 DUP7 ADD CALLDATALOAD PUSH2 0x386F DUP2 PUSH2 0x359C JUMP JUMPDEST SWAP4 POP PUSH2 0x387D PUSH1 0x40 DUP8 ADD PUSH2 0x36A8 JUMP JUMPDEST SWAP3 POP PUSH1 0x60 DUP7 ADD CALLDATALOAD PUSH1 0x1 PUSH1 0x1 PUSH1 0x40 SHL SUB DUP2 GT ISZERO PUSH2 0x3898 JUMPI PUSH1 0x0 DUP1 REVERT JUMPDEST PUSH2 0x38A4 DUP9 DUP3 DUP10 ADD PUSH2 0x365D JUMP JUMPDEST SWAP7 SWAP10 SWAP6 SWAP9 POP SWAP4 SWAP7 POP SWAP3 SWAP5 SWAP4 SWAP3 POP POP POP JUMP JUMPDEST PUSH1 0x0 PUSH1 0x20 DUP3 DUP5 SUB SLT ISZERO PUSH2 0x38C7 JUMPI PUSH1 0x0 DUP1 REVERT JUMPDEST POP CALLDATALOAD SWAP2 SWAP1 POP JUMP JUMPDEST PUSH1 0x0 DUP1 PUSH1 0x0 DUP1 PUSH1 0x80 DUP6 DUP8 SUB SLT ISZERO PUSH2 0x38E4 JUMPI PUSH1 0x0 DUP1 REVERT JUMPDEST DUP5 CALLDATALOAD PUSH2 0x38EF DUP2 PUSH2 0x359C JUMP JUMPDEST SWAP4 POP PUSH1 0x20 DUP6 ADD CALLDATALOAD PUSH2 0x38FF DUP2 PUSH2 0x3800 JUMP JUMPDEST SWAP3 POP PUSH1 0x40 DUP6 ADD CALLDATALOAD PUSH2 0x390F DUP2 PUSH2 0x3800 JUMP JUMPDEST SWAP2 POP PUSH1 0x60 DUP6 ADD CALLDATALOAD PUSH2 0x391F DUP2 PUSH2 0x3800 JUMP JUMPDEST SWAP4 SWAP7 SWAP3 SWAP6 POP SWAP1 SWAP4 POP POP JUMP JUMPDEST PUSH1 0x0 DUP1 PUSH1 0x40 DUP4 DUP6 SUB SLT ISZERO PUSH2 0x393D JUMPI PUSH1 0x0 DUP1 REVERT JUMPDEST PUSH2 0x3946 DUP4 PUSH2 0x3584 JUMP JUMPDEST SWAP5 PUSH1 0x20 SWAP4 SWAP1 SWAP4 ADD CALLDATALOAD SWAP4 POP POP POP JUMP JUMPDEST PUSH4 0x4E487B71 PUSH1 0xE0 SHL PUSH1 0x0 MSTORE PUSH1 0x12 PUSH1 0x4 MSTORE PUSH1 0x24 PUSH1 0x0 REVERT JUMPDEST PUSH4 0x4E487B71 PUSH1 0xE0 SHL PUSH1 0x0 MSTORE PUSH1 0x11 PUSH1 0x4 MSTORE PUSH1 0x24 PUSH1 0x0 REVERT JUMPDEST PUSH1 0x0 DUP3 PUSH2 0x398F JUMPI PUSH2 0x398F PUSH2 0x3954 JUMP JUMPDEST POP DIV SWAP1 JUMP JUMPDEST PUSH1 0x0 PUSH1 0x1 PUSH1 0x1 PUSH1 0x40 SHL SUB DUP1 DUP5 AND DUP1 PUSH2 0x39AE JUMPI PUSH2 0x39AE PUSH2 0x3954 JUMP JUMPDEST SWAP3 AND SWAP2 SWAP1 SWAP2 DIV SWAP3 SWAP2 POP POP JUMP JUMPDEST PUSH1 0x0 PUSH2 0xFFFF DUP1 DUP4 AND DUP2 DUP6 AND DUP1 DUP4 SUB DUP3 GT ISZERO PUSH2 0x39D7 JUMPI PUSH2 0x39D7 PUSH2 0x396A JUMP JUMPDEST ADD SWAP5 SWAP4 POP POP POP POP JUMP JUMPDEST PUSH1 0x0 PUSH2 0xFFFF DUP4 DUP2 AND SWAP1 DUP4 AND DUP2 DUP2 LT ISZERO PUSH2 0x39FB JUMPI PUSH2 0x39FB PUSH2 0x396A JUMP JUMPDEST SUB SWAP4 SWAP3 POP POP POP JUMP JUMPDEST PUSH1 0x0 DUP2 PUSH1 0x0 NOT DIV DUP4 GT DUP3 ISZERO ISZERO AND ISZERO PUSH2 0x3A1D JUMPI PUSH2 0x3A1D PUSH2 0x396A JUMP JUMPDEST POP MUL SWAP1 JUMP JUMPDEST PUSH4 0x4E487B71 PUSH1 0xE0 SHL PUSH1 0x0 MSTORE PUSH1 0x32 PUSH1 0x4 MSTORE PUSH1 0x24 PUSH1 0x0 REVERT JUMPDEST PUSH1 0x0 PUSH1 0x0 NOT DUP3 EQ ISZERO PUSH2 0x3A4C JUMPI PUSH2 0x3A4C PUSH2 0x396A JUMP JUMPDEST POP PUSH1 0x1 ADD SWAP1 JUMP JUMPDEST PUSH1 0x0 DUP2 PUSH2 0x3A62 JUMPI PUSH2 0x3A62 PUSH2 0x396A JUMP JUMPDEST POP PUSH1 0x0 NOT ADD SWAP1 JUMP JUMPDEST PUSH1 0x0 PUSH1 0x1 PUSH1 0xFF SHL DUP3 EQ ISZERO PUSH2 0x3A80 JUMPI PUSH2 0x3A80 PUSH2 0x396A JUMP JUMPDEST POP PUSH1 0x0 SUB SWAP1 JUMP JUMPDEST PUSH1 0x0 DUP1 DUP4 SLT DUP1 ISZERO PUSH1 0x1 PUSH1 0xFF SHL DUP6 ADD DUP5 SLT AND ISZERO PUSH2 0x3AA5 JUMPI PUSH2 0x3AA5 PUSH2 0x396A JUMP JUMPDEST PUSH1 0x1 PUSH1 0x1 PUSH1 0xFF SHL SUB DUP5 ADD DUP4 SGT DUP2 AND ISZERO PUSH2 0x3AC0 JUMPI PUSH2 0x3AC0 PUSH2 0x396A JUMP JUMPDEST POP POP SUB SWAP1 JUMP JUMPDEST PUSH1 0x0 DUP1 DUP3 SLT DUP1 ISZERO PUSH1 0x1 PUSH1 0x1 PUSH1 0xFF SHL SUB DUP5 SWAP1 SUB DUP6 SGT AND ISZERO PUSH2 0x3AE8 JUMPI PUSH2 0x3AE8 PUSH2 0x396A JUMP JUMPDEST PUSH1 0x1 PUSH1 0xFF SHL DUP4 SWAP1 SUB DUP5 SLT DUP2 AND ISZERO PUSH2 0x3B01 JUMPI PUSH2 0x3B01 PUSH2 0x396A JUMP JUMPDEST POP POP ADD SWAP1 JUMP JUMPDEST PUSH1 0x0 DUP3 NOT DUP3 GT ISZERO PUSH2 0x3B1A JUMPI PUSH2 0x3B1A PUSH2 0x396A JUMP JUMPDEST POP ADD SWAP1 JUMP JUMPDEST PUSH1 0x0 PUSH2 0xFFFF DUP1 DUP4 AND DUP2 DUP2 EQ ISZERO PUSH2 0x3B37 JUMPI PUSH2 0x3B37 PUSH2 0x396A JUMP JUMPDEST PUSH1 0x1 ADD SWAP4 SWAP3 POP POP POP JUMP JUMPDEST PUSH1 0x0 PUSH1 0x1 PUSH1 0x1 PUSH1 0x80 SHL SUB DUP1 DUP4 AND DUP2 DUP6 AND DUP1 DUP4 SUB DUP3 GT ISZERO PUSH2 0x39D7 JUMPI PUSH2 0x39D7 PUSH2 0x396A JUMP JUMPDEST PUSH1 0x0 DUP2 MLOAD PUSH1 0x0 JUMPDEST DUP2 DUP2 LT ISZERO PUSH2 0x3B84 JUMPI PUSH1 0x20 DUP2 DUP6 ADD DUP2 ADD MLOAD DUP7 DUP4 ADD MSTORE ADD PUSH2 0x3B6A JUMP JUMPDEST DUP2 DUP2 GT ISZERO PUSH2 0x3B93 JUMPI PUSH1 0x0 DUP3 DUP7 ADD MSTORE JUMPDEST POP SWAP3 SWAP1 SWAP3 ADD SWAP3 SWAP2 POP POP JUMP JUMPDEST PUSH1 0x1 PUSH1 0x1 PUSH1 0xF8 SHL SUB NOT DUP6 DUP2 AND DUP3 MSTORE DUP5 AND PUSH1 0x1 DUP3 ADD MSTORE PUSH1 0x60 DUP4 SWAP1 SHL PUSH12 0xFFFFFFFFFFFFFFFFFFFFFFFF NOT AND PUSH1 0x2 DUP3 ADD MSTORE PUSH1 0x0 PUSH2 0x3BDB PUSH1 0x16 DUP4 ADD DUP5 PUSH2 0x3B63 JUMP JUMPDEST SWAP7 SWAP6 POP POP POP POP POP POP JUMP JUMPDEST PUSH4 0x4E487B71 PUSH1 0xE0 SHL PUSH1 0x0 MSTORE PUSH1 0x41 PUSH1 0x4 MSTORE PUSH1 0x24 PUSH1 0x0 REVERT JUMPDEST PUSH1 0x0 DUP3 PUSH2 0x3C0A JUMPI PUSH2 0x3C0A PUSH2 0x3954 JUMP JUMPDEST POP MOD SWAP1 JUMP JUMPDEST PUSH1 0x1 PUSH1 0x1 PUSH1 0xF8 SHL SUB NOT DUP6 AND DUP2 MSTORE PUSH7 0xFFFFFFFFFFFFFF NOT DUP5 AND PUSH1 0x1 DUP3 ADD MSTORE PUSH1 0x0 PUSH2 0x3BDB PUSH2 0x3C3E PUSH1 0x1A DUP5 ADD DUP7 PUSH2 0x3B63 JUMP JUMPDEST DUP5 PUSH2 0x3B63 JUMP JUMPDEST PUSH1 0x0 PUSH1 0xFF DUP3 AND PUSH1 0xFF DUP5 AND DUP1 PUSH1 0xFF SUB DUP3 GT ISZERO PUSH2 0x3C61 JUMPI PUSH2 0x3C61 PUSH2 0x396A JUMP JUMPDEST ADD SWAP4 SWAP3 POP POP POP JUMP JUMPDEST PUSH1 0x0 PUSH1 0x20 DUP3 DUP5 SUB SLT ISZERO PUSH2 0x3C7B JUMPI PUSH1 0x0 DUP1 REVERT JUMPDEST POP MLOAD SWAP2 SWAP1 POP JUMP JUMPDEST PUSH1 0x0 DUP1 PUSH1 0x40 DUP4 DUP6 SUB SLT ISZERO PUSH2 0x3C95 JUMPI PUSH1 0x0 DUP1 REVERT JUMPDEST DUP3 MLOAD PUSH2 0x3CA0 DUP2 PUSH2 0x3800 JUMP JUMPDEST PUSH1 0x20 DUP5 ADD MLOAD SWAP1 SWAP3 POP PUSH2 0x37F5 DUP2 PUSH2 0x3800 JUMP JUMPDEST PUSH1 0x0 PUSH1 0x20 DUP3 DUP5 SUB SLT ISZERO PUSH2 0x3CC3 JUMPI PUSH1 0x0 DUP1 REVERT JUMPDEST DUP2 MLOAD PUSH2 0xDA5 DUP2 PUSH2 0x3800 JUMP JUMPDEST PUSH1 0x0 PUSH1 0x1 PUSH1 0x1 PUSH1 0x80 SHL SUB DUP1 DUP4 AND DUP2 DUP6 AND DUP2 DUP4 DIV DUP2 GT DUP3 ISZERO ISZERO AND ISZERO PUSH2 0x3CF4 JUMPI PUSH2 0x3CF4 PUSH2 0x396A JUMP JUMPDEST MUL SWAP5 SWAP4 POP POP POP POP JUMP JUMPDEST PUSH4 0x4E487B71 PUSH1 0xE0 SHL PUSH1 0x0 MSTORE PUSH1 0x1 PUSH1 0x4 MSTORE PUSH1 0x24 PUSH1 0x0 REVERT JUMPDEST PUSH1 0x0 DUP3 DUP3 LT ISZERO PUSH2 0x3D25 JUMPI PUSH2 0x3D25 PUSH2 0x396A JUMP JUMPDEST POP SUB SWAP1 JUMP INVALID LOG2 PUSH5 0x6970667358 0x22 SLT KECCAK256 SLOAD SWAP6 GAS SLT MSTORE8 0xD1 JUMP EXP PUSH21 0x7B6409CC836F8AFF98236DB2C8975434D821EC25C0 0xCE GASPRICE PUSH5 0x736F6C6343 STOP ADDMOD EXP STOP CALLER ",
  "sha1": "8cef1d8845ab534b85496bd02769b76d585db150",
  "source": "// SPDX-License-Identifier: AGPL-3.0-or-later\n\npragma solidity ^0.8.0;\n\n\nimport \"../zeppelin/token/ERC20/SafeERC20.sol\";\nimport \"../zeppelin/math/SafeMath.sol\";\nimport \"../zeppelin/math/Math.sol\";\nimport \"../zeppelin/utils/Address.sol\";\nimport \"./lib/AdditionalMath.sol\";\nimport \"./lib/SignatureVerifier.sol\";\nimport \"./NuCypherToken.sol\";\nimport \"./proxy/Upgradeable.sol\";\nimport \"./IStakingEscrow.sol\";\n\n\n/**\n* @title PolicyManager\n* @notice Contract holds policy data and locks accrued policy fees\n* @dev |v6.3.1|\n*/\ncontract PolicyManager is Upgradeable {\n    using SafeERC20 for NuCypherToken;\n    using SafeMath for uint256;\n    using AdditionalMath for uint256;\n    using AdditionalMath for int256;\n    using AdditionalMath for uint16;\n    using Address for address payable;\n\n    event PolicyCreated(\n        bytes16 indexed policyId,\n        address indexed sponsor,\n        address indexed owner,\n        uint256 feeRate,\n        uint64 startTimestamp,\n        uint64 endTimestamp,\n        uint256 numberOfNodes\n    );\n    event ArrangementRevoked(\n        bytes16 indexed policyId,\n        address indexed sender,\n        address indexed node,\n        uint256 value\n    );\n    event RefundForArrangement(\n        bytes16 indexed policyId,\n        address indexed sender,\n        address indexed node,\n        uint256 value\n    );\n    event PolicyRevoked(bytes16 indexed policyId, address indexed sender, uint256 value);\n    event RefundForPolicy(bytes16 indexed policyId, address indexed sender, uint256 value);\n    event MinFeeRateSet(address indexed node, uint256 value);\n    // TODO #1501\n    // Range range\n    event FeeRateRangeSet(address indexed sender, uint256 min, uint256 defaultValue, uint256 max);\n    event Withdrawn(address indexed node, address indexed recipient, uint256 value);\n\n    struct ArrangementInfo {\n        address node;\n        uint256 indexOfDowntimePeriods;\n        uint16 lastRefundedPeriod;\n    }\n\n    struct Policy {\n        bool disabled;\n        address payable sponsor;\n        address owner;\n\n        uint128 feeRate;\n        uint64 startTimestamp;\n        uint64 endTimestamp;\n\n        uint256 reservedSlot1;\n        uint256 reservedSlot2;\n        uint256 reservedSlot3;\n        uint256 reservedSlot4;\n        uint256 reservedSlot5;\n\n        ArrangementInfo[] arrangements;\n    }\n\n    struct NodeInfo {\n        uint128 fee;\n        uint16 previousFeePeriod;\n        uint256 feeRate;\n        uint256 minFeeRate;\n        mapping (uint16 => int256) stub; // former slot for feeDelta\n        mapping (uint16 => int256) feeDelta;\n    }\n\n    // TODO used only for `delegateGetNodeInfo`, probably will be removed after #1512\n    struct MemoryNodeInfo {\n        uint128 fee;\n        uint16 previousFeePeriod;\n        uint256 feeRate;\n        uint256 minFeeRate;\n    }\n\n    struct Range {\n        uint128 min;\n        uint128 defaultValue;\n        uint128 max;\n    }\n\n    bytes16 internal constant RESERVED_POLICY_ID = bytes16(0);\n    address internal constant RESERVED_NODE = address(0);\n    uint256 internal constant MAX_BALANCE = uint256(type(uint128).max);\n    // controlled overflow to get max int256\n    int256 public constant DEFAULT_FEE_DELTA = int256((type(uint256).max) >> 1);\n\n    IStakingEscrow public immutable escrow;\n    uint32 public immutable genesisSecondsPerPeriod;\n    uint32 public immutable secondsPerPeriod;\n\n    mapping (bytes16 => Policy) public policies;\n    mapping (address => NodeInfo) public nodes;\n    Range public feeRateRange;\n    uint64 public resetTimestamp;\n\n    /**\n    * @notice Constructor sets address of the escrow contract\n    * @dev Put same address in both inputs variables except when migration is happening\n    * @param _escrowDispatcher Address of escrow dispatcher\n    * @param _escrowImplementation Address of escrow implementation\n    */\n    constructor(IStakingEscrow _escrowDispatcher, IStakingEscrow _escrowImplementation) {\n        escrow = _escrowDispatcher;\n        // if the input address is not the StakingEscrow then calling `secondsPerPeriod` will throw error\n        uint32 localSecondsPerPeriod = _escrowImplementation.secondsPerPeriod();\n        require(localSecondsPerPeriod > 0);\n        secondsPerPeriod = localSecondsPerPeriod;\n        uint32 localgenesisSecondsPerPeriod = _escrowImplementation.genesisSecondsPerPeriod();\n        require(localgenesisSecondsPerPeriod > 0);\n        genesisSecondsPerPeriod = localgenesisSecondsPerPeriod;\n        // handle case when we deployed new StakingEscrow but not yet upgraded\n        if (_escrowDispatcher != _escrowImplementation) {\n            require(_escrowDispatcher.secondsPerPeriod() == localSecondsPerPeriod ||\n                _escrowDispatcher.secondsPerPeriod() == localgenesisSecondsPerPeriod);\n        }\n    }\n\n    /**\n    * @dev Checks that sender is the StakingEscrow contract\n    */\n    modifier onlyEscrowContract()\n    {\n        require(msg.sender == address(escrow));\n        _;\n    }\n\n    /**\n    * @return Number of current period\n    */\n    function getCurrentPeriod() public view returns (uint16) {\n        return uint16(block.timestamp / secondsPerPeriod);\n    }\n\n    /**\n    * @return Recalculate period value using new basis\n    */\n    function recalculatePeriod(uint16 _period) internal view returns (uint16) {\n        return uint16(uint256(_period) * genesisSecondsPerPeriod / secondsPerPeriod);\n    }\n\n    /**\n    * @notice Register a node\n    * @param _node Node address\n    * @param _period Initial period\n    */\n    function register(address _node, uint16 _period) external onlyEscrowContract {\n        NodeInfo storage nodeInfo = nodes[_node];\n        require(nodeInfo.previousFeePeriod == 0 && _period < getCurrentPeriod());\n        nodeInfo.previousFeePeriod = _period;\n    }\n\n    /**\n    * @notice Migrate from the old period length to the new one\n    * @param _node Node address\n    */\n    function migrate(address _node) external onlyEscrowContract {\n        NodeInfo storage nodeInfo = nodes[_node];\n        // with previous period length any previousFeePeriod will be greater than current period\n        // this is a sign of not migrated node\n        require(nodeInfo.previousFeePeriod >= getCurrentPeriod());\n        nodeInfo.previousFeePeriod = recalculatePeriod(nodeInfo.previousFeePeriod);\n        nodeInfo.feeRate = 0;\n    }\n\n    /**\n    * @notice Set minimum, default & maximum fee rate for all stakers and all policies ('global fee range')\n    */\n    // TODO # 1501\n    // function setFeeRateRange(Range calldata _range) external onlyOwner {\n    function setFeeRateRange(uint128 _min, uint128 _default, uint128 _max) external onlyOwner {\n        require(_min <= _default && _default <= _max);\n        feeRateRange = Range(_min, _default, _max);\n        emit FeeRateRangeSet(msg.sender, _min, _default, _max);\n    }\n\n    /**\n    * @notice Set the minimum acceptable fee rate (set by staker for their associated worker)\n    * @dev Input value must fall within `feeRateRange` (global fee range)\n    */\n    function setMinFeeRate(uint256 _minFeeRate) external {\n        require(_minFeeRate >= feeRateRange.min &&\n            _minFeeRate <= feeRateRange.max,\n            \"The staker's min fee rate must fall within the global fee range\");\n        NodeInfo storage nodeInfo = nodes[msg.sender];\n        if (nodeInfo.minFeeRate == _minFeeRate) {\n            return;\n        }\n        nodeInfo.minFeeRate = _minFeeRate;\n        emit MinFeeRateSet(msg.sender, _minFeeRate);\n    }\n\n    /**\n    * @notice Get the minimum acceptable fee rate (set by staker for their associated worker)\n    */\n    function getMinFeeRate(NodeInfo storage _nodeInfo) internal view returns (uint256) {\n        // if minFeeRate has not been set or chosen value falls outside the global fee range\n        // a default value is returned instead\n        if (_nodeInfo.minFeeRate == 0 ||\n            _nodeInfo.minFeeRate < feeRateRange.min ||\n            _nodeInfo.minFeeRate > feeRateRange.max) {\n            return feeRateRange.defaultValue;\n        } else {\n            return _nodeInfo.minFeeRate;\n        }\n    }\n\n    /**\n    * @notice Get the minimum acceptable fee rate (set by staker for their associated worker)\n    */\n    function getMinFeeRate(address _node) public view returns (uint256) {\n        NodeInfo storage nodeInfo = nodes[_node];\n        return getMinFeeRate(nodeInfo);\n    }\n\n    /**\n    * @notice Create policy\n    * @dev Generate policy id before creation\n    * @param _policyId Policy id\n    * @param _policyOwner Policy owner. Zero address means sender is owner\n    * @param _endTimestamp End timestamp of the policy in seconds\n    * @param _nodes Nodes that will handle policy\n    */\n    function createPolicy(\n        bytes16 _policyId,\n        address _policyOwner,\n        uint64 _endTimestamp,\n        address[] calldata _nodes\n    )\n        external payable\n    {\n        require(\n            _endTimestamp > block.timestamp &&\n            msg.value > 0\n        );\n\n        require(address(this).balance <= MAX_BALANCE);\n        uint16 currentPeriod = getCurrentPeriod();\n        uint16 endPeriod = uint16(_endTimestamp / secondsPerPeriod) + 1;\n        uint256 numberOfPeriods = endPeriod - currentPeriod;\n\n        uint128 feeRate = uint128(msg.value.div(_nodes.length) / numberOfPeriods);\n        require(feeRate > 0 && feeRate * numberOfPeriods * _nodes.length  == msg.value);\n\n        Policy storage policy = createPolicy(_policyId, _policyOwner, _endTimestamp, feeRate, _nodes.length);\n\n        for (uint256 i = 0; i < _nodes.length; i++) {\n            address node = _nodes[i];\n            addFeeToNode(currentPeriod, endPeriod, node, feeRate, int256(uint256(feeRate)));\n            policy.arrangements.push(ArrangementInfo(node, 0, 0));\n        }\n    }\n\n    /**\n    * @notice Create multiple policies with the same owner, nodes and length\n    * @dev Generate policy ids before creation\n    * @param _policyIds Policy ids\n    * @param _policyOwner Policy owner. Zero address means sender is owner\n    * @param _endTimestamp End timestamp of all policies in seconds\n    * @param _nodes Nodes that will handle all policies\n    */\n    function createPolicies(\n        bytes16[] calldata _policyIds,\n        address _policyOwner,\n        uint64 _endTimestamp,\n        address[] calldata _nodes\n    )\n        external payable\n    {\n        require(\n            _endTimestamp > block.timestamp &&\n            msg.value > 0 &&\n            _policyIds.length > 1\n        );\n\n        require(address(this).balance <= MAX_BALANCE);\n        uint16 currentPeriod = getCurrentPeriod();\n        uint16 endPeriod = uint16(_endTimestamp / secondsPerPeriod) + 1;\n        uint256 numberOfPeriods = endPeriod - currentPeriod;\n\n        uint128 feeRate = uint128(msg.value.div(_nodes.length) / numberOfPeriods / _policyIds.length);\n        require(feeRate > 0 && feeRate * numberOfPeriods * _nodes.length * _policyIds.length == msg.value);\n\n        for (uint256 i = 0; i < _policyIds.length; i++) {\n            Policy storage policy = createPolicy(_policyIds[i], _policyOwner, _endTimestamp, feeRate, _nodes.length);\n\n            for (uint256 j = 0; j < _nodes.length; j++) {\n                policy.arrangements.push(ArrangementInfo(_nodes[j], 0, 0));\n            }\n        }\n\n        int256 fee = int256(_policyIds.length * feeRate);\n\n        for (uint256 i = 0; i < _nodes.length; i++) {\n            address node = _nodes[i];\n            addFeeToNode(currentPeriod, endPeriod, node, feeRate, fee);\n        }\n    }\n\n    /**\n    * @notice Create policy\n    * @param _policyId Policy id\n    * @param _policyOwner Policy owner. Zero address means sender is owner\n    * @param _endTimestamp End timestamp of the policy in seconds\n    * @param _feeRate Fee rate for policy\n    * @param _nodesLength Number of nodes that will handle policy\n    */\n    function createPolicy(\n        bytes16 _policyId,\n        address _policyOwner,\n        uint64 _endTimestamp,\n        uint128 _feeRate,\n        uint256 _nodesLength\n    )\n        internal returns (Policy storage policy)\n    {\n        policy = policies[_policyId];\n        require(\n            _policyId != RESERVED_POLICY_ID &&\n            policy.feeRate == 0 &&\n            !policy.disabled\n        );\n\n        policy.sponsor = payable(msg.sender);\n        policy.startTimestamp = uint64(block.timestamp);\n        policy.endTimestamp = _endTimestamp;\n        policy.feeRate = _feeRate;\n\n        if (_policyOwner != msg.sender && _policyOwner != address(0)) {\n            policy.owner = _policyOwner;\n        }\n\n        emit PolicyCreated(\n            _policyId,\n            msg.sender,\n            _policyOwner == address(0) ? msg.sender : _policyOwner,\n            _feeRate,\n            policy.startTimestamp,\n            policy.endTimestamp,\n            _nodesLength\n        );\n    }\n\n    /**\n    * @notice Increase fee rate for specified node\n    * @param _currentPeriod Current period\n    * @param _endPeriod End period of policy\n    * @param _node Node that will handle policy\n    * @param _feeRate Fee rate for one policy\n    * @param _overallFeeRate Fee rate for all policies\n    */\n    function addFeeToNode(\n        uint16 _currentPeriod,\n        uint16 _endPeriod,\n        address _node,\n        uint128 _feeRate,\n        int256 _overallFeeRate\n    )\n        internal\n    {\n        require(_node != RESERVED_NODE);\n        NodeInfo storage nodeInfo = nodes[_node];\n        require(nodeInfo.previousFeePeriod != 0 &&\n            nodeInfo.previousFeePeriod < _currentPeriod &&\n            _feeRate >= getMinFeeRate(nodeInfo));\n        // Check default value for feeDelta\n        if (nodeInfo.feeDelta[_currentPeriod] == DEFAULT_FEE_DELTA) {\n            nodeInfo.feeDelta[_currentPeriod] = _overallFeeRate;\n        } else {\n            // Overflow protection removed, because ETH total supply less than uint255/int256\n            nodeInfo.feeDelta[_currentPeriod] += _overallFeeRate;\n        }\n        if (nodeInfo.feeDelta[_endPeriod] == DEFAULT_FEE_DELTA) {\n            nodeInfo.feeDelta[_endPeriod] = -_overallFeeRate;\n        } else {\n            nodeInfo.feeDelta[_endPeriod] -= _overallFeeRate;\n        }\n        // Reset to default value if needed\n        if (nodeInfo.feeDelta[_currentPeriod] == 0) {\n            nodeInfo.feeDelta[_currentPeriod] = DEFAULT_FEE_DELTA;\n        }\n        if (nodeInfo.feeDelta[_endPeriod] == 0) {\n            nodeInfo.feeDelta[_endPeriod] = DEFAULT_FEE_DELTA;\n        }\n    }\n\n    /**\n    * @notice Get policy owner\n    */\n    function getPolicyOwner(bytes16 _policyId) public view returns (address) {\n        Policy storage policy = policies[_policyId];\n        return policy.owner == address(0) ? policy.sponsor : policy.owner;\n    }\n\n    /**\n    * @notice Call from StakingEscrow to update node info once per period.\n    * Set default `feeDelta` value for specified period and update node fee\n    * @param _node Node address\n    * @param _processedPeriod1 Processed period\n    * @param _processedPeriod2 Processed period\n    * @param _periodToSetDefault Period to set\n    */\n    function ping(\n        address _node,\n        uint16 _processedPeriod1,\n        uint16 _processedPeriod2,\n        uint16 _periodToSetDefault\n    )\n        external onlyEscrowContract\n    {\n        NodeInfo storage node = nodes[_node];\n        // protection from calling not migrated node, see migrate()\n        require(node.previousFeePeriod <= getCurrentPeriod());\n        if (_processedPeriod1 != 0) {\n            updateFee(node, _processedPeriod1);\n        }\n        if (_processedPeriod2 != 0) {\n            updateFee(node, _processedPeriod2);\n        }\n        // This code increases gas cost for node in trade of decreasing cost for policy sponsor\n        if (_periodToSetDefault != 0 && node.feeDelta[_periodToSetDefault] == 0) {\n            node.feeDelta[_periodToSetDefault] = DEFAULT_FEE_DELTA;\n        }\n    }\n\n    /**\n    * @notice Update node fee\n    * @param _info Node info structure\n    * @param _period Processed period\n    */\n    function updateFee(NodeInfo storage _info, uint16 _period) internal {\n        if (_info.previousFeePeriod == 0 || _period <= _info.previousFeePeriod) {\n            return;\n        }\n        for (uint16 i = _info.previousFeePeriod + 1; i <= _period; i++) {\n            int256 delta = _info.feeDelta[i];\n            if (delta == DEFAULT_FEE_DELTA) {\n                // gas refund\n                _info.feeDelta[i] = 0;\n                continue;\n            }\n\n            _info.feeRate = _info.feeRate.addSigned(delta);\n            // gas refund\n            _info.feeDelta[i] = 0;\n        }\n        _info.previousFeePeriod = _period;\n        _info.fee += uint128(_info.feeRate);\n    }\n\n    /**\n    * @notice Withdraw fee by node\n    */\n    function withdraw() external returns (uint256) {\n        return withdraw(payable(msg.sender));\n    }\n\n    /**\n    * @notice Withdraw fee by node\n    * @param _recipient Recipient of the fee\n    */\n    function withdraw(address payable _recipient) public returns (uint256) {\n        NodeInfo storage node = nodes[msg.sender];\n        uint256 fee = node.fee;\n        require(fee != 0);\n        node.fee = 0;\n        _recipient.sendValue(fee);\n        emit Withdrawn(msg.sender, _recipient, fee);\n        return fee;\n    }\n\n    /**\n    * @notice Calculate amount of refund\n    * @param _policy Policy\n    * @param _arrangement Arrangement\n    */\n    function calculateRefundValue(Policy storage _policy, ArrangementInfo storage _arrangement)\n        internal view returns (uint256 refundValue, uint256 indexOfDowntimePeriods, uint16 lastRefundedPeriod)\n    {\n        uint16 policyStartPeriod = uint16(_policy.startTimestamp / secondsPerPeriod);\n        uint16 maxPeriod = AdditionalMath.min16(getCurrentPeriod(), uint16(_policy.endTimestamp / secondsPerPeriod));\n        uint16 minPeriod = AdditionalMath.max16(policyStartPeriod, _arrangement.lastRefundedPeriod);\n        uint16 downtimePeriods = 0;\n        uint256 length = escrow.getPastDowntimeLength(_arrangement.node);\n        uint256 initialIndexOfDowntimePeriods;\n        if (_arrangement.lastRefundedPeriod == 0) {\n            initialIndexOfDowntimePeriods = escrow.findIndexOfPastDowntime(_arrangement.node, policyStartPeriod);\n        } else {\n            initialIndexOfDowntimePeriods = _arrangement.indexOfDowntimePeriods;\n        }\n\n        for (indexOfDowntimePeriods = initialIndexOfDowntimePeriods;\n             indexOfDowntimePeriods < length;\n             indexOfDowntimePeriods++)\n        {\n            (uint16 startPeriod, uint16 endPeriod) =\n                escrow.getPastDowntime(_arrangement.node, indexOfDowntimePeriods);\n            if (startPeriod > maxPeriod) {\n                break;\n            } else if (endPeriod < minPeriod) {\n                continue;\n            }\n            downtimePeriods += AdditionalMath.min16(maxPeriod, endPeriod)\n                .sub16(AdditionalMath.max16(minPeriod, startPeriod)) + 1;\n            if (maxPeriod <= endPeriod) {\n                break;\n            }\n        }\n\n        uint16 lastCommittedPeriod = escrow.getLastCommittedPeriod(_arrangement.node);\n        if (indexOfDowntimePeriods == length && lastCommittedPeriod < maxPeriod) {\n            // Overflow protection removed:\n            // lastCommittedPeriod < maxPeriod and minPeriod <= maxPeriod + 1\n            downtimePeriods += maxPeriod - AdditionalMath.max16(minPeriod - 1, lastCommittedPeriod);\n        }\n\n        refundValue = _policy.feeRate * downtimePeriods;\n        lastRefundedPeriod = maxPeriod + 1;\n    }\n\n    /**\n    * @notice Revoke/refund arrangement/policy by the sponsor\n    * @param _policyId Policy id\n    * @param _node Node that will be excluded or RESERVED_NODE if full policy should be used\n    ( @param _forceRevoke Force revoke arrangement/policy\n    */\n    function refundInternal(bytes16 _policyId, address _node, bool _forceRevoke)\n        internal returns (uint256 refundValue)\n    {\n        refundValue = 0;\n        Policy storage policy = policies[_policyId];\n        require(!policy.disabled && policy.startTimestamp >= resetTimestamp);\n        uint16 endPeriod = uint16(policy.endTimestamp / secondsPerPeriod) + 1;\n        uint256 numberOfActive = policy.arrangements.length;\n        uint256 i = 0;\n        for (; i < policy.arrangements.length; i++) {\n            ArrangementInfo storage arrangement = policy.arrangements[i];\n            address node = arrangement.node;\n            if (node == RESERVED_NODE || _node != RESERVED_NODE && _node != node) {\n                numberOfActive--;\n                continue;\n            }\n            uint256 nodeRefundValue;\n            (nodeRefundValue, arrangement.indexOfDowntimePeriods, arrangement.lastRefundedPeriod) =\n                calculateRefundValue(policy, arrangement);\n            if (_forceRevoke) {\n                NodeInfo storage nodeInfo = nodes[node];\n\n                // Check default value for feeDelta\n                uint16 lastRefundedPeriod = arrangement.lastRefundedPeriod;\n                if (nodeInfo.feeDelta[lastRefundedPeriod] == DEFAULT_FEE_DELTA) {\n                    nodeInfo.feeDelta[lastRefundedPeriod] = -int256(uint256(policy.feeRate));\n                } else {\n                    nodeInfo.feeDelta[lastRefundedPeriod] -= int256(uint256(policy.feeRate));\n                }\n                if (nodeInfo.feeDelta[endPeriod] == DEFAULT_FEE_DELTA) {\n                    nodeInfo.feeDelta[endPeriod] = int256(uint256(policy.feeRate));\n                } else {\n                    nodeInfo.feeDelta[endPeriod] += int256(uint256(policy.feeRate));\n                }\n\n                // Reset to default value if needed\n                if (nodeInfo.feeDelta[lastRefundedPeriod] == 0) {\n                    nodeInfo.feeDelta[lastRefundedPeriod] = DEFAULT_FEE_DELTA;\n                }\n                if (nodeInfo.feeDelta[endPeriod] == 0) {\n                    nodeInfo.feeDelta[endPeriod] = DEFAULT_FEE_DELTA;\n                }\n                nodeRefundValue += uint256(endPeriod - lastRefundedPeriod) * policy.feeRate;\n            }\n            if (_forceRevoke || arrangement.lastRefundedPeriod >= endPeriod) {\n                arrangement.node = RESERVED_NODE;\n                arrangement.indexOfDowntimePeriods = 0;\n                arrangement.lastRefundedPeriod = 0;\n                numberOfActive--;\n                emit ArrangementRevoked(_policyId, msg.sender, node, nodeRefundValue);\n            } else {\n                emit RefundForArrangement(_policyId, msg.sender, node, nodeRefundValue);\n            }\n\n            refundValue += nodeRefundValue;\n            if (_node != RESERVED_NODE) {\n               break;\n            }\n        }\n        address payable policySponsor = policy.sponsor;\n        if (_node == RESERVED_NODE) {\n            if (numberOfActive == 0) {\n                policy.disabled = true;\n                // gas refund\n                policy.sponsor = payable(address(0));\n                policy.owner = address(0);\n                policy.feeRate = 0;\n                policy.startTimestamp = 0;\n                policy.endTimestamp = 0;\n                emit PolicyRevoked(_policyId, msg.sender, refundValue);\n            } else {\n                emit RefundForPolicy(_policyId, msg.sender, refundValue);\n            }\n        } else {\n            // arrangement not found\n            require(i < policy.arrangements.length);\n        }\n        if (refundValue > 0) {\n            policySponsor.sendValue(refundValue);\n        }\n    }\n\n    /**\n    * @notice Calculate amount of refund\n    * @param _policyId Policy id\n    * @param _node Node or RESERVED_NODE if all nodes should be used\n    */\n    function calculateRefundValueInternal(bytes16 _policyId, address _node)\n        internal view returns (uint256 refundValue)\n    {\n        refundValue = 0;\n        Policy storage policy = policies[_policyId];\n        require((policy.owner == msg.sender || policy.sponsor == msg.sender) && !policy.disabled);\n        uint256 i = 0;\n        for (; i < policy.arrangements.length; i++) {\n            ArrangementInfo storage arrangement = policy.arrangements[i];\n            if (arrangement.node == RESERVED_NODE || _node != RESERVED_NODE && _node != arrangement.node) {\n                continue;\n            }\n            (uint256 nodeRefundValue,,) = calculateRefundValue(policy, arrangement);\n            refundValue += nodeRefundValue;\n            if (_node != RESERVED_NODE) {\n               break;\n            }\n        }\n        if (_node != RESERVED_NODE) {\n            // arrangement not found\n            require(i < policy.arrangements.length);\n        }\n    }\n\n    /**\n    * @notice Revoke policy by the sponsor\n    * @param _policyId Policy id\n    */\n    function revokePolicy(bytes16 _policyId) external returns (uint256 refundValue) {\n        require(getPolicyOwner(_policyId) == msg.sender);\n        return refundInternal(_policyId, RESERVED_NODE, true);\n    }\n\n    /**\n    * @notice Revoke arrangement by the sponsor\n    * @param _policyId Policy id\n    * @param _node Node that will be excluded\n    */\n    function revokeArrangement(bytes16 _policyId, address _node)\n        external returns (uint256 refundValue)\n    {\n        require(_node != RESERVED_NODE);\n        require(getPolicyOwner(_policyId) == msg.sender);\n        return refundInternal(_policyId, _node, true);\n    }\n\n    /**\n    * @notice Get unsigned hash for revocation\n    * @param _policyId Policy id\n    * @param _node Node that will be excluded\n    * @return Revocation hash, EIP191 version 0x45 ('E')\n    */\n    function getRevocationHash(bytes16 _policyId, address _node) public view returns (bytes32) {\n        return SignatureVerifier.hashEIP191(abi.encodePacked(_policyId, _node), bytes1(0x45));\n    }\n\n    /**\n    * @notice Check correctness of signature\n    * @param _policyId Policy id\n    * @param _node Node that will be excluded, zero address if whole policy will be revoked\n    * @param _signature Signature of owner\n    */\n    function checkOwnerSignature(bytes16 _policyId, address _node, bytes memory _signature) internal view {\n        bytes32 hash = getRevocationHash(_policyId, _node);\n        address recovered = SignatureVerifier.recover(hash, _signature);\n        require(getPolicyOwner(_policyId) == recovered);\n    }\n\n    /**\n    * @notice Revoke policy or arrangement using owner's signature\n    * @param _policyId Policy id\n    * @param _node Node that will be excluded, zero address if whole policy will be revoked\n    * @param _signature Signature of owner, EIP191 version 0x45 ('E')\n    */\n    function revoke(bytes16 _policyId, address _node, bytes calldata _signature)\n        external returns (uint256 refundValue)\n    {\n        checkOwnerSignature(_policyId, _node, _signature);\n        return refundInternal(_policyId, _node, true);\n    }\n\n    /**\n    * @notice Refund part of fee by the sponsor\n    * @param _policyId Policy id\n    */\n    function refund(bytes16 _policyId) external {\n        Policy storage policy = policies[_policyId];\n        require(policy.owner == msg.sender || policy.sponsor == msg.sender);\n        refundInternal(_policyId, RESERVED_NODE, false);\n    }\n\n    /**\n    * @notice Refund part of one node's fee by the sponsor\n    * @param _policyId Policy id\n    * @param _node Node address\n    */\n    function refund(bytes16 _policyId, address _node)\n        external returns (uint256 refundValue)\n    {\n        require(_node != RESERVED_NODE);\n        Policy storage policy = policies[_policyId];\n        require(policy.owner == msg.sender || policy.sponsor == msg.sender);\n        return refundInternal(_policyId, _node, false);\n    }\n\n    /**\n    * @notice Calculate amount of refund\n    * @param _policyId Policy id\n    */\n    function calculateRefundValue(bytes16 _policyId)\n        external view returns (uint256 refundValue)\n    {\n        return calculateRefundValueInternal(_policyId, RESERVED_NODE);\n    }\n\n    /**\n    * @notice Calculate amount of refund\n    * @param _policyId Policy id\n    * @param _node Node\n    */\n    function calculateRefundValue(bytes16 _policyId, address _node)\n        external view returns (uint256 refundValue)\n    {\n        require(_node != RESERVED_NODE);\n        return calculateRefundValueInternal(_policyId, _node);\n    }\n\n    /**\n    * @notice Get number of arrangements in the policy\n    * @param _policyId Policy id\n    */\n    function getArrangementsLength(bytes16 _policyId) external view returns (uint256) {\n        return policies[_policyId].arrangements.length;\n    }\n\n    /**\n    * @notice Get information about staker's fee rate\n    * @param _node Address of staker\n    * @param _period Period to get fee delta\n    */\n    function getNodeFeeDelta(address _node, uint16 _period)\n        // TODO \"virtual\" only for tests, probably will be removed after #1512\n        public view virtual returns (int256)\n    {\n        // TODO remove after upgrade #2579\n        if (_node == RESERVED_NODE && _period == 11) {\n            return 55;\n        }\n        return nodes[_node].feeDelta[_period];\n    }\n\n    /**\n    * @notice Return the information about arrangement\n    */\n    function getArrangementInfo(bytes16 _policyId, uint256 _index)\n    // TODO change to structure when ABIEncoderV2 is released (#1501)\n//        public view returns (ArrangementInfo)\n        external view returns (address node, uint256 indexOfDowntimePeriods, uint16 lastRefundedPeriod)\n    {\n        ArrangementInfo storage info = policies[_policyId].arrangements[_index];\n        node = info.node;\n        indexOfDowntimePeriods = info.indexOfDowntimePeriods;\n        lastRefundedPeriod = info.lastRefundedPeriod;\n    }\n\n\n    /**\n    * @dev Get Policy structure by delegatecall\n    */\n    function delegateGetPolicy(address _target, bytes16 _policyId)\n        internal returns (Policy memory result)\n    {\n        bytes32 memoryAddress = delegateGetData(_target, this.policies.selector, 1, bytes32(_policyId), 0);\n        assembly {\n            result := memoryAddress\n        }\n    }\n\n    /**\n    * @dev Get ArrangementInfo structure by delegatecall\n    */\n    function delegateGetArrangementInfo(address _target, bytes16 _policyId, uint256 _index)\n        internal returns (ArrangementInfo memory result)\n    {\n        bytes32 memoryAddress = delegateGetData(\n            _target, this.getArrangementInfo.selector, 2, bytes32(_policyId), bytes32(_index));\n        assembly {\n            result := memoryAddress\n        }\n    }\n\n    /**\n    * @dev Get NodeInfo structure by delegatecall\n    */\n    function delegateGetNodeInfo(address _target, address _node)\n        internal returns (MemoryNodeInfo memory result)\n    {\n        bytes32 memoryAddress = delegateGetData(_target, this.nodes.selector, 1, bytes32(uint256(uint160(_node))), 0);\n        assembly {\n            result := memoryAddress\n        }\n    }\n\n    /**\n    * @dev Get feeRateRange structure by delegatecall\n    */\n    function delegateGetFeeRateRange(address _target) internal returns (Range memory result) {\n        bytes32 memoryAddress = delegateGetData(_target, this.feeRateRange.selector, 0, 0, 0);\n        assembly {\n            result := memoryAddress\n        }\n    }\n\n    /// @dev the `onlyWhileUpgrading` modifier works through a call to the parent `verifyState`\n    function verifyState(address _testTarget) public override virtual {\n        super.verifyState(_testTarget);\n        require(uint64(delegateGet(_testTarget, this.resetTimestamp.selector)) == resetTimestamp);\n\n        Range memory rangeToCheck = delegateGetFeeRateRange(_testTarget);\n        require(feeRateRange.min == rangeToCheck.min &&\n            feeRateRange.defaultValue == rangeToCheck.defaultValue &&\n            feeRateRange.max == rangeToCheck.max);\n\n        Policy storage policy = policies[RESERVED_POLICY_ID];\n        Policy memory policyToCheck = delegateGetPolicy(_testTarget, RESERVED_POLICY_ID);\n        require(policyToCheck.sponsor == policy.sponsor &&\n            policyToCheck.owner == policy.owner &&\n            policyToCheck.feeRate == policy.feeRate &&\n            policyToCheck.startTimestamp == policy.startTimestamp &&\n            policyToCheck.endTimestamp == policy.endTimestamp &&\n            policyToCheck.disabled == policy.disabled);\n\n        require(delegateGet(_testTarget, this.getArrangementsLength.selector, RESERVED_POLICY_ID) ==\n            policy.arrangements.length);\n        if (policy.arrangements.length > 0) {\n            ArrangementInfo storage arrangement = policy.arrangements[0];\n            ArrangementInfo memory arrangementToCheck = delegateGetArrangementInfo(\n                _testTarget, RESERVED_POLICY_ID, 0);\n            require(arrangementToCheck.node == arrangement.node &&\n                arrangementToCheck.indexOfDowntimePeriods == arrangement.indexOfDowntimePeriods &&\n                arrangementToCheck.lastRefundedPeriod == arrangement.lastRefundedPeriod);\n        }\n\n        NodeInfo storage nodeInfo = nodes[RESERVED_NODE];\n        MemoryNodeInfo memory nodeInfoToCheck = delegateGetNodeInfo(_testTarget, RESERVED_NODE);\n        require(nodeInfoToCheck.fee == nodeInfo.fee &&\n            nodeInfoToCheck.feeRate == nodeInfo.feeRate &&\n            nodeInfoToCheck.previousFeePeriod == nodeInfo.previousFeePeriod &&\n            nodeInfoToCheck.minFeeRate == nodeInfo.minFeeRate);\n\n        require(int256(delegateGet(_testTarget, this.getNodeFeeDelta.selector,\n            bytes32(bytes20(RESERVED_NODE)), bytes32(uint256(11)))) == getNodeFeeDelta(RESERVED_NODE, 11));\n    }\n\n    /// @dev the `onlyWhileUpgrading` modifier works through a call to the parent `finishUpgrade`\n    function finishUpgrade(address _target) public override virtual {\n        super.finishUpgrade(_target);\n\n        if (resetTimestamp == 0) {\n            resetTimestamp = uint64(block.timestamp);\n        }\n\n        // Create fake Policy and NodeInfo to use them in verifyState(address)\n        Policy storage policy = policies[RESERVED_POLICY_ID];\n        policy.sponsor = payable(msg.sender);\n        policy.owner = address(this);\n        policy.startTimestamp = 1;\n        policy.endTimestamp = 2;\n        policy.feeRate = 3;\n        policy.disabled = true;\n        policy.arrangements.push(ArrangementInfo(RESERVED_NODE, 11, 22));\n        NodeInfo storage nodeInfo = nodes[RESERVED_NODE];\n        nodeInfo.fee = 100;\n        nodeInfo.feeRate = 33;\n        nodeInfo.previousFeePeriod = 44;\n        nodeInfo.feeDelta[11] = 55;\n        nodeInfo.minFeeRate = 777;\n    }\n}\n",
  "sourcePath": "contracts/contracts/PolicyManager.sol",
  "type": "contract"
}