{
  "abi": [
    {
      "anonymous": false,
      "inputs": [
        {
          "indexed": true,
          "internalType": "address",
          "name": "sender",
          "type": "address"
        },
        {
          "indexed": false,
          "internalType": "uint256",
          "name": "value",
          "type": "uint256"
        }
      ],
      "name": "ETHWithdrawn",
      "type": "event"
    },
    {
      "anonymous": false,
      "inputs": [
        {
          "indexed": true,
          "internalType": "address",
          "name": "previousOwner",
          "type": "address"
        },
        {
          "indexed": true,
          "internalType": "address",
          "name": "newOwner",
          "type": "address"
        }
      ],
      "name": "OwnershipTransferred",
      "type": "event"
    },
    {
      "anonymous": false,
      "inputs": [
        {
          "indexed": true,
          "internalType": "address",
          "name": "sender",
          "type": "address"
        },
        {
          "indexed": false,
          "internalType": "uint256",
          "name": "value",
          "type": "uint256"
        },
        {
          "indexed": false,
          "internalType": "uint256",
          "name": "depositedTokens",
          "type": "uint256"
        }
      ],
      "name": "TokensDeposited",
      "type": "event"
    },
    {
      "anonymous": false,
      "inputs": [
        {
          "indexed": true,
          "internalType": "address",
          "name": "sender",
          "type": "address"
        },
        {
          "indexed": false,
          "internalType": "uint256",
          "name": "value",
          "type": "uint256"
        },
        {
          "indexed": false,
          "internalType": "uint256",
          "name": "depositedTokens",
          "type": "uint256"
        }
      ],
      "name": "TokensWithdrawn",
      "type": "event"
    },
    {
      "anonymous": false,
      "inputs": [
        {
          "indexed": true,
          "internalType": "address",
          "name": "sender",
          "type": "address"
        },
        {
          "indexed": true,
          "internalType": "address",
          "name": "workerOwner",
          "type": "address"
        }
      ],
      "name": "WorkerOwnerSet",
      "type": "event"
    },
    {
      "stateMutability": "payable",
      "type": "fallback"
    },
    {
      "inputs": [],
      "name": "BASIS_FRACTION",
      "outputs": [
        {
          "internalType": "uint256",
          "name": "",
          "type": "uint256"
        }
      ],
      "stateMutability": "view",
      "type": "function"
    },
    {
      "inputs": [
        {
          "internalType": "address",
          "name": "",
          "type": "address"
        }
      ],
      "name": "delegators",
      "outputs": [
        {
          "internalType": "uint256",
          "name": "depositedTokens",
          "type": "uint256"
        },
        {
          "internalType": "uint256",
          "name": "withdrawnReward",
          "type": "uint256"
        },
        {
          "internalType": "uint256",
          "name": "withdrawnETH",
          "type": "uint256"
        }
      ],
      "stateMutability": "view",
      "type": "function"
    },
    {
      "inputs": [
        {
          "internalType": "uint256",
          "name": "_value",
          "type": "uint256"
        }
      ],
      "name": "depositTokens",
      "outputs": [],
      "stateMutability": "nonpayable",
      "type": "function"
    },
    {
      "inputs": [],
      "name": "escrow",
      "outputs": [
        {
          "internalType": "contract IStakingEscrow",
          "name": "",
          "type": "address"
        }
      ],
      "stateMutability": "view",
      "type": "function"
    },
    {
      "inputs": [
        {
          "internalType": "address",
          "name": "_delegator",
          "type": "address"
        }
      ],
      "name": "getAvailableDelegatorETH",
      "outputs": [
        {
          "internalType": "uint256",
          "name": "",
          "type": "uint256"
        }
      ],
      "stateMutability": "view",
      "type": "function"
    },
    {
      "inputs": [
        {
          "internalType": "address",
          "name": "_delegator",
          "type": "address"
        }
      ],
      "name": "getAvailableDelegatorReward",
      "outputs": [
        {
          "internalType": "uint256",
          "name": "",
          "type": "uint256"
        }
      ],
      "stateMutability": "view",
      "type": "function"
    },
    {
      "inputs": [],
      "name": "getAvailableReward",
      "outputs": [
        {
          "internalType": "uint256",
          "name": "",
          "type": "uint256"
        }
      ],
      "stateMutability": "view",
      "type": "function"
    },
    {
      "inputs": [],
      "name": "getAvailableWorkerReward",
      "outputs": [
        {
          "internalType": "uint256",
          "name": "",
          "type": "uint256"
        }
      ],
      "stateMutability": "view",
      "type": "function"
    },
    {
      "inputs": [],
      "name": "getCumulativeReward",
      "outputs": [
        {
          "internalType": "uint256",
          "name": "",
          "type": "uint256"
        }
      ],
      "stateMutability": "view",
      "type": "function"
    },
    {
      "inputs": [],
      "name": "getWorkerFraction",
      "outputs": [
        {
          "internalType": "uint256",
          "name": "",
          "type": "uint256"
        }
      ],
      "stateMutability": "view",
      "type": "function"
    },
    {
      "inputs": [
        {
          "internalType": "uint256",
          "name": "_workerFraction",
          "type": "uint256"
        },
        {
          "internalType": "contract StakingInterfaceRouter",
          "name": "_router",
          "type": "address"
        },
        {
          "internalType": "address",
          "name": "_workerOwner",
          "type": "address"
        }
      ],
      "name": "initialize",
      "outputs": [],
      "stateMutability": "nonpayable",
      "type": "function"
    },
    {
      "inputs": [
        {
          "internalType": "contract StakingInterfaceRouter",
          "name": "_router",
          "type": "address"
        }
      ],
      "name": "initialize",
      "outputs": [],
      "stateMutability": "nonpayable",
      "type": "function"
    },
    {
      "inputs": [],
      "name": "isDepositAllowed",
      "outputs": [
        {
          "internalType": "bool",
          "name": "",
          "type": "bool"
        }
      ],
      "stateMutability": "view",
      "type": "function"
    },
    {
      "inputs": [],
      "name": "isFallbackAllowed",
      "outputs": [
        {
          "internalType": "bool",
          "name": "",
          "type": "bool"
        }
      ],
      "stateMutability": "view",
      "type": "function"
    },
    {
      "inputs": [],
      "name": "isOwner",
      "outputs": [
        {
          "internalType": "bool",
          "name": "",
          "type": "bool"
        }
      ],
      "stateMutability": "view",
      "type": "function"
    },
    {
      "inputs": [],
      "name": "isWithdrawAllAllowed",
      "outputs": [
        {
          "internalType": "bool",
          "name": "",
          "type": "bool"
        }
      ],
      "stateMutability": "view",
      "type": "function"
    },
    {
      "inputs": [],
      "name": "owner",
      "outputs": [
        {
          "internalType": "address",
          "name": "",
          "type": "address"
        }
      ],
      "stateMutability": "view",
      "type": "function"
    },
    {
      "inputs": [],
      "name": "renounceOwnership",
      "outputs": [],
      "stateMutability": "nonpayable",
      "type": "function"
    },
    {
      "inputs": [],
      "name": "router",
      "outputs": [
        {
          "internalType": "contract StakingInterfaceRouter",
          "name": "",
          "type": "address"
        }
      ],
      "stateMutability": "view",
      "type": "function"
    },
    {
      "inputs": [
        {
          "internalType": "address",
          "name": "_workerOwner",
          "type": "address"
        }
      ],
      "name": "setWorkerOwner",
      "outputs": [],
      "stateMutability": "nonpayable",
      "type": "function"
    },
    {
      "inputs": [],
      "name": "token",
      "outputs": [
        {
          "internalType": "contract NuCypherToken",
          "name": "",
          "type": "address"
        }
      ],
      "stateMutability": "view",
      "type": "function"
    },
    {
      "inputs": [],
      "name": "totalDepositedTokens",
      "outputs": [
        {
          "internalType": "uint256",
          "name": "",
          "type": "uint256"
        }
      ],
      "stateMutability": "view",
      "type": "function"
    },
    {
      "inputs": [],
      "name": "totalWithdrawnETH",
      "outputs": [
        {
          "internalType": "uint256",
          "name": "",
          "type": "uint256"
        }
      ],
      "stateMutability": "view",
      "type": "function"
    },
    {
      "inputs": [],
      "name": "totalWithdrawnReward",
      "outputs": [
        {
          "internalType": "uint256",
          "name": "",
          "type": "uint256"
        }
      ],
      "stateMutability": "view",
      "type": "function"
    },
    {
      "inputs": [
        {
          "internalType": "address",
          "name": "newOwner",
          "type": "address"
        }
      ],
      "name": "transferOwnership",
      "outputs": [],
      "stateMutability": "nonpayable",
      "type": "function"
    },
    {
      "inputs": [],
      "name": "withdrawAll",
      "outputs": [],
      "stateMutability": "nonpayable",
      "type": "function"
    },
    {
      "inputs": [],
      "name": "withdrawETH",
      "outputs": [],
      "stateMutability": "nonpayable",
      "type": "function"
    },
    {
      "inputs": [
        {
          "internalType": "uint256",
          "name": "_value",
          "type": "uint256"
        }
      ],
      "name": "withdrawTokens",
      "outputs": [],
      "stateMutability": "nonpayable",
      "type": "function"
    },
    {
      "inputs": [],
      "name": "withdrawWorkerReward",
      "outputs": [],
      "stateMutability": "nonpayable",
      "type": "function"
    },
    {
      "inputs": [],
      "name": "workerOwner",
      "outputs": [
        {
          "internalType": "address",
          "name": "",
          "type": "address"
        }
      ],
      "stateMutability": "view",
      "type": "function"
    },
    {
      "inputs": [],
      "name": "workerWithdrawnReward",
      "outputs": [
        {
          "internalType": "uint256",
          "name": "",
          "type": "uint256"
        }
      ],
      "stateMutability": "view",
      "type": "function"
    },
    {
      "stateMutability": "payable",
      "type": "receive"
    }
  ],
  "bytecode": "608060405234801561001057600080fd5b50600280546001600160a01b031916339081179091556040516000907f8be0079c531659141344cd1fd0a4f28419497f9722a3daafe3b4186f6b6457e0908290a3611e65806100606000396000f3fe6080604052600436106101dc5760003560e01c80639212e64311610102578063e086e5ec11610095578063f435d2e511610064578063f435d2e514610630578063f887ea4014610645578063fc0c546a14610669578063fd01266414610689576101e3565b8063e086e5ec146105c6578063e0974ea5146105db578063e2fdcc17146105f0578063f2fde38b14610610576101e3565b8063d330d85b116100d1578063d330d85b1461055b578063d42aa8a71461057b578063dd49756e14610591578063dd934e89146105b1576101e3565b80639212e643146104f1578063b4988fd014610506578063bd4bd9ce14610526578063c4d66de81461053b576101e3565b8063715018a61161017a5780638b713b2e116101495780638b713b2e146104465780638d23fc611461045c5780638da5cb5b146104b35780638f32d59b146104d1576101e3565b8063715018a6146103dc57806383679e91146103f157806384dbfc8514610411578063853828b614610431576101e3565b806331843e25116101b657806331843e251461036457806344cbee0d146103795780634d444fac1461038f578063595b1872146103a4576101e3565b806317a00261146102f45780632dced8871461031e578063315a095d14610342576101e3565b366101e357005b6101eb61069f565b6101f457600080fd5b600080546201000090046001600160a01b03166001600160a01b031663d4b839926040518163ffffffff1660e01b8152600401602060405180830381865afa158015610244573d6000803e3d6000fd5b505050506040513d601f19601f820116820180604052508101906102689190611b9f565b90506001600160a01b0381163b61027e57600080fd5b6000816001600160a01b031660003660405161029b929190611bbc565b600060405180830381855af49150503d80600081146102d6576040519150601f19603f3d011682016040523d82523d6000602084013e6102db565b606091505b5050905080156102ef573d6000803e3d6000f35b600080fd5b34801561030057600080fd5b506103096106cc565b60405190151581526020015b60405180910390f35b34801561032a57600080fd5b5061033460095481565b604051908152602001610315565b34801561034e57600080fd5b5061036261035d366004611bcc565b61073f565b005b34801561037057600080fd5b50600854610334565b34801561038557600080fd5b5061033461271081565b34801561039b57600080fd5b506103096108de565b3480156103b057600080fd5b506004546103c4906001600160a01b031681565b6040516001600160a01b039091168152602001610315565b3480156103e857600080fd5b5061036261096c565b3480156103fd57600080fd5b5061033461040c366004611be5565b6109cd565b34801561041d57600080fd5b5061033461042c366004611be5565b610a83565b34801561043d57600080fd5b50610362610af3565b34801561045257600080fd5b5061033460075481565b34801561046857600080fd5b50610498610477366004611be5565b600a6020526000908152604090208054600182015460029092015490919083565b60408051938452602084019290925290820152606001610315565b3480156104bf57600080fd5b506002546001600160a01b03166103c4565b3480156104dd57600080fd5b506002546001600160a01b03163314610309565b3480156104fd57600080fd5b50610334610e05565b34801561051257600080fd5b50610362610521366004611c02565b610e74565b34801561053257600080fd5b5061030961069f565b34801561054757600080fd5b50610362610556366004611be5565b611039565b34801561056757600080fd5b50610362610576366004611be5565b6111c7565b34801561058757600080fd5b5061033460065481565b34801561059d57600080fd5b506103626105ac366004611bcc565b61122a565b3480156105bd57600080fd5b5061033461136c565b3480156105d257600080fd5b50610362611388565b3480156105e757600080fd5b50610334611472565b3480156105fc57600080fd5b506003546103c4906001600160a01b031681565b34801561061c57600080fd5b5061036261062b366004611be5565b61158a565b34801561063c57600080fd5b506103626115ad565b34801561065157600080fd5b506000546201000090046001600160a01b03166103c4565b34801561067557600080fd5b506001546103c4906001600160a01b031681565b34801561069557600080fd5b5061033460055481565b60006106b36002546001600160a01b031690565b6001600160a01b0316336001600160a01b031614905090565b600354604051630bc5b6f360e11b81523060048201526000916001600160a01b03169063178b6de690602401602060405180830381865afa158015610715573d6000803e3d6000fd5b505050506040513d601f19601f820116820180604052508101906107399190611c44565b15919050565b6001546040516370a0823160e01b81523060048201526000916001600160a01b0316906370a0823190602401602060405180830381865afa158015610788573d6000803e3d6000fd5b505050506040513d601f19601f820116820180604052508101906107ac9190611c44565b9050808211156107d75760405162461bcd60e51b81526004016107ce90611c5d565b60405180910390fd5b336000818152600a60205260408120916107f0906109cd565b90508084111561085e5760405162461bcd60e51b815260206004820152603360248201527f52657175657374656420616d6f756e74206f6620746f6b656e732065786365656044820152723232b21030b63637bbb2b2103837b93a34b7b760691b60648201526084016107ce565b838260010160008282546108729190611cb4565b92505081905550836006600082825461088b9190611cb4565b90915550506001546108a7906001600160a01b03163386611718565b81546040513391600080516020611e10833981519152916108d091888252602082015260400190565b60405180910390a250505050565b6001546040516370a0823160e01b815230600482015260009182916001600160a01b03909116906370a0823190602401602060405180830381865afa15801561092b573d6000803e3d6000fd5b505050506040513d601f19601f8201168201806040525081019061094f9190611c44565b90506109596106cc565b8015610966575060055481145b91505090565b6002546001600160a01b0316331461098357600080fd5b6002546040516000916001600160a01b0316907f8be0079c531659141344cd1fd0a4f28419497f9722a3daafe3b4186f6b6457e0908390a3600280546001600160a01b0319169055565b6000600554600014156109e257506000919050565b60006109ec61136c565b6001600160a01b0384166000908152600a60205260408120919250610a1060085490565b90506000612710600554610a249190611ccc565b610a3083612710611ceb565b8454610a3c9087611ccc565b610a469190611ccc565b610a509190611d02565b90508260010154811115610a77576001830154610a6d9082611ceb565b9695505050505050565b50600095945050505050565b6001600160a01b0381166000908152600a602052604081206007544790610aaa9082611cb4565b6005548354919250600091610abf9084611ccc565b610ac99190611d02565b90506000836002015482610add9190611ceb565b905082811115610aea5750815b95945050505050565b610afb6106cc565b610b5b5760405162461bcd60e51b815260206004820152602b60248201527f5769746864726177206465706f73697420616e6420726577617264206d75737460448201526a08189948195b98589b195960aa1b60648201526084016107ce565b6001546040516370a0823160e01b81523060048201526000916001600160a01b0316906370a0823190602401602060405180830381865afa158015610ba4573d6000803e3d6000fd5b505050506040513d601f19601f82011682018060405250810190610bc89190611c44565b336000818152600a6020526040812092935090610be4906109cd565b8254909150600090610bf69083611cb4565b905083811115610c185760405162461bcd60e51b81526004016107ce90611c5d565b6000610c22610e05565b90506000610c2f33610a83565b6005548654919250600091610c449085611ccc565b610c4e9190611d02565b90508015610cd35786610c618286611cb4565b1115610c7f5760405162461bcd60e51b81526004016107ce90611c5d565b600454600154610c9c916001600160a01b03918216911683611718565b60045460408051838152600060208201526001600160a01b0390921691600080516020611e10833981519152910160405180910390a25b600554865460095460009291610ce891611ccc565b610cf29190611d02565b90508060096000828254610d069190611ceb565b90915550506001870154610d1a9082611cb4565b60066000828254610d2b9190611ceb565b9091555050865460058054600090610d44908490611ceb565b90915550506000600180890182905590885554610d6b906001600160a01b03163387611718565b60408051868152600060208201523391600080516020611e10833981519152910160405180910390a2866002015460076000828254610daa9190611ceb565b9091555050600060028801558215610dfb5760405183815233907f94b2de810873337ed265c5f8cf98c9cffefa06b8607f9a2f1fbaebdfbcfbef1c9060200160405180910390a2610dfb3384611780565b5050505050505050565b600080610e1061136c565b90506000600554600014610e4a576000610e2960085490565b9050612710610e388285611ccc565b610e429190611d02565b915050610e4d565b50805b600954811115610e6b57600954610e649082611ceb565b9250505090565b60009250505090565b600054610100900460ff1680610e8d575060005460ff16155b610ea95760405162461bcd60e51b81526004016107ce90611d24565b600054610100900460ff16158015610ecb576000805461ffff19166101011790555b6001600160a01b03821615801590610ee557506127108411155b610eee57600080fd5b610ef783611039565b610f0033611899565b826001600160a01b031663d4b839926040518163ffffffff1660e01b8152600401602060405180830381865afa158015610f3e573d6000803e3d6000fd5b505050506040513d601f19601f82011682018060405250810190610f629190611b9f565b6001600160a01b031663e2fdcc176040518163ffffffff1660e01b8152600401602060405180830381865afa158015610f9f573d6000803e3d6000fd5b505050506040513d601f19601f82011682018060405250810190610fc39190611b9f565b600380546001600160a01b039283166001600160a01b031991821617909155600886905560048054928516929091168217905560405133907f8e69c3a0200ac71eb0d842c26986baaa25a28aabfee91d144725df5b3190f4cb90600090a38015611033576000805461ff00191690555b50505050565b600054610100900460ff1680611052575060005460ff16155b61106e5760405162461bcd60e51b81526004016107ce90611d24565b600054610100900460ff16158015611090576000805461ffff19166101011790555b81600060026101000a8154816001600160a01b0302191690836001600160a01b031602179055506000826001600160a01b031663d4b839926040518163ffffffff1660e01b8152600401602060405180830381865afa1580156110f7573d6000803e3d6000fd5b505050506040513d601f19601f8201168201806040525081019061111b9190611b9f565b6001600160a01b031663fc0c546a6040518163ffffffff1660e01b8152600401602060405180830381865afa158015611158573d6000803e3d6000fd5b505050506040513d601f19601f8201168201806040525081019061117c9190611b9f565b90506001600160a01b03811661119157600080fd5b600180546001600160a01b0319166001600160a01b039290921691909117905580156111c3576000805461ff00191690555b5050565b6002546001600160a01b031633146111de57600080fd5b600480546001600160a01b0319166001600160a01b03831690811790915560405133907f8e69c3a0200ac71eb0d842c26986baaa25a28aabfee91d144725df5b3190f4cb90600090a350565b6112326108de565b61127e5760405162461bcd60e51b815260206004820152601760248201527f4465706f736974206d75737420626520656e61626c656400000000000000000060448201526064016107ce565b600081116112ce5760405162461bcd60e51b815260206004820152601760248201527f56616c7565206d757374206265206e6f7420656d70747900000000000000000060448201526064016107ce565b80600560008282546112e09190611cb4565b9091555050336000908152600a60205260408120805490918391839190611308908490611cb4565b9091555050600154611325906001600160a01b0316333085611908565b805460405133917ffdfdcf596161b0e81e3161597d46888dcc88bd83b22dcfb341c76377ca3bbc9e9161136091868252602082015260400190565b60405180910390a25050565b6000600654611379611472565b6113839190611cb4565b905090565b336000818152600a60205260408120916113a190610a83565b9050600081116114015760405162461bcd60e51b815260206004820152602560248201527f5468657265206973206e6f20617661696c61626c652045544820746f20776974604482015264686472617760d81b60648201526084016107ce565b808260020160008282546114159190611cb4565b92505081905550806007600082825461142e9190611cb4565b909155505060405181815233907f94b2de810873337ed265c5f8cf98c9cffefa06b8607f9a2f1fbaebdfbcfbef1c9060200160405180910390a26111c33382611780565b600354604051630bc5b6f360e11b815230600482015260009182916001600160a01b039091169063178b6de690602401602060405180830381865afa1580156114bf573d6000803e3d6000fd5b505050506040513d601f19601f820116820180604052508101906114e39190611c44565b6001546040516370a0823160e01b81523060048201529192506000916001600160a01b03909116906370a0823190602401602060405180830381865afa158015611531573d6000803e3d6000fd5b505050506040513d601f19601f820116820180604052508101906115559190611c44565b9050600060055482846115689190611cb4565b6115729190611ceb565b905081811115611583575092915050565b9392505050565b6002546001600160a01b031633146115a157600080fd5b6115aa81611899565b50565b6004546001600160a01b031633146115c457600080fd5b6001546040516370a0823160e01b81523060048201526000916001600160a01b0316906370a0823190602401602060405180830381865afa15801561160d573d6000803e3d6000fd5b505050506040513d601f19601f820116820180604052508101906116319190611c44565b9050600061163d610e05565b90508181111561164a5750805b600081116116ab5760405162461bcd60e51b815260206004820152602860248201527f5468657265206973206e6f20617661696c61626c652072657761726420746f20604482015267776974686472617760c01b60648201526084016107ce565b80600960008282546116bd9190611cb4565b9250508190555080600660008282546116d69190611cb4565b90915550506001546116f2906001600160a01b03163383611718565b60408051828152600060208201523391600080516020611e108339815191529101611360565b6040516001600160a01b03831660248201526044810182905261177b90849063a9059cbb60e01b906064015b60408051601f198184030181529190526020810180516001600160e01b03166001600160e01b031990931692909217909152611940565b505050565b804710156117d05760405162461bcd60e51b815260206004820152601d60248201527f416464726573733a20696e73756666696369656e742062616c616e636500000060448201526064016107ce565b6000826001600160a01b03168260405160006040518083038185875af1925050503d806000811461181d576040519150601f19603f3d011682016040523d82523d6000602084013e611822565b606091505b505090508061177b5760405162461bcd60e51b815260206004820152603a60248201527f416464726573733a20756e61626c6520746f2073656e642076616c75652c207260448201527f6563697069656e74206d6179206861766520726576657274656400000000000060648201526084016107ce565b6001600160a01b0381166118ac57600080fd5b6002546040516001600160a01b038084169216907f8be0079c531659141344cd1fd0a4f28419497f9722a3daafe3b4186f6b6457e090600090a3600280546001600160a01b0319166001600160a01b0392909216919091179055565b6040516001600160a01b03808516602483015283166044820152606481018290526110339085906323b872dd60e01b90608401611744565b6000611995826040518060400160405280602081526020017f5361666545524332303a206c6f772d6c6576656c2063616c6c206661696c6564815250856001600160a01b0316611a129092919063ffffffff16565b80519091501561177b57808060200190518101906119b39190611d72565b61177b5760405162461bcd60e51b815260206004820152602a60248201527f5361666545524332303a204552433230206f7065726174696f6e20646964206e6044820152691bdd081cdd58d8d9595960b21b60648201526084016107ce565b6060611a218484600085611a29565b949350505050565b606082471015611a8a5760405162461bcd60e51b815260206004820152602660248201527f416464726573733a20696e73756666696369656e742062616c616e636520666f6044820152651c8818d85b1b60d21b60648201526084016107ce565b843b611ad85760405162461bcd60e51b815260206004820152601d60248201527f416464726573733a2063616c6c20746f206e6f6e2d636f6e747261637400000060448201526064016107ce565b600080866001600160a01b03168587604051611af49190611dc0565b60006040518083038185875af1925050503d8060008114611b31576040519150601f19603f3d011682016040523d82523d6000602084013e611b36565b606091505b5091509150611b46828286611b51565b979650505050505050565b60608315611b60575081611583565b825115611b705782518084602001fd5b8160405162461bcd60e51b81526004016107ce9190611ddc565b6001600160a01b03811681146115aa57600080fd5b600060208284031215611bb157600080fd5b815161158381611b8a565b8183823760009101908152919050565b600060208284031215611bde57600080fd5b5035919050565b600060208284031215611bf757600080fd5b813561158381611b8a565b600080600060608486031215611c1757600080fd5b833592506020840135611c2981611b8a565b91506040840135611c3981611b8a565b809150509250925092565b600060208284031215611c5657600080fd5b5051919050565b60208082526021908201527f4e6f7420656e6f75676820746f6b656e7320696e2074686520636f6e747261636040820152601d60fa1b606082015260800190565b634e487b7160e01b600052601160045260246000fd5b60008219821115611cc757611cc7611c9e565b500190565b6000816000190483118215151615611ce657611ce6611c9e565b500290565b600082821015611cfd57611cfd611c9e565b500390565b600082611d1f57634e487b7160e01b600052601260045260246000fd5b500490565b6020808252602e908201527f496e697469616c697a61626c653a20636f6e747261637420697320616c72656160408201526d191e481a5b9a5d1a585b1a5e995960921b606082015260800190565b600060208284031215611d8457600080fd5b8151801515811461158357600080fd5b60005b83811015611daf578181015183820152602001611d97565b838111156110335750506000910152565b60008251611dd2818460208701611d94565b9190910192915050565b6020815260008251806020840152611dfb816040850160208701611d94565b601f01601f1916919091016040019291505056feffe903c0abe6b2dbb2f3474ef43d7a3c1fca49e5a774453423ca8e1952aabffaa26469706673582212205110339267ec0e221913f3117af4bf92653ae9f7278c6eeadbdebe555c41463d64736f6c634300080a0033",
  "bytecodeSha1": "eea2a7e013625baa097b0d5269b8507b9cd60166",
  "compiler": {
    "evm_version": "istanbul",
    "optimizer": {
      "enabled": true,
      "runs": 200
    },
    "version": "0.8.10+commit.fc410830"
  },
  "contractName": "PoolingStakingContractV2",
  "language": "Solidity",
  "natspec": {
    "kind": "dev",
    "methods": {
      "BASIS_FRACTION()": {
        "notice": "Defines base fraction and precision of worker fraction. E.g., for a value of 10000, a worker fraction of 100 represents 1% of reward (100/10000)"
      },
      "depositTokens(uint256)": {
        "notice": "Transfer tokens as delegator",
        "params": {
          "_value": "Amount of tokens to transfer"
        }
      },
      "getAvailableDelegatorETH(address)": {
        "notice": "Get available ether for delegator"
      },
      "getAvailableDelegatorReward(address)": {
        "notice": "Get available reward in tokens for delegator"
      },
      "getAvailableReward()": {
        "notice": "Get available reward for all delegators and owner"
      },
      "getAvailableWorkerReward()": {
        "notice": "Get available reward in tokens for worker node owner"
      },
      "getCumulativeReward()": {
        "notice": "Get cumulative reward. Available and withdrawn reward together to use in delegator/owner reward calculations"
      },
      "getWorkerFraction()": {
        "notice": "Calculate worker's fraction depending on deposited tokens Override to implement dynamic worker fraction."
      },
      "initialize(address)": {
        "params": {
          "_router": "Interface router contract address"
        }
      },
      "initialize(uint256,address,address)": {
        "notice": "Initialize function for using with OpenZeppelin proxy",
        "params": {
          "_router": "StakingInterfaceRouter address",
          "_workerFraction": "Share of token reward that worker node owner will get. Use value up to BASIS_FRACTION (10000), if _workerFraction = BASIS_FRACTION -> means 100% reward as commission. For example, 100 worker fraction is 1% of reward",
          "_workerOwner": "Owner of worker node, only this address can withdraw worker commission"
        }
      },
      "isDepositAllowed()": {
        "notice": "deposit() is allowed"
      },
      "isFallbackAllowed()": {
        "notice": "Calling fallback function is allowed only for the owner"
      },
      "isOwner()": {
        "returns": {
          "_0": "true if `msg.sender` is the owner of the contract."
        }
      },
      "isWithdrawAllAllowed()": {
        "notice": "withdrawAll() is allowed"
      },
      "owner()": {
        "returns": {
          "_0": "the address of the owner."
        }
      },
      "renounceOwnership()": {
        "details": "Allows the current owner to relinquish control of the contract.",
        "notice": "Renouncing to ownership will leave the contract without an owner. It will not be possible to call the functions with the `onlyOwner` modifier anymore."
      },
      "router()": {
        "details": "Returns address of StakingInterfaceRouter"
      },
      "setWorkerOwner(address)": {
        "notice": "Set worker owner address"
      },
      "transferOwnership(address)": {
        "details": "Allows the current owner to transfer control of the contract to a newOwner.",
        "params": {
          "newOwner": "The address to transfer ownership to."
        }
      },
      "withdrawAll()": {
        "notice": "Withdraw reward, deposit and fee to delegator"
      },
      "withdrawETH()": {
        "notice": "Withdraw available amount of ETH to delegator"
      },
      "withdrawTokens(uint256)": {
        "notice": "Withdraw reward to delegator",
        "params": {
          "_value": "Amount of tokens to withdraw"
        }
      },
      "withdrawWorkerReward()": {
        "notice": "Withdraw reward in tokens to worker node owner"
      }
    },
    "notice": "Contract acts as delegate for sub-stakers*",
    "version": 1
  },
  "opcodes": "PUSH1 0x80 PUSH1 0x40 MSTORE PUSH1 0x4 CALLDATASIZE LT PUSH2 0x1DC JUMPI PUSH1 0x0 CALLDATALOAD PUSH1 0xE0 SHR DUP1 PUSH4 0x9212E643 GT PUSH2 0x102 JUMPI DUP1 PUSH4 0xE086E5EC GT PUSH2 0x95 JUMPI DUP1 PUSH4 0xF435D2E5 GT PUSH2 0x64 JUMPI DUP1 PUSH4 0xF435D2E5 EQ PUSH2 0x630 JUMPI DUP1 PUSH4 0xF887EA40 EQ PUSH2 0x645 JUMPI DUP1 PUSH4 0xFC0C546A EQ PUSH2 0x669 JUMPI DUP1 PUSH4 0xFD012664 EQ PUSH2 0x689 JUMPI PUSH2 0x1E3 JUMP JUMPDEST DUP1 PUSH4 0xE086E5EC EQ PUSH2 0x5C6 JUMPI DUP1 PUSH4 0xE0974EA5 EQ PUSH2 0x5DB JUMPI DUP1 PUSH4 0xE2FDCC17 EQ PUSH2 0x5F0 JUMPI DUP1 PUSH4 0xF2FDE38B EQ PUSH2 0x610 JUMPI PUSH2 0x1E3 JUMP JUMPDEST DUP1 PUSH4 0xD330D85B GT PUSH2 0xD1 JUMPI DUP1 PUSH4 0xD330D85B EQ PUSH2 0x55B JUMPI DUP1 PUSH4 0xD42AA8A7 EQ PUSH2 0x57B JUMPI DUP1 PUSH4 0xDD49756E EQ PUSH2 0x591 JUMPI DUP1 PUSH4 0xDD934E89 EQ PUSH2 0x5B1 JUMPI PUSH2 0x1E3 JUMP JUMPDEST DUP1 PUSH4 0x9212E643 EQ PUSH2 0x4F1 JUMPI DUP1 PUSH4 0xB4988FD0 EQ PUSH2 0x506 JUMPI DUP1 PUSH4 0xBD4BD9CE EQ PUSH2 0x526 JUMPI DUP1 PUSH4 0xC4D66DE8 EQ PUSH2 0x53B JUMPI PUSH2 0x1E3 JUMP JUMPDEST DUP1 PUSH4 0x715018A6 GT PUSH2 0x17A JUMPI DUP1 PUSH4 0x8B713B2E GT PUSH2 0x149 JUMPI DUP1 PUSH4 0x8B713B2E EQ PUSH2 0x446 JUMPI DUP1 PUSH4 0x8D23FC61 EQ PUSH2 0x45C JUMPI DUP1 PUSH4 0x8DA5CB5B EQ PUSH2 0x4B3 JUMPI DUP1 PUSH4 0x8F32D59B EQ PUSH2 0x4D1 JUMPI PUSH2 0x1E3 JUMP JUMPDEST DUP1 PUSH4 0x715018A6 EQ PUSH2 0x3DC JUMPI DUP1 PUSH4 0x83679E91 EQ PUSH2 0x3F1 JUMPI DUP1 PUSH4 0x84DBFC85 EQ PUSH2 0x411 JUMPI DUP1 PUSH4 0x853828B6 EQ PUSH2 0x431 JUMPI PUSH2 0x1E3 JUMP JUMPDEST DUP1 PUSH4 0x31843E25 GT PUSH2 0x1B6 JUMPI DUP1 PUSH4 0x31843E25 EQ PUSH2 0x364 JUMPI DUP1 PUSH4 0x44CBEE0D EQ PUSH2 0x379 JUMPI DUP1 PUSH4 0x4D444FAC EQ PUSH2 0x38F JUMPI DUP1 PUSH4 0x595B1872 EQ PUSH2 0x3A4 JUMPI PUSH2 0x1E3 JUMP JUMPDEST DUP1 PUSH4 0x17A00261 EQ PUSH2 0x2F4 JUMPI DUP1 PUSH4 0x2DCED887 EQ PUSH2 0x31E JUMPI DUP1 PUSH4 0x315A095D EQ PUSH2 0x342 JUMPI PUSH2 0x1E3 JUMP JUMPDEST CALLDATASIZE PUSH2 0x1E3 JUMPI STOP JUMPDEST PUSH2 0x1EB PUSH2 0x69F JUMP JUMPDEST PUSH2 0x1F4 JUMPI PUSH1 0x0 DUP1 REVERT JUMPDEST PUSH1 0x0 DUP1 SLOAD PUSH3 0x10000 SWAP1 DIV PUSH1 0x1 PUSH1 0x1 PUSH1 0xA0 SHL SUB AND PUSH1 0x1 PUSH1 0x1 PUSH1 0xA0 SHL SUB AND PUSH4 0xD4B83992 PUSH1 0x40 MLOAD DUP2 PUSH4 0xFFFFFFFF AND PUSH1 0xE0 SHL DUP2 MSTORE PUSH1 0x4 ADD PUSH1 0x20 PUSH1 0x40 MLOAD DUP1 DUP4 SUB DUP2 DUP7 GAS STATICCALL ISZERO DUP1 ISZERO PUSH2 0x244 JUMPI RETURNDATASIZE PUSH1 0x0 DUP1 RETURNDATACOPY RETURNDATASIZE PUSH1 0x0 REVERT JUMPDEST POP POP POP POP PUSH1 0x40 MLOAD RETURNDATASIZE PUSH1 0x1F NOT PUSH1 0x1F DUP3 ADD AND DUP3 ADD DUP1 PUSH1 0x40 MSTORE POP DUP2 ADD SWAP1 PUSH2 0x268 SWAP2 SWAP1 PUSH2 0x1B9F JUMP JUMPDEST SWAP1 POP PUSH1 0x1 PUSH1 0x1 PUSH1 0xA0 SHL SUB DUP2 AND EXTCODESIZE PUSH2 0x27E JUMPI PUSH1 0x0 DUP1 REVERT JUMPDEST PUSH1 0x0 DUP2 PUSH1 0x1 PUSH1 0x1 PUSH1 0xA0 SHL SUB AND PUSH1 0x0 CALLDATASIZE PUSH1 0x40 MLOAD PUSH2 0x29B SWAP3 SWAP2 SWAP1 PUSH2 0x1BBC JUMP JUMPDEST PUSH1 0x0 PUSH1 0x40 MLOAD DUP1 DUP4 SUB DUP2 DUP6 GAS DELEGATECALL SWAP2 POP POP RETURNDATASIZE DUP1 PUSH1 0x0 DUP2 EQ PUSH2 0x2D6 JUMPI PUSH1 0x40 MLOAD SWAP2 POP PUSH1 0x1F NOT PUSH1 0x3F RETURNDATASIZE ADD AND DUP3 ADD PUSH1 0x40 MSTORE RETURNDATASIZE DUP3 MSTORE RETURNDATASIZE PUSH1 0x0 PUSH1 0x20 DUP5 ADD RETURNDATACOPY PUSH2 0x2DB JUMP JUMPDEST PUSH1 0x60 SWAP2 POP JUMPDEST POP POP SWAP1 POP DUP1 ISZERO PUSH2 0x2EF JUMPI RETURNDATASIZE PUSH1 0x0 DUP1 RETURNDATACOPY RETURNDATASIZE PUSH1 0x0 RETURN JUMPDEST PUSH1 0x0 DUP1 REVERT JUMPDEST CALLVALUE DUP1 ISZERO PUSH2 0x300 JUMPI PUSH1 0x0 DUP1 REVERT JUMPDEST POP PUSH2 0x309 PUSH2 0x6CC JUMP JUMPDEST PUSH1 0x40 MLOAD SWAP1 ISZERO ISZERO DUP2 MSTORE PUSH1 0x20 ADD JUMPDEST PUSH1 0x40 MLOAD DUP1 SWAP2 SUB SWAP1 RETURN JUMPDEST CALLVALUE DUP1 ISZERO PUSH2 0x32A JUMPI PUSH1 0x0 DUP1 REVERT JUMPDEST POP PUSH2 0x334 PUSH1 0x9 SLOAD DUP2 JUMP JUMPDEST PUSH1 0x40 MLOAD SWAP1 DUP2 MSTORE PUSH1 0x20 ADD PUSH2 0x315 JUMP JUMPDEST CALLVALUE DUP1 ISZERO PUSH2 0x34E JUMPI PUSH1 0x0 DUP1 REVERT JUMPDEST POP PUSH2 0x362 PUSH2 0x35D CALLDATASIZE PUSH1 0x4 PUSH2 0x1BCC JUMP JUMPDEST PUSH2 0x73F JUMP JUMPDEST STOP JUMPDEST CALLVALUE DUP1 ISZERO PUSH2 0x370 JUMPI PUSH1 0x0 DUP1 REVERT JUMPDEST POP PUSH1 0x8 SLOAD PUSH2 0x334 JUMP JUMPDEST CALLVALUE DUP1 ISZERO PUSH2 0x385 JUMPI PUSH1 0x0 DUP1 REVERT JUMPDEST POP PUSH2 0x334 PUSH2 0x2710 DUP2 JUMP JUMPDEST CALLVALUE DUP1 ISZERO PUSH2 0x39B JUMPI PUSH1 0x0 DUP1 REVERT JUMPDEST POP PUSH2 0x309 PUSH2 0x8DE JUMP JUMPDEST CALLVALUE DUP1 ISZERO PUSH2 0x3B0 JUMPI PUSH1 0x0 DUP1 REVERT JUMPDEST POP PUSH1 0x4 SLOAD PUSH2 0x3C4 SWAP1 PUSH1 0x1 PUSH1 0x1 PUSH1 0xA0 SHL SUB AND DUP2 JUMP JUMPDEST PUSH1 0x40 MLOAD PUSH1 0x1 PUSH1 0x1 PUSH1 0xA0 SHL SUB SWAP1 SWAP2 AND DUP2 MSTORE PUSH1 0x20 ADD PUSH2 0x315 JUMP JUMPDEST CALLVALUE DUP1 ISZERO PUSH2 0x3E8 JUMPI PUSH1 0x0 DUP1 REVERT JUMPDEST POP PUSH2 0x362 PUSH2 0x96C JUMP JUMPDEST CALLVALUE DUP1 ISZERO PUSH2 0x3FD JUMPI PUSH1 0x0 DUP1 REVERT JUMPDEST POP PUSH2 0x334 PUSH2 0x40C CALLDATASIZE PUSH1 0x4 PUSH2 0x1BE5 JUMP JUMPDEST PUSH2 0x9CD JUMP JUMPDEST CALLVALUE DUP1 ISZERO PUSH2 0x41D JUMPI PUSH1 0x0 DUP1 REVERT JUMPDEST POP PUSH2 0x334 PUSH2 0x42C CALLDATASIZE PUSH1 0x4 PUSH2 0x1BE5 JUMP JUMPDEST PUSH2 0xA83 JUMP JUMPDEST CALLVALUE DUP1 ISZERO PUSH2 0x43D JUMPI PUSH1 0x0 DUP1 REVERT JUMPDEST POP PUSH2 0x362 PUSH2 0xAF3 JUMP JUMPDEST CALLVALUE DUP1 ISZERO PUSH2 0x452 JUMPI PUSH1 0x0 DUP1 REVERT JUMPDEST POP PUSH2 0x334 PUSH1 0x7 SLOAD DUP2 JUMP JUMPDEST CALLVALUE DUP1 ISZERO PUSH2 0x468 JUMPI PUSH1 0x0 DUP1 REVERT JUMPDEST POP PUSH2 0x498 PUSH2 0x477 CALLDATASIZE PUSH1 0x4 PUSH2 0x1BE5 JUMP JUMPDEST PUSH1 0xA PUSH1 0x20 MSTORE PUSH1 0x0 SWAP1 DUP2 MSTORE PUSH1 0x40 SWAP1 KECCAK256 DUP1 SLOAD PUSH1 0x1 DUP3 ADD SLOAD PUSH1 0x2 SWAP1 SWAP3 ADD SLOAD SWAP1 SWAP2 SWAP1 DUP4 JUMP JUMPDEST PUSH1 0x40 DUP1 MLOAD SWAP4 DUP5 MSTORE PUSH1 0x20 DUP5 ADD SWAP3 SWAP1 SWAP3 MSTORE SWAP1 DUP3 ADD MSTORE PUSH1 0x60 ADD PUSH2 0x315 JUMP JUMPDEST CALLVALUE DUP1 ISZERO PUSH2 0x4BF JUMPI PUSH1 0x0 DUP1 REVERT JUMPDEST POP PUSH1 0x2 SLOAD PUSH1 0x1 PUSH1 0x1 PUSH1 0xA0 SHL SUB AND PUSH2 0x3C4 JUMP JUMPDEST CALLVALUE DUP1 ISZERO PUSH2 0x4DD JUMPI PUSH1 0x0 DUP1 REVERT JUMPDEST POP PUSH1 0x2 SLOAD PUSH1 0x1 PUSH1 0x1 PUSH1 0xA0 SHL SUB AND CALLER EQ PUSH2 0x309 JUMP JUMPDEST CALLVALUE DUP1 ISZERO PUSH2 0x4FD JUMPI PUSH1 0x0 DUP1 REVERT JUMPDEST POP PUSH2 0x334 PUSH2 0xE05 JUMP JUMPDEST CALLVALUE DUP1 ISZERO PUSH2 0x512 JUMPI PUSH1 0x0 DUP1 REVERT JUMPDEST POP PUSH2 0x362 PUSH2 0x521 CALLDATASIZE PUSH1 0x4 PUSH2 0x1C02 JUMP JUMPDEST PUSH2 0xE74 JUMP JUMPDEST CALLVALUE DUP1 ISZERO PUSH2 0x532 JUMPI PUSH1 0x0 DUP1 REVERT JUMPDEST POP PUSH2 0x309 PUSH2 0x69F JUMP JUMPDEST CALLVALUE DUP1 ISZERO PUSH2 0x547 JUMPI PUSH1 0x0 DUP1 REVERT JUMPDEST POP PUSH2 0x362 PUSH2 0x556 CALLDATASIZE PUSH1 0x4 PUSH2 0x1BE5 JUMP JUMPDEST PUSH2 0x1039 JUMP JUMPDEST CALLVALUE DUP1 ISZERO PUSH2 0x567 JUMPI PUSH1 0x0 DUP1 REVERT JUMPDEST POP PUSH2 0x362 PUSH2 0x576 CALLDATASIZE PUSH1 0x4 PUSH2 0x1BE5 JUMP JUMPDEST PUSH2 0x11C7 JUMP JUMPDEST CALLVALUE DUP1 ISZERO PUSH2 0x587 JUMPI PUSH1 0x0 DUP1 REVERT JUMPDEST POP PUSH2 0x334 PUSH1 0x6 SLOAD DUP2 JUMP JUMPDEST CALLVALUE DUP1 ISZERO PUSH2 0x59D JUMPI PUSH1 0x0 DUP1 REVERT JUMPDEST POP PUSH2 0x362 PUSH2 0x5AC CALLDATASIZE PUSH1 0x4 PUSH2 0x1BCC JUMP JUMPDEST PUSH2 0x122A JUMP JUMPDEST CALLVALUE DUP1 ISZERO PUSH2 0x5BD JUMPI PUSH1 0x0 DUP1 REVERT JUMPDEST POP PUSH2 0x334 PUSH2 0x136C JUMP JUMPDEST CALLVALUE DUP1 ISZERO PUSH2 0x5D2 JUMPI PUSH1 0x0 DUP1 REVERT JUMPDEST POP PUSH2 0x362 PUSH2 0x1388 JUMP JUMPDEST CALLVALUE DUP1 ISZERO PUSH2 0x5E7 JUMPI PUSH1 0x0 DUP1 REVERT JUMPDEST POP PUSH2 0x334 PUSH2 0x1472 JUMP JUMPDEST CALLVALUE DUP1 ISZERO PUSH2 0x5FC JUMPI PUSH1 0x0 DUP1 REVERT JUMPDEST POP PUSH1 0x3 SLOAD PUSH2 0x3C4 SWAP1 PUSH1 0x1 PUSH1 0x1 PUSH1 0xA0 SHL SUB AND DUP2 JUMP JUMPDEST CALLVALUE DUP1 ISZERO PUSH2 0x61C JUMPI PUSH1 0x0 DUP1 REVERT JUMPDEST POP PUSH2 0x362 PUSH2 0x62B CALLDATASIZE PUSH1 0x4 PUSH2 0x1BE5 JUMP JUMPDEST PUSH2 0x158A JUMP JUMPDEST CALLVALUE DUP1 ISZERO PUSH2 0x63C JUMPI PUSH1 0x0 DUP1 REVERT JUMPDEST POP PUSH2 0x362 PUSH2 0x15AD JUMP JUMPDEST CALLVALUE DUP1 ISZERO PUSH2 0x651 JUMPI PUSH1 0x0 DUP1 REVERT JUMPDEST POP PUSH1 0x0 SLOAD PUSH3 0x10000 SWAP1 DIV PUSH1 0x1 PUSH1 0x1 PUSH1 0xA0 SHL SUB AND PUSH2 0x3C4 JUMP JUMPDEST CALLVALUE DUP1 ISZERO PUSH2 0x675 JUMPI PUSH1 0x0 DUP1 REVERT JUMPDEST POP PUSH1 0x1 SLOAD PUSH2 0x3C4 SWAP1 PUSH1 0x1 PUSH1 0x1 PUSH1 0xA0 SHL SUB AND DUP2 JUMP JUMPDEST CALLVALUE DUP1 ISZERO PUSH2 0x695 JUMPI PUSH1 0x0 DUP1 REVERT JUMPDEST POP PUSH2 0x334 PUSH1 0x5 SLOAD DUP2 JUMP JUMPDEST PUSH1 0x0 PUSH2 0x6B3 PUSH1 0x2 SLOAD PUSH1 0x1 PUSH1 0x1 PUSH1 0xA0 SHL SUB AND SWAP1 JUMP JUMPDEST PUSH1 0x1 PUSH1 0x1 PUSH1 0xA0 SHL SUB AND CALLER PUSH1 0x1 PUSH1 0x1 PUSH1 0xA0 SHL SUB AND EQ SWAP1 POP SWAP1 JUMP JUMPDEST PUSH1 0x3 SLOAD PUSH1 0x40 MLOAD PUSH4 0xBC5B6F3 PUSH1 0xE1 SHL DUP2 MSTORE ADDRESS PUSH1 0x4 DUP3 ADD MSTORE PUSH1 0x0 SWAP2 PUSH1 0x1 PUSH1 0x1 PUSH1 0xA0 SHL SUB AND SWAP1 PUSH4 0x178B6DE6 SWAP1 PUSH1 0x24 ADD PUSH1 0x20 PUSH1 0x40 MLOAD DUP1 DUP4 SUB DUP2 DUP7 GAS STATICCALL ISZERO DUP1 ISZERO PUSH2 0x715 JUMPI RETURNDATASIZE PUSH1 0x0 DUP1 RETURNDATACOPY RETURNDATASIZE PUSH1 0x0 REVERT JUMPDEST POP POP POP POP PUSH1 0x40 MLOAD RETURNDATASIZE PUSH1 0x1F NOT PUSH1 0x1F DUP3 ADD AND DUP3 ADD DUP1 PUSH1 0x40 MSTORE POP DUP2 ADD SWAP1 PUSH2 0x739 SWAP2 SWAP1 PUSH2 0x1C44 JUMP JUMPDEST ISZERO SWAP2 SWAP1 POP JUMP JUMPDEST PUSH1 0x1 SLOAD PUSH1 0x40 MLOAD PUSH4 0x70A08231 PUSH1 0xE0 SHL DUP2 MSTORE ADDRESS PUSH1 0x4 DUP3 ADD MSTORE PUSH1 0x0 SWAP2 PUSH1 0x1 PUSH1 0x1 PUSH1 0xA0 SHL SUB AND SWAP1 PUSH4 0x70A08231 SWAP1 PUSH1 0x24 ADD PUSH1 0x20 PUSH1 0x40 MLOAD DUP1 DUP4 SUB DUP2 DUP7 GAS STATICCALL ISZERO DUP1 ISZERO PUSH2 0x788 JUMPI RETURNDATASIZE PUSH1 0x0 DUP1 RETURNDATACOPY RETURNDATASIZE PUSH1 0x0 REVERT JUMPDEST POP POP POP POP PUSH1 0x40 MLOAD RETURNDATASIZE PUSH1 0x1F NOT PUSH1 0x1F DUP3 ADD AND DUP3 ADD DUP1 PUSH1 0x40 MSTORE POP DUP2 ADD SWAP1 PUSH2 0x7AC SWAP2 SWAP1 PUSH2 0x1C44 JUMP JUMPDEST SWAP1 POP DUP1 DUP3 GT ISZERO PUSH2 0x7D7 JUMPI PUSH1 0x40 MLOAD PUSH3 0x461BCD PUSH1 0xE5 SHL DUP2 MSTORE PUSH1 0x4 ADD PUSH2 0x7CE SWAP1 PUSH2 0x1C5D JUMP JUMPDEST PUSH1 0x40 MLOAD DUP1 SWAP2 SUB SWAP1 REVERT JUMPDEST CALLER PUSH1 0x0 DUP2 DUP2 MSTORE PUSH1 0xA PUSH1 0x20 MSTORE PUSH1 0x40 DUP2 KECCAK256 SWAP2 PUSH2 0x7F0 SWAP1 PUSH2 0x9CD JUMP JUMPDEST SWAP1 POP DUP1 DUP5 GT ISZERO PUSH2 0x85E JUMPI PUSH1 0x40 MLOAD PUSH3 0x461BCD PUSH1 0xE5 SHL DUP2 MSTORE PUSH1 0x20 PUSH1 0x4 DUP3 ADD MSTORE PUSH1 0x33 PUSH1 0x24 DUP3 ADD MSTORE PUSH32 0x52657175657374656420616D6F756E74206F6620746F6B656E73206578636565 PUSH1 0x44 DUP3 ADD MSTORE PUSH19 0x3232B21030B63637BBB2B2103837B93A34B7B7 PUSH1 0x69 SHL PUSH1 0x64 DUP3 ADD MSTORE PUSH1 0x84 ADD PUSH2 0x7CE JUMP JUMPDEST DUP4 DUP3 PUSH1 0x1 ADD PUSH1 0x0 DUP3 DUP3 SLOAD PUSH2 0x872 SWAP2 SWAP1 PUSH2 0x1CB4 JUMP JUMPDEST SWAP3 POP POP DUP2 SWAP1 SSTORE POP DUP4 PUSH1 0x6 PUSH1 0x0 DUP3 DUP3 SLOAD PUSH2 0x88B SWAP2 SWAP1 PUSH2 0x1CB4 JUMP JUMPDEST SWAP1 SWAP2 SSTORE POP POP PUSH1 0x1 SLOAD PUSH2 0x8A7 SWAP1 PUSH1 0x1 PUSH1 0x1 PUSH1 0xA0 SHL SUB AND CALLER DUP7 PUSH2 0x1718 JUMP JUMPDEST DUP2 SLOAD PUSH1 0x40 MLOAD CALLER SWAP2 PUSH1 0x0 DUP1 MLOAD PUSH1 0x20 PUSH2 0x1E10 DUP4 CODECOPY DUP2 MLOAD SWAP2 MSTORE SWAP2 PUSH2 0x8D0 SWAP2 DUP9 DUP3 MSTORE PUSH1 0x20 DUP3 ADD MSTORE PUSH1 0x40 ADD SWAP1 JUMP JUMPDEST PUSH1 0x40 MLOAD DUP1 SWAP2 SUB SWAP1 LOG2 POP POP POP POP JUMP JUMPDEST PUSH1 0x1 SLOAD PUSH1 0x40 MLOAD PUSH4 0x70A08231 PUSH1 0xE0 SHL DUP2 MSTORE ADDRESS PUSH1 0x4 DUP3 ADD MSTORE PUSH1 0x0 SWAP2 DUP3 SWAP2 PUSH1 0x1 PUSH1 0x1 PUSH1 0xA0 SHL SUB SWAP1 SWAP2 AND SWAP1 PUSH4 0x70A08231 SWAP1 PUSH1 0x24 ADD PUSH1 0x20 PUSH1 0x40 MLOAD DUP1 DUP4 SUB DUP2 DUP7 GAS STATICCALL ISZERO DUP1 ISZERO PUSH2 0x92B JUMPI RETURNDATASIZE PUSH1 0x0 DUP1 RETURNDATACOPY RETURNDATASIZE PUSH1 0x0 REVERT JUMPDEST POP POP POP POP PUSH1 0x40 MLOAD RETURNDATASIZE PUSH1 0x1F NOT PUSH1 0x1F DUP3 ADD AND DUP3 ADD DUP1 PUSH1 0x40 MSTORE POP DUP2 ADD SWAP1 PUSH2 0x94F SWAP2 SWAP1 PUSH2 0x1C44 JUMP JUMPDEST SWAP1 POP PUSH2 0x959 PUSH2 0x6CC JUMP JUMPDEST DUP1 ISZERO PUSH2 0x966 JUMPI POP PUSH1 0x5 SLOAD DUP2 EQ JUMPDEST SWAP2 POP POP SWAP1 JUMP JUMPDEST PUSH1 0x2 SLOAD PUSH1 0x1 PUSH1 0x1 PUSH1 0xA0 SHL SUB AND CALLER EQ PUSH2 0x983 JUMPI PUSH1 0x0 DUP1 REVERT JUMPDEST PUSH1 0x2 SLOAD PUSH1 0x40 MLOAD PUSH1 0x0 SWAP2 PUSH1 0x1 PUSH1 0x1 PUSH1 0xA0 SHL SUB AND SWAP1 PUSH32 0x8BE0079C531659141344CD1FD0A4F28419497F9722A3DAAFE3B4186F6B6457E0 SWAP1 DUP4 SWAP1 LOG3 PUSH1 0x2 DUP1 SLOAD PUSH1 0x1 PUSH1 0x1 PUSH1 0xA0 SHL SUB NOT AND SWAP1 SSTORE JUMP JUMPDEST PUSH1 0x0 PUSH1 0x5 SLOAD PUSH1 0x0 EQ ISZERO PUSH2 0x9E2 JUMPI POP PUSH1 0x0 SWAP2 SWAP1 POP JUMP JUMPDEST PUSH1 0x0 PUSH2 0x9EC PUSH2 0x136C JUMP JUMPDEST PUSH1 0x1 PUSH1 0x1 PUSH1 0xA0 SHL SUB DUP5 AND PUSH1 0x0 SWAP1 DUP2 MSTORE PUSH1 0xA PUSH1 0x20 MSTORE PUSH1 0x40 DUP2 KECCAK256 SWAP2 SWAP3 POP PUSH2 0xA10 PUSH1 0x8 SLOAD SWAP1 JUMP JUMPDEST SWAP1 POP PUSH1 0x0 PUSH2 0x2710 PUSH1 0x5 SLOAD PUSH2 0xA24 SWAP2 SWAP1 PUSH2 0x1CCC JUMP JUMPDEST PUSH2 0xA30 DUP4 PUSH2 0x2710 PUSH2 0x1CEB JUMP JUMPDEST DUP5 SLOAD PUSH2 0xA3C SWAP1 DUP8 PUSH2 0x1CCC JUMP JUMPDEST PUSH2 0xA46 SWAP2 SWAP1 PUSH2 0x1CCC JUMP JUMPDEST PUSH2 0xA50 SWAP2 SWAP1 PUSH2 0x1D02 JUMP JUMPDEST SWAP1 POP DUP3 PUSH1 0x1 ADD SLOAD DUP2 GT ISZERO PUSH2 0xA77 JUMPI PUSH1 0x1 DUP4 ADD SLOAD PUSH2 0xA6D SWAP1 DUP3 PUSH2 0x1CEB JUMP JUMPDEST SWAP7 SWAP6 POP POP POP POP POP POP JUMP JUMPDEST POP PUSH1 0x0 SWAP6 SWAP5 POP POP POP POP POP JUMP JUMPDEST PUSH1 0x1 PUSH1 0x1 PUSH1 0xA0 SHL SUB DUP2 AND PUSH1 0x0 SWAP1 DUP2 MSTORE PUSH1 0xA PUSH1 0x20 MSTORE PUSH1 0x40 DUP2 KECCAK256 PUSH1 0x7 SLOAD SELFBALANCE SWAP1 PUSH2 0xAAA SWAP1 DUP3 PUSH2 0x1CB4 JUMP JUMPDEST PUSH1 0x5 SLOAD DUP4 SLOAD SWAP2 SWAP3 POP PUSH1 0x0 SWAP2 PUSH2 0xABF SWAP1 DUP5 PUSH2 0x1CCC JUMP JUMPDEST PUSH2 0xAC9 SWAP2 SWAP1 PUSH2 0x1D02 JUMP JUMPDEST SWAP1 POP PUSH1 0x0 DUP4 PUSH1 0x2 ADD SLOAD DUP3 PUSH2 0xADD SWAP2 SWAP1 PUSH2 0x1CEB JUMP JUMPDEST SWAP1 POP DUP3 DUP2 GT ISZERO PUSH2 0xAEA JUMPI POP DUP2 JUMPDEST SWAP6 SWAP5 POP POP POP POP POP JUMP JUMPDEST PUSH2 0xAFB PUSH2 0x6CC JUMP JUMPDEST PUSH2 0xB5B JUMPI PUSH1 0x40 MLOAD PUSH3 0x461BCD PUSH1 0xE5 SHL DUP2 MSTORE PUSH1 0x20 PUSH1 0x4 DUP3 ADD MSTORE PUSH1 0x2B PUSH1 0x24 DUP3 ADD MSTORE PUSH32 0x5769746864726177206465706F73697420616E6420726577617264206D757374 PUSH1 0x44 DUP3 ADD MSTORE PUSH11 0x8189948195B98589B1959 PUSH1 0xAA SHL PUSH1 0x64 DUP3 ADD MSTORE PUSH1 0x84 ADD PUSH2 0x7CE JUMP JUMPDEST PUSH1 0x1 SLOAD PUSH1 0x40 MLOAD PUSH4 0x70A08231 PUSH1 0xE0 SHL DUP2 MSTORE ADDRESS PUSH1 0x4 DUP3 ADD MSTORE PUSH1 0x0 SWAP2 PUSH1 0x1 PUSH1 0x1 PUSH1 0xA0 SHL SUB AND SWAP1 PUSH4 0x70A08231 SWAP1 PUSH1 0x24 ADD PUSH1 0x20 PUSH1 0x40 MLOAD DUP1 DUP4 SUB DUP2 DUP7 GAS STATICCALL ISZERO DUP1 ISZERO PUSH2 0xBA4 JUMPI RETURNDATASIZE PUSH1 0x0 DUP1 RETURNDATACOPY RETURNDATASIZE PUSH1 0x0 REVERT JUMPDEST POP POP POP POP PUSH1 0x40 MLOAD RETURNDATASIZE PUSH1 0x1F NOT PUSH1 0x1F DUP3 ADD AND DUP3 ADD DUP1 PUSH1 0x40 MSTORE POP DUP2 ADD SWAP1 PUSH2 0xBC8 SWAP2 SWAP1 PUSH2 0x1C44 JUMP JUMPDEST CALLER PUSH1 0x0 DUP2 DUP2 MSTORE PUSH1 0xA PUSH1 0x20 MSTORE PUSH1 0x40 DUP2 KECCAK256 SWAP3 SWAP4 POP SWAP1 PUSH2 0xBE4 SWAP1 PUSH2 0x9CD JUMP JUMPDEST DUP3 SLOAD SWAP1 SWAP2 POP PUSH1 0x0 SWAP1 PUSH2 0xBF6 SWAP1 DUP4 PUSH2 0x1CB4 JUMP JUMPDEST SWAP1 POP DUP4 DUP2 GT ISZERO PUSH2 0xC18 JUMPI PUSH1 0x40 MLOAD PUSH3 0x461BCD PUSH1 0xE5 SHL DUP2 MSTORE PUSH1 0x4 ADD PUSH2 0x7CE SWAP1 PUSH2 0x1C5D JUMP JUMPDEST PUSH1 0x0 PUSH2 0xC22 PUSH2 0xE05 JUMP JUMPDEST SWAP1 POP PUSH1 0x0 PUSH2 0xC2F CALLER PUSH2 0xA83 JUMP JUMPDEST PUSH1 0x5 SLOAD DUP7 SLOAD SWAP2 SWAP3 POP PUSH1 0x0 SWAP2 PUSH2 0xC44 SWAP1 DUP6 PUSH2 0x1CCC JUMP JUMPDEST PUSH2 0xC4E SWAP2 SWAP1 PUSH2 0x1D02 JUMP JUMPDEST SWAP1 POP DUP1 ISZERO PUSH2 0xCD3 JUMPI DUP7 PUSH2 0xC61 DUP3 DUP7 PUSH2 0x1CB4 JUMP JUMPDEST GT ISZERO PUSH2 0xC7F JUMPI PUSH1 0x40 MLOAD PUSH3 0x461BCD PUSH1 0xE5 SHL DUP2 MSTORE PUSH1 0x4 ADD PUSH2 0x7CE SWAP1 PUSH2 0x1C5D JUMP JUMPDEST PUSH1 0x4 SLOAD PUSH1 0x1 SLOAD PUSH2 0xC9C SWAP2 PUSH1 0x1 PUSH1 0x1 PUSH1 0xA0 SHL SUB SWAP2 DUP3 AND SWAP2 AND DUP4 PUSH2 0x1718 JUMP JUMPDEST PUSH1 0x4 SLOAD PUSH1 0x40 DUP1 MLOAD DUP4 DUP2 MSTORE PUSH1 0x0 PUSH1 0x20 DUP3 ADD MSTORE PUSH1 0x1 PUSH1 0x1 PUSH1 0xA0 SHL SUB SWAP1 SWAP3 AND SWAP2 PUSH1 0x0 DUP1 MLOAD PUSH1 0x20 PUSH2 0x1E10 DUP4 CODECOPY DUP2 MLOAD SWAP2 MSTORE SWAP2 ADD PUSH1 0x40 MLOAD DUP1 SWAP2 SUB SWAP1 LOG2 JUMPDEST PUSH1 0x5 SLOAD DUP7 SLOAD PUSH1 0x9 SLOAD PUSH1 0x0 SWAP3 SWAP2 PUSH2 0xCE8 SWAP2 PUSH2 0x1CCC JUMP JUMPDEST PUSH2 0xCF2 SWAP2 SWAP1 PUSH2 0x1D02 JUMP JUMPDEST SWAP1 POP DUP1 PUSH1 0x9 PUSH1 0x0 DUP3 DUP3 SLOAD PUSH2 0xD06 SWAP2 SWAP1 PUSH2 0x1CEB JUMP JUMPDEST SWAP1 SWAP2 SSTORE POP POP PUSH1 0x1 DUP8 ADD SLOAD PUSH2 0xD1A SWAP1 DUP3 PUSH2 0x1CB4 JUMP JUMPDEST PUSH1 0x6 PUSH1 0x0 DUP3 DUP3 SLOAD PUSH2 0xD2B SWAP2 SWAP1 PUSH2 0x1CEB JUMP JUMPDEST SWAP1 SWAP2 SSTORE POP POP DUP7 SLOAD PUSH1 0x5 DUP1 SLOAD PUSH1 0x0 SWAP1 PUSH2 0xD44 SWAP1 DUP5 SWAP1 PUSH2 0x1CEB JUMP JUMPDEST SWAP1 SWAP2 SSTORE POP POP PUSH1 0x0 PUSH1 0x1 DUP1 DUP10 ADD DUP3 SWAP1 SSTORE SWAP1 DUP9 SSTORE SLOAD PUSH2 0xD6B SWAP1 PUSH1 0x1 PUSH1 0x1 PUSH1 0xA0 SHL SUB AND CALLER DUP8 PUSH2 0x1718 JUMP JUMPDEST PUSH1 0x40 DUP1 MLOAD DUP7 DUP2 MSTORE PUSH1 0x0 PUSH1 0x20 DUP3 ADD MSTORE CALLER SWAP2 PUSH1 0x0 DUP1 MLOAD PUSH1 0x20 PUSH2 0x1E10 DUP4 CODECOPY DUP2 MLOAD SWAP2 MSTORE SWAP2 ADD PUSH1 0x40 MLOAD DUP1 SWAP2 SUB SWAP1 LOG2 DUP7 PUSH1 0x2 ADD SLOAD PUSH1 0x7 PUSH1 0x0 DUP3 DUP3 SLOAD PUSH2 0xDAA SWAP2 SWAP1 PUSH2 0x1CEB JUMP JUMPDEST SWAP1 SWAP2 SSTORE POP POP PUSH1 0x0 PUSH1 0x2 DUP9 ADD SSTORE DUP3 ISZERO PUSH2 0xDFB JUMPI PUSH1 0x40 MLOAD DUP4 DUP2 MSTORE CALLER SWAP1 PUSH32 0x94B2DE810873337ED265C5F8CF98C9CFFEFA06B8607F9A2F1FBAEBDFBCFBEF1C SWAP1 PUSH1 0x20 ADD PUSH1 0x40 MLOAD DUP1 SWAP2 SUB SWAP1 LOG2 PUSH2 0xDFB CALLER DUP5 PUSH2 0x1780 JUMP JUMPDEST POP POP POP POP POP POP POP POP JUMP JUMPDEST PUSH1 0x0 DUP1 PUSH2 0xE10 PUSH2 0x136C JUMP JUMPDEST SWAP1 POP PUSH1 0x0 PUSH1 0x5 SLOAD PUSH1 0x0 EQ PUSH2 0xE4A JUMPI PUSH1 0x0 PUSH2 0xE29 PUSH1 0x8 SLOAD SWAP1 JUMP JUMPDEST SWAP1 POP PUSH2 0x2710 PUSH2 0xE38 DUP3 DUP6 PUSH2 0x1CCC JUMP JUMPDEST PUSH2 0xE42 SWAP2 SWAP1 PUSH2 0x1D02 JUMP JUMPDEST SWAP2 POP POP PUSH2 0xE4D JUMP JUMPDEST POP DUP1 JUMPDEST PUSH1 0x9 SLOAD DUP2 GT ISZERO PUSH2 0xE6B JUMPI PUSH1 0x9 SLOAD PUSH2 0xE64 SWAP1 DUP3 PUSH2 0x1CEB JUMP JUMPDEST SWAP3 POP POP POP SWAP1 JUMP JUMPDEST PUSH1 0x0 SWAP3 POP POP POP SWAP1 JUMP JUMPDEST PUSH1 0x0 SLOAD PUSH2 0x100 SWAP1 DIV PUSH1 0xFF AND DUP1 PUSH2 0xE8D JUMPI POP PUSH1 0x0 SLOAD PUSH1 0xFF AND ISZERO JUMPDEST PUSH2 0xEA9 JUMPI PUSH1 0x40 MLOAD PUSH3 0x461BCD PUSH1 0xE5 SHL DUP2 MSTORE PUSH1 0x4 ADD PUSH2 0x7CE SWAP1 PUSH2 0x1D24 JUMP JUMPDEST PUSH1 0x0 SLOAD PUSH2 0x100 SWAP1 DIV PUSH1 0xFF AND ISZERO DUP1 ISZERO PUSH2 0xECB JUMPI PUSH1 0x0 DUP1 SLOAD PUSH2 0xFFFF NOT AND PUSH2 0x101 OR SWAP1 SSTORE JUMPDEST PUSH1 0x1 PUSH1 0x1 PUSH1 0xA0 SHL SUB DUP3 AND ISZERO DUP1 ISZERO SWAP1 PUSH2 0xEE5 JUMPI POP PUSH2 0x2710 DUP5 GT ISZERO JUMPDEST PUSH2 0xEEE JUMPI PUSH1 0x0 DUP1 REVERT JUMPDEST PUSH2 0xEF7 DUP4 PUSH2 0x1039 JUMP JUMPDEST PUSH2 0xF00 CALLER PUSH2 0x1899 JUMP JUMPDEST DUP3 PUSH1 0x1 PUSH1 0x1 PUSH1 0xA0 SHL SUB AND PUSH4 0xD4B83992 PUSH1 0x40 MLOAD DUP2 PUSH4 0xFFFFFFFF AND PUSH1 0xE0 SHL DUP2 MSTORE PUSH1 0x4 ADD PUSH1 0x20 PUSH1 0x40 MLOAD DUP1 DUP4 SUB DUP2 DUP7 GAS STATICCALL ISZERO DUP1 ISZERO PUSH2 0xF3E JUMPI RETURNDATASIZE PUSH1 0x0 DUP1 RETURNDATACOPY RETURNDATASIZE PUSH1 0x0 REVERT JUMPDEST POP POP POP POP PUSH1 0x40 MLOAD RETURNDATASIZE PUSH1 0x1F NOT PUSH1 0x1F DUP3 ADD AND DUP3 ADD DUP1 PUSH1 0x40 MSTORE POP DUP2 ADD SWAP1 PUSH2 0xF62 SWAP2 SWAP1 PUSH2 0x1B9F JUMP JUMPDEST PUSH1 0x1 PUSH1 0x1 PUSH1 0xA0 SHL SUB AND PUSH4 0xE2FDCC17 PUSH1 0x40 MLOAD DUP2 PUSH4 0xFFFFFFFF AND PUSH1 0xE0 SHL DUP2 MSTORE PUSH1 0x4 ADD PUSH1 0x20 PUSH1 0x40 MLOAD DUP1 DUP4 SUB DUP2 DUP7 GAS STATICCALL ISZERO DUP1 ISZERO PUSH2 0xF9F JUMPI RETURNDATASIZE PUSH1 0x0 DUP1 RETURNDATACOPY RETURNDATASIZE PUSH1 0x0 REVERT JUMPDEST POP POP POP POP PUSH1 0x40 MLOAD RETURNDATASIZE PUSH1 0x1F NOT PUSH1 0x1F DUP3 ADD AND DUP3 ADD DUP1 PUSH1 0x40 MSTORE POP DUP2 ADD SWAP1 PUSH2 0xFC3 SWAP2 SWAP1 PUSH2 0x1B9F JUMP JUMPDEST PUSH1 0x3 DUP1 SLOAD PUSH1 0x1 PUSH1 0x1 PUSH1 0xA0 SHL SUB SWAP3 DUP4 AND PUSH1 0x1 PUSH1 0x1 PUSH1 0xA0 SHL SUB NOT SWAP2 DUP3 AND OR SWAP1 SWAP2 SSTORE PUSH1 0x8 DUP7 SWAP1 SSTORE PUSH1 0x4 DUP1 SLOAD SWAP3 DUP6 AND SWAP3 SWAP1 SWAP2 AND DUP3 OR SWAP1 SSTORE PUSH1 0x40 MLOAD CALLER SWAP1 PUSH32 0x8E69C3A0200AC71EB0D842C26986BAAA25A28AABFEE91D144725DF5B3190F4CB SWAP1 PUSH1 0x0 SWAP1 LOG3 DUP1 ISZERO PUSH2 0x1033 JUMPI PUSH1 0x0 DUP1 SLOAD PUSH2 0xFF00 NOT AND SWAP1 SSTORE JUMPDEST POP POP POP POP JUMP JUMPDEST PUSH1 0x0 SLOAD PUSH2 0x100 SWAP1 DIV PUSH1 0xFF AND DUP1 PUSH2 0x1052 JUMPI POP PUSH1 0x0 SLOAD PUSH1 0xFF AND ISZERO JUMPDEST PUSH2 0x106E JUMPI PUSH1 0x40 MLOAD PUSH3 0x461BCD PUSH1 0xE5 SHL DUP2 MSTORE PUSH1 0x4 ADD PUSH2 0x7CE SWAP1 PUSH2 0x1D24 JUMP JUMPDEST PUSH1 0x0 SLOAD PUSH2 0x100 SWAP1 DIV PUSH1 0xFF AND ISZERO DUP1 ISZERO PUSH2 0x1090 JUMPI PUSH1 0x0 DUP1 SLOAD PUSH2 0xFFFF NOT AND PUSH2 0x101 OR SWAP1 SSTORE JUMPDEST DUP2 PUSH1 0x0 PUSH1 0x2 PUSH2 0x100 EXP DUP2 SLOAD DUP2 PUSH1 0x1 PUSH1 0x1 PUSH1 0xA0 SHL SUB MUL NOT AND SWAP1 DUP4 PUSH1 0x1 PUSH1 0x1 PUSH1 0xA0 SHL SUB AND MUL OR SWAP1 SSTORE POP PUSH1 0x0 DUP3 PUSH1 0x1 PUSH1 0x1 PUSH1 0xA0 SHL SUB AND PUSH4 0xD4B83992 PUSH1 0x40 MLOAD DUP2 PUSH4 0xFFFFFFFF AND PUSH1 0xE0 SHL DUP2 MSTORE PUSH1 0x4 ADD PUSH1 0x20 PUSH1 0x40 MLOAD DUP1 DUP4 SUB DUP2 DUP7 GAS STATICCALL ISZERO DUP1 ISZERO PUSH2 0x10F7 JUMPI RETURNDATASIZE PUSH1 0x0 DUP1 RETURNDATACOPY RETURNDATASIZE PUSH1 0x0 REVERT JUMPDEST POP POP POP POP PUSH1 0x40 MLOAD RETURNDATASIZE PUSH1 0x1F NOT PUSH1 0x1F DUP3 ADD AND DUP3 ADD DUP1 PUSH1 0x40 MSTORE POP DUP2 ADD SWAP1 PUSH2 0x111B SWAP2 SWAP1 PUSH2 0x1B9F JUMP JUMPDEST PUSH1 0x1 PUSH1 0x1 PUSH1 0xA0 SHL SUB AND PUSH4 0xFC0C546A PUSH1 0x40 MLOAD DUP2 PUSH4 0xFFFFFFFF AND PUSH1 0xE0 SHL DUP2 MSTORE PUSH1 0x4 ADD PUSH1 0x20 PUSH1 0x40 MLOAD DUP1 DUP4 SUB DUP2 DUP7 GAS STATICCALL ISZERO DUP1 ISZERO PUSH2 0x1158 JUMPI RETURNDATASIZE PUSH1 0x0 DUP1 RETURNDATACOPY RETURNDATASIZE PUSH1 0x0 REVERT JUMPDEST POP POP POP POP PUSH1 0x40 MLOAD RETURNDATASIZE PUSH1 0x1F NOT PUSH1 0x1F DUP3 ADD AND DUP3 ADD DUP1 PUSH1 0x40 MSTORE POP DUP2 ADD SWAP1 PUSH2 0x117C SWAP2 SWAP1 PUSH2 0x1B9F JUMP JUMPDEST SWAP1 POP PUSH1 0x1 PUSH1 0x1 PUSH1 0xA0 SHL SUB DUP2 AND PUSH2 0x1191 JUMPI PUSH1 0x0 DUP1 REVERT JUMPDEST PUSH1 0x1 DUP1 SLOAD PUSH1 0x1 PUSH1 0x1 PUSH1 0xA0 SHL SUB NOT AND PUSH1 0x1 PUSH1 0x1 PUSH1 0xA0 SHL SUB SWAP3 SWAP1 SWAP3 AND SWAP2 SWAP1 SWAP2 OR SWAP1 SSTORE DUP1 ISZERO PUSH2 0x11C3 JUMPI PUSH1 0x0 DUP1 SLOAD PUSH2 0xFF00 NOT AND SWAP1 SSTORE JUMPDEST POP POP JUMP JUMPDEST PUSH1 0x2 SLOAD PUSH1 0x1 PUSH1 0x1 PUSH1 0xA0 SHL SUB AND CALLER EQ PUSH2 0x11DE JUMPI PUSH1 0x0 DUP1 REVERT JUMPDEST PUSH1 0x4 DUP1 SLOAD PUSH1 0x1 PUSH1 0x1 PUSH1 0xA0 SHL SUB NOT AND PUSH1 0x1 PUSH1 0x1 PUSH1 0xA0 SHL SUB DUP4 AND SWAP1 DUP2 OR SWAP1 SWAP2 SSTORE PUSH1 0x40 MLOAD CALLER SWAP1 PUSH32 0x8E69C3A0200AC71EB0D842C26986BAAA25A28AABFEE91D144725DF5B3190F4CB SWAP1 PUSH1 0x0 SWAP1 LOG3 POP JUMP JUMPDEST PUSH2 0x1232 PUSH2 0x8DE JUMP JUMPDEST PUSH2 0x127E JUMPI PUSH1 0x40 MLOAD PUSH3 0x461BCD PUSH1 0xE5 SHL DUP2 MSTORE PUSH1 0x20 PUSH1 0x4 DUP3 ADD MSTORE PUSH1 0x17 PUSH1 0x24 DUP3 ADD MSTORE PUSH32 0x4465706F736974206D75737420626520656E61626C6564000000000000000000 PUSH1 0x44 DUP3 ADD MSTORE PUSH1 0x64 ADD PUSH2 0x7CE JUMP JUMPDEST PUSH1 0x0 DUP2 GT PUSH2 0x12CE JUMPI PUSH1 0x40 MLOAD PUSH3 0x461BCD PUSH1 0xE5 SHL DUP2 MSTORE PUSH1 0x20 PUSH1 0x4 DUP3 ADD MSTORE PUSH1 0x17 PUSH1 0x24 DUP3 ADD MSTORE PUSH32 0x56616C7565206D757374206265206E6F7420656D707479000000000000000000 PUSH1 0x44 DUP3 ADD MSTORE PUSH1 0x64 ADD PUSH2 0x7CE JUMP JUMPDEST DUP1 PUSH1 0x5 PUSH1 0x0 DUP3 DUP3 SLOAD PUSH2 0x12E0 SWAP2 SWAP1 PUSH2 0x1CB4 JUMP JUMPDEST SWAP1 SWAP2 SSTORE POP POP CALLER PUSH1 0x0 SWAP1 DUP2 MSTORE PUSH1 0xA PUSH1 0x20 MSTORE PUSH1 0x40 DUP2 KECCAK256 DUP1 SLOAD SWAP1 SWAP2 DUP4 SWAP2 DUP4 SWAP2 SWAP1 PUSH2 0x1308 SWAP1 DUP5 SWAP1 PUSH2 0x1CB4 JUMP JUMPDEST SWAP1 SWAP2 SSTORE POP POP PUSH1 0x1 SLOAD PUSH2 0x1325 SWAP1 PUSH1 0x1 PUSH1 0x1 PUSH1 0xA0 SHL SUB AND CALLER ADDRESS DUP6 PUSH2 0x1908 JUMP JUMPDEST DUP1 SLOAD PUSH1 0x40 MLOAD CALLER SWAP2 PUSH32 0xFDFDCF596161B0E81E3161597D46888DCC88BD83B22DCFB341C76377CA3BBC9E SWAP2 PUSH2 0x1360 SWAP2 DUP7 DUP3 MSTORE PUSH1 0x20 DUP3 ADD MSTORE PUSH1 0x40 ADD SWAP1 JUMP JUMPDEST PUSH1 0x40 MLOAD DUP1 SWAP2 SUB SWAP1 LOG2 POP POP JUMP JUMPDEST PUSH1 0x0 PUSH1 0x6 SLOAD PUSH2 0x1379 PUSH2 0x1472 JUMP JUMPDEST PUSH2 0x1383 SWAP2 SWAP1 PUSH2 0x1CB4 JUMP JUMPDEST SWAP1 POP SWAP1 JUMP JUMPDEST CALLER PUSH1 0x0 DUP2 DUP2 MSTORE PUSH1 0xA PUSH1 0x20 MSTORE PUSH1 0x40 DUP2 KECCAK256 SWAP2 PUSH2 0x13A1 SWAP1 PUSH2 0xA83 JUMP JUMPDEST SWAP1 POP PUSH1 0x0 DUP2 GT PUSH2 0x1401 JUMPI PUSH1 0x40 MLOAD PUSH3 0x461BCD PUSH1 0xE5 SHL DUP2 MSTORE PUSH1 0x20 PUSH1 0x4 DUP3 ADD MSTORE PUSH1 0x25 PUSH1 0x24 DUP3 ADD MSTORE PUSH32 0x5468657265206973206E6F20617661696C61626C652045544820746F20776974 PUSH1 0x44 DUP3 ADD MSTORE PUSH5 0x6864726177 PUSH1 0xD8 SHL PUSH1 0x64 DUP3 ADD MSTORE PUSH1 0x84 ADD PUSH2 0x7CE JUMP JUMPDEST DUP1 DUP3 PUSH1 0x2 ADD PUSH1 0x0 DUP3 DUP3 SLOAD PUSH2 0x1415 SWAP2 SWAP1 PUSH2 0x1CB4 JUMP JUMPDEST SWAP3 POP POP DUP2 SWAP1 SSTORE POP DUP1 PUSH1 0x7 PUSH1 0x0 DUP3 DUP3 SLOAD PUSH2 0x142E SWAP2 SWAP1 PUSH2 0x1CB4 JUMP JUMPDEST SWAP1 SWAP2 SSTORE POP POP PUSH1 0x40 MLOAD DUP2 DUP2 MSTORE CALLER SWAP1 PUSH32 0x94B2DE810873337ED265C5F8CF98C9CFFEFA06B8607F9A2F1FBAEBDFBCFBEF1C SWAP1 PUSH1 0x20 ADD PUSH1 0x40 MLOAD DUP1 SWAP2 SUB SWAP1 LOG2 PUSH2 0x11C3 CALLER DUP3 PUSH2 0x1780 JUMP JUMPDEST PUSH1 0x3 SLOAD PUSH1 0x40 MLOAD PUSH4 0xBC5B6F3 PUSH1 0xE1 SHL DUP2 MSTORE ADDRESS PUSH1 0x4 DUP3 ADD MSTORE PUSH1 0x0 SWAP2 DUP3 SWAP2 PUSH1 0x1 PUSH1 0x1 PUSH1 0xA0 SHL SUB SWAP1 SWAP2 AND SWAP1 PUSH4 0x178B6DE6 SWAP1 PUSH1 0x24 ADD PUSH1 0x20 PUSH1 0x40 MLOAD DUP1 DUP4 SUB DUP2 DUP7 GAS STATICCALL ISZERO DUP1 ISZERO PUSH2 0x14BF JUMPI RETURNDATASIZE PUSH1 0x0 DUP1 RETURNDATACOPY RETURNDATASIZE PUSH1 0x0 REVERT JUMPDEST POP POP POP POP PUSH1 0x40 MLOAD RETURNDATASIZE PUSH1 0x1F NOT PUSH1 0x1F DUP3 ADD AND DUP3 ADD DUP1 PUSH1 0x40 MSTORE POP DUP2 ADD SWAP1 PUSH2 0x14E3 SWAP2 SWAP1 PUSH2 0x1C44 JUMP JUMPDEST PUSH1 0x1 SLOAD PUSH1 0x40 MLOAD PUSH4 0x70A08231 PUSH1 0xE0 SHL DUP2 MSTORE ADDRESS PUSH1 0x4 DUP3 ADD MSTORE SWAP2 SWAP3 POP PUSH1 0x0 SWAP2 PUSH1 0x1 PUSH1 0x1 PUSH1 0xA0 SHL SUB SWAP1 SWAP2 AND SWAP1 PUSH4 0x70A08231 SWAP1 PUSH1 0x24 ADD PUSH1 0x20 PUSH1 0x40 MLOAD DUP1 DUP4 SUB DUP2 DUP7 GAS STATICCALL ISZERO DUP1 ISZERO PUSH2 0x1531 JUMPI RETURNDATASIZE PUSH1 0x0 DUP1 RETURNDATACOPY RETURNDATASIZE PUSH1 0x0 REVERT JUMPDEST POP POP POP POP PUSH1 0x40 MLOAD RETURNDATASIZE PUSH1 0x1F NOT PUSH1 0x1F DUP3 ADD AND DUP3 ADD DUP1 PUSH1 0x40 MSTORE POP DUP2 ADD SWAP1 PUSH2 0x1555 SWAP2 SWAP1 PUSH2 0x1C44 JUMP JUMPDEST SWAP1 POP PUSH1 0x0 PUSH1 0x5 SLOAD DUP3 DUP5 PUSH2 0x1568 SWAP2 SWAP1 PUSH2 0x1CB4 JUMP JUMPDEST PUSH2 0x1572 SWAP2 SWAP1 PUSH2 0x1CEB JUMP JUMPDEST SWAP1 POP DUP2 DUP2 GT ISZERO PUSH2 0x1583 JUMPI POP SWAP3 SWAP2 POP POP JUMP JUMPDEST SWAP4 SWAP3 POP POP POP JUMP JUMPDEST PUSH1 0x2 SLOAD PUSH1 0x1 PUSH1 0x1 PUSH1 0xA0 SHL SUB AND CALLER EQ PUSH2 0x15A1 JUMPI PUSH1 0x0 DUP1 REVERT JUMPDEST PUSH2 0x15AA DUP2 PUSH2 0x1899 JUMP JUMPDEST POP JUMP JUMPDEST PUSH1 0x4 SLOAD PUSH1 0x1 PUSH1 0x1 PUSH1 0xA0 SHL SUB AND CALLER EQ PUSH2 0x15C4 JUMPI PUSH1 0x0 DUP1 REVERT JUMPDEST PUSH1 0x1 SLOAD PUSH1 0x40 MLOAD PUSH4 0x70A08231 PUSH1 0xE0 SHL DUP2 MSTORE ADDRESS PUSH1 0x4 DUP3 ADD MSTORE PUSH1 0x0 SWAP2 PUSH1 0x1 PUSH1 0x1 PUSH1 0xA0 SHL SUB AND SWAP1 PUSH4 0x70A08231 SWAP1 PUSH1 0x24 ADD PUSH1 0x20 PUSH1 0x40 MLOAD DUP1 DUP4 SUB DUP2 DUP7 GAS STATICCALL ISZERO DUP1 ISZERO PUSH2 0x160D JUMPI RETURNDATASIZE PUSH1 0x0 DUP1 RETURNDATACOPY RETURNDATASIZE PUSH1 0x0 REVERT JUMPDEST POP POP POP POP PUSH1 0x40 MLOAD RETURNDATASIZE PUSH1 0x1F NOT PUSH1 0x1F DUP3 ADD AND DUP3 ADD DUP1 PUSH1 0x40 MSTORE POP DUP2 ADD SWAP1 PUSH2 0x1631 SWAP2 SWAP1 PUSH2 0x1C44 JUMP JUMPDEST SWAP1 POP PUSH1 0x0 PUSH2 0x163D PUSH2 0xE05 JUMP JUMPDEST SWAP1 POP DUP2 DUP2 GT ISZERO PUSH2 0x164A JUMPI POP DUP1 JUMPDEST PUSH1 0x0 DUP2 GT PUSH2 0x16AB JUMPI PUSH1 0x40 MLOAD PUSH3 0x461BCD PUSH1 0xE5 SHL DUP2 MSTORE PUSH1 0x20 PUSH1 0x4 DUP3 ADD MSTORE PUSH1 0x28 PUSH1 0x24 DUP3 ADD MSTORE PUSH32 0x5468657265206973206E6F20617661696C61626C652072657761726420746F20 PUSH1 0x44 DUP3 ADD MSTORE PUSH8 0x7769746864726177 PUSH1 0xC0 SHL PUSH1 0x64 DUP3 ADD MSTORE PUSH1 0x84 ADD PUSH2 0x7CE JUMP JUMPDEST DUP1 PUSH1 0x9 PUSH1 0x0 DUP3 DUP3 SLOAD PUSH2 0x16BD SWAP2 SWAP1 PUSH2 0x1CB4 JUMP JUMPDEST SWAP3 POP POP DUP2 SWAP1 SSTORE POP DUP1 PUSH1 0x6 PUSH1 0x0 DUP3 DUP3 SLOAD PUSH2 0x16D6 SWAP2 SWAP1 PUSH2 0x1CB4 JUMP JUMPDEST SWAP1 SWAP2 SSTORE POP POP PUSH1 0x1 SLOAD PUSH2 0x16F2 SWAP1 PUSH1 0x1 PUSH1 0x1 PUSH1 0xA0 SHL SUB AND CALLER DUP4 PUSH2 0x1718 JUMP JUMPDEST PUSH1 0x40 DUP1 MLOAD DUP3 DUP2 MSTORE PUSH1 0x0 PUSH1 0x20 DUP3 ADD MSTORE CALLER SWAP2 PUSH1 0x0 DUP1 MLOAD PUSH1 0x20 PUSH2 0x1E10 DUP4 CODECOPY DUP2 MLOAD SWAP2 MSTORE SWAP2 ADD PUSH2 0x1360 JUMP JUMPDEST PUSH1 0x40 MLOAD PUSH1 0x1 PUSH1 0x1 PUSH1 0xA0 SHL SUB DUP4 AND PUSH1 0x24 DUP3 ADD MSTORE PUSH1 0x44 DUP2 ADD DUP3 SWAP1 MSTORE PUSH2 0x177B SWAP1 DUP5 SWAP1 PUSH4 0xA9059CBB PUSH1 0xE0 SHL SWAP1 PUSH1 0x64 ADD JUMPDEST PUSH1 0x40 DUP1 MLOAD PUSH1 0x1F NOT DUP2 DUP5 SUB ADD DUP2 MSTORE SWAP2 SWAP1 MSTORE PUSH1 0x20 DUP2 ADD DUP1 MLOAD PUSH1 0x1 PUSH1 0x1 PUSH1 0xE0 SHL SUB AND PUSH1 0x1 PUSH1 0x1 PUSH1 0xE0 SHL SUB NOT SWAP1 SWAP4 AND SWAP3 SWAP1 SWAP3 OR SWAP1 SWAP2 MSTORE PUSH2 0x1940 JUMP JUMPDEST POP POP POP JUMP JUMPDEST DUP1 SELFBALANCE LT ISZERO PUSH2 0x17D0 JUMPI PUSH1 0x40 MLOAD PUSH3 0x461BCD PUSH1 0xE5 SHL DUP2 MSTORE PUSH1 0x20 PUSH1 0x4 DUP3 ADD MSTORE PUSH1 0x1D PUSH1 0x24 DUP3 ADD MSTORE PUSH32 0x416464726573733A20696E73756666696369656E742062616C616E6365000000 PUSH1 0x44 DUP3 ADD MSTORE PUSH1 0x64 ADD PUSH2 0x7CE JUMP JUMPDEST PUSH1 0x0 DUP3 PUSH1 0x1 PUSH1 0x1 PUSH1 0xA0 SHL SUB AND DUP3 PUSH1 0x40 MLOAD PUSH1 0x0 PUSH1 0x40 MLOAD DUP1 DUP4 SUB DUP2 DUP6 DUP8 GAS CALL SWAP3 POP POP POP RETURNDATASIZE DUP1 PUSH1 0x0 DUP2 EQ PUSH2 0x181D JUMPI PUSH1 0x40 MLOAD SWAP2 POP PUSH1 0x1F NOT PUSH1 0x3F RETURNDATASIZE ADD AND DUP3 ADD PUSH1 0x40 MSTORE RETURNDATASIZE DUP3 MSTORE RETURNDATASIZE PUSH1 0x0 PUSH1 0x20 DUP5 ADD RETURNDATACOPY PUSH2 0x1822 JUMP JUMPDEST PUSH1 0x60 SWAP2 POP JUMPDEST POP POP SWAP1 POP DUP1 PUSH2 0x177B JUMPI PUSH1 0x40 MLOAD PUSH3 0x461BCD PUSH1 0xE5 SHL DUP2 MSTORE PUSH1 0x20 PUSH1 0x4 DUP3 ADD MSTORE PUSH1 0x3A PUSH1 0x24 DUP3 ADD MSTORE PUSH32 0x416464726573733A20756E61626C6520746F2073656E642076616C75652C2072 PUSH1 0x44 DUP3 ADD MSTORE PUSH32 0x6563697069656E74206D61792068617665207265766572746564000000000000 PUSH1 0x64 DUP3 ADD MSTORE PUSH1 0x84 ADD PUSH2 0x7CE JUMP JUMPDEST PUSH1 0x1 PUSH1 0x1 PUSH1 0xA0 SHL SUB DUP2 AND PUSH2 0x18AC JUMPI PUSH1 0x0 DUP1 REVERT JUMPDEST PUSH1 0x2 SLOAD PUSH1 0x40 MLOAD PUSH1 0x1 PUSH1 0x1 PUSH1 0xA0 SHL SUB DUP1 DUP5 AND SWAP3 AND SWAP1 PUSH32 0x8BE0079C531659141344CD1FD0A4F28419497F9722A3DAAFE3B4186F6B6457E0 SWAP1 PUSH1 0x0 SWAP1 LOG3 PUSH1 0x2 DUP1 SLOAD PUSH1 0x1 PUSH1 0x1 PUSH1 0xA0 SHL SUB NOT AND PUSH1 0x1 PUSH1 0x1 PUSH1 0xA0 SHL SUB SWAP3 SWAP1 SWAP3 AND SWAP2 SWAP1 SWAP2 OR SWAP1 SSTORE JUMP JUMPDEST PUSH1 0x40 MLOAD PUSH1 0x1 PUSH1 0x1 PUSH1 0xA0 SHL SUB DUP1 DUP6 AND PUSH1 0x24 DUP4 ADD MSTORE DUP4 AND PUSH1 0x44 DUP3 ADD MSTORE PUSH1 0x64 DUP2 ADD DUP3 SWAP1 MSTORE PUSH2 0x1033 SWAP1 DUP6 SWAP1 PUSH4 0x23B872DD PUSH1 0xE0 SHL SWAP1 PUSH1 0x84 ADD PUSH2 0x1744 JUMP JUMPDEST PUSH1 0x0 PUSH2 0x1995 DUP3 PUSH1 0x40 MLOAD DUP1 PUSH1 0x40 ADD PUSH1 0x40 MSTORE DUP1 PUSH1 0x20 DUP2 MSTORE PUSH1 0x20 ADD PUSH32 0x5361666545524332303A206C6F772D6C6576656C2063616C6C206661696C6564 DUP2 MSTORE POP DUP6 PUSH1 0x1 PUSH1 0x1 PUSH1 0xA0 SHL SUB AND PUSH2 0x1A12 SWAP1 SWAP3 SWAP2 SWAP1 PUSH4 0xFFFFFFFF AND JUMP JUMPDEST DUP1 MLOAD SWAP1 SWAP2 POP ISZERO PUSH2 0x177B JUMPI DUP1 DUP1 PUSH1 0x20 ADD SWAP1 MLOAD DUP2 ADD SWAP1 PUSH2 0x19B3 SWAP2 SWAP1 PUSH2 0x1D72 JUMP JUMPDEST PUSH2 0x177B JUMPI PUSH1 0x40 MLOAD PUSH3 0x461BCD PUSH1 0xE5 SHL DUP2 MSTORE PUSH1 0x20 PUSH1 0x4 DUP3 ADD MSTORE PUSH1 0x2A PUSH1 0x24 DUP3 ADD MSTORE PUSH32 0x5361666545524332303A204552433230206F7065726174696F6E20646964206E PUSH1 0x44 DUP3 ADD MSTORE PUSH10 0x1BDD081CDD58D8D95959 PUSH1 0xB2 SHL PUSH1 0x64 DUP3 ADD MSTORE PUSH1 0x84 ADD PUSH2 0x7CE JUMP JUMPDEST PUSH1 0x60 PUSH2 0x1A21 DUP5 DUP5 PUSH1 0x0 DUP6 PUSH2 0x1A29 JUMP JUMPDEST SWAP5 SWAP4 POP POP POP POP JUMP JUMPDEST PUSH1 0x60 DUP3 SELFBALANCE LT ISZERO PUSH2 0x1A8A JUMPI PUSH1 0x40 MLOAD PUSH3 0x461BCD PUSH1 0xE5 SHL DUP2 MSTORE PUSH1 0x20 PUSH1 0x4 DUP3 ADD MSTORE PUSH1 0x26 PUSH1 0x24 DUP3 ADD MSTORE PUSH32 0x416464726573733A20696E73756666696369656E742062616C616E636520666F PUSH1 0x44 DUP3 ADD MSTORE PUSH6 0x1C8818D85B1B PUSH1 0xD2 SHL PUSH1 0x64 DUP3 ADD MSTORE PUSH1 0x84 ADD PUSH2 0x7CE JUMP JUMPDEST DUP5 EXTCODESIZE PUSH2 0x1AD8 JUMPI PUSH1 0x40 MLOAD PUSH3 0x461BCD PUSH1 0xE5 SHL DUP2 MSTORE PUSH1 0x20 PUSH1 0x4 DUP3 ADD MSTORE PUSH1 0x1D PUSH1 0x24 DUP3 ADD MSTORE PUSH32 0x416464726573733A2063616C6C20746F206E6F6E2D636F6E7472616374000000 PUSH1 0x44 DUP3 ADD MSTORE PUSH1 0x64 ADD PUSH2 0x7CE JUMP JUMPDEST PUSH1 0x0 DUP1 DUP7 PUSH1 0x1 PUSH1 0x1 PUSH1 0xA0 SHL SUB AND DUP6 DUP8 PUSH1 0x40 MLOAD PUSH2 0x1AF4 SWAP2 SWAP1 PUSH2 0x1DC0 JUMP JUMPDEST PUSH1 0x0 PUSH1 0x40 MLOAD DUP1 DUP4 SUB DUP2 DUP6 DUP8 GAS CALL SWAP3 POP POP POP RETURNDATASIZE DUP1 PUSH1 0x0 DUP2 EQ PUSH2 0x1B31 JUMPI PUSH1 0x40 MLOAD SWAP2 POP PUSH1 0x1F NOT PUSH1 0x3F RETURNDATASIZE ADD AND DUP3 ADD PUSH1 0x40 MSTORE RETURNDATASIZE DUP3 MSTORE RETURNDATASIZE PUSH1 0x0 PUSH1 0x20 DUP5 ADD RETURNDATACOPY PUSH2 0x1B36 JUMP JUMPDEST PUSH1 0x60 SWAP2 POP JUMPDEST POP SWAP2 POP SWAP2 POP PUSH2 0x1B46 DUP3 DUP3 DUP7 PUSH2 0x1B51 JUMP JUMPDEST SWAP8 SWAP7 POP POP POP POP POP POP POP JUMP JUMPDEST PUSH1 0x60 DUP4 ISZERO PUSH2 0x1B60 JUMPI POP DUP2 PUSH2 0x1583 JUMP JUMPDEST DUP3 MLOAD ISZERO PUSH2 0x1B70 JUMPI DUP3 MLOAD DUP1 DUP5 PUSH1 0x20 ADD REVERT JUMPDEST DUP2 PUSH1 0x40 MLOAD PUSH3 0x461BCD PUSH1 0xE5 SHL DUP2 MSTORE PUSH1 0x4 ADD PUSH2 0x7CE SWAP2 SWAP1 PUSH2 0x1DDC JUMP JUMPDEST PUSH1 0x1 PUSH1 0x1 PUSH1 0xA0 SHL SUB DUP2 AND DUP2 EQ PUSH2 0x15AA JUMPI PUSH1 0x0 DUP1 REVERT JUMPDEST PUSH1 0x0 PUSH1 0x20 DUP3 DUP5 SUB SLT ISZERO PUSH2 0x1BB1 JUMPI PUSH1 0x0 DUP1 REVERT JUMPDEST DUP2 MLOAD PUSH2 0x1583 DUP2 PUSH2 0x1B8A JUMP JUMPDEST DUP2 DUP4 DUP3 CALLDATACOPY PUSH1 0x0 SWAP2 ADD SWAP1 DUP2 MSTORE SWAP2 SWAP1 POP JUMP JUMPDEST PUSH1 0x0 PUSH1 0x20 DUP3 DUP5 SUB SLT ISZERO PUSH2 0x1BDE JUMPI PUSH1 0x0 DUP1 REVERT JUMPDEST POP CALLDATALOAD SWAP2 SWAP1 POP JUMP JUMPDEST PUSH1 0x0 PUSH1 0x20 DUP3 DUP5 SUB SLT ISZERO PUSH2 0x1BF7 JUMPI PUSH1 0x0 DUP1 REVERT JUMPDEST DUP2 CALLDATALOAD PUSH2 0x1583 DUP2 PUSH2 0x1B8A JUMP JUMPDEST PUSH1 0x0 DUP1 PUSH1 0x0 PUSH1 0x60 DUP5 DUP7 SUB SLT ISZERO PUSH2 0x1C17 JUMPI PUSH1 0x0 DUP1 REVERT JUMPDEST DUP4 CALLDATALOAD SWAP3 POP PUSH1 0x20 DUP5 ADD CALLDATALOAD PUSH2 0x1C29 DUP2 PUSH2 0x1B8A JUMP JUMPDEST SWAP2 POP PUSH1 0x40 DUP5 ADD CALLDATALOAD PUSH2 0x1C39 DUP2 PUSH2 0x1B8A JUMP JUMPDEST DUP1 SWAP2 POP POP SWAP3 POP SWAP3 POP SWAP3 JUMP JUMPDEST PUSH1 0x0 PUSH1 0x20 DUP3 DUP5 SUB SLT ISZERO PUSH2 0x1C56 JUMPI PUSH1 0x0 DUP1 REVERT JUMPDEST POP MLOAD SWAP2 SWAP1 POP JUMP JUMPDEST PUSH1 0x20 DUP1 DUP3 MSTORE PUSH1 0x21 SWAP1 DUP3 ADD MSTORE PUSH32 0x4E6F7420656E6F75676820746F6B656E7320696E2074686520636F6E74726163 PUSH1 0x40 DUP3 ADD MSTORE PUSH1 0x1D PUSH1 0xFA SHL PUSH1 0x60 DUP3 ADD MSTORE PUSH1 0x80 ADD SWAP1 JUMP JUMPDEST PUSH4 0x4E487B71 PUSH1 0xE0 SHL PUSH1 0x0 MSTORE PUSH1 0x11 PUSH1 0x4 MSTORE PUSH1 0x24 PUSH1 0x0 REVERT JUMPDEST PUSH1 0x0 DUP3 NOT DUP3 GT ISZERO PUSH2 0x1CC7 JUMPI PUSH2 0x1CC7 PUSH2 0x1C9E JUMP JUMPDEST POP ADD SWAP1 JUMP JUMPDEST PUSH1 0x0 DUP2 PUSH1 0x0 NOT DIV DUP4 GT DUP3 ISZERO ISZERO AND ISZERO PUSH2 0x1CE6 JUMPI PUSH2 0x1CE6 PUSH2 0x1C9E JUMP JUMPDEST POP MUL SWAP1 JUMP JUMPDEST PUSH1 0x0 DUP3 DUP3 LT ISZERO PUSH2 0x1CFD JUMPI PUSH2 0x1CFD PUSH2 0x1C9E JUMP JUMPDEST POP SUB SWAP1 JUMP JUMPDEST PUSH1 0x0 DUP3 PUSH2 0x1D1F JUMPI PUSH4 0x4E487B71 PUSH1 0xE0 SHL PUSH1 0x0 MSTORE PUSH1 0x12 PUSH1 0x4 MSTORE PUSH1 0x24 PUSH1 0x0 REVERT JUMPDEST POP DIV SWAP1 JUMP JUMPDEST PUSH1 0x20 DUP1 DUP3 MSTORE PUSH1 0x2E SWAP1 DUP3 ADD MSTORE PUSH32 0x496E697469616C697A61626C653A20636F6E747261637420697320616C726561 PUSH1 0x40 DUP3 ADD MSTORE PUSH14 0x191E481A5B9A5D1A585B1A5E9959 PUSH1 0x92 SHL PUSH1 0x60 DUP3 ADD MSTORE PUSH1 0x80 ADD SWAP1 JUMP JUMPDEST PUSH1 0x0 PUSH1 0x20 DUP3 DUP5 SUB SLT ISZERO PUSH2 0x1D84 JUMPI PUSH1 0x0 DUP1 REVERT JUMPDEST DUP2 MLOAD DUP1 ISZERO ISZERO DUP2 EQ PUSH2 0x1583 JUMPI PUSH1 0x0 DUP1 REVERT JUMPDEST PUSH1 0x0 JUMPDEST DUP4 DUP2 LT ISZERO PUSH2 0x1DAF JUMPI DUP2 DUP2 ADD MLOAD DUP4 DUP3 ADD MSTORE PUSH1 0x20 ADD PUSH2 0x1D97 JUMP JUMPDEST DUP4 DUP2 GT ISZERO PUSH2 0x1033 JUMPI POP POP PUSH1 0x0 SWAP2 ADD MSTORE JUMP JUMPDEST PUSH1 0x0 DUP3 MLOAD PUSH2 0x1DD2 DUP2 DUP5 PUSH1 0x20 DUP8 ADD PUSH2 0x1D94 JUMP JUMPDEST SWAP2 SWAP1 SWAP2 ADD SWAP3 SWAP2 POP POP JUMP JUMPDEST PUSH1 0x20 DUP2 MSTORE PUSH1 0x0 DUP3 MLOAD DUP1 PUSH1 0x20 DUP5 ADD MSTORE PUSH2 0x1DFB DUP2 PUSH1 0x40 DUP6 ADD PUSH1 0x20 DUP8 ADD PUSH2 0x1D94 JUMP JUMPDEST PUSH1 0x1F ADD PUSH1 0x1F NOT AND SWAP2 SWAP1 SWAP2 ADD PUSH1 0x40 ADD SWAP3 SWAP2 POP POP JUMP INVALID SELFDESTRUCT 0xE9 SUB 0xC0 0xAB 0xE6 0xB2 0xDB 0xB2 RETURN SELFBALANCE 0x4E DELEGATECALL RETURNDATASIZE PUSH27 0x3C1FCA49E5A774453423CA8E1952AABFFAA2646970667358221220 MLOAD LT CALLER SWAP3 PUSH8 0xEC0E221913F3117A DELEGATECALL 0xBF SWAP3 PUSH6 0x3AE9F7278C6E 0xEA 0xDB 0xDE 0xBE SSTORE 0x5C COINBASE CHAINID RETURNDATASIZE PUSH5 0x736F6C6343 STOP ADDMOD EXP STOP CALLER ",
  "sha1": "d3a67b5d405f323324ff8bf702281aad0a4946c7",
  "source": "// SPDX-License-Identifier: AGPL-3.0-or-later\n\npragma solidity ^0.8.0;\n\nimport \"../../zeppelin/ownership/Ownable.sol\";\nimport \"./AbstractStakingContract.sol\";\n\n/**\n * @notice Contract acts as delegate for sub-stakers\n **/\ncontract PoolingStakingContractV2 is InitializableStakingContract, Ownable {\n    using Address for address payable;\n    using SafeERC20 for NuCypherToken;\n\n    event TokensDeposited(\n        address indexed sender,\n        uint256 value,\n        uint256 depositedTokens\n    );\n    event TokensWithdrawn(\n        address indexed sender,\n        uint256 value,\n        uint256 depositedTokens\n    );\n    event ETHWithdrawn(address indexed sender, uint256 value);\n    event WorkerOwnerSet(address indexed sender, address indexed workerOwner);\n\n    struct Delegator {\n        uint256 depositedTokens;\n        uint256 withdrawnReward;\n        uint256 withdrawnETH;\n    }\n\n    /**\n     * Defines base fraction and precision of worker fraction.\n     * E.g., for a value of 10000, a worker fraction of 100 represents 1% of reward (100/10000)\n     */\n    uint256 public constant BASIS_FRACTION = 10000;\n\n    IStakingEscrow public escrow;\n    address public workerOwner;\n\n    uint256 public totalDepositedTokens;\n    uint256 public totalWithdrawnReward;\n    uint256 public totalWithdrawnETH;\n\n    uint256 workerFraction;\n    uint256 public workerWithdrawnReward;\n\n    mapping(address => Delegator) public delegators;\n\n    /**\n     * @notice Initialize function for using with OpenZeppelin proxy\n     * @param _workerFraction Share of token reward that worker node owner will get.\n     * Use value up to BASIS_FRACTION (10000), if _workerFraction = BASIS_FRACTION -> means 100% reward as commission.\n     * For example, 100 worker fraction is 1% of reward\n     * @param _router StakingInterfaceRouter address\n     * @param _workerOwner Owner of worker node, only this address can withdraw worker commission\n     */\n    function initialize(\n        uint256 _workerFraction,\n        StakingInterfaceRouter _router,\n        address _workerOwner\n    ) external initializer {\n        require(_workerOwner != address(0) && _workerFraction <= BASIS_FRACTION);\n        InitializableStakingContract.initialize(_router);\n        _transferOwnership(msg.sender);\n        escrow = _router.target().escrow();\n        workerFraction = _workerFraction;\n        workerOwner = _workerOwner;\n        emit WorkerOwnerSet(msg.sender, _workerOwner);\n    }\n\n    /**\n     * @notice withdrawAll() is allowed\n     */\n    function isWithdrawAllAllowed() public view returns (bool) {\n        // no tokens in StakingEscrow contract which belong to pool\n        return escrow.getAllTokens(address(this)) == 0;\n    }\n\n    /**\n     * @notice deposit() is allowed\n     */\n    function isDepositAllowed() public view returns (bool) {\n        // tokens which directly belong to pool\n        uint256 freeTokens = token.balanceOf(address(this));\n\n        // no sub-stakes and no earned reward\n        return isWithdrawAllAllowed() && freeTokens == totalDepositedTokens;\n    }\n\n    /**\n     * @notice Set worker owner address\n     */\n    function setWorkerOwner(address _workerOwner) external onlyOwner {\n        workerOwner = _workerOwner;\n        emit WorkerOwnerSet(msg.sender, _workerOwner);\n    }\n\n    /**\n     * @notice Calculate worker's fraction depending on deposited tokens\n     * Override to implement dynamic worker fraction.\n     */\n    function getWorkerFraction() public view virtual returns (uint256) {\n        return workerFraction;\n    }\n\n    /**\n     * @notice Transfer tokens as delegator\n     * @param _value Amount of tokens to transfer\n     */\n    function depositTokens(uint256 _value) external {\n        require(isDepositAllowed(), \"Deposit must be enabled\");\n        require(_value > 0, \"Value must be not empty\");\n        totalDepositedTokens += _value;\n        Delegator storage delegator = delegators[msg.sender];\n        delegator.depositedTokens += _value;\n        token.safeTransferFrom(msg.sender, address(this), _value);\n        emit TokensDeposited(msg.sender, _value, delegator.depositedTokens);\n    }\n\n    /**\n     * @notice Get available reward for all delegators and owner\n     */\n    function getAvailableReward() public view returns (uint256) {\n        // locked + unlocked tokens in StakingEscrow contract which belong to pool\n        uint256 stakedTokens = escrow.getAllTokens(address(this));\n        // tokens which directly belong to pool\n        uint256 freeTokens = token.balanceOf(address(this));\n        // tokens in excess of the initially deposited\n        uint256 reward = stakedTokens + freeTokens - totalDepositedTokens;\n        // check how many of reward tokens belong directly to pool\n        if (reward > freeTokens) {\n            return freeTokens;\n        }\n        return reward;\n    }\n\n    /**\n     * @notice Get cumulative reward.\n     * Available and withdrawn reward together to use in delegator/owner reward calculations\n     */\n    function getCumulativeReward() public view returns (uint256) {\n        return getAvailableReward() + totalWithdrawnReward;\n    }\n\n    /**\n     * @notice Get available reward in tokens for worker node owner\n     */\n    function getAvailableWorkerReward() public view returns (uint256) {\n        // total current and historical reward\n        uint256 reward = getCumulativeReward();\n\n        // calculate total reward for worker including historical reward\n        uint256 maxAllowableReward;\n        // usual case\n        if (totalDepositedTokens != 0) {\n            uint256 fraction = getWorkerFraction();\n            maxAllowableReward = reward * fraction / BASIS_FRACTION;\n        // special case when there are no delegators\n        } else {\n            maxAllowableReward = reward;\n        }\n\n        // check that worker has any new reward\n        if (maxAllowableReward > workerWithdrawnReward) {\n            return maxAllowableReward - workerWithdrawnReward;\n        }\n        return 0;\n    }\n\n    /**\n     * @notice Get available reward in tokens for delegator\n     */\n    function getAvailableDelegatorReward(address _delegator) public view returns (uint256) {\n        // special case when there are no delegators\n        if (totalDepositedTokens == 0) {\n            return 0;\n        }\n\n        // total current and historical reward\n        uint256 reward = getCumulativeReward();\n        Delegator storage delegator = delegators[_delegator];\n        uint256 fraction = getWorkerFraction();\n\n        // calculate total reward for delegator including historical reward\n        // excluding worker share\n        uint256 maxAllowableReward = reward * delegator.depositedTokens * (BASIS_FRACTION - fraction)\n            / (totalDepositedTokens * BASIS_FRACTION);\n\n        // check that worker has any new reward\n        if (maxAllowableReward > delegator.withdrawnReward) {\n            return maxAllowableReward - delegator.withdrawnReward;\n        }\n        return 0;\n    }\n\n    /**\n     * @notice Withdraw reward in tokens to worker node owner\n     */\n    function withdrawWorkerReward() external {\n        require(msg.sender == workerOwner);\n        uint256 balance = token.balanceOf(address(this));\n        uint256 availableReward = getAvailableWorkerReward();\n\n        if (availableReward > balance) {\n            availableReward = balance;\n        }\n        require(\n            availableReward > 0,\n            \"There is no available reward to withdraw\"\n        );\n        workerWithdrawnReward += availableReward;\n        totalWithdrawnReward += availableReward;\n\n        token.safeTransfer(msg.sender, availableReward);\n        emit TokensWithdrawn(msg.sender, availableReward, 0);\n    }\n\n    /**\n     * @notice Withdraw reward to delegator\n     * @param _value Amount of tokens to withdraw\n     */\n    function withdrawTokens(uint256 _value) public override {\n        uint256 balance = token.balanceOf(address(this));\n        require(_value <= balance, \"Not enough tokens in the contract\");\n\n        Delegator storage delegator = delegators[msg.sender];\n        uint256 availableReward = getAvailableDelegatorReward(msg.sender);\n\n        require( _value <= availableReward, \"Requested amount of tokens exceeded allowed portion\");\n        delegator.withdrawnReward += _value;\n        totalWithdrawnReward += _value;\n\n        token.safeTransfer(msg.sender, _value);\n        emit TokensWithdrawn(msg.sender, _value, delegator.depositedTokens);\n    }\n\n    /**\n     * @notice Withdraw reward, deposit and fee to delegator\n     */\n    function withdrawAll() public {\n        require(isWithdrawAllAllowed(), \"Withdraw deposit and reward must be enabled\");\n        uint256 balance = token.balanceOf(address(this));\n\n        Delegator storage delegator = delegators[msg.sender];\n        uint256 availableReward = getAvailableDelegatorReward(msg.sender);\n        uint256 value = availableReward + delegator.depositedTokens;\n        require(value <= balance, \"Not enough tokens in the contract\");\n\n        // TODO remove double reading: availableReward and availableWorkerReward use same calls to external contracts\n        uint256 availableWorkerReward = getAvailableWorkerReward();\n\n        // potentially could be less then due reward\n        uint256 availableETH = getAvailableDelegatorETH(msg.sender);\n\n        // prevent losing reward for worker after calculations\n        uint256 workerReward = availableWorkerReward * delegator.depositedTokens / totalDepositedTokens;\n        if (workerReward > 0) {\n            require(value + workerReward <= balance, \"Not enough tokens in the contract\");\n            token.safeTransfer(workerOwner, workerReward);\n            emit TokensWithdrawn(workerOwner, workerReward, 0);\n        }\n\n        uint256 withdrawnToDecrease = workerWithdrawnReward * delegator.depositedTokens / totalDepositedTokens;\n\n        workerWithdrawnReward -= withdrawnToDecrease;\n        totalWithdrawnReward -= withdrawnToDecrease + delegator.withdrawnReward;\n        totalDepositedTokens -= delegator.depositedTokens;\n\n        delegator.withdrawnReward = 0;\n        delegator.depositedTokens = 0;\n\n        token.safeTransfer(msg.sender, value);\n        emit TokensWithdrawn(msg.sender, value, 0);\n\n        totalWithdrawnETH -= delegator.withdrawnETH;\n        delegator.withdrawnETH = 0;\n        if (availableETH > 0) {\n            emit ETHWithdrawn(msg.sender, availableETH);\n            payable(msg.sender).sendValue(availableETH);\n        }\n    }\n\n    /**\n     * @notice Get available ether for delegator\n     */\n    function getAvailableDelegatorETH(address _delegator) public view returns (uint256) {\n        Delegator storage delegator = delegators[_delegator];\n        uint256 balance = address(this).balance;\n        // ETH balance + already withdrawn\n        balance += totalWithdrawnETH;\n        uint256 maxAllowableETH = balance * delegator.depositedTokens / totalDepositedTokens;\n\n        uint256 availableETH = maxAllowableETH - delegator.withdrawnETH;\n        if (availableETH > balance) {\n            availableETH = balance;\n        }\n        return availableETH;\n    }\n\n    /**\n     * @notice Withdraw available amount of ETH to delegator\n     */\n    function withdrawETH() public override {\n        Delegator storage delegator = delegators[msg.sender];\n        uint256 availableETH = getAvailableDelegatorETH(msg.sender);\n        require(availableETH > 0, \"There is no available ETH to withdraw\");\n        delegator.withdrawnETH += availableETH;\n\n        totalWithdrawnETH += availableETH;\n        emit ETHWithdrawn(msg.sender, availableETH);\n        payable(msg.sender).sendValue(availableETH);\n    }\n\n    /**\n     * @notice Calling fallback function is allowed only for the owner\n     */\n    function isFallbackAllowed() public override view returns (bool) {\n        return msg.sender == owner();\n    }\n}\n",
  "sourcePath": "contracts/contracts/staking_contracts/PoolingStakingContractV2.sol",
  "type": "contract"
}