{
  "abi": [
    {
      "inputs": [],
      "name": "UMBRAL_PARAMETER_U_SIGN",
      "outputs": [
        {
          "internalType": "uint8",
          "name": "",
          "type": "uint8"
        }
      ],
      "stateMutability": "view",
      "type": "function"
    },
    {
      "inputs": [],
      "name": "UMBRAL_PARAMETER_U_XCOORD",
      "outputs": [
        {
          "internalType": "uint256",
          "name": "",
          "type": "uint256"
        }
      ],
      "stateMutability": "view",
      "type": "function"
    },
    {
      "inputs": [],
      "name": "UMBRAL_PARAMETER_U_YCOORD",
      "outputs": [
        {
          "internalType": "uint256",
          "name": "",
          "type": "uint256"
        }
      ],
      "stateMutability": "view",
      "type": "function"
    }
  ],
  "bytecode": "60f9610039600b82828239805160001a60731461002c57634e487b7160e01b600052600060045260246000fd5b30600052607381538281f3fe730000000000000000000000000000000000000000301460806040526004361060475760003560e01c8063055a80e714604c5780634b4b4b12146085578063c5f1f5ca1460ab575b600080fd5b60727f03c98795773ff1c241fc0b1cced85e80f8366581dda5c9452175ebd41385fa1f81565b6040519081526020015b60405180910390f35b60727f7880ed56962d7c0ae44d6f14bb53b5fe64b31ea44a41d0316f3a598778f0f93681565b60b2600281565b60405160ff9091168152602001607c56fea26469706673582212209ef98e0cef11e0ce8862d1c823276f2aa78f4e12d1c5ca3d8933330f086648ec64736f6c634300080a0033",
  "bytecodeSha1": "cbd0451b4619d27c4a18d69bf2bf7cf35607ea34",
  "compiler": {
    "evm_version": "istanbul",
    "optimizer": {
      "enabled": true,
      "runs": 200
    },
    "version": "0.8.10+commit.fc410830"
  },
  "contractName": "ReEncryptionValidator",
  "language": "Solidity",
  "natspec": {
    "kind": "dev",
    "methods": {},
    "notice": "Validates re-encryption correctness.",
    "version": 1
  },
  "opcodes": "PUSH20 0x0 ADDRESS EQ PUSH1 0x80 PUSH1 0x40 MSTORE PUSH1 0x4 CALLDATASIZE LT PUSH1 0x47 JUMPI PUSH1 0x0 CALLDATALOAD PUSH1 0xE0 SHR DUP1 PUSH4 0x55A80E7 EQ PUSH1 0x4C JUMPI DUP1 PUSH4 0x4B4B4B12 EQ PUSH1 0x85 JUMPI DUP1 PUSH4 0xC5F1F5CA EQ PUSH1 0xAB JUMPI JUMPDEST PUSH1 0x0 DUP1 REVERT JUMPDEST PUSH1 0x72 PUSH32 0x3C98795773FF1C241FC0B1CCED85E80F8366581DDA5C9452175EBD41385FA1F DUP2 JUMP JUMPDEST PUSH1 0x40 MLOAD SWAP1 DUP2 MSTORE PUSH1 0x20 ADD JUMPDEST PUSH1 0x40 MLOAD DUP1 SWAP2 SUB SWAP1 RETURN JUMPDEST PUSH1 0x72 PUSH32 0x7880ED56962D7C0AE44D6F14BB53B5FE64B31EA44A41D0316F3A598778F0F936 DUP2 JUMP JUMPDEST PUSH1 0xB2 PUSH1 0x2 DUP2 JUMP JUMPDEST PUSH1 0x40 MLOAD PUSH1 0xFF SWAP1 SWAP2 AND DUP2 MSTORE PUSH1 0x20 ADD PUSH1 0x7C JUMP INVALID LOG2 PUSH5 0x6970667358 0x22 SLT KECCAK256 SWAP15 0xF9 DUP15 0xC 0xEF GT 0xE0 0xCE DUP9 PUSH3 0xD1C823 0x27 PUSH16 0x2AA78F4E12D1C5CA3D8933330F086648 0xEC PUSH5 0x736F6C6343 STOP ADDMOD EXP STOP CALLER ",
  "sha1": "fa6989c8f7a4b3f5684830d428a9619df30c42fe",
  "source": "// SPDX-License-Identifier: AGPL-3.0-or-later\n\npragma solidity ^0.8.0;\n\nimport \"./UmbralDeserializer.sol\";\nimport \"./SignatureVerifier.sol\";\n\n/**\n* @notice Validates re-encryption correctness.\n*/\nlibrary ReEncryptionValidator {\n\n    using UmbralDeserializer for bytes;\n\n\n    //------------------------------//\n    //   Umbral-specific constants  //\n    //------------------------------//\n\n    // See parameter `u` of `UmbralParameters` class in pyUmbral\n    // https://github.com/nucypher/pyUmbral/blob/master/umbral/params.py\n    uint8 public constant UMBRAL_PARAMETER_U_SIGN = 0x02;\n    uint256 public constant UMBRAL_PARAMETER_U_XCOORD = 0x03c98795773ff1c241fc0b1cced85e80f8366581dda5c9452175ebd41385fa1f;\n    uint256 public constant UMBRAL_PARAMETER_U_YCOORD = 0x7880ed56962d7c0ae44d6f14bb53b5fe64b31ea44a41d0316f3a598778f0f936;\n\n\n    //------------------------------//\n    // SECP256K1-specific constants //\n    //------------------------------//\n\n    // Base field order\n    uint256 constant FIELD_ORDER = 0xFFFFFFFFFFFFFFFFFFFFFFFFFFFFFFFFFFFFFFFFFFFFFFFFFFFFFFFEFFFFFC2F;\n\n    // -2 mod FIELD_ORDER\n    uint256 constant MINUS_2 = 0xfffffffffffffffffffffffffffffffffffffffffffffffffffffffefffffc2d;\n\n    // (-1/2) mod FIELD_ORDER\n    uint256 constant MINUS_ONE_HALF = 0x7fffffffffffffffffffffffffffffffffffffffffffffffffffffff7ffffe17;\n\n\n    //\n\n    /**\n    * @notice Check correctness of re-encryption\n    * @param _capsuleBytes Capsule\n    * @param _cFragBytes Capsule frag\n    * @param _precomputedBytes Additional precomputed data\n    */\n    function validateCFrag(\n        bytes memory _capsuleBytes,\n        bytes memory _cFragBytes,\n        bytes memory _precomputedBytes\n    )\n        internal pure returns (bool)\n    {\n        UmbralDeserializer.Capsule memory _capsule = _capsuleBytes.toCapsule();\n        UmbralDeserializer.CapsuleFrag memory _cFrag = _cFragBytes.toCapsuleFrag();\n        UmbralDeserializer.PreComputedData memory _precomputed = _precomputedBytes.toPreComputedData();\n\n        // Extract Alice's address and check that it corresponds to the one provided\n        address alicesAddress = SignatureVerifier.recover(\n            _precomputed.hashedKFragValidityMessage,\n            abi.encodePacked(_cFrag.proof.kFragSignature, _precomputed.lostBytes[0])\n        );\n        require(alicesAddress == _precomputed.alicesKeyAsAddress, \"Bad KFrag signature\");\n\n        // Compute proof's challenge scalar h, used in all ZKP verification equations\n        uint256 h = computeProofChallengeScalar(_capsule, _cFrag);\n\n        //////\n        // Verifying 1st equation: z*E == h*E_1 + E_2\n        //////\n\n        // Input validation: E\n        require(checkCompressedPoint(\n            _capsule.pointE.sign,\n            _capsule.pointE.xCoord,\n            _precomputed.pointEyCoord),\n            \"Precomputed Y coordinate of E doesn't correspond to compressed E point\"\n        );\n\n        // Input validation: z*E\n        require(isOnCurve(_precomputed.pointEZxCoord, _precomputed.pointEZyCoord),\n                \"Point zE is not a valid EC point\"\n        );\n        require(ecmulVerify(\n            _capsule.pointE.xCoord,         // E_x\n            _precomputed.pointEyCoord,      // E_y\n            _cFrag.proof.bnSig,             // z\n            _precomputed.pointEZxCoord,     // zE_x\n            _precomputed.pointEZyCoord),    // zE_y\n            \"Precomputed z*E value is incorrect\"\n        );\n\n        // Input validation: E1\n        require(checkCompressedPoint(\n            _cFrag.pointE1.sign,          // E1_sign\n            _cFrag.pointE1.xCoord,        // E1_x\n            _precomputed.pointE1yCoord),  // E1_y\n            \"Precomputed Y coordinate of E1 doesn't correspond to compressed E1 point\"\n        );\n\n        // Input validation: h*E1\n        require(isOnCurve(_precomputed.pointE1HxCoord, _precomputed.pointE1HyCoord),\n                \"Point h*E1 is not a valid EC point\"\n        );\n        require(ecmulVerify(\n            _cFrag.pointE1.xCoord,          // E1_x\n            _precomputed.pointE1yCoord,     // E1_y\n            h,\n            _precomputed.pointE1HxCoord,    // hE1_x\n            _precomputed.pointE1HyCoord),   // hE1_y\n            \"Precomputed h*E1 value is incorrect\"\n        );\n\n        // Input validation: E2\n        require(checkCompressedPoint(\n            _cFrag.proof.pointE2.sign,        // E2_sign\n            _cFrag.proof.pointE2.xCoord,      // E2_x\n            _precomputed.pointE2yCoord),      // E2_y\n            \"Precomputed Y coordinate of E2 doesn't correspond to compressed E2 point\"\n        );\n\n        bool equation_holds = eqAffineJacobian(\n            [_precomputed.pointEZxCoord,  _precomputed.pointEZyCoord],\n            addAffineJacobian(\n                [_cFrag.proof.pointE2.xCoord, _precomputed.pointE2yCoord],\n                [_precomputed.pointE1HxCoord, _precomputed.pointE1HyCoord]\n            )\n        );\n\n        if (!equation_holds){\n            return false;\n        }\n\n        //////\n        // Verifying 2nd equation: z*V == h*V_1 + V_2\n        //////\n\n        // Input validation: V\n        require(checkCompressedPoint(\n            _capsule.pointV.sign,\n            _capsule.pointV.xCoord,\n            _precomputed.pointVyCoord),\n            \"Precomputed Y coordinate of V doesn't correspond to compressed V point\"\n        );\n\n        // Input validation: z*V\n        require(isOnCurve(_precomputed.pointVZxCoord, _precomputed.pointVZyCoord),\n                \"Point zV is not a valid EC point\"\n        );\n        require(ecmulVerify(\n            _capsule.pointV.xCoord,         // V_x\n            _precomputed.pointVyCoord,      // V_y\n            _cFrag.proof.bnSig,             // z\n            _precomputed.pointVZxCoord,     // zV_x\n            _precomputed.pointVZyCoord),    // zV_y\n            \"Precomputed z*V value is incorrect\"\n        );\n\n        // Input validation: V1\n        require(checkCompressedPoint(\n            _cFrag.pointV1.sign,         // V1_sign\n            _cFrag.pointV1.xCoord,       // V1_x\n            _precomputed.pointV1yCoord), // V1_y\n            \"Precomputed Y coordinate of V1 doesn't correspond to compressed V1 point\"\n        );\n\n        // Input validation: h*V1\n        require(isOnCurve(_precomputed.pointV1HxCoord, _precomputed.pointV1HyCoord),\n            \"Point h*V1 is not a valid EC point\"\n        );\n        require(ecmulVerify(\n            _cFrag.pointV1.xCoord,          // V1_x\n            _precomputed.pointV1yCoord,     // V1_y\n            h,\n            _precomputed.pointV1HxCoord,    // h*V1_x\n            _precomputed.pointV1HyCoord),   // h*V1_y\n            \"Precomputed h*V1 value is incorrect\"\n        );\n\n        // Input validation: V2\n        require(checkCompressedPoint(\n            _cFrag.proof.pointV2.sign,        // V2_sign\n            _cFrag.proof.pointV2.xCoord,      // V2_x\n            _precomputed.pointV2yCoord),      // V2_y\n            \"Precomputed Y coordinate of V2 doesn't correspond to compressed V2 point\"\n        );\n\n        equation_holds = eqAffineJacobian(\n            [_precomputed.pointVZxCoord,  _precomputed.pointVZyCoord],\n            addAffineJacobian(\n                [_cFrag.proof.pointV2.xCoord, _precomputed.pointV2yCoord],\n                [_precomputed.pointV1HxCoord, _precomputed.pointV1HyCoord]\n            )\n        );\n\n        if (!equation_holds){\n            return false;\n        }\n\n        //////\n        // Verifying 3rd equation: z*U == h*U_1 + U_2\n        //////\n\n        // We don't have to validate U since it's fixed and hard-coded\n\n        // Input validation: z*U\n        require(isOnCurve(_precomputed.pointUZxCoord, _precomputed.pointUZyCoord),\n                \"Point z*U is not a valid EC point\"\n        );\n        require(ecmulVerify(\n            UMBRAL_PARAMETER_U_XCOORD,      // U_x\n            UMBRAL_PARAMETER_U_YCOORD,      // U_y\n            _cFrag.proof.bnSig,             // z\n            _precomputed.pointUZxCoord,     // zU_x\n            _precomputed.pointUZyCoord),    // zU_y\n            \"Precomputed z*U value is incorrect\"\n        );\n\n        // Input validation: U1  (a.k.a. KFragCommitment)\n        require(checkCompressedPoint(\n            _cFrag.proof.pointKFragCommitment.sign,     // U1_sign\n            _cFrag.proof.pointKFragCommitment.xCoord,   // U1_x\n            _precomputed.pointU1yCoord),                // U1_y\n            \"Precomputed Y coordinate of U1 doesn't correspond to compressed U1 point\"\n        );\n\n        // Input validation: h*U1\n        require(isOnCurve(_precomputed.pointU1HxCoord, _precomputed.pointU1HyCoord),\n                \"Point h*U1 is not a valid EC point\"\n        );\n        require(ecmulVerify(\n            _cFrag.proof.pointKFragCommitment.xCoord,   // U1_x\n            _precomputed.pointU1yCoord,                 // U1_y\n            h,\n            _precomputed.pointU1HxCoord,    // h*V1_x\n            _precomputed.pointU1HyCoord),   // h*V1_y\n            \"Precomputed h*V1 value is incorrect\"\n        );\n\n        // Input validation: U2  (a.k.a. KFragPok (\"proof of knowledge\"))\n        require(checkCompressedPoint(\n            _cFrag.proof.pointKFragPok.sign,    // U2_sign\n            _cFrag.proof.pointKFragPok.xCoord,  // U2_x\n            _precomputed.pointU2yCoord),        // U2_y\n            \"Precomputed Y coordinate of U2 doesn't correspond to compressed U2 point\"\n        );\n\n        equation_holds = eqAffineJacobian(\n            [_precomputed.pointUZxCoord,  _precomputed.pointUZyCoord],\n            addAffineJacobian(\n                [_cFrag.proof.pointKFragPok.xCoord, _precomputed.pointU2yCoord],\n                [_precomputed.pointU1HxCoord, _precomputed.pointU1HyCoord]\n            )\n        );\n\n        return equation_holds;\n    }\n\n    function computeProofChallengeScalar(\n        UmbralDeserializer.Capsule memory _capsule,\n        UmbralDeserializer.CapsuleFrag memory _cFrag\n    ) internal pure returns (uint256) {\n\n        // Compute h = hash_to_bignum(e, e1, e2, v, v1, v2, u, u1, u2, metadata)\n        bytes memory hashInput = abi.encodePacked(\n            // Point E\n            _capsule.pointE.sign,\n            _capsule.pointE.xCoord,\n            // Point E1\n            _cFrag.pointE1.sign,\n            _cFrag.pointE1.xCoord,\n            // Point E2\n            _cFrag.proof.pointE2.sign,\n            _cFrag.proof.pointE2.xCoord\n        );\n\n        hashInput = abi.encodePacked(\n            hashInput,\n            // Point V\n            _capsule.pointV.sign,\n            _capsule.pointV.xCoord,\n            // Point V1\n            _cFrag.pointV1.sign,\n            _cFrag.pointV1.xCoord,\n            // Point V2\n            _cFrag.proof.pointV2.sign,\n            _cFrag.proof.pointV2.xCoord\n        );\n\n        hashInput = abi.encodePacked(\n            hashInput,\n            // Point U\n            bytes1(UMBRAL_PARAMETER_U_SIGN),\n            bytes32(UMBRAL_PARAMETER_U_XCOORD),\n            // Point U1\n            _cFrag.proof.pointKFragCommitment.sign,\n            _cFrag.proof.pointKFragCommitment.xCoord,\n            // Point U2\n            _cFrag.proof.pointKFragPok.sign,\n            _cFrag.proof.pointKFragPok.xCoord,\n            // Re-encryption metadata\n            _cFrag.proof.metadata\n        );\n\n        uint256 h = extendedKeccakToBN(hashInput);\n        return h;\n\n    }\n\n    function extendedKeccakToBN (bytes memory _data) internal pure returns (uint256) {\n\n        bytes32 upper;\n        bytes32 lower;\n\n        // Umbral prepends to the data a customization string of 64-bytes.\n        // In the case of hash_to_curvebn is 'hash_to_curvebn', padded with zeroes.\n        bytes memory input = abi.encodePacked(bytes32(\"hash_to_curvebn\"), bytes32(0x00), _data);\n\n        (upper, lower) = (keccak256(abi.encodePacked(uint8(0x00), input)),\n                          keccak256(abi.encodePacked(uint8(0x01), input)));\n\n        // Let n be the order of secp256k1's group (n = 2^256 - 0x1000003D1)\n        // n_minus_1 = n - 1\n        // delta = 2^256 mod n_minus_1\n        uint256 delta = 0x14551231950b75fc4402da1732fc9bec0;\n        uint256 n_minus_1 = 0xfffffffffffffffffffffffffffffffebaaedce6af48a03bbfd25e8cd0364140;\n\n        uint256 upper_half = mulmod(uint256(upper), delta, n_minus_1);\n        return 1 + addmod(upper_half, uint256(lower), n_minus_1);\n    }\n\n    /// @notice Tests if a compressed point is valid, wrt to its corresponding Y coordinate\n    /// @param _pointSign The sign byte from the compressed notation: 0x02 if the Y coord is even; 0x03 otherwise\n    /// @param _pointX The X coordinate of an EC point in affine representation\n    /// @param _pointY The Y coordinate of an EC point in affine representation\n    /// @return true iff _pointSign and _pointX are the compressed representation of (_pointX, _pointY)\n\tfunction checkCompressedPoint(\n\t\tuint8 _pointSign,\n\t\tuint256 _pointX,\n\t\tuint256 _pointY\n\t) internal pure returns(bool) {\n\t\tbool correct_sign = _pointY % 2 == _pointSign - 2;\n\t\treturn correct_sign && isOnCurve(_pointX, _pointY);\n\t}\n\n    /// @notice Tests if the given serialized coordinates represent a valid EC point\n    /// @param _coords The concatenation of serialized X and Y coordinates\n    /// @return true iff coordinates X and Y are a valid point\n    function checkSerializedCoordinates(bytes memory _coords) internal pure returns(bool) {\n        require(_coords.length == 64, \"Serialized coordinates should be 64 B\");\n        uint256 coordX;\n        uint256 coordY;\n        assembly {\n            coordX := mload(add(_coords, 32))\n            coordY := mload(add(_coords, 64))\n        }\n\t\treturn isOnCurve(coordX, coordY);\n\t}\n\n    /// @notice Tests if a point is on the secp256k1 curve\n    /// @param Px The X coordinate of an EC point in affine representation\n    /// @param Py The Y coordinate of an EC point in affine representation\n    /// @return true if (Px, Py) is a valid secp256k1 point; false otherwise\n    function isOnCurve(uint256 Px, uint256 Py) internal pure returns (bool) {\n        uint256 p = FIELD_ORDER;\n\n        if (Px >= p || Py >= p){\n            return false;\n        }\n\n        uint256 y2 = mulmod(Py, Py, p);\n        uint256 x3_plus_7 = addmod(mulmod(mulmod(Px, Px, p), Px, p), 7, p);\n        return y2 == x3_plus_7;\n    }\n\n    // https://ethresear.ch/t/you-can-kinda-abuse-ecrecover-to-do-ecmul-in-secp256k1-today/2384/4\n    function ecmulVerify(\n    \tuint256 x1,\n    \tuint256 y1,\n    \tuint256 scalar,\n    \tuint256 qx,\n    \tuint256 qy\n    ) internal pure returns(bool) {\n\t    uint256 curve_order = 0xFFFFFFFFFFFFFFFFFFFFFFFFFFFFFFFEBAAEDCE6AF48A03BBFD25E8CD0364141;\n\t    address signer = ecrecover(0, uint8(27 + (y1 % 2)), bytes32(x1), bytes32(mulmod(scalar, x1, curve_order)));\n\t    address xyAddress = address(uint160(uint256(keccak256(abi.encodePacked(qx, qy))) & 0x00FFFFFFFFFFFFFFFFFFFFFFFFFFFFFFFFFFFFFFFF));\n\t    return xyAddress == signer;\n\t}\n\n    /// @notice Equality test of two points, in affine and Jacobian coordinates respectively\n    /// @param P An EC point in affine coordinates\n    /// @param Q An EC point in Jacobian coordinates\n    /// @return true if P and Q represent the same point in affine coordinates; false otherwise\n    function eqAffineJacobian(\n    \tuint256[2] memory P,\n    \tuint256[3] memory Q\n    ) internal pure returns(bool){\n        uint256 Qz = Q[2];\n        if(Qz == 0){\n            return false;       // Q is zero but P isn't.\n        }\n\n        uint256 p = FIELD_ORDER;\n        uint256 Q_z_squared = mulmod(Qz, Qz, p);\n        return mulmod(P[0], Q_z_squared, p) == Q[0] && mulmod(P[1], mulmod(Q_z_squared, Qz, p), p) == Q[1];\n\n    }\n\n    /// @notice Adds two points in affine coordinates, with the result in Jacobian\n    /// @dev Based on the addition formulas from http://www.hyperelliptic.org/EFD/g1p/auto-code/shortw/jacobian-0/addition/add-2001-b.op3\n    /// @param P An EC point in affine coordinates\n    /// @param Q An EC point in affine coordinates\n    /// @return R An EC point in Jacobian coordinates with the sum, represented by an array of 3 uint256\n    function addAffineJacobian(\n    \tuint[2] memory P,\n    \tuint[2] memory Q\n    ) internal pure returns (uint[3] memory R) {\n\n        uint256 p = FIELD_ORDER;\n        uint256 a   = P[0];\n        uint256 c   = P[1];\n        uint256 t0  = Q[0];\n        uint256 t1  = Q[1];\n\n        if ((a == t0) && (c == t1)){\n            return doubleJacobian([a, c, 1]);\n        }\n        uint256 d = addmod(t1, p-c, p); // d = t1 - c\n        uint256 b = addmod(t0, p-a, p); // b = t0 - a\n        uint256 e = mulmod(b, b, p); // e = b^2\n        uint256 f = mulmod(e, b, p);  // f = b^3\n        uint256 g = mulmod(a, e, p);\n        R[0] = addmod(mulmod(d, d, p), p-addmod(mulmod(2, g, p), f, p), p);\n        R[1] = addmod(mulmod(d, addmod(g, p-R[0], p), p), p-mulmod(c, f, p), p);\n        R[2] = b;\n    }\n\n    /// @notice Point doubling in Jacobian coordinates\n    /// @param P An EC point in Jacobian coordinates.\n    /// @return Q An EC point in Jacobian coordinates\n    function doubleJacobian(uint[3] memory P) internal pure returns (uint[3] memory Q) {\n        uint256 z = P[2];\n        if (z == 0)\n            return Q;\n        uint256 p = FIELD_ORDER;\n        uint256 x = P[0];\n        uint256 _2y = mulmod(2, P[1], p);\n        uint256 _4yy = mulmod(_2y, _2y, p);\n        uint256 s = mulmod(_4yy, x, p);\n        uint256 m = mulmod(3, mulmod(x, x, p), p);\n        uint256 t = addmod(mulmod(m, m, p), mulmod(MINUS_2, s, p),p);\n        Q[0] = t;\n        Q[1] = addmod(mulmod(m, addmod(s, p - t, p), p), mulmod(MINUS_ONE_HALF, mulmod(_4yy, _4yy, p), p), p);\n        Q[2] = mulmod(_2y, z, p);\n    }\n}\n",
  "sourcePath": "contracts/contracts/lib/ReEncryptionValidator.sol",
  "type": "library"
}