{
  "abi": [
    {
      "inputs": [
        {
          "internalType": "contract IStaking",
          "name": "_tStaking",
          "type": "address"
        },
        {
          "internalType": "uint256",
          "name": "_minAuthorization",
          "type": "uint256"
        },
        {
          "internalType": "uint256",
          "name": "_minOperatorSeconds",
          "type": "uint256"
        }
      ],
      "stateMutability": "nonpayable",
      "type": "constructor"
    },
    {
      "anonymous": false,
      "inputs": [
        {
          "indexed": true,
          "internalType": "address",
          "name": "stakingProvider",
          "type": "address"
        },
        {
          "indexed": true,
          "internalType": "address",
          "name": "operator",
          "type": "address"
        },
        {
          "indexed": false,
          "internalType": "uint256",
          "name": "startTimestamp",
          "type": "uint256"
        }
      ],
      "name": "OperatorBonded",
      "type": "event"
    },
    {
      "anonymous": false,
      "inputs": [
        {
          "indexed": true,
          "internalType": "address",
          "name": "stakingProvider",
          "type": "address"
        },
        {
          "indexed": true,
          "internalType": "address",
          "name": "operator",
          "type": "address"
        }
      ],
      "name": "OperatorConfirmed",
      "type": "event"
    },
    {
      "inputs": [
        {
          "internalType": "address",
          "name": "_stakingProvider",
          "type": "address"
        }
      ],
      "name": "authorizedStake",
      "outputs": [
        {
          "internalType": "uint96",
          "name": "",
          "type": "uint96"
        }
      ],
      "stateMutability": "view",
      "type": "function"
    },
    {
      "inputs": [
        {
          "internalType": "address",
          "name": "_stakingProvider",
          "type": "address"
        },
        {
          "internalType": "address",
          "name": "_operator",
          "type": "address"
        }
      ],
      "name": "bondOperator",
      "outputs": [],
      "stateMutability": "nonpayable",
      "type": "function"
    },
    {
      "inputs": [],
      "name": "confirmOperatorAddress",
      "outputs": [],
      "stateMutability": "nonpayable",
      "type": "function"
    },
    {
      "inputs": [
        {
          "internalType": "uint256",
          "name": "_startIndex",
          "type": "uint256"
        },
        {
          "internalType": "uint256",
          "name": "_maxStakingProviders",
          "type": "uint256"
        }
      ],
      "name": "getActiveStakingProviders",
      "outputs": [
        {
          "internalType": "uint256",
          "name": "allAuthorizedTokens",
          "type": "uint256"
        },
        {
          "internalType": "uint256[2][]",
          "name": "activeStakingProviders",
          "type": "uint256[2][]"
        }
      ],
      "stateMutability": "view",
      "type": "function"
    },
    {
      "inputs": [
        {
          "internalType": "address",
          "name": "_stakingProvider",
          "type": "address"
        }
      ],
      "name": "getBeneficiary",
      "outputs": [
        {
          "internalType": "address payable",
          "name": "beneficiary",
          "type": "address"
        }
      ],
      "stateMutability": "view",
      "type": "function"
    },
    {
      "inputs": [
        {
          "internalType": "address",
          "name": "_stakingProvider",
          "type": "address"
        }
      ],
      "name": "getOperatorFromStakingProvider",
      "outputs": [
        {
          "internalType": "address",
          "name": "",
          "type": "address"
        }
      ],
      "stateMutability": "view",
      "type": "function"
    },
    {
      "inputs": [],
      "name": "getStakingProvidersLength",
      "outputs": [
        {
          "internalType": "uint256",
          "name": "",
          "type": "uint256"
        }
      ],
      "stateMutability": "view",
      "type": "function"
    },
    {
      "inputs": [
        {
          "internalType": "address",
          "name": "_stakingProvider",
          "type": "address"
        }
      ],
      "name": "isAuthorized",
      "outputs": [
        {
          "internalType": "bool",
          "name": "",
          "type": "bool"
        }
      ],
      "stateMutability": "view",
      "type": "function"
    },
    {
      "inputs": [
        {
          "internalType": "address",
          "name": "_operator",
          "type": "address"
        }
      ],
      "name": "isOperatorConfirmed",
      "outputs": [
        {
          "internalType": "bool",
          "name": "",
          "type": "bool"
        }
      ],
      "stateMutability": "view",
      "type": "function"
    },
    {
      "inputs": [],
      "name": "minAuthorization",
      "outputs": [
        {
          "internalType": "uint256",
          "name": "",
          "type": "uint256"
        }
      ],
      "stateMutability": "view",
      "type": "function"
    },
    {
      "inputs": [],
      "name": "minOperatorSeconds",
      "outputs": [
        {
          "internalType": "uint256",
          "name": "",
          "type": "uint256"
        }
      ],
      "stateMutability": "view",
      "type": "function"
    },
    {
      "inputs": [
        {
          "internalType": "address",
          "name": "_operator",
          "type": "address"
        }
      ],
      "name": "stakingProviderFromOperator",
      "outputs": [
        {
          "internalType": "address",
          "name": "",
          "type": "address"
        }
      ],
      "stateMutability": "view",
      "type": "function"
    },
    {
      "inputs": [
        {
          "internalType": "address",
          "name": "",
          "type": "address"
        }
      ],
      "name": "stakingProviderInfo",
      "outputs": [
        {
          "internalType": "address",
          "name": "operator",
          "type": "address"
        },
        {
          "internalType": "bool",
          "name": "operatorConfirmed",
          "type": "bool"
        },
        {
          "internalType": "uint256",
          "name": "operatorStartTimestamp",
          "type": "uint256"
        }
      ],
      "stateMutability": "view",
      "type": "function"
    },
    {
      "inputs": [
        {
          "internalType": "uint256",
          "name": "",
          "type": "uint256"
        }
      ],
      "name": "stakingProviders",
      "outputs": [
        {
          "internalType": "address",
          "name": "",
          "type": "address"
        }
      ],
      "stateMutability": "view",
      "type": "function"
    },
    {
      "inputs": [],
      "name": "tStaking",
      "outputs": [
        {
          "internalType": "contract IStaking",
          "name": "",
          "type": "address"
        }
      ],
      "stateMutability": "view",
      "type": "function"
    }
  ],
  "bytecode": "60e060405234801561001057600080fd5b5060405161122238038061122283398101604081905261002f91610114565b604051637004922d60e11b8152306004820181905260248201526001600160a01b0384169063e009245a90604401602060405180830381865afa15801561007a573d6000803e3d6000fd5b505050506040513d601f19601f8201168201806040525081019061009e9190610157565b6001600160601b0316156100f85760405162461bcd60e51b815260206004820152601660248201527f57726f6e6720696e70757420706172616d657465727300000000000000000000604482015260640160405180910390fd5b6080919091526001600160a01b0390911660c05260a052610187565b60008060006060848603121561012957600080fd5b83516001600160a01b038116811461014057600080fd5b602085015160409095015190969495509392505050565b60006020828403121561016957600080fd5b81516001600160601b038116811461018057600080fd5b9392505050565b60805160a05160c0516110426101e0600039600081816102ce015281816103d5015281816107fe0152610a800152600081816101d2015261054101526000818161026101528181610c430152610d3001526110426000f3fe608060405234801561001057600080fd5b50600436106100f55760003560e01c80638c97f55811610097578063dbaa0fc611610066578063dbaa0fc6146102c9578063dca53b00146102f0578063e58e018e1461031c578063fe9fbb801461033d57600080fd5b80638c97f5581461025c5780639cafa103146102835780639f79512514610296578063c4903d5b1461029e57600080fd5b806369b99261116100d357806369b99261146101a157806369bdf9e4146101cd5780637dbee7a31461020257806386f690141461025457600080fd5b806302132c01146100fa5780630ceff8c81461010f578063505a1b3114610176575b600080fd5b61010d610108366004610d9f565b610350565b005b61014c61011d366004610dd8565b600060208190529081526040902080546001909101546001600160a01b03821691600160a01b900460ff169083565b604080516001600160a01b0390941684529115156020840152908201526060015b60405180910390f35b610189610184366004610dd8565b6107dc565b6040516001600160a01b03909116815260200161016d565b6101896101af366004610dd8565b6001600160a01b039081166000908152602081905260409020541690565b6101f47f000000000000000000000000000000000000000000000000000000000000000081565b60405190815260200161016d565b610244610210366004610dd8565b6001600160a01b0390811660009081526002602090815260408083205490931682528190522054600160a01b900460ff1690565b604051901515815260200161016d565b6001546101f4565b6101f47f000000000000000000000000000000000000000000000000000000000000000081565b610189610291366004610dfc565b610873565b61010d61089d565b6102b16102ac366004610dd8565b610a58565b6040516001600160601b03909116815260200161016d565b6101897f000000000000000000000000000000000000000000000000000000000000000081565b6101896102fe366004610dd8565b6001600160a01b039081166000908152600260205260409020541690565b61032f61032a366004610e15565b610b10565b60405161016d929190610e37565b61024461034b366004610dd8565b610d2c565b8161035a81610d2c565b6103a35760405162461bcd60e51b81526020600482015260156024820152742737ba1037bbb732b91037b910383937bb34b232b960591b60448201526064015b60405180910390fd5b6001600160a01b038116331461049957604051632de9480760e01b81526001600160a01b0382811660048301526000917f000000000000000000000000000000000000000000000000000000000000000090911690632de9480790602401606060405180830381865afa15801561041e573d6000803e3d6000fd5b505050506040513d601f19601f820116820180604052508101906104429190610ea9565b50909150506001600160a01b03811633146104975760405162461bcd60e51b81526020600482015260156024820152742737ba1037bbb732b91037b910383937bb34b232b960591b604482015260640161039a565b505b6001600160a01b038084166000908152602081905260409020805490918481169116141561052f5760405162461bcd60e51b815260206004820152603760248201527f537065636966696564206f70657261746f7220697320616c726561647920626f60448201527f6e646564207769746820746869732070726f7669646572000000000000000000606482015260840161039a565b80546001600160a01b0316156105f8577f0000000000000000000000000000000000000000000000000000000000000000816001015461056f9190610f0c565b4210156105d05760405162461bcd60e51b815260206004820152602960248201527f4e6f7420656e6f7567682074696d652070617373656420746f206368616e67656044820152681037b832b930ba37b960b91b606482015260840161039a565b80546001600160a01b0316600090815260026020526040902080546001600160a01b03191690555b6001600160a01b03831615610727576001600160a01b03838116600090815260026020526040902054161561067b5760405162461bcd60e51b8152602060048201526024808201527f537065636966696564206f70657261746f7220697320616c726561647920696e6044820152632075736560e01b606482015260840161039a565b836001600160a01b0316836001600160a01b031614806106ac575060006106a1846107dc565b6001600160a01b0316145b6106f85760405162461bcd60e51b815260206004820181905260248201527f537065636966696564206f70657261746f7220697320612070726f7669646572604482015260640161039a565b6001600160a01b03838116600090815260026020526040902080546001600160a01b0319169186169190911790555b600181015461077b576001805480820182556000919091527fb10e2d527612073b26eecdfd717e6a320cf44b4afac2b0732d9fcbe2b7fa0cf60180546001600160a01b0319166001600160a01b0386161790555b805442600183018190556001600160a01b038581166001600160a81b0319909316831784556040519182528616907f08867fad28cac2af93e4e51db79555bf60310e6c11e5987987be9d8ecedb24219060200160405180910390a350505050565b604051632de9480760e01b81526001600160a01b0382811660048301526000917f000000000000000000000000000000000000000000000000000000000000000090911690632de9480790602401606060405180830381865afa158015610847573d6000803e3d6000fd5b505050506040513d601f19601f8201168201806040525081019061086b9190610ea9565b509392505050565b6001818154811061088357600080fd5b6000918252602090912001546001600160a01b0316905081565b336000908152600260205260409020546001600160a01b03166108bf81610d2c565b6109195760405162461bcd60e51b815260206004820152602560248201527f4e6f207374616b65206173736f636961746564207769746820746865206f70656044820152643930ba37b960d91b606482015260840161039a565b6001600160a01b03811660009081526020819052604090208054600160a01b900460ff16156109985760405162461bcd60e51b815260206004820152602560248201527f4f70657261746f72206164647265737320697320616c726561647920636f6e666044820152641a5c9b595960da1b606482015260840161039a565b333214610a0d5760405162461bcd60e51b815260206004820152603760248201527f4f6e6c79206f70657261746f722077697468207265616c20616464726573732060448201527f63616e206d616b65206120636f6e6669726d6174696f6e000000000000000000606482015260840161039a565b805460ff60a01b1916600160a01b17815560405133906001600160a01b038416907fdbc602361eaa7fb503df3c16078c71b39d28412df5e9980bec6f489f78bb175c90600090a35050565b6040516305a4d3f160e21b81526001600160a01b0382811660048301526000918291829182917f000000000000000000000000000000000000000000000000000000000000000016906316934fc490602401606060405180830381865afa158015610ac7573d6000803e3d6000fd5b505050506040513d601f19601f82011682018060405250810190610aeb9190610f40565b9194509250905080610afd8385610f83565b610b079190610f83565b95945050505050565b600154600090606090808510610b5c5760405162461bcd60e51b81526020600482015260116024820152700aee4dedcce40e6e8c2e4e840d2dcc8caf607b1b604482015260640161039a565b8315801590610b73575080610b718587610f0c565b105b15610b8557610b828486610f0c565b90505b610b8f8582610fae565b67ffffffffffffffff811115610ba757610ba7610fc5565b604051908082528060200260200182016040528015610be057816020015b610bcd610d69565b815260200190600190039081610bc55790505b5060009350915082855b82811015610d1f57600060018281548110610c0757610c07610fdb565b60009182526020808320909101546001600160a01b0316808352908290526040822090925090610c3683610a58565b6001600160601b031690507f0000000000000000000000000000000000000000000000000000000000000000811080610c7857508154600160a01b900460ff16155b15610c8557505050610d0d565b826001600160a01b0316878681518110610ca157610ca1610fdb565b6020026020010151600060028110610cbb57610cbb610fdb565b6020020152808786610ccc81610ff1565b975081518110610cde57610cde610fdb565b6020026020010151600160028110610cf857610cf8610fdb565b6020020152610d078189610f0c565b97505050505b80610d1781610ff1565b915050610bea565b5080835250509250929050565b60007f0000000000000000000000000000000000000000000000000000000000000000610d5883610a58565b6001600160601b0316101592915050565b60405180604001604052806002906020820280368337509192915050565b6001600160a01b0381168114610d9c57600080fd5b50565b60008060408385031215610db257600080fd5b8235610dbd81610d87565b91506020830135610dcd81610d87565b809150509250929050565b600060208284031215610dea57600080fd5b8135610df581610d87565b9392505050565b600060208284031215610e0e57600080fd5b5035919050565b60008060408385031215610e2857600080fd5b50508035926020909101359150565b600060408083018584526020828186015281865180845260608701915082880193506000805b82811015610e9a57855184835b6002811015610e8757825182529187019190870190600101610e6a565b5050509484019492860192600101610e5d565b50919998505050505050505050565b600080600060608486031215610ebe57600080fd5b8351610ec981610d87565b6020850151909350610eda81610d87565b6040850151909250610eeb81610d87565b809150509250925092565b634e487b7160e01b600052601160045260246000fd5b60008219821115610f1f57610f1f610ef6565b500190565b80516001600160601b0381168114610f3b57600080fd5b919050565b600080600060608486031215610f5557600080fd5b610f5e84610f24565b9250610f6c60208501610f24565b9150610f7a60408501610f24565b90509250925092565b60006001600160601b03808316818516808303821115610fa557610fa5610ef6565b01949350505050565b600082821015610fc057610fc0610ef6565b500390565b634e487b7160e01b600052604160045260246000fd5b634e487b7160e01b600052603260045260246000fd5b600060001982141561100557611005610ef6565b506001019056fea26469706673582212208bc07974e0ca26ab04df6f1c457651f95de2c214bfcd2e265a35ddf13605cb5864736f6c634300080a0033",
  "bytecodeSha1": "f27e8c58e68f75d964d83f87e059241b40b3ce87",
  "compiler": {
    "evm_version": "istanbul",
    "optimizer": {
      "enabled": true,
      "runs": 200
    },
    "version": "0.8.10+commit.fc410830"
  },
  "contractName": "SimplePREApplication",
  "language": "Solidity",
  "natspec": {
    "kind": "dev",
    "methods": {
      "authorizedStake(address)": {
        "notice": "Get all tokens delegated to the staking provider"
      },
      "bondOperator(address,address)": {
        "notice": "Bond operator",
        "params": {
          "_operator": "Operator address. Must be a real address, not a contract",
          "_stakingProvider": "Staking provider address"
        }
      },
      "confirmOperatorAddress()": {
        "notice": "Make a confirmation by operator"
      },
      "constructor": {
        "notice": "Constructor sets address of token contract and parameters for staking",
        "params": {
          "_minAuthorization": "Amount of minimum allowable authorization",
          "_minOperatorSeconds": "Min amount of seconds while an operator can't be changed",
          "_tStaking": "T token staking contract"
        }
      },
      "getActiveStakingProviders(uint256,uint256)": {
        "details": "Note that activeStakingProviders[0] is an array of uint256, but you want addresses. Careful when used directly!",
        "notice": "Get the value of authorized tokens for active providers as well as providers and their authorized tokens",
        "params": {
          "_maxStakingProviders": "Max providers for looking, if set 0 then all will be used",
          "_startIndex": "Start index for looking in providers array"
        },
        "returns": {
          "activeStakingProviders": "Array of providers and their authorized tokens. Providers addresses stored as uint256",
          "allAuthorizedTokens": "Sum of authorized tokens for active providers"
        }
      },
      "getBeneficiary(address)": {
        "notice": "Returns beneficiary related to the staking provider"
      },
      "getOperatorFromStakingProvider(address)": {
        "notice": "Returns operator for specified staking provider"
      },
      "getStakingProvidersLength()": {
        "notice": "Return the length of the array of staking providers"
      },
      "isAuthorized(address)": {
        "notice": "Returns true if staking provider has authorized stake to this application"
      },
      "isOperatorConfirmed(address)": {
        "notice": "Returns true if operator has confirmed address"
      },
      "stakingProviderFromOperator(address)": {
        "notice": "Returns staking provider for specified operator"
      }
    },
    "notice": "Contract handles PRE configuration",
    "title": "PRE Application",
    "version": 1
  },
  "opcodes": "PUSH1 0x80 PUSH1 0x40 MSTORE CALLVALUE DUP1 ISZERO PUSH2 0x10 JUMPI PUSH1 0x0 DUP1 REVERT JUMPDEST POP PUSH1 0x4 CALLDATASIZE LT PUSH2 0xF5 JUMPI PUSH1 0x0 CALLDATALOAD PUSH1 0xE0 SHR DUP1 PUSH4 0x8C97F558 GT PUSH2 0x97 JUMPI DUP1 PUSH4 0xDBAA0FC6 GT PUSH2 0x66 JUMPI DUP1 PUSH4 0xDBAA0FC6 EQ PUSH2 0x2C9 JUMPI DUP1 PUSH4 0xDCA53B00 EQ PUSH2 0x2F0 JUMPI DUP1 PUSH4 0xE58E018E EQ PUSH2 0x31C JUMPI DUP1 PUSH4 0xFE9FBB80 EQ PUSH2 0x33D JUMPI PUSH1 0x0 DUP1 REVERT JUMPDEST DUP1 PUSH4 0x8C97F558 EQ PUSH2 0x25C JUMPI DUP1 PUSH4 0x9CAFA103 EQ PUSH2 0x283 JUMPI DUP1 PUSH4 0x9F795125 EQ PUSH2 0x296 JUMPI DUP1 PUSH4 0xC4903D5B EQ PUSH2 0x29E JUMPI PUSH1 0x0 DUP1 REVERT JUMPDEST DUP1 PUSH4 0x69B99261 GT PUSH2 0xD3 JUMPI DUP1 PUSH4 0x69B99261 EQ PUSH2 0x1A1 JUMPI DUP1 PUSH4 0x69BDF9E4 EQ PUSH2 0x1CD JUMPI DUP1 PUSH4 0x7DBEE7A3 EQ PUSH2 0x202 JUMPI DUP1 PUSH4 0x86F69014 EQ PUSH2 0x254 JUMPI PUSH1 0x0 DUP1 REVERT JUMPDEST DUP1 PUSH4 0x2132C01 EQ PUSH2 0xFA JUMPI DUP1 PUSH4 0xCEFF8C8 EQ PUSH2 0x10F JUMPI DUP1 PUSH4 0x505A1B31 EQ PUSH2 0x176 JUMPI JUMPDEST PUSH1 0x0 DUP1 REVERT JUMPDEST PUSH2 0x10D PUSH2 0x108 CALLDATASIZE PUSH1 0x4 PUSH2 0xD9F JUMP JUMPDEST PUSH2 0x350 JUMP JUMPDEST STOP JUMPDEST PUSH2 0x14C PUSH2 0x11D CALLDATASIZE PUSH1 0x4 PUSH2 0xDD8 JUMP JUMPDEST PUSH1 0x0 PUSH1 0x20 DUP2 SWAP1 MSTORE SWAP1 DUP2 MSTORE PUSH1 0x40 SWAP1 KECCAK256 DUP1 SLOAD PUSH1 0x1 SWAP1 SWAP2 ADD SLOAD PUSH1 0x1 PUSH1 0x1 PUSH1 0xA0 SHL SUB DUP3 AND SWAP2 PUSH1 0x1 PUSH1 0xA0 SHL SWAP1 DIV PUSH1 0xFF AND SWAP1 DUP4 JUMP JUMPDEST PUSH1 0x40 DUP1 MLOAD PUSH1 0x1 PUSH1 0x1 PUSH1 0xA0 SHL SUB SWAP1 SWAP5 AND DUP5 MSTORE SWAP2 ISZERO ISZERO PUSH1 0x20 DUP5 ADD MSTORE SWAP1 DUP3 ADD MSTORE PUSH1 0x60 ADD JUMPDEST PUSH1 0x40 MLOAD DUP1 SWAP2 SUB SWAP1 RETURN JUMPDEST PUSH2 0x189 PUSH2 0x184 CALLDATASIZE PUSH1 0x4 PUSH2 0xDD8 JUMP JUMPDEST PUSH2 0x7DC JUMP JUMPDEST PUSH1 0x40 MLOAD PUSH1 0x1 PUSH1 0x1 PUSH1 0xA0 SHL SUB SWAP1 SWAP2 AND DUP2 MSTORE PUSH1 0x20 ADD PUSH2 0x16D JUMP JUMPDEST PUSH2 0x189 PUSH2 0x1AF CALLDATASIZE PUSH1 0x4 PUSH2 0xDD8 JUMP JUMPDEST PUSH1 0x1 PUSH1 0x1 PUSH1 0xA0 SHL SUB SWAP1 DUP2 AND PUSH1 0x0 SWAP1 DUP2 MSTORE PUSH1 0x20 DUP2 SWAP1 MSTORE PUSH1 0x40 SWAP1 KECCAK256 SLOAD AND SWAP1 JUMP JUMPDEST PUSH2 0x1F4 PUSH32 0x0 DUP2 JUMP JUMPDEST PUSH1 0x40 MLOAD SWAP1 DUP2 MSTORE PUSH1 0x20 ADD PUSH2 0x16D JUMP JUMPDEST PUSH2 0x244 PUSH2 0x210 CALLDATASIZE PUSH1 0x4 PUSH2 0xDD8 JUMP JUMPDEST PUSH1 0x1 PUSH1 0x1 PUSH1 0xA0 SHL SUB SWAP1 DUP2 AND PUSH1 0x0 SWAP1 DUP2 MSTORE PUSH1 0x2 PUSH1 0x20 SWAP1 DUP2 MSTORE PUSH1 0x40 DUP1 DUP4 KECCAK256 SLOAD SWAP1 SWAP4 AND DUP3 MSTORE DUP2 SWAP1 MSTORE KECCAK256 SLOAD PUSH1 0x1 PUSH1 0xA0 SHL SWAP1 DIV PUSH1 0xFF AND SWAP1 JUMP JUMPDEST PUSH1 0x40 MLOAD SWAP1 ISZERO ISZERO DUP2 MSTORE PUSH1 0x20 ADD PUSH2 0x16D JUMP JUMPDEST PUSH1 0x1 SLOAD PUSH2 0x1F4 JUMP JUMPDEST PUSH2 0x1F4 PUSH32 0x0 DUP2 JUMP JUMPDEST PUSH2 0x189 PUSH2 0x291 CALLDATASIZE PUSH1 0x4 PUSH2 0xDFC JUMP JUMPDEST PUSH2 0x873 JUMP JUMPDEST PUSH2 0x10D PUSH2 0x89D JUMP JUMPDEST PUSH2 0x2B1 PUSH2 0x2AC CALLDATASIZE PUSH1 0x4 PUSH2 0xDD8 JUMP JUMPDEST PUSH2 0xA58 JUMP JUMPDEST PUSH1 0x40 MLOAD PUSH1 0x1 PUSH1 0x1 PUSH1 0x60 SHL SUB SWAP1 SWAP2 AND DUP2 MSTORE PUSH1 0x20 ADD PUSH2 0x16D JUMP JUMPDEST PUSH2 0x189 PUSH32 0x0 DUP2 JUMP JUMPDEST PUSH2 0x189 PUSH2 0x2FE CALLDATASIZE PUSH1 0x4 PUSH2 0xDD8 JUMP JUMPDEST PUSH1 0x1 PUSH1 0x1 PUSH1 0xA0 SHL SUB SWAP1 DUP2 AND PUSH1 0x0 SWAP1 DUP2 MSTORE PUSH1 0x2 PUSH1 0x20 MSTORE PUSH1 0x40 SWAP1 KECCAK256 SLOAD AND SWAP1 JUMP JUMPDEST PUSH2 0x32F PUSH2 0x32A CALLDATASIZE PUSH1 0x4 PUSH2 0xE15 JUMP JUMPDEST PUSH2 0xB10 JUMP JUMPDEST PUSH1 0x40 MLOAD PUSH2 0x16D SWAP3 SWAP2 SWAP1 PUSH2 0xE37 JUMP JUMPDEST PUSH2 0x244 PUSH2 0x34B CALLDATASIZE PUSH1 0x4 PUSH2 0xDD8 JUMP JUMPDEST PUSH2 0xD2C JUMP JUMPDEST DUP2 PUSH2 0x35A DUP2 PUSH2 0xD2C JUMP JUMPDEST PUSH2 0x3A3 JUMPI PUSH1 0x40 MLOAD PUSH3 0x461BCD PUSH1 0xE5 SHL DUP2 MSTORE PUSH1 0x20 PUSH1 0x4 DUP3 ADD MSTORE PUSH1 0x15 PUSH1 0x24 DUP3 ADD MSTORE PUSH21 0x2737BA1037BBB732B91037B910383937BB34B232B9 PUSH1 0x59 SHL PUSH1 0x44 DUP3 ADD MSTORE PUSH1 0x64 ADD JUMPDEST PUSH1 0x40 MLOAD DUP1 SWAP2 SUB SWAP1 REVERT JUMPDEST PUSH1 0x1 PUSH1 0x1 PUSH1 0xA0 SHL SUB DUP2 AND CALLER EQ PUSH2 0x499 JUMPI PUSH1 0x40 MLOAD PUSH4 0x2DE94807 PUSH1 0xE0 SHL DUP2 MSTORE PUSH1 0x1 PUSH1 0x1 PUSH1 0xA0 SHL SUB DUP3 DUP2 AND PUSH1 0x4 DUP4 ADD MSTORE PUSH1 0x0 SWAP2 PUSH32 0x0 SWAP1 SWAP2 AND SWAP1 PUSH4 0x2DE94807 SWAP1 PUSH1 0x24 ADD PUSH1 0x60 PUSH1 0x40 MLOAD DUP1 DUP4 SUB DUP2 DUP7 GAS STATICCALL ISZERO DUP1 ISZERO PUSH2 0x41E JUMPI RETURNDATASIZE PUSH1 0x0 DUP1 RETURNDATACOPY RETURNDATASIZE PUSH1 0x0 REVERT JUMPDEST POP POP POP POP PUSH1 0x40 MLOAD RETURNDATASIZE PUSH1 0x1F NOT PUSH1 0x1F DUP3 ADD AND DUP3 ADD DUP1 PUSH1 0x40 MSTORE POP DUP2 ADD SWAP1 PUSH2 0x442 SWAP2 SWAP1 PUSH2 0xEA9 JUMP JUMPDEST POP SWAP1 SWAP2 POP POP PUSH1 0x1 PUSH1 0x1 PUSH1 0xA0 SHL SUB DUP2 AND CALLER EQ PUSH2 0x497 JUMPI PUSH1 0x40 MLOAD PUSH3 0x461BCD PUSH1 0xE5 SHL DUP2 MSTORE PUSH1 0x20 PUSH1 0x4 DUP3 ADD MSTORE PUSH1 0x15 PUSH1 0x24 DUP3 ADD MSTORE PUSH21 0x2737BA1037BBB732B91037B910383937BB34B232B9 PUSH1 0x59 SHL PUSH1 0x44 DUP3 ADD MSTORE PUSH1 0x64 ADD PUSH2 0x39A JUMP JUMPDEST POP JUMPDEST PUSH1 0x1 PUSH1 0x1 PUSH1 0xA0 SHL SUB DUP1 DUP5 AND PUSH1 0x0 SWAP1 DUP2 MSTORE PUSH1 0x20 DUP2 SWAP1 MSTORE PUSH1 0x40 SWAP1 KECCAK256 DUP1 SLOAD SWAP1 SWAP2 DUP5 DUP2 AND SWAP2 AND EQ ISZERO PUSH2 0x52F JUMPI PUSH1 0x40 MLOAD PUSH3 0x461BCD PUSH1 0xE5 SHL DUP2 MSTORE PUSH1 0x20 PUSH1 0x4 DUP3 ADD MSTORE PUSH1 0x37 PUSH1 0x24 DUP3 ADD MSTORE PUSH32 0x537065636966696564206F70657261746F7220697320616C726561647920626F PUSH1 0x44 DUP3 ADD MSTORE PUSH32 0x6E646564207769746820746869732070726F7669646572000000000000000000 PUSH1 0x64 DUP3 ADD MSTORE PUSH1 0x84 ADD PUSH2 0x39A JUMP JUMPDEST DUP1 SLOAD PUSH1 0x1 PUSH1 0x1 PUSH1 0xA0 SHL SUB AND ISZERO PUSH2 0x5F8 JUMPI PUSH32 0x0 DUP2 PUSH1 0x1 ADD SLOAD PUSH2 0x56F SWAP2 SWAP1 PUSH2 0xF0C JUMP JUMPDEST TIMESTAMP LT ISZERO PUSH2 0x5D0 JUMPI PUSH1 0x40 MLOAD PUSH3 0x461BCD PUSH1 0xE5 SHL DUP2 MSTORE PUSH1 0x20 PUSH1 0x4 DUP3 ADD MSTORE PUSH1 0x29 PUSH1 0x24 DUP3 ADD MSTORE PUSH32 0x4E6F7420656E6F7567682074696D652070617373656420746F206368616E6765 PUSH1 0x44 DUP3 ADD MSTORE PUSH9 0x1037B832B930BA37B9 PUSH1 0xB9 SHL PUSH1 0x64 DUP3 ADD MSTORE PUSH1 0x84 ADD PUSH2 0x39A JUMP JUMPDEST DUP1 SLOAD PUSH1 0x1 PUSH1 0x1 PUSH1 0xA0 SHL SUB AND PUSH1 0x0 SWAP1 DUP2 MSTORE PUSH1 0x2 PUSH1 0x20 MSTORE PUSH1 0x40 SWAP1 KECCAK256 DUP1 SLOAD PUSH1 0x1 PUSH1 0x1 PUSH1 0xA0 SHL SUB NOT AND SWAP1 SSTORE JUMPDEST PUSH1 0x1 PUSH1 0x1 PUSH1 0xA0 SHL SUB DUP4 AND ISZERO PUSH2 0x727 JUMPI PUSH1 0x1 PUSH1 0x1 PUSH1 0xA0 SHL SUB DUP4 DUP2 AND PUSH1 0x0 SWAP1 DUP2 MSTORE PUSH1 0x2 PUSH1 0x20 MSTORE PUSH1 0x40 SWAP1 KECCAK256 SLOAD AND ISZERO PUSH2 0x67B JUMPI PUSH1 0x40 MLOAD PUSH3 0x461BCD PUSH1 0xE5 SHL DUP2 MSTORE PUSH1 0x20 PUSH1 0x4 DUP3 ADD MSTORE PUSH1 0x24 DUP1 DUP3 ADD MSTORE PUSH32 0x537065636966696564206F70657261746F7220697320616C726561647920696E PUSH1 0x44 DUP3 ADD MSTORE PUSH4 0x20757365 PUSH1 0xE0 SHL PUSH1 0x64 DUP3 ADD MSTORE PUSH1 0x84 ADD PUSH2 0x39A JUMP JUMPDEST DUP4 PUSH1 0x1 PUSH1 0x1 PUSH1 0xA0 SHL SUB AND DUP4 PUSH1 0x1 PUSH1 0x1 PUSH1 0xA0 SHL SUB AND EQ DUP1 PUSH2 0x6AC JUMPI POP PUSH1 0x0 PUSH2 0x6A1 DUP5 PUSH2 0x7DC JUMP JUMPDEST PUSH1 0x1 PUSH1 0x1 PUSH1 0xA0 SHL SUB AND EQ JUMPDEST PUSH2 0x6F8 JUMPI PUSH1 0x40 MLOAD PUSH3 0x461BCD PUSH1 0xE5 SHL DUP2 MSTORE PUSH1 0x20 PUSH1 0x4 DUP3 ADD DUP2 SWAP1 MSTORE PUSH1 0x24 DUP3 ADD MSTORE PUSH32 0x537065636966696564206F70657261746F7220697320612070726F7669646572 PUSH1 0x44 DUP3 ADD MSTORE PUSH1 0x64 ADD PUSH2 0x39A JUMP JUMPDEST PUSH1 0x1 PUSH1 0x1 PUSH1 0xA0 SHL SUB DUP4 DUP2 AND PUSH1 0x0 SWAP1 DUP2 MSTORE PUSH1 0x2 PUSH1 0x20 MSTORE PUSH1 0x40 SWAP1 KECCAK256 DUP1 SLOAD PUSH1 0x1 PUSH1 0x1 PUSH1 0xA0 SHL SUB NOT AND SWAP2 DUP7 AND SWAP2 SWAP1 SWAP2 OR SWAP1 SSTORE JUMPDEST PUSH1 0x1 DUP2 ADD SLOAD PUSH2 0x77B JUMPI PUSH1 0x1 DUP1 SLOAD DUP1 DUP3 ADD DUP3 SSTORE PUSH1 0x0 SWAP2 SWAP1 SWAP2 MSTORE PUSH32 0xB10E2D527612073B26EECDFD717E6A320CF44B4AFAC2B0732D9FCBE2B7FA0CF6 ADD DUP1 SLOAD PUSH1 0x1 PUSH1 0x1 PUSH1 0xA0 SHL SUB NOT AND PUSH1 0x1 PUSH1 0x1 PUSH1 0xA0 SHL SUB DUP7 AND OR SWAP1 SSTORE JUMPDEST DUP1 SLOAD TIMESTAMP PUSH1 0x1 DUP4 ADD DUP2 SWAP1 SSTORE PUSH1 0x1 PUSH1 0x1 PUSH1 0xA0 SHL SUB DUP6 DUP2 AND PUSH1 0x1 PUSH1 0x1 PUSH1 0xA8 SHL SUB NOT SWAP1 SWAP4 AND DUP4 OR DUP5 SSTORE PUSH1 0x40 MLOAD SWAP2 DUP3 MSTORE DUP7 AND SWAP1 PUSH32 0x8867FAD28CAC2AF93E4E51DB79555BF60310E6C11E5987987BE9D8ECEDB2421 SWAP1 PUSH1 0x20 ADD PUSH1 0x40 MLOAD DUP1 SWAP2 SUB SWAP1 LOG3 POP POP POP POP JUMP JUMPDEST PUSH1 0x40 MLOAD PUSH4 0x2DE94807 PUSH1 0xE0 SHL DUP2 MSTORE PUSH1 0x1 PUSH1 0x1 PUSH1 0xA0 SHL SUB DUP3 DUP2 AND PUSH1 0x4 DUP4 ADD MSTORE PUSH1 0x0 SWAP2 PUSH32 0x0 SWAP1 SWAP2 AND SWAP1 PUSH4 0x2DE94807 SWAP1 PUSH1 0x24 ADD PUSH1 0x60 PUSH1 0x40 MLOAD DUP1 DUP4 SUB DUP2 DUP7 GAS STATICCALL ISZERO DUP1 ISZERO PUSH2 0x847 JUMPI RETURNDATASIZE PUSH1 0x0 DUP1 RETURNDATACOPY RETURNDATASIZE PUSH1 0x0 REVERT JUMPDEST POP POP POP POP PUSH1 0x40 MLOAD RETURNDATASIZE PUSH1 0x1F NOT PUSH1 0x1F DUP3 ADD AND DUP3 ADD DUP1 PUSH1 0x40 MSTORE POP DUP2 ADD SWAP1 PUSH2 0x86B SWAP2 SWAP1 PUSH2 0xEA9 JUMP JUMPDEST POP SWAP4 SWAP3 POP POP POP JUMP JUMPDEST PUSH1 0x1 DUP2 DUP2 SLOAD DUP2 LT PUSH2 0x883 JUMPI PUSH1 0x0 DUP1 REVERT JUMPDEST PUSH1 0x0 SWAP2 DUP3 MSTORE PUSH1 0x20 SWAP1 SWAP2 KECCAK256 ADD SLOAD PUSH1 0x1 PUSH1 0x1 PUSH1 0xA0 SHL SUB AND SWAP1 POP DUP2 JUMP JUMPDEST CALLER PUSH1 0x0 SWAP1 DUP2 MSTORE PUSH1 0x2 PUSH1 0x20 MSTORE PUSH1 0x40 SWAP1 KECCAK256 SLOAD PUSH1 0x1 PUSH1 0x1 PUSH1 0xA0 SHL SUB AND PUSH2 0x8BF DUP2 PUSH2 0xD2C JUMP JUMPDEST PUSH2 0x919 JUMPI PUSH1 0x40 MLOAD PUSH3 0x461BCD PUSH1 0xE5 SHL DUP2 MSTORE PUSH1 0x20 PUSH1 0x4 DUP3 ADD MSTORE PUSH1 0x25 PUSH1 0x24 DUP3 ADD MSTORE PUSH32 0x4E6F207374616B65206173736F636961746564207769746820746865206F7065 PUSH1 0x44 DUP3 ADD MSTORE PUSH5 0x3930BA37B9 PUSH1 0xD9 SHL PUSH1 0x64 DUP3 ADD MSTORE PUSH1 0x84 ADD PUSH2 0x39A JUMP JUMPDEST PUSH1 0x1 PUSH1 0x1 PUSH1 0xA0 SHL SUB DUP2 AND PUSH1 0x0 SWAP1 DUP2 MSTORE PUSH1 0x20 DUP2 SWAP1 MSTORE PUSH1 0x40 SWAP1 KECCAK256 DUP1 SLOAD PUSH1 0x1 PUSH1 0xA0 SHL SWAP1 DIV PUSH1 0xFF AND ISZERO PUSH2 0x998 JUMPI PUSH1 0x40 MLOAD PUSH3 0x461BCD PUSH1 0xE5 SHL DUP2 MSTORE PUSH1 0x20 PUSH1 0x4 DUP3 ADD MSTORE PUSH1 0x25 PUSH1 0x24 DUP3 ADD MSTORE PUSH32 0x4F70657261746F72206164647265737320697320616C726561647920636F6E66 PUSH1 0x44 DUP3 ADD MSTORE PUSH5 0x1A5C9B5959 PUSH1 0xDA SHL PUSH1 0x64 DUP3 ADD MSTORE PUSH1 0x84 ADD PUSH2 0x39A JUMP JUMPDEST CALLER ORIGIN EQ PUSH2 0xA0D JUMPI PUSH1 0x40 MLOAD PUSH3 0x461BCD PUSH1 0xE5 SHL DUP2 MSTORE PUSH1 0x20 PUSH1 0x4 DUP3 ADD MSTORE PUSH1 0x37 PUSH1 0x24 DUP3 ADD MSTORE PUSH32 0x4F6E6C79206F70657261746F722077697468207265616C206164647265737320 PUSH1 0x44 DUP3 ADD MSTORE PUSH32 0x63616E206D616B65206120636F6E6669726D6174696F6E000000000000000000 PUSH1 0x64 DUP3 ADD MSTORE PUSH1 0x84 ADD PUSH2 0x39A JUMP JUMPDEST DUP1 SLOAD PUSH1 0xFF PUSH1 0xA0 SHL NOT AND PUSH1 0x1 PUSH1 0xA0 SHL OR DUP2 SSTORE PUSH1 0x40 MLOAD CALLER SWAP1 PUSH1 0x1 PUSH1 0x1 PUSH1 0xA0 SHL SUB DUP5 AND SWAP1 PUSH32 0xDBC602361EAA7FB503DF3C16078C71B39D28412DF5E9980BEC6F489F78BB175C SWAP1 PUSH1 0x0 SWAP1 LOG3 POP POP JUMP JUMPDEST PUSH1 0x40 MLOAD PUSH4 0x5A4D3F1 PUSH1 0xE2 SHL DUP2 MSTORE PUSH1 0x1 PUSH1 0x1 PUSH1 0xA0 SHL SUB DUP3 DUP2 AND PUSH1 0x4 DUP4 ADD MSTORE PUSH1 0x0 SWAP2 DUP3 SWAP2 DUP3 SWAP2 DUP3 SWAP2 PUSH32 0x0 AND SWAP1 PUSH4 0x16934FC4 SWAP1 PUSH1 0x24 ADD PUSH1 0x60 PUSH1 0x40 MLOAD DUP1 DUP4 SUB DUP2 DUP7 GAS STATICCALL ISZERO DUP1 ISZERO PUSH2 0xAC7 JUMPI RETURNDATASIZE PUSH1 0x0 DUP1 RETURNDATACOPY RETURNDATASIZE PUSH1 0x0 REVERT JUMPDEST POP POP POP POP PUSH1 0x40 MLOAD RETURNDATASIZE PUSH1 0x1F NOT PUSH1 0x1F DUP3 ADD AND DUP3 ADD DUP1 PUSH1 0x40 MSTORE POP DUP2 ADD SWAP1 PUSH2 0xAEB SWAP2 SWAP1 PUSH2 0xF40 JUMP JUMPDEST SWAP2 SWAP5 POP SWAP3 POP SWAP1 POP DUP1 PUSH2 0xAFD DUP4 DUP6 PUSH2 0xF83 JUMP JUMPDEST PUSH2 0xB07 SWAP2 SWAP1 PUSH2 0xF83 JUMP JUMPDEST SWAP6 SWAP5 POP POP POP POP POP JUMP JUMPDEST PUSH1 0x1 SLOAD PUSH1 0x0 SWAP1 PUSH1 0x60 SWAP1 DUP1 DUP6 LT PUSH2 0xB5C JUMPI PUSH1 0x40 MLOAD PUSH3 0x461BCD PUSH1 0xE5 SHL DUP2 MSTORE PUSH1 0x20 PUSH1 0x4 DUP3 ADD MSTORE PUSH1 0x11 PUSH1 0x24 DUP3 ADD MSTORE PUSH17 0xAEE4DEDCCE40E6E8C2E4E840D2DCC8CAF PUSH1 0x7B SHL PUSH1 0x44 DUP3 ADD MSTORE PUSH1 0x64 ADD PUSH2 0x39A JUMP JUMPDEST DUP4 ISZERO DUP1 ISZERO SWAP1 PUSH2 0xB73 JUMPI POP DUP1 PUSH2 0xB71 DUP6 DUP8 PUSH2 0xF0C JUMP JUMPDEST LT JUMPDEST ISZERO PUSH2 0xB85 JUMPI PUSH2 0xB82 DUP5 DUP7 PUSH2 0xF0C JUMP JUMPDEST SWAP1 POP JUMPDEST PUSH2 0xB8F DUP6 DUP3 PUSH2 0xFAE JUMP JUMPDEST PUSH8 0xFFFFFFFFFFFFFFFF DUP2 GT ISZERO PUSH2 0xBA7 JUMPI PUSH2 0xBA7 PUSH2 0xFC5 JUMP JUMPDEST PUSH1 0x40 MLOAD SWAP1 DUP1 DUP3 MSTORE DUP1 PUSH1 0x20 MUL PUSH1 0x20 ADD DUP3 ADD PUSH1 0x40 MSTORE DUP1 ISZERO PUSH2 0xBE0 JUMPI DUP2 PUSH1 0x20 ADD JUMPDEST PUSH2 0xBCD PUSH2 0xD69 JUMP JUMPDEST DUP2 MSTORE PUSH1 0x20 ADD SWAP1 PUSH1 0x1 SWAP1 SUB SWAP1 DUP2 PUSH2 0xBC5 JUMPI SWAP1 POP JUMPDEST POP PUSH1 0x0 SWAP4 POP SWAP2 POP DUP3 DUP6 JUMPDEST DUP3 DUP2 LT ISZERO PUSH2 0xD1F JUMPI PUSH1 0x0 PUSH1 0x1 DUP3 DUP2 SLOAD DUP2 LT PUSH2 0xC07 JUMPI PUSH2 0xC07 PUSH2 0xFDB JUMP JUMPDEST PUSH1 0x0 SWAP2 DUP3 MSTORE PUSH1 0x20 DUP1 DUP4 KECCAK256 SWAP1 SWAP2 ADD SLOAD PUSH1 0x1 PUSH1 0x1 PUSH1 0xA0 SHL SUB AND DUP1 DUP4 MSTORE SWAP1 DUP3 SWAP1 MSTORE PUSH1 0x40 DUP3 KECCAK256 SWAP1 SWAP3 POP SWAP1 PUSH2 0xC36 DUP4 PUSH2 0xA58 JUMP JUMPDEST PUSH1 0x1 PUSH1 0x1 PUSH1 0x60 SHL SUB AND SWAP1 POP PUSH32 0x0 DUP2 LT DUP1 PUSH2 0xC78 JUMPI POP DUP2 SLOAD PUSH1 0x1 PUSH1 0xA0 SHL SWAP1 DIV PUSH1 0xFF AND ISZERO JUMPDEST ISZERO PUSH2 0xC85 JUMPI POP POP POP PUSH2 0xD0D JUMP JUMPDEST DUP3 PUSH1 0x1 PUSH1 0x1 PUSH1 0xA0 SHL SUB AND DUP8 DUP7 DUP2 MLOAD DUP2 LT PUSH2 0xCA1 JUMPI PUSH2 0xCA1 PUSH2 0xFDB JUMP JUMPDEST PUSH1 0x20 MUL PUSH1 0x20 ADD ADD MLOAD PUSH1 0x0 PUSH1 0x2 DUP2 LT PUSH2 0xCBB JUMPI PUSH2 0xCBB PUSH2 0xFDB JUMP JUMPDEST PUSH1 0x20 MUL ADD MSTORE DUP1 DUP8 DUP7 PUSH2 0xCCC DUP2 PUSH2 0xFF1 JUMP JUMPDEST SWAP8 POP DUP2 MLOAD DUP2 LT PUSH2 0xCDE JUMPI PUSH2 0xCDE PUSH2 0xFDB JUMP JUMPDEST PUSH1 0x20 MUL PUSH1 0x20 ADD ADD MLOAD PUSH1 0x1 PUSH1 0x2 DUP2 LT PUSH2 0xCF8 JUMPI PUSH2 0xCF8 PUSH2 0xFDB JUMP JUMPDEST PUSH1 0x20 MUL ADD MSTORE PUSH2 0xD07 DUP2 DUP10 PUSH2 0xF0C JUMP JUMPDEST SWAP8 POP POP POP POP JUMPDEST DUP1 PUSH2 0xD17 DUP2 PUSH2 0xFF1 JUMP JUMPDEST SWAP2 POP POP PUSH2 0xBEA JUMP JUMPDEST POP DUP1 DUP4 MSTORE POP POP SWAP3 POP SWAP3 SWAP1 POP JUMP JUMPDEST PUSH1 0x0 PUSH32 0x0 PUSH2 0xD58 DUP4 PUSH2 0xA58 JUMP JUMPDEST PUSH1 0x1 PUSH1 0x1 PUSH1 0x60 SHL SUB AND LT ISZERO SWAP3 SWAP2 POP POP JUMP JUMPDEST PUSH1 0x40 MLOAD DUP1 PUSH1 0x40 ADD PUSH1 0x40 MSTORE DUP1 PUSH1 0x2 SWAP1 PUSH1 0x20 DUP3 MUL DUP1 CALLDATASIZE DUP4 CALLDATACOPY POP SWAP2 SWAP3 SWAP2 POP POP JUMP JUMPDEST PUSH1 0x1 PUSH1 0x1 PUSH1 0xA0 SHL SUB DUP2 AND DUP2 EQ PUSH2 0xD9C JUMPI PUSH1 0x0 DUP1 REVERT JUMPDEST POP JUMP JUMPDEST PUSH1 0x0 DUP1 PUSH1 0x40 DUP4 DUP6 SUB SLT ISZERO PUSH2 0xDB2 JUMPI PUSH1 0x0 DUP1 REVERT JUMPDEST DUP3 CALLDATALOAD PUSH2 0xDBD DUP2 PUSH2 0xD87 JUMP JUMPDEST SWAP2 POP PUSH1 0x20 DUP4 ADD CALLDATALOAD PUSH2 0xDCD DUP2 PUSH2 0xD87 JUMP JUMPDEST DUP1 SWAP2 POP POP SWAP3 POP SWAP3 SWAP1 POP JUMP JUMPDEST PUSH1 0x0 PUSH1 0x20 DUP3 DUP5 SUB SLT ISZERO PUSH2 0xDEA JUMPI PUSH1 0x0 DUP1 REVERT JUMPDEST DUP2 CALLDATALOAD PUSH2 0xDF5 DUP2 PUSH2 0xD87 JUMP JUMPDEST SWAP4 SWAP3 POP POP POP JUMP JUMPDEST PUSH1 0x0 PUSH1 0x20 DUP3 DUP5 SUB SLT ISZERO PUSH2 0xE0E JUMPI PUSH1 0x0 DUP1 REVERT JUMPDEST POP CALLDATALOAD SWAP2 SWAP1 POP JUMP JUMPDEST PUSH1 0x0 DUP1 PUSH1 0x40 DUP4 DUP6 SUB SLT ISZERO PUSH2 0xE28 JUMPI PUSH1 0x0 DUP1 REVERT JUMPDEST POP POP DUP1 CALLDATALOAD SWAP3 PUSH1 0x20 SWAP1 SWAP2 ADD CALLDATALOAD SWAP2 POP JUMP JUMPDEST PUSH1 0x0 PUSH1 0x40 DUP1 DUP4 ADD DUP6 DUP5 MSTORE PUSH1 0x20 DUP3 DUP2 DUP7 ADD MSTORE DUP2 DUP7 MLOAD DUP1 DUP5 MSTORE PUSH1 0x60 DUP8 ADD SWAP2 POP DUP3 DUP9 ADD SWAP4 POP PUSH1 0x0 DUP1 JUMPDEST DUP3 DUP2 LT ISZERO PUSH2 0xE9A JUMPI DUP6 MLOAD DUP5 DUP4 JUMPDEST PUSH1 0x2 DUP2 LT ISZERO PUSH2 0xE87 JUMPI DUP3 MLOAD DUP3 MSTORE SWAP2 DUP8 ADD SWAP2 SWAP1 DUP8 ADD SWAP1 PUSH1 0x1 ADD PUSH2 0xE6A JUMP JUMPDEST POP POP POP SWAP5 DUP5 ADD SWAP5 SWAP3 DUP7 ADD SWAP3 PUSH1 0x1 ADD PUSH2 0xE5D JUMP JUMPDEST POP SWAP2 SWAP10 SWAP9 POP POP POP POP POP POP POP POP POP JUMP JUMPDEST PUSH1 0x0 DUP1 PUSH1 0x0 PUSH1 0x60 DUP5 DUP7 SUB SLT ISZERO PUSH2 0xEBE JUMPI PUSH1 0x0 DUP1 REVERT JUMPDEST DUP4 MLOAD PUSH2 0xEC9 DUP2 PUSH2 0xD87 JUMP JUMPDEST PUSH1 0x20 DUP6 ADD MLOAD SWAP1 SWAP4 POP PUSH2 0xEDA DUP2 PUSH2 0xD87 JUMP JUMPDEST PUSH1 0x40 DUP6 ADD MLOAD SWAP1 SWAP3 POP PUSH2 0xEEB DUP2 PUSH2 0xD87 JUMP JUMPDEST DUP1 SWAP2 POP POP SWAP3 POP SWAP3 POP SWAP3 JUMP JUMPDEST PUSH4 0x4E487B71 PUSH1 0xE0 SHL PUSH1 0x0 MSTORE PUSH1 0x11 PUSH1 0x4 MSTORE PUSH1 0x24 PUSH1 0x0 REVERT JUMPDEST PUSH1 0x0 DUP3 NOT DUP3 GT ISZERO PUSH2 0xF1F JUMPI PUSH2 0xF1F PUSH2 0xEF6 JUMP JUMPDEST POP ADD SWAP1 JUMP JUMPDEST DUP1 MLOAD PUSH1 0x1 PUSH1 0x1 PUSH1 0x60 SHL SUB DUP2 AND DUP2 EQ PUSH2 0xF3B JUMPI PUSH1 0x0 DUP1 REVERT JUMPDEST SWAP2 SWAP1 POP JUMP JUMPDEST PUSH1 0x0 DUP1 PUSH1 0x0 PUSH1 0x60 DUP5 DUP7 SUB SLT ISZERO PUSH2 0xF55 JUMPI PUSH1 0x0 DUP1 REVERT JUMPDEST PUSH2 0xF5E DUP5 PUSH2 0xF24 JUMP JUMPDEST SWAP3 POP PUSH2 0xF6C PUSH1 0x20 DUP6 ADD PUSH2 0xF24 JUMP JUMPDEST SWAP2 POP PUSH2 0xF7A PUSH1 0x40 DUP6 ADD PUSH2 0xF24 JUMP JUMPDEST SWAP1 POP SWAP3 POP SWAP3 POP SWAP3 JUMP JUMPDEST PUSH1 0x0 PUSH1 0x1 PUSH1 0x1 PUSH1 0x60 SHL SUB DUP1 DUP4 AND DUP2 DUP6 AND DUP1 DUP4 SUB DUP3 GT ISZERO PUSH2 0xFA5 JUMPI PUSH2 0xFA5 PUSH2 0xEF6 JUMP JUMPDEST ADD SWAP5 SWAP4 POP POP POP POP JUMP JUMPDEST PUSH1 0x0 DUP3 DUP3 LT ISZERO PUSH2 0xFC0 JUMPI PUSH2 0xFC0 PUSH2 0xEF6 JUMP JUMPDEST POP SUB SWAP1 JUMP JUMPDEST PUSH4 0x4E487B71 PUSH1 0xE0 SHL PUSH1 0x0 MSTORE PUSH1 0x41 PUSH1 0x4 MSTORE PUSH1 0x24 PUSH1 0x0 REVERT JUMPDEST PUSH4 0x4E487B71 PUSH1 0xE0 SHL PUSH1 0x0 MSTORE PUSH1 0x32 PUSH1 0x4 MSTORE PUSH1 0x24 PUSH1 0x0 REVERT JUMPDEST PUSH1 0x0 PUSH1 0x0 NOT DUP3 EQ ISZERO PUSH2 0x1005 JUMPI PUSH2 0x1005 PUSH2 0xEF6 JUMP JUMPDEST POP PUSH1 0x1 ADD SWAP1 JUMP INVALID LOG2 PUSH5 0x6970667358 0x22 SLT KECCAK256 DUP12 0xC0 PUSH26 0x74E0CA26AB04DF6F1C457651F95DE2C214BFCD2E265A35DDF136 SDIV 0xCB PC PUSH5 0x736F6C6343 STOP ADDMOD EXP STOP CALLER ",
  "sha1": "ecca7ad505ee2d4e3ebaf92effbc06072e2c7bd1",
  "source": "// SPDX-License-Identifier: AGPL-3.0-or-later\n\npragma solidity ^0.8.0;\n\n\nimport \"../threshold/IStaking.sol\";\n\n\n/**\n* @title PRE Application\n* @notice Contract handles PRE configuration\n*/\ncontract SimplePREApplication {\n\n    /**\n    * @notice Signals that an operator was bonded to the staking provider\n    * @param stakingProvider Staking provider address\n    * @param operator Operator address\n    * @param startTimestamp Timestamp bonding occurred\n    */\n    event OperatorBonded(address indexed stakingProvider, address indexed operator, uint256 startTimestamp);\n\n    /**\n    * @notice Signals that an operator address is confirmed\n    * @param stakingProvider Staking provider address\n    * @param operator Operator address\n    */\n    event OperatorConfirmed(address indexed stakingProvider, address indexed operator);\n\n    struct StakingProviderInfo {\n        address operator;\n        bool operatorConfirmed;\n        uint256 operatorStartTimestamp;\n    }\n\n    uint256 public immutable minAuthorization;\n    uint256 public immutable minOperatorSeconds;\n\n    IStaking public immutable tStaking;\n\n    mapping (address => StakingProviderInfo) public stakingProviderInfo;\n    address[] public stakingProviders;\n    mapping(address => address) internal _stakingProviderFromOperator;\n\n\n    /**\n    * @notice Constructor sets address of token contract and parameters for staking\n    * @param _tStaking T token staking contract\n    * @param _minAuthorization Amount of minimum allowable authorization\n    * @param _minOperatorSeconds Min amount of seconds while an operator can't be changed\n    */\n    constructor(\n        IStaking _tStaking,\n        uint256 _minAuthorization,\n        uint256 _minOperatorSeconds\n    ) {\n        require(\n            _tStaking.authorizedStake(address(this), address(this)) == 0,\n            \"Wrong input parameters\"\n        );\n        minAuthorization = _minAuthorization;\n        tStaking = _tStaking;\n        minOperatorSeconds = _minOperatorSeconds;\n    }\n\n    /**\n    * @dev Checks caller is a staking provider or stake owner\n    */\n    modifier onlyOwnerOrStakingProvider(address _stakingProvider)\n    {\n        require(isAuthorized(_stakingProvider), \"Not owner or provider\");\n        if (_stakingProvider != msg.sender) {\n            (address owner,,) = tStaking.rolesOf(_stakingProvider);\n            require(owner == msg.sender, \"Not owner or provider\");\n        }\n        _;\n    }\n\n\n    //-------------------------Main-------------------------\n    /**\n    * @notice Returns staking provider for specified operator\n    */\n    function stakingProviderFromOperator(address _operator) public view returns (address) {\n        return _stakingProviderFromOperator[_operator];\n    }\n\n    /**\n    * @notice Returns operator for specified staking provider\n    */\n    function getOperatorFromStakingProvider(address _stakingProvider) public view returns (address) {\n        return stakingProviderInfo[_stakingProvider].operator;\n    }\n\n    /**\n    * @notice Get all tokens delegated to the staking provider\n    */\n    function authorizedStake(address _stakingProvider) public view returns (uint96) {\n        (uint96 tStake, uint96 keepInTStake, uint96 nuInTStake) = tStaking.stakes(_stakingProvider);\n        return tStake + keepInTStake + nuInTStake;\n    }\n\n    /**\n    * @notice Get the value of authorized tokens for active providers as well as providers and their authorized tokens\n    * @param _startIndex Start index for looking in providers array\n    * @param _maxStakingProviders Max providers for looking, if set 0 then all will be used\n    * @return allAuthorizedTokens Sum of authorized tokens for active providers\n    * @return activeStakingProviders Array of providers and their authorized tokens.\n    * Providers addresses stored as uint256\n    * @dev Note that activeStakingProviders[0] is an array of uint256, but you want addresses.\n    * Careful when used directly!\n    */\n    function getActiveStakingProviders(uint256 _startIndex, uint256 _maxStakingProviders)\n        external view returns (uint256 allAuthorizedTokens, uint256[2][] memory activeStakingProviders)\n    {\n        uint256 endIndex = stakingProviders.length;\n        require(_startIndex < endIndex, \"Wrong start index\");\n        if (_maxStakingProviders != 0 && _startIndex + _maxStakingProviders < endIndex) {\n            endIndex = _startIndex + _maxStakingProviders;\n        }\n        activeStakingProviders = new uint256[2][](endIndex - _startIndex);\n        allAuthorizedTokens = 0;\n\n        uint256 resultIndex = 0;\n        for (uint256 i = _startIndex; i < endIndex; i++) {\n            address stakingProvider = stakingProviders[i];\n            StakingProviderInfo storage info = stakingProviderInfo[stakingProvider];\n            uint256 eligibleAmount = authorizedStake(stakingProvider);\n            if (eligibleAmount < minAuthorization || !info.operatorConfirmed) {\n                continue;\n            }\n            activeStakingProviders[resultIndex][0] = uint256(uint160(stakingProvider));\n            activeStakingProviders[resultIndex++][1] = eligibleAmount;\n            allAuthorizedTokens += eligibleAmount;\n        }\n        assembly {\n            mstore(activeStakingProviders, resultIndex)\n        }\n    }\n\n    /**\n    * @notice Returns beneficiary related to the staking provider\n    */\n    function getBeneficiary(address _stakingProvider) public view returns (address payable beneficiary) {\n        (, beneficiary,) = tStaking.rolesOf(_stakingProvider);\n    }\n\n    /**\n    * @notice Returns true if staking provider has authorized stake to this application\n    */\n    function isAuthorized(address _stakingProvider) public view returns (bool) {\n        return authorizedStake(_stakingProvider) >= minAuthorization;\n    }\n\n    /**\n    * @notice Returns true if operator has confirmed address\n    */\n    // TODO maybe _stakingProvider instead of _operator as input?\n    function isOperatorConfirmed(address _operator) public view returns (bool) {\n        address stakingProvider = _stakingProviderFromOperator[_operator];\n        StakingProviderInfo storage info = stakingProviderInfo[stakingProvider];\n        return info.operatorConfirmed;\n    }\n\n    /**\n    * @notice Return the length of the array of staking providers\n    */\n    function getStakingProvidersLength() external view returns (uint256) {\n        return stakingProviders.length;\n    }\n\n    /**\n    * @notice Bond operator\n    * @param _stakingProvider Staking provider address\n    * @param _operator Operator address. Must be a real address, not a contract\n    */\n    function bondOperator(address _stakingProvider, address _operator)\n        external onlyOwnerOrStakingProvider(_stakingProvider)\n    {\n        StakingProviderInfo storage info = stakingProviderInfo[_stakingProvider];\n        require(_operator != info.operator, \"Specified operator is already bonded with this provider\");\n        // If this staker had an operator ...\n        if (info.operator != address(0)) {\n            require(\n                block.timestamp >= info.operatorStartTimestamp + minOperatorSeconds,\n                \"Not enough time passed to change operator\"\n            );\n            // Remove the old relation \"operator->stakingProvider\"\n            _stakingProviderFromOperator[info.operator] = address(0);\n        }\n\n        if (_operator != address(0)) {\n            require(_stakingProviderFromOperator[_operator] == address(0), \"Specified operator is already in use\");\n            require(\n                _operator == _stakingProvider || getBeneficiary(_operator) == address(0),\n                \"Specified operator is a provider\"\n            );\n            // Set new operator->stakingProvider relation\n            _stakingProviderFromOperator[_operator] = _stakingProvider;\n        }\n\n        if (info.operatorStartTimestamp == 0) {\n            stakingProviders.push(_stakingProvider);\n        }\n\n        // Bond new operator (or unbond if _operator == address(0))\n        info.operator = _operator;\n        info.operatorStartTimestamp = block.timestamp;\n        info.operatorConfirmed = false;\n        emit OperatorBonded(_stakingProvider, _operator, block.timestamp);\n    }\n\n    /**\n    * @notice Make a confirmation by operator\n    */\n    function confirmOperatorAddress() external {\n        address stakingProvider = _stakingProviderFromOperator[msg.sender];\n        require(isAuthorized(stakingProvider), \"No stake associated with the operator\");\n        StakingProviderInfo storage info = stakingProviderInfo[stakingProvider];\n        require(!info.operatorConfirmed, \"Operator address is already confirmed\");\n        require(msg.sender == tx.origin, \"Only operator with real address can make a confirmation\");\n        info.operatorConfirmed = true;\n        emit OperatorConfirmed(stakingProvider, msg.sender);\n    }\n\n}\n",
  "sourcePath": "contracts/contracts/SimplePREApplication.sol",
  "type": "contract"
}