{
  "abi": [
    {
      "inputs": [
        {
          "internalType": "contract NuCypherToken",
          "name": "_token",
          "type": "address"
        },
        {
          "internalType": "contract IStakingEscrow",
          "name": "_escrow",
          "type": "address"
        },
        {
          "internalType": "contract PolicyManager",
          "name": "_policyManager",
          "type": "address"
        },
        {
          "internalType": "contract WorkLock",
          "name": "_workLock",
          "type": "address"
        },
        {
          "internalType": "contract IStaking",
          "name": "_tStaking",
          "type": "address"
        }
      ],
      "stateMutability": "nonpayable",
      "type": "constructor"
    },
    {
      "anonymous": false,
      "inputs": [
        {
          "indexed": true,
          "internalType": "address",
          "name": "sender",
          "type": "address"
        },
        {
          "indexed": false,
          "internalType": "uint256",
          "name": "depositedETH",
          "type": "uint256"
        }
      ],
      "name": "Bid",
      "type": "event"
    },
    {
      "anonymous": false,
      "inputs": [
        {
          "indexed": true,
          "internalType": "address",
          "name": "sender",
          "type": "address"
        }
      ],
      "name": "BidCanceled",
      "type": "event"
    },
    {
      "anonymous": false,
      "inputs": [
        {
          "indexed": true,
          "internalType": "address",
          "name": "sender",
          "type": "address"
        },
        {
          "indexed": false,
          "internalType": "uint256",
          "name": "claimedTokens",
          "type": "uint256"
        }
      ],
      "name": "Claimed",
      "type": "event"
    },
    {
      "anonymous": false,
      "inputs": [
        {
          "indexed": true,
          "internalType": "address",
          "name": "sender",
          "type": "address"
        }
      ],
      "name": "CompensationWithdrawn",
      "type": "event"
    },
    {
      "anonymous": false,
      "inputs": [
        {
          "indexed": true,
          "internalType": "address",
          "name": "sender",
          "type": "address"
        },
        {
          "indexed": false,
          "internalType": "uint256",
          "name": "value",
          "type": "uint256"
        }
      ],
      "name": "MinFeeRateSet",
      "type": "event"
    },
    {
      "anonymous": false,
      "inputs": [
        {
          "indexed": true,
          "internalType": "address",
          "name": "sender",
          "type": "address"
        },
        {
          "indexed": false,
          "internalType": "uint256",
          "name": "value",
          "type": "uint256"
        }
      ],
      "name": "PolicyFeeWithdrawn",
      "type": "event"
    },
    {
      "anonymous": false,
      "inputs": [
        {
          "indexed": true,
          "internalType": "address",
          "name": "sender",
          "type": "address"
        },
        {
          "indexed": false,
          "internalType": "uint256",
          "name": "refundETH",
          "type": "uint256"
        }
      ],
      "name": "Refund",
      "type": "event"
    },
    {
      "anonymous": false,
      "inputs": [
        {
          "indexed": true,
          "internalType": "address",
          "name": "sender",
          "type": "address"
        },
        {
          "indexed": true,
          "internalType": "address",
          "name": "operator",
          "type": "address"
        },
        {
          "indexed": false,
          "internalType": "address",
          "name": "beneficiary",
          "type": "address"
        },
        {
          "indexed": false,
          "internalType": "address",
          "name": "authorizer",
          "type": "address"
        }
      ],
      "name": "ThresholdNUStaked",
      "type": "event"
    },
    {
      "anonymous": false,
      "inputs": [
        {
          "indexed": true,
          "internalType": "address",
          "name": "sender",
          "type": "address"
        },
        {
          "indexed": true,
          "internalType": "address",
          "name": "operator",
          "type": "address"
        },
        {
          "indexed": false,
          "internalType": "uint96",
          "name": "amount",
          "type": "uint96"
        }
      ],
      "name": "ThresholdNUUnstaked",
      "type": "event"
    },
    {
      "anonymous": false,
      "inputs": [
        {
          "indexed": true,
          "internalType": "address",
          "name": "sender",
          "type": "address"
        },
        {
          "indexed": false,
          "internalType": "uint256",
          "name": "value",
          "type": "uint256"
        }
      ],
      "name": "WithdrawnAsStaker",
      "type": "event"
    },
    {
      "inputs": [
        {
          "internalType": "uint256",
          "name": "_value",
          "type": "uint256"
        }
      ],
      "name": "bid",
      "outputs": [],
      "stateMutability": "payable",
      "type": "function"
    },
    {
      "inputs": [],
      "name": "cancelBid",
      "outputs": [],
      "stateMutability": "nonpayable",
      "type": "function"
    },
    {
      "inputs": [],
      "name": "claim",
      "outputs": [],
      "stateMutability": "nonpayable",
      "type": "function"
    },
    {
      "inputs": [],
      "name": "escrow",
      "outputs": [
        {
          "internalType": "contract IStakingEscrow",
          "name": "",
          "type": "address"
        }
      ],
      "stateMutability": "view",
      "type": "function"
    },
    {
      "inputs": [],
      "name": "policyManager",
      "outputs": [
        {
          "internalType": "contract PolicyManager",
          "name": "",
          "type": "address"
        }
      ],
      "stateMutability": "view",
      "type": "function"
    },
    {
      "inputs": [],
      "name": "refund",
      "outputs": [],
      "stateMutability": "nonpayable",
      "type": "function"
    },
    {
      "inputs": [
        {
          "internalType": "uint256",
          "name": "_minFeeRate",
          "type": "uint256"
        }
      ],
      "name": "setMinFeeRate",
      "outputs": [],
      "stateMutability": "nonpayable",
      "type": "function"
    },
    {
      "inputs": [
        {
          "internalType": "address",
          "name": "operator",
          "type": "address"
        },
        {
          "internalType": "address payable",
          "name": "beneficiary",
          "type": "address"
        },
        {
          "internalType": "address",
          "name": "authorizer",
          "type": "address"
        }
      ],
      "name": "stakeNu",
      "outputs": [],
      "stateMutability": "nonpayable",
      "type": "function"
    },
    {
      "inputs": [],
      "name": "stakingInterfaceAddress",
      "outputs": [
        {
          "internalType": "address",
          "name": "",
          "type": "address"
        }
      ],
      "stateMutability": "view",
      "type": "function"
    },
    {
      "inputs": [],
      "name": "tStaking",
      "outputs": [
        {
          "internalType": "contract IStaking",
          "name": "",
          "type": "address"
        }
      ],
      "stateMutability": "view",
      "type": "function"
    },
    {
      "inputs": [],
      "name": "token",
      "outputs": [
        {
          "internalType": "contract NuCypherToken",
          "name": "",
          "type": "address"
        }
      ],
      "stateMutability": "view",
      "type": "function"
    },
    {
      "inputs": [
        {
          "internalType": "address",
          "name": "operator",
          "type": "address"
        },
        {
          "internalType": "uint96",
          "name": "amount",
          "type": "uint96"
        }
      ],
      "name": "unstakeNu",
      "outputs": [],
      "stateMutability": "nonpayable",
      "type": "function"
    },
    {
      "inputs": [
        {
          "internalType": "uint256",
          "name": "_value",
          "type": "uint256"
        }
      ],
      "name": "withdrawAsStaker",
      "outputs": [],
      "stateMutability": "nonpayable",
      "type": "function"
    },
    {
      "inputs": [],
      "name": "withdrawCompensation",
      "outputs": [],
      "stateMutability": "nonpayable",
      "type": "function"
    },
    {
      "inputs": [],
      "name": "withdrawPolicyFee",
      "outputs": [],
      "stateMutability": "nonpayable",
      "type": "function"
    },
    {
      "inputs": [],
      "name": "workLock",
      "outputs": [
        {
          "internalType": "contract WorkLock",
          "name": "",
          "type": "address"
        }
      ],
      "stateMutability": "view",
      "type": "function"
    }
  ],
  "bytecode": "6101406040523480156200001257600080fd5b5060405162001370380380620013708339810160408190526200003591620002ec565b84848484846000856001600160a01b03166318160ddd6040518163ffffffff1660e01b8152600401602060405180830381865afa1580156200007b573d6000803e3d6000fd5b505050506040513d601f19601f82011682018060405250810190620000a191906200036c565b118015620001245750846001600160a01b0316846001600160a01b031663fc0c546a6040518163ffffffff1660e01b8152600401602060405180830381865afa158015620000f3573d6000803e3d6000fd5b505050506040513d601f19601f8201168201806040525081019062000119919062000386565b6001600160a01b0316145b80156200019b57506000836001600160a01b031663407f80016040518163ffffffff1660e01b8152600401602060405180830381865afa1580156200016d573d6000803e3d6000fd5b505050506040513d601f19601f82011682018060405250810190620001939190620003ad565b63ffffffff16115b8015620002115750604051634a11fae360e01b8152600060048201526001600160a01b03821690634a11fae390602401602060405180830381865afa158015620001e9573d6000803e3d6000fd5b505050506040513d601f19601f820116820180604052508101906200020f91906200036c565b155b80156200029457506001600160a01b03821615806200029457506000826001600160a01b0316635bf997f56040518163ffffffff1660e01b8152600401602060405180830381865afa1580156200026c573d6000803e3d6000fd5b505050506040513d601f19601f820116820180604052508101906200029291906200036c565b115b6200029e57600080fd5b6001600160a01b0394851660a05292841660c05290831660e052821661010052166101205250503060805250620003d5915050565b6001600160a01b0381168114620002e957600080fd5b50565b600080600080600060a086880312156200030557600080fd5b85516200031281620002d3565b60208701519095506200032581620002d3565b60408701519094506200033881620002d3565b60608701519093506200034b81620002d3565b60808701519092506200035e81620002d3565b809150509295509295909350565b6000602082840312156200037f57600080fd5b5051919050565b6000602082840312156200039957600080fd5b8151620003a681620002d3565b9392505050565b600060208284031215620003c057600080fd5b815163ffffffff81168114620003a657600080fd5b60805160a05160c05160e0516101005161012051610e9c620004d4600039600081816102c0015281816106da015261090c01526000818161010a01528181610382015281816103b50152818161058a015281816105bf015281816107bb015281816107f0015281816109ee01528181610a2101528181610bd90152610c0c01526000818161028c0152818161049b0152610b0b0152600081816102f40152610cf6015260006103280152600081816102580152818161034c01528181610463015281816105540152818161067801528181610785015281816108a9015281816109b801528181610ac101528181610ba30152610cac0152610e9c6000f3fe6080604052600436106100f35760003560e01c80638c316b901161008a578063ab3dbf3b11610059578063ab3dbf3b1461027a578063dbaa0fc6146102ae578063e2fdcc17146102e2578063fc0c546a1461031657600080fd5b80638c316b90146101f15780639435c887146102115780639d223d15146102265780639d83a8dc1461024657600080fd5b806358ccdf38116100c657806358ccdf3814610187578063590e1ae3146101a757806381b0a0ce146101bc57806387a15dc9146101dc57600080fd5b80631c7fd532146100f8578063454a2ab3146101485780634e62ef1e1461015d5780634e71d92d14610172575b600080fd5b34801561010457600080fd5b5061012c7f000000000000000000000000000000000000000000000000000000000000000081565b6040516001600160a01b03909116815260200160405180910390f35b61015b610156366004610d8c565b61034a565b005b34801561016957600080fd5b5061015b610461565b34801561017e57600080fd5b5061015b610552565b34801561019357600080fd5b5061015b6101a2366004610dbd565b610676565b3480156101b357600080fd5b5061015b610783565b3480156101c857600080fd5b5061015b6101d7366004610e02565b6108a7565b3480156101e857600080fd5b5061015b6109b6565b3480156101fd57600080fd5b5061015b61020c366004610d8c565b610abf565b34801561021d57600080fd5b5061015b610ba1565b34801561023257600080fd5b5061015b610241366004610d8c565b610caa565b34801561025257600080fd5b5061012c7f000000000000000000000000000000000000000000000000000000000000000081565b34801561028657600080fd5b5061012c7f000000000000000000000000000000000000000000000000000000000000000081565b3480156102ba57600080fd5b5061012c7f000000000000000000000000000000000000000000000000000000000000000081565b3480156102ee57600080fd5b5061012c7f000000000000000000000000000000000000000000000000000000000000000081565b34801561032257600080fd5b5061012c7f000000000000000000000000000000000000000000000000000000000000000081565b7f00000000000000000000000000000000000000000000000000000000000000006001600160a01b031630141561038057600080fd5b7f00000000000000000000000000000000000000000000000000000000000000006001600160a01b03166103b357600080fd5b7f00000000000000000000000000000000000000000000000000000000000000006001600160a01b0316631998aeef826040518263ffffffff1660e01b81526004016000604051808303818588803b15801561040e57600080fd5b505af1158015610422573d6000803e3d6000fd5b50506040518481523393507fe684a55f31b79eca403df938249029212a5925ec6be8012e099b45bc1019e5d2925060200190505b60405180910390a250565b7f00000000000000000000000000000000000000000000000000000000000000006001600160a01b031630141561049757600080fd5b60007f00000000000000000000000000000000000000000000000000000000000000006001600160a01b0316633ccfd60b6040518163ffffffff1660e01b81526004016020604051808303816000875af11580156104f9573d6000803e3d6000fd5b505050506040513d601f19601f8201168201806040525081019061051d9190610e4d565b60405181815290915033907f3e0af9db9c08380520dc2592809e7281d3aedc8e7441b84c84bdbe00d093dcf190602001610456565b7f00000000000000000000000000000000000000000000000000000000000000006001600160a01b031630141561058857600080fd5b7f00000000000000000000000000000000000000000000000000000000000000006001600160a01b03166105bb57600080fd5b60007f00000000000000000000000000000000000000000000000000000000000000006001600160a01b0316634e71d92d6040518163ffffffff1660e01b81526004016020604051808303816000875af115801561061d573d6000803e3d6000fd5b505050506040513d601f19601f820116820180604052508101906106419190610e4d565b60405181815290915033907fd8138f8a3f377c5259ca548e70e4c2de94f129f5a11036a15b69513cba2b426a90602001610456565b7f00000000000000000000000000000000000000000000000000000000000000006001600160a01b03163014156106ac57600080fd5b604051630b199be760e31b81526001600160a01b0383811660048301526001600160601b03831660248301527f000000000000000000000000000000000000000000000000000000000000000016906358ccdf3890604401600060405180830381600087803b15801561071e57600080fd5b505af1158015610732573d6000803e3d6000fd5b50506040516001600160601b03841681526001600160a01b03851692503391507f8fe75ef10e5c5e55d7608601bf1236ffd5ec45d4357fde1e2c5c97abf7b27f689060200160405180910390a35050565b7f00000000000000000000000000000000000000000000000000000000000000006001600160a01b03163014156107b957600080fd5b7f00000000000000000000000000000000000000000000000000000000000000006001600160a01b03166107ec57600080fd5b60007f00000000000000000000000000000000000000000000000000000000000000006001600160a01b031663590e1ae36040518163ffffffff1660e01b81526004016020604051808303816000875af115801561084e573d6000803e3d6000fd5b505050506040513d601f19601f820116820180604052508101906108729190610e4d565b60405181815290915033907fbb28353e4598c3b9199101a66e0989549b659a59a54d2c27fbb183f1932c8e6d90602001610456565b7f00000000000000000000000000000000000000000000000000000000000000006001600160a01b03163014156108dd57600080fd5b6040516340d8506760e11b81526001600160a01b038481166004830152838116602483015282811660448301527f000000000000000000000000000000000000000000000000000000000000000016906381b0a0ce90606401600060405180830381600087803b15801561095057600080fd5b505af1158015610964573d6000803e3d6000fd5b5050604080516001600160a01b0386811682528581166020830152871693503392507f53c7e51be5a8e99f46e6fef4cc254fafc9e161eb0a36ff54d8f408932bba1951910160405180910390a3505050565b7f00000000000000000000000000000000000000000000000000000000000000006001600160a01b03163014156109ec57600080fd5b7f00000000000000000000000000000000000000000000000000000000000000006001600160a01b0316610a1f57600080fd5b7f00000000000000000000000000000000000000000000000000000000000000006001600160a01b03166387a15dc96040518163ffffffff1660e01b8152600401600060405180830381600087803b158015610a7a57600080fd5b505af1158015610a8e573d6000803e3d6000fd5b50506040513392507f1f3c545731eadf66e84bfa3f22265530ac6cde1c211e7a25da70139a06bc39a69150600090a2565b7f00000000000000000000000000000000000000000000000000000000000000006001600160a01b0316301415610af557600080fd5b6040516308c316b960e41b8152600481018290527f00000000000000000000000000000000000000000000000000000000000000006001600160a01b031690638c316b9090602401600060405180830381600087803b158015610b5757600080fd5b505af1158015610b6b573d6000803e3d6000fd5b50506040518381523392507f6b9024cc1bf5710f290be788dca9886db7a3d9be0df0855bfa991dbf26a256bc9150602001610456565b7f00000000000000000000000000000000000000000000000000000000000000006001600160a01b0316301415610bd757600080fd5b7f00000000000000000000000000000000000000000000000000000000000000006001600160a01b0316610c0a57600080fd5b7f00000000000000000000000000000000000000000000000000000000000000006001600160a01b0316639435c8876040518163ffffffff1660e01b8152600401600060405180830381600087803b158015610c6557600080fd5b505af1158015610c79573d6000803e3d6000fd5b50506040513392507f7791542f9106a010f289aa1d108168b87d4e2d3d37ed4ecb762391da5e18a45d9150600090a2565b7f00000000000000000000000000000000000000000000000000000000000000006001600160a01b0316301415610ce057600080fd5b604051632e1a7d4d60e01b8152600481018290527f00000000000000000000000000000000000000000000000000000000000000006001600160a01b031690632e1a7d4d90602401600060405180830381600087803b158015610d4257600080fd5b505af1158015610d56573d6000803e3d6000fd5b50506040518381523392507fe260c3ea1a7da044fdb8e612a54b70847532f00018c3f751beccd55032f620649150602001610456565b600060208284031215610d9e57600080fd5b5035919050565b6001600160a01b0381168114610dba57600080fd5b50565b60008060408385031215610dd057600080fd5b8235610ddb81610da5565b915060208301356001600160601b0381168114610df757600080fd5b809150509250929050565b600080600060608486031215610e1757600080fd5b8335610e2281610da5565b92506020840135610e3281610da5565b91506040840135610e4281610da5565b809150509250925092565b600060208284031215610e5f57600080fd5b505191905056fea2646970667358221220e47989062eb7176ccc8683604835e40b3294dfa896d0dbf37e5e5e4955939e2164736f6c634300080a0033",
  "bytecodeSha1": "8b1d486b0b1a5f248a55c2e843a0b9c255d46601",
  "compiler": {
    "evm_version": "istanbul",
    "optimizer": {
      "enabled": true,
      "runs": 200
    },
    "version": "0.8.10+commit.fc410830"
  },
  "contractName": "StakingInterface",
  "language": "Solidity",
  "natspec": {
    "details": "All methods must be stateless because this code will be executed by delegatecall call, use immutable fields.|v1.9.1|",
    "kind": "dev",
    "methods": {
      "bid(uint256)": {
        "notice": "Bid for tokens by transferring ETH"
      },
      "cancelBid()": {
        "notice": "Cancel bid and refund deposited ETH"
      },
      "claim()": {
        "notice": "Claimed tokens will be deposited and locked as stake in the StakingEscrow contract"
      },
      "constructor": {
        "notice": "Constructor sets addresses of the contracts",
        "params": {
          "_escrow": "Escrow contract",
          "_policyManager": "PolicyManager contract",
          "_tStaking": "Threshold TokenStaking contract",
          "_token": "Token contract",
          "_workLock": "WorkLock contract"
        }
      },
      "refund()": {
        "notice": "Refund ETH for the completed work"
      },
      "setMinFeeRate(uint256)": {
        "notice": "Set the minimum fee that the staker will accept in the policy manager contract"
      },
      "stakeNu(address,address,address)": {
        "notice": "Copies delegation from the legacy NU staking contract to T staking contract, additionally appointing beneficiary and authorizer roles."
      },
      "unstakeNu(address,uint96)": {
        "notice": "Reduces cached legacy NU stake amount by the provided amount."
      },
      "withdrawAsStaker(uint256)": {
        "notice": "Withdraw available amount of tokens from the staking escrow to the staking contract",
        "params": {
          "_value": "Amount of token to withdraw"
        }
      },
      "withdrawCompensation()": {
        "notice": "Withdraw compensation after force refund"
      },
      "withdrawPolicyFee()": {
        "notice": "Withdraw available policy fees from the policy manager to the staking contract"
      }
    },
    "notice": "Interface for accessing main contracts from a staking contract",
    "version": 1
  },
  "opcodes": "PUSH1 0x80 PUSH1 0x40 MSTORE PUSH1 0x4 CALLDATASIZE LT PUSH2 0xF3 JUMPI PUSH1 0x0 CALLDATALOAD PUSH1 0xE0 SHR DUP1 PUSH4 0x8C316B90 GT PUSH2 0x8A JUMPI DUP1 PUSH4 0xAB3DBF3B GT PUSH2 0x59 JUMPI DUP1 PUSH4 0xAB3DBF3B EQ PUSH2 0x27A JUMPI DUP1 PUSH4 0xDBAA0FC6 EQ PUSH2 0x2AE JUMPI DUP1 PUSH4 0xE2FDCC17 EQ PUSH2 0x2E2 JUMPI DUP1 PUSH4 0xFC0C546A EQ PUSH2 0x316 JUMPI PUSH1 0x0 DUP1 REVERT JUMPDEST DUP1 PUSH4 0x8C316B90 EQ PUSH2 0x1F1 JUMPI DUP1 PUSH4 0x9435C887 EQ PUSH2 0x211 JUMPI DUP1 PUSH4 0x9D223D15 EQ PUSH2 0x226 JUMPI DUP1 PUSH4 0x9D83A8DC EQ PUSH2 0x246 JUMPI PUSH1 0x0 DUP1 REVERT JUMPDEST DUP1 PUSH4 0x58CCDF38 GT PUSH2 0xC6 JUMPI DUP1 PUSH4 0x58CCDF38 EQ PUSH2 0x187 JUMPI DUP1 PUSH4 0x590E1AE3 EQ PUSH2 0x1A7 JUMPI DUP1 PUSH4 0x81B0A0CE EQ PUSH2 0x1BC JUMPI DUP1 PUSH4 0x87A15DC9 EQ PUSH2 0x1DC JUMPI PUSH1 0x0 DUP1 REVERT JUMPDEST DUP1 PUSH4 0x1C7FD532 EQ PUSH2 0xF8 JUMPI DUP1 PUSH4 0x454A2AB3 EQ PUSH2 0x148 JUMPI DUP1 PUSH4 0x4E62EF1E EQ PUSH2 0x15D JUMPI DUP1 PUSH4 0x4E71D92D EQ PUSH2 0x172 JUMPI JUMPDEST PUSH1 0x0 DUP1 REVERT JUMPDEST CALLVALUE DUP1 ISZERO PUSH2 0x104 JUMPI PUSH1 0x0 DUP1 REVERT JUMPDEST POP PUSH2 0x12C PUSH32 0x0 DUP2 JUMP JUMPDEST PUSH1 0x40 MLOAD PUSH1 0x1 PUSH1 0x1 PUSH1 0xA0 SHL SUB SWAP1 SWAP2 AND DUP2 MSTORE PUSH1 0x20 ADD PUSH1 0x40 MLOAD DUP1 SWAP2 SUB SWAP1 RETURN JUMPDEST PUSH2 0x15B PUSH2 0x156 CALLDATASIZE PUSH1 0x4 PUSH2 0xD8C JUMP JUMPDEST PUSH2 0x34A JUMP JUMPDEST STOP JUMPDEST CALLVALUE DUP1 ISZERO PUSH2 0x169 JUMPI PUSH1 0x0 DUP1 REVERT JUMPDEST POP PUSH2 0x15B PUSH2 0x461 JUMP JUMPDEST CALLVALUE DUP1 ISZERO PUSH2 0x17E JUMPI PUSH1 0x0 DUP1 REVERT JUMPDEST POP PUSH2 0x15B PUSH2 0x552 JUMP JUMPDEST CALLVALUE DUP1 ISZERO PUSH2 0x193 JUMPI PUSH1 0x0 DUP1 REVERT JUMPDEST POP PUSH2 0x15B PUSH2 0x1A2 CALLDATASIZE PUSH1 0x4 PUSH2 0xDBD JUMP JUMPDEST PUSH2 0x676 JUMP JUMPDEST CALLVALUE DUP1 ISZERO PUSH2 0x1B3 JUMPI PUSH1 0x0 DUP1 REVERT JUMPDEST POP PUSH2 0x15B PUSH2 0x783 JUMP JUMPDEST CALLVALUE DUP1 ISZERO PUSH2 0x1C8 JUMPI PUSH1 0x0 DUP1 REVERT JUMPDEST POP PUSH2 0x15B PUSH2 0x1D7 CALLDATASIZE PUSH1 0x4 PUSH2 0xE02 JUMP JUMPDEST PUSH2 0x8A7 JUMP JUMPDEST CALLVALUE DUP1 ISZERO PUSH2 0x1E8 JUMPI PUSH1 0x0 DUP1 REVERT JUMPDEST POP PUSH2 0x15B PUSH2 0x9B6 JUMP JUMPDEST CALLVALUE DUP1 ISZERO PUSH2 0x1FD JUMPI PUSH1 0x0 DUP1 REVERT JUMPDEST POP PUSH2 0x15B PUSH2 0x20C CALLDATASIZE PUSH1 0x4 PUSH2 0xD8C JUMP JUMPDEST PUSH2 0xABF JUMP JUMPDEST CALLVALUE DUP1 ISZERO PUSH2 0x21D JUMPI PUSH1 0x0 DUP1 REVERT JUMPDEST POP PUSH2 0x15B PUSH2 0xBA1 JUMP JUMPDEST CALLVALUE DUP1 ISZERO PUSH2 0x232 JUMPI PUSH1 0x0 DUP1 REVERT JUMPDEST POP PUSH2 0x15B PUSH2 0x241 CALLDATASIZE PUSH1 0x4 PUSH2 0xD8C JUMP JUMPDEST PUSH2 0xCAA JUMP JUMPDEST CALLVALUE DUP1 ISZERO PUSH2 0x252 JUMPI PUSH1 0x0 DUP1 REVERT JUMPDEST POP PUSH2 0x12C PUSH32 0x0 DUP2 JUMP JUMPDEST CALLVALUE DUP1 ISZERO PUSH2 0x286 JUMPI PUSH1 0x0 DUP1 REVERT JUMPDEST POP PUSH2 0x12C PUSH32 0x0 DUP2 JUMP JUMPDEST CALLVALUE DUP1 ISZERO PUSH2 0x2BA JUMPI PUSH1 0x0 DUP1 REVERT JUMPDEST POP PUSH2 0x12C PUSH32 0x0 DUP2 JUMP JUMPDEST CALLVALUE DUP1 ISZERO PUSH2 0x2EE JUMPI PUSH1 0x0 DUP1 REVERT JUMPDEST POP PUSH2 0x12C PUSH32 0x0 DUP2 JUMP JUMPDEST CALLVALUE DUP1 ISZERO PUSH2 0x322 JUMPI PUSH1 0x0 DUP1 REVERT JUMPDEST POP PUSH2 0x12C PUSH32 0x0 DUP2 JUMP JUMPDEST PUSH32 0x0 PUSH1 0x1 PUSH1 0x1 PUSH1 0xA0 SHL SUB AND ADDRESS EQ ISZERO PUSH2 0x380 JUMPI PUSH1 0x0 DUP1 REVERT JUMPDEST PUSH32 0x0 PUSH1 0x1 PUSH1 0x1 PUSH1 0xA0 SHL SUB AND PUSH2 0x3B3 JUMPI PUSH1 0x0 DUP1 REVERT JUMPDEST PUSH32 0x0 PUSH1 0x1 PUSH1 0x1 PUSH1 0xA0 SHL SUB AND PUSH4 0x1998AEEF DUP3 PUSH1 0x40 MLOAD DUP3 PUSH4 0xFFFFFFFF AND PUSH1 0xE0 SHL DUP2 MSTORE PUSH1 0x4 ADD PUSH1 0x0 PUSH1 0x40 MLOAD DUP1 DUP4 SUB DUP2 DUP6 DUP9 DUP1 EXTCODESIZE ISZERO DUP1 ISZERO PUSH2 0x40E JUMPI PUSH1 0x0 DUP1 REVERT JUMPDEST POP GAS CALL ISZERO DUP1 ISZERO PUSH2 0x422 JUMPI RETURNDATASIZE PUSH1 0x0 DUP1 RETURNDATACOPY RETURNDATASIZE PUSH1 0x0 REVERT JUMPDEST POP POP PUSH1 0x40 MLOAD DUP5 DUP2 MSTORE CALLER SWAP4 POP PUSH32 0xE684A55F31B79ECA403DF938249029212A5925EC6BE8012E099B45BC1019E5D2 SWAP3 POP PUSH1 0x20 ADD SWAP1 POP JUMPDEST PUSH1 0x40 MLOAD DUP1 SWAP2 SUB SWAP1 LOG2 POP JUMP JUMPDEST PUSH32 0x0 PUSH1 0x1 PUSH1 0x1 PUSH1 0xA0 SHL SUB AND ADDRESS EQ ISZERO PUSH2 0x497 JUMPI PUSH1 0x0 DUP1 REVERT JUMPDEST PUSH1 0x0 PUSH32 0x0 PUSH1 0x1 PUSH1 0x1 PUSH1 0xA0 SHL SUB AND PUSH4 0x3CCFD60B PUSH1 0x40 MLOAD DUP2 PUSH4 0xFFFFFFFF AND PUSH1 0xE0 SHL DUP2 MSTORE PUSH1 0x4 ADD PUSH1 0x20 PUSH1 0x40 MLOAD DUP1 DUP4 SUB DUP2 PUSH1 0x0 DUP8 GAS CALL ISZERO DUP1 ISZERO PUSH2 0x4F9 JUMPI RETURNDATASIZE PUSH1 0x0 DUP1 RETURNDATACOPY RETURNDATASIZE PUSH1 0x0 REVERT JUMPDEST POP POP POP POP PUSH1 0x40 MLOAD RETURNDATASIZE PUSH1 0x1F NOT PUSH1 0x1F DUP3 ADD AND DUP3 ADD DUP1 PUSH1 0x40 MSTORE POP DUP2 ADD SWAP1 PUSH2 0x51D SWAP2 SWAP1 PUSH2 0xE4D JUMP JUMPDEST PUSH1 0x40 MLOAD DUP2 DUP2 MSTORE SWAP1 SWAP2 POP CALLER SWAP1 PUSH32 0x3E0AF9DB9C08380520DC2592809E7281D3AEDC8E7441B84C84BDBE00D093DCF1 SWAP1 PUSH1 0x20 ADD PUSH2 0x456 JUMP JUMPDEST PUSH32 0x0 PUSH1 0x1 PUSH1 0x1 PUSH1 0xA0 SHL SUB AND ADDRESS EQ ISZERO PUSH2 0x588 JUMPI PUSH1 0x0 DUP1 REVERT JUMPDEST PUSH32 0x0 PUSH1 0x1 PUSH1 0x1 PUSH1 0xA0 SHL SUB AND PUSH2 0x5BB JUMPI PUSH1 0x0 DUP1 REVERT JUMPDEST PUSH1 0x0 PUSH32 0x0 PUSH1 0x1 PUSH1 0x1 PUSH1 0xA0 SHL SUB AND PUSH4 0x4E71D92D PUSH1 0x40 MLOAD DUP2 PUSH4 0xFFFFFFFF AND PUSH1 0xE0 SHL DUP2 MSTORE PUSH1 0x4 ADD PUSH1 0x20 PUSH1 0x40 MLOAD DUP1 DUP4 SUB DUP2 PUSH1 0x0 DUP8 GAS CALL ISZERO DUP1 ISZERO PUSH2 0x61D JUMPI RETURNDATASIZE PUSH1 0x0 DUP1 RETURNDATACOPY RETURNDATASIZE PUSH1 0x0 REVERT JUMPDEST POP POP POP POP PUSH1 0x40 MLOAD RETURNDATASIZE PUSH1 0x1F NOT PUSH1 0x1F DUP3 ADD AND DUP3 ADD DUP1 PUSH1 0x40 MSTORE POP DUP2 ADD SWAP1 PUSH2 0x641 SWAP2 SWAP1 PUSH2 0xE4D JUMP JUMPDEST PUSH1 0x40 MLOAD DUP2 DUP2 MSTORE SWAP1 SWAP2 POP CALLER SWAP1 PUSH32 0xD8138F8A3F377C5259CA548E70E4C2DE94F129F5A11036A15B69513CBA2B426A SWAP1 PUSH1 0x20 ADD PUSH2 0x456 JUMP JUMPDEST PUSH32 0x0 PUSH1 0x1 PUSH1 0x1 PUSH1 0xA0 SHL SUB AND ADDRESS EQ ISZERO PUSH2 0x6AC JUMPI PUSH1 0x0 DUP1 REVERT JUMPDEST PUSH1 0x40 MLOAD PUSH4 0xB199BE7 PUSH1 0xE3 SHL DUP2 MSTORE PUSH1 0x1 PUSH1 0x1 PUSH1 0xA0 SHL SUB DUP4 DUP2 AND PUSH1 0x4 DUP4 ADD MSTORE PUSH1 0x1 PUSH1 0x1 PUSH1 0x60 SHL SUB DUP4 AND PUSH1 0x24 DUP4 ADD MSTORE PUSH32 0x0 AND SWAP1 PUSH4 0x58CCDF38 SWAP1 PUSH1 0x44 ADD PUSH1 0x0 PUSH1 0x40 MLOAD DUP1 DUP4 SUB DUP2 PUSH1 0x0 DUP8 DUP1 EXTCODESIZE ISZERO DUP1 ISZERO PUSH2 0x71E JUMPI PUSH1 0x0 DUP1 REVERT JUMPDEST POP GAS CALL ISZERO DUP1 ISZERO PUSH2 0x732 JUMPI RETURNDATASIZE PUSH1 0x0 DUP1 RETURNDATACOPY RETURNDATASIZE PUSH1 0x0 REVERT JUMPDEST POP POP PUSH1 0x40 MLOAD PUSH1 0x1 PUSH1 0x1 PUSH1 0x60 SHL SUB DUP5 AND DUP2 MSTORE PUSH1 0x1 PUSH1 0x1 PUSH1 0xA0 SHL SUB DUP6 AND SWAP3 POP CALLER SWAP2 POP PUSH32 0x8FE75EF10E5C5E55D7608601BF1236FFD5EC45D4357FDE1E2C5C97ABF7B27F68 SWAP1 PUSH1 0x20 ADD PUSH1 0x40 MLOAD DUP1 SWAP2 SUB SWAP1 LOG3 POP POP JUMP JUMPDEST PUSH32 0x0 PUSH1 0x1 PUSH1 0x1 PUSH1 0xA0 SHL SUB AND ADDRESS EQ ISZERO PUSH2 0x7B9 JUMPI PUSH1 0x0 DUP1 REVERT JUMPDEST PUSH32 0x0 PUSH1 0x1 PUSH1 0x1 PUSH1 0xA0 SHL SUB AND PUSH2 0x7EC JUMPI PUSH1 0x0 DUP1 REVERT JUMPDEST PUSH1 0x0 PUSH32 0x0 PUSH1 0x1 PUSH1 0x1 PUSH1 0xA0 SHL SUB AND PUSH4 0x590E1AE3 PUSH1 0x40 MLOAD DUP2 PUSH4 0xFFFFFFFF AND PUSH1 0xE0 SHL DUP2 MSTORE PUSH1 0x4 ADD PUSH1 0x20 PUSH1 0x40 MLOAD DUP1 DUP4 SUB DUP2 PUSH1 0x0 DUP8 GAS CALL ISZERO DUP1 ISZERO PUSH2 0x84E JUMPI RETURNDATASIZE PUSH1 0x0 DUP1 RETURNDATACOPY RETURNDATASIZE PUSH1 0x0 REVERT JUMPDEST POP POP POP POP PUSH1 0x40 MLOAD RETURNDATASIZE PUSH1 0x1F NOT PUSH1 0x1F DUP3 ADD AND DUP3 ADD DUP1 PUSH1 0x40 MSTORE POP DUP2 ADD SWAP1 PUSH2 0x872 SWAP2 SWAP1 PUSH2 0xE4D JUMP JUMPDEST PUSH1 0x40 MLOAD DUP2 DUP2 MSTORE SWAP1 SWAP2 POP CALLER SWAP1 PUSH32 0xBB28353E4598C3B9199101A66E0989549B659A59A54D2C27FBB183F1932C8E6D SWAP1 PUSH1 0x20 ADD PUSH2 0x456 JUMP JUMPDEST PUSH32 0x0 PUSH1 0x1 PUSH1 0x1 PUSH1 0xA0 SHL SUB AND ADDRESS EQ ISZERO PUSH2 0x8DD JUMPI PUSH1 0x0 DUP1 REVERT JUMPDEST PUSH1 0x40 MLOAD PUSH4 0x40D85067 PUSH1 0xE1 SHL DUP2 MSTORE PUSH1 0x1 PUSH1 0x1 PUSH1 0xA0 SHL SUB DUP5 DUP2 AND PUSH1 0x4 DUP4 ADD MSTORE DUP4 DUP2 AND PUSH1 0x24 DUP4 ADD MSTORE DUP3 DUP2 AND PUSH1 0x44 DUP4 ADD MSTORE PUSH32 0x0 AND SWAP1 PUSH4 0x81B0A0CE SWAP1 PUSH1 0x64 ADD PUSH1 0x0 PUSH1 0x40 MLOAD DUP1 DUP4 SUB DUP2 PUSH1 0x0 DUP8 DUP1 EXTCODESIZE ISZERO DUP1 ISZERO PUSH2 0x950 JUMPI PUSH1 0x0 DUP1 REVERT JUMPDEST POP GAS CALL ISZERO DUP1 ISZERO PUSH2 0x964 JUMPI RETURNDATASIZE PUSH1 0x0 DUP1 RETURNDATACOPY RETURNDATASIZE PUSH1 0x0 REVERT JUMPDEST POP POP PUSH1 0x40 DUP1 MLOAD PUSH1 0x1 PUSH1 0x1 PUSH1 0xA0 SHL SUB DUP7 DUP2 AND DUP3 MSTORE DUP6 DUP2 AND PUSH1 0x20 DUP4 ADD MSTORE DUP8 AND SWAP4 POP CALLER SWAP3 POP PUSH32 0x53C7E51BE5A8E99F46E6FEF4CC254FAFC9E161EB0A36FF54D8F408932BBA1951 SWAP2 ADD PUSH1 0x40 MLOAD DUP1 SWAP2 SUB SWAP1 LOG3 POP POP POP JUMP JUMPDEST PUSH32 0x0 PUSH1 0x1 PUSH1 0x1 PUSH1 0xA0 SHL SUB AND ADDRESS EQ ISZERO PUSH2 0x9EC JUMPI PUSH1 0x0 DUP1 REVERT JUMPDEST PUSH32 0x0 PUSH1 0x1 PUSH1 0x1 PUSH1 0xA0 SHL SUB AND PUSH2 0xA1F JUMPI PUSH1 0x0 DUP1 REVERT JUMPDEST PUSH32 0x0 PUSH1 0x1 PUSH1 0x1 PUSH1 0xA0 SHL SUB AND PUSH4 0x87A15DC9 PUSH1 0x40 MLOAD DUP2 PUSH4 0xFFFFFFFF AND PUSH1 0xE0 SHL DUP2 MSTORE PUSH1 0x4 ADD PUSH1 0x0 PUSH1 0x40 MLOAD DUP1 DUP4 SUB DUP2 PUSH1 0x0 DUP8 DUP1 EXTCODESIZE ISZERO DUP1 ISZERO PUSH2 0xA7A JUMPI PUSH1 0x0 DUP1 REVERT JUMPDEST POP GAS CALL ISZERO DUP1 ISZERO PUSH2 0xA8E JUMPI RETURNDATASIZE PUSH1 0x0 DUP1 RETURNDATACOPY RETURNDATASIZE PUSH1 0x0 REVERT JUMPDEST POP POP PUSH1 0x40 MLOAD CALLER SWAP3 POP PUSH32 0x1F3C545731EADF66E84BFA3F22265530AC6CDE1C211E7A25DA70139A06BC39A6 SWAP2 POP PUSH1 0x0 SWAP1 LOG2 JUMP JUMPDEST PUSH32 0x0 PUSH1 0x1 PUSH1 0x1 PUSH1 0xA0 SHL SUB AND ADDRESS EQ ISZERO PUSH2 0xAF5 JUMPI PUSH1 0x0 DUP1 REVERT JUMPDEST PUSH1 0x40 MLOAD PUSH4 0x8C316B9 PUSH1 0xE4 SHL DUP2 MSTORE PUSH1 0x4 DUP2 ADD DUP3 SWAP1 MSTORE PUSH32 0x0 PUSH1 0x1 PUSH1 0x1 PUSH1 0xA0 SHL SUB AND SWAP1 PUSH4 0x8C316B90 SWAP1 PUSH1 0x24 ADD PUSH1 0x0 PUSH1 0x40 MLOAD DUP1 DUP4 SUB DUP2 PUSH1 0x0 DUP8 DUP1 EXTCODESIZE ISZERO DUP1 ISZERO PUSH2 0xB57 JUMPI PUSH1 0x0 DUP1 REVERT JUMPDEST POP GAS CALL ISZERO DUP1 ISZERO PUSH2 0xB6B JUMPI RETURNDATASIZE PUSH1 0x0 DUP1 RETURNDATACOPY RETURNDATASIZE PUSH1 0x0 REVERT JUMPDEST POP POP PUSH1 0x40 MLOAD DUP4 DUP2 MSTORE CALLER SWAP3 POP PUSH32 0x6B9024CC1BF5710F290BE788DCA9886DB7A3D9BE0DF0855BFA991DBF26A256BC SWAP2 POP PUSH1 0x20 ADD PUSH2 0x456 JUMP JUMPDEST PUSH32 0x0 PUSH1 0x1 PUSH1 0x1 PUSH1 0xA0 SHL SUB AND ADDRESS EQ ISZERO PUSH2 0xBD7 JUMPI PUSH1 0x0 DUP1 REVERT JUMPDEST PUSH32 0x0 PUSH1 0x1 PUSH1 0x1 PUSH1 0xA0 SHL SUB AND PUSH2 0xC0A JUMPI PUSH1 0x0 DUP1 REVERT JUMPDEST PUSH32 0x0 PUSH1 0x1 PUSH1 0x1 PUSH1 0xA0 SHL SUB AND PUSH4 0x9435C887 PUSH1 0x40 MLOAD DUP2 PUSH4 0xFFFFFFFF AND PUSH1 0xE0 SHL DUP2 MSTORE PUSH1 0x4 ADD PUSH1 0x0 PUSH1 0x40 MLOAD DUP1 DUP4 SUB DUP2 PUSH1 0x0 DUP8 DUP1 EXTCODESIZE ISZERO DUP1 ISZERO PUSH2 0xC65 JUMPI PUSH1 0x0 DUP1 REVERT JUMPDEST POP GAS CALL ISZERO DUP1 ISZERO PUSH2 0xC79 JUMPI RETURNDATASIZE PUSH1 0x0 DUP1 RETURNDATACOPY RETURNDATASIZE PUSH1 0x0 REVERT JUMPDEST POP POP PUSH1 0x40 MLOAD CALLER SWAP3 POP PUSH32 0x7791542F9106A010F289AA1D108168B87D4E2D3D37ED4ECB762391DA5E18A45D SWAP2 POP PUSH1 0x0 SWAP1 LOG2 JUMP JUMPDEST PUSH32 0x0 PUSH1 0x1 PUSH1 0x1 PUSH1 0xA0 SHL SUB AND ADDRESS EQ ISZERO PUSH2 0xCE0 JUMPI PUSH1 0x0 DUP1 REVERT JUMPDEST PUSH1 0x40 MLOAD PUSH4 0x2E1A7D4D PUSH1 0xE0 SHL DUP2 MSTORE PUSH1 0x4 DUP2 ADD DUP3 SWAP1 MSTORE PUSH32 0x0 PUSH1 0x1 PUSH1 0x1 PUSH1 0xA0 SHL SUB AND SWAP1 PUSH4 0x2E1A7D4D SWAP1 PUSH1 0x24 ADD PUSH1 0x0 PUSH1 0x40 MLOAD DUP1 DUP4 SUB DUP2 PUSH1 0x0 DUP8 DUP1 EXTCODESIZE ISZERO DUP1 ISZERO PUSH2 0xD42 JUMPI PUSH1 0x0 DUP1 REVERT JUMPDEST POP GAS CALL ISZERO DUP1 ISZERO PUSH2 0xD56 JUMPI RETURNDATASIZE PUSH1 0x0 DUP1 RETURNDATACOPY RETURNDATASIZE PUSH1 0x0 REVERT JUMPDEST POP POP PUSH1 0x40 MLOAD DUP4 DUP2 MSTORE CALLER SWAP3 POP PUSH32 0xE260C3EA1A7DA044FDB8E612A54B70847532F00018C3F751BECCD55032F62064 SWAP2 POP PUSH1 0x20 ADD PUSH2 0x456 JUMP JUMPDEST PUSH1 0x0 PUSH1 0x20 DUP3 DUP5 SUB SLT ISZERO PUSH2 0xD9E JUMPI PUSH1 0x0 DUP1 REVERT JUMPDEST POP CALLDATALOAD SWAP2 SWAP1 POP JUMP JUMPDEST PUSH1 0x1 PUSH1 0x1 PUSH1 0xA0 SHL SUB DUP2 AND DUP2 EQ PUSH2 0xDBA JUMPI PUSH1 0x0 DUP1 REVERT JUMPDEST POP JUMP JUMPDEST PUSH1 0x0 DUP1 PUSH1 0x40 DUP4 DUP6 SUB SLT ISZERO PUSH2 0xDD0 JUMPI PUSH1 0x0 DUP1 REVERT JUMPDEST DUP3 CALLDATALOAD PUSH2 0xDDB DUP2 PUSH2 0xDA5 JUMP JUMPDEST SWAP2 POP PUSH1 0x20 DUP4 ADD CALLDATALOAD PUSH1 0x1 PUSH1 0x1 PUSH1 0x60 SHL SUB DUP2 AND DUP2 EQ PUSH2 0xDF7 JUMPI PUSH1 0x0 DUP1 REVERT JUMPDEST DUP1 SWAP2 POP POP SWAP3 POP SWAP3 SWAP1 POP JUMP JUMPDEST PUSH1 0x0 DUP1 PUSH1 0x0 PUSH1 0x60 DUP5 DUP7 SUB SLT ISZERO PUSH2 0xE17 JUMPI PUSH1 0x0 DUP1 REVERT JUMPDEST DUP4 CALLDATALOAD PUSH2 0xE22 DUP2 PUSH2 0xDA5 JUMP JUMPDEST SWAP3 POP PUSH1 0x20 DUP5 ADD CALLDATALOAD PUSH2 0xE32 DUP2 PUSH2 0xDA5 JUMP JUMPDEST SWAP2 POP PUSH1 0x40 DUP5 ADD CALLDATALOAD PUSH2 0xE42 DUP2 PUSH2 0xDA5 JUMP JUMPDEST DUP1 SWAP2 POP POP SWAP3 POP SWAP3 POP SWAP3 JUMP JUMPDEST PUSH1 0x0 PUSH1 0x20 DUP3 DUP5 SUB SLT ISZERO PUSH2 0xE5F JUMPI PUSH1 0x0 DUP1 REVERT JUMPDEST POP MLOAD SWAP2 SWAP1 POP JUMP INVALID LOG2 PUSH5 0x6970667358 0x22 SLT KECCAK256 0xE4 PUSH26 0x89062EB7176CCC8683604835E40B3294DFA896D0DBF37E5E5E49 SSTORE SWAP4 SWAP15 0x21 PUSH5 0x736F6C6343 STOP ADDMOD EXP STOP CALLER ",
  "sha1": "02b736107fe0f20b4d5d46281940a8f84626c94a",
  "source": "// SPDX-License-Identifier: AGPL-3.0-or-later\n\npragma solidity ^0.8.0;\n\n\nimport \"./AbstractStakingContract.sol\";\nimport \"../NuCypherToken.sol\";\nimport \"../IStakingEscrow.sol\";\nimport \"../PolicyManager.sol\";\nimport \"../WorkLock.sol\";\nimport \"../../threshold/IStaking.sol\";\n\n\n/**\n* @notice Base StakingInterface\n*/\ncontract BaseStakingInterface {\n\n    address public immutable stakingInterfaceAddress;\n    NuCypherToken public immutable token;\n    IStakingEscrow public immutable escrow;\n    PolicyManager public immutable policyManager;\n    WorkLock public immutable workLock;\n    IStaking public immutable tStaking;\n\n    /**\n    * @notice Constructor sets addresses of the contracts\n    * @param _token Token contract\n    * @param _escrow Escrow contract\n    * @param _policyManager PolicyManager contract\n    * @param _workLock WorkLock contract\n    * @param _tStaking Threshold TokenStaking contract\n    */\n    constructor(\n        NuCypherToken _token,\n        IStakingEscrow _escrow,\n        PolicyManager _policyManager,\n        WorkLock _workLock,\n        IStaking _tStaking\n    ) {\n        require(_token.totalSupply() > 0 &&\n            _escrow.token() == _token &&\n            _policyManager.secondsPerPeriod() > 0 &&\n            _tStaking.stakedNu(address(0)) == 0 &&\n            // in case there is no worklock contract\n            (address(_workLock) == address(0) || _workLock.boostingRefund() > 0));\n        token = _token;\n        escrow = _escrow;\n        policyManager = _policyManager;\n        workLock = _workLock;\n        tStaking = _tStaking;\n        stakingInterfaceAddress = address(this);\n    }\n\n    /**\n    * @dev Checks executing through delegate call\n    */\n    modifier onlyDelegateCall()\n    {\n        require(stakingInterfaceAddress != address(this));\n        _;\n    }\n\n    /**\n    * @dev Checks the existence of the worklock contract\n    */\n    modifier workLockSet()\n    {\n        require(address(workLock) != address(0));\n        _;\n    }\n\n}\n\n\n/**\n* @notice Interface for accessing main contracts from a staking contract\n* @dev All methods must be stateless because this code will be executed by delegatecall call, use immutable fields.\n* @dev |v1.9.1|\n*/\ncontract StakingInterface is BaseStakingInterface {\n\n    event WithdrawnAsStaker(address indexed sender, uint256 value);\n    event PolicyFeeWithdrawn(address indexed sender, uint256 value);\n    event MinFeeRateSet(address indexed sender, uint256 value);\n    event Bid(address indexed sender, uint256 depositedETH);\n    event Claimed(address indexed sender, uint256 claimedTokens);\n    event Refund(address indexed sender, uint256 refundETH);\n    event BidCanceled(address indexed sender);\n    event CompensationWithdrawn(address indexed sender);\n    event ThresholdNUStaked(\n        address indexed sender,\n        address indexed operator,\n        address beneficiary,\n        address authorizer\n    );\n    event ThresholdNUUnstaked(address indexed sender, address indexed operator, uint96 amount);\n\n    /**\n    * @notice Constructor sets addresses of the contracts\n    * @param _token Token contract\n    * @param _escrow Escrow contract\n    * @param _policyManager PolicyManager contract\n    * @param _workLock WorkLock contract\n    * @param _tStaking Threshold TokenStaking contract\n    */\n    constructor(\n        NuCypherToken _token,\n        IStakingEscrow _escrow,\n        PolicyManager _policyManager,\n        WorkLock _workLock,\n        IStaking _tStaking\n    )\n        BaseStakingInterface(_token, _escrow, _policyManager, _workLock, _tStaking)\n    {\n    }\n\n    /**\n    * @notice Withdraw available amount of tokens from the staking escrow to the staking contract\n    * @param _value Amount of token to withdraw\n    */\n    function withdrawAsStaker(uint256 _value) public onlyDelegateCall {\n        escrow.withdraw(_value);\n        emit WithdrawnAsStaker(msg.sender, _value);\n    }\n\n    /**\n    * @notice Withdraw available policy fees from the policy manager to the staking contract\n    */\n    function withdrawPolicyFee() public onlyDelegateCall {\n        uint256 value = policyManager.withdraw();\n        emit PolicyFeeWithdrawn(msg.sender, value);\n    }\n\n    /**\n    * @notice Set the minimum fee that the staker will accept in the policy manager contract\n    */\n    function setMinFeeRate(uint256 _minFeeRate) public onlyDelegateCall {\n        policyManager.setMinFeeRate(_minFeeRate);\n        emit MinFeeRateSet(msg.sender, _minFeeRate);\n    }\n\n    /**\n    * @notice Bid for tokens by transferring ETH\n    */\n    function bid(uint256 _value) public payable onlyDelegateCall workLockSet {\n        workLock.bid{value: _value}();\n        emit Bid(msg.sender, _value);\n    }\n\n    /**\n    * @notice Cancel bid and refund deposited ETH\n    */\n    function cancelBid() public onlyDelegateCall workLockSet {\n        workLock.cancelBid();\n        emit BidCanceled(msg.sender);\n    }\n\n    /**\n    * @notice Withdraw compensation after force refund\n    */\n    function withdrawCompensation() public onlyDelegateCall workLockSet {\n        workLock.withdrawCompensation();\n        emit CompensationWithdrawn(msg.sender);\n    }\n\n    /**\n    * @notice Claimed tokens will be deposited and locked as stake in the StakingEscrow contract\n    */\n    function claim() public onlyDelegateCall workLockSet {\n        uint256 claimedTokens = workLock.claim();\n        emit Claimed(msg.sender, claimedTokens);\n    }\n\n    /**\n    * @notice Refund ETH for the completed work\n    */\n    function refund() public onlyDelegateCall workLockSet {\n        uint256 refundETH = workLock.refund();\n        emit Refund(msg.sender, refundETH);\n    }\n\n    /**\n    * @notice Copies delegation from the legacy NU staking contract to T staking contract,\n    * additionally appointing beneficiary and authorizer roles.\n    */\n    function stakeNu(\n        address operator,\n        address payable beneficiary,\n        address authorizer\n    ) external onlyDelegateCall {\n        tStaking.stakeNu(operator, beneficiary, authorizer);\n        emit ThresholdNUStaked(msg.sender, operator, beneficiary, authorizer);\n    }\n\n    /**\n    * @notice Reduces cached legacy NU stake amount by the provided amount.\n    */\n    function unstakeNu(address operator, uint96 amount) external onlyDelegateCall {\n        tStaking.unstakeNu(operator, amount);\n        emit ThresholdNUUnstaked(msg.sender, operator, amount);\n    }\n}\n",
  "sourcePath": "contracts/contracts/staking_contracts/StakingInterface.sol",
  "type": "contract"
}