{
  "abi": [
    {
      "inputs": [
        {
          "internalType": "contract NuCypherToken",
          "name": "_token",
          "type": "address"
        },
        {
          "internalType": "uint256",
          "name": "_minAllowableLockedTokens",
          "type": "uint256"
        },
        {
          "internalType": "uint256",
          "name": "_maxAllowableLockedTokens",
          "type": "uint256"
        }
      ],
      "stateMutability": "nonpayable",
      "type": "constructor"
    },
    {
      "anonymous": false,
      "inputs": [
        {
          "indexed": true,
          "internalType": "address",
          "name": "previousOwner",
          "type": "address"
        },
        {
          "indexed": true,
          "internalType": "address",
          "name": "newOwner",
          "type": "address"
        }
      ],
      "name": "OwnershipTransferred",
      "type": "event"
    },
    {
      "anonymous": false,
      "inputs": [
        {
          "indexed": true,
          "internalType": "address",
          "name": "testTarget",
          "type": "address"
        },
        {
          "indexed": false,
          "internalType": "address",
          "name": "sender",
          "type": "address"
        }
      ],
      "name": "StateVerified",
      "type": "event"
    },
    {
      "anonymous": false,
      "inputs": [
        {
          "indexed": true,
          "internalType": "address",
          "name": "target",
          "type": "address"
        },
        {
          "indexed": false,
          "internalType": "address",
          "name": "sender",
          "type": "address"
        }
      ],
      "name": "UpgradeFinished",
      "type": "event"
    },
    {
      "inputs": [
        {
          "internalType": "address",
          "name": "_target",
          "type": "address"
        }
      ],
      "name": "finishUpgrade",
      "outputs": [],
      "stateMutability": "nonpayable",
      "type": "function"
    },
    {
      "inputs": [],
      "name": "isOwner",
      "outputs": [
        {
          "internalType": "bool",
          "name": "",
          "type": "bool"
        }
      ],
      "stateMutability": "view",
      "type": "function"
    },
    {
      "inputs": [],
      "name": "isUpgrade",
      "outputs": [
        {
          "internalType": "uint8",
          "name": "",
          "type": "uint8"
        }
      ],
      "stateMutability": "view",
      "type": "function"
    },
    {
      "inputs": [],
      "name": "maxAllowableLockedTokens",
      "outputs": [
        {
          "internalType": "uint256",
          "name": "",
          "type": "uint256"
        }
      ],
      "stateMutability": "view",
      "type": "function"
    },
    {
      "inputs": [],
      "name": "minAllowableLockedTokens",
      "outputs": [
        {
          "internalType": "uint256",
          "name": "",
          "type": "uint256"
        }
      ],
      "stateMutability": "view",
      "type": "function"
    },
    {
      "inputs": [],
      "name": "minLockedPeriods",
      "outputs": [
        {
          "internalType": "uint16",
          "name": "",
          "type": "uint16"
        }
      ],
      "stateMutability": "view",
      "type": "function"
    },
    {
      "inputs": [],
      "name": "owner",
      "outputs": [
        {
          "internalType": "address",
          "name": "",
          "type": "address"
        }
      ],
      "stateMutability": "view",
      "type": "function"
    },
    {
      "inputs": [],
      "name": "previousTarget",
      "outputs": [
        {
          "internalType": "address",
          "name": "",
          "type": "address"
        }
      ],
      "stateMutability": "view",
      "type": "function"
    },
    {
      "inputs": [],
      "name": "renounceOwnership",
      "outputs": [],
      "stateMutability": "nonpayable",
      "type": "function"
    },
    {
      "inputs": [],
      "name": "secondsPerPeriod",
      "outputs": [
        {
          "internalType": "uint32",
          "name": "",
          "type": "uint32"
        }
      ],
      "stateMutability": "view",
      "type": "function"
    },
    {
      "inputs": [],
      "name": "target",
      "outputs": [
        {
          "internalType": "address",
          "name": "",
          "type": "address"
        }
      ],
      "stateMutability": "view",
      "type": "function"
    },
    {
      "inputs": [],
      "name": "token",
      "outputs": [
        {
          "internalType": "contract NuCypherToken",
          "name": "",
          "type": "address"
        }
      ],
      "stateMutability": "view",
      "type": "function"
    },
    {
      "inputs": [
        {
          "internalType": "address",
          "name": "newOwner",
          "type": "address"
        }
      ],
      "name": "transferOwnership",
      "outputs": [],
      "stateMutability": "nonpayable",
      "type": "function"
    },
    {
      "inputs": [
        {
          "internalType": "address",
          "name": "_testTarget",
          "type": "address"
        }
      ],
      "name": "verifyState",
      "outputs": [],
      "stateMutability": "nonpayable",
      "type": "function"
    }
  ],
  "bytecode": "610120604052600160a052600060c05234801561001b57600080fd5b5060405161073a38038061073a83398101604081905261003a9161010c565b600080546001600160a01b0319163390811782556040519091907f8be0079c531659141344cd1fd0a4f28419497f9722a3daafe3b4186f6b6457e0908290a36000836001600160a01b03166318160ddd6040518163ffffffff1660e01b8152600401602060405180830381865afa1580156100b9573d6000803e3d6000fd5b505050506040513d601f19601f820116820180604052508101906100dd919061014f565b1180156100e957508015155b6100f257600080fd5b6001600160a01b0390921660805260e05261010052610168565b60008060006060848603121561012157600080fd5b83516001600160a01b038116811461013857600080fd5b602085015160409095015190969495509392505050565b60006020828403121561016157600080fd5b5051919050565b60805160a05160c05160e051610100516105886101b2600039600061019a015260006101d90152600060f4015260006101330152600081816102a1015261033701526105886000f3fe608060405234801561001057600080fd5b50600436106100ea5760003560e01c80638f32d59b1161008c578063e38a303b11610066578063e38a303b14610250578063e8dccd0614610276578063f2fde38b14610289578063fc0c546a1461029c57600080fd5b80638f32d59b1461020c578063b9626d211461022a578063d4b839921461023d57600080fd5b80636fb653a2116100c85780636fb653a214610195578063715018a6146101ca5780638cab6c4f146101d45780638da5cb5b146101fb57600080fd5b80633ac5743d146100ef578063407f80011461012e5780634b2cd1181461016a575b600080fd5b6101167f000000000000000000000000000000000000000000000000000000000000000081565b60405161ffff90911681526020015b60405180910390f35b6101557f000000000000000000000000000000000000000000000000000000000000000081565b60405163ffffffff9091168152602001610125565b60025461017d906001600160a01b031681565b6040516001600160a01b039091168152602001610125565b6101bc7f000000000000000000000000000000000000000000000000000000000000000081565b604051908152602001610125565b6101d26102c3565b005b6101bc7f000000000000000000000000000000000000000000000000000000000000000081565b6000546001600160a01b031661017d565b6000546001600160a01b031633146040519015158152602001610125565b6101d2610238366004610522565b610324565b60015461017d906001600160a01b031681565b60025461026490600160a01b900460ff1681565b60405160ff9091168152602001610125565b6101d2610284366004610522565b61037e565b6101d2610297366004610522565b6103d8565b61017d7f000000000000000000000000000000000000000000000000000000000000000081565b6000546001600160a01b031633146102da57600080fd5b600080546040516001600160a01b03909116907f8be0079c531659141344cd1fd0a4f28419497f9722a3daafe3b4186f6b6457e0908390a3600080546001600160a01b0319169055565b61032d816103f8565b6001600160a01b037f00000000000000000000000000000000000000000000000000000000000000001661036882637e062a3560e11b61044b565b6001600160a01b03161461037b57600080fd5b50565b60028054600160a01b900460ff161461039657600080fd5b6040513381526001600160a01b038216907fd55ec27c5c6316913ed8803c18cfd1bfefea953db909dcba6140744a9d8b0d1f906020015b60405180910390a250565b6000546001600160a01b031633146103ef57600080fd5b61037b81610464565b60028054600160a01b900460ff161461041057600080fd5b6040513381526001600160a01b038216907f1e8d98c1b4a0d9bd2e2371026b632eb2773fcce41742e41f02f574ab69868d4c906020016103cd565b60008061045b84848380806104d2565b51949350505050565b6001600160a01b03811661047757600080fd5b600080546040516001600160a01b03808516939216917f8be0079c531659141344cd1fd0a4f28419497f9722a3daafe3b4186f6b6457e091a3600080546001600160a01b0319166001600160a01b0392909216919091179055565b60405184815283156104e5578260048201525b60018411156104f5578160248201525b6000808560200260040183895af48015610513573d6000833e610518565b600082fd5b5095945050505050565b60006020828403121561053457600080fd5b81356001600160a01b038116811461054b57600080fd5b939250505056fea264697066735822122086c5bdfd5469b0fe29ef527e09965b472e3aed2185dfb195dd944a7fb222f7d064736f6c634300080a0033",
  "bytecodeSha1": "2910edf4228e23960cbb2605ffb9c64f1e237e8f",
  "compiler": {
    "evm_version": "istanbul",
    "optimizer": {
      "enabled": true,
      "runs": 200
    },
    "version": "0.8.10+commit.fc410830"
  },
  "contractName": "StakingEscrowStub",
  "language": "Solidity",
  "natspec": {
    "details": "|v1.1.0|",
    "kind": "dev",
    "methods": {
      "constructor": {
        "notice": "Predefines some variables for use when deploying other contracts",
        "params": {
          "_maxAllowableLockedTokens": "Max amount of tokens that can be locked",
          "_minAllowableLockedTokens": "Min amount of tokens that can be locked",
          "_token": "Token contract"
        }
      },
      "finishUpgrade(address)": {
        "details": "Copy values from the new target to the current storage",
        "params": {
          "_target": "New target contract address"
        }
      },
      "isOwner()": {
        "returns": {
          "_0": "true if `msg.sender` is the owner of the contract."
        }
      },
      "owner()": {
        "returns": {
          "_0": "the address of the owner."
        }
      },
      "renounceOwnership()": {
        "details": "Allows the current owner to relinquish control of the contract.",
        "notice": "Renouncing to ownership will leave the contract without an owner. It will not be possible to call the functions with the `onlyOwner` modifier anymore."
      },
      "transferOwnership(address)": {
        "details": "Allows the current owner to transfer control of the contract to a newOwner.",
        "params": {
          "newOwner": "The address to transfer ownership to."
        }
      },
      "verifyState(address)": {
        "details": "the `onlyWhileUpgrading` modifier works through a call to the parent `verifyState`"
      }
    },
    "notice": "Stub is used to deploy main StakingEscrow after all other contract and make some variables immutable",
    "title": "StakingEscrowStub",
    "version": 1
  },
  "opcodes": "PUSH1 0x80 PUSH1 0x40 MSTORE CALLVALUE DUP1 ISZERO PUSH2 0x10 JUMPI PUSH1 0x0 DUP1 REVERT JUMPDEST POP PUSH1 0x4 CALLDATASIZE LT PUSH2 0xEA JUMPI PUSH1 0x0 CALLDATALOAD PUSH1 0xE0 SHR DUP1 PUSH4 0x8F32D59B GT PUSH2 0x8C JUMPI DUP1 PUSH4 0xE38A303B GT PUSH2 0x66 JUMPI DUP1 PUSH4 0xE38A303B EQ PUSH2 0x250 JUMPI DUP1 PUSH4 0xE8DCCD06 EQ PUSH2 0x276 JUMPI DUP1 PUSH4 0xF2FDE38B EQ PUSH2 0x289 JUMPI DUP1 PUSH4 0xFC0C546A EQ PUSH2 0x29C JUMPI PUSH1 0x0 DUP1 REVERT JUMPDEST DUP1 PUSH4 0x8F32D59B EQ PUSH2 0x20C JUMPI DUP1 PUSH4 0xB9626D21 EQ PUSH2 0x22A JUMPI DUP1 PUSH4 0xD4B83992 EQ PUSH2 0x23D JUMPI PUSH1 0x0 DUP1 REVERT JUMPDEST DUP1 PUSH4 0x6FB653A2 GT PUSH2 0xC8 JUMPI DUP1 PUSH4 0x6FB653A2 EQ PUSH2 0x195 JUMPI DUP1 PUSH4 0x715018A6 EQ PUSH2 0x1CA JUMPI DUP1 PUSH4 0x8CAB6C4F EQ PUSH2 0x1D4 JUMPI DUP1 PUSH4 0x8DA5CB5B EQ PUSH2 0x1FB JUMPI PUSH1 0x0 DUP1 REVERT JUMPDEST DUP1 PUSH4 0x3AC5743D EQ PUSH2 0xEF JUMPI DUP1 PUSH4 0x407F8001 EQ PUSH2 0x12E JUMPI DUP1 PUSH4 0x4B2CD118 EQ PUSH2 0x16A JUMPI JUMPDEST PUSH1 0x0 DUP1 REVERT JUMPDEST PUSH2 0x116 PUSH32 0x0 DUP2 JUMP JUMPDEST PUSH1 0x40 MLOAD PUSH2 0xFFFF SWAP1 SWAP2 AND DUP2 MSTORE PUSH1 0x20 ADD JUMPDEST PUSH1 0x40 MLOAD DUP1 SWAP2 SUB SWAP1 RETURN JUMPDEST PUSH2 0x155 PUSH32 0x0 DUP2 JUMP JUMPDEST PUSH1 0x40 MLOAD PUSH4 0xFFFFFFFF SWAP1 SWAP2 AND DUP2 MSTORE PUSH1 0x20 ADD PUSH2 0x125 JUMP JUMPDEST PUSH1 0x2 SLOAD PUSH2 0x17D SWAP1 PUSH1 0x1 PUSH1 0x1 PUSH1 0xA0 SHL SUB AND DUP2 JUMP JUMPDEST PUSH1 0x40 MLOAD PUSH1 0x1 PUSH1 0x1 PUSH1 0xA0 SHL SUB SWAP1 SWAP2 AND DUP2 MSTORE PUSH1 0x20 ADD PUSH2 0x125 JUMP JUMPDEST PUSH2 0x1BC PUSH32 0x0 DUP2 JUMP JUMPDEST PUSH1 0x40 MLOAD SWAP1 DUP2 MSTORE PUSH1 0x20 ADD PUSH2 0x125 JUMP JUMPDEST PUSH2 0x1D2 PUSH2 0x2C3 JUMP JUMPDEST STOP JUMPDEST PUSH2 0x1BC PUSH32 0x0 DUP2 JUMP JUMPDEST PUSH1 0x0 SLOAD PUSH1 0x1 PUSH1 0x1 PUSH1 0xA0 SHL SUB AND PUSH2 0x17D JUMP JUMPDEST PUSH1 0x0 SLOAD PUSH1 0x1 PUSH1 0x1 PUSH1 0xA0 SHL SUB AND CALLER EQ PUSH1 0x40 MLOAD SWAP1 ISZERO ISZERO DUP2 MSTORE PUSH1 0x20 ADD PUSH2 0x125 JUMP JUMPDEST PUSH2 0x1D2 PUSH2 0x238 CALLDATASIZE PUSH1 0x4 PUSH2 0x522 JUMP JUMPDEST PUSH2 0x324 JUMP JUMPDEST PUSH1 0x1 SLOAD PUSH2 0x17D SWAP1 PUSH1 0x1 PUSH1 0x1 PUSH1 0xA0 SHL SUB AND DUP2 JUMP JUMPDEST PUSH1 0x2 SLOAD PUSH2 0x264 SWAP1 PUSH1 0x1 PUSH1 0xA0 SHL SWAP1 DIV PUSH1 0xFF AND DUP2 JUMP JUMPDEST PUSH1 0x40 MLOAD PUSH1 0xFF SWAP1 SWAP2 AND DUP2 MSTORE PUSH1 0x20 ADD PUSH2 0x125 JUMP JUMPDEST PUSH2 0x1D2 PUSH2 0x284 CALLDATASIZE PUSH1 0x4 PUSH2 0x522 JUMP JUMPDEST PUSH2 0x37E JUMP JUMPDEST PUSH2 0x1D2 PUSH2 0x297 CALLDATASIZE PUSH1 0x4 PUSH2 0x522 JUMP JUMPDEST PUSH2 0x3D8 JUMP JUMPDEST PUSH2 0x17D PUSH32 0x0 DUP2 JUMP JUMPDEST PUSH1 0x0 SLOAD PUSH1 0x1 PUSH1 0x1 PUSH1 0xA0 SHL SUB AND CALLER EQ PUSH2 0x2DA JUMPI PUSH1 0x0 DUP1 REVERT JUMPDEST PUSH1 0x0 DUP1 SLOAD PUSH1 0x40 MLOAD PUSH1 0x1 PUSH1 0x1 PUSH1 0xA0 SHL SUB SWAP1 SWAP2 AND SWAP1 PUSH32 0x8BE0079C531659141344CD1FD0A4F28419497F9722A3DAAFE3B4186F6B6457E0 SWAP1 DUP4 SWAP1 LOG3 PUSH1 0x0 DUP1 SLOAD PUSH1 0x1 PUSH1 0x1 PUSH1 0xA0 SHL SUB NOT AND SWAP1 SSTORE JUMP JUMPDEST PUSH2 0x32D DUP2 PUSH2 0x3F8 JUMP JUMPDEST PUSH1 0x1 PUSH1 0x1 PUSH1 0xA0 SHL SUB PUSH32 0x0 AND PUSH2 0x368 DUP3 PUSH4 0x7E062A35 PUSH1 0xE1 SHL PUSH2 0x44B JUMP JUMPDEST PUSH1 0x1 PUSH1 0x1 PUSH1 0xA0 SHL SUB AND EQ PUSH2 0x37B JUMPI PUSH1 0x0 DUP1 REVERT JUMPDEST POP JUMP JUMPDEST PUSH1 0x2 DUP1 SLOAD PUSH1 0x1 PUSH1 0xA0 SHL SWAP1 DIV PUSH1 0xFF AND EQ PUSH2 0x396 JUMPI PUSH1 0x0 DUP1 REVERT JUMPDEST PUSH1 0x40 MLOAD CALLER DUP2 MSTORE PUSH1 0x1 PUSH1 0x1 PUSH1 0xA0 SHL SUB DUP3 AND SWAP1 PUSH32 0xD55EC27C5C6316913ED8803C18CFD1BFEFEA953DB909DCBA6140744A9D8B0D1F SWAP1 PUSH1 0x20 ADD JUMPDEST PUSH1 0x40 MLOAD DUP1 SWAP2 SUB SWAP1 LOG2 POP JUMP JUMPDEST PUSH1 0x0 SLOAD PUSH1 0x1 PUSH1 0x1 PUSH1 0xA0 SHL SUB AND CALLER EQ PUSH2 0x3EF JUMPI PUSH1 0x0 DUP1 REVERT JUMPDEST PUSH2 0x37B DUP2 PUSH2 0x464 JUMP JUMPDEST PUSH1 0x2 DUP1 SLOAD PUSH1 0x1 PUSH1 0xA0 SHL SWAP1 DIV PUSH1 0xFF AND EQ PUSH2 0x410 JUMPI PUSH1 0x0 DUP1 REVERT JUMPDEST PUSH1 0x40 MLOAD CALLER DUP2 MSTORE PUSH1 0x1 PUSH1 0x1 PUSH1 0xA0 SHL SUB DUP3 AND SWAP1 PUSH32 0x1E8D98C1B4A0D9BD2E2371026B632EB2773FCCE41742E41F02F574AB69868D4C SWAP1 PUSH1 0x20 ADD PUSH2 0x3CD JUMP JUMPDEST PUSH1 0x0 DUP1 PUSH2 0x45B DUP5 DUP5 DUP4 DUP1 DUP1 PUSH2 0x4D2 JUMP JUMPDEST MLOAD SWAP5 SWAP4 POP POP POP POP JUMP JUMPDEST PUSH1 0x1 PUSH1 0x1 PUSH1 0xA0 SHL SUB DUP2 AND PUSH2 0x477 JUMPI PUSH1 0x0 DUP1 REVERT JUMPDEST PUSH1 0x0 DUP1 SLOAD PUSH1 0x40 MLOAD PUSH1 0x1 PUSH1 0x1 PUSH1 0xA0 SHL SUB DUP1 DUP6 AND SWAP4 SWAP3 AND SWAP2 PUSH32 0x8BE0079C531659141344CD1FD0A4F28419497F9722A3DAAFE3B4186F6B6457E0 SWAP2 LOG3 PUSH1 0x0 DUP1 SLOAD PUSH1 0x1 PUSH1 0x1 PUSH1 0xA0 SHL SUB NOT AND PUSH1 0x1 PUSH1 0x1 PUSH1 0xA0 SHL SUB SWAP3 SWAP1 SWAP3 AND SWAP2 SWAP1 SWAP2 OR SWAP1 SSTORE JUMP JUMPDEST PUSH1 0x40 MLOAD DUP5 DUP2 MSTORE DUP4 ISZERO PUSH2 0x4E5 JUMPI DUP3 PUSH1 0x4 DUP3 ADD MSTORE JUMPDEST PUSH1 0x1 DUP5 GT ISZERO PUSH2 0x4F5 JUMPI DUP2 PUSH1 0x24 DUP3 ADD MSTORE JUMPDEST PUSH1 0x0 DUP1 DUP6 PUSH1 0x20 MUL PUSH1 0x4 ADD DUP4 DUP10 GAS DELEGATECALL DUP1 ISZERO PUSH2 0x513 JUMPI RETURNDATASIZE PUSH1 0x0 DUP4 RETURNDATACOPY PUSH2 0x518 JUMP JUMPDEST PUSH1 0x0 DUP3 REVERT JUMPDEST POP SWAP6 SWAP5 POP POP POP POP POP JUMP JUMPDEST PUSH1 0x0 PUSH1 0x20 DUP3 DUP5 SUB SLT ISZERO PUSH2 0x534 JUMPI PUSH1 0x0 DUP1 REVERT JUMPDEST DUP2 CALLDATALOAD PUSH1 0x1 PUSH1 0x1 PUSH1 0xA0 SHL SUB DUP2 AND DUP2 EQ PUSH2 0x54B JUMPI PUSH1 0x0 DUP1 REVERT JUMPDEST SWAP4 SWAP3 POP POP POP JUMP INVALID LOG2 PUSH5 0x6970667358 0x22 SLT KECCAK256 DUP7 0xC5 0xBD REVERT SLOAD PUSH10 0xB0FE29EF527E09965B47 0x2E GASPRICE 0xED 0x21 DUP6 0xDF 0xB1 SWAP6 0xDD SWAP5 0x4A PUSH32 0xB222F7D064736F6C634300080A00330000000000000000000000000000000000 ",
  "sha1": "cf8119b852649da8e0a17c76c6cf6dac02a4106d",
  "source": "// SPDX-License-Identifier: AGPL-3.0-or-later\n\npragma solidity ^0.8.0;\n\n\nimport \"../aragon/interfaces/IERC900History.sol\";\nimport \"./NuCypherToken.sol\";\nimport \"./lib/Bits.sol\";\nimport \"./proxy/Upgradeable.sol\";\nimport \"../zeppelin/math/Math.sol\";\nimport \"../zeppelin/token/ERC20/SafeERC20.sol\";\nimport \"../threshold/IStaking.sol\";\n\n\n/**\n* @notice WorkLock interface\n*/\ninterface WorkLockInterface {\n    function token() external view returns (NuCypherToken);\n}\n\n\n/**\n* @title StakingEscrowStub\n* @notice Stub is used to deploy main StakingEscrow after all other contract and make some variables immutable\n* @dev |v1.1.0|\n*/\ncontract StakingEscrowStub is Upgradeable {\n    NuCypherToken public immutable token;\n    // only to deploy WorkLock\n    uint32 public immutable secondsPerPeriod = 1;\n    uint16 public immutable minLockedPeriods = 0;\n    uint256 public immutable minAllowableLockedTokens;\n    uint256 public immutable maxAllowableLockedTokens;\n\n    /**\n    * @notice Predefines some variables for use when deploying other contracts\n    * @param _token Token contract\n    * @param _minAllowableLockedTokens Min amount of tokens that can be locked\n    * @param _maxAllowableLockedTokens Max amount of tokens that can be locked\n    */\n    constructor(\n        NuCypherToken _token,\n        uint256 _minAllowableLockedTokens,\n        uint256 _maxAllowableLockedTokens\n    ) {\n        require(_token.totalSupply() > 0 &&\n            _maxAllowableLockedTokens != 0);\n\n        token = _token;\n        minAllowableLockedTokens = _minAllowableLockedTokens;\n        maxAllowableLockedTokens = _maxAllowableLockedTokens;\n    }\n\n    /// @dev the `onlyWhileUpgrading` modifier works through a call to the parent `verifyState`\n    function verifyState(address _testTarget) public override virtual {\n        super.verifyState(_testTarget);\n\n        // we have to use real values even though this is a stub\n        require(address(uint160(delegateGet(_testTarget, this.token.selector))) == address(token));\n    }\n}\n\n\n/**\n* @title StakingEscrow\n* @notice Contract holds and locks stakers tokens.\n* Each staker that locks their tokens will receive some compensation\n* @dev |v6.2.2|\n*/\ncontract StakingEscrow is Upgradeable, IERC900History {\n\n    using Bits for uint256;\n    using SafeERC20 for NuCypherToken;\n\n    /**\n    * @notice Signals that tokens were deposited\n    * @param staker Staker address\n    * @param value Amount deposited (in NuNits)\n    */\n    event Deposited(address indexed staker, uint256 value);\n\n    /**\n    * @notice Signals that NU tokens were withdrawn to the staker\n    * @param staker Staker address\n    * @param value Amount withdraws (in NuNits)\n    */\n    event Withdrawn(address indexed staker, uint256 value);\n\n    /**\n    * @notice Signals that the staker was slashed\n    * @param staker Staker address\n    * @param penalty Slashing penalty\n    * @param investigator Investigator address\n    * @param reward Value of reward provided to investigator (in NuNits)\n    */\n    event Slashed(address indexed staker, uint256 penalty, address indexed investigator, uint256 reward);\n\n    /**\n    * @notice Signals that vesting parameters were set for the staker\n    * @param staker Staker address\n    * @param releaseTimestamp Release timestamp\n    * @param releaseRate Release rate\n    */\n    event VestingSet(address indexed staker, uint256 releaseTimestamp, uint256 releaseRate);\n\n    /**\n    * @notice Signals that the staker requested merge with T staking contract\n    * @param staker Staker address\n    * @param stakingProvider Staking provider address\n    */\n    event MergeRequested(address indexed staker, address indexed stakingProvider);\n\n    struct StakerInfo {\n        uint256 value;\n\n        uint16 stub1; // former slot for currentCommittedPeriod // TODO combine slots?\n        uint16 stub2; // former slot for nextCommittedPeriod\n        uint16 lastCommittedPeriod; // used only in depositFromWorkLock\n        uint16 stub4; // former slot for lockReStakeUntilPeriod\n        uint256 stub5; // former slot for completedWork\n        uint16 stub6; // former slot for workerStartPeriod\n        address stub7; // former slot for worker\n\n        uint256 flags; // uint256 to acquire whole slot and minimize operations on it\n\n        uint256 vestingReleaseTimestamp;\n        uint256 vestingReleaseRate;\n        address stakingProvider;\n\n        uint256 reservedSlot4;\n        uint256 reservedSlot5;\n\n        uint256[] stub8; // former slot for pastDowntime\n        uint256[] stub9; // former slot for subStakes\n        uint128[] stub10; // former slot for history\n\n    }\n\n    // indices for flags (0-4 were in use, skip it in future)\n//    uint8 internal constant SOME_FLAG_INDEX = 5;\n\n    NuCypherToken public immutable token;\n    WorkLockInterface public immutable workLock;\n    IStaking public immutable tStaking;\n\n    uint128 private stub1; // former slot for previousPeriodSupply\n    uint128 public currentPeriodSupply; // resulting token supply\n    uint16 private stub2; // former slot for currentMintingPeriod\n\n    mapping (address => StakerInfo) public stakerInfo;\n    address[] public stakers;\n    mapping (address => address) private stub3; // former slot for stakerFromWorker\n\n    mapping (uint16 => uint256) private stub4; // former slot for lockedPerPeriod\n    uint128[] private stub5;  // former slot for balanceHistory\n\n    address private stub6; // former slot for PolicyManager\n    address private stub7; // former slot for Adjudicator\n    address private stub8; // former slot for WorkLock\n\n    mapping (uint16 => uint256) private stub9; // last former slot for lockedPerPeriod\n\n    /**\n    * @notice Constructor sets address of token contract and parameters for staking\n    * @param _token NuCypher token contract\n    * @param _workLock WorkLock contract. Zero address if there is no WorkLock\n    * @param _tStaking T token staking contract\n    */\n    constructor(\n        NuCypherToken _token,\n        WorkLockInterface _workLock,\n        IStaking _tStaking\n    ) {\n        require(_token.totalSupply() > 0 &&\n            _tStaking.stakedNu(address(0)) == 0 &&\n            (address(_workLock) == address(0) || _workLock.token() == _token),\n            \"Input addresses must be deployed contracts\"\n        );\n\n        token = _token;\n        workLock = _workLock;\n        tStaking = _tStaking;\n    }\n\n    /**\n    * @dev Checks the existence of a staker in the contract\n    */\n    modifier onlyStaker()\n    {\n        require(stakerInfo[msg.sender].value > 0, \"Caller must be a staker\");\n        _;\n    }\n\n    /**\n    * @dev Checks caller is T staking contract\n    */\n    modifier onlyTStakingContract()\n    {\n        require(msg.sender == address(tStaking), \"Caller must be the T staking contract\");\n        _;\n    }\n\n    /**\n    * @dev Checks caller is WorkLock contract\n    */\n    modifier onlyWorkLock()\n    {\n        require(msg.sender == address(workLock), \"Caller must be the WorkLock contract\");\n        _;\n    }\n\n    //------------------------Main getters------------------------\n    /**\n    * @notice Get all tokens belonging to the staker\n    */\n    function getAllTokens(address _staker) external view returns (uint256) {\n        return stakerInfo[_staker].value;\n    }\n\n    /**\n    * @notice Get work that completed by the staker\n    */\n    function getCompletedWork(address _staker) external view returns (uint256) {\n        return token.totalSupply();\n    }\n\n\n    //------------------------Main methods------------------------\n    /**\n    * @notice Stub for WorkLock\n    * @param _staker Staker\n    * @param _measureWork Value for `measureWork` parameter\n    * @return Work that was previously done\n    */\n    function setWorkMeasurement(address _staker, bool _measureWork)\n        external onlyWorkLock returns (uint256)\n    {\n        return 0;\n    }\n\n    /**\n    * @notice Deposit tokens from WorkLock contract\n    * @param _staker Staker address\n    * @param _value Amount of tokens to deposit\n    * @param _unlockingDuration Amount of periods during which tokens will be unlocked when wind down is enabled\n    */\n    function depositFromWorkLock(\n        address _staker,\n        uint256 _value,\n        uint16 _unlockingDuration\n    )\n        external onlyWorkLock\n    {\n        require(_value != 0, \"Amount of tokens to deposit must be specified\");\n        StakerInfo storage info = stakerInfo[_staker];\n        // initial stake of the staker\n        if (info.value == 0 && info.lastCommittedPeriod == 0) {\n            stakers.push(_staker);\n        }\n        token.safeTransferFrom(msg.sender, address(this), _value);\n        info.value += _value;\n\n        emit Deposited(_staker, _value);\n    }\n\n    /**\n    * @notice Withdraw available amount of NU tokens to staker\n    * @param _value Amount of tokens to withdraw\n    */\n    function withdraw(uint256 _value) external onlyStaker {\n        require(_value > 0, \"Value must be specified\");\n        StakerInfo storage info = stakerInfo[msg.sender];\n        require(\n            _value + tStaking.stakedNu(info.stakingProvider) <= info.value,\n            \"Not enough tokens unstaked in T staking contract\"\n        );\n        require(\n            _value + getUnvestedTokens(msg.sender) <= info.value,\n            \"Not enough tokens released during vesting\"\n        );\n        info.value -= _value;\n\n        token.safeTransfer(msg.sender, _value);\n        emit Withdrawn(msg.sender, _value);\n    }\n\n    /**\n    * @notice Returns amount of not released yet tokens for staker\n    */\n    function getUnvestedTokens(address _staker) public view returns (uint256) {\n        StakerInfo storage info = stakerInfo[_staker];\n        if (info.vestingReleaseTimestamp <= block.timestamp) {\n            return 0;\n        }\n        if (info.vestingReleaseRate == 0) {\n            // this value includes all not withdrawn reward\n            return info.value;\n        }\n        uint256 unvestedTokens = (info.vestingReleaseTimestamp - block.timestamp) * info.vestingReleaseRate;\n        return info.value < unvestedTokens ? info.value : unvestedTokens;\n    }\n\n    /**\n    * @notice Setup vesting parameters\n    * @param _stakers Array of stakers\n    * @param _releaseTimestamp Array of timestamps when stake will be released\n    * @param _releaseRate Array of release rates\n    * @dev If release rate is 0 then all value will be locked before release timestamp\n    */\n    function setupVesting(\n        address[] calldata _stakers,\n        uint256[] calldata _releaseTimestamp,\n        uint256[] calldata _releaseRate\n    ) external onlyOwner {\n        require(_stakers.length == _releaseTimestamp.length &&\n            _releaseTimestamp.length == _releaseRate.length,\n            \"Input arrays must have same number of elements\"\n        );\n        for (uint256 i = 0; i < _stakers.length; i++) {\n            address staker = _stakers[i];\n            StakerInfo storage info = stakerInfo[staker];\n            require(info.vestingReleaseTimestamp == 0, \"Vesting parameters can be set only once\");\n            info.vestingReleaseTimestamp = _releaseTimestamp[i];\n            info.vestingReleaseRate = _releaseRate[i];\n            require(getUnvestedTokens(staker) > 0, \"Vesting parameters must be set properly\");\n            emit VestingSet(staker, info.vestingReleaseTimestamp, info.vestingReleaseRate);\n        }\n    }\n\n    /**\n    * @notice Request migration to threshold network\n    * @param _staker Staker address\n    * @param _stakingProvider Staking provider address\n    * @return Amount of tokens\n    */\n    function requestMerge(address _staker, address _stakingProvider)\n        external onlyTStakingContract returns (uint256)\n    {\n        StakerInfo storage info = stakerInfo[_staker];\n        require(\n            info.stakingProvider == address(0) ||\n            info.stakingProvider == _stakingProvider ||\n            tStaking.stakedNu(info.stakingProvider) == 0,\n            \"Staking provider already set for the staker\"\n        );\n        if (info.stakingProvider != _stakingProvider) {\n            info.stakingProvider = _stakingProvider;\n            emit MergeRequested(_staker, _stakingProvider);\n        }\n        return info.value;\n    }\n\n    //-------------------------Slashing-------------------------\n    /**\n    * @notice Slash the staker's stake and reward the investigator\n    * @param _staker Staker's address\n    * @param _penalty Penalty\n    * @param _investigator Investigator\n    * @param _reward Reward for the investigator\n    */\n    function slashStaker(\n        address _staker,\n        uint256 _penalty,\n        address _investigator,\n        uint256 _reward\n    )\n        external onlyTStakingContract\n    {\n        require(_penalty > 0, \"Penalty must be specified\");\n        StakerInfo storage info = stakerInfo[_staker];\n        if (info.value <= _penalty) {\n            _penalty = info.value;\n        }\n        info.value -= _penalty;\n        if (_reward > _penalty) {\n            _reward = _penalty;\n        }\n\n        emit Slashed(_staker, _penalty, _investigator, _reward);\n        if (_reward > 0) {\n            token.safeTransfer(_investigator, _reward);\n        }\n    }\n\n    //-------------Additional getters for stakers info-------------\n    /**\n    * @notice Return the length of the array of stakers\n    */\n    function getStakersLength() external view virtual returns (uint256) {\n        return stakers.length;\n    }\n\n    //------------------ ERC900 connectors ----------------------\n\n    function totalStakedForAt(address _owner, uint256 _blockNumber) public view override returns (uint256) {\n        return 0;\n    }\n\n    function totalStakedAt(uint256 _blockNumber) public view override returns (uint256) {\n        return token.totalSupply();\n    }\n\n    function supportsHistory() external pure override returns (bool) {\n        return true;\n    }\n\n    //------------------------Upgradeable------------------------\n    /**\n    * @dev Get StakerInfo structure by delegatecall\n    */\n    function delegateGetStakerInfo(address _target, bytes32 _staker)\n        internal returns (StakerInfo memory result)\n    {\n        bytes32 memoryAddress = delegateGetData(_target, this.stakerInfo.selector, 1, _staker, 0);\n        assembly {\n            result := memoryAddress\n        }\n    }\n\n    /// @dev the `onlyWhileUpgrading` modifier works through a call to the parent `verifyState`\n    function verifyState(address _testTarget) public override virtual {\n        super.verifyState(_testTarget);\n\n        require(delegateGet(_testTarget, this.getStakersLength.selector) == stakers.length);\n        if (stakers.length == 0) {\n            return;\n        }\n        address stakerAddress = stakers[0];\n        require(address(uint160(delegateGet(_testTarget, this.stakers.selector, 0))) == stakerAddress);\n        StakerInfo storage info = stakerInfo[stakerAddress];\n        bytes32 staker = bytes32(uint256(uint160(stakerAddress)));\n        StakerInfo memory infoToCheck = delegateGetStakerInfo(_testTarget, staker);\n        require(infoToCheck.value == info.value &&\n            infoToCheck.vestingReleaseTimestamp == info.vestingReleaseTimestamp &&\n            infoToCheck.vestingReleaseRate == info.vestingReleaseRate &&\n            infoToCheck.stakingProvider == info.stakingProvider &&\n            infoToCheck.flags == info.flags\n        );\n    }\n\n}\n",
  "sourcePath": "contracts/contracts/StakingEscrow.sol",
  "type": "contract"
}