{
  "abi": [
    {
      "inputs": [
        {
          "internalType": "contract BaseStakingInterface",
          "name": "_target",
          "type": "address"
        }
      ],
      "stateMutability": "nonpayable",
      "type": "constructor"
    },
    {
      "anonymous": false,
      "inputs": [
        {
          "indexed": true,
          "internalType": "address",
          "name": "previousOwner",
          "type": "address"
        },
        {
          "indexed": true,
          "internalType": "address",
          "name": "newOwner",
          "type": "address"
        }
      ],
      "name": "OwnershipTransferred",
      "type": "event"
    },
    {
      "inputs": [],
      "name": "isOwner",
      "outputs": [
        {
          "internalType": "bool",
          "name": "",
          "type": "bool"
        }
      ],
      "stateMutability": "view",
      "type": "function"
    },
    {
      "inputs": [],
      "name": "owner",
      "outputs": [
        {
          "internalType": "address",
          "name": "",
          "type": "address"
        }
      ],
      "stateMutability": "view",
      "type": "function"
    },
    {
      "inputs": [],
      "name": "renounceOwnership",
      "outputs": [],
      "stateMutability": "nonpayable",
      "type": "function"
    },
    {
      "inputs": [],
      "name": "target",
      "outputs": [
        {
          "internalType": "contract BaseStakingInterface",
          "name": "",
          "type": "address"
        }
      ],
      "stateMutability": "view",
      "type": "function"
    },
    {
      "inputs": [
        {
          "internalType": "address",
          "name": "newOwner",
          "type": "address"
        }
      ],
      "name": "transferOwnership",
      "outputs": [],
      "stateMutability": "nonpayable",
      "type": "function"
    },
    {
      "inputs": [
        {
          "internalType": "contract BaseStakingInterface",
          "name": "_target",
          "type": "address"
        }
      ],
      "name": "upgrade",
      "outputs": [],
      "stateMutability": "nonpayable",
      "type": "function"
    }
  ],
  "bytecode": "608060405234801561001057600080fd5b5060405161048938038061048983398101604081905261002f9161012c565b600080546001600160a01b0319163390811782556040519091907f8be0079c531659141344cd1fd0a4f28419497f9722a3daafe3b4186f6b6457e0908290a360006001600160a01b0316816001600160a01b031663fc0c546a6040518163ffffffff1660e01b8152600401602060405180830381865afa1580156100b7573d6000803e3d6000fd5b505050506040513d601f19601f820116820180604052508101906100db919061012c565b6001600160a01b031614156100ef57600080fd5b600180546001600160a01b0319166001600160a01b0392909216919091179055610150565b6001600160a01b038116811461012957600080fd5b50565b60006020828403121561013e57600080fd5b815161014981610114565b9392505050565b61032a8061015f6000396000f3fe608060405234801561001057600080fd5b50600436106100625760003560e01c80630900f01014610067578063715018a61461007c5780638da5cb5b146100845780638f32d59b146100ae578063d4b83992146100cc578063f2fde38b146100df575b600080fd5b61007a6100753660046102b3565b6100f2565b005b61007a6101ac565b6000546001600160a01b03165b6040516001600160a01b0390911681526020015b60405180910390f35b6000546001600160a01b0316331460405190151581526020016100a5565b600154610091906001600160a01b031681565b61007a6100ed3660046102b3565b61020d565b6000546001600160a01b0316331461010957600080fd5b60006001600160a01b0316816001600160a01b031663fc0c546a6040518163ffffffff1660e01b8152600401602060405180830381865afa158015610152573d6000803e3d6000fd5b505050506040513d601f19601f8201168201806040525081019061017691906102d7565b6001600160a01b0316141561018a57600080fd5b600180546001600160a01b0319166001600160a01b0392909216919091179055565b6000546001600160a01b031633146101c357600080fd5b600080546040516001600160a01b03909116907f8be0079c531659141344cd1fd0a4f28419497f9722a3daafe3b4186f6b6457e0908390a3600080546001600160a01b0319169055565b6000546001600160a01b0316331461022457600080fd5b61022d81610230565b50565b6001600160a01b03811661024357600080fd5b600080546040516001600160a01b03808516939216917f8be0079c531659141344cd1fd0a4f28419497f9722a3daafe3b4186f6b6457e091a3600080546001600160a01b0319166001600160a01b0392909216919091179055565b6001600160a01b038116811461022d57600080fd5b6000602082840312156102c557600080fd5b81356102d08161029e565b9392505050565b6000602082840312156102e957600080fd5b81516102d08161029e56fea264697066735822122005bb0ee5277763c1c26e5af80d16457b0f3b31ce5993aa1d33ddf652885ff42b64736f6c634300080a0033",
  "bytecodeSha1": "061d358897f4b97ba262cf7e91b52c97ec7705f3",
  "compiler": {
    "evm_version": "istanbul",
    "optimizer": {
      "enabled": true,
      "runs": 200
    },
    "version": "0.8.10+commit.fc410830"
  },
  "contractName": "StakingInterfaceRouter",
  "language": "Solidity",
  "natspec": {
    "kind": "dev",
    "methods": {
      "constructor": {
        "params": {
          "_target": "Address of the interface contract"
        }
      },
      "isOwner()": {
        "returns": {
          "_0": "true if `msg.sender` is the owner of the contract."
        }
      },
      "owner()": {
        "returns": {
          "_0": "the address of the owner."
        }
      },
      "renounceOwnership()": {
        "details": "Allows the current owner to relinquish control of the contract.",
        "notice": "Renouncing to ownership will leave the contract without an owner. It will not be possible to call the functions with the `onlyOwner` modifier anymore."
      },
      "transferOwnership(address)": {
        "details": "Allows the current owner to transfer control of the contract to a newOwner.",
        "params": {
          "newOwner": "The address to transfer ownership to."
        }
      },
      "upgrade(address)": {
        "notice": "Upgrade interface",
        "params": {
          "_target": "New contract address"
        }
      }
    },
    "notice": "Router for accessing interface contract",
    "version": 1
  },
  "opcodes": "PUSH1 0x80 PUSH1 0x40 MSTORE CALLVALUE DUP1 ISZERO PUSH2 0x10 JUMPI PUSH1 0x0 DUP1 REVERT JUMPDEST POP PUSH1 0x4 CALLDATASIZE LT PUSH2 0x62 JUMPI PUSH1 0x0 CALLDATALOAD PUSH1 0xE0 SHR DUP1 PUSH4 0x900F010 EQ PUSH2 0x67 JUMPI DUP1 PUSH4 0x715018A6 EQ PUSH2 0x7C JUMPI DUP1 PUSH4 0x8DA5CB5B EQ PUSH2 0x84 JUMPI DUP1 PUSH4 0x8F32D59B EQ PUSH2 0xAE JUMPI DUP1 PUSH4 0xD4B83992 EQ PUSH2 0xCC JUMPI DUP1 PUSH4 0xF2FDE38B EQ PUSH2 0xDF JUMPI JUMPDEST PUSH1 0x0 DUP1 REVERT JUMPDEST PUSH2 0x7A PUSH2 0x75 CALLDATASIZE PUSH1 0x4 PUSH2 0x2B3 JUMP JUMPDEST PUSH2 0xF2 JUMP JUMPDEST STOP JUMPDEST PUSH2 0x7A PUSH2 0x1AC JUMP JUMPDEST PUSH1 0x0 SLOAD PUSH1 0x1 PUSH1 0x1 PUSH1 0xA0 SHL SUB AND JUMPDEST PUSH1 0x40 MLOAD PUSH1 0x1 PUSH1 0x1 PUSH1 0xA0 SHL SUB SWAP1 SWAP2 AND DUP2 MSTORE PUSH1 0x20 ADD JUMPDEST PUSH1 0x40 MLOAD DUP1 SWAP2 SUB SWAP1 RETURN JUMPDEST PUSH1 0x0 SLOAD PUSH1 0x1 PUSH1 0x1 PUSH1 0xA0 SHL SUB AND CALLER EQ PUSH1 0x40 MLOAD SWAP1 ISZERO ISZERO DUP2 MSTORE PUSH1 0x20 ADD PUSH2 0xA5 JUMP JUMPDEST PUSH1 0x1 SLOAD PUSH2 0x91 SWAP1 PUSH1 0x1 PUSH1 0x1 PUSH1 0xA0 SHL SUB AND DUP2 JUMP JUMPDEST PUSH2 0x7A PUSH2 0xED CALLDATASIZE PUSH1 0x4 PUSH2 0x2B3 JUMP JUMPDEST PUSH2 0x20D JUMP JUMPDEST PUSH1 0x0 SLOAD PUSH1 0x1 PUSH1 0x1 PUSH1 0xA0 SHL SUB AND CALLER EQ PUSH2 0x109 JUMPI PUSH1 0x0 DUP1 REVERT JUMPDEST PUSH1 0x0 PUSH1 0x1 PUSH1 0x1 PUSH1 0xA0 SHL SUB AND DUP2 PUSH1 0x1 PUSH1 0x1 PUSH1 0xA0 SHL SUB AND PUSH4 0xFC0C546A PUSH1 0x40 MLOAD DUP2 PUSH4 0xFFFFFFFF AND PUSH1 0xE0 SHL DUP2 MSTORE PUSH1 0x4 ADD PUSH1 0x20 PUSH1 0x40 MLOAD DUP1 DUP4 SUB DUP2 DUP7 GAS STATICCALL ISZERO DUP1 ISZERO PUSH2 0x152 JUMPI RETURNDATASIZE PUSH1 0x0 DUP1 RETURNDATACOPY RETURNDATASIZE PUSH1 0x0 REVERT JUMPDEST POP POP POP POP PUSH1 0x40 MLOAD RETURNDATASIZE PUSH1 0x1F NOT PUSH1 0x1F DUP3 ADD AND DUP3 ADD DUP1 PUSH1 0x40 MSTORE POP DUP2 ADD SWAP1 PUSH2 0x176 SWAP2 SWAP1 PUSH2 0x2D7 JUMP JUMPDEST PUSH1 0x1 PUSH1 0x1 PUSH1 0xA0 SHL SUB AND EQ ISZERO PUSH2 0x18A JUMPI PUSH1 0x0 DUP1 REVERT JUMPDEST PUSH1 0x1 DUP1 SLOAD PUSH1 0x1 PUSH1 0x1 PUSH1 0xA0 SHL SUB NOT AND PUSH1 0x1 PUSH1 0x1 PUSH1 0xA0 SHL SUB SWAP3 SWAP1 SWAP3 AND SWAP2 SWAP1 SWAP2 OR SWAP1 SSTORE JUMP JUMPDEST PUSH1 0x0 SLOAD PUSH1 0x1 PUSH1 0x1 PUSH1 0xA0 SHL SUB AND CALLER EQ PUSH2 0x1C3 JUMPI PUSH1 0x0 DUP1 REVERT JUMPDEST PUSH1 0x0 DUP1 SLOAD PUSH1 0x40 MLOAD PUSH1 0x1 PUSH1 0x1 PUSH1 0xA0 SHL SUB SWAP1 SWAP2 AND SWAP1 PUSH32 0x8BE0079C531659141344CD1FD0A4F28419497F9722A3DAAFE3B4186F6B6457E0 SWAP1 DUP4 SWAP1 LOG3 PUSH1 0x0 DUP1 SLOAD PUSH1 0x1 PUSH1 0x1 PUSH1 0xA0 SHL SUB NOT AND SWAP1 SSTORE JUMP JUMPDEST PUSH1 0x0 SLOAD PUSH1 0x1 PUSH1 0x1 PUSH1 0xA0 SHL SUB AND CALLER EQ PUSH2 0x224 JUMPI PUSH1 0x0 DUP1 REVERT JUMPDEST PUSH2 0x22D DUP2 PUSH2 0x230 JUMP JUMPDEST POP JUMP JUMPDEST PUSH1 0x1 PUSH1 0x1 PUSH1 0xA0 SHL SUB DUP2 AND PUSH2 0x243 JUMPI PUSH1 0x0 DUP1 REVERT JUMPDEST PUSH1 0x0 DUP1 SLOAD PUSH1 0x40 MLOAD PUSH1 0x1 PUSH1 0x1 PUSH1 0xA0 SHL SUB DUP1 DUP6 AND SWAP4 SWAP3 AND SWAP2 PUSH32 0x8BE0079C531659141344CD1FD0A4F28419497F9722A3DAAFE3B4186F6B6457E0 SWAP2 LOG3 PUSH1 0x0 DUP1 SLOAD PUSH1 0x1 PUSH1 0x1 PUSH1 0xA0 SHL SUB NOT AND PUSH1 0x1 PUSH1 0x1 PUSH1 0xA0 SHL SUB SWAP3 SWAP1 SWAP3 AND SWAP2 SWAP1 SWAP2 OR SWAP1 SSTORE JUMP JUMPDEST PUSH1 0x1 PUSH1 0x1 PUSH1 0xA0 SHL SUB DUP2 AND DUP2 EQ PUSH2 0x22D JUMPI PUSH1 0x0 DUP1 REVERT JUMPDEST PUSH1 0x0 PUSH1 0x20 DUP3 DUP5 SUB SLT ISZERO PUSH2 0x2C5 JUMPI PUSH1 0x0 DUP1 REVERT JUMPDEST DUP2 CALLDATALOAD PUSH2 0x2D0 DUP2 PUSH2 0x29E JUMP JUMPDEST SWAP4 SWAP3 POP POP POP JUMP JUMPDEST PUSH1 0x0 PUSH1 0x20 DUP3 DUP5 SUB SLT ISZERO PUSH2 0x2E9 JUMPI PUSH1 0x0 DUP1 REVERT JUMPDEST DUP2 MLOAD PUSH2 0x2D0 DUP2 PUSH2 0x29E JUMP INVALID LOG2 PUSH5 0x6970667358 0x22 SLT KECCAK256 SDIV 0xBB 0xE 0xE5 0x27 PUSH24 0x63C1C26E5AF80D16457B0F3B31CE5993AA1D33DDF652885F DELEGATECALL 0x2B PUSH5 0x736F6C6343 STOP ADDMOD EXP STOP CALLER ",
  "sha1": "45a4cc203bc3aa291f13ce3afd3bdbccb84e4728",
  "source": "// SPDX-License-Identifier: AGPL-3.0-or-later\n\npragma solidity ^0.8.0;\n\nimport \"../../zeppelin/ownership/Ownable.sol\";\nimport \"../../zeppelin/utils/Address.sol\";\nimport \"../../zeppelin/token/ERC20/SafeERC20.sol\";\nimport \"./StakingInterface.sol\";\nimport \"../../zeppelin/proxy/Initializable.sol\";\n\n\n/**\n* @notice Router for accessing interface contract\n*/\ncontract StakingInterfaceRouter is Ownable {\n    BaseStakingInterface public target;\n\n    /**\n    * @param _target Address of the interface contract\n    */\n    constructor(BaseStakingInterface _target) {\n        require(address(_target.token()) != address(0));\n        target = _target;\n    }\n\n    /**\n    * @notice Upgrade interface\n    * @param _target New contract address\n    */\n    function upgrade(BaseStakingInterface _target) external onlyOwner {\n        require(address(_target.token()) != address(0));\n        target = _target;\n    }\n\n}\n\n\n/**\n* @notice Internal base class for AbstractStakingContract and InitializableStakingContract\n*/\nabstract contract RawStakingContract {\n    using Address for address;\n\n    /**\n    * @dev Returns address of StakingInterfaceRouter\n    */\n    function router() public view virtual returns (StakingInterfaceRouter);\n\n    /**\n    * @dev Checks permission for calling fallback function\n    */\n    function isFallbackAllowed() public virtual returns (bool);\n\n    /**\n    * @dev Withdraw tokens from staking contract\n    */\n    function withdrawTokens(uint256 _value) public virtual;\n\n    /**\n    * @dev Withdraw ETH from staking contract\n    */\n    function withdrawETH() public virtual;\n\n    receive() external payable {}\n\n    /**\n    * @dev Function sends all requests to the target contract\n    */\n    fallback() external payable {\n        require(isFallbackAllowed());\n        address target = address(router().target());\n        require(target.isContract());\n        // execute requested function from target contract\n        (bool callSuccess, ) = target.delegatecall(msg.data);\n        if (callSuccess) {\n            // copy result of the request to the return data\n            // we can use the second return value from `delegatecall` (bytes memory)\n            // but it will consume a little more gas\n            assembly {\n                returndatacopy(0x0, 0x0, returndatasize())\n                return(0x0, returndatasize())\n            }\n        } else {\n            revert();\n        }\n    }\n}\n\n\n/**\n* @notice Base class for any staking contract (not usable with openzeppelin proxy)\n* @dev Implement `isFallbackAllowed()` or override fallback function\n* Implement `withdrawTokens(uint256)` and `withdrawETH()` functions\n*/\nabstract contract AbstractStakingContract is RawStakingContract {\n\n    StakingInterfaceRouter immutable router_;\n    NuCypherToken public immutable token;\n\n    /**\n    * @param _router Interface router contract address\n    */\n    constructor(StakingInterfaceRouter _router) {\n        router_ = _router;\n        NuCypherToken localToken = _router.target().token();\n        require(address(localToken) != address(0));\n        token = localToken;\n    }\n\n    /**\n    * @dev Returns address of StakingInterfaceRouter\n    */\n    function router() public view override returns (StakingInterfaceRouter) {\n        return router_;\n    }\n\n}\n\n\n/**\n* @notice Base class for any staking contract usable with openzeppelin proxy\n* @dev Implement `isFallbackAllowed()` or override fallback function\n* Implement `withdrawTokens(uint256)` and `withdrawETH()` functions\n*/\nabstract contract InitializableStakingContract is Initializable, RawStakingContract {\n\n    StakingInterfaceRouter router_;\n    NuCypherToken public token;\n\n    /**\n    * @param _router Interface router contract address\n    */\n    function initialize(StakingInterfaceRouter _router) public initializer {\n        router_ = _router;\n        NuCypherToken localToken = _router.target().token();\n        require(address(localToken) != address(0));\n        token = localToken;\n    }\n\n    /**\n    * @dev Returns address of StakingInterfaceRouter\n    */\n    function router() public view override returns (StakingInterfaceRouter) {\n        return router_;\n    }\n\n}\n",
  "sourcePath": "contracts/contracts/staking_contracts/AbstractStakingContract.sol",
  "type": "contract"
}