{
  "abi": [
    {
      "inputs": [
        {
          "internalType": "contract NuCypherToken",
          "name": "_token",
          "type": "address"
        },
        {
          "internalType": "contract WorkLockInterface",
          "name": "_workLock",
          "type": "address"
        },
        {
          "internalType": "contract IStaking",
          "name": "_tStaking",
          "type": "address"
        }
      ],
      "stateMutability": "nonpayable",
      "type": "constructor"
    },
    {
      "anonymous": false,
      "inputs": [
        {
          "indexed": true,
          "internalType": "address",
          "name": "staker",
          "type": "address"
        },
        {
          "indexed": false,
          "internalType": "uint256",
          "name": "value",
          "type": "uint256"
        }
      ],
      "name": "Deposited",
      "type": "event"
    },
    {
      "anonymous": false,
      "inputs": [
        {
          "indexed": true,
          "internalType": "address",
          "name": "staker",
          "type": "address"
        },
        {
          "indexed": true,
          "internalType": "address",
          "name": "stakingProvider",
          "type": "address"
        }
      ],
      "name": "MergeRequested",
      "type": "event"
    },
    {
      "anonymous": false,
      "inputs": [
        {
          "indexed": true,
          "internalType": "address",
          "name": "previousOwner",
          "type": "address"
        },
        {
          "indexed": true,
          "internalType": "address",
          "name": "newOwner",
          "type": "address"
        }
      ],
      "name": "OwnershipTransferred",
      "type": "event"
    },
    {
      "anonymous": false,
      "inputs": [
        {
          "indexed": true,
          "internalType": "address",
          "name": "staker",
          "type": "address"
        },
        {
          "indexed": false,
          "internalType": "uint256",
          "name": "penalty",
          "type": "uint256"
        },
        {
          "indexed": true,
          "internalType": "address",
          "name": "investigator",
          "type": "address"
        },
        {
          "indexed": false,
          "internalType": "uint256",
          "name": "reward",
          "type": "uint256"
        }
      ],
      "name": "Slashed",
      "type": "event"
    },
    {
      "anonymous": false,
      "inputs": [
        {
          "indexed": true,
          "internalType": "address",
          "name": "testTarget",
          "type": "address"
        },
        {
          "indexed": false,
          "internalType": "address",
          "name": "sender",
          "type": "address"
        }
      ],
      "name": "StateVerified",
      "type": "event"
    },
    {
      "anonymous": false,
      "inputs": [
        {
          "indexed": true,
          "internalType": "address",
          "name": "target",
          "type": "address"
        },
        {
          "indexed": false,
          "internalType": "address",
          "name": "sender",
          "type": "address"
        }
      ],
      "name": "UpgradeFinished",
      "type": "event"
    },
    {
      "anonymous": false,
      "inputs": [
        {
          "indexed": true,
          "internalType": "address",
          "name": "staker",
          "type": "address"
        },
        {
          "indexed": false,
          "internalType": "uint256",
          "name": "releaseTimestamp",
          "type": "uint256"
        },
        {
          "indexed": false,
          "internalType": "uint256",
          "name": "releaseRate",
          "type": "uint256"
        }
      ],
      "name": "VestingSet",
      "type": "event"
    },
    {
      "anonymous": false,
      "inputs": [
        {
          "indexed": true,
          "internalType": "address",
          "name": "staker",
          "type": "address"
        },
        {
          "indexed": false,
          "internalType": "uint256",
          "name": "value",
          "type": "uint256"
        }
      ],
      "name": "Withdrawn",
      "type": "event"
    },
    {
      "inputs": [],
      "name": "currentPeriodSupply",
      "outputs": [
        {
          "internalType": "uint128",
          "name": "",
          "type": "uint128"
        }
      ],
      "stateMutability": "view",
      "type": "function"
    },
    {
      "inputs": [
        {
          "internalType": "address",
          "name": "_staker",
          "type": "address"
        },
        {
          "internalType": "uint256",
          "name": "_value",
          "type": "uint256"
        },
        {
          "internalType": "uint16",
          "name": "_unlockingDuration",
          "type": "uint16"
        }
      ],
      "name": "depositFromWorkLock",
      "outputs": [],
      "stateMutability": "nonpayable",
      "type": "function"
    },
    {
      "inputs": [
        {
          "internalType": "address",
          "name": "_target",
          "type": "address"
        }
      ],
      "name": "finishUpgrade",
      "outputs": [],
      "stateMutability": "nonpayable",
      "type": "function"
    },
    {
      "inputs": [
        {
          "internalType": "address",
          "name": "_staker",
          "type": "address"
        }
      ],
      "name": "getAllTokens",
      "outputs": [
        {
          "internalType": "uint256",
          "name": "",
          "type": "uint256"
        }
      ],
      "stateMutability": "view",
      "type": "function"
    },
    {
      "inputs": [
        {
          "internalType": "address",
          "name": "_staker",
          "type": "address"
        }
      ],
      "name": "getCompletedWork",
      "outputs": [
        {
          "internalType": "uint256",
          "name": "",
          "type": "uint256"
        }
      ],
      "stateMutability": "view",
      "type": "function"
    },
    {
      "inputs": [],
      "name": "getStakersLength",
      "outputs": [
        {
          "internalType": "uint256",
          "name": "",
          "type": "uint256"
        }
      ],
      "stateMutability": "view",
      "type": "function"
    },
    {
      "inputs": [
        {
          "internalType": "address",
          "name": "_staker",
          "type": "address"
        }
      ],
      "name": "getUnvestedTokens",
      "outputs": [
        {
          "internalType": "uint256",
          "name": "",
          "type": "uint256"
        }
      ],
      "stateMutability": "view",
      "type": "function"
    },
    {
      "inputs": [],
      "name": "isOwner",
      "outputs": [
        {
          "internalType": "bool",
          "name": "",
          "type": "bool"
        }
      ],
      "stateMutability": "view",
      "type": "function"
    },
    {
      "inputs": [],
      "name": "isUpgrade",
      "outputs": [
        {
          "internalType": "uint8",
          "name": "",
          "type": "uint8"
        }
      ],
      "stateMutability": "view",
      "type": "function"
    },
    {
      "inputs": [],
      "name": "owner",
      "outputs": [
        {
          "internalType": "address",
          "name": "",
          "type": "address"
        }
      ],
      "stateMutability": "view",
      "type": "function"
    },
    {
      "inputs": [],
      "name": "previousTarget",
      "outputs": [
        {
          "internalType": "address",
          "name": "",
          "type": "address"
        }
      ],
      "stateMutability": "view",
      "type": "function"
    },
    {
      "inputs": [],
      "name": "renounceOwnership",
      "outputs": [],
      "stateMutability": "nonpayable",
      "type": "function"
    },
    {
      "inputs": [
        {
          "internalType": "address",
          "name": "_staker",
          "type": "address"
        },
        {
          "internalType": "address",
          "name": "_stakingProvider",
          "type": "address"
        }
      ],
      "name": "requestMerge",
      "outputs": [
        {
          "internalType": "uint256",
          "name": "",
          "type": "uint256"
        }
      ],
      "stateMutability": "nonpayable",
      "type": "function"
    },
    {
      "inputs": [
        {
          "internalType": "address",
          "name": "_staker",
          "type": "address"
        },
        {
          "internalType": "bool",
          "name": "_measureWork",
          "type": "bool"
        }
      ],
      "name": "setWorkMeasurement",
      "outputs": [
        {
          "internalType": "uint256",
          "name": "",
          "type": "uint256"
        }
      ],
      "stateMutability": "nonpayable",
      "type": "function"
    },
    {
      "inputs": [
        {
          "internalType": "address[]",
          "name": "_stakers",
          "type": "address[]"
        },
        {
          "internalType": "uint256[]",
          "name": "_releaseTimestamp",
          "type": "uint256[]"
        },
        {
          "internalType": "uint256[]",
          "name": "_releaseRate",
          "type": "uint256[]"
        }
      ],
      "name": "setupVesting",
      "outputs": [],
      "stateMutability": "nonpayable",
      "type": "function"
    },
    {
      "inputs": [
        {
          "internalType": "address",
          "name": "_staker",
          "type": "address"
        },
        {
          "internalType": "uint256",
          "name": "_penalty",
          "type": "uint256"
        },
        {
          "internalType": "address",
          "name": "_investigator",
          "type": "address"
        },
        {
          "internalType": "uint256",
          "name": "_reward",
          "type": "uint256"
        }
      ],
      "name": "slashStaker",
      "outputs": [],
      "stateMutability": "nonpayable",
      "type": "function"
    },
    {
      "inputs": [
        {
          "internalType": "address",
          "name": "",
          "type": "address"
        }
      ],
      "name": "stakerInfo",
      "outputs": [
        {
          "internalType": "uint256",
          "name": "value",
          "type": "uint256"
        },
        {
          "internalType": "uint16",
          "name": "stub1",
          "type": "uint16"
        },
        {
          "internalType": "uint16",
          "name": "stub2",
          "type": "uint16"
        },
        {
          "internalType": "uint16",
          "name": "lastCommittedPeriod",
          "type": "uint16"
        },
        {
          "internalType": "uint16",
          "name": "stub4",
          "type": "uint16"
        },
        {
          "internalType": "uint256",
          "name": "stub5",
          "type": "uint256"
        },
        {
          "internalType": "uint16",
          "name": "stub6",
          "type": "uint16"
        },
        {
          "internalType": "address",
          "name": "stub7",
          "type": "address"
        },
        {
          "internalType": "uint256",
          "name": "flags",
          "type": "uint256"
        },
        {
          "internalType": "uint256",
          "name": "vestingReleaseTimestamp",
          "type": "uint256"
        },
        {
          "internalType": "uint256",
          "name": "vestingReleaseRate",
          "type": "uint256"
        },
        {
          "internalType": "address",
          "name": "stakingProvider",
          "type": "address"
        },
        {
          "internalType": "uint256",
          "name": "reservedSlot4",
          "type": "uint256"
        },
        {
          "internalType": "uint256",
          "name": "reservedSlot5",
          "type": "uint256"
        }
      ],
      "stateMutability": "view",
      "type": "function"
    },
    {
      "inputs": [
        {
          "internalType": "uint256",
          "name": "",
          "type": "uint256"
        }
      ],
      "name": "stakers",
      "outputs": [
        {
          "internalType": "address",
          "name": "",
          "type": "address"
        }
      ],
      "stateMutability": "view",
      "type": "function"
    },
    {
      "inputs": [],
      "name": "supportsHistory",
      "outputs": [
        {
          "internalType": "bool",
          "name": "",
          "type": "bool"
        }
      ],
      "stateMutability": "pure",
      "type": "function"
    },
    {
      "inputs": [],
      "name": "tStaking",
      "outputs": [
        {
          "internalType": "contract IStaking",
          "name": "",
          "type": "address"
        }
      ],
      "stateMutability": "view",
      "type": "function"
    },
    {
      "inputs": [],
      "name": "target",
      "outputs": [
        {
          "internalType": "address",
          "name": "",
          "type": "address"
        }
      ],
      "stateMutability": "view",
      "type": "function"
    },
    {
      "inputs": [],
      "name": "token",
      "outputs": [
        {
          "internalType": "contract NuCypherToken",
          "name": "",
          "type": "address"
        }
      ],
      "stateMutability": "view",
      "type": "function"
    },
    {
      "inputs": [
        {
          "internalType": "uint256",
          "name": "_blockNumber",
          "type": "uint256"
        }
      ],
      "name": "totalStakedAt",
      "outputs": [
        {
          "internalType": "uint256",
          "name": "",
          "type": "uint256"
        }
      ],
      "stateMutability": "view",
      "type": "function"
    },
    {
      "inputs": [
        {
          "internalType": "address",
          "name": "_owner",
          "type": "address"
        },
        {
          "internalType": "uint256",
          "name": "_blockNumber",
          "type": "uint256"
        }
      ],
      "name": "totalStakedForAt",
      "outputs": [
        {
          "internalType": "uint256",
          "name": "",
          "type": "uint256"
        }
      ],
      "stateMutability": "view",
      "type": "function"
    },
    {
      "inputs": [
        {
          "internalType": "address",
          "name": "newOwner",
          "type": "address"
        }
      ],
      "name": "transferOwnership",
      "outputs": [],
      "stateMutability": "nonpayable",
      "type": "function"
    },
    {
      "inputs": [
        {
          "internalType": "address",
          "name": "_testTarget",
          "type": "address"
        }
      ],
      "name": "verifyState",
      "outputs": [],
      "stateMutability": "nonpayable",
      "type": "function"
    },
    {
      "inputs": [
        {
          "internalType": "uint256",
          "name": "_value",
          "type": "uint256"
        }
      ],
      "name": "withdraw",
      "outputs": [],
      "stateMutability": "nonpayable",
      "type": "function"
    },
    {
      "inputs": [],
      "name": "workLock",
      "outputs": [
        {
          "internalType": "contract WorkLockInterface",
          "name": "",
          "type": "address"
        }
      ],
      "stateMutability": "view",
      "type": "function"
    }
  ],
  "bytecode": "60e06040523480156200001157600080fd5b506040516200205638038062002056833981016040819052620000349162000280565b600080546001600160a01b0319163390811782556040519091907f8be0079c531659141344cd1fd0a4f28419497f9722a3daafe3b4186f6b6457e0908290a36000836001600160a01b03166318160ddd6040518163ffffffff1660e01b8152600401602060405180830381865afa158015620000b4573d6000803e3d6000fd5b505050506040513d601f19601f82011682018060405250810190620000da9190620002d4565b118015620001515750604051634a11fae360e01b8152600060048201526001600160a01b03821690634a11fae390602401602060405180830381865afa15801562000129573d6000803e3d6000fd5b505050506040513d601f19601f820116820180604052508101906200014f9190620002d4565b155b8015620001e557506001600160a01b0382161580620001e55750826001600160a01b0316826001600160a01b031663fc0c546a6040518163ffffffff1660e01b8152600401602060405180830381865afa158015620001b4573d6000803e3d6000fd5b505050506040513d601f19601f82011682018060405250810190620001da9190620002ee565b6001600160a01b0316145b620002495760405162461bcd60e51b815260206004820152602a60248201527f496e70757420616464726573736573206d757374206265206465706c6f79656460448201526920636f6e74726163747360b01b606482015260840160405180910390fd5b6001600160a01b0392831660805290821660a0521660c05262000315565b6001600160a01b03811681146200027d57600080fd5b50565b6000806000606084860312156200029657600080fd5b8351620002a38162000267565b6020850151909350620002b68162000267565b6040850151909250620002c98162000267565b809150509250925092565b600060208284031215620002e757600080fd5b5051919050565b6000602082840312156200030157600080fd5b81516200030e8162000267565b9392505050565b60805160a05160c051611ccb6200038b60003960008181610454015281816107c4015281816109ab01528181610a4e0152610c4b01526000818161021f0152818161051d0152610b990152600081816104dd015281816106590152818161093e01528181610d8b0152610f4f0152611ccb6000f3fe608060405234801561001057600080fd5b50600436106101c45760003560e01c80639fabeb00116100f9578063dbaa0fc611610097578063ede3842111610071578063ede38421146104af578063f2fde38b146104c5578063fc0c546a146104d8578063fd5e6dd1146104ff57600080fd5b8063dbaa0fc61461044f578063e38a303b14610476578063e8dccd061461049c57600080fd5b8063c9c53232116100d3578063c9c5323214610408578063d094adbf1461041b578063d4b8399214610429578063db6879881461043c57600080fd5b80639fabeb00146103da578063b9626d21146103e2578063c07b5d8c146103f557600080fd5b80634b2cd11811610166578063715018a611610140578063715018a61461039b5780638da5cb5b146103a35780638f32d59b146103b457806399cc218c146103c757600080fd5b80634b2cd118146102c45780634e745f1f146102d75780637033e4a61461038857600080fd5b8063204612a8116101a2578063204612a8146102595780632e1a7d4d1461028b5780633223ff4b1461029e57806349e5add4146102b157600080fd5b8063171f03c2146101c9578063178b6de6146101de5780631c7fd5321461021a575b600080fd5b6101dc6101d73660046117e7565b610512565b005b6102076101ec36600461182e565b6001600160a01b031660009081526006602052604090205490565b6040519081526020015b60405180910390f35b6102417f000000000000000000000000000000000000000000000000000000000000000081565b6040516001600160a01b039091168152602001610211565b60045461027390600160801b90046001600160801b031681565b6040516001600160801b039091168152602001610211565b6101dc610299366004611849565b6106de565b6102076102ac366004611862565b61099e565b6102076102bf3660046118a3565b610b8c565b600254610241906001600160a01b031681565b61036e6102e536600461182e565b60066020819052600091825260409091208054600182015460028301546003840154600485015460058601549686015460078701546008880154600990980154969861ffff8088169962010000808a0483169a6401000000008b0484169a6601000000000000900484169998938416976001600160a01b0392909404821696939590911691908e565b6040516102119e9d9c9b9a999897969594939291906118da565b60015b6040519015158152602001610211565b6101dc610bdf565b6000546001600160a01b0316610241565b6000546001600160a01b0316331461038b565b6101dc6103d5366004611972565b610c40565b600754610207565b6101dc6103f036600461182e565b610db9565b61020761040336600461182e565b610ed0565b610207610416366004611849565b610f4b565b61020761041636600461182e565b600154610241906001600160a01b031681565b6101dc61044a366004611a02565b610fd5565b6102417f000000000000000000000000000000000000000000000000000000000000000081565b60025461048a90600160a01b900460ff1681565b60405160ff9091168152602001610211565b6101dc6104aa36600461182e565b611229565b6102076104bd366004611a9c565b600092915050565b6101dc6104d336600461182e565b611283565b6102417f000000000000000000000000000000000000000000000000000000000000000081565b61024161050d366004611849565b6112a6565b336001600160a01b037f000000000000000000000000000000000000000000000000000000000000000016146105635760405162461bcd60e51b815260040161055a90611ac6565b60405180910390fd5b816105c65760405162461bcd60e51b815260206004820152602d60248201527f416d6f756e74206f6620746f6b656e7320746f206465706f736974206d75737460448201526c081899481cdc1958da599a5959609a1b606482015260840161055a565b6001600160a01b038316600090815260066020526040902080541580156105fb57506001810154640100000000900461ffff16155b1561064c57600780546001810182556000919091527fa66cc928b5edb82af9bd49922954155ab7b0942694bea4ce44661d9a8736c6880180546001600160a01b0319166001600160a01b0386161790555b6106816001600160a01b037f0000000000000000000000000000000000000000000000000000000000000000163330866112d0565b828160000160008282546106959190611b20565b90915550506040518381526001600160a01b038516907f2da466a7b24304f47e87fa2e1e5a81b9831ce54fec19055ce277ca2f39ba42c49060200160405180910390a250505050565b3360009081526006602052604090205461073a5760405162461bcd60e51b815260206004820152601760248201527f43616c6c6572206d7573742062652061207374616b6572000000000000000000604482015260640161055a565b6000811161078a5760405162461bcd60e51b815260206004820152601760248201527f56616c7565206d75737420626520737065636966696564000000000000000000604482015260640161055a565b3360009081526006602052604090819020805460078201549251634a11fae360e01b81526001600160a01b039384166004820152919290917f000000000000000000000000000000000000000000000000000000000000000090911690634a11fae390602401602060405180830381865afa15801561080d573d6000803e3d6000fd5b505050506040513d601f19601f820116820180604052508101906108319190611b38565b61083b9084611b20565b11156108a25760405162461bcd60e51b815260206004820152603060248201527f4e6f7420656e6f75676820746f6b656e7320756e7374616b656420696e20542060448201526f1cdd185ada5b99c818dbdb9d1c9858dd60821b606482015260840161055a565b80546108ad33610ed0565b6108b79084611b20565b11156109175760405162461bcd60e51b815260206004820152602960248201527f4e6f7420656e6f75676820746f6b656e732072656c656173656420647572696e604482015268672076657374696e6760b81b606482015260840161055a565b8181600001600082825461092b9190611b51565b9091555061096590506001600160a01b037f0000000000000000000000000000000000000000000000000000000000000000163384611341565b60405182815233907f7084f5476618d8e60b11ef0d7d3f06914655adb8793e28ff7f018d4c76d505d59060200160405180910390a25050565b6000336001600160a01b037f000000000000000000000000000000000000000000000000000000000000000016146109e85760405162461bcd60e51b815260040161055a90611b68565b6001600160a01b03808416600090815260066020526040902060078101549091161580610a24575060078101546001600160a01b038481169116145b80610abd57506007810154604051634a11fae360e01b81526001600160a01b0391821660048201527f000000000000000000000000000000000000000000000000000000000000000090911690634a11fae390602401602060405180830381865afa158015610a97573d6000803e3d6000fd5b505050506040513d601f19601f82011682018060405250810190610abb9190611b38565b155b610b1d5760405162461bcd60e51b815260206004820152602b60248201527f5374616b696e672070726f766964657220616c72656164792073657420666f7260448201526a103a34329039ba30b5b2b960a91b606482015260840161055a565b60078101546001600160a01b03848116911614610b84576007810180546001600160a01b0319166001600160a01b0385811691821790925560405190918616907fe49f168acc1287c0f7b4541660600e72e51f66e70babb33223525a3f87ae603190600090a35b549392505050565b6000336001600160a01b037f00000000000000000000000000000000000000000000000000000000000000001614610bd65760405162461bcd60e51b815260040161055a90611ac6565b50600092915050565b6000546001600160a01b03163314610bf657600080fd5b600080546040516001600160a01b03909116907f8be0079c531659141344cd1fd0a4f28419497f9722a3daafe3b4186f6b6457e0908390a3600080546001600160a01b0319169055565b336001600160a01b037f00000000000000000000000000000000000000000000000000000000000000001614610c885760405162461bcd60e51b815260040161055a90611b68565b60008311610cd85760405162461bcd60e51b815260206004820152601960248201527f50656e616c7479206d7573742062652073706563696669656400000000000000604482015260640161055a565b6001600160a01b038416600090815260066020526040902080548410610cfd57805493505b83816000016000828254610d119190611b51565b909155505083821115610d22578391505b826001600160a01b0316856001600160a01b03167f34040fa1c0549c8572589c39cb87ff7638286467446a4790971d58d931c654bb8685604051610d70929190918252602082015260400190565b60405180910390a38115610db257610db26001600160a01b037f0000000000000000000000000000000000000000000000000000000000000000168484611341565b5050505050565b610dc281611376565b600754610dd582629fabeb60e81b6113c9565b14610ddf57600080fd5b600754610de95750565b60006007600081548110610dff57610dff611bad565b60009182526020822001546001600160a01b031691508190610e2b90849063fd5e6dd160e01b906113e2565b6001600160a01b031614610e3e57600080fd5b6001600160a01b03811660008181526006602052604081209190610e6285836113fd565b83548151919250148015610e7e57508260050154816101200151145b8015610e9257508260060154816101400151145b8015610eb3575060078301546101608201516001600160a01b039081169116145b8015610ec757508260040154816101000151145b610db257600080fd5b6001600160a01b038116600090815260066020526040812060058101544210610efc5750600092915050565b6006810154610f0c575492915050565b60008160060154428360050154610f239190611b51565b610f2d9190611bc3565b905080826000015410610f405780610f43565b81545b949350505050565b60007f00000000000000000000000000000000000000000000000000000000000000006001600160a01b03166318160ddd6040518163ffffffff1660e01b8152600401602060405180830381865afa158015610fab573d6000803e3d6000fd5b505050506040513d601f19601f82011682018060405250810190610fcf9190611b38565b92915050565b6000546001600160a01b03163314610fec57600080fd5b8483148015610ffa57508281145b61105d5760405162461bcd60e51b815260206004820152602e60248201527f496e70757420617272617973206d75737420686176652073616d65206e756d6260448201526d6572206f6620656c656d656e747360901b606482015260840161055a565b60005b8581101561122057600087878381811061107c5761107c611bad565b9050602002016020810190611091919061182e565b6001600160a01b03811660009081526006602052604090206005810154919250901561110f5760405162461bcd60e51b815260206004820152602760248201527f56657374696e6720706172616d65746572732063616e20626520736574206f6e6044820152666c79206f6e636560c81b606482015260840161055a565b86868481811061112157611121611bad565b602002919091013560058301555084848481811061114157611141611bad565b6020029190910135600683015550600061115a83610ed0565b116111b75760405162461bcd60e51b815260206004820152602760248201527f56657374696e6720706172616d6574657273206d757374206265207365742070604482015266726f7065726c7960c81b606482015260840161055a565b816001600160a01b03167ffb8dc35d14cc25e41d680c975bd50a0640415afdf7af584763fa7549c0b8889782600501548360060154604051611203929190918252602082015260400190565b60405180910390a25050808061121890611be2565b915050611060565b50505050505050565b60028054600160a01b900460ff161461124157600080fd5b6040513381526001600160a01b038216907fd55ec27c5c6316913ed8803c18cfd1bfefea953db909dcba6140744a9d8b0d1f906020015b60405180910390a250565b6000546001600160a01b0316331461129a57600080fd5b6112a3816114c1565b50565b600781815481106112b657600080fd5b6000918252602090912001546001600160a01b0316905081565b6040516001600160a01b038085166024830152831660448201526064810182905261133b9085906323b872dd60e01b906084015b60408051601f198184030181529190526020810180516001600160e01b03166001600160e01b03199093169290921790915261152f565b50505050565b6040516001600160a01b03831660248201526044810182905261137190849063a9059cbb60e01b90606401611304565b505050565b60028054600160a01b900460ff161461138e57600080fd5b6040513381526001600160a01b038216907f1e8d98c1b4a0d9bd2e2371026b632eb2773fcce41742e41f02f574ab69868d4c90602001611278565b6000806113d98484838080611601565b51949350505050565b6000806113f3858560018685611601565b5195945050505050565b6114aa60405180610220016040528060008152602001600061ffff168152602001600061ffff168152602001600061ffff168152602001600061ffff16815260200160008152602001600061ffff16815260200160006001600160a01b0316815260200160008152602001600081526020016000815260200160006001600160a01b0316815260200160008152602001600081526020016060815260200160608152602001606081525090565b6000610f4384634e745f1f60e01b60018685611601565b6001600160a01b0381166114d457600080fd5b600080546040516001600160a01b03808516939216917f8be0079c531659141344cd1fd0a4f28419497f9722a3daafe3b4186f6b6457e091a3600080546001600160a01b0319166001600160a01b0392909216919091179055565b6000611584826040518060400160405280602081526020017f5361666545524332303a206c6f772d6c6576656c2063616c6c206661696c6564815250856001600160a01b03166116519092919063ffffffff16565b80519091501561137157808060200190518101906115a29190611bfd565b6113715760405162461bcd60e51b815260206004820152602a60248201527f5361666545524332303a204552433230206f7065726174696f6e20646964206e6044820152691bdd081cdd58d8d9595960b21b606482015260840161055a565b6040518481528315611614578260048201525b6001841115611624578160248201525b6000808560200260040183895af48015611642573d6000833e611647565b600082fd5b5095945050505050565b6060611660848460008561166a565b90505b9392505050565b6060824710156116cb5760405162461bcd60e51b815260206004820152602660248201527f416464726573733a20696e73756666696369656e742062616c616e636520666f6044820152651c8818d85b1b60d21b606482015260840161055a565b843b6117195760405162461bcd60e51b815260206004820152601d60248201527f416464726573733a2063616c6c20746f206e6f6e2d636f6e7472616374000000604482015260640161055a565b600080866001600160a01b031685876040516117359190611c46565b60006040518083038185875af1925050503d8060008114611772576040519150601f19603f3d011682016040523d82523d6000602084013e611777565b606091505b5091509150611787828286611792565b979650505050505050565b606083156117a1575081611663565b8251156117b15782518084602001fd5b8160405162461bcd60e51b815260040161055a9190611c62565b80356001600160a01b03811681146117e257600080fd5b919050565b6000806000606084860312156117fc57600080fd5b611805846117cb565b925060208401359150604084013561ffff8116811461182357600080fd5b809150509250925092565b60006020828403121561184057600080fd5b611663826117cb565b60006020828403121561185b57600080fd5b5035919050565b6000806040838503121561187557600080fd5b61187e836117cb565b915061188c602084016117cb565b90509250929050565b80151581146112a357600080fd5b600080604083850312156118b657600080fd5b6118bf836117cb565b915060208301356118cf81611895565b809150509250929050565b8e815261ffff8e811660208301528d811660408301528c811660608301528b1660808201526101c081018a60a083015261191a60c083018b61ffff169052565b6001600160a01b03891660e08301528761010083015286610120830152856101408301526119546101608301866001600160a01b03169052565b6101808201939093526101a001529c9b505050505050505050505050565b6000806000806080858703121561198857600080fd5b611991856117cb565b9350602085013592506119a6604086016117cb565b9396929550929360600135925050565b60008083601f8401126119c857600080fd5b50813567ffffffffffffffff8111156119e057600080fd5b6020830191508360208260051b85010111156119fb57600080fd5b9250929050565b60008060008060008060608789031215611a1b57600080fd5b863567ffffffffffffffff80821115611a3357600080fd5b611a3f8a838b016119b6565b90985096506020890135915080821115611a5857600080fd5b611a648a838b016119b6565b90965094506040890135915080821115611a7d57600080fd5b50611a8a89828a016119b6565b979a9699509497509295939492505050565b60008060408385031215611aaf57600080fd5b611ab8836117cb565b946020939093013593505050565b60208082526024908201527f43616c6c6572206d7573742062652074686520576f726b4c6f636b20636f6e746040820152631c9858dd60e21b606082015260800190565b634e487b7160e01b600052601160045260246000fd5b60008219821115611b3357611b33611b0a565b500190565b600060208284031215611b4a57600080fd5b5051919050565b600082821015611b6357611b63611b0a565b500390565b60208082526025908201527f43616c6c6572206d757374206265207468652054207374616b696e6720636f6e6040820152641d1c9858dd60da1b606082015260800190565b634e487b7160e01b600052603260045260246000fd5b6000816000190483118215151615611bdd57611bdd611b0a565b500290565b6000600019821415611bf657611bf6611b0a565b5060010190565b600060208284031215611c0f57600080fd5b815161166381611895565b60005b83811015611c35578181015183820152602001611c1d565b8381111561133b5750506000910152565b60008251611c58818460208701611c1a565b9190910192915050565b6020815260008251806020840152611c81816040850160208701611c1a565b601f01601f1916919091016040019291505056fea2646970667358221220617e872007365934b71111f07ec85c8667bf76dd42c67985c0c48019d561505d64736f6c634300080a0033",
  "bytecodeSha1": "1d2e559e89b38c83d820ef5bd3d2b3875a558f69",
  "compiler": {
    "evm_version": "istanbul",
    "optimizer": {
      "enabled": true,
      "runs": 200
    },
    "version": "0.8.10+commit.fc410830"
  },
  "contractName": "StakingEscrow",
  "language": "Solidity",
  "natspec": {
    "details": "|v6.2.2|",
    "kind": "dev",
    "methods": {
      "constructor": {
        "notice": "Constructor sets address of token contract and parameters for staking",
        "params": {
          "_tStaking": "T token staking contract",
          "_token": "NuCypher token contract",
          "_workLock": "WorkLock contract. Zero address if there is no WorkLock"
        }
      },
      "depositFromWorkLock(address,uint256,uint16)": {
        "notice": "Deposit tokens from WorkLock contract",
        "params": {
          "_staker": "Staker address",
          "_unlockingDuration": "Amount of periods during which tokens will be unlocked when wind down is enabled",
          "_value": "Amount of tokens to deposit"
        }
      },
      "finishUpgrade(address)": {
        "details": "Copy values from the new target to the current storage",
        "params": {
          "_target": "New target contract address"
        }
      },
      "getAllTokens(address)": {
        "notice": "Get all tokens belonging to the staker"
      },
      "getCompletedWork(address)": {
        "notice": "Get work that completed by the staker"
      },
      "getStakersLength()": {
        "notice": "Return the length of the array of stakers"
      },
      "getUnvestedTokens(address)": {
        "notice": "Returns amount of not released yet tokens for staker"
      },
      "isOwner()": {
        "returns": {
          "_0": "true if `msg.sender` is the owner of the contract."
        }
      },
      "owner()": {
        "returns": {
          "_0": "the address of the owner."
        }
      },
      "renounceOwnership()": {
        "details": "Allows the current owner to relinquish control of the contract.",
        "notice": "Renouncing to ownership will leave the contract without an owner. It will not be possible to call the functions with the `onlyOwner` modifier anymore."
      },
      "requestMerge(address,address)": {
        "notice": "Request migration to threshold network",
        "params": {
          "_staker": "Staker address",
          "_stakingProvider": "Staking provider address"
        },
        "returns": {
          "_0": "Amount of tokens"
        }
      },
      "setWorkMeasurement(address,bool)": {
        "notice": "Stub for WorkLock",
        "params": {
          "_measureWork": "Value for `measureWork` parameter",
          "_staker": "Staker"
        },
        "returns": {
          "_0": "Work that was previously done"
        }
      },
      "setupVesting(address[],uint256[],uint256[])": {
        "details": "If release rate is 0 then all value will be locked before release timestamp",
        "notice": "Setup vesting parameters",
        "params": {
          "_releaseRate": "Array of release rates",
          "_releaseTimestamp": "Array of timestamps when stake will be released",
          "_stakers": "Array of stakers"
        }
      },
      "slashStaker(address,uint256,address,uint256)": {
        "notice": "Slash the staker's stake and reward the investigator",
        "params": {
          "_investigator": "Investigator",
          "_penalty": "Penalty",
          "_reward": "Reward for the investigator",
          "_staker": "Staker's address"
        }
      },
      "transferOwnership(address)": {
        "details": "Allows the current owner to transfer control of the contract to a newOwner.",
        "params": {
          "newOwner": "The address to transfer ownership to."
        }
      },
      "verifyState(address)": {
        "details": "the `onlyWhileUpgrading` modifier works through a call to the parent `verifyState`"
      },
      "withdraw(uint256)": {
        "notice": "Withdraw available amount of NU tokens to staker",
        "params": {
          "_value": "Amount of tokens to withdraw"
        }
      }
    },
    "notice": "Contract holds and locks stakers tokens. Each staker that locks their tokens will receive some compensation",
    "title": "StakingEscrow",
    "version": 1
  },
  "opcodes": "PUSH1 0x80 PUSH1 0x40 MSTORE CALLVALUE DUP1 ISZERO PUSH2 0x10 JUMPI PUSH1 0x0 DUP1 REVERT JUMPDEST POP PUSH1 0x4 CALLDATASIZE LT PUSH2 0x1C4 JUMPI PUSH1 0x0 CALLDATALOAD PUSH1 0xE0 SHR DUP1 PUSH4 0x9FABEB00 GT PUSH2 0xF9 JUMPI DUP1 PUSH4 0xDBAA0FC6 GT PUSH2 0x97 JUMPI DUP1 PUSH4 0xEDE38421 GT PUSH2 0x71 JUMPI DUP1 PUSH4 0xEDE38421 EQ PUSH2 0x4AF JUMPI DUP1 PUSH4 0xF2FDE38B EQ PUSH2 0x4C5 JUMPI DUP1 PUSH4 0xFC0C546A EQ PUSH2 0x4D8 JUMPI DUP1 PUSH4 0xFD5E6DD1 EQ PUSH2 0x4FF JUMPI PUSH1 0x0 DUP1 REVERT JUMPDEST DUP1 PUSH4 0xDBAA0FC6 EQ PUSH2 0x44F JUMPI DUP1 PUSH4 0xE38A303B EQ PUSH2 0x476 JUMPI DUP1 PUSH4 0xE8DCCD06 EQ PUSH2 0x49C JUMPI PUSH1 0x0 DUP1 REVERT JUMPDEST DUP1 PUSH4 0xC9C53232 GT PUSH2 0xD3 JUMPI DUP1 PUSH4 0xC9C53232 EQ PUSH2 0x408 JUMPI DUP1 PUSH4 0xD094ADBF EQ PUSH2 0x41B JUMPI DUP1 PUSH4 0xD4B83992 EQ PUSH2 0x429 JUMPI DUP1 PUSH4 0xDB687988 EQ PUSH2 0x43C JUMPI PUSH1 0x0 DUP1 REVERT JUMPDEST DUP1 PUSH4 0x9FABEB00 EQ PUSH2 0x3DA JUMPI DUP1 PUSH4 0xB9626D21 EQ PUSH2 0x3E2 JUMPI DUP1 PUSH4 0xC07B5D8C EQ PUSH2 0x3F5 JUMPI PUSH1 0x0 DUP1 REVERT JUMPDEST DUP1 PUSH4 0x4B2CD118 GT PUSH2 0x166 JUMPI DUP1 PUSH4 0x715018A6 GT PUSH2 0x140 JUMPI DUP1 PUSH4 0x715018A6 EQ PUSH2 0x39B JUMPI DUP1 PUSH4 0x8DA5CB5B EQ PUSH2 0x3A3 JUMPI DUP1 PUSH4 0x8F32D59B EQ PUSH2 0x3B4 JUMPI DUP1 PUSH4 0x99CC218C EQ PUSH2 0x3C7 JUMPI PUSH1 0x0 DUP1 REVERT JUMPDEST DUP1 PUSH4 0x4B2CD118 EQ PUSH2 0x2C4 JUMPI DUP1 PUSH4 0x4E745F1F EQ PUSH2 0x2D7 JUMPI DUP1 PUSH4 0x7033E4A6 EQ PUSH2 0x388 JUMPI PUSH1 0x0 DUP1 REVERT JUMPDEST DUP1 PUSH4 0x204612A8 GT PUSH2 0x1A2 JUMPI DUP1 PUSH4 0x204612A8 EQ PUSH2 0x259 JUMPI DUP1 PUSH4 0x2E1A7D4D EQ PUSH2 0x28B JUMPI DUP1 PUSH4 0x3223FF4B EQ PUSH2 0x29E JUMPI DUP1 PUSH4 0x49E5ADD4 EQ PUSH2 0x2B1 JUMPI PUSH1 0x0 DUP1 REVERT JUMPDEST DUP1 PUSH4 0x171F03C2 EQ PUSH2 0x1C9 JUMPI DUP1 PUSH4 0x178B6DE6 EQ PUSH2 0x1DE JUMPI DUP1 PUSH4 0x1C7FD532 EQ PUSH2 0x21A JUMPI JUMPDEST PUSH1 0x0 DUP1 REVERT JUMPDEST PUSH2 0x1DC PUSH2 0x1D7 CALLDATASIZE PUSH1 0x4 PUSH2 0x17E7 JUMP JUMPDEST PUSH2 0x512 JUMP JUMPDEST STOP JUMPDEST PUSH2 0x207 PUSH2 0x1EC CALLDATASIZE PUSH1 0x4 PUSH2 0x182E JUMP JUMPDEST PUSH1 0x1 PUSH1 0x1 PUSH1 0xA0 SHL SUB AND PUSH1 0x0 SWAP1 DUP2 MSTORE PUSH1 0x6 PUSH1 0x20 MSTORE PUSH1 0x40 SWAP1 KECCAK256 SLOAD SWAP1 JUMP JUMPDEST PUSH1 0x40 MLOAD SWAP1 DUP2 MSTORE PUSH1 0x20 ADD JUMPDEST PUSH1 0x40 MLOAD DUP1 SWAP2 SUB SWAP1 RETURN JUMPDEST PUSH2 0x241 PUSH32 0x0 DUP2 JUMP JUMPDEST PUSH1 0x40 MLOAD PUSH1 0x1 PUSH1 0x1 PUSH1 0xA0 SHL SUB SWAP1 SWAP2 AND DUP2 MSTORE PUSH1 0x20 ADD PUSH2 0x211 JUMP JUMPDEST PUSH1 0x4 SLOAD PUSH2 0x273 SWAP1 PUSH1 0x1 PUSH1 0x80 SHL SWAP1 DIV PUSH1 0x1 PUSH1 0x1 PUSH1 0x80 SHL SUB AND DUP2 JUMP JUMPDEST PUSH1 0x40 MLOAD PUSH1 0x1 PUSH1 0x1 PUSH1 0x80 SHL SUB SWAP1 SWAP2 AND DUP2 MSTORE PUSH1 0x20 ADD PUSH2 0x211 JUMP JUMPDEST PUSH2 0x1DC PUSH2 0x299 CALLDATASIZE PUSH1 0x4 PUSH2 0x1849 JUMP JUMPDEST PUSH2 0x6DE JUMP JUMPDEST PUSH2 0x207 PUSH2 0x2AC CALLDATASIZE PUSH1 0x4 PUSH2 0x1862 JUMP JUMPDEST PUSH2 0x99E JUMP JUMPDEST PUSH2 0x207 PUSH2 0x2BF CALLDATASIZE PUSH1 0x4 PUSH2 0x18A3 JUMP JUMPDEST PUSH2 0xB8C JUMP JUMPDEST PUSH1 0x2 SLOAD PUSH2 0x241 SWAP1 PUSH1 0x1 PUSH1 0x1 PUSH1 0xA0 SHL SUB AND DUP2 JUMP JUMPDEST PUSH2 0x36E PUSH2 0x2E5 CALLDATASIZE PUSH1 0x4 PUSH2 0x182E JUMP JUMPDEST PUSH1 0x6 PUSH1 0x20 DUP2 SWAP1 MSTORE PUSH1 0x0 SWAP2 DUP3 MSTORE PUSH1 0x40 SWAP1 SWAP2 KECCAK256 DUP1 SLOAD PUSH1 0x1 DUP3 ADD SLOAD PUSH1 0x2 DUP4 ADD SLOAD PUSH1 0x3 DUP5 ADD SLOAD PUSH1 0x4 DUP6 ADD SLOAD PUSH1 0x5 DUP7 ADD SLOAD SWAP7 DUP7 ADD SLOAD PUSH1 0x7 DUP8 ADD SLOAD PUSH1 0x8 DUP9 ADD SLOAD PUSH1 0x9 SWAP1 SWAP9 ADD SLOAD SWAP7 SWAP9 PUSH2 0xFFFF DUP1 DUP9 AND SWAP10 PUSH3 0x10000 DUP1 DUP11 DIV DUP4 AND SWAP11 PUSH5 0x100000000 DUP12 DIV DUP5 AND SWAP11 PUSH7 0x1000000000000 SWAP1 DIV DUP5 AND SWAP10 SWAP9 SWAP4 DUP5 AND SWAP8 PUSH1 0x1 PUSH1 0x1 PUSH1 0xA0 SHL SUB SWAP3 SWAP1 SWAP5 DIV DUP3 AND SWAP7 SWAP4 SWAP6 SWAP1 SWAP2 AND SWAP2 SWAP1 DUP15 JUMP JUMPDEST PUSH1 0x40 MLOAD PUSH2 0x211 SWAP15 SWAP14 SWAP13 SWAP12 SWAP11 SWAP10 SWAP9 SWAP8 SWAP7 SWAP6 SWAP5 SWAP4 SWAP3 SWAP2 SWAP1 PUSH2 0x18DA JUMP JUMPDEST PUSH1 0x1 JUMPDEST PUSH1 0x40 MLOAD SWAP1 ISZERO ISZERO DUP2 MSTORE PUSH1 0x20 ADD PUSH2 0x211 JUMP JUMPDEST PUSH2 0x1DC PUSH2 0xBDF JUMP JUMPDEST PUSH1 0x0 SLOAD PUSH1 0x1 PUSH1 0x1 PUSH1 0xA0 SHL SUB AND PUSH2 0x241 JUMP JUMPDEST PUSH1 0x0 SLOAD PUSH1 0x1 PUSH1 0x1 PUSH1 0xA0 SHL SUB AND CALLER EQ PUSH2 0x38B JUMP JUMPDEST PUSH2 0x1DC PUSH2 0x3D5 CALLDATASIZE PUSH1 0x4 PUSH2 0x1972 JUMP JUMPDEST PUSH2 0xC40 JUMP JUMPDEST PUSH1 0x7 SLOAD PUSH2 0x207 JUMP JUMPDEST PUSH2 0x1DC PUSH2 0x3F0 CALLDATASIZE PUSH1 0x4 PUSH2 0x182E JUMP JUMPDEST PUSH2 0xDB9 JUMP JUMPDEST PUSH2 0x207 PUSH2 0x403 CALLDATASIZE PUSH1 0x4 PUSH2 0x182E JUMP JUMPDEST PUSH2 0xED0 JUMP JUMPDEST PUSH2 0x207 PUSH2 0x416 CALLDATASIZE PUSH1 0x4 PUSH2 0x1849 JUMP JUMPDEST PUSH2 0xF4B JUMP JUMPDEST PUSH2 0x207 PUSH2 0x416 CALLDATASIZE PUSH1 0x4 PUSH2 0x182E JUMP JUMPDEST PUSH1 0x1 SLOAD PUSH2 0x241 SWAP1 PUSH1 0x1 PUSH1 0x1 PUSH1 0xA0 SHL SUB AND DUP2 JUMP JUMPDEST PUSH2 0x1DC PUSH2 0x44A CALLDATASIZE PUSH1 0x4 PUSH2 0x1A02 JUMP JUMPDEST PUSH2 0xFD5 JUMP JUMPDEST PUSH2 0x241 PUSH32 0x0 DUP2 JUMP JUMPDEST PUSH1 0x2 SLOAD PUSH2 0x48A SWAP1 PUSH1 0x1 PUSH1 0xA0 SHL SWAP1 DIV PUSH1 0xFF AND DUP2 JUMP JUMPDEST PUSH1 0x40 MLOAD PUSH1 0xFF SWAP1 SWAP2 AND DUP2 MSTORE PUSH1 0x20 ADD PUSH2 0x211 JUMP JUMPDEST PUSH2 0x1DC PUSH2 0x4AA CALLDATASIZE PUSH1 0x4 PUSH2 0x182E JUMP JUMPDEST PUSH2 0x1229 JUMP JUMPDEST PUSH2 0x207 PUSH2 0x4BD CALLDATASIZE PUSH1 0x4 PUSH2 0x1A9C JUMP JUMPDEST PUSH1 0x0 SWAP3 SWAP2 POP POP JUMP JUMPDEST PUSH2 0x1DC PUSH2 0x4D3 CALLDATASIZE PUSH1 0x4 PUSH2 0x182E JUMP JUMPDEST PUSH2 0x1283 JUMP JUMPDEST PUSH2 0x241 PUSH32 0x0 DUP2 JUMP JUMPDEST PUSH2 0x241 PUSH2 0x50D CALLDATASIZE PUSH1 0x4 PUSH2 0x1849 JUMP JUMPDEST PUSH2 0x12A6 JUMP JUMPDEST CALLER PUSH1 0x1 PUSH1 0x1 PUSH1 0xA0 SHL SUB PUSH32 0x0 AND EQ PUSH2 0x563 JUMPI PUSH1 0x40 MLOAD PUSH3 0x461BCD PUSH1 0xE5 SHL DUP2 MSTORE PUSH1 0x4 ADD PUSH2 0x55A SWAP1 PUSH2 0x1AC6 JUMP JUMPDEST PUSH1 0x40 MLOAD DUP1 SWAP2 SUB SWAP1 REVERT JUMPDEST DUP2 PUSH2 0x5C6 JUMPI PUSH1 0x40 MLOAD PUSH3 0x461BCD PUSH1 0xE5 SHL DUP2 MSTORE PUSH1 0x20 PUSH1 0x4 DUP3 ADD MSTORE PUSH1 0x2D PUSH1 0x24 DUP3 ADD MSTORE PUSH32 0x416D6F756E74206F6620746F6B656E7320746F206465706F736974206D757374 PUSH1 0x44 DUP3 ADD MSTORE PUSH13 0x81899481CDC1958DA599A5959 PUSH1 0x9A SHL PUSH1 0x64 DUP3 ADD MSTORE PUSH1 0x84 ADD PUSH2 0x55A JUMP JUMPDEST PUSH1 0x1 PUSH1 0x1 PUSH1 0xA0 SHL SUB DUP4 AND PUSH1 0x0 SWAP1 DUP2 MSTORE PUSH1 0x6 PUSH1 0x20 MSTORE PUSH1 0x40 SWAP1 KECCAK256 DUP1 SLOAD ISZERO DUP1 ISZERO PUSH2 0x5FB JUMPI POP PUSH1 0x1 DUP2 ADD SLOAD PUSH5 0x100000000 SWAP1 DIV PUSH2 0xFFFF AND ISZERO JUMPDEST ISZERO PUSH2 0x64C JUMPI PUSH1 0x7 DUP1 SLOAD PUSH1 0x1 DUP2 ADD DUP3 SSTORE PUSH1 0x0 SWAP2 SWAP1 SWAP2 MSTORE PUSH32 0xA66CC928B5EDB82AF9BD49922954155AB7B0942694BEA4CE44661D9A8736C688 ADD DUP1 SLOAD PUSH1 0x1 PUSH1 0x1 PUSH1 0xA0 SHL SUB NOT AND PUSH1 0x1 PUSH1 0x1 PUSH1 0xA0 SHL SUB DUP7 AND OR SWAP1 SSTORE JUMPDEST PUSH2 0x681 PUSH1 0x1 PUSH1 0x1 PUSH1 0xA0 SHL SUB PUSH32 0x0 AND CALLER ADDRESS DUP7 PUSH2 0x12D0 JUMP JUMPDEST DUP3 DUP2 PUSH1 0x0 ADD PUSH1 0x0 DUP3 DUP3 SLOAD PUSH2 0x695 SWAP2 SWAP1 PUSH2 0x1B20 JUMP JUMPDEST SWAP1 SWAP2 SSTORE POP POP PUSH1 0x40 MLOAD DUP4 DUP2 MSTORE PUSH1 0x1 PUSH1 0x1 PUSH1 0xA0 SHL SUB DUP6 AND SWAP1 PUSH32 0x2DA466A7B24304F47E87FA2E1E5A81B9831CE54FEC19055CE277CA2F39BA42C4 SWAP1 PUSH1 0x20 ADD PUSH1 0x40 MLOAD DUP1 SWAP2 SUB SWAP1 LOG2 POP POP POP POP JUMP JUMPDEST CALLER PUSH1 0x0 SWAP1 DUP2 MSTORE PUSH1 0x6 PUSH1 0x20 MSTORE PUSH1 0x40 SWAP1 KECCAK256 SLOAD PUSH2 0x73A JUMPI PUSH1 0x40 MLOAD PUSH3 0x461BCD PUSH1 0xE5 SHL DUP2 MSTORE PUSH1 0x20 PUSH1 0x4 DUP3 ADD MSTORE PUSH1 0x17 PUSH1 0x24 DUP3 ADD MSTORE PUSH32 0x43616C6C6572206D7573742062652061207374616B6572000000000000000000 PUSH1 0x44 DUP3 ADD MSTORE PUSH1 0x64 ADD PUSH2 0x55A JUMP JUMPDEST PUSH1 0x0 DUP2 GT PUSH2 0x78A JUMPI PUSH1 0x40 MLOAD PUSH3 0x461BCD PUSH1 0xE5 SHL DUP2 MSTORE PUSH1 0x20 PUSH1 0x4 DUP3 ADD MSTORE PUSH1 0x17 PUSH1 0x24 DUP3 ADD MSTORE PUSH32 0x56616C7565206D75737420626520737065636966696564000000000000000000 PUSH1 0x44 DUP3 ADD MSTORE PUSH1 0x64 ADD PUSH2 0x55A JUMP JUMPDEST CALLER PUSH1 0x0 SWAP1 DUP2 MSTORE PUSH1 0x6 PUSH1 0x20 MSTORE PUSH1 0x40 SWAP1 DUP2 SWAP1 KECCAK256 DUP1 SLOAD PUSH1 0x7 DUP3 ADD SLOAD SWAP3 MLOAD PUSH4 0x4A11FAE3 PUSH1 0xE0 SHL DUP2 MSTORE PUSH1 0x1 PUSH1 0x1 PUSH1 0xA0 SHL SUB SWAP4 DUP5 AND PUSH1 0x4 DUP3 ADD MSTORE SWAP2 SWAP3 SWAP1 SWAP2 PUSH32 0x0 SWAP1 SWAP2 AND SWAP1 PUSH4 0x4A11FAE3 SWAP1 PUSH1 0x24 ADD PUSH1 0x20 PUSH1 0x40 MLOAD DUP1 DUP4 SUB DUP2 DUP7 GAS STATICCALL ISZERO DUP1 ISZERO PUSH2 0x80D JUMPI RETURNDATASIZE PUSH1 0x0 DUP1 RETURNDATACOPY RETURNDATASIZE PUSH1 0x0 REVERT JUMPDEST POP POP POP POP PUSH1 0x40 MLOAD RETURNDATASIZE PUSH1 0x1F NOT PUSH1 0x1F DUP3 ADD AND DUP3 ADD DUP1 PUSH1 0x40 MSTORE POP DUP2 ADD SWAP1 PUSH2 0x831 SWAP2 SWAP1 PUSH2 0x1B38 JUMP JUMPDEST PUSH2 0x83B SWAP1 DUP5 PUSH2 0x1B20 JUMP JUMPDEST GT ISZERO PUSH2 0x8A2 JUMPI PUSH1 0x40 MLOAD PUSH3 0x461BCD PUSH1 0xE5 SHL DUP2 MSTORE PUSH1 0x20 PUSH1 0x4 DUP3 ADD MSTORE PUSH1 0x30 PUSH1 0x24 DUP3 ADD MSTORE PUSH32 0x4E6F7420656E6F75676820746F6B656E7320756E7374616B656420696E205420 PUSH1 0x44 DUP3 ADD MSTORE PUSH16 0x1CDD185ADA5B99C818DBDB9D1C9858DD PUSH1 0x82 SHL PUSH1 0x64 DUP3 ADD MSTORE PUSH1 0x84 ADD PUSH2 0x55A JUMP JUMPDEST DUP1 SLOAD PUSH2 0x8AD CALLER PUSH2 0xED0 JUMP JUMPDEST PUSH2 0x8B7 SWAP1 DUP5 PUSH2 0x1B20 JUMP JUMPDEST GT ISZERO PUSH2 0x917 JUMPI PUSH1 0x40 MLOAD PUSH3 0x461BCD PUSH1 0xE5 SHL DUP2 MSTORE PUSH1 0x20 PUSH1 0x4 DUP3 ADD MSTORE PUSH1 0x29 PUSH1 0x24 DUP3 ADD MSTORE PUSH32 0x4E6F7420656E6F75676820746F6B656E732072656C656173656420647572696E PUSH1 0x44 DUP3 ADD MSTORE PUSH9 0x672076657374696E67 PUSH1 0xB8 SHL PUSH1 0x64 DUP3 ADD MSTORE PUSH1 0x84 ADD PUSH2 0x55A JUMP JUMPDEST DUP2 DUP2 PUSH1 0x0 ADD PUSH1 0x0 DUP3 DUP3 SLOAD PUSH2 0x92B SWAP2 SWAP1 PUSH2 0x1B51 JUMP JUMPDEST SWAP1 SWAP2 SSTORE POP PUSH2 0x965 SWAP1 POP PUSH1 0x1 PUSH1 0x1 PUSH1 0xA0 SHL SUB PUSH32 0x0 AND CALLER DUP5 PUSH2 0x1341 JUMP JUMPDEST PUSH1 0x40 MLOAD DUP3 DUP2 MSTORE CALLER SWAP1 PUSH32 0x7084F5476618D8E60B11EF0D7D3F06914655ADB8793E28FF7F018D4C76D505D5 SWAP1 PUSH1 0x20 ADD PUSH1 0x40 MLOAD DUP1 SWAP2 SUB SWAP1 LOG2 POP POP JUMP JUMPDEST PUSH1 0x0 CALLER PUSH1 0x1 PUSH1 0x1 PUSH1 0xA0 SHL SUB PUSH32 0x0 AND EQ PUSH2 0x9E8 JUMPI PUSH1 0x40 MLOAD PUSH3 0x461BCD PUSH1 0xE5 SHL DUP2 MSTORE PUSH1 0x4 ADD PUSH2 0x55A SWAP1 PUSH2 0x1B68 JUMP JUMPDEST PUSH1 0x1 PUSH1 0x1 PUSH1 0xA0 SHL SUB DUP1 DUP5 AND PUSH1 0x0 SWAP1 DUP2 MSTORE PUSH1 0x6 PUSH1 0x20 MSTORE PUSH1 0x40 SWAP1 KECCAK256 PUSH1 0x7 DUP2 ADD SLOAD SWAP1 SWAP2 AND ISZERO DUP1 PUSH2 0xA24 JUMPI POP PUSH1 0x7 DUP2 ADD SLOAD PUSH1 0x1 PUSH1 0x1 PUSH1 0xA0 SHL SUB DUP5 DUP2 AND SWAP2 AND EQ JUMPDEST DUP1 PUSH2 0xABD JUMPI POP PUSH1 0x7 DUP2 ADD SLOAD PUSH1 0x40 MLOAD PUSH4 0x4A11FAE3 PUSH1 0xE0 SHL DUP2 MSTORE PUSH1 0x1 PUSH1 0x1 PUSH1 0xA0 SHL SUB SWAP2 DUP3 AND PUSH1 0x4 DUP3 ADD MSTORE PUSH32 0x0 SWAP1 SWAP2 AND SWAP1 PUSH4 0x4A11FAE3 SWAP1 PUSH1 0x24 ADD PUSH1 0x20 PUSH1 0x40 MLOAD DUP1 DUP4 SUB DUP2 DUP7 GAS STATICCALL ISZERO DUP1 ISZERO PUSH2 0xA97 JUMPI RETURNDATASIZE PUSH1 0x0 DUP1 RETURNDATACOPY RETURNDATASIZE PUSH1 0x0 REVERT JUMPDEST POP POP POP POP PUSH1 0x40 MLOAD RETURNDATASIZE PUSH1 0x1F NOT PUSH1 0x1F DUP3 ADD AND DUP3 ADD DUP1 PUSH1 0x40 MSTORE POP DUP2 ADD SWAP1 PUSH2 0xABB SWAP2 SWAP1 PUSH2 0x1B38 JUMP JUMPDEST ISZERO JUMPDEST PUSH2 0xB1D JUMPI PUSH1 0x40 MLOAD PUSH3 0x461BCD PUSH1 0xE5 SHL DUP2 MSTORE PUSH1 0x20 PUSH1 0x4 DUP3 ADD MSTORE PUSH1 0x2B PUSH1 0x24 DUP3 ADD MSTORE PUSH32 0x5374616B696E672070726F766964657220616C72656164792073657420666F72 PUSH1 0x44 DUP3 ADD MSTORE PUSH11 0x103A34329039BA30B5B2B9 PUSH1 0xA9 SHL PUSH1 0x64 DUP3 ADD MSTORE PUSH1 0x84 ADD PUSH2 0x55A JUMP JUMPDEST PUSH1 0x7 DUP2 ADD SLOAD PUSH1 0x1 PUSH1 0x1 PUSH1 0xA0 SHL SUB DUP5 DUP2 AND SWAP2 AND EQ PUSH2 0xB84 JUMPI PUSH1 0x7 DUP2 ADD DUP1 SLOAD PUSH1 0x1 PUSH1 0x1 PUSH1 0xA0 SHL SUB NOT AND PUSH1 0x1 PUSH1 0x1 PUSH1 0xA0 SHL SUB DUP6 DUP2 AND SWAP2 DUP3 OR SWAP1 SWAP3 SSTORE PUSH1 0x40 MLOAD SWAP1 SWAP2 DUP7 AND SWAP1 PUSH32 0xE49F168ACC1287C0F7B4541660600E72E51F66E70BABB33223525A3F87AE6031 SWAP1 PUSH1 0x0 SWAP1 LOG3 JUMPDEST SLOAD SWAP4 SWAP3 POP POP POP JUMP JUMPDEST PUSH1 0x0 CALLER PUSH1 0x1 PUSH1 0x1 PUSH1 0xA0 SHL SUB PUSH32 0x0 AND EQ PUSH2 0xBD6 JUMPI PUSH1 0x40 MLOAD PUSH3 0x461BCD PUSH1 0xE5 SHL DUP2 MSTORE PUSH1 0x4 ADD PUSH2 0x55A SWAP1 PUSH2 0x1AC6 JUMP JUMPDEST POP PUSH1 0x0 SWAP3 SWAP2 POP POP JUMP JUMPDEST PUSH1 0x0 SLOAD PUSH1 0x1 PUSH1 0x1 PUSH1 0xA0 SHL SUB AND CALLER EQ PUSH2 0xBF6 JUMPI PUSH1 0x0 DUP1 REVERT JUMPDEST PUSH1 0x0 DUP1 SLOAD PUSH1 0x40 MLOAD PUSH1 0x1 PUSH1 0x1 PUSH1 0xA0 SHL SUB SWAP1 SWAP2 AND SWAP1 PUSH32 0x8BE0079C531659141344CD1FD0A4F28419497F9722A3DAAFE3B4186F6B6457E0 SWAP1 DUP4 SWAP1 LOG3 PUSH1 0x0 DUP1 SLOAD PUSH1 0x1 PUSH1 0x1 PUSH1 0xA0 SHL SUB NOT AND SWAP1 SSTORE JUMP JUMPDEST CALLER PUSH1 0x1 PUSH1 0x1 PUSH1 0xA0 SHL SUB PUSH32 0x0 AND EQ PUSH2 0xC88 JUMPI PUSH1 0x40 MLOAD PUSH3 0x461BCD PUSH1 0xE5 SHL DUP2 MSTORE PUSH1 0x4 ADD PUSH2 0x55A SWAP1 PUSH2 0x1B68 JUMP JUMPDEST PUSH1 0x0 DUP4 GT PUSH2 0xCD8 JUMPI PUSH1 0x40 MLOAD PUSH3 0x461BCD PUSH1 0xE5 SHL DUP2 MSTORE PUSH1 0x20 PUSH1 0x4 DUP3 ADD MSTORE PUSH1 0x19 PUSH1 0x24 DUP3 ADD MSTORE PUSH32 0x50656E616C7479206D7573742062652073706563696669656400000000000000 PUSH1 0x44 DUP3 ADD MSTORE PUSH1 0x64 ADD PUSH2 0x55A JUMP JUMPDEST PUSH1 0x1 PUSH1 0x1 PUSH1 0xA0 SHL SUB DUP5 AND PUSH1 0x0 SWAP1 DUP2 MSTORE PUSH1 0x6 PUSH1 0x20 MSTORE PUSH1 0x40 SWAP1 KECCAK256 DUP1 SLOAD DUP5 LT PUSH2 0xCFD JUMPI DUP1 SLOAD SWAP4 POP JUMPDEST DUP4 DUP2 PUSH1 0x0 ADD PUSH1 0x0 DUP3 DUP3 SLOAD PUSH2 0xD11 SWAP2 SWAP1 PUSH2 0x1B51 JUMP JUMPDEST SWAP1 SWAP2 SSTORE POP POP DUP4 DUP3 GT ISZERO PUSH2 0xD22 JUMPI DUP4 SWAP2 POP JUMPDEST DUP3 PUSH1 0x1 PUSH1 0x1 PUSH1 0xA0 SHL SUB AND DUP6 PUSH1 0x1 PUSH1 0x1 PUSH1 0xA0 SHL SUB AND PUSH32 0x34040FA1C0549C8572589C39CB87FF7638286467446A4790971D58D931C654BB DUP7 DUP6 PUSH1 0x40 MLOAD PUSH2 0xD70 SWAP3 SWAP2 SWAP1 SWAP2 DUP3 MSTORE PUSH1 0x20 DUP3 ADD MSTORE PUSH1 0x40 ADD SWAP1 JUMP JUMPDEST PUSH1 0x40 MLOAD DUP1 SWAP2 SUB SWAP1 LOG3 DUP2 ISZERO PUSH2 0xDB2 JUMPI PUSH2 0xDB2 PUSH1 0x1 PUSH1 0x1 PUSH1 0xA0 SHL SUB PUSH32 0x0 AND DUP5 DUP5 PUSH2 0x1341 JUMP JUMPDEST POP POP POP POP POP JUMP JUMPDEST PUSH2 0xDC2 DUP2 PUSH2 0x1376 JUMP JUMPDEST PUSH1 0x7 SLOAD PUSH2 0xDD5 DUP3 PUSH3 0x9FABEB PUSH1 0xE8 SHL PUSH2 0x13C9 JUMP JUMPDEST EQ PUSH2 0xDDF JUMPI PUSH1 0x0 DUP1 REVERT JUMPDEST PUSH1 0x7 SLOAD PUSH2 0xDE9 JUMPI POP JUMP JUMPDEST PUSH1 0x0 PUSH1 0x7 PUSH1 0x0 DUP2 SLOAD DUP2 LT PUSH2 0xDFF JUMPI PUSH2 0xDFF PUSH2 0x1BAD JUMP JUMPDEST PUSH1 0x0 SWAP2 DUP3 MSTORE PUSH1 0x20 DUP3 KECCAK256 ADD SLOAD PUSH1 0x1 PUSH1 0x1 PUSH1 0xA0 SHL SUB AND SWAP2 POP DUP2 SWAP1 PUSH2 0xE2B SWAP1 DUP5 SWAP1 PUSH4 0xFD5E6DD1 PUSH1 0xE0 SHL SWAP1 PUSH2 0x13E2 JUMP JUMPDEST PUSH1 0x1 PUSH1 0x1 PUSH1 0xA0 SHL SUB AND EQ PUSH2 0xE3E JUMPI PUSH1 0x0 DUP1 REVERT JUMPDEST PUSH1 0x1 PUSH1 0x1 PUSH1 0xA0 SHL SUB DUP2 AND PUSH1 0x0 DUP2 DUP2 MSTORE PUSH1 0x6 PUSH1 0x20 MSTORE PUSH1 0x40 DUP2 KECCAK256 SWAP2 SWAP1 PUSH2 0xE62 DUP6 DUP4 PUSH2 0x13FD JUMP JUMPDEST DUP4 SLOAD DUP2 MLOAD SWAP2 SWAP3 POP EQ DUP1 ISZERO PUSH2 0xE7E JUMPI POP DUP3 PUSH1 0x5 ADD SLOAD DUP2 PUSH2 0x120 ADD MLOAD EQ JUMPDEST DUP1 ISZERO PUSH2 0xE92 JUMPI POP DUP3 PUSH1 0x6 ADD SLOAD DUP2 PUSH2 0x140 ADD MLOAD EQ JUMPDEST DUP1 ISZERO PUSH2 0xEB3 JUMPI POP PUSH1 0x7 DUP4 ADD SLOAD PUSH2 0x160 DUP3 ADD MLOAD PUSH1 0x1 PUSH1 0x1 PUSH1 0xA0 SHL SUB SWAP1 DUP2 AND SWAP2 AND EQ JUMPDEST DUP1 ISZERO PUSH2 0xEC7 JUMPI POP DUP3 PUSH1 0x4 ADD SLOAD DUP2 PUSH2 0x100 ADD MLOAD EQ JUMPDEST PUSH2 0xDB2 JUMPI PUSH1 0x0 DUP1 REVERT JUMPDEST PUSH1 0x1 PUSH1 0x1 PUSH1 0xA0 SHL SUB DUP2 AND PUSH1 0x0 SWAP1 DUP2 MSTORE PUSH1 0x6 PUSH1 0x20 MSTORE PUSH1 0x40 DUP2 KECCAK256 PUSH1 0x5 DUP2 ADD SLOAD TIMESTAMP LT PUSH2 0xEFC JUMPI POP PUSH1 0x0 SWAP3 SWAP2 POP POP JUMP JUMPDEST PUSH1 0x6 DUP2 ADD SLOAD PUSH2 0xF0C JUMPI SLOAD SWAP3 SWAP2 POP POP JUMP JUMPDEST PUSH1 0x0 DUP2 PUSH1 0x6 ADD SLOAD TIMESTAMP DUP4 PUSH1 0x5 ADD SLOAD PUSH2 0xF23 SWAP2 SWAP1 PUSH2 0x1B51 JUMP JUMPDEST PUSH2 0xF2D SWAP2 SWAP1 PUSH2 0x1BC3 JUMP JUMPDEST SWAP1 POP DUP1 DUP3 PUSH1 0x0 ADD SLOAD LT PUSH2 0xF40 JUMPI DUP1 PUSH2 0xF43 JUMP JUMPDEST DUP2 SLOAD JUMPDEST SWAP5 SWAP4 POP POP POP POP JUMP JUMPDEST PUSH1 0x0 PUSH32 0x0 PUSH1 0x1 PUSH1 0x1 PUSH1 0xA0 SHL SUB AND PUSH4 0x18160DDD PUSH1 0x40 MLOAD DUP2 PUSH4 0xFFFFFFFF AND PUSH1 0xE0 SHL DUP2 MSTORE PUSH1 0x4 ADD PUSH1 0x20 PUSH1 0x40 MLOAD DUP1 DUP4 SUB DUP2 DUP7 GAS STATICCALL ISZERO DUP1 ISZERO PUSH2 0xFAB JUMPI RETURNDATASIZE PUSH1 0x0 DUP1 RETURNDATACOPY RETURNDATASIZE PUSH1 0x0 REVERT JUMPDEST POP POP POP POP PUSH1 0x40 MLOAD RETURNDATASIZE PUSH1 0x1F NOT PUSH1 0x1F DUP3 ADD AND DUP3 ADD DUP1 PUSH1 0x40 MSTORE POP DUP2 ADD SWAP1 PUSH2 0xFCF SWAP2 SWAP1 PUSH2 0x1B38 JUMP JUMPDEST SWAP3 SWAP2 POP POP JUMP JUMPDEST PUSH1 0x0 SLOAD PUSH1 0x1 PUSH1 0x1 PUSH1 0xA0 SHL SUB AND CALLER EQ PUSH2 0xFEC JUMPI PUSH1 0x0 DUP1 REVERT JUMPDEST DUP5 DUP4 EQ DUP1 ISZERO PUSH2 0xFFA JUMPI POP DUP3 DUP2 EQ JUMPDEST PUSH2 0x105D JUMPI PUSH1 0x40 MLOAD PUSH3 0x461BCD PUSH1 0xE5 SHL DUP2 MSTORE PUSH1 0x20 PUSH1 0x4 DUP3 ADD MSTORE PUSH1 0x2E PUSH1 0x24 DUP3 ADD MSTORE PUSH32 0x496E70757420617272617973206D75737420686176652073616D65206E756D62 PUSH1 0x44 DUP3 ADD MSTORE PUSH14 0x6572206F6620656C656D656E7473 PUSH1 0x90 SHL PUSH1 0x64 DUP3 ADD MSTORE PUSH1 0x84 ADD PUSH2 0x55A JUMP JUMPDEST PUSH1 0x0 JUMPDEST DUP6 DUP2 LT ISZERO PUSH2 0x1220 JUMPI PUSH1 0x0 DUP8 DUP8 DUP4 DUP2 DUP2 LT PUSH2 0x107C JUMPI PUSH2 0x107C PUSH2 0x1BAD JUMP JUMPDEST SWAP1 POP PUSH1 0x20 MUL ADD PUSH1 0x20 DUP2 ADD SWAP1 PUSH2 0x1091 SWAP2 SWAP1 PUSH2 0x182E JUMP JUMPDEST PUSH1 0x1 PUSH1 0x1 PUSH1 0xA0 SHL SUB DUP2 AND PUSH1 0x0 SWAP1 DUP2 MSTORE PUSH1 0x6 PUSH1 0x20 MSTORE PUSH1 0x40 SWAP1 KECCAK256 PUSH1 0x5 DUP2 ADD SLOAD SWAP2 SWAP3 POP SWAP1 ISZERO PUSH2 0x110F JUMPI PUSH1 0x40 MLOAD PUSH3 0x461BCD PUSH1 0xE5 SHL DUP2 MSTORE PUSH1 0x20 PUSH1 0x4 DUP3 ADD MSTORE PUSH1 0x27 PUSH1 0x24 DUP3 ADD MSTORE PUSH32 0x56657374696E6720706172616D65746572732063616E20626520736574206F6E PUSH1 0x44 DUP3 ADD MSTORE PUSH7 0x6C79206F6E6365 PUSH1 0xC8 SHL PUSH1 0x64 DUP3 ADD MSTORE PUSH1 0x84 ADD PUSH2 0x55A JUMP JUMPDEST DUP7 DUP7 DUP5 DUP2 DUP2 LT PUSH2 0x1121 JUMPI PUSH2 0x1121 PUSH2 0x1BAD JUMP JUMPDEST PUSH1 0x20 MUL SWAP2 SWAP1 SWAP2 ADD CALLDATALOAD PUSH1 0x5 DUP4 ADD SSTORE POP DUP5 DUP5 DUP5 DUP2 DUP2 LT PUSH2 0x1141 JUMPI PUSH2 0x1141 PUSH2 0x1BAD JUMP JUMPDEST PUSH1 0x20 MUL SWAP2 SWAP1 SWAP2 ADD CALLDATALOAD PUSH1 0x6 DUP4 ADD SSTORE POP PUSH1 0x0 PUSH2 0x115A DUP4 PUSH2 0xED0 JUMP JUMPDEST GT PUSH2 0x11B7 JUMPI PUSH1 0x40 MLOAD PUSH3 0x461BCD PUSH1 0xE5 SHL DUP2 MSTORE PUSH1 0x20 PUSH1 0x4 DUP3 ADD MSTORE PUSH1 0x27 PUSH1 0x24 DUP3 ADD MSTORE PUSH32 0x56657374696E6720706172616D6574657273206D757374206265207365742070 PUSH1 0x44 DUP3 ADD MSTORE PUSH7 0x726F7065726C79 PUSH1 0xC8 SHL PUSH1 0x64 DUP3 ADD MSTORE PUSH1 0x84 ADD PUSH2 0x55A JUMP JUMPDEST DUP2 PUSH1 0x1 PUSH1 0x1 PUSH1 0xA0 SHL SUB AND PUSH32 0xFB8DC35D14CC25E41D680C975BD50A0640415AFDF7AF584763FA7549C0B88897 DUP3 PUSH1 0x5 ADD SLOAD DUP4 PUSH1 0x6 ADD SLOAD PUSH1 0x40 MLOAD PUSH2 0x1203 SWAP3 SWAP2 SWAP1 SWAP2 DUP3 MSTORE PUSH1 0x20 DUP3 ADD MSTORE PUSH1 0x40 ADD SWAP1 JUMP JUMPDEST PUSH1 0x40 MLOAD DUP1 SWAP2 SUB SWAP1 LOG2 POP POP DUP1 DUP1 PUSH2 0x1218 SWAP1 PUSH2 0x1BE2 JUMP JUMPDEST SWAP2 POP POP PUSH2 0x1060 JUMP JUMPDEST POP POP POP POP POP POP POP JUMP JUMPDEST PUSH1 0x2 DUP1 SLOAD PUSH1 0x1 PUSH1 0xA0 SHL SWAP1 DIV PUSH1 0xFF AND EQ PUSH2 0x1241 JUMPI PUSH1 0x0 DUP1 REVERT JUMPDEST PUSH1 0x40 MLOAD CALLER DUP2 MSTORE PUSH1 0x1 PUSH1 0x1 PUSH1 0xA0 SHL SUB DUP3 AND SWAP1 PUSH32 0xD55EC27C5C6316913ED8803C18CFD1BFEFEA953DB909DCBA6140744A9D8B0D1F SWAP1 PUSH1 0x20 ADD JUMPDEST PUSH1 0x40 MLOAD DUP1 SWAP2 SUB SWAP1 LOG2 POP JUMP JUMPDEST PUSH1 0x0 SLOAD PUSH1 0x1 PUSH1 0x1 PUSH1 0xA0 SHL SUB AND CALLER EQ PUSH2 0x129A JUMPI PUSH1 0x0 DUP1 REVERT JUMPDEST PUSH2 0x12A3 DUP2 PUSH2 0x14C1 JUMP JUMPDEST POP JUMP JUMPDEST PUSH1 0x7 DUP2 DUP2 SLOAD DUP2 LT PUSH2 0x12B6 JUMPI PUSH1 0x0 DUP1 REVERT JUMPDEST PUSH1 0x0 SWAP2 DUP3 MSTORE PUSH1 0x20 SWAP1 SWAP2 KECCAK256 ADD SLOAD PUSH1 0x1 PUSH1 0x1 PUSH1 0xA0 SHL SUB AND SWAP1 POP DUP2 JUMP JUMPDEST PUSH1 0x40 MLOAD PUSH1 0x1 PUSH1 0x1 PUSH1 0xA0 SHL SUB DUP1 DUP6 AND PUSH1 0x24 DUP4 ADD MSTORE DUP4 AND PUSH1 0x44 DUP3 ADD MSTORE PUSH1 0x64 DUP2 ADD DUP3 SWAP1 MSTORE PUSH2 0x133B SWAP1 DUP6 SWAP1 PUSH4 0x23B872DD PUSH1 0xE0 SHL SWAP1 PUSH1 0x84 ADD JUMPDEST PUSH1 0x40 DUP1 MLOAD PUSH1 0x1F NOT DUP2 DUP5 SUB ADD DUP2 MSTORE SWAP2 SWAP1 MSTORE PUSH1 0x20 DUP2 ADD DUP1 MLOAD PUSH1 0x1 PUSH1 0x1 PUSH1 0xE0 SHL SUB AND PUSH1 0x1 PUSH1 0x1 PUSH1 0xE0 SHL SUB NOT SWAP1 SWAP4 AND SWAP3 SWAP1 SWAP3 OR SWAP1 SWAP2 MSTORE PUSH2 0x152F JUMP JUMPDEST POP POP POP POP JUMP JUMPDEST PUSH1 0x40 MLOAD PUSH1 0x1 PUSH1 0x1 PUSH1 0xA0 SHL SUB DUP4 AND PUSH1 0x24 DUP3 ADD MSTORE PUSH1 0x44 DUP2 ADD DUP3 SWAP1 MSTORE PUSH2 0x1371 SWAP1 DUP5 SWAP1 PUSH4 0xA9059CBB PUSH1 0xE0 SHL SWAP1 PUSH1 0x64 ADD PUSH2 0x1304 JUMP JUMPDEST POP POP POP JUMP JUMPDEST PUSH1 0x2 DUP1 SLOAD PUSH1 0x1 PUSH1 0xA0 SHL SWAP1 DIV PUSH1 0xFF AND EQ PUSH2 0x138E JUMPI PUSH1 0x0 DUP1 REVERT JUMPDEST PUSH1 0x40 MLOAD CALLER DUP2 MSTORE PUSH1 0x1 PUSH1 0x1 PUSH1 0xA0 SHL SUB DUP3 AND SWAP1 PUSH32 0x1E8D98C1B4A0D9BD2E2371026B632EB2773FCCE41742E41F02F574AB69868D4C SWAP1 PUSH1 0x20 ADD PUSH2 0x1278 JUMP JUMPDEST PUSH1 0x0 DUP1 PUSH2 0x13D9 DUP5 DUP5 DUP4 DUP1 DUP1 PUSH2 0x1601 JUMP JUMPDEST MLOAD SWAP5 SWAP4 POP POP POP POP JUMP JUMPDEST PUSH1 0x0 DUP1 PUSH2 0x13F3 DUP6 DUP6 PUSH1 0x1 DUP7 DUP6 PUSH2 0x1601 JUMP JUMPDEST MLOAD SWAP6 SWAP5 POP POP POP POP POP JUMP JUMPDEST PUSH2 0x14AA PUSH1 0x40 MLOAD DUP1 PUSH2 0x220 ADD PUSH1 0x40 MSTORE DUP1 PUSH1 0x0 DUP2 MSTORE PUSH1 0x20 ADD PUSH1 0x0 PUSH2 0xFFFF AND DUP2 MSTORE PUSH1 0x20 ADD PUSH1 0x0 PUSH2 0xFFFF AND DUP2 MSTORE PUSH1 0x20 ADD PUSH1 0x0 PUSH2 0xFFFF AND DUP2 MSTORE PUSH1 0x20 ADD PUSH1 0x0 PUSH2 0xFFFF AND DUP2 MSTORE PUSH1 0x20 ADD PUSH1 0x0 DUP2 MSTORE PUSH1 0x20 ADD PUSH1 0x0 PUSH2 0xFFFF AND DUP2 MSTORE PUSH1 0x20 ADD PUSH1 0x0 PUSH1 0x1 PUSH1 0x1 PUSH1 0xA0 SHL SUB AND DUP2 MSTORE PUSH1 0x20 ADD PUSH1 0x0 DUP2 MSTORE PUSH1 0x20 ADD PUSH1 0x0 DUP2 MSTORE PUSH1 0x20 ADD PUSH1 0x0 DUP2 MSTORE PUSH1 0x20 ADD PUSH1 0x0 PUSH1 0x1 PUSH1 0x1 PUSH1 0xA0 SHL SUB AND DUP2 MSTORE PUSH1 0x20 ADD PUSH1 0x0 DUP2 MSTORE PUSH1 0x20 ADD PUSH1 0x0 DUP2 MSTORE PUSH1 0x20 ADD PUSH1 0x60 DUP2 MSTORE PUSH1 0x20 ADD PUSH1 0x60 DUP2 MSTORE PUSH1 0x20 ADD PUSH1 0x60 DUP2 MSTORE POP SWAP1 JUMP JUMPDEST PUSH1 0x0 PUSH2 0xF43 DUP5 PUSH4 0x4E745F1F PUSH1 0xE0 SHL PUSH1 0x1 DUP7 DUP6 PUSH2 0x1601 JUMP JUMPDEST PUSH1 0x1 PUSH1 0x1 PUSH1 0xA0 SHL SUB DUP2 AND PUSH2 0x14D4 JUMPI PUSH1 0x0 DUP1 REVERT JUMPDEST PUSH1 0x0 DUP1 SLOAD PUSH1 0x40 MLOAD PUSH1 0x1 PUSH1 0x1 PUSH1 0xA0 SHL SUB DUP1 DUP6 AND SWAP4 SWAP3 AND SWAP2 PUSH32 0x8BE0079C531659141344CD1FD0A4F28419497F9722A3DAAFE3B4186F6B6457E0 SWAP2 LOG3 PUSH1 0x0 DUP1 SLOAD PUSH1 0x1 PUSH1 0x1 PUSH1 0xA0 SHL SUB NOT AND PUSH1 0x1 PUSH1 0x1 PUSH1 0xA0 SHL SUB SWAP3 SWAP1 SWAP3 AND SWAP2 SWAP1 SWAP2 OR SWAP1 SSTORE JUMP JUMPDEST PUSH1 0x0 PUSH2 0x1584 DUP3 PUSH1 0x40 MLOAD DUP1 PUSH1 0x40 ADD PUSH1 0x40 MSTORE DUP1 PUSH1 0x20 DUP2 MSTORE PUSH1 0x20 ADD PUSH32 0x5361666545524332303A206C6F772D6C6576656C2063616C6C206661696C6564 DUP2 MSTORE POP DUP6 PUSH1 0x1 PUSH1 0x1 PUSH1 0xA0 SHL SUB AND PUSH2 0x1651 SWAP1 SWAP3 SWAP2 SWAP1 PUSH4 0xFFFFFFFF AND JUMP JUMPDEST DUP1 MLOAD SWAP1 SWAP2 POP ISZERO PUSH2 0x1371 JUMPI DUP1 DUP1 PUSH1 0x20 ADD SWAP1 MLOAD DUP2 ADD SWAP1 PUSH2 0x15A2 SWAP2 SWAP1 PUSH2 0x1BFD JUMP JUMPDEST PUSH2 0x1371 JUMPI PUSH1 0x40 MLOAD PUSH3 0x461BCD PUSH1 0xE5 SHL DUP2 MSTORE PUSH1 0x20 PUSH1 0x4 DUP3 ADD MSTORE PUSH1 0x2A PUSH1 0x24 DUP3 ADD MSTORE PUSH32 0x5361666545524332303A204552433230206F7065726174696F6E20646964206E PUSH1 0x44 DUP3 ADD MSTORE PUSH10 0x1BDD081CDD58D8D95959 PUSH1 0xB2 SHL PUSH1 0x64 DUP3 ADD MSTORE PUSH1 0x84 ADD PUSH2 0x55A JUMP JUMPDEST PUSH1 0x40 MLOAD DUP5 DUP2 MSTORE DUP4 ISZERO PUSH2 0x1614 JUMPI DUP3 PUSH1 0x4 DUP3 ADD MSTORE JUMPDEST PUSH1 0x1 DUP5 GT ISZERO PUSH2 0x1624 JUMPI DUP2 PUSH1 0x24 DUP3 ADD MSTORE JUMPDEST PUSH1 0x0 DUP1 DUP6 PUSH1 0x20 MUL PUSH1 0x4 ADD DUP4 DUP10 GAS DELEGATECALL DUP1 ISZERO PUSH2 0x1642 JUMPI RETURNDATASIZE PUSH1 0x0 DUP4 RETURNDATACOPY PUSH2 0x1647 JUMP JUMPDEST PUSH1 0x0 DUP3 REVERT JUMPDEST POP SWAP6 SWAP5 POP POP POP POP POP JUMP JUMPDEST PUSH1 0x60 PUSH2 0x1660 DUP5 DUP5 PUSH1 0x0 DUP6 PUSH2 0x166A JUMP JUMPDEST SWAP1 POP JUMPDEST SWAP4 SWAP3 POP POP POP JUMP JUMPDEST PUSH1 0x60 DUP3 SELFBALANCE LT ISZERO PUSH2 0x16CB JUMPI PUSH1 0x40 MLOAD PUSH3 0x461BCD PUSH1 0xE5 SHL DUP2 MSTORE PUSH1 0x20 PUSH1 0x4 DUP3 ADD MSTORE PUSH1 0x26 PUSH1 0x24 DUP3 ADD MSTORE PUSH32 0x416464726573733A20696E73756666696369656E742062616C616E636520666F PUSH1 0x44 DUP3 ADD MSTORE PUSH6 0x1C8818D85B1B PUSH1 0xD2 SHL PUSH1 0x64 DUP3 ADD MSTORE PUSH1 0x84 ADD PUSH2 0x55A JUMP JUMPDEST DUP5 EXTCODESIZE PUSH2 0x1719 JUMPI PUSH1 0x40 MLOAD PUSH3 0x461BCD PUSH1 0xE5 SHL DUP2 MSTORE PUSH1 0x20 PUSH1 0x4 DUP3 ADD MSTORE PUSH1 0x1D PUSH1 0x24 DUP3 ADD MSTORE PUSH32 0x416464726573733A2063616C6C20746F206E6F6E2D636F6E7472616374000000 PUSH1 0x44 DUP3 ADD MSTORE PUSH1 0x64 ADD PUSH2 0x55A JUMP JUMPDEST PUSH1 0x0 DUP1 DUP7 PUSH1 0x1 PUSH1 0x1 PUSH1 0xA0 SHL SUB AND DUP6 DUP8 PUSH1 0x40 MLOAD PUSH2 0x1735 SWAP2 SWAP1 PUSH2 0x1C46 JUMP JUMPDEST PUSH1 0x0 PUSH1 0x40 MLOAD DUP1 DUP4 SUB DUP2 DUP6 DUP8 GAS CALL SWAP3 POP POP POP RETURNDATASIZE DUP1 PUSH1 0x0 DUP2 EQ PUSH2 0x1772 JUMPI PUSH1 0x40 MLOAD SWAP2 POP PUSH1 0x1F NOT PUSH1 0x3F RETURNDATASIZE ADD AND DUP3 ADD PUSH1 0x40 MSTORE RETURNDATASIZE DUP3 MSTORE RETURNDATASIZE PUSH1 0x0 PUSH1 0x20 DUP5 ADD RETURNDATACOPY PUSH2 0x1777 JUMP JUMPDEST PUSH1 0x60 SWAP2 POP JUMPDEST POP SWAP2 POP SWAP2 POP PUSH2 0x1787 DUP3 DUP3 DUP7 PUSH2 0x1792 JUMP JUMPDEST SWAP8 SWAP7 POP POP POP POP POP POP POP JUMP JUMPDEST PUSH1 0x60 DUP4 ISZERO PUSH2 0x17A1 JUMPI POP DUP2 PUSH2 0x1663 JUMP JUMPDEST DUP3 MLOAD ISZERO PUSH2 0x17B1 JUMPI DUP3 MLOAD DUP1 DUP5 PUSH1 0x20 ADD REVERT JUMPDEST DUP2 PUSH1 0x40 MLOAD PUSH3 0x461BCD PUSH1 0xE5 SHL DUP2 MSTORE PUSH1 0x4 ADD PUSH2 0x55A SWAP2 SWAP1 PUSH2 0x1C62 JUMP JUMPDEST DUP1 CALLDATALOAD PUSH1 0x1 PUSH1 0x1 PUSH1 0xA0 SHL SUB DUP2 AND DUP2 EQ PUSH2 0x17E2 JUMPI PUSH1 0x0 DUP1 REVERT JUMPDEST SWAP2 SWAP1 POP JUMP JUMPDEST PUSH1 0x0 DUP1 PUSH1 0x0 PUSH1 0x60 DUP5 DUP7 SUB SLT ISZERO PUSH2 0x17FC JUMPI PUSH1 0x0 DUP1 REVERT JUMPDEST PUSH2 0x1805 DUP5 PUSH2 0x17CB JUMP JUMPDEST SWAP3 POP PUSH1 0x20 DUP5 ADD CALLDATALOAD SWAP2 POP PUSH1 0x40 DUP5 ADD CALLDATALOAD PUSH2 0xFFFF DUP2 AND DUP2 EQ PUSH2 0x1823 JUMPI PUSH1 0x0 DUP1 REVERT JUMPDEST DUP1 SWAP2 POP POP SWAP3 POP SWAP3 POP SWAP3 JUMP JUMPDEST PUSH1 0x0 PUSH1 0x20 DUP3 DUP5 SUB SLT ISZERO PUSH2 0x1840 JUMPI PUSH1 0x0 DUP1 REVERT JUMPDEST PUSH2 0x1663 DUP3 PUSH2 0x17CB JUMP JUMPDEST PUSH1 0x0 PUSH1 0x20 DUP3 DUP5 SUB SLT ISZERO PUSH2 0x185B JUMPI PUSH1 0x0 DUP1 REVERT JUMPDEST POP CALLDATALOAD SWAP2 SWAP1 POP JUMP JUMPDEST PUSH1 0x0 DUP1 PUSH1 0x40 DUP4 DUP6 SUB SLT ISZERO PUSH2 0x1875 JUMPI PUSH1 0x0 DUP1 REVERT JUMPDEST PUSH2 0x187E DUP4 PUSH2 0x17CB JUMP JUMPDEST SWAP2 POP PUSH2 0x188C PUSH1 0x20 DUP5 ADD PUSH2 0x17CB JUMP JUMPDEST SWAP1 POP SWAP3 POP SWAP3 SWAP1 POP JUMP JUMPDEST DUP1 ISZERO ISZERO DUP2 EQ PUSH2 0x12A3 JUMPI PUSH1 0x0 DUP1 REVERT JUMPDEST PUSH1 0x0 DUP1 PUSH1 0x40 DUP4 DUP6 SUB SLT ISZERO PUSH2 0x18B6 JUMPI PUSH1 0x0 DUP1 REVERT JUMPDEST PUSH2 0x18BF DUP4 PUSH2 0x17CB JUMP JUMPDEST SWAP2 POP PUSH1 0x20 DUP4 ADD CALLDATALOAD PUSH2 0x18CF DUP2 PUSH2 0x1895 JUMP JUMPDEST DUP1 SWAP2 POP POP SWAP3 POP SWAP3 SWAP1 POP JUMP JUMPDEST DUP15 DUP2 MSTORE PUSH2 0xFFFF DUP15 DUP2 AND PUSH1 0x20 DUP4 ADD MSTORE DUP14 DUP2 AND PUSH1 0x40 DUP4 ADD MSTORE DUP13 DUP2 AND PUSH1 0x60 DUP4 ADD MSTORE DUP12 AND PUSH1 0x80 DUP3 ADD MSTORE PUSH2 0x1C0 DUP2 ADD DUP11 PUSH1 0xA0 DUP4 ADD MSTORE PUSH2 0x191A PUSH1 0xC0 DUP4 ADD DUP12 PUSH2 0xFFFF AND SWAP1 MSTORE JUMP JUMPDEST PUSH1 0x1 PUSH1 0x1 PUSH1 0xA0 SHL SUB DUP10 AND PUSH1 0xE0 DUP4 ADD MSTORE DUP8 PUSH2 0x100 DUP4 ADD MSTORE DUP7 PUSH2 0x120 DUP4 ADD MSTORE DUP6 PUSH2 0x140 DUP4 ADD MSTORE PUSH2 0x1954 PUSH2 0x160 DUP4 ADD DUP7 PUSH1 0x1 PUSH1 0x1 PUSH1 0xA0 SHL SUB AND SWAP1 MSTORE JUMP JUMPDEST PUSH2 0x180 DUP3 ADD SWAP4 SWAP1 SWAP4 MSTORE PUSH2 0x1A0 ADD MSTORE SWAP13 SWAP12 POP POP POP POP POP POP POP POP POP POP POP POP JUMP JUMPDEST PUSH1 0x0 DUP1 PUSH1 0x0 DUP1 PUSH1 0x80 DUP6 DUP8 SUB SLT ISZERO PUSH2 0x1988 JUMPI PUSH1 0x0 DUP1 REVERT JUMPDEST PUSH2 0x1991 DUP6 PUSH2 0x17CB JUMP JUMPDEST SWAP4 POP PUSH1 0x20 DUP6 ADD CALLDATALOAD SWAP3 POP PUSH2 0x19A6 PUSH1 0x40 DUP7 ADD PUSH2 0x17CB JUMP JUMPDEST SWAP4 SWAP7 SWAP3 SWAP6 POP SWAP3 SWAP4 PUSH1 0x60 ADD CALLDATALOAD SWAP3 POP POP JUMP JUMPDEST PUSH1 0x0 DUP1 DUP4 PUSH1 0x1F DUP5 ADD SLT PUSH2 0x19C8 JUMPI PUSH1 0x0 DUP1 REVERT JUMPDEST POP DUP2 CALLDATALOAD PUSH8 0xFFFFFFFFFFFFFFFF DUP2 GT ISZERO PUSH2 0x19E0 JUMPI PUSH1 0x0 DUP1 REVERT JUMPDEST PUSH1 0x20 DUP4 ADD SWAP2 POP DUP4 PUSH1 0x20 DUP3 PUSH1 0x5 SHL DUP6 ADD ADD GT ISZERO PUSH2 0x19FB JUMPI PUSH1 0x0 DUP1 REVERT JUMPDEST SWAP3 POP SWAP3 SWAP1 POP JUMP JUMPDEST PUSH1 0x0 DUP1 PUSH1 0x0 DUP1 PUSH1 0x0 DUP1 PUSH1 0x60 DUP8 DUP10 SUB SLT ISZERO PUSH2 0x1A1B JUMPI PUSH1 0x0 DUP1 REVERT JUMPDEST DUP7 CALLDATALOAD PUSH8 0xFFFFFFFFFFFFFFFF DUP1 DUP3 GT ISZERO PUSH2 0x1A33 JUMPI PUSH1 0x0 DUP1 REVERT JUMPDEST PUSH2 0x1A3F DUP11 DUP4 DUP12 ADD PUSH2 0x19B6 JUMP JUMPDEST SWAP1 SWAP9 POP SWAP7 POP PUSH1 0x20 DUP10 ADD CALLDATALOAD SWAP2 POP DUP1 DUP3 GT ISZERO PUSH2 0x1A58 JUMPI PUSH1 0x0 DUP1 REVERT JUMPDEST PUSH2 0x1A64 DUP11 DUP4 DUP12 ADD PUSH2 0x19B6 JUMP JUMPDEST SWAP1 SWAP7 POP SWAP5 POP PUSH1 0x40 DUP10 ADD CALLDATALOAD SWAP2 POP DUP1 DUP3 GT ISZERO PUSH2 0x1A7D JUMPI PUSH1 0x0 DUP1 REVERT JUMPDEST POP PUSH2 0x1A8A DUP10 DUP3 DUP11 ADD PUSH2 0x19B6 JUMP JUMPDEST SWAP8 SWAP11 SWAP7 SWAP10 POP SWAP5 SWAP8 POP SWAP3 SWAP6 SWAP4 SWAP5 SWAP3 POP POP POP JUMP JUMPDEST PUSH1 0x0 DUP1 PUSH1 0x40 DUP4 DUP6 SUB SLT ISZERO PUSH2 0x1AAF JUMPI PUSH1 0x0 DUP1 REVERT JUMPDEST PUSH2 0x1AB8 DUP4 PUSH2 0x17CB JUMP JUMPDEST SWAP5 PUSH1 0x20 SWAP4 SWAP1 SWAP4 ADD CALLDATALOAD SWAP4 POP POP POP JUMP JUMPDEST PUSH1 0x20 DUP1 DUP3 MSTORE PUSH1 0x24 SWAP1 DUP3 ADD MSTORE PUSH32 0x43616C6C6572206D7573742062652074686520576F726B4C6F636B20636F6E74 PUSH1 0x40 DUP3 ADD MSTORE PUSH4 0x1C9858DD PUSH1 0xE2 SHL PUSH1 0x60 DUP3 ADD MSTORE PUSH1 0x80 ADD SWAP1 JUMP JUMPDEST PUSH4 0x4E487B71 PUSH1 0xE0 SHL PUSH1 0x0 MSTORE PUSH1 0x11 PUSH1 0x4 MSTORE PUSH1 0x24 PUSH1 0x0 REVERT JUMPDEST PUSH1 0x0 DUP3 NOT DUP3 GT ISZERO PUSH2 0x1B33 JUMPI PUSH2 0x1B33 PUSH2 0x1B0A JUMP JUMPDEST POP ADD SWAP1 JUMP JUMPDEST PUSH1 0x0 PUSH1 0x20 DUP3 DUP5 SUB SLT ISZERO PUSH2 0x1B4A JUMPI PUSH1 0x0 DUP1 REVERT JUMPDEST POP MLOAD SWAP2 SWAP1 POP JUMP JUMPDEST PUSH1 0x0 DUP3 DUP3 LT ISZERO PUSH2 0x1B63 JUMPI PUSH2 0x1B63 PUSH2 0x1B0A JUMP JUMPDEST POP SUB SWAP1 JUMP JUMPDEST PUSH1 0x20 DUP1 DUP3 MSTORE PUSH1 0x25 SWAP1 DUP3 ADD MSTORE PUSH32 0x43616C6C6572206D757374206265207468652054207374616B696E6720636F6E PUSH1 0x40 DUP3 ADD MSTORE PUSH5 0x1D1C9858DD PUSH1 0xDA SHL PUSH1 0x60 DUP3 ADD MSTORE PUSH1 0x80 ADD SWAP1 JUMP JUMPDEST PUSH4 0x4E487B71 PUSH1 0xE0 SHL PUSH1 0x0 MSTORE PUSH1 0x32 PUSH1 0x4 MSTORE PUSH1 0x24 PUSH1 0x0 REVERT JUMPDEST PUSH1 0x0 DUP2 PUSH1 0x0 NOT DIV DUP4 GT DUP3 ISZERO ISZERO AND ISZERO PUSH2 0x1BDD JUMPI PUSH2 0x1BDD PUSH2 0x1B0A JUMP JUMPDEST POP MUL SWAP1 JUMP JUMPDEST PUSH1 0x0 PUSH1 0x0 NOT DUP3 EQ ISZERO PUSH2 0x1BF6 JUMPI PUSH2 0x1BF6 PUSH2 0x1B0A JUMP JUMPDEST POP PUSH1 0x1 ADD SWAP1 JUMP JUMPDEST PUSH1 0x0 PUSH1 0x20 DUP3 DUP5 SUB SLT ISZERO PUSH2 0x1C0F JUMPI PUSH1 0x0 DUP1 REVERT JUMPDEST DUP2 MLOAD PUSH2 0x1663 DUP2 PUSH2 0x1895 JUMP JUMPDEST PUSH1 0x0 JUMPDEST DUP4 DUP2 LT ISZERO PUSH2 0x1C35 JUMPI DUP2 DUP2 ADD MLOAD DUP4 DUP3 ADD MSTORE PUSH1 0x20 ADD PUSH2 0x1C1D JUMP JUMPDEST DUP4 DUP2 GT ISZERO PUSH2 0x133B JUMPI POP POP PUSH1 0x0 SWAP2 ADD MSTORE JUMP JUMPDEST PUSH1 0x0 DUP3 MLOAD PUSH2 0x1C58 DUP2 DUP5 PUSH1 0x20 DUP8 ADD PUSH2 0x1C1A JUMP JUMPDEST SWAP2 SWAP1 SWAP2 ADD SWAP3 SWAP2 POP POP JUMP JUMPDEST PUSH1 0x20 DUP2 MSTORE PUSH1 0x0 DUP3 MLOAD DUP1 PUSH1 0x20 DUP5 ADD MSTORE PUSH2 0x1C81 DUP2 PUSH1 0x40 DUP6 ADD PUSH1 0x20 DUP8 ADD PUSH2 0x1C1A JUMP JUMPDEST PUSH1 0x1F ADD PUSH1 0x1F NOT AND SWAP2 SWAP1 SWAP2 ADD PUSH1 0x40 ADD SWAP3 SWAP2 POP POP JUMP INVALID LOG2 PUSH5 0x6970667358 0x22 SLT KECCAK256 PUSH2 0x7E87 KECCAK256 SMOD CALLDATASIZE MSIZE CALLVALUE 0xB7 GT GT CREATE PUSH31 0xC85C8667BF76DD42C67985C0C48019D561505D64736F6C634300080A003300 ",
  "sha1": "cf8119b852649da8e0a17c76c6cf6dac02a4106d",
  "source": "// SPDX-License-Identifier: AGPL-3.0-or-later\n\npragma solidity ^0.8.0;\n\n\nimport \"../aragon/interfaces/IERC900History.sol\";\nimport \"./NuCypherToken.sol\";\nimport \"./lib/Bits.sol\";\nimport \"./proxy/Upgradeable.sol\";\nimport \"../zeppelin/math/Math.sol\";\nimport \"../zeppelin/token/ERC20/SafeERC20.sol\";\nimport \"../threshold/IStaking.sol\";\n\n\n/**\n* @notice WorkLock interface\n*/\ninterface WorkLockInterface {\n    function token() external view returns (NuCypherToken);\n}\n\n\n/**\n* @title StakingEscrowStub\n* @notice Stub is used to deploy main StakingEscrow after all other contract and make some variables immutable\n* @dev |v1.1.0|\n*/\ncontract StakingEscrowStub is Upgradeable {\n    NuCypherToken public immutable token;\n    // only to deploy WorkLock\n    uint32 public immutable secondsPerPeriod = 1;\n    uint16 public immutable minLockedPeriods = 0;\n    uint256 public immutable minAllowableLockedTokens;\n    uint256 public immutable maxAllowableLockedTokens;\n\n    /**\n    * @notice Predefines some variables for use when deploying other contracts\n    * @param _token Token contract\n    * @param _minAllowableLockedTokens Min amount of tokens that can be locked\n    * @param _maxAllowableLockedTokens Max amount of tokens that can be locked\n    */\n    constructor(\n        NuCypherToken _token,\n        uint256 _minAllowableLockedTokens,\n        uint256 _maxAllowableLockedTokens\n    ) {\n        require(_token.totalSupply() > 0 &&\n            _maxAllowableLockedTokens != 0);\n\n        token = _token;\n        minAllowableLockedTokens = _minAllowableLockedTokens;\n        maxAllowableLockedTokens = _maxAllowableLockedTokens;\n    }\n\n    /// @dev the `onlyWhileUpgrading` modifier works through a call to the parent `verifyState`\n    function verifyState(address _testTarget) public override virtual {\n        super.verifyState(_testTarget);\n\n        // we have to use real values even though this is a stub\n        require(address(uint160(delegateGet(_testTarget, this.token.selector))) == address(token));\n    }\n}\n\n\n/**\n* @title StakingEscrow\n* @notice Contract holds and locks stakers tokens.\n* Each staker that locks their tokens will receive some compensation\n* @dev |v6.2.2|\n*/\ncontract StakingEscrow is Upgradeable, IERC900History {\n\n    using Bits for uint256;\n    using SafeERC20 for NuCypherToken;\n\n    /**\n    * @notice Signals that tokens were deposited\n    * @param staker Staker address\n    * @param value Amount deposited (in NuNits)\n    */\n    event Deposited(address indexed staker, uint256 value);\n\n    /**\n    * @notice Signals that NU tokens were withdrawn to the staker\n    * @param staker Staker address\n    * @param value Amount withdraws (in NuNits)\n    */\n    event Withdrawn(address indexed staker, uint256 value);\n\n    /**\n    * @notice Signals that the staker was slashed\n    * @param staker Staker address\n    * @param penalty Slashing penalty\n    * @param investigator Investigator address\n    * @param reward Value of reward provided to investigator (in NuNits)\n    */\n    event Slashed(address indexed staker, uint256 penalty, address indexed investigator, uint256 reward);\n\n    /**\n    * @notice Signals that vesting parameters were set for the staker\n    * @param staker Staker address\n    * @param releaseTimestamp Release timestamp\n    * @param releaseRate Release rate\n    */\n    event VestingSet(address indexed staker, uint256 releaseTimestamp, uint256 releaseRate);\n\n    /**\n    * @notice Signals that the staker requested merge with T staking contract\n    * @param staker Staker address\n    * @param stakingProvider Staking provider address\n    */\n    event MergeRequested(address indexed staker, address indexed stakingProvider);\n\n    struct StakerInfo {\n        uint256 value;\n\n        uint16 stub1; // former slot for currentCommittedPeriod // TODO combine slots?\n        uint16 stub2; // former slot for nextCommittedPeriod\n        uint16 lastCommittedPeriod; // used only in depositFromWorkLock\n        uint16 stub4; // former slot for lockReStakeUntilPeriod\n        uint256 stub5; // former slot for completedWork\n        uint16 stub6; // former slot for workerStartPeriod\n        address stub7; // former slot for worker\n\n        uint256 flags; // uint256 to acquire whole slot and minimize operations on it\n\n        uint256 vestingReleaseTimestamp;\n        uint256 vestingReleaseRate;\n        address stakingProvider;\n\n        uint256 reservedSlot4;\n        uint256 reservedSlot5;\n\n        uint256[] stub8; // former slot for pastDowntime\n        uint256[] stub9; // former slot for subStakes\n        uint128[] stub10; // former slot for history\n\n    }\n\n    // indices for flags (0-4 were in use, skip it in future)\n//    uint8 internal constant SOME_FLAG_INDEX = 5;\n\n    NuCypherToken public immutable token;\n    WorkLockInterface public immutable workLock;\n    IStaking public immutable tStaking;\n\n    uint128 private stub1; // former slot for previousPeriodSupply\n    uint128 public currentPeriodSupply; // resulting token supply\n    uint16 private stub2; // former slot for currentMintingPeriod\n\n    mapping (address => StakerInfo) public stakerInfo;\n    address[] public stakers;\n    mapping (address => address) private stub3; // former slot for stakerFromWorker\n\n    mapping (uint16 => uint256) private stub4; // former slot for lockedPerPeriod\n    uint128[] private stub5;  // former slot for balanceHistory\n\n    address private stub6; // former slot for PolicyManager\n    address private stub7; // former slot for Adjudicator\n    address private stub8; // former slot for WorkLock\n\n    mapping (uint16 => uint256) private stub9; // last former slot for lockedPerPeriod\n\n    /**\n    * @notice Constructor sets address of token contract and parameters for staking\n    * @param _token NuCypher token contract\n    * @param _workLock WorkLock contract. Zero address if there is no WorkLock\n    * @param _tStaking T token staking contract\n    */\n    constructor(\n        NuCypherToken _token,\n        WorkLockInterface _workLock,\n        IStaking _tStaking\n    ) {\n        require(_token.totalSupply() > 0 &&\n            _tStaking.stakedNu(address(0)) == 0 &&\n            (address(_workLock) == address(0) || _workLock.token() == _token),\n            \"Input addresses must be deployed contracts\"\n        );\n\n        token = _token;\n        workLock = _workLock;\n        tStaking = _tStaking;\n    }\n\n    /**\n    * @dev Checks the existence of a staker in the contract\n    */\n    modifier onlyStaker()\n    {\n        require(stakerInfo[msg.sender].value > 0, \"Caller must be a staker\");\n        _;\n    }\n\n    /**\n    * @dev Checks caller is T staking contract\n    */\n    modifier onlyTStakingContract()\n    {\n        require(msg.sender == address(tStaking), \"Caller must be the T staking contract\");\n        _;\n    }\n\n    /**\n    * @dev Checks caller is WorkLock contract\n    */\n    modifier onlyWorkLock()\n    {\n        require(msg.sender == address(workLock), \"Caller must be the WorkLock contract\");\n        _;\n    }\n\n    //------------------------Main getters------------------------\n    /**\n    * @notice Get all tokens belonging to the staker\n    */\n    function getAllTokens(address _staker) external view returns (uint256) {\n        return stakerInfo[_staker].value;\n    }\n\n    /**\n    * @notice Get work that completed by the staker\n    */\n    function getCompletedWork(address _staker) external view returns (uint256) {\n        return token.totalSupply();\n    }\n\n\n    //------------------------Main methods------------------------\n    /**\n    * @notice Stub for WorkLock\n    * @param _staker Staker\n    * @param _measureWork Value for `measureWork` parameter\n    * @return Work that was previously done\n    */\n    function setWorkMeasurement(address _staker, bool _measureWork)\n        external onlyWorkLock returns (uint256)\n    {\n        return 0;\n    }\n\n    /**\n    * @notice Deposit tokens from WorkLock contract\n    * @param _staker Staker address\n    * @param _value Amount of tokens to deposit\n    * @param _unlockingDuration Amount of periods during which tokens will be unlocked when wind down is enabled\n    */\n    function depositFromWorkLock(\n        address _staker,\n        uint256 _value,\n        uint16 _unlockingDuration\n    )\n        external onlyWorkLock\n    {\n        require(_value != 0, \"Amount of tokens to deposit must be specified\");\n        StakerInfo storage info = stakerInfo[_staker];\n        // initial stake of the staker\n        if (info.value == 0 && info.lastCommittedPeriod == 0) {\n            stakers.push(_staker);\n        }\n        token.safeTransferFrom(msg.sender, address(this), _value);\n        info.value += _value;\n\n        emit Deposited(_staker, _value);\n    }\n\n    /**\n    * @notice Withdraw available amount of NU tokens to staker\n    * @param _value Amount of tokens to withdraw\n    */\n    function withdraw(uint256 _value) external onlyStaker {\n        require(_value > 0, \"Value must be specified\");\n        StakerInfo storage info = stakerInfo[msg.sender];\n        require(\n            _value + tStaking.stakedNu(info.stakingProvider) <= info.value,\n            \"Not enough tokens unstaked in T staking contract\"\n        );\n        require(\n            _value + getUnvestedTokens(msg.sender) <= info.value,\n            \"Not enough tokens released during vesting\"\n        );\n        info.value -= _value;\n\n        token.safeTransfer(msg.sender, _value);\n        emit Withdrawn(msg.sender, _value);\n    }\n\n    /**\n    * @notice Returns amount of not released yet tokens for staker\n    */\n    function getUnvestedTokens(address _staker) public view returns (uint256) {\n        StakerInfo storage info = stakerInfo[_staker];\n        if (info.vestingReleaseTimestamp <= block.timestamp) {\n            return 0;\n        }\n        if (info.vestingReleaseRate == 0) {\n            // this value includes all not withdrawn reward\n            return info.value;\n        }\n        uint256 unvestedTokens = (info.vestingReleaseTimestamp - block.timestamp) * info.vestingReleaseRate;\n        return info.value < unvestedTokens ? info.value : unvestedTokens;\n    }\n\n    /**\n    * @notice Setup vesting parameters\n    * @param _stakers Array of stakers\n    * @param _releaseTimestamp Array of timestamps when stake will be released\n    * @param _releaseRate Array of release rates\n    * @dev If release rate is 0 then all value will be locked before release timestamp\n    */\n    function setupVesting(\n        address[] calldata _stakers,\n        uint256[] calldata _releaseTimestamp,\n        uint256[] calldata _releaseRate\n    ) external onlyOwner {\n        require(_stakers.length == _releaseTimestamp.length &&\n            _releaseTimestamp.length == _releaseRate.length,\n            \"Input arrays must have same number of elements\"\n        );\n        for (uint256 i = 0; i < _stakers.length; i++) {\n            address staker = _stakers[i];\n            StakerInfo storage info = stakerInfo[staker];\n            require(info.vestingReleaseTimestamp == 0, \"Vesting parameters can be set only once\");\n            info.vestingReleaseTimestamp = _releaseTimestamp[i];\n            info.vestingReleaseRate = _releaseRate[i];\n            require(getUnvestedTokens(staker) > 0, \"Vesting parameters must be set properly\");\n            emit VestingSet(staker, info.vestingReleaseTimestamp, info.vestingReleaseRate);\n        }\n    }\n\n    /**\n    * @notice Request migration to threshold network\n    * @param _staker Staker address\n    * @param _stakingProvider Staking provider address\n    * @return Amount of tokens\n    */\n    function requestMerge(address _staker, address _stakingProvider)\n        external onlyTStakingContract returns (uint256)\n    {\n        StakerInfo storage info = stakerInfo[_staker];\n        require(\n            info.stakingProvider == address(0) ||\n            info.stakingProvider == _stakingProvider ||\n            tStaking.stakedNu(info.stakingProvider) == 0,\n            \"Staking provider already set for the staker\"\n        );\n        if (info.stakingProvider != _stakingProvider) {\n            info.stakingProvider = _stakingProvider;\n            emit MergeRequested(_staker, _stakingProvider);\n        }\n        return info.value;\n    }\n\n    //-------------------------Slashing-------------------------\n    /**\n    * @notice Slash the staker's stake and reward the investigator\n    * @param _staker Staker's address\n    * @param _penalty Penalty\n    * @param _investigator Investigator\n    * @param _reward Reward for the investigator\n    */\n    function slashStaker(\n        address _staker,\n        uint256 _penalty,\n        address _investigator,\n        uint256 _reward\n    )\n        external onlyTStakingContract\n    {\n        require(_penalty > 0, \"Penalty must be specified\");\n        StakerInfo storage info = stakerInfo[_staker];\n        if (info.value <= _penalty) {\n            _penalty = info.value;\n        }\n        info.value -= _penalty;\n        if (_reward > _penalty) {\n            _reward = _penalty;\n        }\n\n        emit Slashed(_staker, _penalty, _investigator, _reward);\n        if (_reward > 0) {\n            token.safeTransfer(_investigator, _reward);\n        }\n    }\n\n    //-------------Additional getters for stakers info-------------\n    /**\n    * @notice Return the length of the array of stakers\n    */\n    function getStakersLength() external view virtual returns (uint256) {\n        return stakers.length;\n    }\n\n    //------------------ ERC900 connectors ----------------------\n\n    function totalStakedForAt(address _owner, uint256 _blockNumber) public view override returns (uint256) {\n        return 0;\n    }\n\n    function totalStakedAt(uint256 _blockNumber) public view override returns (uint256) {\n        return token.totalSupply();\n    }\n\n    function supportsHistory() external pure override returns (bool) {\n        return true;\n    }\n\n    //------------------------Upgradeable------------------------\n    /**\n    * @dev Get StakerInfo structure by delegatecall\n    */\n    function delegateGetStakerInfo(address _target, bytes32 _staker)\n        internal returns (StakerInfo memory result)\n    {\n        bytes32 memoryAddress = delegateGetData(_target, this.stakerInfo.selector, 1, _staker, 0);\n        assembly {\n            result := memoryAddress\n        }\n    }\n\n    /// @dev the `onlyWhileUpgrading` modifier works through a call to the parent `verifyState`\n    function verifyState(address _testTarget) public override virtual {\n        super.verifyState(_testTarget);\n\n        require(delegateGet(_testTarget, this.getStakersLength.selector) == stakers.length);\n        if (stakers.length == 0) {\n            return;\n        }\n        address stakerAddress = stakers[0];\n        require(address(uint160(delegateGet(_testTarget, this.stakers.selector, 0))) == stakerAddress);\n        StakerInfo storage info = stakerInfo[stakerAddress];\n        bytes32 staker = bytes32(uint256(uint160(stakerAddress)));\n        StakerInfo memory infoToCheck = delegateGetStakerInfo(_testTarget, staker);\n        require(infoToCheck.value == info.value &&\n            infoToCheck.vestingReleaseTimestamp == info.vestingReleaseTimestamp &&\n            infoToCheck.vestingReleaseRate == info.vestingReleaseRate &&\n            infoToCheck.stakingProvider == info.stakingProvider &&\n            infoToCheck.flags == info.flags\n        );\n    }\n\n}\n",
  "sourcePath": "contracts/contracts/StakingEscrow.sol",
  "type": "contract"
}