{
  "abi": [
    {
      "anonymous": false,
      "inputs": [
        {
          "indexed": false,
          "internalType": "uint256",
          "name": "oldFeeRate",
          "type": "uint256"
        },
        {
          "indexed": false,
          "internalType": "uint256",
          "name": "newFeeRate",
          "type": "uint256"
        }
      ],
      "name": "FeeRateUpdated",
      "type": "event"
    },
    {
      "anonymous": false,
      "inputs": [
        {
          "indexed": true,
          "internalType": "bytes16",
          "name": "policyId",
          "type": "bytes16"
        },
        {
          "indexed": true,
          "internalType": "address",
          "name": "sponsor",
          "type": "address"
        },
        {
          "indexed": true,
          "internalType": "address",
          "name": "owner",
          "type": "address"
        },
        {
          "indexed": false,
          "internalType": "uint16",
          "name": "size",
          "type": "uint16"
        },
        {
          "indexed": false,
          "internalType": "uint32",
          "name": "startTimestamp",
          "type": "uint32"
        },
        {
          "indexed": false,
          "internalType": "uint32",
          "name": "endTimestamp",
          "type": "uint32"
        }
      ],
      "name": "PolicyCreated",
      "type": "event"
    },
    {
      "anonymous": false,
      "inputs": [
        {
          "indexed": true,
          "internalType": "bytes32",
          "name": "role",
          "type": "bytes32"
        },
        {
          "indexed": true,
          "internalType": "bytes32",
          "name": "previousAdminRole",
          "type": "bytes32"
        },
        {
          "indexed": true,
          "internalType": "bytes32",
          "name": "newAdminRole",
          "type": "bytes32"
        }
      ],
      "name": "RoleAdminChanged",
      "type": "event"
    },
    {
      "anonymous": false,
      "inputs": [
        {
          "indexed": true,
          "internalType": "bytes32",
          "name": "role",
          "type": "bytes32"
        },
        {
          "indexed": true,
          "internalType": "address",
          "name": "account",
          "type": "address"
        },
        {
          "indexed": true,
          "internalType": "address",
          "name": "sender",
          "type": "address"
        }
      ],
      "name": "RoleGranted",
      "type": "event"
    },
    {
      "anonymous": false,
      "inputs": [
        {
          "indexed": true,
          "internalType": "bytes32",
          "name": "role",
          "type": "bytes32"
        },
        {
          "indexed": true,
          "internalType": "address",
          "name": "account",
          "type": "address"
        },
        {
          "indexed": true,
          "internalType": "address",
          "name": "sender",
          "type": "address"
        }
      ],
      "name": "RoleRevoked",
      "type": "event"
    },
    {
      "inputs": [],
      "name": "DEFAULT_ADMIN_ROLE",
      "outputs": [
        {
          "internalType": "bytes32",
          "name": "",
          "type": "bytes32"
        }
      ],
      "stateMutability": "view",
      "type": "function"
    },
    {
      "inputs": [],
      "name": "SET_RATE_ROLE",
      "outputs": [
        {
          "internalType": "bytes32",
          "name": "",
          "type": "bytes32"
        }
      ],
      "stateMutability": "view",
      "type": "function"
    },
    {
      "inputs": [],
      "name": "WITHDRAW_ROLE",
      "outputs": [
        {
          "internalType": "bytes32",
          "name": "",
          "type": "bytes32"
        }
      ],
      "stateMutability": "view",
      "type": "function"
    },
    {
      "inputs": [
        {
          "internalType": "bytes16",
          "name": "_policyId",
          "type": "bytes16"
        },
        {
          "internalType": "address",
          "name": "_policyOwner",
          "type": "address"
        },
        {
          "internalType": "uint16",
          "name": "_size",
          "type": "uint16"
        },
        {
          "internalType": "uint32",
          "name": "_startTimestamp",
          "type": "uint32"
        },
        {
          "internalType": "uint32",
          "name": "_endTimestamp",
          "type": "uint32"
        }
      ],
      "name": "createPolicy",
      "outputs": [],
      "stateMutability": "payable",
      "type": "function"
    },
    {
      "inputs": [],
      "name": "feeRate",
      "outputs": [
        {
          "internalType": "uint256",
          "name": "",
          "type": "uint256"
        }
      ],
      "stateMutability": "view",
      "type": "function"
    },
    {
      "inputs": [
        {
          "internalType": "bytes16",
          "name": "_policyID",
          "type": "bytes16"
        }
      ],
      "name": "getPolicy",
      "outputs": [
        {
          "components": [
            {
              "internalType": "address payable",
              "name": "sponsor",
              "type": "address"
            },
            {
              "internalType": "uint32",
              "name": "startTimestamp",
              "type": "uint32"
            },
            {
              "internalType": "uint32",
              "name": "endTimestamp",
              "type": "uint32"
            },
            {
              "internalType": "uint16",
              "name": "size",
              "type": "uint16"
            },
            {
              "internalType": "address",
              "name": "owner",
              "type": "address"
            }
          ],
          "internalType": "struct SubscriptionManager.Policy",
          "name": "",
          "type": "tuple"
        }
      ],
      "stateMutability": "view",
      "type": "function"
    },
    {
      "inputs": [
        {
          "internalType": "bytes32",
          "name": "role",
          "type": "bytes32"
        }
      ],
      "name": "getRoleAdmin",
      "outputs": [
        {
          "internalType": "bytes32",
          "name": "",
          "type": "bytes32"
        }
      ],
      "stateMutability": "view",
      "type": "function"
    },
    {
      "inputs": [
        {
          "internalType": "bytes32",
          "name": "role",
          "type": "bytes32"
        },
        {
          "internalType": "address",
          "name": "account",
          "type": "address"
        }
      ],
      "name": "grantRole",
      "outputs": [],
      "stateMutability": "nonpayable",
      "type": "function"
    },
    {
      "inputs": [
        {
          "internalType": "bytes32",
          "name": "role",
          "type": "bytes32"
        },
        {
          "internalType": "address",
          "name": "account",
          "type": "address"
        }
      ],
      "name": "hasRole",
      "outputs": [
        {
          "internalType": "bool",
          "name": "",
          "type": "bool"
        }
      ],
      "stateMutability": "view",
      "type": "function"
    },
    {
      "inputs": [
        {
          "internalType": "uint256",
          "name": "_feeRate",
          "type": "uint256"
        }
      ],
      "name": "initialize",
      "outputs": [],
      "stateMutability": "nonpayable",
      "type": "function"
    },
    {
      "inputs": [
        {
          "internalType": "bytes16",
          "name": "_policyID",
          "type": "bytes16"
        }
      ],
      "name": "isPolicyActive",
      "outputs": [
        {
          "internalType": "bool",
          "name": "",
          "type": "bool"
        }
      ],
      "stateMutability": "view",
      "type": "function"
    },
    {
      "inputs": [
        {
          "internalType": "bytes32",
          "name": "role",
          "type": "bytes32"
        },
        {
          "internalType": "address",
          "name": "account",
          "type": "address"
        }
      ],
      "name": "renounceRole",
      "outputs": [],
      "stateMutability": "nonpayable",
      "type": "function"
    },
    {
      "inputs": [
        {
          "internalType": "bytes32",
          "name": "role",
          "type": "bytes32"
        },
        {
          "internalType": "address",
          "name": "account",
          "type": "address"
        }
      ],
      "name": "revokeRole",
      "outputs": [],
      "stateMutability": "nonpayable",
      "type": "function"
    },
    {
      "inputs": [
        {
          "internalType": "uint256",
          "name": "_rate_per_second",
          "type": "uint256"
        }
      ],
      "name": "setFeeRate",
      "outputs": [],
      "stateMutability": "nonpayable",
      "type": "function"
    },
    {
      "inputs": [
        {
          "internalType": "bytes4",
          "name": "interfaceId",
          "type": "bytes4"
        }
      ],
      "name": "supportsInterface",
      "outputs": [
        {
          "internalType": "bool",
          "name": "",
          "type": "bool"
        }
      ],
      "stateMutability": "view",
      "type": "function"
    },
    {
      "inputs": [
        {
          "internalType": "address payable",
          "name": "recipient",
          "type": "address"
        }
      ],
      "name": "sweep",
      "outputs": [],
      "stateMutability": "nonpayable",
      "type": "function"
    }
  ],
  "bytecode": "608060405234801561001057600080fd5b5061107f806100206000396000f3fe6080604052600436106100f35760003560e01c806358f708581161008a578063a217fddf11610059578063a217fddf146103cb578063d547741f146103e0578063e02023a114610400578063fe4b84df1461043457600080fd5b806358f708581461031a5780637ef3c6d51461034e57806391d1485414610395578063978bbdb9146103b557600080fd5b80632f2ff15d116100c65780632f2ff15d146102a757806336568abe146102c757806345596e2e146102e75780634f0040411461030757600080fd5b806301681a62146100f857806301ffc9a71461011a578063248a9ca31461014f5780632c8151611461018d575b600080fd5b34801561010457600080fd5b50610118610113366004610d74565b610454565b005b34801561012657600080fd5b5061013a610135366004610d91565b61051f565b60405190151581526020015b60405180910390f35b34801561015b57600080fd5b5061017f61016a366004610dbb565b60009081526065602052604090206001015490565b604051908152602001610146565b34801561019957600080fd5b5061024c6101a8366004610df1565b6040805160a081018252600080825260208201819052918101829052606081018290526080810191909152506001600160801b031916600090815260986020908152604091829020825160a08101845281546001600160a01b038082168352600160a01b820463ffffffff90811695840195909552600160c01b820490941694820194909452600160e01b90930461ffff1660608401526001015416608082015290565b604051610146919081516001600160a01b03908116825260208084015163ffffffff908116918401919091526040808501519091169083015260608084015161ffff1690830152608092830151169181019190915260a00190565b3480156102b357600080fd5b506101186102c2366004610e0c565b610556565b3480156102d357600080fd5b506101186102e2366004610e0c565b610581565b3480156102f357600080fd5b50610118610302366004610dbb565b6105ff565b610118610315366004610e50565b610633565b34801561032657600080fd5b5061017f7f637ca263f44c0a7e4a3b057e26c82c5667c084aa950864a2916355c481f6a09781565b34801561035a57600080fd5b5061013a610369366004610df1565b6001600160801b03191660009081526098602052604090205442600160c01b90910463ffffffff161190565b3480156103a157600080fd5b5061013a6103b0366004610e0c565b610708565b3480156103c157600080fd5b5061017f60975481565b3480156103d757600080fd5b5061017f600081565b3480156103ec57600080fd5b506101186103fb366004610e0c565b610733565b34801561040c57600080fd5b5061017f7fc1f0c13d12a4ca09aada5725e24c49160e8f198a4ca0d2bd4dafc9c5c12e6a3581565b34801561044057600080fd5b5061011861044f366004610dbb565b610759565b7fc1f0c13d12a4ca09aada5725e24c49160e8f198a4ca0d2bd4dafc9c5c12e6a3561047f813361087a565b60405147906000906001600160a01b0385169083908381818185875af1925050503d80600081146104cc576040519150601f19603f3d011682016040523d82523d6000602084013e6104d1565b606091505b50509050806105195760405162461bcd60e51b815260206004820152600f60248201526e2330b4b632b2103a3930b739b332b960891b60448201526064015b60405180910390fd5b50505050565b60006001600160e01b03198216637965db0b60e01b148061055057506301ffc9a760e01b6001600160e01b03198316145b92915050565b600082815260656020526040902060010154610572813361087a565b61057c83836108de565b505050565b6001600160a01b03811633146105f15760405162461bcd60e51b815260206004820152602f60248201527f416363657373436f6e74726f6c3a2063616e206f6e6c792072656e6f756e636560448201526e103937b632b9903337b91039b2b63360891b6064820152608401610510565b6105fb8282610964565b5050565b7f637ca263f44c0a7e4a3b057e26c82c5667c084aa950864a2916355c481f6a09761062a813361087a565b6105fb826109cb565b8063ffffffff168263ffffffff1610801561065357508063ffffffff1642105b6106945760405162461bcd60e51b8152602060048201526012602482015271496e76616c69642074696d657374616d707360701b6044820152606401610510565b60006106a08383610ed6565b905060008163ffffffff161180156106bc575060008461ffff16115b80156106e957508063ffffffff168461ffff166097546106dc9190610efb565b6106e69190610efb565b34145b6106f257600080fd5b6106ff8686868686610a10565b50505050505050565b60009182526065602090815260408084206001600160a01b0393909316845291905290205460ff1690565b60008281526065602052604090206001015461074f813361087a565b61057c8383610964565b600054610100900460ff166107745760005460ff1615610778565b303b155b6107db5760405162461bcd60e51b815260206004820152602e60248201527f496e697469616c697a61626c653a20636f6e747261637420697320616c72656160448201526d191e481a5b9a5d1a585b1a5e995960921b6064820152608401610510565b600054610100900460ff161580156107fd576000805461ffff19166101011790555b610806826109cb565b6108307f637ca263f44c0a7e4a3b057e26c82c5667c084aa950864a2916355c481f6a09733610baf565b61085a7fc1f0c13d12a4ca09aada5725e24c49160e8f198a4ca0d2bd4dafc9c5c12e6a3533610baf565b610865600033610baf565b80156105fb576000805461ff00191690555050565b6108848282610708565b6105fb5761089c816001600160a01b03166014610bb9565b6108a7836020610bb9565b6040516020016108b8929190610f46565b60408051601f198184030181529082905262461bcd60e51b825261051091600401610fbb565b6108e88282610708565b6105fb5760008281526065602090815260408083206001600160a01b03851684529091529020805460ff191660011790556109203390565b6001600160a01b0316816001600160a01b0316837f2f8788117e7eff1d82e926ec794901d17c78024a50270940304540a733656f0d60405160405180910390a45050565b61096e8282610708565b156105fb5760008281526065602090815260408083206001600160a01b0385168085529252808320805460ff1916905551339285917ff6391f5c32d9c69d2a47ea670b442974b53935d1edc7fd64eb21e047a839171b9190a45050565b609780549082905560408051828152602081018490527f14914da2bf76024616fbe1859783fcd4dbddcb179b1f3a854949fbf920dcb957910160405180910390a15050565b6001600160801b031985166000908152609860205260409020805442600160c01b90910463ffffffff1610610a875760405162461bcd60e51b815260206004820152601a60248201527f506f6c6963792069732063757272656e746c79206163746976650000000000006044820152606401610510565b805461ffff8516600160e01b0261ffff60e01b1963ffffffff858116600160c01b029190911665ffffffffffff60c01b19918716600160a01b0263ffffffff60a01b19339081166001600160c01b0319909616959095171791909116171782556001600160a01b03861614801590610b0757506001600160a01b03851615155b15610b2a576001810180546001600160a01b0319166001600160a01b0387161790555b6001600160a01b03851615610b3f5784610b41565b335b6040805161ffff8716815263ffffffff868116602083015285168183015290516001600160a01b03929092169133916001600160801b03198a16917f195a936466c6723d6406661adfbfe97bb7802e46a2ce4c57f961530af2b965759181900360600190a495945050505050565b6105fb82826108de565b60606000610bc8836002610efb565b610bd3906002610fee565b67ffffffffffffffff811115610beb57610beb611006565b6040519080825280601f01601f191660200182016040528015610c15576020820181803683370190505b509050600360fc1b81600081518110610c3057610c3061101c565b60200101906001600160f81b031916908160001a905350600f60fb1b81600181518110610c5f57610c5f61101c565b60200101906001600160f81b031916908160001a9053506000610c83846002610efb565b610c8e906001610fee565b90505b6001811115610d06576f181899199a1a9b1b9c1cb0b131b232b360811b85600f1660108110610cc257610cc261101c565b1a60f81b828281518110610cd857610cd861101c565b60200101906001600160f81b031916908160001a90535060049490941c93610cff81611032565b9050610c91565b508315610d555760405162461bcd60e51b815260206004820181905260248201527f537472696e67733a20686578206c656e67746820696e73756666696369656e746044820152606401610510565b9392505050565b6001600160a01b0381168114610d7157600080fd5b50565b600060208284031215610d8657600080fd5b8135610d5581610d5c565b600060208284031215610da357600080fd5b81356001600160e01b031981168114610d5557600080fd5b600060208284031215610dcd57600080fd5b5035919050565b80356001600160801b031981168114610dec57600080fd5b919050565b600060208284031215610e0357600080fd5b610d5582610dd4565b60008060408385031215610e1f57600080fd5b823591506020830135610e3181610d5c565b809150509250929050565b803563ffffffff81168114610dec57600080fd5b600080600080600060a08688031215610e6857600080fd5b610e7186610dd4565b94506020860135610e8181610d5c565b9350604086013561ffff81168114610e9857600080fd5b9250610ea660608701610e3c565b9150610eb460808701610e3c565b90509295509295909350565b634e487b7160e01b600052601160045260246000fd5b600063ffffffff83811690831681811015610ef357610ef3610ec0565b039392505050565b6000816000190483118215151615610f1557610f15610ec0565b500290565b60005b83811015610f35578181015183820152602001610f1d565b838111156105195750506000910152565b7f416363657373436f6e74726f6c3a206163636f756e7420000000000000000000815260008351610f7e816017850160208801610f1a565b7001034b99036b4b9b9b4b733903937b6329607d1b6017918401918201528351610faf816028840160208801610f1a565b01602801949350505050565b6020815260008251806020840152610fda816040850160208701610f1a565b601f01601f19169190910160400192915050565b6000821982111561100157611001610ec0565b500190565b634e487b7160e01b600052604160045260246000fd5b634e487b7160e01b600052603260045260246000fd5b60008161104157611041610ec0565b50600019019056fea26469706673582212201ee60e5278637914c09f719a9d5820326094e8a1f431b983d015028f1234f20f64736f6c634300080a0033",
  "bytecodeSha1": "4b43ba8a9ddd50b0511b11e64879872a2d2a6ea0",
  "compiler": {
    "evm_version": "istanbul",
    "optimizer": {
      "enabled": true,
      "runs": 200
    },
    "version": "0.8.10+commit.fc410830"
  },
  "contractName": "SubscriptionManager",
  "language": "Solidity",
  "natspec": {
    "kind": "dev",
    "methods": {
      "getRoleAdmin(bytes32)": {
        "details": "Returns the admin role that controls `role`. See {grantRole} and {revokeRole}. To change a role's admin, use {_setRoleAdmin}."
      },
      "grantRole(bytes32,address)": {
        "details": "Grants `role` to `account`. If `account` had not been already granted `role`, emits a {RoleGranted} event. Requirements: - the caller must have ``role``'s admin role."
      },
      "hasRole(bytes32,address)": {
        "details": "Returns `true` if `account` has been granted `role`."
      },
      "renounceRole(bytes32,address)": {
        "details": "Revokes `role` from the calling account. Roles are often managed via {grantRole} and {revokeRole}: this function's purpose is to provide a mechanism for accounts to lose their privileges if they are compromised (such as when a trusted device is misplaced). If the calling account had been revoked `role`, emits a {RoleRevoked} event. Requirements: - the caller must be `account`."
      },
      "revokeRole(bytes32,address)": {
        "details": "Revokes `role` from `account`. If `account` had been granted `role`, emits a {RoleRevoked} event. Requirements: - the caller must have ``role``'s admin role."
      },
      "supportsInterface(bytes4)": {
        "details": "See {IERC165-supportsInterface}."
      }
    },
    "version": 1
  },
  "opcodes": "PUSH1 0x80 PUSH1 0x40 MSTORE PUSH1 0x4 CALLDATASIZE LT PUSH2 0xF3 JUMPI PUSH1 0x0 CALLDATALOAD PUSH1 0xE0 SHR DUP1 PUSH4 0x58F70858 GT PUSH2 0x8A JUMPI DUP1 PUSH4 0xA217FDDF GT PUSH2 0x59 JUMPI DUP1 PUSH4 0xA217FDDF EQ PUSH2 0x3CB JUMPI DUP1 PUSH4 0xD547741F EQ PUSH2 0x3E0 JUMPI DUP1 PUSH4 0xE02023A1 EQ PUSH2 0x400 JUMPI DUP1 PUSH4 0xFE4B84DF EQ PUSH2 0x434 JUMPI PUSH1 0x0 DUP1 REVERT JUMPDEST DUP1 PUSH4 0x58F70858 EQ PUSH2 0x31A JUMPI DUP1 PUSH4 0x7EF3C6D5 EQ PUSH2 0x34E JUMPI DUP1 PUSH4 0x91D14854 EQ PUSH2 0x395 JUMPI DUP1 PUSH4 0x978BBDB9 EQ PUSH2 0x3B5 JUMPI PUSH1 0x0 DUP1 REVERT JUMPDEST DUP1 PUSH4 0x2F2FF15D GT PUSH2 0xC6 JUMPI DUP1 PUSH4 0x2F2FF15D EQ PUSH2 0x2A7 JUMPI DUP1 PUSH4 0x36568ABE EQ PUSH2 0x2C7 JUMPI DUP1 PUSH4 0x45596E2E EQ PUSH2 0x2E7 JUMPI DUP1 PUSH4 0x4F004041 EQ PUSH2 0x307 JUMPI PUSH1 0x0 DUP1 REVERT JUMPDEST DUP1 PUSH4 0x1681A62 EQ PUSH2 0xF8 JUMPI DUP1 PUSH4 0x1FFC9A7 EQ PUSH2 0x11A JUMPI DUP1 PUSH4 0x248A9CA3 EQ PUSH2 0x14F JUMPI DUP1 PUSH4 0x2C815161 EQ PUSH2 0x18D JUMPI JUMPDEST PUSH1 0x0 DUP1 REVERT JUMPDEST CALLVALUE DUP1 ISZERO PUSH2 0x104 JUMPI PUSH1 0x0 DUP1 REVERT JUMPDEST POP PUSH2 0x118 PUSH2 0x113 CALLDATASIZE PUSH1 0x4 PUSH2 0xD74 JUMP JUMPDEST PUSH2 0x454 JUMP JUMPDEST STOP JUMPDEST CALLVALUE DUP1 ISZERO PUSH2 0x126 JUMPI PUSH1 0x0 DUP1 REVERT JUMPDEST POP PUSH2 0x13A PUSH2 0x135 CALLDATASIZE PUSH1 0x4 PUSH2 0xD91 JUMP JUMPDEST PUSH2 0x51F JUMP JUMPDEST PUSH1 0x40 MLOAD SWAP1 ISZERO ISZERO DUP2 MSTORE PUSH1 0x20 ADD JUMPDEST PUSH1 0x40 MLOAD DUP1 SWAP2 SUB SWAP1 RETURN JUMPDEST CALLVALUE DUP1 ISZERO PUSH2 0x15B JUMPI PUSH1 0x0 DUP1 REVERT JUMPDEST POP PUSH2 0x17F PUSH2 0x16A CALLDATASIZE PUSH1 0x4 PUSH2 0xDBB JUMP JUMPDEST PUSH1 0x0 SWAP1 DUP2 MSTORE PUSH1 0x65 PUSH1 0x20 MSTORE PUSH1 0x40 SWAP1 KECCAK256 PUSH1 0x1 ADD SLOAD SWAP1 JUMP JUMPDEST PUSH1 0x40 MLOAD SWAP1 DUP2 MSTORE PUSH1 0x20 ADD PUSH2 0x146 JUMP JUMPDEST CALLVALUE DUP1 ISZERO PUSH2 0x199 JUMPI PUSH1 0x0 DUP1 REVERT JUMPDEST POP PUSH2 0x24C PUSH2 0x1A8 CALLDATASIZE PUSH1 0x4 PUSH2 0xDF1 JUMP JUMPDEST PUSH1 0x40 DUP1 MLOAD PUSH1 0xA0 DUP2 ADD DUP3 MSTORE PUSH1 0x0 DUP1 DUP3 MSTORE PUSH1 0x20 DUP3 ADD DUP2 SWAP1 MSTORE SWAP2 DUP2 ADD DUP3 SWAP1 MSTORE PUSH1 0x60 DUP2 ADD DUP3 SWAP1 MSTORE PUSH1 0x80 DUP2 ADD SWAP2 SWAP1 SWAP2 MSTORE POP PUSH1 0x1 PUSH1 0x1 PUSH1 0x80 SHL SUB NOT AND PUSH1 0x0 SWAP1 DUP2 MSTORE PUSH1 0x98 PUSH1 0x20 SWAP1 DUP2 MSTORE PUSH1 0x40 SWAP2 DUP3 SWAP1 KECCAK256 DUP3 MLOAD PUSH1 0xA0 DUP2 ADD DUP5 MSTORE DUP2 SLOAD PUSH1 0x1 PUSH1 0x1 PUSH1 0xA0 SHL SUB DUP1 DUP3 AND DUP4 MSTORE PUSH1 0x1 PUSH1 0xA0 SHL DUP3 DIV PUSH4 0xFFFFFFFF SWAP1 DUP2 AND SWAP6 DUP5 ADD SWAP6 SWAP1 SWAP6 MSTORE PUSH1 0x1 PUSH1 0xC0 SHL DUP3 DIV SWAP1 SWAP5 AND SWAP5 DUP3 ADD SWAP5 SWAP1 SWAP5 MSTORE PUSH1 0x1 PUSH1 0xE0 SHL SWAP1 SWAP4 DIV PUSH2 0xFFFF AND PUSH1 0x60 DUP5 ADD MSTORE PUSH1 0x1 ADD SLOAD AND PUSH1 0x80 DUP3 ADD MSTORE SWAP1 JUMP JUMPDEST PUSH1 0x40 MLOAD PUSH2 0x146 SWAP2 SWAP1 DUP2 MLOAD PUSH1 0x1 PUSH1 0x1 PUSH1 0xA0 SHL SUB SWAP1 DUP2 AND DUP3 MSTORE PUSH1 0x20 DUP1 DUP5 ADD MLOAD PUSH4 0xFFFFFFFF SWAP1 DUP2 AND SWAP2 DUP5 ADD SWAP2 SWAP1 SWAP2 MSTORE PUSH1 0x40 DUP1 DUP6 ADD MLOAD SWAP1 SWAP2 AND SWAP1 DUP4 ADD MSTORE PUSH1 0x60 DUP1 DUP5 ADD MLOAD PUSH2 0xFFFF AND SWAP1 DUP4 ADD MSTORE PUSH1 0x80 SWAP3 DUP4 ADD MLOAD AND SWAP2 DUP2 ADD SWAP2 SWAP1 SWAP2 MSTORE PUSH1 0xA0 ADD SWAP1 JUMP JUMPDEST CALLVALUE DUP1 ISZERO PUSH2 0x2B3 JUMPI PUSH1 0x0 DUP1 REVERT JUMPDEST POP PUSH2 0x118 PUSH2 0x2C2 CALLDATASIZE PUSH1 0x4 PUSH2 0xE0C JUMP JUMPDEST PUSH2 0x556 JUMP JUMPDEST CALLVALUE DUP1 ISZERO PUSH2 0x2D3 JUMPI PUSH1 0x0 DUP1 REVERT JUMPDEST POP PUSH2 0x118 PUSH2 0x2E2 CALLDATASIZE PUSH1 0x4 PUSH2 0xE0C JUMP JUMPDEST PUSH2 0x581 JUMP JUMPDEST CALLVALUE DUP1 ISZERO PUSH2 0x2F3 JUMPI PUSH1 0x0 DUP1 REVERT JUMPDEST POP PUSH2 0x118 PUSH2 0x302 CALLDATASIZE PUSH1 0x4 PUSH2 0xDBB JUMP JUMPDEST PUSH2 0x5FF JUMP JUMPDEST PUSH2 0x118 PUSH2 0x315 CALLDATASIZE PUSH1 0x4 PUSH2 0xE50 JUMP JUMPDEST PUSH2 0x633 JUMP JUMPDEST CALLVALUE DUP1 ISZERO PUSH2 0x326 JUMPI PUSH1 0x0 DUP1 REVERT JUMPDEST POP PUSH2 0x17F PUSH32 0x637CA263F44C0A7E4A3B057E26C82C5667C084AA950864A2916355C481F6A097 DUP2 JUMP JUMPDEST CALLVALUE DUP1 ISZERO PUSH2 0x35A JUMPI PUSH1 0x0 DUP1 REVERT JUMPDEST POP PUSH2 0x13A PUSH2 0x369 CALLDATASIZE PUSH1 0x4 PUSH2 0xDF1 JUMP JUMPDEST PUSH1 0x1 PUSH1 0x1 PUSH1 0x80 SHL SUB NOT AND PUSH1 0x0 SWAP1 DUP2 MSTORE PUSH1 0x98 PUSH1 0x20 MSTORE PUSH1 0x40 SWAP1 KECCAK256 SLOAD TIMESTAMP PUSH1 0x1 PUSH1 0xC0 SHL SWAP1 SWAP2 DIV PUSH4 0xFFFFFFFF AND GT SWAP1 JUMP JUMPDEST CALLVALUE DUP1 ISZERO PUSH2 0x3A1 JUMPI PUSH1 0x0 DUP1 REVERT JUMPDEST POP PUSH2 0x13A PUSH2 0x3B0 CALLDATASIZE PUSH1 0x4 PUSH2 0xE0C JUMP JUMPDEST PUSH2 0x708 JUMP JUMPDEST CALLVALUE DUP1 ISZERO PUSH2 0x3C1 JUMPI PUSH1 0x0 DUP1 REVERT JUMPDEST POP PUSH2 0x17F PUSH1 0x97 SLOAD DUP2 JUMP JUMPDEST CALLVALUE DUP1 ISZERO PUSH2 0x3D7 JUMPI PUSH1 0x0 DUP1 REVERT JUMPDEST POP PUSH2 0x17F PUSH1 0x0 DUP2 JUMP JUMPDEST CALLVALUE DUP1 ISZERO PUSH2 0x3EC JUMPI PUSH1 0x0 DUP1 REVERT JUMPDEST POP PUSH2 0x118 PUSH2 0x3FB CALLDATASIZE PUSH1 0x4 PUSH2 0xE0C JUMP JUMPDEST PUSH2 0x733 JUMP JUMPDEST CALLVALUE DUP1 ISZERO PUSH2 0x40C JUMPI PUSH1 0x0 DUP1 REVERT JUMPDEST POP PUSH2 0x17F PUSH32 0xC1F0C13D12A4CA09AADA5725E24C49160E8F198A4CA0D2BD4DAFC9C5C12E6A35 DUP2 JUMP JUMPDEST CALLVALUE DUP1 ISZERO PUSH2 0x440 JUMPI PUSH1 0x0 DUP1 REVERT JUMPDEST POP PUSH2 0x118 PUSH2 0x44F CALLDATASIZE PUSH1 0x4 PUSH2 0xDBB JUMP JUMPDEST PUSH2 0x759 JUMP JUMPDEST PUSH32 0xC1F0C13D12A4CA09AADA5725E24C49160E8F198A4CA0D2BD4DAFC9C5C12E6A35 PUSH2 0x47F DUP2 CALLER PUSH2 0x87A JUMP JUMPDEST PUSH1 0x40 MLOAD SELFBALANCE SWAP1 PUSH1 0x0 SWAP1 PUSH1 0x1 PUSH1 0x1 PUSH1 0xA0 SHL SUB DUP6 AND SWAP1 DUP4 SWAP1 DUP4 DUP2 DUP2 DUP2 DUP6 DUP8 GAS CALL SWAP3 POP POP POP RETURNDATASIZE DUP1 PUSH1 0x0 DUP2 EQ PUSH2 0x4CC JUMPI PUSH1 0x40 MLOAD SWAP2 POP PUSH1 0x1F NOT PUSH1 0x3F RETURNDATASIZE ADD AND DUP3 ADD PUSH1 0x40 MSTORE RETURNDATASIZE DUP3 MSTORE RETURNDATASIZE PUSH1 0x0 PUSH1 0x20 DUP5 ADD RETURNDATACOPY PUSH2 0x4D1 JUMP JUMPDEST PUSH1 0x60 SWAP2 POP JUMPDEST POP POP SWAP1 POP DUP1 PUSH2 0x519 JUMPI PUSH1 0x40 MLOAD PUSH3 0x461BCD PUSH1 0xE5 SHL DUP2 MSTORE PUSH1 0x20 PUSH1 0x4 DUP3 ADD MSTORE PUSH1 0xF PUSH1 0x24 DUP3 ADD MSTORE PUSH15 0x2330B4B632B2103A3930B739B332B9 PUSH1 0x89 SHL PUSH1 0x44 DUP3 ADD MSTORE PUSH1 0x64 ADD JUMPDEST PUSH1 0x40 MLOAD DUP1 SWAP2 SUB SWAP1 REVERT JUMPDEST POP POP POP POP JUMP JUMPDEST PUSH1 0x0 PUSH1 0x1 PUSH1 0x1 PUSH1 0xE0 SHL SUB NOT DUP3 AND PUSH4 0x7965DB0B PUSH1 0xE0 SHL EQ DUP1 PUSH2 0x550 JUMPI POP PUSH4 0x1FFC9A7 PUSH1 0xE0 SHL PUSH1 0x1 PUSH1 0x1 PUSH1 0xE0 SHL SUB NOT DUP4 AND EQ JUMPDEST SWAP3 SWAP2 POP POP JUMP JUMPDEST PUSH1 0x0 DUP3 DUP2 MSTORE PUSH1 0x65 PUSH1 0x20 MSTORE PUSH1 0x40 SWAP1 KECCAK256 PUSH1 0x1 ADD SLOAD PUSH2 0x572 DUP2 CALLER PUSH2 0x87A JUMP JUMPDEST PUSH2 0x57C DUP4 DUP4 PUSH2 0x8DE JUMP JUMPDEST POP POP POP JUMP JUMPDEST PUSH1 0x1 PUSH1 0x1 PUSH1 0xA0 SHL SUB DUP2 AND CALLER EQ PUSH2 0x5F1 JUMPI PUSH1 0x40 MLOAD PUSH3 0x461BCD PUSH1 0xE5 SHL DUP2 MSTORE PUSH1 0x20 PUSH1 0x4 DUP3 ADD MSTORE PUSH1 0x2F PUSH1 0x24 DUP3 ADD MSTORE PUSH32 0x416363657373436F6E74726F6C3A2063616E206F6E6C792072656E6F756E6365 PUSH1 0x44 DUP3 ADD MSTORE PUSH15 0x103937B632B9903337B91039B2B633 PUSH1 0x89 SHL PUSH1 0x64 DUP3 ADD MSTORE PUSH1 0x84 ADD PUSH2 0x510 JUMP JUMPDEST PUSH2 0x5FB DUP3 DUP3 PUSH2 0x964 JUMP JUMPDEST POP POP JUMP JUMPDEST PUSH32 0x637CA263F44C0A7E4A3B057E26C82C5667C084AA950864A2916355C481F6A097 PUSH2 0x62A DUP2 CALLER PUSH2 0x87A JUMP JUMPDEST PUSH2 0x5FB DUP3 PUSH2 0x9CB JUMP JUMPDEST DUP1 PUSH4 0xFFFFFFFF AND DUP3 PUSH4 0xFFFFFFFF AND LT DUP1 ISZERO PUSH2 0x653 JUMPI POP DUP1 PUSH4 0xFFFFFFFF AND TIMESTAMP LT JUMPDEST PUSH2 0x694 JUMPI PUSH1 0x40 MLOAD PUSH3 0x461BCD PUSH1 0xE5 SHL DUP2 MSTORE PUSH1 0x20 PUSH1 0x4 DUP3 ADD MSTORE PUSH1 0x12 PUSH1 0x24 DUP3 ADD MSTORE PUSH18 0x496E76616C69642074696D657374616D7073 PUSH1 0x70 SHL PUSH1 0x44 DUP3 ADD MSTORE PUSH1 0x64 ADD PUSH2 0x510 JUMP JUMPDEST PUSH1 0x0 PUSH2 0x6A0 DUP4 DUP4 PUSH2 0xED6 JUMP JUMPDEST SWAP1 POP PUSH1 0x0 DUP2 PUSH4 0xFFFFFFFF AND GT DUP1 ISZERO PUSH2 0x6BC JUMPI POP PUSH1 0x0 DUP5 PUSH2 0xFFFF AND GT JUMPDEST DUP1 ISZERO PUSH2 0x6E9 JUMPI POP DUP1 PUSH4 0xFFFFFFFF AND DUP5 PUSH2 0xFFFF AND PUSH1 0x97 SLOAD PUSH2 0x6DC SWAP2 SWAP1 PUSH2 0xEFB JUMP JUMPDEST PUSH2 0x6E6 SWAP2 SWAP1 PUSH2 0xEFB JUMP JUMPDEST CALLVALUE EQ JUMPDEST PUSH2 0x6F2 JUMPI PUSH1 0x0 DUP1 REVERT JUMPDEST PUSH2 0x6FF DUP7 DUP7 DUP7 DUP7 DUP7 PUSH2 0xA10 JUMP JUMPDEST POP POP POP POP POP POP POP JUMP JUMPDEST PUSH1 0x0 SWAP2 DUP3 MSTORE PUSH1 0x65 PUSH1 0x20 SWAP1 DUP2 MSTORE PUSH1 0x40 DUP1 DUP5 KECCAK256 PUSH1 0x1 PUSH1 0x1 PUSH1 0xA0 SHL SUB SWAP4 SWAP1 SWAP4 AND DUP5 MSTORE SWAP2 SWAP1 MSTORE SWAP1 KECCAK256 SLOAD PUSH1 0xFF AND SWAP1 JUMP JUMPDEST PUSH1 0x0 DUP3 DUP2 MSTORE PUSH1 0x65 PUSH1 0x20 MSTORE PUSH1 0x40 SWAP1 KECCAK256 PUSH1 0x1 ADD SLOAD PUSH2 0x74F DUP2 CALLER PUSH2 0x87A JUMP JUMPDEST PUSH2 0x57C DUP4 DUP4 PUSH2 0x964 JUMP JUMPDEST PUSH1 0x0 SLOAD PUSH2 0x100 SWAP1 DIV PUSH1 0xFF AND PUSH2 0x774 JUMPI PUSH1 0x0 SLOAD PUSH1 0xFF AND ISZERO PUSH2 0x778 JUMP JUMPDEST ADDRESS EXTCODESIZE ISZERO JUMPDEST PUSH2 0x7DB JUMPI PUSH1 0x40 MLOAD PUSH3 0x461BCD PUSH1 0xE5 SHL DUP2 MSTORE PUSH1 0x20 PUSH1 0x4 DUP3 ADD MSTORE PUSH1 0x2E PUSH1 0x24 DUP3 ADD MSTORE PUSH32 0x496E697469616C697A61626C653A20636F6E747261637420697320616C726561 PUSH1 0x44 DUP3 ADD MSTORE PUSH14 0x191E481A5B9A5D1A585B1A5E9959 PUSH1 0x92 SHL PUSH1 0x64 DUP3 ADD MSTORE PUSH1 0x84 ADD PUSH2 0x510 JUMP JUMPDEST PUSH1 0x0 SLOAD PUSH2 0x100 SWAP1 DIV PUSH1 0xFF AND ISZERO DUP1 ISZERO PUSH2 0x7FD JUMPI PUSH1 0x0 DUP1 SLOAD PUSH2 0xFFFF NOT AND PUSH2 0x101 OR SWAP1 SSTORE JUMPDEST PUSH2 0x806 DUP3 PUSH2 0x9CB JUMP JUMPDEST PUSH2 0x830 PUSH32 0x637CA263F44C0A7E4A3B057E26C82C5667C084AA950864A2916355C481F6A097 CALLER PUSH2 0xBAF JUMP JUMPDEST PUSH2 0x85A PUSH32 0xC1F0C13D12A4CA09AADA5725E24C49160E8F198A4CA0D2BD4DAFC9C5C12E6A35 CALLER PUSH2 0xBAF JUMP JUMPDEST PUSH2 0x865 PUSH1 0x0 CALLER PUSH2 0xBAF JUMP JUMPDEST DUP1 ISZERO PUSH2 0x5FB JUMPI PUSH1 0x0 DUP1 SLOAD PUSH2 0xFF00 NOT AND SWAP1 SSTORE POP POP JUMP JUMPDEST PUSH2 0x884 DUP3 DUP3 PUSH2 0x708 JUMP JUMPDEST PUSH2 0x5FB JUMPI PUSH2 0x89C DUP2 PUSH1 0x1 PUSH1 0x1 PUSH1 0xA0 SHL SUB AND PUSH1 0x14 PUSH2 0xBB9 JUMP JUMPDEST PUSH2 0x8A7 DUP4 PUSH1 0x20 PUSH2 0xBB9 JUMP JUMPDEST PUSH1 0x40 MLOAD PUSH1 0x20 ADD PUSH2 0x8B8 SWAP3 SWAP2 SWAP1 PUSH2 0xF46 JUMP JUMPDEST PUSH1 0x40 DUP1 MLOAD PUSH1 0x1F NOT DUP2 DUP5 SUB ADD DUP2 MSTORE SWAP1 DUP3 SWAP1 MSTORE PUSH3 0x461BCD PUSH1 0xE5 SHL DUP3 MSTORE PUSH2 0x510 SWAP2 PUSH1 0x4 ADD PUSH2 0xFBB JUMP JUMPDEST PUSH2 0x8E8 DUP3 DUP3 PUSH2 0x708 JUMP JUMPDEST PUSH2 0x5FB JUMPI PUSH1 0x0 DUP3 DUP2 MSTORE PUSH1 0x65 PUSH1 0x20 SWAP1 DUP2 MSTORE PUSH1 0x40 DUP1 DUP4 KECCAK256 PUSH1 0x1 PUSH1 0x1 PUSH1 0xA0 SHL SUB DUP6 AND DUP5 MSTORE SWAP1 SWAP2 MSTORE SWAP1 KECCAK256 DUP1 SLOAD PUSH1 0xFF NOT AND PUSH1 0x1 OR SWAP1 SSTORE PUSH2 0x920 CALLER SWAP1 JUMP JUMPDEST PUSH1 0x1 PUSH1 0x1 PUSH1 0xA0 SHL SUB AND DUP2 PUSH1 0x1 PUSH1 0x1 PUSH1 0xA0 SHL SUB AND DUP4 PUSH32 0x2F8788117E7EFF1D82E926EC794901D17C78024A50270940304540A733656F0D PUSH1 0x40 MLOAD PUSH1 0x40 MLOAD DUP1 SWAP2 SUB SWAP1 LOG4 POP POP JUMP JUMPDEST PUSH2 0x96E DUP3 DUP3 PUSH2 0x708 JUMP JUMPDEST ISZERO PUSH2 0x5FB JUMPI PUSH1 0x0 DUP3 DUP2 MSTORE PUSH1 0x65 PUSH1 0x20 SWAP1 DUP2 MSTORE PUSH1 0x40 DUP1 DUP4 KECCAK256 PUSH1 0x1 PUSH1 0x1 PUSH1 0xA0 SHL SUB DUP6 AND DUP1 DUP6 MSTORE SWAP3 MSTORE DUP1 DUP4 KECCAK256 DUP1 SLOAD PUSH1 0xFF NOT AND SWAP1 SSTORE MLOAD CALLER SWAP3 DUP6 SWAP2 PUSH32 0xF6391F5C32D9C69D2A47EA670B442974B53935D1EDC7FD64EB21E047A839171B SWAP2 SWAP1 LOG4 POP POP JUMP JUMPDEST PUSH1 0x97 DUP1 SLOAD SWAP1 DUP3 SWAP1 SSTORE PUSH1 0x40 DUP1 MLOAD DUP3 DUP2 MSTORE PUSH1 0x20 DUP2 ADD DUP5 SWAP1 MSTORE PUSH32 0x14914DA2BF76024616FBE1859783FCD4DBDDCB179B1F3A854949FBF920DCB957 SWAP2 ADD PUSH1 0x40 MLOAD DUP1 SWAP2 SUB SWAP1 LOG1 POP POP JUMP JUMPDEST PUSH1 0x1 PUSH1 0x1 PUSH1 0x80 SHL SUB NOT DUP6 AND PUSH1 0x0 SWAP1 DUP2 MSTORE PUSH1 0x98 PUSH1 0x20 MSTORE PUSH1 0x40 SWAP1 KECCAK256 DUP1 SLOAD TIMESTAMP PUSH1 0x1 PUSH1 0xC0 SHL SWAP1 SWAP2 DIV PUSH4 0xFFFFFFFF AND LT PUSH2 0xA87 JUMPI PUSH1 0x40 MLOAD PUSH3 0x461BCD PUSH1 0xE5 SHL DUP2 MSTORE PUSH1 0x20 PUSH1 0x4 DUP3 ADD MSTORE PUSH1 0x1A PUSH1 0x24 DUP3 ADD MSTORE PUSH32 0x506F6C6963792069732063757272656E746C7920616374697665000000000000 PUSH1 0x44 DUP3 ADD MSTORE PUSH1 0x64 ADD PUSH2 0x510 JUMP JUMPDEST DUP1 SLOAD PUSH2 0xFFFF DUP6 AND PUSH1 0x1 PUSH1 0xE0 SHL MUL PUSH2 0xFFFF PUSH1 0xE0 SHL NOT PUSH4 0xFFFFFFFF DUP6 DUP2 AND PUSH1 0x1 PUSH1 0xC0 SHL MUL SWAP2 SWAP1 SWAP2 AND PUSH6 0xFFFFFFFFFFFF PUSH1 0xC0 SHL NOT SWAP2 DUP8 AND PUSH1 0x1 PUSH1 0xA0 SHL MUL PUSH4 0xFFFFFFFF PUSH1 0xA0 SHL NOT CALLER SWAP1 DUP2 AND PUSH1 0x1 PUSH1 0x1 PUSH1 0xC0 SHL SUB NOT SWAP1 SWAP7 AND SWAP6 SWAP1 SWAP6 OR OR SWAP2 SWAP1 SWAP2 AND OR OR DUP3 SSTORE PUSH1 0x1 PUSH1 0x1 PUSH1 0xA0 SHL SUB DUP7 AND EQ DUP1 ISZERO SWAP1 PUSH2 0xB07 JUMPI POP PUSH1 0x1 PUSH1 0x1 PUSH1 0xA0 SHL SUB DUP6 AND ISZERO ISZERO JUMPDEST ISZERO PUSH2 0xB2A JUMPI PUSH1 0x1 DUP2 ADD DUP1 SLOAD PUSH1 0x1 PUSH1 0x1 PUSH1 0xA0 SHL SUB NOT AND PUSH1 0x1 PUSH1 0x1 PUSH1 0xA0 SHL SUB DUP8 AND OR SWAP1 SSTORE JUMPDEST PUSH1 0x1 PUSH1 0x1 PUSH1 0xA0 SHL SUB DUP6 AND ISZERO PUSH2 0xB3F JUMPI DUP5 PUSH2 0xB41 JUMP JUMPDEST CALLER JUMPDEST PUSH1 0x40 DUP1 MLOAD PUSH2 0xFFFF DUP8 AND DUP2 MSTORE PUSH4 0xFFFFFFFF DUP7 DUP2 AND PUSH1 0x20 DUP4 ADD MSTORE DUP6 AND DUP2 DUP4 ADD MSTORE SWAP1 MLOAD PUSH1 0x1 PUSH1 0x1 PUSH1 0xA0 SHL SUB SWAP3 SWAP1 SWAP3 AND SWAP2 CALLER SWAP2 PUSH1 0x1 PUSH1 0x1 PUSH1 0x80 SHL SUB NOT DUP11 AND SWAP2 PUSH32 0x195A936466C6723D6406661ADFBFE97BB7802E46A2CE4C57F961530AF2B96575 SWAP2 DUP2 SWAP1 SUB PUSH1 0x60 ADD SWAP1 LOG4 SWAP6 SWAP5 POP POP POP POP POP JUMP JUMPDEST PUSH2 0x5FB DUP3 DUP3 PUSH2 0x8DE JUMP JUMPDEST PUSH1 0x60 PUSH1 0x0 PUSH2 0xBC8 DUP4 PUSH1 0x2 PUSH2 0xEFB JUMP JUMPDEST PUSH2 0xBD3 SWAP1 PUSH1 0x2 PUSH2 0xFEE JUMP JUMPDEST PUSH8 0xFFFFFFFFFFFFFFFF DUP2 GT ISZERO PUSH2 0xBEB JUMPI PUSH2 0xBEB PUSH2 0x1006 JUMP JUMPDEST PUSH1 0x40 MLOAD SWAP1 DUP1 DUP3 MSTORE DUP1 PUSH1 0x1F ADD PUSH1 0x1F NOT AND PUSH1 0x20 ADD DUP3 ADD PUSH1 0x40 MSTORE DUP1 ISZERO PUSH2 0xC15 JUMPI PUSH1 0x20 DUP3 ADD DUP2 DUP1 CALLDATASIZE DUP4 CALLDATACOPY ADD SWAP1 POP JUMPDEST POP SWAP1 POP PUSH1 0x3 PUSH1 0xFC SHL DUP2 PUSH1 0x0 DUP2 MLOAD DUP2 LT PUSH2 0xC30 JUMPI PUSH2 0xC30 PUSH2 0x101C JUMP JUMPDEST PUSH1 0x20 ADD ADD SWAP1 PUSH1 0x1 PUSH1 0x1 PUSH1 0xF8 SHL SUB NOT AND SWAP1 DUP2 PUSH1 0x0 BYTE SWAP1 MSTORE8 POP PUSH1 0xF PUSH1 0xFB SHL DUP2 PUSH1 0x1 DUP2 MLOAD DUP2 LT PUSH2 0xC5F JUMPI PUSH2 0xC5F PUSH2 0x101C JUMP JUMPDEST PUSH1 0x20 ADD ADD SWAP1 PUSH1 0x1 PUSH1 0x1 PUSH1 0xF8 SHL SUB NOT AND SWAP1 DUP2 PUSH1 0x0 BYTE SWAP1 MSTORE8 POP PUSH1 0x0 PUSH2 0xC83 DUP5 PUSH1 0x2 PUSH2 0xEFB JUMP JUMPDEST PUSH2 0xC8E SWAP1 PUSH1 0x1 PUSH2 0xFEE JUMP JUMPDEST SWAP1 POP JUMPDEST PUSH1 0x1 DUP2 GT ISZERO PUSH2 0xD06 JUMPI PUSH16 0x181899199A1A9B1B9C1CB0B131B232B3 PUSH1 0x81 SHL DUP6 PUSH1 0xF AND PUSH1 0x10 DUP2 LT PUSH2 0xCC2 JUMPI PUSH2 0xCC2 PUSH2 0x101C JUMP JUMPDEST BYTE PUSH1 0xF8 SHL DUP3 DUP3 DUP2 MLOAD DUP2 LT PUSH2 0xCD8 JUMPI PUSH2 0xCD8 PUSH2 0x101C JUMP JUMPDEST PUSH1 0x20 ADD ADD SWAP1 PUSH1 0x1 PUSH1 0x1 PUSH1 0xF8 SHL SUB NOT AND SWAP1 DUP2 PUSH1 0x0 BYTE SWAP1 MSTORE8 POP PUSH1 0x4 SWAP5 SWAP1 SWAP5 SHR SWAP4 PUSH2 0xCFF DUP2 PUSH2 0x1032 JUMP JUMPDEST SWAP1 POP PUSH2 0xC91 JUMP JUMPDEST POP DUP4 ISZERO PUSH2 0xD55 JUMPI PUSH1 0x40 MLOAD PUSH3 0x461BCD PUSH1 0xE5 SHL DUP2 MSTORE PUSH1 0x20 PUSH1 0x4 DUP3 ADD DUP2 SWAP1 MSTORE PUSH1 0x24 DUP3 ADD MSTORE PUSH32 0x537472696E67733A20686578206C656E67746820696E73756666696369656E74 PUSH1 0x44 DUP3 ADD MSTORE PUSH1 0x64 ADD PUSH2 0x510 JUMP JUMPDEST SWAP4 SWAP3 POP POP POP JUMP JUMPDEST PUSH1 0x1 PUSH1 0x1 PUSH1 0xA0 SHL SUB DUP2 AND DUP2 EQ PUSH2 0xD71 JUMPI PUSH1 0x0 DUP1 REVERT JUMPDEST POP JUMP JUMPDEST PUSH1 0x0 PUSH1 0x20 DUP3 DUP5 SUB SLT ISZERO PUSH2 0xD86 JUMPI PUSH1 0x0 DUP1 REVERT JUMPDEST DUP2 CALLDATALOAD PUSH2 0xD55 DUP2 PUSH2 0xD5C JUMP JUMPDEST PUSH1 0x0 PUSH1 0x20 DUP3 DUP5 SUB SLT ISZERO PUSH2 0xDA3 JUMPI PUSH1 0x0 DUP1 REVERT JUMPDEST DUP2 CALLDATALOAD PUSH1 0x1 PUSH1 0x1 PUSH1 0xE0 SHL SUB NOT DUP2 AND DUP2 EQ PUSH2 0xD55 JUMPI PUSH1 0x0 DUP1 REVERT JUMPDEST PUSH1 0x0 PUSH1 0x20 DUP3 DUP5 SUB SLT ISZERO PUSH2 0xDCD JUMPI PUSH1 0x0 DUP1 REVERT JUMPDEST POP CALLDATALOAD SWAP2 SWAP1 POP JUMP JUMPDEST DUP1 CALLDATALOAD PUSH1 0x1 PUSH1 0x1 PUSH1 0x80 SHL SUB NOT DUP2 AND DUP2 EQ PUSH2 0xDEC JUMPI PUSH1 0x0 DUP1 REVERT JUMPDEST SWAP2 SWAP1 POP JUMP JUMPDEST PUSH1 0x0 PUSH1 0x20 DUP3 DUP5 SUB SLT ISZERO PUSH2 0xE03 JUMPI PUSH1 0x0 DUP1 REVERT JUMPDEST PUSH2 0xD55 DUP3 PUSH2 0xDD4 JUMP JUMPDEST PUSH1 0x0 DUP1 PUSH1 0x40 DUP4 DUP6 SUB SLT ISZERO PUSH2 0xE1F JUMPI PUSH1 0x0 DUP1 REVERT JUMPDEST DUP3 CALLDATALOAD SWAP2 POP PUSH1 0x20 DUP4 ADD CALLDATALOAD PUSH2 0xE31 DUP2 PUSH2 0xD5C JUMP JUMPDEST DUP1 SWAP2 POP POP SWAP3 POP SWAP3 SWAP1 POP JUMP JUMPDEST DUP1 CALLDATALOAD PUSH4 0xFFFFFFFF DUP2 AND DUP2 EQ PUSH2 0xDEC JUMPI PUSH1 0x0 DUP1 REVERT JUMPDEST PUSH1 0x0 DUP1 PUSH1 0x0 DUP1 PUSH1 0x0 PUSH1 0xA0 DUP7 DUP9 SUB SLT ISZERO PUSH2 0xE68 JUMPI PUSH1 0x0 DUP1 REVERT JUMPDEST PUSH2 0xE71 DUP7 PUSH2 0xDD4 JUMP JUMPDEST SWAP5 POP PUSH1 0x20 DUP7 ADD CALLDATALOAD PUSH2 0xE81 DUP2 PUSH2 0xD5C JUMP JUMPDEST SWAP4 POP PUSH1 0x40 DUP7 ADD CALLDATALOAD PUSH2 0xFFFF DUP2 AND DUP2 EQ PUSH2 0xE98 JUMPI PUSH1 0x0 DUP1 REVERT JUMPDEST SWAP3 POP PUSH2 0xEA6 PUSH1 0x60 DUP8 ADD PUSH2 0xE3C JUMP JUMPDEST SWAP2 POP PUSH2 0xEB4 PUSH1 0x80 DUP8 ADD PUSH2 0xE3C JUMP JUMPDEST SWAP1 POP SWAP3 SWAP6 POP SWAP3 SWAP6 SWAP1 SWAP4 POP JUMP JUMPDEST PUSH4 0x4E487B71 PUSH1 0xE0 SHL PUSH1 0x0 MSTORE PUSH1 0x11 PUSH1 0x4 MSTORE PUSH1 0x24 PUSH1 0x0 REVERT JUMPDEST PUSH1 0x0 PUSH4 0xFFFFFFFF DUP4 DUP2 AND SWAP1 DUP4 AND DUP2 DUP2 LT ISZERO PUSH2 0xEF3 JUMPI PUSH2 0xEF3 PUSH2 0xEC0 JUMP JUMPDEST SUB SWAP4 SWAP3 POP POP POP JUMP JUMPDEST PUSH1 0x0 DUP2 PUSH1 0x0 NOT DIV DUP4 GT DUP3 ISZERO ISZERO AND ISZERO PUSH2 0xF15 JUMPI PUSH2 0xF15 PUSH2 0xEC0 JUMP JUMPDEST POP MUL SWAP1 JUMP JUMPDEST PUSH1 0x0 JUMPDEST DUP4 DUP2 LT ISZERO PUSH2 0xF35 JUMPI DUP2 DUP2 ADD MLOAD DUP4 DUP3 ADD MSTORE PUSH1 0x20 ADD PUSH2 0xF1D JUMP JUMPDEST DUP4 DUP2 GT ISZERO PUSH2 0x519 JUMPI POP POP PUSH1 0x0 SWAP2 ADD MSTORE JUMP JUMPDEST PUSH32 0x416363657373436F6E74726F6C3A206163636F756E7420000000000000000000 DUP2 MSTORE PUSH1 0x0 DUP4 MLOAD PUSH2 0xF7E DUP2 PUSH1 0x17 DUP6 ADD PUSH1 0x20 DUP9 ADD PUSH2 0xF1A JUMP JUMPDEST PUSH17 0x1034B99036B4B9B9B4B733903937B6329 PUSH1 0x7D SHL PUSH1 0x17 SWAP2 DUP5 ADD SWAP2 DUP3 ADD MSTORE DUP4 MLOAD PUSH2 0xFAF DUP2 PUSH1 0x28 DUP5 ADD PUSH1 0x20 DUP9 ADD PUSH2 0xF1A JUMP JUMPDEST ADD PUSH1 0x28 ADD SWAP5 SWAP4 POP POP POP POP JUMP JUMPDEST PUSH1 0x20 DUP2 MSTORE PUSH1 0x0 DUP3 MLOAD DUP1 PUSH1 0x20 DUP5 ADD MSTORE PUSH2 0xFDA DUP2 PUSH1 0x40 DUP6 ADD PUSH1 0x20 DUP8 ADD PUSH2 0xF1A JUMP JUMPDEST PUSH1 0x1F ADD PUSH1 0x1F NOT AND SWAP2 SWAP1 SWAP2 ADD PUSH1 0x40 ADD SWAP3 SWAP2 POP POP JUMP JUMPDEST PUSH1 0x0 DUP3 NOT DUP3 GT ISZERO PUSH2 0x1001 JUMPI PUSH2 0x1001 PUSH2 0xEC0 JUMP JUMPDEST POP ADD SWAP1 JUMP JUMPDEST PUSH4 0x4E487B71 PUSH1 0xE0 SHL PUSH1 0x0 MSTORE PUSH1 0x41 PUSH1 0x4 MSTORE PUSH1 0x24 PUSH1 0x0 REVERT JUMPDEST PUSH4 0x4E487B71 PUSH1 0xE0 SHL PUSH1 0x0 MSTORE PUSH1 0x32 PUSH1 0x4 MSTORE PUSH1 0x24 PUSH1 0x0 REVERT JUMPDEST PUSH1 0x0 DUP2 PUSH2 0x1041 JUMPI PUSH2 0x1041 PUSH2 0xEC0 JUMP JUMPDEST POP PUSH1 0x0 NOT ADD SWAP1 JUMP INVALID LOG2 PUSH5 0x6970667358 0x22 SLT KECCAK256 0x1E 0xE6 0xE MSTORE PUSH25 0x637914C09F719A9D5820326094E8A1F431B983D015028F1234 CALLCODE 0xF PUSH5 0x736F6C6343 STOP ADDMOD EXP STOP CALLER ",
  "sha1": "f985c087206f883e7e5e63df0ff7c47cbe923fdc",
  "source": "// SPDX-License-Identifier: AGPL-3.0-or-later\n\npragma solidity ^0.8.0;\n\nimport \"@openzeppelin-upgradeable/contracts/access/AccessControlUpgradeable.sol\";\nimport \"@openzeppelin-upgradeable/contracts/proxy/utils/Initializable.sol\";\n\ncontract SubscriptionManager is Initializable, AccessControlUpgradeable {\n\n    bytes32 public constant SET_RATE_ROLE = \n        keccak256(\"Power to set the fee rate\");\n    bytes32 public constant WITHDRAW_ROLE = \n        keccak256(\"Power to withdraw funds from SubscriptionManager\");\n\n    // The layout of policy struct is optimized, so sponsor, timestamps and size\n    // fit in a single 256-word.\n    struct Policy {\n        address payable sponsor;\n        uint32 startTimestamp;\n        uint32 endTimestamp;\n        uint16 size; // also known as `N`\n        address owner;\n    }\n\n    event PolicyCreated(\n        bytes16 indexed policyId,\n        address indexed sponsor,\n        address indexed owner,\n        uint16 size,\n        uint32 startTimestamp,\n        uint32 endTimestamp\n    );\n\n    event FeeRateUpdated(uint256 oldFeeRate, uint256 newFeeRate);\n\n    // Per-second service fee rate\n    uint256 public feeRate;\n\n    // Mapping that stores policy structs, keyed by policy ID\n    mapping (bytes16 => Policy) internal _policies;\n\n    function initialize(uint256 _feeRate) public initializer {\n        _setFeeRate(_feeRate);\n        _setupRole(SET_RATE_ROLE, msg.sender);\n        _setupRole(WITHDRAW_ROLE, msg.sender);\n        _setupRole(DEFAULT_ADMIN_ROLE, msg.sender);\n    }\n\n    function createPolicy(\n        bytes16 _policyId,\n        address _policyOwner,\n        uint16 _size,\n        uint32 _startTimestamp,\n        uint32 _endTimestamp\n    )\n        external payable\n    {\n        require(\n            _startTimestamp < _endTimestamp &&\n            block.timestamp < _endTimestamp,\n            \"Invalid timestamps\"\n        );\n        uint32 duration = _endTimestamp - _startTimestamp;\n        require(\n            duration > 0 && _size > 0 &&\n            msg.value == feeRate * _size * uint32(duration)\n        );\n\n        _createPolicy(_policyId, _policyOwner, _size, _startTimestamp, _endTimestamp);\n    }\n\n    /**\n    * @notice Create policy\n    * @param _policyId Policy id\n    * @param _policyOwner Policy owner. Zero address means sender is owner\n    * @param _size Number of nodes involved in the policy\n    * @param _startTimestamp Start timestamp of the policy in seconds\n    * @param _endTimestamp End timestamp of the policy in seconds\n    */\n    function _createPolicy(\n        bytes16 _policyId,\n        address _policyOwner,\n        uint16 _size,\n        uint32 _startTimestamp,\n        uint32 _endTimestamp\n    )\n        internal returns (Policy storage policy)\n    {\n        policy = _policies[_policyId];\n        require(\n            policy.endTimestamp < block.timestamp,\n            \"Policy is currently active\"\n        );\n\n        policy.sponsor = payable(msg.sender);\n        policy.startTimestamp = _startTimestamp;\n        policy.endTimestamp = _endTimestamp;\n        policy.size = _size;\n\n        if (_policyOwner != msg.sender && _policyOwner != address(0)) {\n            policy.owner = _policyOwner;\n        }\n\n        emit PolicyCreated(\n            _policyId,\n            msg.sender,\n            _policyOwner == address(0) ? msg.sender : _policyOwner,\n            _size,\n            _startTimestamp,\n            _endTimestamp\n        );\n    }\n\n    function getPolicy(bytes16 _policyID) public view returns(Policy memory){\n        return _policies[_policyID];\n    }\n\n    function isPolicyActive(bytes16 _policyID) public view returns(bool){\n        return _policies[_policyID].endTimestamp > block.timestamp;\n    }\n\n    function _setFeeRate(uint256 newFee) internal {\n        uint256 oldFee = feeRate;\n        feeRate = newFee;\n        emit FeeRateUpdated(oldFee, newFee);\n    }\n\n    function setFeeRate(uint256 _rate_per_second) onlyRole(SET_RATE_ROLE) external {\n        _setFeeRate(_rate_per_second);\n    }\n\n    function sweep(address payable recipient) onlyRole(WITHDRAW_ROLE) external {\n        uint256 balance = address(this).balance;\n        (bool sent, ) = recipient.call{value: balance}(\"\");\n        require(sent, \"Failed transfer\");\n    }\n\n}",
  "sourcePath": "contracts/matic/SubscriptionManager.sol",
  "type": "contract"
}