{
  "abi": [
    {
      "inputs": [
        {
          "internalType": "contract NuCypherToken",
          "name": "_token",
          "type": "address"
        },
        {
          "internalType": "contract IStakingEscrow",
          "name": "_escrow",
          "type": "address"
        },
        {
          "internalType": "uint256",
          "name": "_startBidDate",
          "type": "uint256"
        },
        {
          "internalType": "uint256",
          "name": "_endBidDate",
          "type": "uint256"
        },
        {
          "internalType": "uint256",
          "name": "_endCancellationDate",
          "type": "uint256"
        },
        {
          "internalType": "uint256",
          "name": "_boostingRefund",
          "type": "uint256"
        },
        {
          "internalType": "uint16",
          "name": "_stakingPeriods",
          "type": "uint16"
        },
        {
          "internalType": "uint256",
          "name": "_minAllowedBid",
          "type": "uint256"
        }
      ],
      "stateMutability": "nonpayable",
      "type": "constructor"
    },
    {
      "anonymous": false,
      "inputs": [
        {
          "indexed": true,
          "internalType": "address",
          "name": "sender",
          "type": "address"
        },
        {
          "indexed": false,
          "internalType": "uint256",
          "name": "depositedETH",
          "type": "uint256"
        }
      ],
      "name": "Bid",
      "type": "event"
    },
    {
      "anonymous": false,
      "inputs": [
        {
          "indexed": true,
          "internalType": "address",
          "name": "sender",
          "type": "address"
        },
        {
          "indexed": false,
          "internalType": "uint256",
          "name": "startIndex",
          "type": "uint256"
        },
        {
          "indexed": false,
          "internalType": "uint256",
          "name": "endIndex",
          "type": "uint256"
        }
      ],
      "name": "BiddersChecked",
      "type": "event"
    },
    {
      "anonymous": false,
      "inputs": [
        {
          "indexed": true,
          "internalType": "address",
          "name": "sender",
          "type": "address"
        },
        {
          "indexed": false,
          "internalType": "uint256",
          "name": "value",
          "type": "uint256"
        }
      ],
      "name": "Canceled",
      "type": "event"
    },
    {
      "anonymous": false,
      "inputs": [
        {
          "indexed": true,
          "internalType": "address",
          "name": "sender",
          "type": "address"
        },
        {
          "indexed": false,
          "internalType": "uint256",
          "name": "claimedTokens",
          "type": "uint256"
        }
      ],
      "name": "Claimed",
      "type": "event"
    },
    {
      "anonymous": false,
      "inputs": [
        {
          "indexed": true,
          "internalType": "address",
          "name": "sender",
          "type": "address"
        },
        {
          "indexed": false,
          "internalType": "uint256",
          "name": "value",
          "type": "uint256"
        }
      ],
      "name": "CompensationWithdrawn",
      "type": "event"
    },
    {
      "anonymous": false,
      "inputs": [
        {
          "indexed": true,
          "internalType": "address",
          "name": "sender",
          "type": "address"
        },
        {
          "indexed": false,
          "internalType": "uint256",
          "name": "value",
          "type": "uint256"
        }
      ],
      "name": "Deposited",
      "type": "event"
    },
    {
      "anonymous": false,
      "inputs": [
        {
          "indexed": true,
          "internalType": "address",
          "name": "sender",
          "type": "address"
        },
        {
          "indexed": true,
          "internalType": "address",
          "name": "bidder",
          "type": "address"
        },
        {
          "indexed": false,
          "internalType": "uint256",
          "name": "refundETH",
          "type": "uint256"
        }
      ],
      "name": "ForceRefund",
      "type": "event"
    },
    {
      "anonymous": false,
      "inputs": [
        {
          "indexed": true,
          "internalType": "address",
          "name": "previousOwner",
          "type": "address"
        },
        {
          "indexed": true,
          "internalType": "address",
          "name": "newOwner",
          "type": "address"
        }
      ],
      "name": "OwnershipTransferred",
      "type": "event"
    },
    {
      "anonymous": false,
      "inputs": [
        {
          "indexed": true,
          "internalType": "address",
          "name": "sender",
          "type": "address"
        },
        {
          "indexed": false,
          "internalType": "uint256",
          "name": "refundETH",
          "type": "uint256"
        },
        {
          "indexed": false,
          "internalType": "uint256",
          "name": "completedWork",
          "type": "uint256"
        }
      ],
      "name": "Refund",
      "type": "event"
    },
    {
      "anonymous": false,
      "inputs": [
        {
          "indexed": true,
          "internalType": "address",
          "name": "sender",
          "type": "address"
        }
      ],
      "name": "Shutdown",
      "type": "event"
    },
    {
      "inputs": [],
      "name": "SLOWING_REFUND",
      "outputs": [
        {
          "internalType": "uint16",
          "name": "",
          "type": "uint16"
        }
      ],
      "stateMutability": "view",
      "type": "function"
    },
    {
      "inputs": [],
      "name": "bid",
      "outputs": [],
      "stateMutability": "payable",
      "type": "function"
    },
    {
      "inputs": [
        {
          "internalType": "uint256",
          "name": "",
          "type": "uint256"
        }
      ],
      "name": "bidders",
      "outputs": [
        {
          "internalType": "address",
          "name": "",
          "type": "address"
        }
      ],
      "stateMutability": "view",
      "type": "function"
    },
    {
      "inputs": [],
      "name": "bonusETHSupply",
      "outputs": [
        {
          "internalType": "uint256",
          "name": "",
          "type": "uint256"
        }
      ],
      "stateMutability": "view",
      "type": "function"
    },
    {
      "inputs": [],
      "name": "boostingRefund",
      "outputs": [
        {
          "internalType": "uint256",
          "name": "",
          "type": "uint256"
        }
      ],
      "stateMutability": "view",
      "type": "function"
    },
    {
      "inputs": [],
      "name": "cancelBid",
      "outputs": [],
      "stateMutability": "nonpayable",
      "type": "function"
    },
    {
      "inputs": [],
      "name": "claim",
      "outputs": [
        {
          "internalType": "uint256",
          "name": "claimedTokens",
          "type": "uint256"
        }
      ],
      "stateMutability": "nonpayable",
      "type": "function"
    },
    {
      "inputs": [
        {
          "internalType": "address",
          "name": "",
          "type": "address"
        }
      ],
      "name": "compensation",
      "outputs": [
        {
          "internalType": "uint256",
          "name": "",
          "type": "uint256"
        }
      ],
      "stateMutability": "view",
      "type": "function"
    },
    {
      "inputs": [],
      "name": "endBidDate",
      "outputs": [
        {
          "internalType": "uint256",
          "name": "",
          "type": "uint256"
        }
      ],
      "stateMutability": "view",
      "type": "function"
    },
    {
      "inputs": [],
      "name": "endCancellationDate",
      "outputs": [
        {
          "internalType": "uint256",
          "name": "",
          "type": "uint256"
        }
      ],
      "stateMutability": "view",
      "type": "function"
    },
    {
      "inputs": [],
      "name": "escrow",
      "outputs": [
        {
          "internalType": "contract IStakingEscrow",
          "name": "",
          "type": "address"
        }
      ],
      "stateMutability": "view",
      "type": "function"
    },
    {
      "inputs": [
        {
          "internalType": "uint256",
          "name": "_ethAmount",
          "type": "uint256"
        }
      ],
      "name": "ethToTokens",
      "outputs": [
        {
          "internalType": "uint256",
          "name": "",
          "type": "uint256"
        }
      ],
      "stateMutability": "view",
      "type": "function"
    },
    {
      "inputs": [
        {
          "internalType": "uint256",
          "name": "_ethAmount",
          "type": "uint256"
        }
      ],
      "name": "ethToWork",
      "outputs": [
        {
          "internalType": "uint256",
          "name": "",
          "type": "uint256"
        }
      ],
      "stateMutability": "view",
      "type": "function"
    },
    {
      "inputs": [
        {
          "internalType": "address payable[]",
          "name": "_biddersForRefund",
          "type": "address[]"
        }
      ],
      "name": "forceRefund",
      "outputs": [],
      "stateMutability": "nonpayable",
      "type": "function"
    },
    {
      "inputs": [
        {
          "internalType": "address",
          "name": "_bidder",
          "type": "address"
        }
      ],
      "name": "getAvailableRefund",
      "outputs": [
        {
          "internalType": "uint256",
          "name": "",
          "type": "uint256"
        }
      ],
      "stateMutability": "view",
      "type": "function"
    },
    {
      "inputs": [],
      "name": "getBiddersLength",
      "outputs": [
        {
          "internalType": "uint256",
          "name": "",
          "type": "uint256"
        }
      ],
      "stateMutability": "view",
      "type": "function"
    },
    {
      "inputs": [
        {
          "internalType": "address",
          "name": "_bidder",
          "type": "address"
        }
      ],
      "name": "getRemainingWork",
      "outputs": [
        {
          "internalType": "uint256",
          "name": "",
          "type": "uint256"
        }
      ],
      "stateMutability": "view",
      "type": "function"
    },
    {
      "inputs": [],
      "name": "isClaimingAvailable",
      "outputs": [
        {
          "internalType": "bool",
          "name": "",
          "type": "bool"
        }
      ],
      "stateMutability": "view",
      "type": "function"
    },
    {
      "inputs": [],
      "name": "isOwner",
      "outputs": [
        {
          "internalType": "bool",
          "name": "",
          "type": "bool"
        }
      ],
      "stateMutability": "view",
      "type": "function"
    },
    {
      "inputs": [],
      "name": "maxAllowableLockedTokens",
      "outputs": [
        {
          "internalType": "uint256",
          "name": "",
          "type": "uint256"
        }
      ],
      "stateMutability": "view",
      "type": "function"
    },
    {
      "inputs": [],
      "name": "minAllowableLockedTokens",
      "outputs": [
        {
          "internalType": "uint256",
          "name": "",
          "type": "uint256"
        }
      ],
      "stateMutability": "view",
      "type": "function"
    },
    {
      "inputs": [],
      "name": "minAllowedBid",
      "outputs": [
        {
          "internalType": "uint256",
          "name": "",
          "type": "uint256"
        }
      ],
      "stateMutability": "view",
      "type": "function"
    },
    {
      "inputs": [],
      "name": "nextBidderToCheck",
      "outputs": [
        {
          "internalType": "uint256",
          "name": "",
          "type": "uint256"
        }
      ],
      "stateMutability": "view",
      "type": "function"
    },
    {
      "inputs": [],
      "name": "owner",
      "outputs": [
        {
          "internalType": "address",
          "name": "",
          "type": "address"
        }
      ],
      "stateMutability": "view",
      "type": "function"
    },
    {
      "inputs": [],
      "name": "refund",
      "outputs": [
        {
          "internalType": "uint256",
          "name": "refundETH",
          "type": "uint256"
        }
      ],
      "stateMutability": "nonpayable",
      "type": "function"
    },
    {
      "inputs": [],
      "name": "renounceOwnership",
      "outputs": [],
      "stateMutability": "nonpayable",
      "type": "function"
    },
    {
      "inputs": [],
      "name": "shutdown",
      "outputs": [],
      "stateMutability": "nonpayable",
      "type": "function"
    },
    {
      "inputs": [],
      "name": "stakingPeriods",
      "outputs": [
        {
          "internalType": "uint16",
          "name": "",
          "type": "uint16"
        }
      ],
      "stateMutability": "view",
      "type": "function"
    },
    {
      "inputs": [],
      "name": "startBidDate",
      "outputs": [
        {
          "internalType": "uint256",
          "name": "",
          "type": "uint256"
        }
      ],
      "stateMutability": "view",
      "type": "function"
    },
    {
      "inputs": [],
      "name": "token",
      "outputs": [
        {
          "internalType": "contract NuCypherToken",
          "name": "",
          "type": "address"
        }
      ],
      "stateMutability": "view",
      "type": "function"
    },
    {
      "inputs": [
        {
          "internalType": "uint256",
          "name": "_value",
          "type": "uint256"
        }
      ],
      "name": "tokenDeposit",
      "outputs": [],
      "stateMutability": "nonpayable",
      "type": "function"
    },
    {
      "inputs": [],
      "name": "tokenSupply",
      "outputs": [
        {
          "internalType": "uint256",
          "name": "",
          "type": "uint256"
        }
      ],
      "stateMutability": "view",
      "type": "function"
    },
    {
      "inputs": [
        {
          "internalType": "address",
          "name": "newOwner",
          "type": "address"
        }
      ],
      "name": "transferOwnership",
      "outputs": [],
      "stateMutability": "nonpayable",
      "type": "function"
    },
    {
      "inputs": [
        {
          "internalType": "uint256",
          "name": "_gasToSaveState",
          "type": "uint256"
        }
      ],
      "name": "verifyBiddingCorrectness",
      "outputs": [
        {
          "internalType": "uint256",
          "name": "",
          "type": "uint256"
        }
      ],
      "stateMutability": "nonpayable",
      "type": "function"
    },
    {
      "inputs": [],
      "name": "withdrawCompensation",
      "outputs": [],
      "stateMutability": "nonpayable",
      "type": "function"
    },
    {
      "inputs": [
        {
          "internalType": "address",
          "name": "",
          "type": "address"
        }
      ],
      "name": "workInfo",
      "outputs": [
        {
          "internalType": "uint256",
          "name": "depositedETH",
          "type": "uint256"
        },
        {
          "internalType": "uint256",
          "name": "completedWork",
          "type": "uint256"
        },
        {
          "internalType": "bool",
          "name": "claimed",
          "type": "bool"
        },
        {
          "internalType": "uint128",
          "name": "index",
          "type": "uint128"
        }
      ],
      "stateMutability": "view",
      "type": "function"
    },
    {
      "inputs": [
        {
          "internalType": "uint256",
          "name": "_completedWork",
          "type": "uint256"
        },
        {
          "internalType": "uint256",
          "name": "_depositedETH",
          "type": "uint256"
        }
      ],
      "name": "workToETH",
      "outputs": [
        {
          "internalType": "uint256",
          "name": "",
          "type": "uint256"
        }
      ],
      "stateMutability": "view",
      "type": "function"
    }
  ],
  "bytecode": "6101606040523480156200001257600080fd5b50604051620034433803806200344383398101604081905262000035916200047a565b600080546001600160a01b0319163390811782556040519091907f8be0079c531659141344cd1fd0a4f28419497f9722a3daafe3b4186f6b6457e0908290a36000886001600160a01b03166318160ddd6040518163ffffffff1660e01b8152600401602060405180830381865afa158015620000b5573d6000803e3d6000fd5b505050506040513d601f19601f82011682018060405250810190620000db9190620004fc565b90506000811180156200015857506000886001600160a01b031663407f80016040518163ffffffff1660e01b8152600401602060405180830381865afa1580156200012a573d6000803e3d6000fd5b505050506040513d601f19601f8201168201806040525081019062000150919062000516565b63ffffffff16115b8015620001da5750886001600160a01b0316886001600160a01b031663fc0c546a6040518163ffffffff1660e01b8152600401602060405180830381865afa158015620001a9573d6000803e3d6000fd5b505050506040513d601f19601f82011682018060405250810190620001cf919062000545565b6001600160a01b0316145b8015620001e657508686115b8015620001f257504286115b8015620001ff5750858510155b80156200020c5750600082115b8015620002195750600084115b8015620002925750876001600160a01b0316633ac5743d6040518163ffffffff1660e01b8152600401602060405180830381865afa15801562000260573d6000803e3d6000fd5b505050506040513d601f19601f8201168201806040525081019062000286919062000565565b61ffff168361ffff1610155b6200029c57600080fd5b6064816b409f9cbc7c4a04c22000000082620002b9838362000583565b620002c5919062000583565b620002d19190620005b1565b620002dd9190620005b1565b14801562000328575083816b409f9cbc7c4a04c2200000008262000302838362000583565b6200030e919062000583565b6200031a9190620005b1565b620003269190620005b1565b145b6200033257600080fd5b6001600160a01b03808a16608052881660a081905260028890556003879055600486815560c086905261ffff85166101005260e0849052604080516337db29d160e11b81529051636fb653a2928281019260209291908290030181865afa158015620003a2573d6000803e3d6000fd5b505050506040513d601f19601f82011682018060405250810190620003c89190620004fc565b6101208181525050876001600160a01b0316638cab6c4f6040518163ffffffff1660e01b8152600401602060405180830381865afa1580156200040f573d6000803e3d6000fd5b505050506040513d601f19601f82011682018060405250810190620004359190620004fc565b6101405250620005d4975050505050505050565b6001600160a01b03811681146200045f57600080fd5b50565b805161ffff811681146200047557600080fd5b919050565b600080600080600080600080610100898b0312156200049857600080fd5b8851620004a58162000449565b60208a0151909850620004b88162000449565b8097505060408901519550606089015194506080890151935060a08901519250620004e660c08a0162000462565b915060e089015190509295985092959890939650565b6000602082840312156200050f57600080fd5b5051919050565b6000602082840312156200052957600080fd5b815163ffffffff811681146200053e57600080fd5b9392505050565b6000602082840312156200055857600080fd5b81516200053e8162000449565b6000602082840312156200057857600080fd5b6200053e8262000462565b6000816000190483118215151615620005ac57634e487b7160e01b600052601160045260246000fd5b500290565b600082620005cf57634e487b7160e01b600052601260045260246000fd5b500490565b60805160a05160c05160e051610100516101205161014051612cf56200074e6000396000818161052301528181610976015281816110bf015281816117410152818161179301528181611891015281816118e501528181611e5601528181611ed801526123f701526000818161041601528181611819015281816118b201528181611b2e01528181611dc80152611e7701526000818161062a0152610cf50152600081816103360152818161090601528181610a7101528181611071015281816110f20152818161111d0152818161161901528181611647015281816116c10152818161170d0152818161193a01528181611ea4015281816122ff015281816123430152818161237b01526123a90152600081816103ac015281816125af01526125e90152600081816106be0152818161078901528181610c3901528181610d1c01528181610d9a01528181610f6e015261125d01526000818161071201528181610c68015281816121ca01526126850152612cf56000f3fe60806040526004361061021a5760003560e01c806387a15dc911610123578063b15cf964116100ab578063e1fe7d231161006f578063e1fe7d231461068c578063e2fdcc17146106ac578063f2fde38b146106e0578063fc0c546a14610700578063fc0e74d11461073457600080fd5b8063b15cf964146105e2578063bc859f44146105f8578063be7ff58014610618578063cbce49ed1461064c578063cff29dfd1461066c57600080fd5b80638da5cb5b116100f25780638da5cb5b146105455780638f32d59b146105775780639435c887146105975780639b51ac85146105ac578063a4c89322146105c257600080fd5b806387a15dc9146104c157806388657c7a146104d6578063897db45c146104fb5780638cab6c4f1461051157600080fd5b80635bf997f5116101a6578063715018a611610175578063715018a61461043857806372f960401461044d5780637824407f1461046d5780637f4fad6914610483578063878650331461049957600080fd5b80635bf997f51461039a578063617e677e146103ce57806366ade78e146103e45780636fb653a21461040457600080fd5b80631f45002c116101ed5780631f45002c146102915780634e71d92d1461030f5780634f1910a1146103245780635707bee514610358578063590e1ae31461038557600080fd5b80630594851c1461021f578063124a1f4f146102525780631998aeef146102725780631bb897621461027c575b600080fd5b34801561022b57600080fd5b5061023f61023a3660046129c4565b610749565b6040519081526020015b60405180910390f35b34801561025e57600080fd5b5061023f61026d3660046129e1565b610834565b61027a610847565b005b34801561028857600080fd5b5060085461023f565b34801561029d57600080fd5b506102e06102ac3660046129c4565b60066020526000908152604090208054600182015460029092015490919060ff81169061010090046001600160801b031684565b604080519485526020850193909352901515918301919091526001600160801b03166060820152608001610249565b34801561031b57600080fd5b5061023f610aff565b34801561033057600080fd5b5061023f7f000000000000000000000000000000000000000000000000000000000000000081565b34801561036457600080fd5b5061023f6103733660046129c4565b60076020526000908152604090205481565b34801561039157600080fd5b5061023f610e4f565b3480156103a657600080fd5b5061023f7f000000000000000000000000000000000000000000000000000000000000000081565b3480156103da57600080fd5b5061023f60045481565b3480156103f057600080fd5b5061023f6103ff3660046129fa565b611063565b34801561041057600080fd5b5061023f7f000000000000000000000000000000000000000000000000000000000000000081565b34801561044457600080fd5b5061027a6111b3565b34801561045957600080fd5b5061023f6104683660046129c4565b611214565b34801561047957600080fd5b5061023f60015481565b34801561048f57600080fd5b5061023f60025481565b3480156104a557600080fd5b506104ae606481565b60405161ffff9091168152602001610249565b3480156104cd57600080fd5b5061027a61131e565b3480156104e257600080fd5b506104eb6113c7565b6040519015158152602001610249565b34801561050757600080fd5b5061023f60035481565b34801561051d57600080fd5b5061023f7f000000000000000000000000000000000000000000000000000000000000000081565b34801561055157600080fd5b506000546001600160a01b03165b6040516001600160a01b039091168152602001610249565b34801561058357600080fd5b506000546001600160a01b031633146104eb565b3480156105a357600080fd5b5061027a6113e3565b3480156105b857600080fd5b5061023f60055481565b3480156105ce57600080fd5b5061023f6105dd3660046129e1565b6116bd565b3480156105ee57600080fd5b5061023f60095481565b34801561060457600080fd5b5061023f6106133660046129e1565b6117bf565b34801561062457600080fd5b506104ae7f000000000000000000000000000000000000000000000000000000000000000081565b34801561065857600080fd5b5061027a610667366004612a1c565b611a7d565b34801561067857600080fd5b5061055f6106873660046129e1565b61212b565b34801561069857600080fd5b5061027a6106a73660046129e1565b612155565b3480156106b857600080fd5b5061055f7f000000000000000000000000000000000000000000000000000000000000000081565b3480156106ec57600080fd5b5061027a6106fb3660046129c4565b61223b565b34801561070c57600080fd5b5061055f7f000000000000000000000000000000000000000000000000000000000000000081565b34801561074057600080fd5b5061027a61225e565b6001600160a01b038082166000818152600660205260408082206001810154915163d094adbf60e01b815260048101949094529193919284926107fc92917f00000000000000000000000000000000000000000000000000000000000000009091169063d094adbf90602401602060405180830381865afa1580156107d2573d6000803e3d6000fd5b505050506040513d601f19601f820116820180604052508101906107f69190612a91565b906122de565b9050600061080d8360000154610834565b905081811161082157506000949350505050565b61082b8282612ac0565b95945050505050565b60006108418260006122f1565b92915050565b60025442101561089e5760405162461bcd60e51b815260206004820152601760248201527f42696464696e67206973206e6f74206f70656e2079657400000000000000000060448201526064015b60405180910390fd5b60035442106108ef5760405162461bcd60e51b815260206004820152601b60248201527f42696464696e6720697320616c72656164792066696e697368656400000000006044820152606401610895565b3360009081526006602052604090208054610aa7577f00000000000000000000000000000000000000000000000000000000000000003410156109745760405162461bcd60e51b815260206004820152601c60248201527f426964206d757374206265206174206c65617374206d696e696d756d000000006044820152606401610895565b7f00000000000000000000000000000000000000000000000000000000000000006001546109a29190612ad7565b600854106109fd5760405162461bcd60e51b815260206004820152602260248201527f4e6f7420656e6f75676820746f6b656e7320666f72206d6f7265206269646465604482015261727360f01b6064820152608401610895565b600880546002830180546001600160801b0390921661010002610100600160881b031990921691909117905580546001810182556000919091527ff3f7a9fe364faab93b216da50a3214154f22a0a2b415b23a84c8169e8b636ee30180546001600160a01b03191633179055610a9f610a967f000000000000000000000000000000000000000000000000000000000000000034612ac0565b60055490612470565b600555610ab8565b600554610ab49034612470565b6005555b8054610ac49034612470565b815560405134815233907fe684a55f31b79eca403df938249029212a5925ec6be8012e099b45bc1019e5d2906020015b60405180910390a250565b6000610b096113c7565b610b5f5760405162461bcd60e51b815260206004820152602160248201527f436c61696d696e6720686173206e6f74206265656e20656e61626c65642079656044820152601d60fa1b6064820152608401610895565b336000908152600660205260409020600281015460ff1615610bc35760405162461bcd60e51b815260206004820152601a60248201527f546f6b656e732061726520616c726561647920636c61696d65640000000000006044820152606401610895565b8054610bce906116bd565b915060008211610c135760405162461bcd60e51b815260206004820152601060248201526f4e6f7468696e6720746f20636c61696d60801b6044820152606401610895565b60028101805460ff1916600117905560405163095ea7b360e01b81526001600160a01b037f000000000000000000000000000000000000000000000000000000000000000081166004830152602482018490527f0000000000000000000000000000000000000000000000000000000000000000169063095ea7b3906044016020604051808303816000875af1158015610cb1573d6000803e3d6000fd5b505050506040513d601f19601f82011682018060405250810190610cd59190612af9565b50604051630b8f81e160e11b81523360048201526024810183905261ffff7f00000000000000000000000000000000000000000000000000000000000000001660448201527f00000000000000000000000000000000000000000000000000000000000000006001600160a01b03169063171f03c290606401600060405180830381600087803b158015610d6857600080fd5b505af1158015610d7c573d6000803e3d6000fd5b50506040516312796b7560e21b8152336004820152600160248201527f00000000000000000000000000000000000000000000000000000000000000006001600160a01b031692506349e5add491506044016020604051808303816000875af1158015610ded573d6000803e3d6000fd5b505050506040513d601f19601f82011682018060405250810190610e119190612a91565b600182015560405182815233907fd8138f8a3f377c5259ca548e70e4c2de94f129f5a11036a15b69513cba2b426a9060200160405180910390a25090565b336000908152600660205260408120600281015460ff16610ebe5760405162461bcd60e51b8152602060048201526024808201527f546f6b656e73206d75737420626520636c61696d6564206265666f7265207265604482015263199d5b9960e21b6064820152608401610895565b610ec733611214565b915060008211610f495760405162461bcd60e51b815260206004820152604160248201527f4e6f7468696e6720746f20726566756e643a207468657265206973206e6f204560448201527f544820746f20726566756e64206f72206e6f20636f6d706c6574656420776f726064820152606b60f81b608482015260a401610895565b8054821415610fe5576040516312796b7560e21b8152336004820152600060248201527f00000000000000000000000000000000000000000000000000000000000000006001600160a01b0316906349e5add4906044016020604051808303816000875af1158015610fbf573d6000803e3d6000fd5b505050506040513d601f19601f82011682018060405250810190610fe39190612a91565b505b8054610ff190836122de565b8082556000906110029084906122f1565b60018301549091506110149082612470565b6001830155604080518481526020810183905233917f73f04af9dcc582a923ec15d3eea990fe34adabfff2879e28d44572e01a54abb6910160405180910390a261105e338461247c565b505090565b6008546000908190611096907f000000000000000000000000000000000000000000000000000000000000000090612b1b565b9050600554600014156110b8576110b0848260015461259a565b915050610841565b60008060007f00000000000000000000000000000000000000000000000000000000000000006008805490506110ee9190612b1b565b90507f0000000000000000000000000000000000000000000000000000000000000000861115611187576111427f000000000000000000000000000000000000000000000000000000000000000087612ac0565b91506000816001546111549190612ac0565b905061116383826005546125de565b935083881161118557611179886005548361259a565b95505050505050610841565b505b6111918388612ac0565b965061119e87858361259a565b6111a89083612b3a565b979650505050505050565b6000546001600160a01b031633146111ca57600080fd5b600080546040516001600160a01b03909116907f8be0079c531659141344cd1fd0a4f28419497f9722a3daafe3b4186f6b6457e0908390a3600080546001600160a01b0319169055565b6001600160a01b0381166000908152600660205260408120805461123b5750600092915050565b60405163d094adbf60e01b81526001600160a01b0384811660048301526000917f00000000000000000000000000000000000000000000000000000000000000009091169063d094adbf90602401602060405180830381865afa1580156112a6573d6000803e3d6000fd5b505050506040513d601f19601f820116820180604052508101906112ca9190612a91565b905060006112e58360010154836122de90919063ffffffff16565b9050806112f757506000949350505050565b6000611307828560000154611063565b845490915081111561082b57505090549392505050565b336000908152600760205260409020548061137b5760405162461bcd60e51b815260206004820152601860248201527f5468657265206973206e6f20636f6d70656e736174696f6e00000000000000006044820152606401610895565b33600081815260076020526040812055611395908261247c565b60405181815233907f1480b15e3eab83a9b923578ffe330e3dce94536007ec9c0b48a5dfbde8c4918190602001610af4565b600060045442101580156113de5750600854600954145b905090565b60045442106114515760405162461bcd60e51b815260206004820152603460248201527f43616e63656c6c6174696f6e20616c6c6f776564206f6e6c7920647572696e676044820152732063616e63656c6c6174696f6e2077696e646f7760601b6064820152608401610895565b33600090815260066020526040902080546114a15760405162461bcd60e51b815260206004820152601060248201526f139bc8189a59081d1bc818d85b98d95b60821b6044820152606401610895565b600281015460ff16156114f65760405162461bcd60e51b815260206004820152601a60248201527f546f6b656e732061726520616c726561647920636c61696d65640000000000006044820152606401610895565b8054600080835560085461150c90600190612ac0565b600284015490915061010090046001600160801b031681146115e45760006008828154811061153d5761153d612b52565b6000918252602090912001546002850154600880546001600160a01b0390931693508392909161010090046001600160801b031690811061158057611580612b52565b600091825260208083209190910180546001600160a01b0319166001600160a01b039485161790556002878101549490931682526006905260409020018054610100600160881b031916610100928390046001600160801b03169092029190911790555b60088054806115f5576115f5612b68565b600082815260209020810160001990810180546001600160a01b03191690550190557f00000000000000000000000000000000000000000000000000000000000000008211156116795761167561166c7f000000000000000000000000000000000000000000000000000000000000000084612ac0565b600554906122de565b6005555b611683338361247c565b60405182815233907ff3a6ef5718c05d9183af076f5753197b68b04552a763c34796637d6134bdd0f29060200160405180910390a2505050565b60007f00000000000000000000000000000000000000000000000000000000000000008210156116ef57506000919050565b600554611706576008546001546108419190612ad7565b60006117327f000000000000000000000000000000000000000000000000000000000000000084612ac0565b600854909150600090611766907f000000000000000000000000000000000000000000000000000000000000000090612b1b565b6001546117739190612ac0565b60055490915061178d906117878484612618565b90612624565b6117b7907f0000000000000000000000000000000000000000000000000000000000000000612b3a565b949350505050565b60006004544210156117e35760405162461bcd60e51b815260040161089590612b7e565b60085460095414156118075760405162461bcd60e51b815260040161089590612bd2565b60095460055461188a576008546001547f00000000000000000000000000000000000000000000000000000000000000009161184291612ad7565b11156118855760405162461bcd60e51b81526020600482015260126024820152714e6f7420656e6f756768206269646465727360701b6044820152606401610895565b506008545b60006118d67f00000000000000000000000000000000000000000000000000000000000000007f0000000000000000000000000000000000000000000000000000000000000000612ac0565b60085490915060009061190a907f000000000000000000000000000000000000000000000000000000000000000090612b1b565b6001546119179190612ac0565b90506000611934826117876005548661261890919063ffffffff16565b61195e907f0000000000000000000000000000000000000000000000000000000000000000612b3a565b90505b600854841080156119715750855a115b15611a235760006008858154811061198b5761198b612b52565b60009182526020808320909101546001600160a01b03168083526006909152604090912054909150821015611a105760405162461bcd60e51b815260206004820152602560248201527f4269642069732067726561746572207468616e206d617820616c6c6f7761626c6044820152641948189a5960da1b6064820152608401610895565b84611a1a81612c13565b95505050611961565b6009548414611a7057600954604080519182526020820186905233917f97d5ad02b58968c48057bb16e90b9468ec753e30169bf00692b7ba02b47b090e910160405180910390a260098490555b5050600954949350505050565b600454421015611a9f5760405162461bcd60e51b815260040161089590612b7e565b6008546009541415611ac35760405162461bcd60e51b815260040161089590612bd2565b8080611b225760405162461bcd60e51b815260206004820152602860248201527f4d757374206265206174206c65617374206f6e652062696464657220666f722060448201526718481c99599d5b9960c21b6064820152608401610895565b600154600090611b52907f0000000000000000000000000000000000000000000000000000000000000000612630565b600854909150811115611b6d57611b67612653565b50505050565b600084846000818110611b8257611b82612b52565b9050602002016020810190611b9791906129c4565b6001600160a01b0381166000908152600660205260409020549091508060015b85811015611ca7576000888883818110611bd357611bd3612b52565b9050602002016020810190611be891906129c4565b6001600160a01b03808216600081815260066020526040902054929350908716108015611c155750600081115b611c765760405162461bcd60e51b815260206004820152602c60248201527f416464726573736573206d75737420626520616e206172726179206f6620756e60448201526b69717565206269646465727360a01b6064820152608401610895565b80851115611c8657809450611c92565b80841015611c92578093505b50935080611c9f81612c13565b915050611bb7565b5060008567ffffffffffffffff811115611cc357611cc3612c2e565b604051908082528060200260200182016040528015611cec578160200160208202803683370190505b509050818314611dc65760005b86811015611dc4576000898983818110611d1557611d15612b52565b9050602002016020810190611d2a91906129c4565b6001600160a01b0381166000908152600660205260409020805491925090861015611daf578054611d5c908790612ac0565b848481518110611d6e57611d6e612b52565b60209081029190910101528581558351849084908110611d9057611d90612b52565b602002602001015160056000828254611da99190612ac0565b90915550505b50508080611dbc90612c13565b915050611cf9565b505b7f0000000000000000000000000000000000000000000000000000000000000000611df0846116bd565b11611e4f5760405162461bcd60e51b815260206004820152602960248201527f4174206c65617374206f6e65206f6620626964646572732068617320616c6c6f6044820152681dd8589b1948189a5960ba1b6064820152608401610895565b6000611e9b7f00000000000000000000000000000000000000000000000000000000000000007f0000000000000000000000000000000000000000000000000000000000000000612ac0565b90506000611ec97f000000000000000000000000000000000000000000000000000000000000000086612ac0565b600854909150600090611efd907f000000000000000000000000000000000000000000000000000000000000000090612b1b565b600154611f0a9190612ac0565b90506000611f4d611f1b858c612618565b611f259084612ac0565b611f47611f3d6005548861261890919063ffffffff16565b6107f68787612618565b90612630565b90506000611f5b88836122de565b9050611f67828c612b1b565b60056000828254611f789190612ac0565b90915550600090505b8b8110156120115760008e8e83818110611f9d57611f9d612b52565b9050602002016020810190611fb291906129c4565b6001600160a01b038116600090815260066020526040902089519192509085908a9085908110611fe457611fe4612b52565b60200260200101818151611ff89190612b3a565b905250839055508061200981612c13565b915050611f81565b50600060098190555b8b81101561211b5760008e8e8381811061203657612036612b52565b905060200201602081019061204b91906129c4565b905087828151811061205f5761205f612b52565b602002602001015160076000836001600160a01b03166001600160a01b03168152602001908152602001600020600082825461209b9190612b3a565b92505081905550806001600160a01b0316336001600160a01b03167f2887b6da4c721c91735aada87ddc427d4ef240ef9b54e759ef10c0792b4093738a85815181106120e9576120e9612b52565b602002602001015160405161210091815260200190565b60405180910390a3508061211381612c13565b91505061201a565b5050505050505050505050505050565b6008818154811061213b57600080fd5b6000918252602090912001546001600160a01b0316905081565b60035442106121bd5760405162461bcd60e51b815260206004820152602e60248201527f43616e2774206465706f736974206d6f726520746f6b656e732061667465722060448201526d656e64206f662062696464696e6760901b6064820152608401610895565b6121f26001600160a01b037f0000000000000000000000000000000000000000000000000000000000000000163330846126d9565b80600160008282546122049190612b3a565b909155505060405181815233907f2da466a7b24304f47e87fa2e1e5a81b9831ce54fec19055ce277ca2f39ba42c490602001610af4565b6000546001600160a01b0316331461225257600080fd5b61225b81612744565b50565b6000546001600160a01b0316331461227557600080fd5b61227d6113c7565b156122d45760405162461bcd60e51b815260206004820152602160248201527f436c61696d696e672068617320616c7265616479206265656e20656e61626c656044820152601960fa1b6064820152608401610895565b6122dc612653565b565b60006122ea8284612ac0565b9392505050565b6008546000908190612324907f000000000000000000000000000000000000000000000000000000000000000090612b1b565b90506005546000141561233e576110b084600154836125de565b6000807f000000000000000000000000000000000000000000000000000000000000000061236c8688612b3a565b11612379578591506123eb565b7f000000000000000000000000000000000000000000000000000000000000000085106123a75750846123eb565b7f00000000000000000000000000000000000000000000000000000000000000006123d28688612b3a565b6123dc9190612ac0565b90506123e88187612ac0565b91505b60085460009061241c907f000000000000000000000000000000000000000000000000000000000000000090612b1b565b905060008315612434576124318483876125de565b90505b82156111a85760008260015461244a9190612ac0565b905061245984826005546125de565b6124639083612b3a565b9998505050505050505050565b60006122ea8284612b3a565b804710156124cc5760405162461bcd60e51b815260206004820152601d60248201527f416464726573733a20696e73756666696369656e742062616c616e63650000006044820152606401610895565b6000826001600160a01b03168260405160006040518083038185875af1925050503d8060008114612519576040519150601f19603f3d011682016040523d82523d6000602084013e61251e565b606091505b50509050806125955760405162461bcd60e51b815260206004820152603a60248201527f416464726573733a20756e61626c6520746f2073656e642076616c75652c207260448201527f6563697069656e74206d617920686176652072657665727465640000000000006064820152608401610895565b505050565b60006117b76125aa836064612618565b6117877f00000000000000000000000000000000000000000000000000000000000000006125d88888612618565b90612618565b60006117b761260d837f0000000000000000000000000000000000000000000000000000000000000000612618565b611f4760646125d888885b60006122ea8284612b1b565b60006122ea8284612ad7565b600081600161263f8583612470565b6126499190612ac0565b6122ea9190612ad7565b600060028190556003556000196004556126ac6126786000546001600160a01b031690565b6001546001600160a01b037f00000000000000000000000000000000000000000000000000000000000000001691906127b2565b60405133907f28b4c24cb1012c094cd2f59f98e89d791973295f8fda6eaa118022d6d318960a90600090a2565b6040516001600160a01b0380851660248301528316604482015260648101829052611b679085906323b872dd60e01b906084015b60408051601f198184030181529190526020810180516001600160e01b03166001600160e01b0319909316929092179091526127e2565b6001600160a01b03811661275757600080fd5b600080546040516001600160a01b03808516939216917f8be0079c531659141344cd1fd0a4f28419497f9722a3daafe3b4186f6b6457e091a3600080546001600160a01b0319166001600160a01b0392909216919091179055565b6040516001600160a01b03831660248201526044810182905261259590849063a9059cbb60e01b9060640161270d565b6000612837826040518060400160405280602081526020017f5361666545524332303a206c6f772d6c6576656c2063616c6c206661696c6564815250856001600160a01b03166128b49092919063ffffffff16565b80519091501561259557808060200190518101906128559190612af9565b6125955760405162461bcd60e51b815260206004820152602a60248201527f5361666545524332303a204552433230206f7065726174696f6e20646964206e6044820152691bdd081cdd58d8d9595960b21b6064820152608401610895565b60606117b7848460008585843b61290d5760405162461bcd60e51b815260206004820152601d60248201527f416464726573733a2063616c6c20746f206e6f6e2d636f6e74726163740000006044820152606401610895565b600080866001600160a01b031685876040516129299190612c70565b60006040518083038185875af1925050503d8060008114612966576040519150601f19603f3d011682016040523d82523d6000602084013e61296b565b606091505b50915091506111a8828286606083156129855750816122ea565b8251156129955782518084602001fd5b8160405162461bcd60e51b81526004016108959190612c8c565b6001600160a01b038116811461225b57600080fd5b6000602082840312156129d657600080fd5b81356122ea816129af565b6000602082840312156129f357600080fd5b5035919050565b60008060408385031215612a0d57600080fd5b50508035926020909101359150565b60008060208385031215612a2f57600080fd5b823567ffffffffffffffff80821115612a4757600080fd5b818501915085601f830112612a5b57600080fd5b813581811115612a6a57600080fd5b8660208260051b8501011115612a7f57600080fd5b60209290920196919550909350505050565b600060208284031215612aa357600080fd5b5051919050565b634e487b7160e01b600052601160045260246000fd5b600082821015612ad257612ad2612aaa565b500390565b600082612af457634e487b7160e01b600052601260045260246000fd5b500490565b600060208284031215612b0b57600080fd5b815180151581146122ea57600080fd5b6000816000190483118215151615612b3557612b35612aaa565b500290565b60008219821115612b4d57612b4d612aaa565b500190565b634e487b7160e01b600052603260045260246000fd5b634e487b7160e01b600052603160045260246000fd5b60208082526034908201527f4f7065726174696f6e20697320616c6c6f776564207768656e2063616e63656c6040820152733630ba34b7b710383430b9b29034b99037bb32b960611b606082015260800190565b60208082526021908201527f42696464657273206861766520616c7265616479206265656e20636865636b656040820152601960fa1b606082015260800190565b6000600019821415612c2757612c27612aaa565b5060010190565b634e487b7160e01b600052604160045260246000fd5b60005b83811015612c5f578181015183820152602001612c47565b83811115611b675750506000910152565b60008251612c82818460208701612c44565b9190910192915050565b6020815260008251806020840152612cab816040850160208701612c44565b601f01601f1916919091016040019291505056fea2646970667358221220c7a3b4e140f1161b52ad5af8283035212e37cb53be2a4bff70afd23954bc6d5a64736f6c634300080a0033",
  "bytecodeSha1": "4cf52cdcde22d76156dc68e47fa2c85ce2ea70d5",
  "compiler": {
    "evm_version": "istanbul",
    "optimizer": {
      "enabled": true,
      "runs": 200
    },
    "version": "0.8.10+commit.fc410830"
  },
  "contractName": "WorkLock",
  "language": "Solidity",
  "natspec": {
    "kind": "dev",
    "methods": {
      "bid()": {
        "notice": "Bid for tokens by transferring ETH"
      },
      "cancelBid()": {
        "notice": "Cancel bid and refund deposited ETH"
      },
      "claim()": {
        "notice": "Claimed tokens will be deposited and locked as stake in the StakingEscrow contract."
      },
      "constructor": {
        "params": {
          "_boostingRefund": "Coefficient to boost refund ETH",
          "_endBidDate": "Timestamp when bidding will end",
          "_endCancellationDate": "Timestamp when cancellation will ends",
          "_escrow": "Escrow contract",
          "_minAllowedBid": "Minimum allowed ETH amount for bidding",
          "_stakingPeriods": "Amount of periods during which tokens will be locked after claiming",
          "_startBidDate": "Timestamp when bidding starts",
          "_token": "Token contract"
        }
      },
      "ethToTokens(uint256)": {
        "details": "This value will be fixed only after end of bidding",
        "notice": "Calculate amount of tokens that will be get for specified amount of ETH"
      },
      "ethToWork(uint256)": {
        "details": "This value will be fixed only after end of bidding",
        "notice": "Calculate amount of work that need to be done to refund specified amount of ETH"
      },
      "forceRefund(address[])": {
        "notice": "Make force refund to bidders who can get tokens more than maximum allowed",
        "params": {
          "_biddersForRefund": "Sorted list of unique bidders. Only bidders who must receive a refund"
        }
      },
      "getAvailableRefund(address)": {
        "notice": "Get available refund for bidder"
      },
      "getBiddersLength()": {
        "notice": "Get length of bidders array"
      },
      "getRemainingWork(address)": {
        "notice": "Get remaining work to full refund"
      },
      "isClaimingAvailable()": {
        "notice": "Checks if claiming available"
      },
      "isOwner()": {
        "returns": {
          "_0": "true if `msg.sender` is the owner of the contract."
        }
      },
      "owner()": {
        "returns": {
          "_0": "the address of the owner."
        }
      },
      "refund()": {
        "notice": "Refund ETH for the completed work"
      },
      "renounceOwnership()": {
        "details": "Allows the current owner to relinquish control of the contract.",
        "notice": "Renouncing to ownership will leave the contract without an owner. It will not be possible to call the functions with the `onlyOwner` modifier anymore."
      },
      "shutdown()": {
        "notice": "Cancels distribution, makes possible to retrieve all bids and owner gets all tokens"
      },
      "tokenDeposit(uint256)": {
        "notice": "Deposit tokens to contract",
        "params": {
          "_value": "Amount of tokens to transfer"
        }
      },
      "transferOwnership(address)": {
        "details": "Allows the current owner to transfer control of the contract to a newOwner.",
        "params": {
          "newOwner": "The address to transfer ownership to."
        }
      },
      "verifyBiddingCorrectness(uint256)": {
        "details": "Method stops working when the remaining gas is less than `_gasToSaveState` and saves the state in `nextBidderToCheck`. If all bidders have been checked then `nextBidderToCheck` will be equal to the length of the bidders array",
        "notice": "Check that the claimed tokens are within `maxAllowableLockedTokens` for all participants, starting from the last point `nextBidderToCheck`"
      },
      "withdrawCompensation()": {
        "notice": "Withdraw compensation after force refund"
      },
      "workToETH(uint256,uint256)": {
        "details": "This value will be fixed only after end of bidding",
        "notice": "Calculate amount of ETH that will be refund for completing specified amount of work"
      }
    },
    "notice": "The WorkLock distribution contract",
    "version": 1
  },
  "opcodes": "PUSH1 0x80 PUSH1 0x40 MSTORE PUSH1 0x4 CALLDATASIZE LT PUSH2 0x21A JUMPI PUSH1 0x0 CALLDATALOAD PUSH1 0xE0 SHR DUP1 PUSH4 0x87A15DC9 GT PUSH2 0x123 JUMPI DUP1 PUSH4 0xB15CF964 GT PUSH2 0xAB JUMPI DUP1 PUSH4 0xE1FE7D23 GT PUSH2 0x6F JUMPI DUP1 PUSH4 0xE1FE7D23 EQ PUSH2 0x68C JUMPI DUP1 PUSH4 0xE2FDCC17 EQ PUSH2 0x6AC JUMPI DUP1 PUSH4 0xF2FDE38B EQ PUSH2 0x6E0 JUMPI DUP1 PUSH4 0xFC0C546A EQ PUSH2 0x700 JUMPI DUP1 PUSH4 0xFC0E74D1 EQ PUSH2 0x734 JUMPI PUSH1 0x0 DUP1 REVERT JUMPDEST DUP1 PUSH4 0xB15CF964 EQ PUSH2 0x5E2 JUMPI DUP1 PUSH4 0xBC859F44 EQ PUSH2 0x5F8 JUMPI DUP1 PUSH4 0xBE7FF580 EQ PUSH2 0x618 JUMPI DUP1 PUSH4 0xCBCE49ED EQ PUSH2 0x64C JUMPI DUP1 PUSH4 0xCFF29DFD EQ PUSH2 0x66C JUMPI PUSH1 0x0 DUP1 REVERT JUMPDEST DUP1 PUSH4 0x8DA5CB5B GT PUSH2 0xF2 JUMPI DUP1 PUSH4 0x8DA5CB5B EQ PUSH2 0x545 JUMPI DUP1 PUSH4 0x8F32D59B EQ PUSH2 0x577 JUMPI DUP1 PUSH4 0x9435C887 EQ PUSH2 0x597 JUMPI DUP1 PUSH4 0x9B51AC85 EQ PUSH2 0x5AC JUMPI DUP1 PUSH4 0xA4C89322 EQ PUSH2 0x5C2 JUMPI PUSH1 0x0 DUP1 REVERT JUMPDEST DUP1 PUSH4 0x87A15DC9 EQ PUSH2 0x4C1 JUMPI DUP1 PUSH4 0x88657C7A EQ PUSH2 0x4D6 JUMPI DUP1 PUSH4 0x897DB45C EQ PUSH2 0x4FB JUMPI DUP1 PUSH4 0x8CAB6C4F EQ PUSH2 0x511 JUMPI PUSH1 0x0 DUP1 REVERT JUMPDEST DUP1 PUSH4 0x5BF997F5 GT PUSH2 0x1A6 JUMPI DUP1 PUSH4 0x715018A6 GT PUSH2 0x175 JUMPI DUP1 PUSH4 0x715018A6 EQ PUSH2 0x438 JUMPI DUP1 PUSH4 0x72F96040 EQ PUSH2 0x44D JUMPI DUP1 PUSH4 0x7824407F EQ PUSH2 0x46D JUMPI DUP1 PUSH4 0x7F4FAD69 EQ PUSH2 0x483 JUMPI DUP1 PUSH4 0x87865033 EQ PUSH2 0x499 JUMPI PUSH1 0x0 DUP1 REVERT JUMPDEST DUP1 PUSH4 0x5BF997F5 EQ PUSH2 0x39A JUMPI DUP1 PUSH4 0x617E677E EQ PUSH2 0x3CE JUMPI DUP1 PUSH4 0x66ADE78E EQ PUSH2 0x3E4 JUMPI DUP1 PUSH4 0x6FB653A2 EQ PUSH2 0x404 JUMPI PUSH1 0x0 DUP1 REVERT JUMPDEST DUP1 PUSH4 0x1F45002C GT PUSH2 0x1ED JUMPI DUP1 PUSH4 0x1F45002C EQ PUSH2 0x291 JUMPI DUP1 PUSH4 0x4E71D92D EQ PUSH2 0x30F JUMPI DUP1 PUSH4 0x4F1910A1 EQ PUSH2 0x324 JUMPI DUP1 PUSH4 0x5707BEE5 EQ PUSH2 0x358 JUMPI DUP1 PUSH4 0x590E1AE3 EQ PUSH2 0x385 JUMPI PUSH1 0x0 DUP1 REVERT JUMPDEST DUP1 PUSH4 0x594851C EQ PUSH2 0x21F JUMPI DUP1 PUSH4 0x124A1F4F EQ PUSH2 0x252 JUMPI DUP1 PUSH4 0x1998AEEF EQ PUSH2 0x272 JUMPI DUP1 PUSH4 0x1BB89762 EQ PUSH2 0x27C JUMPI JUMPDEST PUSH1 0x0 DUP1 REVERT JUMPDEST CALLVALUE DUP1 ISZERO PUSH2 0x22B JUMPI PUSH1 0x0 DUP1 REVERT JUMPDEST POP PUSH2 0x23F PUSH2 0x23A CALLDATASIZE PUSH1 0x4 PUSH2 0x29C4 JUMP JUMPDEST PUSH2 0x749 JUMP JUMPDEST PUSH1 0x40 MLOAD SWAP1 DUP2 MSTORE PUSH1 0x20 ADD JUMPDEST PUSH1 0x40 MLOAD DUP1 SWAP2 SUB SWAP1 RETURN JUMPDEST CALLVALUE DUP1 ISZERO PUSH2 0x25E JUMPI PUSH1 0x0 DUP1 REVERT JUMPDEST POP PUSH2 0x23F PUSH2 0x26D CALLDATASIZE PUSH1 0x4 PUSH2 0x29E1 JUMP JUMPDEST PUSH2 0x834 JUMP JUMPDEST PUSH2 0x27A PUSH2 0x847 JUMP JUMPDEST STOP JUMPDEST CALLVALUE DUP1 ISZERO PUSH2 0x288 JUMPI PUSH1 0x0 DUP1 REVERT JUMPDEST POP PUSH1 0x8 SLOAD PUSH2 0x23F JUMP JUMPDEST CALLVALUE DUP1 ISZERO PUSH2 0x29D JUMPI PUSH1 0x0 DUP1 REVERT JUMPDEST POP PUSH2 0x2E0 PUSH2 0x2AC CALLDATASIZE PUSH1 0x4 PUSH2 0x29C4 JUMP JUMPDEST PUSH1 0x6 PUSH1 0x20 MSTORE PUSH1 0x0 SWAP1 DUP2 MSTORE PUSH1 0x40 SWAP1 KECCAK256 DUP1 SLOAD PUSH1 0x1 DUP3 ADD SLOAD PUSH1 0x2 SWAP1 SWAP3 ADD SLOAD SWAP1 SWAP2 SWAP1 PUSH1 0xFF DUP2 AND SWAP1 PUSH2 0x100 SWAP1 DIV PUSH1 0x1 PUSH1 0x1 PUSH1 0x80 SHL SUB AND DUP5 JUMP JUMPDEST PUSH1 0x40 DUP1 MLOAD SWAP5 DUP6 MSTORE PUSH1 0x20 DUP6 ADD SWAP4 SWAP1 SWAP4 MSTORE SWAP1 ISZERO ISZERO SWAP2 DUP4 ADD SWAP2 SWAP1 SWAP2 MSTORE PUSH1 0x1 PUSH1 0x1 PUSH1 0x80 SHL SUB AND PUSH1 0x60 DUP3 ADD MSTORE PUSH1 0x80 ADD PUSH2 0x249 JUMP JUMPDEST CALLVALUE DUP1 ISZERO PUSH2 0x31B JUMPI PUSH1 0x0 DUP1 REVERT JUMPDEST POP PUSH2 0x23F PUSH2 0xAFF JUMP JUMPDEST CALLVALUE DUP1 ISZERO PUSH2 0x330 JUMPI PUSH1 0x0 DUP1 REVERT JUMPDEST POP PUSH2 0x23F PUSH32 0x0 DUP2 JUMP JUMPDEST CALLVALUE DUP1 ISZERO PUSH2 0x364 JUMPI PUSH1 0x0 DUP1 REVERT JUMPDEST POP PUSH2 0x23F PUSH2 0x373 CALLDATASIZE PUSH1 0x4 PUSH2 0x29C4 JUMP JUMPDEST PUSH1 0x7 PUSH1 0x20 MSTORE PUSH1 0x0 SWAP1 DUP2 MSTORE PUSH1 0x40 SWAP1 KECCAK256 SLOAD DUP2 JUMP JUMPDEST CALLVALUE DUP1 ISZERO PUSH2 0x391 JUMPI PUSH1 0x0 DUP1 REVERT JUMPDEST POP PUSH2 0x23F PUSH2 0xE4F JUMP JUMPDEST CALLVALUE DUP1 ISZERO PUSH2 0x3A6 JUMPI PUSH1 0x0 DUP1 REVERT JUMPDEST POP PUSH2 0x23F PUSH32 0x0 DUP2 JUMP JUMPDEST CALLVALUE DUP1 ISZERO PUSH2 0x3DA JUMPI PUSH1 0x0 DUP1 REVERT JUMPDEST POP PUSH2 0x23F PUSH1 0x4 SLOAD DUP2 JUMP JUMPDEST CALLVALUE DUP1 ISZERO PUSH2 0x3F0 JUMPI PUSH1 0x0 DUP1 REVERT JUMPDEST POP PUSH2 0x23F PUSH2 0x3FF CALLDATASIZE PUSH1 0x4 PUSH2 0x29FA JUMP JUMPDEST PUSH2 0x1063 JUMP JUMPDEST CALLVALUE DUP1 ISZERO PUSH2 0x410 JUMPI PUSH1 0x0 DUP1 REVERT JUMPDEST POP PUSH2 0x23F PUSH32 0x0 DUP2 JUMP JUMPDEST CALLVALUE DUP1 ISZERO PUSH2 0x444 JUMPI PUSH1 0x0 DUP1 REVERT JUMPDEST POP PUSH2 0x27A PUSH2 0x11B3 JUMP JUMPDEST CALLVALUE DUP1 ISZERO PUSH2 0x459 JUMPI PUSH1 0x0 DUP1 REVERT JUMPDEST POP PUSH2 0x23F PUSH2 0x468 CALLDATASIZE PUSH1 0x4 PUSH2 0x29C4 JUMP JUMPDEST PUSH2 0x1214 JUMP JUMPDEST CALLVALUE DUP1 ISZERO PUSH2 0x479 JUMPI PUSH1 0x0 DUP1 REVERT JUMPDEST POP PUSH2 0x23F PUSH1 0x1 SLOAD DUP2 JUMP JUMPDEST CALLVALUE DUP1 ISZERO PUSH2 0x48F JUMPI PUSH1 0x0 DUP1 REVERT JUMPDEST POP PUSH2 0x23F PUSH1 0x2 SLOAD DUP2 JUMP JUMPDEST CALLVALUE DUP1 ISZERO PUSH2 0x4A5 JUMPI PUSH1 0x0 DUP1 REVERT JUMPDEST POP PUSH2 0x4AE PUSH1 0x64 DUP2 JUMP JUMPDEST PUSH1 0x40 MLOAD PUSH2 0xFFFF SWAP1 SWAP2 AND DUP2 MSTORE PUSH1 0x20 ADD PUSH2 0x249 JUMP JUMPDEST CALLVALUE DUP1 ISZERO PUSH2 0x4CD JUMPI PUSH1 0x0 DUP1 REVERT JUMPDEST POP PUSH2 0x27A PUSH2 0x131E JUMP JUMPDEST CALLVALUE DUP1 ISZERO PUSH2 0x4E2 JUMPI PUSH1 0x0 DUP1 REVERT JUMPDEST POP PUSH2 0x4EB PUSH2 0x13C7 JUMP JUMPDEST PUSH1 0x40 MLOAD SWAP1 ISZERO ISZERO DUP2 MSTORE PUSH1 0x20 ADD PUSH2 0x249 JUMP JUMPDEST CALLVALUE DUP1 ISZERO PUSH2 0x507 JUMPI PUSH1 0x0 DUP1 REVERT JUMPDEST POP PUSH2 0x23F PUSH1 0x3 SLOAD DUP2 JUMP JUMPDEST CALLVALUE DUP1 ISZERO PUSH2 0x51D JUMPI PUSH1 0x0 DUP1 REVERT JUMPDEST POP PUSH2 0x23F PUSH32 0x0 DUP2 JUMP JUMPDEST CALLVALUE DUP1 ISZERO PUSH2 0x551 JUMPI PUSH1 0x0 DUP1 REVERT JUMPDEST POP PUSH1 0x0 SLOAD PUSH1 0x1 PUSH1 0x1 PUSH1 0xA0 SHL SUB AND JUMPDEST PUSH1 0x40 MLOAD PUSH1 0x1 PUSH1 0x1 PUSH1 0xA0 SHL SUB SWAP1 SWAP2 AND DUP2 MSTORE PUSH1 0x20 ADD PUSH2 0x249 JUMP JUMPDEST CALLVALUE DUP1 ISZERO PUSH2 0x583 JUMPI PUSH1 0x0 DUP1 REVERT JUMPDEST POP PUSH1 0x0 SLOAD PUSH1 0x1 PUSH1 0x1 PUSH1 0xA0 SHL SUB AND CALLER EQ PUSH2 0x4EB JUMP JUMPDEST CALLVALUE DUP1 ISZERO PUSH2 0x5A3 JUMPI PUSH1 0x0 DUP1 REVERT JUMPDEST POP PUSH2 0x27A PUSH2 0x13E3 JUMP JUMPDEST CALLVALUE DUP1 ISZERO PUSH2 0x5B8 JUMPI PUSH1 0x0 DUP1 REVERT JUMPDEST POP PUSH2 0x23F PUSH1 0x5 SLOAD DUP2 JUMP JUMPDEST CALLVALUE DUP1 ISZERO PUSH2 0x5CE JUMPI PUSH1 0x0 DUP1 REVERT JUMPDEST POP PUSH2 0x23F PUSH2 0x5DD CALLDATASIZE PUSH1 0x4 PUSH2 0x29E1 JUMP JUMPDEST PUSH2 0x16BD JUMP JUMPDEST CALLVALUE DUP1 ISZERO PUSH2 0x5EE JUMPI PUSH1 0x0 DUP1 REVERT JUMPDEST POP PUSH2 0x23F PUSH1 0x9 SLOAD DUP2 JUMP JUMPDEST CALLVALUE DUP1 ISZERO PUSH2 0x604 JUMPI PUSH1 0x0 DUP1 REVERT JUMPDEST POP PUSH2 0x23F PUSH2 0x613 CALLDATASIZE PUSH1 0x4 PUSH2 0x29E1 JUMP JUMPDEST PUSH2 0x17BF JUMP JUMPDEST CALLVALUE DUP1 ISZERO PUSH2 0x624 JUMPI PUSH1 0x0 DUP1 REVERT JUMPDEST POP PUSH2 0x4AE PUSH32 0x0 DUP2 JUMP JUMPDEST CALLVALUE DUP1 ISZERO PUSH2 0x658 JUMPI PUSH1 0x0 DUP1 REVERT JUMPDEST POP PUSH2 0x27A PUSH2 0x667 CALLDATASIZE PUSH1 0x4 PUSH2 0x2A1C JUMP JUMPDEST PUSH2 0x1A7D JUMP JUMPDEST CALLVALUE DUP1 ISZERO PUSH2 0x678 JUMPI PUSH1 0x0 DUP1 REVERT JUMPDEST POP PUSH2 0x55F PUSH2 0x687 CALLDATASIZE PUSH1 0x4 PUSH2 0x29E1 JUMP JUMPDEST PUSH2 0x212B JUMP JUMPDEST CALLVALUE DUP1 ISZERO PUSH2 0x698 JUMPI PUSH1 0x0 DUP1 REVERT JUMPDEST POP PUSH2 0x27A PUSH2 0x6A7 CALLDATASIZE PUSH1 0x4 PUSH2 0x29E1 JUMP JUMPDEST PUSH2 0x2155 JUMP JUMPDEST CALLVALUE DUP1 ISZERO PUSH2 0x6B8 JUMPI PUSH1 0x0 DUP1 REVERT JUMPDEST POP PUSH2 0x55F PUSH32 0x0 DUP2 JUMP JUMPDEST CALLVALUE DUP1 ISZERO PUSH2 0x6EC JUMPI PUSH1 0x0 DUP1 REVERT JUMPDEST POP PUSH2 0x27A PUSH2 0x6FB CALLDATASIZE PUSH1 0x4 PUSH2 0x29C4 JUMP JUMPDEST PUSH2 0x223B JUMP JUMPDEST CALLVALUE DUP1 ISZERO PUSH2 0x70C JUMPI PUSH1 0x0 DUP1 REVERT JUMPDEST POP PUSH2 0x55F PUSH32 0x0 DUP2 JUMP JUMPDEST CALLVALUE DUP1 ISZERO PUSH2 0x740 JUMPI PUSH1 0x0 DUP1 REVERT JUMPDEST POP PUSH2 0x27A PUSH2 0x225E JUMP JUMPDEST PUSH1 0x1 PUSH1 0x1 PUSH1 0xA0 SHL SUB DUP1 DUP3 AND PUSH1 0x0 DUP2 DUP2 MSTORE PUSH1 0x6 PUSH1 0x20 MSTORE PUSH1 0x40 DUP1 DUP3 KECCAK256 PUSH1 0x1 DUP2 ADD SLOAD SWAP2 MLOAD PUSH4 0xD094ADBF PUSH1 0xE0 SHL DUP2 MSTORE PUSH1 0x4 DUP2 ADD SWAP5 SWAP1 SWAP5 MSTORE SWAP2 SWAP4 SWAP2 SWAP3 DUP5 SWAP3 PUSH2 0x7FC SWAP3 SWAP2 PUSH32 0x0 SWAP1 SWAP2 AND SWAP1 PUSH4 0xD094ADBF SWAP1 PUSH1 0x24 ADD PUSH1 0x20 PUSH1 0x40 MLOAD DUP1 DUP4 SUB DUP2 DUP7 GAS STATICCALL ISZERO DUP1 ISZERO PUSH2 0x7D2 JUMPI RETURNDATASIZE PUSH1 0x0 DUP1 RETURNDATACOPY RETURNDATASIZE PUSH1 0x0 REVERT JUMPDEST POP POP POP POP PUSH1 0x40 MLOAD RETURNDATASIZE PUSH1 0x1F NOT PUSH1 0x1F DUP3 ADD AND DUP3 ADD DUP1 PUSH1 0x40 MSTORE POP DUP2 ADD SWAP1 PUSH2 0x7F6 SWAP2 SWAP1 PUSH2 0x2A91 JUMP JUMPDEST SWAP1 PUSH2 0x22DE JUMP JUMPDEST SWAP1 POP PUSH1 0x0 PUSH2 0x80D DUP4 PUSH1 0x0 ADD SLOAD PUSH2 0x834 JUMP JUMPDEST SWAP1 POP DUP2 DUP2 GT PUSH2 0x821 JUMPI POP PUSH1 0x0 SWAP5 SWAP4 POP POP POP POP JUMP JUMPDEST PUSH2 0x82B DUP3 DUP3 PUSH2 0x2AC0 JUMP JUMPDEST SWAP6 SWAP5 POP POP POP POP POP JUMP JUMPDEST PUSH1 0x0 PUSH2 0x841 DUP3 PUSH1 0x0 PUSH2 0x22F1 JUMP JUMPDEST SWAP3 SWAP2 POP POP JUMP JUMPDEST PUSH1 0x2 SLOAD TIMESTAMP LT ISZERO PUSH2 0x89E JUMPI PUSH1 0x40 MLOAD PUSH3 0x461BCD PUSH1 0xE5 SHL DUP2 MSTORE PUSH1 0x20 PUSH1 0x4 DUP3 ADD MSTORE PUSH1 0x17 PUSH1 0x24 DUP3 ADD MSTORE PUSH32 0x42696464696E67206973206E6F74206F70656E20796574000000000000000000 PUSH1 0x44 DUP3 ADD MSTORE PUSH1 0x64 ADD JUMPDEST PUSH1 0x40 MLOAD DUP1 SWAP2 SUB SWAP1 REVERT JUMPDEST PUSH1 0x3 SLOAD TIMESTAMP LT PUSH2 0x8EF JUMPI PUSH1 0x40 MLOAD PUSH3 0x461BCD PUSH1 0xE5 SHL DUP2 MSTORE PUSH1 0x20 PUSH1 0x4 DUP3 ADD MSTORE PUSH1 0x1B PUSH1 0x24 DUP3 ADD MSTORE PUSH32 0x42696464696E6720697320616C72656164792066696E69736865640000000000 PUSH1 0x44 DUP3 ADD MSTORE PUSH1 0x64 ADD PUSH2 0x895 JUMP JUMPDEST CALLER PUSH1 0x0 SWAP1 DUP2 MSTORE PUSH1 0x6 PUSH1 0x20 MSTORE PUSH1 0x40 SWAP1 KECCAK256 DUP1 SLOAD PUSH2 0xAA7 JUMPI PUSH32 0x0 CALLVALUE LT ISZERO PUSH2 0x974 JUMPI PUSH1 0x40 MLOAD PUSH3 0x461BCD PUSH1 0xE5 SHL DUP2 MSTORE PUSH1 0x20 PUSH1 0x4 DUP3 ADD MSTORE PUSH1 0x1C PUSH1 0x24 DUP3 ADD MSTORE PUSH32 0x426964206D757374206265206174206C65617374206D696E696D756D00000000 PUSH1 0x44 DUP3 ADD MSTORE PUSH1 0x64 ADD PUSH2 0x895 JUMP JUMPDEST PUSH32 0x0 PUSH1 0x1 SLOAD PUSH2 0x9A2 SWAP2 SWAP1 PUSH2 0x2AD7 JUMP JUMPDEST PUSH1 0x8 SLOAD LT PUSH2 0x9FD JUMPI PUSH1 0x40 MLOAD PUSH3 0x461BCD PUSH1 0xE5 SHL DUP2 MSTORE PUSH1 0x20 PUSH1 0x4 DUP3 ADD MSTORE PUSH1 0x22 PUSH1 0x24 DUP3 ADD MSTORE PUSH32 0x4E6F7420656E6F75676820746F6B656E7320666F72206D6F7265206269646465 PUSH1 0x44 DUP3 ADD MSTORE PUSH2 0x7273 PUSH1 0xF0 SHL PUSH1 0x64 DUP3 ADD MSTORE PUSH1 0x84 ADD PUSH2 0x895 JUMP JUMPDEST PUSH1 0x8 DUP1 SLOAD PUSH1 0x2 DUP4 ADD DUP1 SLOAD PUSH1 0x1 PUSH1 0x1 PUSH1 0x80 SHL SUB SWAP1 SWAP3 AND PUSH2 0x100 MUL PUSH2 0x100 PUSH1 0x1 PUSH1 0x88 SHL SUB NOT SWAP1 SWAP3 AND SWAP2 SWAP1 SWAP2 OR SWAP1 SSTORE DUP1 SLOAD PUSH1 0x1 DUP2 ADD DUP3 SSTORE PUSH1 0x0 SWAP2 SWAP1 SWAP2 MSTORE PUSH32 0xF3F7A9FE364FAAB93B216DA50A3214154F22A0A2B415B23A84C8169E8B636EE3 ADD DUP1 SLOAD PUSH1 0x1 PUSH1 0x1 PUSH1 0xA0 SHL SUB NOT AND CALLER OR SWAP1 SSTORE PUSH2 0xA9F PUSH2 0xA96 PUSH32 0x0 CALLVALUE PUSH2 0x2AC0 JUMP JUMPDEST PUSH1 0x5 SLOAD SWAP1 PUSH2 0x2470 JUMP JUMPDEST PUSH1 0x5 SSTORE PUSH2 0xAB8 JUMP JUMPDEST PUSH1 0x5 SLOAD PUSH2 0xAB4 SWAP1 CALLVALUE PUSH2 0x2470 JUMP JUMPDEST PUSH1 0x5 SSTORE JUMPDEST DUP1 SLOAD PUSH2 0xAC4 SWAP1 CALLVALUE PUSH2 0x2470 JUMP JUMPDEST DUP2 SSTORE PUSH1 0x40 MLOAD CALLVALUE DUP2 MSTORE CALLER SWAP1 PUSH32 0xE684A55F31B79ECA403DF938249029212A5925EC6BE8012E099B45BC1019E5D2 SWAP1 PUSH1 0x20 ADD JUMPDEST PUSH1 0x40 MLOAD DUP1 SWAP2 SUB SWAP1 LOG2 POP JUMP JUMPDEST PUSH1 0x0 PUSH2 0xB09 PUSH2 0x13C7 JUMP JUMPDEST PUSH2 0xB5F JUMPI PUSH1 0x40 MLOAD PUSH3 0x461BCD PUSH1 0xE5 SHL DUP2 MSTORE PUSH1 0x20 PUSH1 0x4 DUP3 ADD MSTORE PUSH1 0x21 PUSH1 0x24 DUP3 ADD MSTORE PUSH32 0x436C61696D696E6720686173206E6F74206265656E20656E61626C6564207965 PUSH1 0x44 DUP3 ADD MSTORE PUSH1 0x1D PUSH1 0xFA SHL PUSH1 0x64 DUP3 ADD MSTORE PUSH1 0x84 ADD PUSH2 0x895 JUMP JUMPDEST CALLER PUSH1 0x0 SWAP1 DUP2 MSTORE PUSH1 0x6 PUSH1 0x20 MSTORE PUSH1 0x40 SWAP1 KECCAK256 PUSH1 0x2 DUP2 ADD SLOAD PUSH1 0xFF AND ISZERO PUSH2 0xBC3 JUMPI PUSH1 0x40 MLOAD PUSH3 0x461BCD PUSH1 0xE5 SHL DUP2 MSTORE PUSH1 0x20 PUSH1 0x4 DUP3 ADD MSTORE PUSH1 0x1A PUSH1 0x24 DUP3 ADD MSTORE PUSH32 0x546F6B656E732061726520616C726561647920636C61696D6564000000000000 PUSH1 0x44 DUP3 ADD MSTORE PUSH1 0x64 ADD PUSH2 0x895 JUMP JUMPDEST DUP1 SLOAD PUSH2 0xBCE SWAP1 PUSH2 0x16BD JUMP JUMPDEST SWAP2 POP PUSH1 0x0 DUP3 GT PUSH2 0xC13 JUMPI PUSH1 0x40 MLOAD PUSH3 0x461BCD PUSH1 0xE5 SHL DUP2 MSTORE PUSH1 0x20 PUSH1 0x4 DUP3 ADD MSTORE PUSH1 0x10 PUSH1 0x24 DUP3 ADD MSTORE PUSH16 0x4E6F7468696E6720746F20636C61696D PUSH1 0x80 SHL PUSH1 0x44 DUP3 ADD MSTORE PUSH1 0x64 ADD PUSH2 0x895 JUMP JUMPDEST PUSH1 0x2 DUP2 ADD DUP1 SLOAD PUSH1 0xFF NOT AND PUSH1 0x1 OR SWAP1 SSTORE PUSH1 0x40 MLOAD PUSH4 0x95EA7B3 PUSH1 0xE0 SHL DUP2 MSTORE PUSH1 0x1 PUSH1 0x1 PUSH1 0xA0 SHL SUB PUSH32 0x0 DUP2 AND PUSH1 0x4 DUP4 ADD MSTORE PUSH1 0x24 DUP3 ADD DUP5 SWAP1 MSTORE PUSH32 0x0 AND SWAP1 PUSH4 0x95EA7B3 SWAP1 PUSH1 0x44 ADD PUSH1 0x20 PUSH1 0x40 MLOAD DUP1 DUP4 SUB DUP2 PUSH1 0x0 DUP8 GAS CALL ISZERO DUP1 ISZERO PUSH2 0xCB1 JUMPI RETURNDATASIZE PUSH1 0x0 DUP1 RETURNDATACOPY RETURNDATASIZE PUSH1 0x0 REVERT JUMPDEST POP POP POP POP PUSH1 0x40 MLOAD RETURNDATASIZE PUSH1 0x1F NOT PUSH1 0x1F DUP3 ADD AND DUP3 ADD DUP1 PUSH1 0x40 MSTORE POP DUP2 ADD SWAP1 PUSH2 0xCD5 SWAP2 SWAP1 PUSH2 0x2AF9 JUMP JUMPDEST POP PUSH1 0x40 MLOAD PUSH4 0xB8F81E1 PUSH1 0xE1 SHL DUP2 MSTORE CALLER PUSH1 0x4 DUP3 ADD MSTORE PUSH1 0x24 DUP2 ADD DUP4 SWAP1 MSTORE PUSH2 0xFFFF PUSH32 0x0 AND PUSH1 0x44 DUP3 ADD MSTORE PUSH32 0x0 PUSH1 0x1 PUSH1 0x1 PUSH1 0xA0 SHL SUB AND SWAP1 PUSH4 0x171F03C2 SWAP1 PUSH1 0x64 ADD PUSH1 0x0 PUSH1 0x40 MLOAD DUP1 DUP4 SUB DUP2 PUSH1 0x0 DUP8 DUP1 EXTCODESIZE ISZERO DUP1 ISZERO PUSH2 0xD68 JUMPI PUSH1 0x0 DUP1 REVERT JUMPDEST POP GAS CALL ISZERO DUP1 ISZERO PUSH2 0xD7C JUMPI RETURNDATASIZE PUSH1 0x0 DUP1 RETURNDATACOPY RETURNDATASIZE PUSH1 0x0 REVERT JUMPDEST POP POP PUSH1 0x40 MLOAD PUSH4 0x12796B75 PUSH1 0xE2 SHL DUP2 MSTORE CALLER PUSH1 0x4 DUP3 ADD MSTORE PUSH1 0x1 PUSH1 0x24 DUP3 ADD MSTORE PUSH32 0x0 PUSH1 0x1 PUSH1 0x1 PUSH1 0xA0 SHL SUB AND SWAP3 POP PUSH4 0x49E5ADD4 SWAP2 POP PUSH1 0x44 ADD PUSH1 0x20 PUSH1 0x40 MLOAD DUP1 DUP4 SUB DUP2 PUSH1 0x0 DUP8 GAS CALL ISZERO DUP1 ISZERO PUSH2 0xDED JUMPI RETURNDATASIZE PUSH1 0x0 DUP1 RETURNDATACOPY RETURNDATASIZE PUSH1 0x0 REVERT JUMPDEST POP POP POP POP PUSH1 0x40 MLOAD RETURNDATASIZE PUSH1 0x1F NOT PUSH1 0x1F DUP3 ADD AND DUP3 ADD DUP1 PUSH1 0x40 MSTORE POP DUP2 ADD SWAP1 PUSH2 0xE11 SWAP2 SWAP1 PUSH2 0x2A91 JUMP JUMPDEST PUSH1 0x1 DUP3 ADD SSTORE PUSH1 0x40 MLOAD DUP3 DUP2 MSTORE CALLER SWAP1 PUSH32 0xD8138F8A3F377C5259CA548E70E4C2DE94F129F5A11036A15B69513CBA2B426A SWAP1 PUSH1 0x20 ADD PUSH1 0x40 MLOAD DUP1 SWAP2 SUB SWAP1 LOG2 POP SWAP1 JUMP JUMPDEST CALLER PUSH1 0x0 SWAP1 DUP2 MSTORE PUSH1 0x6 PUSH1 0x20 MSTORE PUSH1 0x40 DUP2 KECCAK256 PUSH1 0x2 DUP2 ADD SLOAD PUSH1 0xFF AND PUSH2 0xEBE JUMPI PUSH1 0x40 MLOAD PUSH3 0x461BCD PUSH1 0xE5 SHL DUP2 MSTORE PUSH1 0x20 PUSH1 0x4 DUP3 ADD MSTORE PUSH1 0x24 DUP1 DUP3 ADD MSTORE PUSH32 0x546F6B656E73206D75737420626520636C61696D6564206265666F7265207265 PUSH1 0x44 DUP3 ADD MSTORE PUSH4 0x199D5B99 PUSH1 0xE2 SHL PUSH1 0x64 DUP3 ADD MSTORE PUSH1 0x84 ADD PUSH2 0x895 JUMP JUMPDEST PUSH2 0xEC7 CALLER PUSH2 0x1214 JUMP JUMPDEST SWAP2 POP PUSH1 0x0 DUP3 GT PUSH2 0xF49 JUMPI PUSH1 0x40 MLOAD PUSH3 0x461BCD PUSH1 0xE5 SHL DUP2 MSTORE PUSH1 0x20 PUSH1 0x4 DUP3 ADD MSTORE PUSH1 0x41 PUSH1 0x24 DUP3 ADD MSTORE PUSH32 0x4E6F7468696E6720746F20726566756E643A207468657265206973206E6F2045 PUSH1 0x44 DUP3 ADD MSTORE PUSH32 0x544820746F20726566756E64206F72206E6F20636F6D706C6574656420776F72 PUSH1 0x64 DUP3 ADD MSTORE PUSH1 0x6B PUSH1 0xF8 SHL PUSH1 0x84 DUP3 ADD MSTORE PUSH1 0xA4 ADD PUSH2 0x895 JUMP JUMPDEST DUP1 SLOAD DUP3 EQ ISZERO PUSH2 0xFE5 JUMPI PUSH1 0x40 MLOAD PUSH4 0x12796B75 PUSH1 0xE2 SHL DUP2 MSTORE CALLER PUSH1 0x4 DUP3 ADD MSTORE PUSH1 0x0 PUSH1 0x24 DUP3 ADD MSTORE PUSH32 0x0 PUSH1 0x1 PUSH1 0x1 PUSH1 0xA0 SHL SUB AND SWAP1 PUSH4 0x49E5ADD4 SWAP1 PUSH1 0x44 ADD PUSH1 0x20 PUSH1 0x40 MLOAD DUP1 DUP4 SUB DUP2 PUSH1 0x0 DUP8 GAS CALL ISZERO DUP1 ISZERO PUSH2 0xFBF JUMPI RETURNDATASIZE PUSH1 0x0 DUP1 RETURNDATACOPY RETURNDATASIZE PUSH1 0x0 REVERT JUMPDEST POP POP POP POP PUSH1 0x40 MLOAD RETURNDATASIZE PUSH1 0x1F NOT PUSH1 0x1F DUP3 ADD AND DUP3 ADD DUP1 PUSH1 0x40 MSTORE POP DUP2 ADD SWAP1 PUSH2 0xFE3 SWAP2 SWAP1 PUSH2 0x2A91 JUMP JUMPDEST POP JUMPDEST DUP1 SLOAD PUSH2 0xFF1 SWAP1 DUP4 PUSH2 0x22DE JUMP JUMPDEST DUP1 DUP3 SSTORE PUSH1 0x0 SWAP1 PUSH2 0x1002 SWAP1 DUP5 SWAP1 PUSH2 0x22F1 JUMP JUMPDEST PUSH1 0x1 DUP4 ADD SLOAD SWAP1 SWAP2 POP PUSH2 0x1014 SWAP1 DUP3 PUSH2 0x2470 JUMP JUMPDEST PUSH1 0x1 DUP4 ADD SSTORE PUSH1 0x40 DUP1 MLOAD DUP5 DUP2 MSTORE PUSH1 0x20 DUP2 ADD DUP4 SWAP1 MSTORE CALLER SWAP2 PUSH32 0x73F04AF9DCC582A923EC15D3EEA990FE34ADABFFF2879E28D44572E01A54ABB6 SWAP2 ADD PUSH1 0x40 MLOAD DUP1 SWAP2 SUB SWAP1 LOG2 PUSH2 0x105E CALLER DUP5 PUSH2 0x247C JUMP JUMPDEST POP POP SWAP1 JUMP JUMPDEST PUSH1 0x8 SLOAD PUSH1 0x0 SWAP1 DUP2 SWAP1 PUSH2 0x1096 SWAP1 PUSH32 0x0 SWAP1 PUSH2 0x2B1B JUMP JUMPDEST SWAP1 POP PUSH1 0x5 SLOAD PUSH1 0x0 EQ ISZERO PUSH2 0x10B8 JUMPI PUSH2 0x10B0 DUP5 DUP3 PUSH1 0x1 SLOAD PUSH2 0x259A JUMP JUMPDEST SWAP2 POP POP PUSH2 0x841 JUMP JUMPDEST PUSH1 0x0 DUP1 PUSH1 0x0 PUSH32 0x0 PUSH1 0x8 DUP1 SLOAD SWAP1 POP PUSH2 0x10EE SWAP2 SWAP1 PUSH2 0x2B1B JUMP JUMPDEST SWAP1 POP PUSH32 0x0 DUP7 GT ISZERO PUSH2 0x1187 JUMPI PUSH2 0x1142 PUSH32 0x0 DUP8 PUSH2 0x2AC0 JUMP JUMPDEST SWAP2 POP PUSH1 0x0 DUP2 PUSH1 0x1 SLOAD PUSH2 0x1154 SWAP2 SWAP1 PUSH2 0x2AC0 JUMP JUMPDEST SWAP1 POP PUSH2 0x1163 DUP4 DUP3 PUSH1 0x5 SLOAD PUSH2 0x25DE JUMP JUMPDEST SWAP4 POP DUP4 DUP9 GT PUSH2 0x1185 JUMPI PUSH2 0x1179 DUP9 PUSH1 0x5 SLOAD DUP4 PUSH2 0x259A JUMP JUMPDEST SWAP6 POP POP POP POP POP POP PUSH2 0x841 JUMP JUMPDEST POP JUMPDEST PUSH2 0x1191 DUP4 DUP9 PUSH2 0x2AC0 JUMP JUMPDEST SWAP7 POP PUSH2 0x119E DUP8 DUP6 DUP4 PUSH2 0x259A JUMP JUMPDEST PUSH2 0x11A8 SWAP1 DUP4 PUSH2 0x2B3A JUMP JUMPDEST SWAP8 SWAP7 POP POP POP POP POP POP POP JUMP JUMPDEST PUSH1 0x0 SLOAD PUSH1 0x1 PUSH1 0x1 PUSH1 0xA0 SHL SUB AND CALLER EQ PUSH2 0x11CA JUMPI PUSH1 0x0 DUP1 REVERT JUMPDEST PUSH1 0x0 DUP1 SLOAD PUSH1 0x40 MLOAD PUSH1 0x1 PUSH1 0x1 PUSH1 0xA0 SHL SUB SWAP1 SWAP2 AND SWAP1 PUSH32 0x8BE0079C531659141344CD1FD0A4F28419497F9722A3DAAFE3B4186F6B6457E0 SWAP1 DUP4 SWAP1 LOG3 PUSH1 0x0 DUP1 SLOAD PUSH1 0x1 PUSH1 0x1 PUSH1 0xA0 SHL SUB NOT AND SWAP1 SSTORE JUMP JUMPDEST PUSH1 0x1 PUSH1 0x1 PUSH1 0xA0 SHL SUB DUP2 AND PUSH1 0x0 SWAP1 DUP2 MSTORE PUSH1 0x6 PUSH1 0x20 MSTORE PUSH1 0x40 DUP2 KECCAK256 DUP1 SLOAD PUSH2 0x123B JUMPI POP PUSH1 0x0 SWAP3 SWAP2 POP POP JUMP JUMPDEST PUSH1 0x40 MLOAD PUSH4 0xD094ADBF PUSH1 0xE0 SHL DUP2 MSTORE PUSH1 0x1 PUSH1 0x1 PUSH1 0xA0 SHL SUB DUP5 DUP2 AND PUSH1 0x4 DUP4 ADD MSTORE PUSH1 0x0 SWAP2 PUSH32 0x0 SWAP1 SWAP2 AND SWAP1 PUSH4 0xD094ADBF SWAP1 PUSH1 0x24 ADD PUSH1 0x20 PUSH1 0x40 MLOAD DUP1 DUP4 SUB DUP2 DUP7 GAS STATICCALL ISZERO DUP1 ISZERO PUSH2 0x12A6 JUMPI RETURNDATASIZE PUSH1 0x0 DUP1 RETURNDATACOPY RETURNDATASIZE PUSH1 0x0 REVERT JUMPDEST POP POP POP POP PUSH1 0x40 MLOAD RETURNDATASIZE PUSH1 0x1F NOT PUSH1 0x1F DUP3 ADD AND DUP3 ADD DUP1 PUSH1 0x40 MSTORE POP DUP2 ADD SWAP1 PUSH2 0x12CA SWAP2 SWAP1 PUSH2 0x2A91 JUMP JUMPDEST SWAP1 POP PUSH1 0x0 PUSH2 0x12E5 DUP4 PUSH1 0x1 ADD SLOAD DUP4 PUSH2 0x22DE SWAP1 SWAP2 SWAP1 PUSH4 0xFFFFFFFF AND JUMP JUMPDEST SWAP1 POP DUP1 PUSH2 0x12F7 JUMPI POP PUSH1 0x0 SWAP5 SWAP4 POP POP POP POP JUMP JUMPDEST PUSH1 0x0 PUSH2 0x1307 DUP3 DUP6 PUSH1 0x0 ADD SLOAD PUSH2 0x1063 JUMP JUMPDEST DUP5 SLOAD SWAP1 SWAP2 POP DUP2 GT ISZERO PUSH2 0x82B JUMPI POP POP SWAP1 SLOAD SWAP4 SWAP3 POP POP POP JUMP JUMPDEST CALLER PUSH1 0x0 SWAP1 DUP2 MSTORE PUSH1 0x7 PUSH1 0x20 MSTORE PUSH1 0x40 SWAP1 KECCAK256 SLOAD DUP1 PUSH2 0x137B JUMPI PUSH1 0x40 MLOAD PUSH3 0x461BCD PUSH1 0xE5 SHL DUP2 MSTORE PUSH1 0x20 PUSH1 0x4 DUP3 ADD MSTORE PUSH1 0x18 PUSH1 0x24 DUP3 ADD MSTORE PUSH32 0x5468657265206973206E6F20636F6D70656E736174696F6E0000000000000000 PUSH1 0x44 DUP3 ADD MSTORE PUSH1 0x64 ADD PUSH2 0x895 JUMP JUMPDEST CALLER PUSH1 0x0 DUP2 DUP2 MSTORE PUSH1 0x7 PUSH1 0x20 MSTORE PUSH1 0x40 DUP2 KECCAK256 SSTORE PUSH2 0x1395 SWAP1 DUP3 PUSH2 0x247C JUMP JUMPDEST PUSH1 0x40 MLOAD DUP2 DUP2 MSTORE CALLER SWAP1 PUSH32 0x1480B15E3EAB83A9B923578FFE330E3DCE94536007EC9C0B48A5DFBDE8C49181 SWAP1 PUSH1 0x20 ADD PUSH2 0xAF4 JUMP JUMPDEST PUSH1 0x0 PUSH1 0x4 SLOAD TIMESTAMP LT ISZERO DUP1 ISZERO PUSH2 0x13DE JUMPI POP PUSH1 0x8 SLOAD PUSH1 0x9 SLOAD EQ JUMPDEST SWAP1 POP SWAP1 JUMP JUMPDEST PUSH1 0x4 SLOAD TIMESTAMP LT PUSH2 0x1451 JUMPI PUSH1 0x40 MLOAD PUSH3 0x461BCD PUSH1 0xE5 SHL DUP2 MSTORE PUSH1 0x20 PUSH1 0x4 DUP3 ADD MSTORE PUSH1 0x34 PUSH1 0x24 DUP3 ADD MSTORE PUSH32 0x43616E63656C6C6174696F6E20616C6C6F776564206F6E6C7920647572696E67 PUSH1 0x44 DUP3 ADD MSTORE PUSH20 0x2063616E63656C6C6174696F6E2077696E646F77 PUSH1 0x60 SHL PUSH1 0x64 DUP3 ADD MSTORE PUSH1 0x84 ADD PUSH2 0x895 JUMP JUMPDEST CALLER PUSH1 0x0 SWAP1 DUP2 MSTORE PUSH1 0x6 PUSH1 0x20 MSTORE PUSH1 0x40 SWAP1 KECCAK256 DUP1 SLOAD PUSH2 0x14A1 JUMPI PUSH1 0x40 MLOAD PUSH3 0x461BCD PUSH1 0xE5 SHL DUP2 MSTORE PUSH1 0x20 PUSH1 0x4 DUP3 ADD MSTORE PUSH1 0x10 PUSH1 0x24 DUP3 ADD MSTORE PUSH16 0x139BC8189A59081D1BC818D85B98D95B PUSH1 0x82 SHL PUSH1 0x44 DUP3 ADD MSTORE PUSH1 0x64 ADD PUSH2 0x895 JUMP JUMPDEST PUSH1 0x2 DUP2 ADD SLOAD PUSH1 0xFF AND ISZERO PUSH2 0x14F6 JUMPI PUSH1 0x40 MLOAD PUSH3 0x461BCD PUSH1 0xE5 SHL DUP2 MSTORE PUSH1 0x20 PUSH1 0x4 DUP3 ADD MSTORE PUSH1 0x1A PUSH1 0x24 DUP3 ADD MSTORE PUSH32 0x546F6B656E732061726520616C726561647920636C61696D6564000000000000 PUSH1 0x44 DUP3 ADD MSTORE PUSH1 0x64 ADD PUSH2 0x895 JUMP JUMPDEST DUP1 SLOAD PUSH1 0x0 DUP1 DUP4 SSTORE PUSH1 0x8 SLOAD PUSH2 0x150C SWAP1 PUSH1 0x1 SWAP1 PUSH2 0x2AC0 JUMP JUMPDEST PUSH1 0x2 DUP5 ADD SLOAD SWAP1 SWAP2 POP PUSH2 0x100 SWAP1 DIV PUSH1 0x1 PUSH1 0x1 PUSH1 0x80 SHL SUB AND DUP2 EQ PUSH2 0x15E4 JUMPI PUSH1 0x0 PUSH1 0x8 DUP3 DUP2 SLOAD DUP2 LT PUSH2 0x153D JUMPI PUSH2 0x153D PUSH2 0x2B52 JUMP JUMPDEST PUSH1 0x0 SWAP2 DUP3 MSTORE PUSH1 0x20 SWAP1 SWAP2 KECCAK256 ADD SLOAD PUSH1 0x2 DUP6 ADD SLOAD PUSH1 0x8 DUP1 SLOAD PUSH1 0x1 PUSH1 0x1 PUSH1 0xA0 SHL SUB SWAP1 SWAP4 AND SWAP4 POP DUP4 SWAP3 SWAP1 SWAP2 PUSH2 0x100 SWAP1 DIV PUSH1 0x1 PUSH1 0x1 PUSH1 0x80 SHL SUB AND SWAP1 DUP2 LT PUSH2 0x1580 JUMPI PUSH2 0x1580 PUSH2 0x2B52 JUMP JUMPDEST PUSH1 0x0 SWAP2 DUP3 MSTORE PUSH1 0x20 DUP1 DUP4 KECCAK256 SWAP2 SWAP1 SWAP2 ADD DUP1 SLOAD PUSH1 0x1 PUSH1 0x1 PUSH1 0xA0 SHL SUB NOT AND PUSH1 0x1 PUSH1 0x1 PUSH1 0xA0 SHL SUB SWAP5 DUP6 AND OR SWAP1 SSTORE PUSH1 0x2 DUP8 DUP2 ADD SLOAD SWAP5 SWAP1 SWAP4 AND DUP3 MSTORE PUSH1 0x6 SWAP1 MSTORE PUSH1 0x40 SWAP1 KECCAK256 ADD DUP1 SLOAD PUSH2 0x100 PUSH1 0x1 PUSH1 0x88 SHL SUB NOT AND PUSH2 0x100 SWAP3 DUP4 SWAP1 DIV PUSH1 0x1 PUSH1 0x1 PUSH1 0x80 SHL SUB AND SWAP1 SWAP3 MUL SWAP2 SWAP1 SWAP2 OR SWAP1 SSTORE JUMPDEST PUSH1 0x8 DUP1 SLOAD DUP1 PUSH2 0x15F5 JUMPI PUSH2 0x15F5 PUSH2 0x2B68 JUMP JUMPDEST PUSH1 0x0 DUP3 DUP2 MSTORE PUSH1 0x20 SWAP1 KECCAK256 DUP2 ADD PUSH1 0x0 NOT SWAP1 DUP2 ADD DUP1 SLOAD PUSH1 0x1 PUSH1 0x1 PUSH1 0xA0 SHL SUB NOT AND SWAP1 SSTORE ADD SWAP1 SSTORE PUSH32 0x0 DUP3 GT ISZERO PUSH2 0x1679 JUMPI PUSH2 0x1675 PUSH2 0x166C PUSH32 0x0 DUP5 PUSH2 0x2AC0 JUMP JUMPDEST PUSH1 0x5 SLOAD SWAP1 PUSH2 0x22DE JUMP JUMPDEST PUSH1 0x5 SSTORE JUMPDEST PUSH2 0x1683 CALLER DUP4 PUSH2 0x247C JUMP JUMPDEST PUSH1 0x40 MLOAD DUP3 DUP2 MSTORE CALLER SWAP1 PUSH32 0xF3A6EF5718C05D9183AF076F5753197B68B04552A763C34796637D6134BDD0F2 SWAP1 PUSH1 0x20 ADD PUSH1 0x40 MLOAD DUP1 SWAP2 SUB SWAP1 LOG2 POP POP POP JUMP JUMPDEST PUSH1 0x0 PUSH32 0x0 DUP3 LT ISZERO PUSH2 0x16EF JUMPI POP PUSH1 0x0 SWAP2 SWAP1 POP JUMP JUMPDEST PUSH1 0x5 SLOAD PUSH2 0x1706 JUMPI PUSH1 0x8 SLOAD PUSH1 0x1 SLOAD PUSH2 0x841 SWAP2 SWAP1 PUSH2 0x2AD7 JUMP JUMPDEST PUSH1 0x0 PUSH2 0x1732 PUSH32 0x0 DUP5 PUSH2 0x2AC0 JUMP JUMPDEST PUSH1 0x8 SLOAD SWAP1 SWAP2 POP PUSH1 0x0 SWAP1 PUSH2 0x1766 SWAP1 PUSH32 0x0 SWAP1 PUSH2 0x2B1B JUMP JUMPDEST PUSH1 0x1 SLOAD PUSH2 0x1773 SWAP2 SWAP1 PUSH2 0x2AC0 JUMP JUMPDEST PUSH1 0x5 SLOAD SWAP1 SWAP2 POP PUSH2 0x178D SWAP1 PUSH2 0x1787 DUP5 DUP5 PUSH2 0x2618 JUMP JUMPDEST SWAP1 PUSH2 0x2624 JUMP JUMPDEST PUSH2 0x17B7 SWAP1 PUSH32 0x0 PUSH2 0x2B3A JUMP JUMPDEST SWAP5 SWAP4 POP POP POP POP JUMP JUMPDEST PUSH1 0x0 PUSH1 0x4 SLOAD TIMESTAMP LT ISZERO PUSH2 0x17E3 JUMPI PUSH1 0x40 MLOAD PUSH3 0x461BCD PUSH1 0xE5 SHL DUP2 MSTORE PUSH1 0x4 ADD PUSH2 0x895 SWAP1 PUSH2 0x2B7E JUMP JUMPDEST PUSH1 0x8 SLOAD PUSH1 0x9 SLOAD EQ ISZERO PUSH2 0x1807 JUMPI PUSH1 0x40 MLOAD PUSH3 0x461BCD PUSH1 0xE5 SHL DUP2 MSTORE PUSH1 0x4 ADD PUSH2 0x895 SWAP1 PUSH2 0x2BD2 JUMP JUMPDEST PUSH1 0x9 SLOAD PUSH1 0x5 SLOAD PUSH2 0x188A JUMPI PUSH1 0x8 SLOAD PUSH1 0x1 SLOAD PUSH32 0x0 SWAP2 PUSH2 0x1842 SWAP2 PUSH2 0x2AD7 JUMP JUMPDEST GT ISZERO PUSH2 0x1885 JUMPI PUSH1 0x40 MLOAD PUSH3 0x461BCD PUSH1 0xE5 SHL DUP2 MSTORE PUSH1 0x20 PUSH1 0x4 DUP3 ADD MSTORE PUSH1 0x12 PUSH1 0x24 DUP3 ADD MSTORE PUSH18 0x4E6F7420656E6F7567682062696464657273 PUSH1 0x70 SHL PUSH1 0x44 DUP3 ADD MSTORE PUSH1 0x64 ADD PUSH2 0x895 JUMP JUMPDEST POP PUSH1 0x8 SLOAD JUMPDEST PUSH1 0x0 PUSH2 0x18D6 PUSH32 0x0 PUSH32 0x0 PUSH2 0x2AC0 JUMP JUMPDEST PUSH1 0x8 SLOAD SWAP1 SWAP2 POP PUSH1 0x0 SWAP1 PUSH2 0x190A SWAP1 PUSH32 0x0 SWAP1 PUSH2 0x2B1B JUMP JUMPDEST PUSH1 0x1 SLOAD PUSH2 0x1917 SWAP2 SWAP1 PUSH2 0x2AC0 JUMP JUMPDEST SWAP1 POP PUSH1 0x0 PUSH2 0x1934 DUP3 PUSH2 0x1787 PUSH1 0x5 SLOAD DUP7 PUSH2 0x2618 SWAP1 SWAP2 SWAP1 PUSH4 0xFFFFFFFF AND JUMP JUMPDEST PUSH2 0x195E SWAP1 PUSH32 0x0 PUSH2 0x2B3A JUMP JUMPDEST SWAP1 POP JUMPDEST PUSH1 0x8 SLOAD DUP5 LT DUP1 ISZERO PUSH2 0x1971 JUMPI POP DUP6 GAS GT JUMPDEST ISZERO PUSH2 0x1A23 JUMPI PUSH1 0x0 PUSH1 0x8 DUP6 DUP2 SLOAD DUP2 LT PUSH2 0x198B JUMPI PUSH2 0x198B PUSH2 0x2B52 JUMP JUMPDEST PUSH1 0x0 SWAP2 DUP3 MSTORE PUSH1 0x20 DUP1 DUP4 KECCAK256 SWAP1 SWAP2 ADD SLOAD PUSH1 0x1 PUSH1 0x1 PUSH1 0xA0 SHL SUB AND DUP1 DUP4 MSTORE PUSH1 0x6 SWAP1 SWAP2 MSTORE PUSH1 0x40 SWAP1 SWAP2 KECCAK256 SLOAD SWAP1 SWAP2 POP DUP3 LT ISZERO PUSH2 0x1A10 JUMPI PUSH1 0x40 MLOAD PUSH3 0x461BCD PUSH1 0xE5 SHL DUP2 MSTORE PUSH1 0x20 PUSH1 0x4 DUP3 ADD MSTORE PUSH1 0x25 PUSH1 0x24 DUP3 ADD MSTORE PUSH32 0x4269642069732067726561746572207468616E206D617820616C6C6F7761626C PUSH1 0x44 DUP3 ADD MSTORE PUSH5 0x1948189A59 PUSH1 0xDA SHL PUSH1 0x64 DUP3 ADD MSTORE PUSH1 0x84 ADD PUSH2 0x895 JUMP JUMPDEST DUP5 PUSH2 0x1A1A DUP2 PUSH2 0x2C13 JUMP JUMPDEST SWAP6 POP POP POP PUSH2 0x1961 JUMP JUMPDEST PUSH1 0x9 SLOAD DUP5 EQ PUSH2 0x1A70 JUMPI PUSH1 0x9 SLOAD PUSH1 0x40 DUP1 MLOAD SWAP2 DUP3 MSTORE PUSH1 0x20 DUP3 ADD DUP7 SWAP1 MSTORE CALLER SWAP2 PUSH32 0x97D5AD02B58968C48057BB16E90B9468EC753E30169BF00692B7BA02B47B090E SWAP2 ADD PUSH1 0x40 MLOAD DUP1 SWAP2 SUB SWAP1 LOG2 PUSH1 0x9 DUP5 SWAP1 SSTORE JUMPDEST POP POP PUSH1 0x9 SLOAD SWAP5 SWAP4 POP POP POP POP JUMP JUMPDEST PUSH1 0x4 SLOAD TIMESTAMP LT ISZERO PUSH2 0x1A9F JUMPI PUSH1 0x40 MLOAD PUSH3 0x461BCD PUSH1 0xE5 SHL DUP2 MSTORE PUSH1 0x4 ADD PUSH2 0x895 SWAP1 PUSH2 0x2B7E JUMP JUMPDEST PUSH1 0x8 SLOAD PUSH1 0x9 SLOAD EQ ISZERO PUSH2 0x1AC3 JUMPI PUSH1 0x40 MLOAD PUSH3 0x461BCD PUSH1 0xE5 SHL DUP2 MSTORE PUSH1 0x4 ADD PUSH2 0x895 SWAP1 PUSH2 0x2BD2 JUMP JUMPDEST DUP1 DUP1 PUSH2 0x1B22 JUMPI PUSH1 0x40 MLOAD PUSH3 0x461BCD PUSH1 0xE5 SHL DUP2 MSTORE PUSH1 0x20 PUSH1 0x4 DUP3 ADD MSTORE PUSH1 0x28 PUSH1 0x24 DUP3 ADD MSTORE PUSH32 0x4D757374206265206174206C65617374206F6E652062696464657220666F7220 PUSH1 0x44 DUP3 ADD MSTORE PUSH8 0x18481C99599D5B99 PUSH1 0xC2 SHL PUSH1 0x64 DUP3 ADD MSTORE PUSH1 0x84 ADD PUSH2 0x895 JUMP JUMPDEST PUSH1 0x1 SLOAD PUSH1 0x0 SWAP1 PUSH2 0x1B52 SWAP1 PUSH32 0x0 PUSH2 0x2630 JUMP JUMPDEST PUSH1 0x8 SLOAD SWAP1 SWAP2 POP DUP2 GT ISZERO PUSH2 0x1B6D JUMPI PUSH2 0x1B67 PUSH2 0x2653 JUMP JUMPDEST POP POP POP POP JUMP JUMPDEST PUSH1 0x0 DUP5 DUP5 PUSH1 0x0 DUP2 DUP2 LT PUSH2 0x1B82 JUMPI PUSH2 0x1B82 PUSH2 0x2B52 JUMP JUMPDEST SWAP1 POP PUSH1 0x20 MUL ADD PUSH1 0x20 DUP2 ADD SWAP1 PUSH2 0x1B97 SWAP2 SWAP1 PUSH2 0x29C4 JUMP JUMPDEST PUSH1 0x1 PUSH1 0x1 PUSH1 0xA0 SHL SUB DUP2 AND PUSH1 0x0 SWAP1 DUP2 MSTORE PUSH1 0x6 PUSH1 0x20 MSTORE PUSH1 0x40 SWAP1 KECCAK256 SLOAD SWAP1 SWAP2 POP DUP1 PUSH1 0x1 JUMPDEST DUP6 DUP2 LT ISZERO PUSH2 0x1CA7 JUMPI PUSH1 0x0 DUP9 DUP9 DUP4 DUP2 DUP2 LT PUSH2 0x1BD3 JUMPI PUSH2 0x1BD3 PUSH2 0x2B52 JUMP JUMPDEST SWAP1 POP PUSH1 0x20 MUL ADD PUSH1 0x20 DUP2 ADD SWAP1 PUSH2 0x1BE8 SWAP2 SWAP1 PUSH2 0x29C4 JUMP JUMPDEST PUSH1 0x1 PUSH1 0x1 PUSH1 0xA0 SHL SUB DUP1 DUP3 AND PUSH1 0x0 DUP2 DUP2 MSTORE PUSH1 0x6 PUSH1 0x20 MSTORE PUSH1 0x40 SWAP1 KECCAK256 SLOAD SWAP3 SWAP4 POP SWAP1 DUP8 AND LT DUP1 ISZERO PUSH2 0x1C15 JUMPI POP PUSH1 0x0 DUP2 GT JUMPDEST PUSH2 0x1C76 JUMPI PUSH1 0x40 MLOAD PUSH3 0x461BCD PUSH1 0xE5 SHL DUP2 MSTORE PUSH1 0x20 PUSH1 0x4 DUP3 ADD MSTORE PUSH1 0x2C PUSH1 0x24 DUP3 ADD MSTORE PUSH32 0x416464726573736573206D75737420626520616E206172726179206F6620756E PUSH1 0x44 DUP3 ADD MSTORE PUSH12 0x697175652062696464657273 PUSH1 0xA0 SHL PUSH1 0x64 DUP3 ADD MSTORE PUSH1 0x84 ADD PUSH2 0x895 JUMP JUMPDEST DUP1 DUP6 GT ISZERO PUSH2 0x1C86 JUMPI DUP1 SWAP5 POP PUSH2 0x1C92 JUMP JUMPDEST DUP1 DUP5 LT ISZERO PUSH2 0x1C92 JUMPI DUP1 SWAP4 POP JUMPDEST POP SWAP4 POP DUP1 PUSH2 0x1C9F DUP2 PUSH2 0x2C13 JUMP JUMPDEST SWAP2 POP POP PUSH2 0x1BB7 JUMP JUMPDEST POP PUSH1 0x0 DUP6 PUSH8 0xFFFFFFFFFFFFFFFF DUP2 GT ISZERO PUSH2 0x1CC3 JUMPI PUSH2 0x1CC3 PUSH2 0x2C2E JUMP JUMPDEST PUSH1 0x40 MLOAD SWAP1 DUP1 DUP3 MSTORE DUP1 PUSH1 0x20 MUL PUSH1 0x20 ADD DUP3 ADD PUSH1 0x40 MSTORE DUP1 ISZERO PUSH2 0x1CEC JUMPI DUP2 PUSH1 0x20 ADD PUSH1 0x20 DUP3 MUL DUP1 CALLDATASIZE DUP4 CALLDATACOPY ADD SWAP1 POP JUMPDEST POP SWAP1 POP DUP2 DUP4 EQ PUSH2 0x1DC6 JUMPI PUSH1 0x0 JUMPDEST DUP7 DUP2 LT ISZERO PUSH2 0x1DC4 JUMPI PUSH1 0x0 DUP10 DUP10 DUP4 DUP2 DUP2 LT PUSH2 0x1D15 JUMPI PUSH2 0x1D15 PUSH2 0x2B52 JUMP JUMPDEST SWAP1 POP PUSH1 0x20 MUL ADD PUSH1 0x20 DUP2 ADD SWAP1 PUSH2 0x1D2A SWAP2 SWAP1 PUSH2 0x29C4 JUMP JUMPDEST PUSH1 0x1 PUSH1 0x1 PUSH1 0xA0 SHL SUB DUP2 AND PUSH1 0x0 SWAP1 DUP2 MSTORE PUSH1 0x6 PUSH1 0x20 MSTORE PUSH1 0x40 SWAP1 KECCAK256 DUP1 SLOAD SWAP2 SWAP3 POP SWAP1 DUP7 LT ISZERO PUSH2 0x1DAF JUMPI DUP1 SLOAD PUSH2 0x1D5C SWAP1 DUP8 SWAP1 PUSH2 0x2AC0 JUMP JUMPDEST DUP5 DUP5 DUP2 MLOAD DUP2 LT PUSH2 0x1D6E JUMPI PUSH2 0x1D6E PUSH2 0x2B52 JUMP JUMPDEST PUSH1 0x20 SWAP1 DUP2 MUL SWAP2 SWAP1 SWAP2 ADD ADD MSTORE DUP6 DUP2 SSTORE DUP4 MLOAD DUP5 SWAP1 DUP5 SWAP1 DUP2 LT PUSH2 0x1D90 JUMPI PUSH2 0x1D90 PUSH2 0x2B52 JUMP JUMPDEST PUSH1 0x20 MUL PUSH1 0x20 ADD ADD MLOAD PUSH1 0x5 PUSH1 0x0 DUP3 DUP3 SLOAD PUSH2 0x1DA9 SWAP2 SWAP1 PUSH2 0x2AC0 JUMP JUMPDEST SWAP1 SWAP2 SSTORE POP POP JUMPDEST POP POP DUP1 DUP1 PUSH2 0x1DBC SWAP1 PUSH2 0x2C13 JUMP JUMPDEST SWAP2 POP POP PUSH2 0x1CF9 JUMP JUMPDEST POP JUMPDEST PUSH32 0x0 PUSH2 0x1DF0 DUP5 PUSH2 0x16BD JUMP JUMPDEST GT PUSH2 0x1E4F JUMPI PUSH1 0x40 MLOAD PUSH3 0x461BCD PUSH1 0xE5 SHL DUP2 MSTORE PUSH1 0x20 PUSH1 0x4 DUP3 ADD MSTORE PUSH1 0x29 PUSH1 0x24 DUP3 ADD MSTORE PUSH32 0x4174206C65617374206F6E65206F6620626964646572732068617320616C6C6F PUSH1 0x44 DUP3 ADD MSTORE PUSH9 0x1DD8589B1948189A59 PUSH1 0xBA SHL PUSH1 0x64 DUP3 ADD MSTORE PUSH1 0x84 ADD PUSH2 0x895 JUMP JUMPDEST PUSH1 0x0 PUSH2 0x1E9B PUSH32 0x0 PUSH32 0x0 PUSH2 0x2AC0 JUMP JUMPDEST SWAP1 POP PUSH1 0x0 PUSH2 0x1EC9 PUSH32 0x0 DUP7 PUSH2 0x2AC0 JUMP JUMPDEST PUSH1 0x8 SLOAD SWAP1 SWAP2 POP PUSH1 0x0 SWAP1 PUSH2 0x1EFD SWAP1 PUSH32 0x0 SWAP1 PUSH2 0x2B1B JUMP JUMPDEST PUSH1 0x1 SLOAD PUSH2 0x1F0A SWAP2 SWAP1 PUSH2 0x2AC0 JUMP JUMPDEST SWAP1 POP PUSH1 0x0 PUSH2 0x1F4D PUSH2 0x1F1B DUP6 DUP13 PUSH2 0x2618 JUMP JUMPDEST PUSH2 0x1F25 SWAP1 DUP5 PUSH2 0x2AC0 JUMP JUMPDEST PUSH2 0x1F47 PUSH2 0x1F3D PUSH1 0x5 SLOAD DUP9 PUSH2 0x2618 SWAP1 SWAP2 SWAP1 PUSH4 0xFFFFFFFF AND JUMP JUMPDEST PUSH2 0x7F6 DUP8 DUP8 PUSH2 0x2618 JUMP JUMPDEST SWAP1 PUSH2 0x2630 JUMP JUMPDEST SWAP1 POP PUSH1 0x0 PUSH2 0x1F5B DUP9 DUP4 PUSH2 0x22DE JUMP JUMPDEST SWAP1 POP PUSH2 0x1F67 DUP3 DUP13 PUSH2 0x2B1B JUMP JUMPDEST PUSH1 0x5 PUSH1 0x0 DUP3 DUP3 SLOAD PUSH2 0x1F78 SWAP2 SWAP1 PUSH2 0x2AC0 JUMP JUMPDEST SWAP1 SWAP2 SSTORE POP PUSH1 0x0 SWAP1 POP JUMPDEST DUP12 DUP2 LT ISZERO PUSH2 0x2011 JUMPI PUSH1 0x0 DUP15 DUP15 DUP4 DUP2 DUP2 LT PUSH2 0x1F9D JUMPI PUSH2 0x1F9D PUSH2 0x2B52 JUMP JUMPDEST SWAP1 POP PUSH1 0x20 MUL ADD PUSH1 0x20 DUP2 ADD SWAP1 PUSH2 0x1FB2 SWAP2 SWAP1 PUSH2 0x29C4 JUMP JUMPDEST PUSH1 0x1 PUSH1 0x1 PUSH1 0xA0 SHL SUB DUP2 AND PUSH1 0x0 SWAP1 DUP2 MSTORE PUSH1 0x6 PUSH1 0x20 MSTORE PUSH1 0x40 SWAP1 KECCAK256 DUP10 MLOAD SWAP2 SWAP3 POP SWAP1 DUP6 SWAP1 DUP11 SWAP1 DUP6 SWAP1 DUP2 LT PUSH2 0x1FE4 JUMPI PUSH2 0x1FE4 PUSH2 0x2B52 JUMP JUMPDEST PUSH1 0x20 MUL PUSH1 0x20 ADD ADD DUP2 DUP2 MLOAD PUSH2 0x1FF8 SWAP2 SWAP1 PUSH2 0x2B3A JUMP JUMPDEST SWAP1 MSTORE POP DUP4 SWAP1 SSTORE POP DUP1 PUSH2 0x2009 DUP2 PUSH2 0x2C13 JUMP JUMPDEST SWAP2 POP POP PUSH2 0x1F81 JUMP JUMPDEST POP PUSH1 0x0 PUSH1 0x9 DUP2 SWAP1 SSTORE JUMPDEST DUP12 DUP2 LT ISZERO PUSH2 0x211B JUMPI PUSH1 0x0 DUP15 DUP15 DUP4 DUP2 DUP2 LT PUSH2 0x2036 JUMPI PUSH2 0x2036 PUSH2 0x2B52 JUMP JUMPDEST SWAP1 POP PUSH1 0x20 MUL ADD PUSH1 0x20 DUP2 ADD SWAP1 PUSH2 0x204B SWAP2 SWAP1 PUSH2 0x29C4 JUMP JUMPDEST SWAP1 POP DUP8 DUP3 DUP2 MLOAD DUP2 LT PUSH2 0x205F JUMPI PUSH2 0x205F PUSH2 0x2B52 JUMP JUMPDEST PUSH1 0x20 MUL PUSH1 0x20 ADD ADD MLOAD PUSH1 0x7 PUSH1 0x0 DUP4 PUSH1 0x1 PUSH1 0x1 PUSH1 0xA0 SHL SUB AND PUSH1 0x1 PUSH1 0x1 PUSH1 0xA0 SHL SUB AND DUP2 MSTORE PUSH1 0x20 ADD SWAP1 DUP2 MSTORE PUSH1 0x20 ADD PUSH1 0x0 KECCAK256 PUSH1 0x0 DUP3 DUP3 SLOAD PUSH2 0x209B SWAP2 SWAP1 PUSH2 0x2B3A JUMP JUMPDEST SWAP3 POP POP DUP2 SWAP1 SSTORE POP DUP1 PUSH1 0x1 PUSH1 0x1 PUSH1 0xA0 SHL SUB AND CALLER PUSH1 0x1 PUSH1 0x1 PUSH1 0xA0 SHL SUB AND PUSH32 0x2887B6DA4C721C91735AADA87DDC427D4EF240EF9B54E759EF10C0792B409373 DUP11 DUP6 DUP2 MLOAD DUP2 LT PUSH2 0x20E9 JUMPI PUSH2 0x20E9 PUSH2 0x2B52 JUMP JUMPDEST PUSH1 0x20 MUL PUSH1 0x20 ADD ADD MLOAD PUSH1 0x40 MLOAD PUSH2 0x2100 SWAP2 DUP2 MSTORE PUSH1 0x20 ADD SWAP1 JUMP JUMPDEST PUSH1 0x40 MLOAD DUP1 SWAP2 SUB SWAP1 LOG3 POP DUP1 PUSH2 0x2113 DUP2 PUSH2 0x2C13 JUMP JUMPDEST SWAP2 POP POP PUSH2 0x201A JUMP JUMPDEST POP POP POP POP POP POP POP POP POP POP POP POP POP POP JUMP JUMPDEST PUSH1 0x8 DUP2 DUP2 SLOAD DUP2 LT PUSH2 0x213B JUMPI PUSH1 0x0 DUP1 REVERT JUMPDEST PUSH1 0x0 SWAP2 DUP3 MSTORE PUSH1 0x20 SWAP1 SWAP2 KECCAK256 ADD SLOAD PUSH1 0x1 PUSH1 0x1 PUSH1 0xA0 SHL SUB AND SWAP1 POP DUP2 JUMP JUMPDEST PUSH1 0x3 SLOAD TIMESTAMP LT PUSH2 0x21BD JUMPI PUSH1 0x40 MLOAD PUSH3 0x461BCD PUSH1 0xE5 SHL DUP2 MSTORE PUSH1 0x20 PUSH1 0x4 DUP3 ADD MSTORE PUSH1 0x2E PUSH1 0x24 DUP3 ADD MSTORE PUSH32 0x43616E2774206465706F736974206D6F726520746F6B656E7320616674657220 PUSH1 0x44 DUP3 ADD MSTORE PUSH14 0x656E64206F662062696464696E67 PUSH1 0x90 SHL PUSH1 0x64 DUP3 ADD MSTORE PUSH1 0x84 ADD PUSH2 0x895 JUMP JUMPDEST PUSH2 0x21F2 PUSH1 0x1 PUSH1 0x1 PUSH1 0xA0 SHL SUB PUSH32 0x0 AND CALLER ADDRESS DUP5 PUSH2 0x26D9 JUMP JUMPDEST DUP1 PUSH1 0x1 PUSH1 0x0 DUP3 DUP3 SLOAD PUSH2 0x2204 SWAP2 SWAP1 PUSH2 0x2B3A JUMP JUMPDEST SWAP1 SWAP2 SSTORE POP POP PUSH1 0x40 MLOAD DUP2 DUP2 MSTORE CALLER SWAP1 PUSH32 0x2DA466A7B24304F47E87FA2E1E5A81B9831CE54FEC19055CE277CA2F39BA42C4 SWAP1 PUSH1 0x20 ADD PUSH2 0xAF4 JUMP JUMPDEST PUSH1 0x0 SLOAD PUSH1 0x1 PUSH1 0x1 PUSH1 0xA0 SHL SUB AND CALLER EQ PUSH2 0x2252 JUMPI PUSH1 0x0 DUP1 REVERT JUMPDEST PUSH2 0x225B DUP2 PUSH2 0x2744 JUMP JUMPDEST POP JUMP JUMPDEST PUSH1 0x0 SLOAD PUSH1 0x1 PUSH1 0x1 PUSH1 0xA0 SHL SUB AND CALLER EQ PUSH2 0x2275 JUMPI PUSH1 0x0 DUP1 REVERT JUMPDEST PUSH2 0x227D PUSH2 0x13C7 JUMP JUMPDEST ISZERO PUSH2 0x22D4 JUMPI PUSH1 0x40 MLOAD PUSH3 0x461BCD PUSH1 0xE5 SHL DUP2 MSTORE PUSH1 0x20 PUSH1 0x4 DUP3 ADD MSTORE PUSH1 0x21 PUSH1 0x24 DUP3 ADD MSTORE PUSH32 0x436C61696D696E672068617320616C7265616479206265656E20656E61626C65 PUSH1 0x44 DUP3 ADD MSTORE PUSH1 0x19 PUSH1 0xFA SHL PUSH1 0x64 DUP3 ADD MSTORE PUSH1 0x84 ADD PUSH2 0x895 JUMP JUMPDEST PUSH2 0x22DC PUSH2 0x2653 JUMP JUMPDEST JUMP JUMPDEST PUSH1 0x0 PUSH2 0x22EA DUP3 DUP5 PUSH2 0x2AC0 JUMP JUMPDEST SWAP4 SWAP3 POP POP POP JUMP JUMPDEST PUSH1 0x8 SLOAD PUSH1 0x0 SWAP1 DUP2 SWAP1 PUSH2 0x2324 SWAP1 PUSH32 0x0 SWAP1 PUSH2 0x2B1B JUMP JUMPDEST SWAP1 POP PUSH1 0x5 SLOAD PUSH1 0x0 EQ ISZERO PUSH2 0x233E JUMPI PUSH2 0x10B0 DUP5 PUSH1 0x1 SLOAD DUP4 PUSH2 0x25DE JUMP JUMPDEST PUSH1 0x0 DUP1 PUSH32 0x0 PUSH2 0x236C DUP7 DUP9 PUSH2 0x2B3A JUMP JUMPDEST GT PUSH2 0x2379 JUMPI DUP6 SWAP2 POP PUSH2 0x23EB JUMP JUMPDEST PUSH32 0x0 DUP6 LT PUSH2 0x23A7 JUMPI POP DUP5 PUSH2 0x23EB JUMP JUMPDEST PUSH32 0x0 PUSH2 0x23D2 DUP7 DUP9 PUSH2 0x2B3A JUMP JUMPDEST PUSH2 0x23DC SWAP2 SWAP1 PUSH2 0x2AC0 JUMP JUMPDEST SWAP1 POP PUSH2 0x23E8 DUP2 DUP8 PUSH2 0x2AC0 JUMP JUMPDEST SWAP2 POP JUMPDEST PUSH1 0x8 SLOAD PUSH1 0x0 SWAP1 PUSH2 0x241C SWAP1 PUSH32 0x0 SWAP1 PUSH2 0x2B1B JUMP JUMPDEST SWAP1 POP PUSH1 0x0 DUP4 ISZERO PUSH2 0x2434 JUMPI PUSH2 0x2431 DUP5 DUP4 DUP8 PUSH2 0x25DE JUMP JUMPDEST SWAP1 POP JUMPDEST DUP3 ISZERO PUSH2 0x11A8 JUMPI PUSH1 0x0 DUP3 PUSH1 0x1 SLOAD PUSH2 0x244A SWAP2 SWAP1 PUSH2 0x2AC0 JUMP JUMPDEST SWAP1 POP PUSH2 0x2459 DUP5 DUP3 PUSH1 0x5 SLOAD PUSH2 0x25DE JUMP JUMPDEST PUSH2 0x2463 SWAP1 DUP4 PUSH2 0x2B3A JUMP JUMPDEST SWAP10 SWAP9 POP POP POP POP POP POP POP POP POP JUMP JUMPDEST PUSH1 0x0 PUSH2 0x22EA DUP3 DUP5 PUSH2 0x2B3A JUMP JUMPDEST DUP1 SELFBALANCE LT ISZERO PUSH2 0x24CC JUMPI PUSH1 0x40 MLOAD PUSH3 0x461BCD PUSH1 0xE5 SHL DUP2 MSTORE PUSH1 0x20 PUSH1 0x4 DUP3 ADD MSTORE PUSH1 0x1D PUSH1 0x24 DUP3 ADD MSTORE PUSH32 0x416464726573733A20696E73756666696369656E742062616C616E6365000000 PUSH1 0x44 DUP3 ADD MSTORE PUSH1 0x64 ADD PUSH2 0x895 JUMP JUMPDEST PUSH1 0x0 DUP3 PUSH1 0x1 PUSH1 0x1 PUSH1 0xA0 SHL SUB AND DUP3 PUSH1 0x40 MLOAD PUSH1 0x0 PUSH1 0x40 MLOAD DUP1 DUP4 SUB DUP2 DUP6 DUP8 GAS CALL SWAP3 POP POP POP RETURNDATASIZE DUP1 PUSH1 0x0 DUP2 EQ PUSH2 0x2519 JUMPI PUSH1 0x40 MLOAD SWAP2 POP PUSH1 0x1F NOT PUSH1 0x3F RETURNDATASIZE ADD AND DUP3 ADD PUSH1 0x40 MSTORE RETURNDATASIZE DUP3 MSTORE RETURNDATASIZE PUSH1 0x0 PUSH1 0x20 DUP5 ADD RETURNDATACOPY PUSH2 0x251E JUMP JUMPDEST PUSH1 0x60 SWAP2 POP JUMPDEST POP POP SWAP1 POP DUP1 PUSH2 0x2595 JUMPI PUSH1 0x40 MLOAD PUSH3 0x461BCD PUSH1 0xE5 SHL DUP2 MSTORE PUSH1 0x20 PUSH1 0x4 DUP3 ADD MSTORE PUSH1 0x3A PUSH1 0x24 DUP3 ADD MSTORE PUSH32 0x416464726573733A20756E61626C6520746F2073656E642076616C75652C2072 PUSH1 0x44 DUP3 ADD MSTORE PUSH32 0x6563697069656E74206D61792068617665207265766572746564000000000000 PUSH1 0x64 DUP3 ADD MSTORE PUSH1 0x84 ADD PUSH2 0x895 JUMP JUMPDEST POP POP POP JUMP JUMPDEST PUSH1 0x0 PUSH2 0x17B7 PUSH2 0x25AA DUP4 PUSH1 0x64 PUSH2 0x2618 JUMP JUMPDEST PUSH2 0x1787 PUSH32 0x0 PUSH2 0x25D8 DUP9 DUP9 PUSH2 0x2618 JUMP JUMPDEST SWAP1 PUSH2 0x2618 JUMP JUMPDEST PUSH1 0x0 PUSH2 0x17B7 PUSH2 0x260D DUP4 PUSH32 0x0 PUSH2 0x2618 JUMP JUMPDEST PUSH2 0x1F47 PUSH1 0x64 PUSH2 0x25D8 DUP9 DUP9 JUMPDEST PUSH1 0x0 PUSH2 0x22EA DUP3 DUP5 PUSH2 0x2B1B JUMP JUMPDEST PUSH1 0x0 PUSH2 0x22EA DUP3 DUP5 PUSH2 0x2AD7 JUMP JUMPDEST PUSH1 0x0 DUP2 PUSH1 0x1 PUSH2 0x263F DUP6 DUP4 PUSH2 0x2470 JUMP JUMPDEST PUSH2 0x2649 SWAP2 SWAP1 PUSH2 0x2AC0 JUMP JUMPDEST PUSH2 0x22EA SWAP2 SWAP1 PUSH2 0x2AD7 JUMP JUMPDEST PUSH1 0x0 PUSH1 0x2 DUP2 SWAP1 SSTORE PUSH1 0x3 SSTORE PUSH1 0x0 NOT PUSH1 0x4 SSTORE PUSH2 0x26AC PUSH2 0x2678 PUSH1 0x0 SLOAD PUSH1 0x1 PUSH1 0x1 PUSH1 0xA0 SHL SUB AND SWAP1 JUMP JUMPDEST PUSH1 0x1 SLOAD PUSH1 0x1 PUSH1 0x1 PUSH1 0xA0 SHL SUB PUSH32 0x0 AND SWAP2 SWAP1 PUSH2 0x27B2 JUMP JUMPDEST PUSH1 0x40 MLOAD CALLER SWAP1 PUSH32 0x28B4C24CB1012C094CD2F59F98E89D791973295F8FDA6EAA118022D6D318960A SWAP1 PUSH1 0x0 SWAP1 LOG2 JUMP JUMPDEST PUSH1 0x40 MLOAD PUSH1 0x1 PUSH1 0x1 PUSH1 0xA0 SHL SUB DUP1 DUP6 AND PUSH1 0x24 DUP4 ADD MSTORE DUP4 AND PUSH1 0x44 DUP3 ADD MSTORE PUSH1 0x64 DUP2 ADD DUP3 SWAP1 MSTORE PUSH2 0x1B67 SWAP1 DUP6 SWAP1 PUSH4 0x23B872DD PUSH1 0xE0 SHL SWAP1 PUSH1 0x84 ADD JUMPDEST PUSH1 0x40 DUP1 MLOAD PUSH1 0x1F NOT DUP2 DUP5 SUB ADD DUP2 MSTORE SWAP2 SWAP1 MSTORE PUSH1 0x20 DUP2 ADD DUP1 MLOAD PUSH1 0x1 PUSH1 0x1 PUSH1 0xE0 SHL SUB AND PUSH1 0x1 PUSH1 0x1 PUSH1 0xE0 SHL SUB NOT SWAP1 SWAP4 AND SWAP3 SWAP1 SWAP3 OR SWAP1 SWAP2 MSTORE PUSH2 0x27E2 JUMP JUMPDEST PUSH1 0x1 PUSH1 0x1 PUSH1 0xA0 SHL SUB DUP2 AND PUSH2 0x2757 JUMPI PUSH1 0x0 DUP1 REVERT JUMPDEST PUSH1 0x0 DUP1 SLOAD PUSH1 0x40 MLOAD PUSH1 0x1 PUSH1 0x1 PUSH1 0xA0 SHL SUB DUP1 DUP6 AND SWAP4 SWAP3 AND SWAP2 PUSH32 0x8BE0079C531659141344CD1FD0A4F28419497F9722A3DAAFE3B4186F6B6457E0 SWAP2 LOG3 PUSH1 0x0 DUP1 SLOAD PUSH1 0x1 PUSH1 0x1 PUSH1 0xA0 SHL SUB NOT AND PUSH1 0x1 PUSH1 0x1 PUSH1 0xA0 SHL SUB SWAP3 SWAP1 SWAP3 AND SWAP2 SWAP1 SWAP2 OR SWAP1 SSTORE JUMP JUMPDEST PUSH1 0x40 MLOAD PUSH1 0x1 PUSH1 0x1 PUSH1 0xA0 SHL SUB DUP4 AND PUSH1 0x24 DUP3 ADD MSTORE PUSH1 0x44 DUP2 ADD DUP3 SWAP1 MSTORE PUSH2 0x2595 SWAP1 DUP5 SWAP1 PUSH4 0xA9059CBB PUSH1 0xE0 SHL SWAP1 PUSH1 0x64 ADD PUSH2 0x270D JUMP JUMPDEST PUSH1 0x0 PUSH2 0x2837 DUP3 PUSH1 0x40 MLOAD DUP1 PUSH1 0x40 ADD PUSH1 0x40 MSTORE DUP1 PUSH1 0x20 DUP2 MSTORE PUSH1 0x20 ADD PUSH32 0x5361666545524332303A206C6F772D6C6576656C2063616C6C206661696C6564 DUP2 MSTORE POP DUP6 PUSH1 0x1 PUSH1 0x1 PUSH1 0xA0 SHL SUB AND PUSH2 0x28B4 SWAP1 SWAP3 SWAP2 SWAP1 PUSH4 0xFFFFFFFF AND JUMP JUMPDEST DUP1 MLOAD SWAP1 SWAP2 POP ISZERO PUSH2 0x2595 JUMPI DUP1 DUP1 PUSH1 0x20 ADD SWAP1 MLOAD DUP2 ADD SWAP1 PUSH2 0x2855 SWAP2 SWAP1 PUSH2 0x2AF9 JUMP JUMPDEST PUSH2 0x2595 JUMPI PUSH1 0x40 MLOAD PUSH3 0x461BCD PUSH1 0xE5 SHL DUP2 MSTORE PUSH1 0x20 PUSH1 0x4 DUP3 ADD MSTORE PUSH1 0x2A PUSH1 0x24 DUP3 ADD MSTORE PUSH32 0x5361666545524332303A204552433230206F7065726174696F6E20646964206E PUSH1 0x44 DUP3 ADD MSTORE PUSH10 0x1BDD081CDD58D8D95959 PUSH1 0xB2 SHL PUSH1 0x64 DUP3 ADD MSTORE PUSH1 0x84 ADD PUSH2 0x895 JUMP JUMPDEST PUSH1 0x60 PUSH2 0x17B7 DUP5 DUP5 PUSH1 0x0 DUP6 DUP6 DUP5 EXTCODESIZE PUSH2 0x290D JUMPI PUSH1 0x40 MLOAD PUSH3 0x461BCD PUSH1 0xE5 SHL DUP2 MSTORE PUSH1 0x20 PUSH1 0x4 DUP3 ADD MSTORE PUSH1 0x1D PUSH1 0x24 DUP3 ADD MSTORE PUSH32 0x416464726573733A2063616C6C20746F206E6F6E2D636F6E7472616374000000 PUSH1 0x44 DUP3 ADD MSTORE PUSH1 0x64 ADD PUSH2 0x895 JUMP JUMPDEST PUSH1 0x0 DUP1 DUP7 PUSH1 0x1 PUSH1 0x1 PUSH1 0xA0 SHL SUB AND DUP6 DUP8 PUSH1 0x40 MLOAD PUSH2 0x2929 SWAP2 SWAP1 PUSH2 0x2C70 JUMP JUMPDEST PUSH1 0x0 PUSH1 0x40 MLOAD DUP1 DUP4 SUB DUP2 DUP6 DUP8 GAS CALL SWAP3 POP POP POP RETURNDATASIZE DUP1 PUSH1 0x0 DUP2 EQ PUSH2 0x2966 JUMPI PUSH1 0x40 MLOAD SWAP2 POP PUSH1 0x1F NOT PUSH1 0x3F RETURNDATASIZE ADD AND DUP3 ADD PUSH1 0x40 MSTORE RETURNDATASIZE DUP3 MSTORE RETURNDATASIZE PUSH1 0x0 PUSH1 0x20 DUP5 ADD RETURNDATACOPY PUSH2 0x296B JUMP JUMPDEST PUSH1 0x60 SWAP2 POP JUMPDEST POP SWAP2 POP SWAP2 POP PUSH2 0x11A8 DUP3 DUP3 DUP7 PUSH1 0x60 DUP4 ISZERO PUSH2 0x2985 JUMPI POP DUP2 PUSH2 0x22EA JUMP JUMPDEST DUP3 MLOAD ISZERO PUSH2 0x2995 JUMPI DUP3 MLOAD DUP1 DUP5 PUSH1 0x20 ADD REVERT JUMPDEST DUP2 PUSH1 0x40 MLOAD PUSH3 0x461BCD PUSH1 0xE5 SHL DUP2 MSTORE PUSH1 0x4 ADD PUSH2 0x895 SWAP2 SWAP1 PUSH2 0x2C8C JUMP JUMPDEST PUSH1 0x1 PUSH1 0x1 PUSH1 0xA0 SHL SUB DUP2 AND DUP2 EQ PUSH2 0x225B JUMPI PUSH1 0x0 DUP1 REVERT JUMPDEST PUSH1 0x0 PUSH1 0x20 DUP3 DUP5 SUB SLT ISZERO PUSH2 0x29D6 JUMPI PUSH1 0x0 DUP1 REVERT JUMPDEST DUP2 CALLDATALOAD PUSH2 0x22EA DUP2 PUSH2 0x29AF JUMP JUMPDEST PUSH1 0x0 PUSH1 0x20 DUP3 DUP5 SUB SLT ISZERO PUSH2 0x29F3 JUMPI PUSH1 0x0 DUP1 REVERT JUMPDEST POP CALLDATALOAD SWAP2 SWAP1 POP JUMP JUMPDEST PUSH1 0x0 DUP1 PUSH1 0x40 DUP4 DUP6 SUB SLT ISZERO PUSH2 0x2A0D JUMPI PUSH1 0x0 DUP1 REVERT JUMPDEST POP POP DUP1 CALLDATALOAD SWAP3 PUSH1 0x20 SWAP1 SWAP2 ADD CALLDATALOAD SWAP2 POP JUMP JUMPDEST PUSH1 0x0 DUP1 PUSH1 0x20 DUP4 DUP6 SUB SLT ISZERO PUSH2 0x2A2F JUMPI PUSH1 0x0 DUP1 REVERT JUMPDEST DUP3 CALLDATALOAD PUSH8 0xFFFFFFFFFFFFFFFF DUP1 DUP3 GT ISZERO PUSH2 0x2A47 JUMPI PUSH1 0x0 DUP1 REVERT JUMPDEST DUP2 DUP6 ADD SWAP2 POP DUP6 PUSH1 0x1F DUP4 ADD SLT PUSH2 0x2A5B JUMPI PUSH1 0x0 DUP1 REVERT JUMPDEST DUP2 CALLDATALOAD DUP2 DUP2 GT ISZERO PUSH2 0x2A6A JUMPI PUSH1 0x0 DUP1 REVERT JUMPDEST DUP7 PUSH1 0x20 DUP3 PUSH1 0x5 SHL DUP6 ADD ADD GT ISZERO PUSH2 0x2A7F JUMPI PUSH1 0x0 DUP1 REVERT JUMPDEST PUSH1 0x20 SWAP3 SWAP1 SWAP3 ADD SWAP7 SWAP2 SWAP6 POP SWAP1 SWAP4 POP POP POP POP JUMP JUMPDEST PUSH1 0x0 PUSH1 0x20 DUP3 DUP5 SUB SLT ISZERO PUSH2 0x2AA3 JUMPI PUSH1 0x0 DUP1 REVERT JUMPDEST POP MLOAD SWAP2 SWAP1 POP JUMP JUMPDEST PUSH4 0x4E487B71 PUSH1 0xE0 SHL PUSH1 0x0 MSTORE PUSH1 0x11 PUSH1 0x4 MSTORE PUSH1 0x24 PUSH1 0x0 REVERT JUMPDEST PUSH1 0x0 DUP3 DUP3 LT ISZERO PUSH2 0x2AD2 JUMPI PUSH2 0x2AD2 PUSH2 0x2AAA JUMP JUMPDEST POP SUB SWAP1 JUMP JUMPDEST PUSH1 0x0 DUP3 PUSH2 0x2AF4 JUMPI PUSH4 0x4E487B71 PUSH1 0xE0 SHL PUSH1 0x0 MSTORE PUSH1 0x12 PUSH1 0x4 MSTORE PUSH1 0x24 PUSH1 0x0 REVERT JUMPDEST POP DIV SWAP1 JUMP JUMPDEST PUSH1 0x0 PUSH1 0x20 DUP3 DUP5 SUB SLT ISZERO PUSH2 0x2B0B JUMPI PUSH1 0x0 DUP1 REVERT JUMPDEST DUP2 MLOAD DUP1 ISZERO ISZERO DUP2 EQ PUSH2 0x22EA JUMPI PUSH1 0x0 DUP1 REVERT JUMPDEST PUSH1 0x0 DUP2 PUSH1 0x0 NOT DIV DUP4 GT DUP3 ISZERO ISZERO AND ISZERO PUSH2 0x2B35 JUMPI PUSH2 0x2B35 PUSH2 0x2AAA JUMP JUMPDEST POP MUL SWAP1 JUMP JUMPDEST PUSH1 0x0 DUP3 NOT DUP3 GT ISZERO PUSH2 0x2B4D JUMPI PUSH2 0x2B4D PUSH2 0x2AAA JUMP JUMPDEST POP ADD SWAP1 JUMP JUMPDEST PUSH4 0x4E487B71 PUSH1 0xE0 SHL PUSH1 0x0 MSTORE PUSH1 0x32 PUSH1 0x4 MSTORE PUSH1 0x24 PUSH1 0x0 REVERT JUMPDEST PUSH4 0x4E487B71 PUSH1 0xE0 SHL PUSH1 0x0 MSTORE PUSH1 0x31 PUSH1 0x4 MSTORE PUSH1 0x24 PUSH1 0x0 REVERT JUMPDEST PUSH1 0x20 DUP1 DUP3 MSTORE PUSH1 0x34 SWAP1 DUP3 ADD MSTORE PUSH32 0x4F7065726174696F6E20697320616C6C6F776564207768656E2063616E63656C PUSH1 0x40 DUP3 ADD MSTORE PUSH20 0x3630BA34B7B710383430B9B29034B99037BB32B9 PUSH1 0x61 SHL PUSH1 0x60 DUP3 ADD MSTORE PUSH1 0x80 ADD SWAP1 JUMP JUMPDEST PUSH1 0x20 DUP1 DUP3 MSTORE PUSH1 0x21 SWAP1 DUP3 ADD MSTORE PUSH32 0x42696464657273206861766520616C7265616479206265656E20636865636B65 PUSH1 0x40 DUP3 ADD MSTORE PUSH1 0x19 PUSH1 0xFA SHL PUSH1 0x60 DUP3 ADD MSTORE PUSH1 0x80 ADD SWAP1 JUMP JUMPDEST PUSH1 0x0 PUSH1 0x0 NOT DUP3 EQ ISZERO PUSH2 0x2C27 JUMPI PUSH2 0x2C27 PUSH2 0x2AAA JUMP JUMPDEST POP PUSH1 0x1 ADD SWAP1 JUMP JUMPDEST PUSH4 0x4E487B71 PUSH1 0xE0 SHL PUSH1 0x0 MSTORE PUSH1 0x41 PUSH1 0x4 MSTORE PUSH1 0x24 PUSH1 0x0 REVERT JUMPDEST PUSH1 0x0 JUMPDEST DUP4 DUP2 LT ISZERO PUSH2 0x2C5F JUMPI DUP2 DUP2 ADD MLOAD DUP4 DUP3 ADD MSTORE PUSH1 0x20 ADD PUSH2 0x2C47 JUMP JUMPDEST DUP4 DUP2 GT ISZERO PUSH2 0x1B67 JUMPI POP POP PUSH1 0x0 SWAP2 ADD MSTORE JUMP JUMPDEST PUSH1 0x0 DUP3 MLOAD PUSH2 0x2C82 DUP2 DUP5 PUSH1 0x20 DUP8 ADD PUSH2 0x2C44 JUMP JUMPDEST SWAP2 SWAP1 SWAP2 ADD SWAP3 SWAP2 POP POP JUMP JUMPDEST PUSH1 0x20 DUP2 MSTORE PUSH1 0x0 DUP3 MLOAD DUP1 PUSH1 0x20 DUP5 ADD MSTORE PUSH2 0x2CAB DUP2 PUSH1 0x40 DUP6 ADD PUSH1 0x20 DUP8 ADD PUSH2 0x2C44 JUMP JUMPDEST PUSH1 0x1F ADD PUSH1 0x1F NOT AND SWAP2 SWAP1 SWAP2 ADD PUSH1 0x40 ADD SWAP3 SWAP2 POP POP JUMP INVALID LOG2 PUSH5 0x6970667358 0x22 SLT KECCAK256 0xC7 LOG3 0xB4 0xE1 BLOCKHASH CALL AND SHL MSTORE 0xAD GAS 0xF8 0x28 ADDRESS CALLDATALOAD 0x21 0x2E CALLDATACOPY 0xCB MSTORE8 0xBE 0x2A 0x4B SELFDESTRUCT PUSH17 0xAFD23954BC6D5A64736F6C634300080A00 CALLER ",
  "sha1": "8b50b3f23cfc1599702ed1f3059c76a4019a7a09",
  "source": "// SPDX-License-Identifier: AGPL-3.0-or-later\n\npragma solidity ^0.8.0; // TODO use 0.7.x version and revert changes ?\n\n\nimport \"../zeppelin/math/SafeMath.sol\";\nimport \"../zeppelin/token/ERC20/SafeERC20.sol\";\nimport \"../zeppelin/utils/Address.sol\";\nimport \"../zeppelin/ownership/Ownable.sol\";\nimport \"./NuCypherToken.sol\";\nimport \"./IStakingEscrow.sol\";\nimport \"./lib/AdditionalMath.sol\";\n\n\n/**\n* @notice The WorkLock distribution contract\n*/\ncontract WorkLock is Ownable {\n    using SafeERC20 for NuCypherToken;\n    using SafeMath for uint256;\n    using AdditionalMath for uint256;\n    using Address for address payable;\n    using Address for address;\n\n    event Deposited(address indexed sender, uint256 value);\n    event Bid(address indexed sender, uint256 depositedETH);\n    event Claimed(address indexed sender, uint256 claimedTokens);\n    event Refund(address indexed sender, uint256 refundETH, uint256 completedWork);\n    event Canceled(address indexed sender, uint256 value);\n    event BiddersChecked(address indexed sender, uint256 startIndex, uint256 endIndex);\n    event ForceRefund(address indexed sender, address indexed bidder, uint256 refundETH);\n    event CompensationWithdrawn(address indexed sender, uint256 value);\n    event Shutdown(address indexed sender);\n\n    struct WorkInfo {\n        uint256 depositedETH;\n        uint256 completedWork;\n        bool claimed;\n        uint128 index;\n    }\n\n    uint16 public constant SLOWING_REFUND = 100;\n    uint256 private constant MAX_ETH_SUPPLY = 2e10 ether;\n\n    NuCypherToken public immutable token;\n    IStakingEscrow public immutable escrow;\n\n    /*\n    * @dev WorkLock calculations:\n    * bid = minBid + bonusETHPart\n    * bonusTokenSupply = tokenSupply - bidders.length * minAllowableLockedTokens\n    * bonusDepositRate = bonusTokenSupply / bonusETHSupply\n    * claimedTokens = minAllowableLockedTokens + bonusETHPart * bonusDepositRate\n    * bonusRefundRate = bonusDepositRate * SLOWING_REFUND / boostingRefund\n    * refundETH = completedWork / refundRate\n    */\n    uint256 public immutable boostingRefund;\n    uint256 public immutable minAllowedBid;\n    uint16 public immutable stakingPeriods;\n    // copy from the escrow contract\n    uint256 public immutable maxAllowableLockedTokens;\n    uint256 public immutable minAllowableLockedTokens;\n\n    uint256 public tokenSupply;\n    uint256 public startBidDate;\n    uint256 public endBidDate;\n    uint256 public endCancellationDate;\n\n    uint256 public bonusETHSupply;\n    mapping(address => WorkInfo) public workInfo;\n    mapping(address => uint256) public compensation;\n\n    address[] public bidders;\n    // if value == bidders.length then WorkLock is fully checked\n    uint256 public nextBidderToCheck;\n\n    /**\n    * @dev Checks timestamp regarding cancellation window\n    */\n    modifier afterCancellationWindow()\n    {\n        require(block.timestamp >= endCancellationDate,\n            \"Operation is allowed when cancellation phase is over\");\n        _;\n    }\n\n    /**\n    * @param _token Token contract\n    * @param _escrow Escrow contract\n    * @param _startBidDate Timestamp when bidding starts\n    * @param _endBidDate Timestamp when bidding will end\n    * @param _endCancellationDate Timestamp when cancellation will ends\n    * @param _boostingRefund Coefficient to boost refund ETH\n    * @param _stakingPeriods Amount of periods during which tokens will be locked after claiming\n    * @param _minAllowedBid Minimum allowed ETH amount for bidding\n    */\n    constructor(\n        NuCypherToken _token,\n        IStakingEscrow _escrow,\n        uint256 _startBidDate,\n        uint256 _endBidDate,\n        uint256 _endCancellationDate,\n        uint256 _boostingRefund,\n        uint16 _stakingPeriods,\n        uint256 _minAllowedBid\n    ) {\n        uint256 totalSupply = _token.totalSupply();\n        require(totalSupply > 0 &&                              // token contract is deployed and accessible\n            _escrow.secondsPerPeriod() > 0 &&                   // escrow contract is deployed and accessible\n            _escrow.token() == _token &&                        // same token address for worklock and escrow\n            _endBidDate > _startBidDate &&                      // bidding period lasts some time\n            _endBidDate > block.timestamp &&                    // there is time to make a bid\n            _endCancellationDate >= _endBidDate &&              // cancellation window includes bidding\n            _minAllowedBid > 0 &&                               // min allowed bid was set\n            _boostingRefund > 0 &&                              // boosting coefficient was set\n            _stakingPeriods >= _escrow.minLockedPeriods());     // staking duration is consistent with escrow contract\n        // worst case for `ethToWork()` and `workToETH()`,\n        // when ethSupply == MAX_ETH_SUPPLY and tokenSupply == totalSupply\n        require(MAX_ETH_SUPPLY * totalSupply * SLOWING_REFUND / MAX_ETH_SUPPLY / totalSupply == SLOWING_REFUND &&\n            MAX_ETH_SUPPLY * totalSupply * _boostingRefund / MAX_ETH_SUPPLY / totalSupply == _boostingRefund);\n\n        token = _token;\n        escrow = _escrow;\n        startBidDate = _startBidDate;\n        endBidDate = _endBidDate;\n        endCancellationDate = _endCancellationDate;\n        boostingRefund = _boostingRefund;\n        stakingPeriods = _stakingPeriods;\n        minAllowedBid = _minAllowedBid;\n        maxAllowableLockedTokens = _escrow.maxAllowableLockedTokens();\n        minAllowableLockedTokens = _escrow.minAllowableLockedTokens();\n    }\n\n    /**\n    * @notice Deposit tokens to contract\n    * @param _value Amount of tokens to transfer\n    */\n    function tokenDeposit(uint256 _value) external {\n        require(block.timestamp < endBidDate, \"Can't deposit more tokens after end of bidding\");\n        token.safeTransferFrom(msg.sender, address(this), _value);\n        tokenSupply += _value;\n        emit Deposited(msg.sender, _value);\n    }\n\n    /**\n    * @notice Calculate amount of tokens that will be get for specified amount of ETH\n    * @dev This value will be fixed only after end of bidding\n    */\n    function ethToTokens(uint256 _ethAmount) public view returns (uint256) {\n        if (_ethAmount < minAllowedBid) {\n            return 0;\n        }\n\n        // when all participants bid with the same minimum amount of eth\n        if (bonusETHSupply == 0) {\n            return tokenSupply / bidders.length;\n        }\n\n        uint256 bonusETH = _ethAmount - minAllowedBid;\n        uint256 bonusTokenSupply = tokenSupply - bidders.length * minAllowableLockedTokens;\n        return minAllowableLockedTokens + bonusETH.mul(bonusTokenSupply).div(bonusETHSupply);\n    }\n\n    /**\n    * @notice Calculate amount of work that need to be done to refund specified amount of ETH\n    */\n    function ethToWork(uint256 _ethAmount, uint256 _tokenSupply, uint256 _ethSupply)\n        internal view returns (uint256)\n    {\n        return _ethAmount.mul(_tokenSupply).mul(SLOWING_REFUND).divCeil(_ethSupply.mul(boostingRefund));\n    }\n\n    /**\n    * @notice Calculate amount of work that need to be done to refund specified amount of ETH\n    * @dev This value will be fixed only after end of bidding\n    * @param _ethToReclaim Specified sum of ETH staker wishes to reclaim following completion of work\n    * @param _restOfDepositedETH Remaining ETH in staker's deposit once ethToReclaim sum has been subtracted\n    * @dev _ethToReclaim + _restOfDepositedETH = depositedETH\n    */\n    function ethToWork(uint256 _ethToReclaim, uint256 _restOfDepositedETH) internal view returns (uint256) {\n\n        uint256 baseETHSupply = bidders.length * minAllowedBid;\n        // when all participants bid with the same minimum amount of eth\n        if (bonusETHSupply == 0) {\n            return ethToWork(_ethToReclaim, tokenSupply, baseETHSupply);\n        }\n\n        uint256 baseETH = 0;\n        uint256 bonusETH = 0;\n\n        // If the staker's total remaining deposit (including the specified sum of ETH to reclaim)\n        // is lower than the minimum bid size,\n        // then only the base part is used to calculate the work required to reclaim ETH\n        if (_ethToReclaim + _restOfDepositedETH <= minAllowedBid) {\n            baseETH = _ethToReclaim;\n\n        // If the staker's remaining deposit (not including the specified sum of ETH to reclaim)\n        // is still greater than the minimum bid size,\n        // then only the bonus part is used to calculate the work required to reclaim ETH\n        } else if (_restOfDepositedETH >= minAllowedBid) {\n            bonusETH = _ethToReclaim;\n\n        // If the staker's remaining deposit (not including the specified sum of ETH to reclaim)\n        // is lower than the minimum bid size,\n        // then both the base and bonus parts must be used to calculate the work required to reclaim ETH\n        } else {\n            bonusETH = _ethToReclaim + _restOfDepositedETH - minAllowedBid;\n            baseETH = _ethToReclaim - bonusETH;\n        }\n\n        uint256 baseTokenSupply = bidders.length * minAllowableLockedTokens;\n        uint256 work = 0;\n        if (baseETH > 0) {\n            work = ethToWork(baseETH, baseTokenSupply, baseETHSupply);\n        }\n\n        if (bonusETH > 0) {\n            uint256 bonusTokenSupply = tokenSupply - baseTokenSupply;\n            work += ethToWork(bonusETH, bonusTokenSupply, bonusETHSupply);\n        }\n\n        return work;\n    }\n\n    /**\n    * @notice Calculate amount of work that need to be done to refund specified amount of ETH\n    * @dev This value will be fixed only after end of bidding\n    */\n    function ethToWork(uint256 _ethAmount) public view returns (uint256) {\n        return ethToWork(_ethAmount, 0);\n    }\n\n    /**\n    * @notice Calculate amount of ETH that will be refund for completing specified amount of work\n    */\n    function workToETH(uint256 _completedWork, uint256 _ethSupply, uint256 _tokenSupply)\n        internal view returns (uint256)\n    {\n        return _completedWork.mul(_ethSupply).mul(boostingRefund).div(_tokenSupply.mul(SLOWING_REFUND));\n    }\n\n    /**\n    * @notice Calculate amount of ETH that will be refund for completing specified amount of work\n    * @dev This value will be fixed only after end of bidding\n    */\n    function workToETH(uint256 _completedWork, uint256 _depositedETH) public view returns (uint256) {\n        uint256 baseETHSupply = bidders.length * minAllowedBid;\n        // when all participants bid with the same minimum amount of eth\n        if (bonusETHSupply == 0) {\n            return workToETH(_completedWork, baseETHSupply, tokenSupply);\n        }\n\n        uint256 bonusWork = 0;\n        uint256 bonusETH = 0;\n        uint256 baseTokenSupply = bidders.length * minAllowableLockedTokens;\n\n        if (_depositedETH > minAllowedBid) {\n            bonusETH = _depositedETH - minAllowedBid;\n            uint256 bonusTokenSupply = tokenSupply - baseTokenSupply;\n            bonusWork = ethToWork(bonusETH, bonusTokenSupply, bonusETHSupply);\n\n            if (_completedWork <= bonusWork) {\n                return workToETH(_completedWork, bonusETHSupply, bonusTokenSupply);\n            }\n        }\n\n        _completedWork -= bonusWork;\n        return bonusETH + workToETH(_completedWork, baseETHSupply, baseTokenSupply);\n    }\n\n    /**\n    * @notice Get remaining work to full refund\n    */\n    function getRemainingWork(address _bidder) external view returns (uint256) {\n        WorkInfo storage info = workInfo[_bidder];\n        uint256 completedWork = escrow.getCompletedWork(_bidder).sub(info.completedWork);\n        uint256 remainingWork = ethToWork(info.depositedETH);\n        if (remainingWork <= completedWork) {\n            return 0;\n        }\n        return remainingWork - completedWork;\n    }\n\n    /**\n    * @notice Get length of bidders array\n    */\n    function getBiddersLength() external view returns (uint256) {\n        return bidders.length;\n    }\n\n    /**\n    * @notice Bid for tokens by transferring ETH\n    */\n    function bid() external payable {\n        require(block.timestamp >= startBidDate, \"Bidding is not open yet\");\n        require(block.timestamp < endBidDate, \"Bidding is already finished\");\n        WorkInfo storage info = workInfo[msg.sender];\n\n        // first bid\n        if (info.depositedETH == 0) {\n            require(msg.value >= minAllowedBid, \"Bid must be at least minimum\");\n            require(bidders.length < tokenSupply / minAllowableLockedTokens, \"Not enough tokens for more bidders\");\n            info.index = uint128(bidders.length);\n            bidders.push(msg.sender);\n            bonusETHSupply = bonusETHSupply.add(msg.value - minAllowedBid);\n        } else {\n            bonusETHSupply = bonusETHSupply.add(msg.value);\n        }\n\n        info.depositedETH = info.depositedETH.add(msg.value);\n        emit Bid(msg.sender, msg.value);\n    }\n\n    /**\n    * @notice Cancel bid and refund deposited ETH\n    */\n    function cancelBid() external {\n        require(block.timestamp < endCancellationDate,\n            \"Cancellation allowed only during cancellation window\");\n        WorkInfo storage info = workInfo[msg.sender];\n        require(info.depositedETH > 0, \"No bid to cancel\");\n        require(!info.claimed, \"Tokens are already claimed\");\n        uint256 refundETH = info.depositedETH;\n        info.depositedETH = 0;\n\n        // remove from bidders array, move last bidder to the empty place\n        uint256 lastIndex = bidders.length - 1;\n        if (info.index != lastIndex) {\n            address lastBidder = bidders[lastIndex];\n            bidders[info.index] = lastBidder;\n            workInfo[lastBidder].index = info.index;\n        }\n        bidders.pop();\n\n        if (refundETH > minAllowedBid) {\n            bonusETHSupply = bonusETHSupply.sub(refundETH - minAllowedBid);\n        }\n        payable(msg.sender).sendValue(refundETH);\n        emit Canceled(msg.sender, refundETH);\n    }\n\n    /**\n    * @notice Cancels distribution, makes possible to retrieve all bids and owner gets all tokens\n    */\n    function shutdown() external onlyOwner {\n        require(!isClaimingAvailable(), \"Claiming has already been enabled\");\n        internalShutdown();\n    }\n\n    /**\n    * @notice Cancels distribution, makes possible to retrieve all bids and owner gets all tokens\n    */\n    function internalShutdown() internal {\n        startBidDate = 0;\n        endBidDate = 0;\n        endCancellationDate = type(uint256).max; // \"infinite\" cancellation window\n        token.safeTransfer(owner(), tokenSupply);\n        emit Shutdown(msg.sender);\n    }\n\n    /**\n    * @notice Make force refund to bidders who can get tokens more than maximum allowed\n    * @param _biddersForRefund Sorted list of unique bidders. Only bidders who must receive a refund\n    */\n    function forceRefund(address payable[] calldata _biddersForRefund) external afterCancellationWindow {\n        require(nextBidderToCheck != bidders.length, \"Bidders have already been checked\");\n\n        uint256 length = _biddersForRefund.length;\n        require(length > 0, \"Must be at least one bidder for a refund\");\n\n        uint256 minNumberOfBidders = tokenSupply.divCeil(maxAllowableLockedTokens);\n        if (bidders.length < minNumberOfBidders) {\n            internalShutdown();\n            return;\n        }\n\n        address previousBidder = _biddersForRefund[0];\n        uint256 minBid = workInfo[previousBidder].depositedETH;\n        uint256 maxBid = minBid;\n\n        // get minimum and maximum bids\n        for (uint256 i = 1; i < length; i++) {\n            address bidder = _biddersForRefund[i];\n            uint256 depositedETH = workInfo[bidder].depositedETH;\n            require(bidder > previousBidder && depositedETH > 0, \"Addresses must be an array of unique bidders\");\n            if (minBid > depositedETH) {\n                minBid = depositedETH;\n            } else if (maxBid < depositedETH) {\n                maxBid = depositedETH;\n            }\n            previousBidder = bidder;\n        }\n\n        uint256[] memory refunds = new uint256[](length);\n        // first step - align at a minimum bid\n        if (minBid != maxBid) {\n            for (uint256 i = 0; i < length; i++) {\n                address bidder = _biddersForRefund[i];\n                WorkInfo storage info = workInfo[bidder];\n                if (info.depositedETH > minBid) {\n                    refunds[i] = info.depositedETH - minBid;\n                    info.depositedETH = minBid;\n                    bonusETHSupply -= refunds[i];\n                }\n            }\n        }\n\n        require(ethToTokens(minBid) > maxAllowableLockedTokens,\n            \"At least one of bidders has allowable bid\");\n\n        // final bids adjustment (only for bonus part)\n        // (min_whale_bid * token_supply - max_stake * eth_supply) / (token_supply - max_stake * n_whales)\n        uint256 maxBonusTokens = maxAllowableLockedTokens - minAllowableLockedTokens;\n        uint256 minBonusETH = minBid - minAllowedBid;\n        uint256 bonusTokenSupply = tokenSupply - bidders.length * minAllowableLockedTokens;\n        uint256 refundETH = minBonusETH.mul(bonusTokenSupply)\n                                .sub(maxBonusTokens.mul(bonusETHSupply))\n                                .divCeil(bonusTokenSupply - maxBonusTokens.mul(length));\n        uint256 resultBid = minBid.sub(refundETH);\n        bonusETHSupply -= length * refundETH;\n        for (uint256 i = 0; i < length; i++) {\n            address bidder = _biddersForRefund[i];\n            WorkInfo storage info = workInfo[bidder];\n            refunds[i] += refundETH;\n            info.depositedETH = resultBid;\n        }\n\n        // reset verification\n        nextBidderToCheck = 0;\n\n        // save a refund\n        for (uint256 i = 0; i < length; i++) {\n            address bidder = _biddersForRefund[i];\n            compensation[bidder] += refunds[i];\n            emit ForceRefund(msg.sender, bidder, refunds[i]);\n        }\n\n    }\n\n    /**\n    * @notice Withdraw compensation after force refund\n    */\n    function withdrawCompensation() external {\n        uint256 refund = compensation[msg.sender];\n        require(refund > 0, \"There is no compensation\");\n        compensation[msg.sender] = 0;\n        payable(msg.sender).sendValue(refund);\n        emit CompensationWithdrawn(msg.sender, refund);\n    }\n\n    /**\n    * @notice Check that the claimed tokens are within `maxAllowableLockedTokens` for all participants,\n    * starting from the last point `nextBidderToCheck`\n    * @dev Method stops working when the remaining gas is less than `_gasToSaveState`\n    * and saves the state in `nextBidderToCheck`.\n    * If all bidders have been checked then `nextBidderToCheck` will be equal to the length of the bidders array\n    */\n    function verifyBiddingCorrectness(uint256 _gasToSaveState) external afterCancellationWindow returns (uint256) {\n        require(nextBidderToCheck != bidders.length, \"Bidders have already been checked\");\n\n        // all participants bid with the same minimum amount of eth\n        uint256 index = nextBidderToCheck;\n        if (bonusETHSupply == 0) {\n            require(tokenSupply / bidders.length <= maxAllowableLockedTokens, \"Not enough bidders\");\n            index = bidders.length;\n        }\n\n        uint256 maxBonusTokens = maxAllowableLockedTokens - minAllowableLockedTokens;\n        uint256 bonusTokenSupply = tokenSupply - bidders.length * minAllowableLockedTokens;\n        uint256 maxBidFromMaxStake = minAllowedBid + maxBonusTokens.mul(bonusETHSupply).div(bonusTokenSupply);\n\n\n        while (index < bidders.length && gasleft() > _gasToSaveState) {\n            address bidder = bidders[index];\n            require(workInfo[bidder].depositedETH <= maxBidFromMaxStake, \"Bid is greater than max allowable bid\");\n            index++;\n        }\n\n        if (index != nextBidderToCheck) {\n            emit BiddersChecked(msg.sender, nextBidderToCheck, index);\n            nextBidderToCheck = index;\n        }\n        return nextBidderToCheck;\n    }\n\n    /**\n    * @notice Checks if claiming available\n    */\n    function isClaimingAvailable() public view returns (bool) {\n        return block.timestamp >= endCancellationDate &&\n            nextBidderToCheck == bidders.length;\n    }\n\n    /**\n    * @notice Claimed tokens will be deposited and locked as stake in the StakingEscrow contract.\n    */\n    function claim() external returns (uint256 claimedTokens) {\n        require(isClaimingAvailable(), \"Claiming has not been enabled yet\");\n        WorkInfo storage info = workInfo[msg.sender];\n        require(!info.claimed, \"Tokens are already claimed\");\n        claimedTokens = ethToTokens(info.depositedETH);\n        require(claimedTokens > 0, \"Nothing to claim\");\n\n        info.claimed = true;\n        token.approve(address(escrow), claimedTokens);\n        escrow.depositFromWorkLock(msg.sender, claimedTokens, stakingPeriods);\n        info.completedWork = escrow.setWorkMeasurement(msg.sender, true);\n        emit Claimed(msg.sender, claimedTokens);\n    }\n\n    /**\n    * @notice Get available refund for bidder\n    */\n    function getAvailableRefund(address _bidder) public view returns (uint256) {\n        WorkInfo storage info = workInfo[_bidder];\n        // nothing to refund\n        if (info.depositedETH == 0) {\n            return 0;\n        }\n\n        uint256 currentWork = escrow.getCompletedWork(_bidder);\n        uint256 completedWork = currentWork.sub(info.completedWork);\n        // no work that has been completed since last refund\n        if (completedWork == 0) {\n            return 0;\n        }\n\n        uint256 refundETH = workToETH(completedWork, info.depositedETH);\n        if (refundETH > info.depositedETH) {\n            refundETH = info.depositedETH;\n        }\n        return refundETH;\n    }\n\n    /**\n    * @notice Refund ETH for the completed work\n    */\n    function refund() external returns (uint256 refundETH) {\n        WorkInfo storage info = workInfo[msg.sender];\n        require(info.claimed, \"Tokens must be claimed before refund\");\n        refundETH = getAvailableRefund(msg.sender);\n        require(refundETH > 0, \"Nothing to refund: there is no ETH to refund or no completed work\");\n\n        if (refundETH == info.depositedETH) {\n            escrow.setWorkMeasurement(msg.sender, false);\n        }\n        info.depositedETH = info.depositedETH.sub(refundETH);\n        // convert refund back to work to eliminate potential rounding errors\n        uint256 completedWork = ethToWork(refundETH, info.depositedETH);\n\n        info.completedWork = info.completedWork.add(completedWork);\n        emit Refund(msg.sender, refundETH, completedWork);\n        payable(msg.sender).sendValue(refundETH);\n    }\n}\n",
  "sourcePath": "contracts/contracts/WorkLock.sol",
  "type": "contract"
}